:0200000270008C
:105000003DB8F3960000000000020000DC520200F0
:105010000000000000000000000000000000000090
:10502000FFFFFFFFFFFFFFFFFFFFFFFFFFFFFFFF90
:10503000FFFFFFFFFFFFFFFFFFFFFFFFFFFFFFFF80
:10504000FFFFFFFFFFFFFFFFFFFFFFFFFFFFFFFF70
:10505000FFFFFFFFFFFFFFFFFFFFFFFFFFFFFFFF60
:10506000FFFFFFFFFFFFFFFFFFFFFFFFFFFFFFFF50
:10507000FFFFFFFFFFFFFFFFFFFFFFFFFFFFFFFF40
:10508000FFFFFFFFFFFFFFFFFFFFFFFFFFFFFFFF30
:10509000FFFFFFFFFFFFFFFFFFFFFFFFFFFFFFFF20
:1050A000FFFFFFFFFFFFFFFFFFFFFFFFFFFFFFFF10
:1050B000FFFFFFFFFFFFFFFFFFFFFFFFFFFFFFFF00
:1050C000FFFFFFFFFFFFFFFFFFFFFFFFFFFFFFFFF0
:1050D000FFFFFFFFFFFFFFFFFFFFFFFFFFFFFFFFE0
:1050E000FFFFFFFFFFFFFFFFFFFFFFFFFFFFFFFFD0
:1050F000FFFFFFFFFFFFFFFFFFFFFFFFFFFFFFFFC0
:10510000FFFFFFFFFFFFFFFFFFFFFFFFFFFFFFFFAF
:10511000FFFFFFFFFFFFFFFFFFFFFFFFFFFFFFFF9F
:10512000FFFFFFFFFFFFFFFFFFFFFFFFFFFFFFFF8F
:10513000FFFFFFFFFFFFFFFFFFFFFFFFFFFFFFFF7F
:10514000FFFFFFFFFFFFFFFFFFFFFFFFFFFFFFFF6F
:10515000FFFFFFFFFFFFFFFFFFFFFFFFFFFFFFFF5F
:10516000FFFFFFFFFFFFFFFFFFFFFFFFFFFFFFFF4F
:10517000FFFFFFFFFFFFFFFFFFFFFFFFFFFFFFFF3F
:10518000FFFFFFFFFFFFFFFFFFFFFFFFFFFFFFFF2F
:10519000FFFFFFFFFFFFFFFFFFFFFFFFFFFFFFFF1F
:1051A000FFFFFFFFFFFFFFFFFFFFFFFFFFFFFFFF0F
:1051B000FFFFFFFFFFFFFFFFFFFFFFFFFFFFFFFFFF
:1051C000FFFFFFFFFFFFFFFFFFFFFFFFFFFFFFFFEF
:1051D000FFFFFFFFFFFFFFFFFFFFFFFFFFFFFFFFDF
:1051E000FFFFFFFFFFFFFFFFFFFFFFFFFFFFFFFFCF
:1051F000FFFFFFFFFFFFFFFFFFFFFFFFFFFFFFFFBF
:105200002026002015E10000174E0100E9E0000013
:10521000E9E00000E9E00000E9E00000E9E000006A
:10522000000000000000000000000000E5DA0000BF
:10523000E9E00000000000008DDA000025F1000028
:1052400065DB000065DB000065DB000065DB00005E
:1052500065DB000065DB000065DB000065DB00004E
:1052600065DB000065DB000065DB000065DB00003E
:1052700065DB000065DB000065DB000065DB00002E
:1052800065DB000065DB000065DB000065DB00001E
:1052900065DB000065DB000065DB000065DB00000E
:1052A00065DB000065DB000065DB000065DB0000FE
:1052B00065DB000065DB000065DB000065DB0000EE
:1052C00065DB000065DB000065DB000065DB0000DE
:1052D00065DB000065DB000065DB000065DB0000CE
:1052E00065DB000065DB000065DB000065DB0000BE
:1052F00065DB000065DB000065DB000065DB0000AE
:1053000065DB000065DB000065DB000065DB00009D
:1053100065DB000065DB000065DB000065DB00008D
:1053200065DB000065DB000065DB000065DB00007D
:1053300065DB000065DB000065DB000065DB00006D
:1053400065DB00000000000000000000000000001D
:10535000000000000000000000000000000000004D
:10536000000000000000000000000000000000003D
:10537000000000000000000000000000000000002D
:10538000000000000000000000000000000000001D
:10539000000000000000000000000000000000000D
:1053A00000000000000000000000000000000000FD
:1053B00000000000000000000000000000000000ED
:1053C00000000000000000000000000000000000DD
:1053D00000000000000000000000000000000000CD
:1053E00000000000000000000000000000000000BD
:1053F00000000000000000000000000000000000AD
:10540000DEE61E284CBBCE8F025B00003C00000095
:1054100000BE00000100000000C2000000C2000049
:10542000FFFF0291000000000000000000000000EB
:1054300000000000000000000000000053B94AB95D
:10544000002908BF00281CBF4FF0FF314FF0FF308C
:1054500000F070B9ADF1080C6DE904CE00F006F86B
:10546000DDF804E0DDE9022304B070472DE9F047E0
:10547000089E0D4604468A46002B7FD18A42174675
:1054800041D9B2FA82F24AB1C2F1200105FA02F31F
:105490009740944020FA01F141EA030A4FEA174885
:1054A0004FEA144C1FFA87F9BAFBF8FE08FB1EA35B
:1054B0000EFB09F14CEA0343994206D9FB1802D2CC
:1054C000994200F224810EF1FF3E591AA3B2B1FBBA
:1054D000F8F008FB101100FB09F943EA0144A1456B
:1054E00005D93C1902D2A14500F20E810138A4EB86
:1054F000090440EA0E4000211EB1D4400023C6E951
:105500000043BDE8F08702B9FFDEB2FA82F2002A5A
:105510004FD1CB1B4FEA174E1FFA87F80121250CFC
:10552000B3FBFEFC0EFB1C302B4608FB0CF945EAD6
:105530000045A9450AD97D192CBF01230023A9459F
:1055400002D9002B00F0D9800CF1FF3CA5EB090536
:10555000A3B2B5FBFEF00EFB105508FB00F843EAC2
:105560000544A04505D93C1902D2A04500F2C980E6
:105570000138A4EB080440EA0C40BDE78B4208D98F
:10558000002E00F0B1800021C6E900050846BDE804
:10559000F087B3FA83F1002946D1AB42C0F0A7806F
:1055A000824240F2A4800846002EAAD0C6E9004AF2
:1055B000A7E7C2F12000974001FA02F34FEA174E25
:1055C000C14024FA00F51FFA87F894401D43B1FB4F
:1055D000FEF02B0C0EFB101100FB08FC43EA01430C
:1055E0009C4509D9FB182CBF012100219C4502D9FB
:1055F000002900F095800138A3EB0C03ADB2B3FB9A
:10560000FEF10EFB113301FB08FC45EA0345AC45F6
:1056100005D97D1902D2AC4500F289800139A5EB8C
:105620000C0341EA00417AE7C1F120048B4002FA01
:1056300001F705FA01FCE24020FA04F8E54000FA1F
:1056400001FE134348EA0C024FEA13484FEA124C9A
:105650001FFA83F9B5FBF8FA08FB1A550AFB09F0A3
:105660004CEA054C60450AD913EB0C0C2CBF012504
:105670000025604501D9002D55D00AF1FF3AACEB69
:10568000000C92B2BCFBF8F008FB10CC00FB09F94F
:1056900042EA0C4CE14505D913EB0C0C01D2E14573
:1056A0003BD8013840EA0A40ACEB090CA0FB078963
:1056B000CC4545464A4602D306D1C64504D20138F8
:1056C000B8EB070569EB03022EB3BEEB05036CEBE9
:1056D000020C23FA01F20CFA04F42CFA01F3002173
:1056E0001443C6E900430CE73146304609E7841A03
:1056F00065EB030301209A4656E7ACF1020C3D44EA
:1057000024E702383C4434E702383C44EFE6AEF18B
:10571000020E3B44D9E63146F3E602389C44C1E729
:1057200002383B4468E7AAF1020A9C44A7E7023921
:105730003D4474E7704700BF2DE9E04F2746A0467F
:10574000A146A246A346A446A2B02DEC000A84F3CB
:10575000008825462646A4473DEC000A22B0BDE855
:10576000E08F00000B6801330B60014B1B6818478A
:1057700000000020014B1860704700BF00000020AF
:1057800007B50B46002102460191034801A900F02C
:1057900005F803B05DF804FB65C700002DE9F04F84
:1057A0008B4692461C46002591B002909AF8000064
:1057B00008B928465EE325280AF1010707D05946B3
:1057C000029B98470028C0F25583013510E2182249
:1057D00000210AA808F086FB9AF80130252B78D022
:1057E00000229446164696461046394617F8013B65
:1057F0002B2B00F09D8000F29480202B00F09B80EA
:10580000232B00F09A8028B19DF8300040F004006E
:105810008DF83000BEF1000F05D09DF8300040F04B
:1058200008008DF830002EB19DF8300040F01000D7
:105830008DF83000BCF1000F05D09DF8300040F02D
:1058400020008DF830002AB19DF8302042F040024F
:105850008DF830209DF8302002F04400442803D118
:105860006FF386128DF830209DF830202A2B42F0FD
:1058700080028DF830207BD19DF831204B1C42F006
:1058800001028DF831201A782E2A0CBF0121002147
:105890009DF8312061F341028DF8312074D15A789E
:1058A0002A2A6AD000210A260133184610F8012B53
:1058B000A2F13007092F40F28E809DF830200E9122
:1058C000C2F3400040EAD17161F341028DF830200B
:1058D0005AE00AF102078DF833309DF83130D907CC
:1058E00040F1498154F8049BB9F1000F07DA9DF8A3
:1058F0003020C9F1000942F004028DF830205A0727
:1059000040F1428154F8048BB8F1000F80F24181DC
:105910009DF831306FF341038DF831304FF0FF388F
:1059200037E12D2B0CD0302B7FF46DAF01225CE7DB
:105930004FF0010E59E7012657E74FF0010C54E7ED
:10594000012052E733460CFB0202303A1E4616F89D
:10595000010BA0F13007092FF4D9994293D09DF89B
:1059600030100D92D20F62F341018DF830108AE7AA
:105970000B4600224FF00A0CE8E79DF83120023375
:1059800042F004028DF831201F4617F8012B6C2AD3
:1059900041D025D8682A2BD06A2A46D04C2A4CD030
:1059A0001F4617F8012B9DF83130782A8DF83320E7
:1059B00000F2D980572A4DD8412A03D0453A022A0D
:1059C00000F2D18004229DF8323062F302038DF898
:1059D000323001239EE006FB01210346303964E7A3
:1059E000742A26D07A2ADBD106229DF831300DE0C8
:1059F0005A78682A9DF8312006D1012161F3C60248
:105A00008DF831209F1CCCE71346022262F3C603B7
:105A10008DF83130C5E75A786C2A9DF8312001D1D4
:105A20000421EBE713460322F0E705229DF831300D
:105A3000ECE707229DF83130E8E7BDF8303023F479
:105A4000F04323F0020343F4804343F00203ADF834
:105A50003030A6E7A2F15801202900F2848001A08D
:105A600050F821F029CB000067CB000067CB000085
:105A700067CB000067CB000067CB000067CB00005E
:105A800067CB000067CB0000C5C9000067CB0000F2
:105A900029CB0000E9CA0000C5C90000C5C9000043
:105AA000C5C9000067CB0000E9CA000067CB000051
:105AB00067CB000067CB000067CB000031CB000054
:105AC00029CB00004DCB000067CB000067CB000066
:105AD0004DCB000067CB000029CB000067CB000056
:105AE00067CB000029CB000001209DF8321003F0A5
:105AF000780360F30201402B8DF8321002BF9DF84D
:105B0000301041F001018DF83010632A31D1003B93
:105B100018BF01239DF83020C2F340010B4363F30B
:105B200041028DF83020D8E602209DF83210DEE7E1
:105B300003219DF8322003F07803A3F1400061F3C4
:105B4000020243428DF832204341E3E703219DF8EE
:105B5000322013F0780F61F3020214BF01230023F7
:105B60008DF83220D6E79DF8303043F001038DF8F0
:105B700030300023CEE79DF93020002AACBF4FF033
:105B8000FF39DDF83490BAE69B077FF5C7AEDDF844
:105B900038800023CDE90D339DF832309DF8312057
:105BA00003F00703012BC2F3C30236D1D31E042B2B
:105BB00020D8DFE803F00307071F1F0054F8040B89
:105BC000C11704E0073424F00704F4E80201CDE92A
:105BD0000A019DF8303013F0030654D03B4652467C
:105BE0005946029808F073F80028C0F24381054432
:105BF000BA46DBE554F8040B012A4FEAE071CDE91F
:105C00000A0105D19DF828300A9300230B93E0E7A1
:105C1000022ADED1BDF92800D2E7022B23D1D31E00
:105C2000042B13D8DFE803F0030A0A121200002144
:105C30002068231D0A900B911C46CAE7073424F004
:105C40000703F3E80201CDE90A01F5E754F8043B44
:105C5000012A0A934FF000030B93D3D0022AB8D144
:105C6000BDF82830D0E7042B07D1073424F007040F
:105C7000F4E80201CDE90A01ABE7032B04BF54F8B5
:105C8000043B0A93A5E79DF833007828B0D8622832
:105C900022D825283FF493AD5828A9D1DDE90A017F
:105CA0000DF1260300930CAA04AB07F0C5FF824652
:105CB000B8F1000F0DF126000CDB9DF83020A0EBB1
:105CC0000A036FF3861298458DF8302002D9A8EBAD
:105CD00003030D9380463DE06338152888D801A161
:105CE00051F820F065CD0000C9CD0000F1CB0000D7
:105CF000F1CB0000F1CB0000F1CB0000C9CD0000DA
:105D0000F1CB0000F1CB0000F1CB0000F1CB0000A3
:105D100027CE0000F5CD0000F9CD0000F1CB00004A
:105D2000F1CB00003DCD0000F1CB0000F5CD00002F
:105D3000F1CB0000F1CB0000F5CD0000B8F1000F71
:105D4000DDF828A00ADB4146504608F084F800261A
:105D50000AEB0008BAF1000F0CD149E7504608F0F1
:105D600073F8F4E700260A9B0DF111088DF8103046
:105D70000DF1100AA8EB0A0306B101339DF8322099
:105D8000D0066BD5023352060D9948BF0E9A0B44CC
:105D900048BF9B18B9F1000F79DD9DF83020A9EBC1
:105DA0000309C2F380030393530770D4500664D5EC
:105DB00046B159463046029B984700285ADB039B60
:105DC00001351E46302359E01E0711D413F010068A
:105DD00018BF2026DDE90A23002A73F10001BFF66F
:105DE0005DAF524263EB43032D26CDE90A2355E70D
:105DF0002B26EFE7002651E70A9848B30DF126035A
:105E00000093002104AB0CAA07F016FFBDF8323056
:105E1000824603F0EF0343F4F04343F010030026FF
:105E2000ADF8323044E70A9B072A3FF6E1AEDFE8DF
:105E300002F00D04060D08080D0D1D70D8E61D803A
:105E4000D6E62846E917C3E90001D1E61D60CFE692
:105E5000DFF8C4800646A8F1050A8BE7110748BFA2
:105E6000013390E7184603935946029B9847002850
:105E7000039B04DA11B0BDE8F08F20234D444A465D
:105E8000002AA5EB090109F1FF39EBDC0D4636B11B
:105E900059463046029B98470028EBDB01359DF8B8
:105EA0003230D90601D41A0706D559463020029B54
:105EB00098470028DEDB01359DF83230DB0607D538
:105EC00059469DF83300029B98470028D2DB0135E4
:105ED0000D9E2E44731B002B16DC4346524659463A
:105EE000029807F0F4FE0028C4DB0544A944A9EB9E
:105EF0000503002B7FF77CAE59462020029B984774
:105F00000028B7DB0135F2E759463020029B98475D
:105F10000028AFDB0135DDE7115B0100044608B561
:105F20004FF02002EFF3118382F31288BFF36F8FDB
:105F300002F0EAF9204601F01DF9034807F052FE8D
:105F400000F0EAFCFCE700BF125B01004FF020020A
:105F5000EFF3118382F31288BFF36F8F0121044A9C
:105F6000C2F8401583F31188BFF36F8F002070478C
:105F70000090035020B1034B800143F00103184708
:105F8000704700BF1057010084B004AB03E907005D
:105F90009DF80430062B07D10122044BC3F80025DD
:105FA000BFF34F8F20BFFDE704B0704700400050A3
:105FB0002DE9F84305464FF02003EFF3118683F3F4
:105FC0001288BFF36F8F1E4803F0A8FB40B91D492C
:105FD0001D48812207F006FE81211A4807F08DFE38
:105FE000174803F0B7FB194B1C68002C38BF00247E
:105FF0009CB14FF00C09164FDFF85880D4E90132FC
:10600000002D08BF13462BB198F8142009FB02F2AB
:10601000B85C98472468002CF0D1094803F08CFB49
:1060200040B908490848AC2207F0DCFDAC2105481E
:1060300007F063FE86F31188BFF36F8FBDE8F88326
:10604000680200203F5B0100655B01006C020020DC
:10605000780200202C0A0020012200F01F039A4041
:10606000084B400903EB8000D0E8EF3F43EA020110
:10607000C0E8EC1FBCF1000FF6D11A4214BF01209A
:106080000020704784020020012230B51A4B85B0F1
:106090001D7D05F01F039A40D043184B690903EB9F
:1060A0008103D3E8EF1F01EA0004C3E8EC4FBCF121
:1060B000000FF6D1114217D00C22114C01AB02FB9C
:1060C000054207CA83E807000E4A7AB193E8070041
:1060D00007F01BFE0020FFF76BFF0C2300226B4331
:1060E000E118E250C1E9012205B030BD82F3118808
:1060F000BFF36F8FEEE700BF2C0A00207402002070
:10610000780200200B4D01002DE9F041334B07468A
:106110001C7D88B02046FFF79FFFDFF8D88060B96C
:106120000C256E4605FB04853A462146304607F0AD
:1061300004FE96E8070085E807000C23634318F87F
:10614000030008EB0302650904F01F06A8B37B1CDB
:106150000FD04FF4004C0021D2F808E02048002373
:10616000ECFB0E011F4AFFF769F90121381A04F010
:1061700025FE03F0D3FD0120FFF71AFF01221A4B81
:10618000B24003EB8503D3E8EF1F1143C3E8E01FE0
:106190000028F8D10C2303FB048405AB94E8070026
:1061A00083E80700114A1AB193E80700FFF7ECFEF5
:1061B000FFF76AFF04F0E8F901200123B340DB4355
:1061C0000B4A02EB8505D5E8EF2F1A40C5E8E12F11
:1061D0000029F8D108B0BDE8F08100BF2C0A0020EA
:1061E0003F420F0040420F007402002089CF0000A0
:1061F0008402002078020020034610B588B08DF894
:1062000007300DF1070302930123094ACDE9051375
:1062100010680393002207238DF810208DF81C309E
:10622000836802229C6802A94623A04708B010BDDB
:106230008802002070B586B00E460DF107010546B4
:106240001446FFF7D9FFC0B90D4B9DF80720186819
:1062500002AB0393022322EA060222438DF80720B1
:106260008DF808508DF8092004938DF81430836858
:1062700001229C6803A94623A04706B070BD00BF59
:106280008802002008B502F043FF044B0028186084
:106290000CBF6FF01200002008BD00BF8802002074
:1062A00000280DDB0122430900F01F0002FA00F074
:1062B000044A203342F82300BFF34F8FBFF36F8FA0
:1062C000704700BF00E100E0F7B500281C4614BF8E
:1062D0004FF400534FF400438A420BD294222749D3
:1062E000274807F07FFC9421244803B0BDE8F04024
:1062F00007F003BD40D00D46224E002839D005F5E9
:10630000E0770135AA4246F82740F6D802FB03F0B1
:10631000013A4B4300901C4807F064FC1B4B14F0FF
:10632000100F1B491B4808BF194607F05BFC14F00F
:10633000040F14BF72212D21174807F053FC14F0ED
:10634000020F14BF77212D21134807F04BFC14F0E6
:10635000010F0CBF2D2178210F4807F043FC6C2161
:106360000D4807F03FFC0D4803B0BDE8F04007F0D2
:1063700039BC05F5C077C4E703B0F0BD955B0100FB
:10638000655B010000300050B65B0100895B0100D5
:10639000805B0100675D0100D05B01005367010075
:1063A00030B54FF4C13485B04FF4C1312548264D86
:1063B00007F018FC2168254807F014FC29682448D8
:1063C00007F010FC10220021684607F08BFD2368BF
:1063D00068460093029400F027FF012000F056FF6A
:1063E000002000F03FFF002000F064FF01210020AA
:1063F00000F07EFF00F072FF16482C6807F0F2FBF9
:106400000820FFF74DFF144A24F00104D2F8203889
:10641000002B07DA03F00303023B012B9CBF0F4B59
:10642000C2F820380121082007F0C6FCBFF34F8FC7
:10643000BFF36F8F6408640020462146224623463E
:10644000FFF77AF9D35B010004820100EA5B0100E7
:10645000FF5B01001D5C0100003000500001008066
:106460002DE9F843604807F0BDFB002140F2171307
:1064700008460322FFF728FF5C4D40F20713202255
:1064800003210020FFF720FF594807F0ABFBC5F3BD
:106490000E04584BC4F500449C4208D25649574854
:1064A000822207F09FFB8221534807F026FCB4FAB2
:1064B00084F4534EC4F11B04D6F80025E4B2D2058F
:1064C000C5F3C4350AD54F494C484FF4BD7207F0A7
:1064D00089FB4FF4BD714B4807F00FFCD6F804352B
:1064E000DB050AD54749454840F27B1207F07AFBA5
:1064F00040F27B11434807F000FC414B4248C3F88F
:106500000055C3F80445D3F80015D3F8042552010B
:1065100007F068FB364807F065FB00F08BF8014692
:1065200010B13A4807F05EFB0024394807F05AFBE7
:1065300040F21713042200210120FFF7C5FE304D61
:1065400040F20713202204210120FFF7BDFE284856
:1065500007F048FBC5F880442E4807F043FB2E4E59
:10656000C5F8C0442D4F2E4DDFF8C48095F8059036
:106570002146B9F1000F14BF33463B4640462A6816
:1065800007F030FBB9F1000F0CD12648013407F0B9
:1065900029FB202C05F10805E8D11548BDE8F84392
:1065A00007F020BB95F8049095F90400FFF778FEFA
:1065B0004FEA890303F1A04303F54053B9F1310FCA
:1065C000D3F8002806D0002A07DA02F00302023AC4
:1065D000012A02D8144AC3F800280121484607F0CE
:1065E000EBFB1248D2E700BF535C0100E07F0100E3
:1065F0005367010020000000955B0100655B01000E
:1066000000300050775C0100A95C0100EF5C0100E4
:106610001F5D0100415D0100485C01008D5B0100D0
:10662000185701006A5D010000010080715D0100E2
:106630005D5D010000220248114604F053BD00BF19
:106640008C02002070B50C461546064650B96FF016
:106650001500BDE87040714672467346F4468EF3ED
:10666000008C7447002AF2D007F0E9FB0128EED035
:10667000B4F5404F16D32B19B3F5424F05D90B4A49
:10668000944209D92D32934209D82A4621463046F0
:1066900007F01DFC0020DCE7054A944202D9054AB8
:1066A0009342F2D94FF0FF30D3E700BFFF01FF0064
:1066B0002F01FF003801FF0070B506460D46144655
:1066C00007F0BDFB01280DD0204607F0B8FB0128DC
:1066D00008D023462A463146084804F037FD23688F
:1066E000AB4201D06FF01500BDE8704071467246B4
:1066F0007346F4468EF3008C744700BF8C02002072
:106700002DE9F04F81460D4685B081B307F097FB28
:1067100001282CD1284607F092FB012827D04FF002
:106720000008DFF85CB0DFF85CA001AF5BF8046B39
:106730009AE807004E4487E807000C2239463046A5
:1067400007F09EFB044600B9A6B908F10108B8F1AC
:10675000050FEBD16FF00D04204605B0BDE8F04FFA
:10676000714672467346F4468EF3008C74476FF0A0
:106770001504F1E73C223146284607F0A8FBEBE779
:1067800018580100E0560100014804F0A3BC00BF06
:106790002C58010008B5B0B14368042B0DD100227C
:1067A0000368D3E8EF1F012903D1C3E8E02F0028D5
:1067B000F7D1074808BF104608BD3BB1006803F099
:1067C000D1F80020F8E76FF4E040F5E70148F3E77F
:1067D000E98FFFFFEA8FFFFF10B5044618B90D4B94
:1067E0000D485B689847616808290DD031F00403B3
:1067F0000AD011F0020108D02146084802F068FED4
:10680000002323600023636010BD1422206807F07A
:1068100069FBF7E788000020A65E0100480400201D
:1068200010B5044618B9164B16485B68984763685C
:10683000042B23D0082B21D0CBB92368BBB94FF050
:10684000FF324FF0FF3321460F4802F0E7FD08B951
:1068500023681BB90A4B0D485B6898471422002136
:10686000206807F03FFB636843F002036360206821
:1068700007F054FD636843F00103636010BD00BF7F
:1068800088000020A65E010048040020CC5E0100C4
:1068900008B5E8B14368042B0CD101220368D3E8A2
:1068A000EF1F002903D1C3E8E02F0028F7D10BD157
:1068B000002008BD53B100684FF0FF324FF0FF33A6
:1068C00002F078FF0028F3D00348F2E70348F0E72E
:1068D0006FF4E040EDE700BFE98FFFFFEA8FFFFFB5
:1068E00008B5064940231422054807F0ECFCBDE832
:1068F00008400449044804F0A1BC00BF680400201B
:106900004804002044580100345801000149102275
:106910000A60704710ED00E072B6404080F31188C5
:10692000BFF36F8FBFF34F8F30BF62B6BFF36F8F70
:10693000704700BF37B505460C46C9B18B68104893
:106940000093D1E90023452107F0EAF96369452165
:106950000093D4E903230B4807F0E2F94521E269EB
:10696000094807F0DDF94521A269084807F0D8F980
:106970002146284603B0BDE8304002F0F5BB00BF19
:10698000F95E01002D5F0100615F0100755F01008C
:1069900043B2002B08DB012200F01F0002FA00F0D6
:1069A000024A5B0942F82300704700BF00E100E0A3
:1069B000054B420953F82220012300F01F0003FA7F
:1069C00000F01040704700BF00E100E038B54C1CFB
:1069D000072C054608D90D490D48592207F002F940
:1069E00059210A4807F089F96BB2002BACBF03F1BB
:1069F0006043084B4FEA4414E4B2ABBF03F5614374
:106A000005F00F0583F800435C5538BDA85F010011
:106A1000655B010014ED00E030BFFFF7FDBF00BF74
:106A20000B4A08B50B4B22F07F029A60BFF34F8FE1
:106A3000BFF36F8FD3F8882022F47002C3F8882048
:106A400002F032FC04F024F800F058FB02F036FCAF
:106A500000C2000000ED00E0094A0A499368096895
:106A60005867996708494B6843F080534B6000238F
:106A700083F31188BFF36F8F9368986F704700BFDF
:106A80002C0A00206C59010000ED00E013498A68CF
:106A90004FF030001044EFF3098C80E8F01F202005
:106AA00080F31288BFF36F8F0D4F4FF00066CA69F5
:106AB0008A603E60506F0023536780F3118802F1B3
:106AC000300090E8F01F8CF3098802F1000004B553
:106AD00007F0A8F9BDE80440704700002C0A002028
:106AE00004ED00E01EF0040F0CBFEFF30880EFF39D
:106AF0000980816911F8021C0229FFD001B507F055
:106B000053F901BD42F8203C009B0B4942F81C3C64
:106B1000019B21F0010142F8183C029B42F8081C3D
:106B200042F8143C4FF0807342F8043C0023203AB2
:106B300002654367704700BF254C0100084B986011
:106B4000436E83F30B88104681F30988002163B6F6
:106B500081F31188BFF36F8F0022002307F062F8E2
:106B60002C0A002001B572B60B4A906900281EBF9E
:106B70000021916107F0CBFB62B6EFF30580A0F135
:106B800010004FEAC0000549014409C99847BDE813
:106B900001400349084700002C0A00206854010006
:106BA000A5DB0000044B9968D869884203D00349EB
:106BB0004FF080520A6070472C0A002004ED00E07C
:106BC00070B52B4C06460D462A48452107F0A8F81B
:106BD000A26AD00603D54521274807F0A1F8A36A89
:106BE000190703D54521254807F09AF8204CA36AD8
:106BF0009A0710D54521224807F092F8626BA36AE4
:106C00001B0608D545211F4807F08AF81EB1A36A64
:106C100023F08003A362164CA26AD60703D5452150
:106C2000194807F07DF8A36A980603D5452117484F
:106C300007F076F80E4B9A6AD10602D49A6A920748
:106C40000DD59B6ADB060AD51149124840F24F1256
:106C500006F0C8FF40F24F110D4807F04EF8002033
:106C6000034A936A43F0FF039362287070BD00BF2C
:106C700000ED00E0DE5F0100F95F0100316001001E
:106C8000496001006660010081600100A5600100AB
:106C9000D9600100655B010070B5234C06460D46C6
:106CA0002248452107F03CF8A26AD10403D54521CA
:106CB0001F4807F035F8A36A1A0503D545211D487A
:106CC00007F02EF8184CA36A9B0510D51A484521E9
:106CD00007F026F8A26BA36A180408D545211748C7
:106CE00007F01EF81EB1A36A23F40043A3620E4C02
:106CF000A36A590503D54521114807F011F8A36A85
:106D0000DA050BD545210F4807F00AF80020064A9E
:106D1000936A43F47F439362287070BDA36A9B0417
:106D2000F4D545210848EFE700ED00E013610100CC
:106D30002E610100316001004461010062610100C7
:106D40007C6101009C610100A560010038B5214C07
:106D50004521214806F0E4FFA26A950103D54521AB
:106D60001E4806F0DDFFA36ADC0103D545211C485F
:106D700006F0D6FF174DAC6A14F4801404D04521F8
:106D8000184806F0CDFF0224AB6A180303D545214D
:106D9000154806F0C5FF0F4DAA6A510303D54521DA
:106DA000124806F0BDFFAB6A9A0303D5452110488F
:106DB00006F0B6FF074DAB6ADB0303D545210D484E
:106DC00006F0AEFFAB6A20466FEA03436FEA134357
:106DD000AB6238BD00ED00E0B9610100D661010091
:106DE000EE6101000D6201003C6201005F62010082
:106DF00089620100A862010010B51E4C1E484521A1
:106E000006F08EFFA2696369580603D545211B4829
:106E100006F086FF6369D90708D54521184806F0B2
:106E20007FFF636943F0FF03636110BD63699A07E5
:106E300002D545211348F2E763695B0702D5452176
:106E40001148ECE76369180702D545210F48E6E7CA
:106E50006369D90602D545210D48E0E763699A06C2
:106E600002D545210B48DAE763691B06D9D54521D0
:106E70000948D4E7D0ED00E0D8620100F6620100D5
:106E80000B6301002663010049630100696301008F
:106E90008B630100A5630100C46301002DE9F0418B
:106EA0007A4B0D465C6800268AB0C4F3080786F367
:106EB0001188BFF36F8F02F07F43B3F17F4F1ED174
:106EC00012F001033AD012F0400302F0080840F03B
:106ED000D680520754BF05461E462A686C4B58BFE1
:106EE00001261344012B98BF2A6C4521694806F0FE
:106EF00017FFB8F1000F1ED0EFF389855DB940F29E
:106F0000F2326549654806F06DFE40F2F2316248A2
:106F100006F0F3FE00250023FA1E98468DF8073090
:106F20001346092B00F29980DFE803F00A888C6A87
:106F3000909797979794EFF38885DFE71E46DEE7F3
:106F40004521574806F0ECFE504B8DF80780DC6A6F
:106F500014F0020404D04521524806F0E1FE77E027
:106F6000DA6A002A1DDA45214F4806F0D9FE9DF85D
:106F700007309BB92022294602A806F0A8FF099BEA
:106F8000002E77D0C3F3080222B96FEA53236FEAC9
:106F900043230993204602A9FFF7CCFC0AB0BDE8C1
:106FA000F081DB6A5B0040D54521404806F0B8FE21
:106FB000AB6933F8022C4DF602739A420CD003F100
:106FC000604303F626631B786BB101200DF10701C6
:106FD000FFF7F6FD0446CAE745212A68344806F063
:106FE0009FFE2C68C3E7334B1B782BB101200DF1BA
:106FF0000701FFF751FEEDE72F4B1B889BB213B142
:10700000FFF7A4FEE6E72D4B5B6913B1FFF7F4FE33
:10701000ADE7214940F2C322204806F0E3FD40F2EB
:10702000C3211D4806F069FEA1E71B4940F2C722B3
:107030001A4806F0D7FD40F2C721F2E700200DF113
:107040000701C5E700200DF10701D2E7FFF7D4FEE5
:1070500000248CE745211A487FE71A4914F4F87F89
:10706000194A1A4808BF0A46A7F11003452106F03D
:1070700057FEEDE723F4FF7323F0010389E7B8F12E
:10708000000F7FF43BAF0546012637E700ED00E037
:10709000A6ED05010A640100D9600100655B0100ED
:1070A0002E6401004A6401007064010083640100E1
:1070B000A764010029ED00E02AED00E0D0ED00E03A
:1070C000C8640100DC630100F1630100F1640100A8
:1070D000044B5A6942F010025A615A6942F48062C4
:1070E0005A61704700ED00E0EFF30880EFF309818B
:1070F00001B57246FFF7D2FE01BD00BF002320217B
:107100000348C2180133412B82F80013F9D17047AC
:1071100000E100E0002080F31488BFF36F8F0020AF
:1071200080F30A8880F30B8807F028F900200E49C5
:107130000860BFF34F8F0D4880F3088800F03CF8DB
:10714000202080F311880A484FF40061401880F332
:107150000988EFF314800221084380F31488BFF3F9
:107160006F8FFFF75DFC000094ED00E0202600200B
:1071700060270020BFF34F8F0549064BCA6802F411
:10718000E0621343CB60BFF34F8F00BFFDE700BF4A
:1071900000ED00E00400FA0500231846054A1168D6
:1071A000C1F307218B4200D1704793601061013316
:1071B000F8E700BF90ED00E010B572B6002484F34C
:1071C0001388FFF7E9FF0E4A234611464FF0FF34BC
:1071D00003F120000133102B42F82040F8D10023A6
:1071E0004FF0FF3003F160020133102B41F8220011
:1071F000F8D162B6BFF34F8FBFF36F8F10BD00BFE2
:1072000000E100E0064B9B68834207D1EFF3058362
:1072100023B1044A536843F08053536003F0A4BB86
:107220002C0A002000ED00E082680D4B9A60036894
:1072300083F38888436883F38988027B02F0010125
:10724000EFF3948323F00303920748BF43F0020354
:1072500009B143F0010383F39488BFF36F8F704744
:1072600000ED02E0084AD36848B123F400531B0440
:107270001B0C43F0BF6343F40033D36070479BB2F1
:1072800043F40053F5E700BF00ED00E0084AD3687F
:1072900040B19BB243F4804343F0BF6343F40033F7
:1072A000D360704723F480431B041B0CF4E700BF3A
:1072B00000ED00E0084AD36840B19BB243F00803F8
:1072C00043F0BF6343F40033D360704723F00803F7
:1072D0001B041B0CF4E700BF00ED00E0034AD2F8EA
:1072E0008C3043F44063C2F88C30704700ED00E00E
:1072F000084B1A6818B142F001021A60704722F078
:1073000001021A601A6811B142F00202F5E722F098
:107310000202F2E7D0ED00E01FB5094C094A23460E
:107320000121094800F01AF900230393074B0121BA
:10733000E41A01A80193029400F02CF904B010BDE6
:10734000008000200000002058580100600100204B
:1073500010B50B680C7A23F01F0204F01F031A43C8
:10736000CB68640923F01F03044943EA440343F054
:1073700001038860CA600B6110BD00BF90ED00E0A2
:1073800030B54B680C6885B00A898D7A0094013B52
:1073900024F01F04234402F01F0242EA451223F0A6
:1073A0001F030F2804468DF80820039309D90246CD
:1073B0004521064806F0B4FC6FF01504204605B0E0
:1073C00030BD6946FFF7C4FFF8E700BF0D65010057
:1073D0002DE9F04F8946144606464FF00008524DFD
:1073E00085B0C84523DA7768002F42D01F2F17D900
:1073F000FB0615D1D6F800A01AF01F0F10D1504689
:1074000006F014FD834607EB0A00013806F00EFD76
:10741000834510D06FF0150B5A464521434802E0D2
:1074200042464521424806F07BFC6FF01504204699
:1074300005B0BDE8F08F1BF1160FEDD0631E5B4564
:10744000EADBC5F808B0E968C5F808B02F6921F093
:107450001F01D6E900321A44994247F01F0702F192
:10746000FF3A1CD1574508D131465FFA8BF0FFF740
:1074700087FF08F101080C36B3E73146C5F808B0BC
:10748000EB6822F01F0203F01F031A43EA60E0B228
:10749000FFF776FF10F1160FC7D0441CE9E7013B58
:1074A0005745E0B223F01F03C5F808B006D12A699A
:1074B000314602F01F0213432B61E9E7296901F00D
:1074C0001F010B432B613146FFF75AFF10F1160FD6
:1074D000ABD0C5F808B0EA689DF80830013F62F308
:1074E00004038DF808302B699DF808205B0863F3CE
:1074F00047128DF80820D6E900321344009323F098
:107500001F033B44441CA3EB0A0AE0B22AF01F030A
:107510000F28039303D902464521064883E76946AD
:10752000FFF716FFB9E700BF90ED00E060650100CE
:10753000386501000D6501000522034B5A60BFF359
:107540004F8FBFF36F8F704790ED00E0BFF35F8FF9
:107550000022014B5A60704790ED00E010B50A4CD4
:107560002278FFF735FF207016300CD10749084804
:1075700040F2111206F036FBBDE8104040F2111146
:10758000024806F0BABB10BD4C140020886501000B
:10759000655B01002DE9F74F2D4D8A4606464FF0F9
:1075A0000008AB462B4FD04502DB03B0BDE8F08F9F
:1075B000D6F80490B9F1000F44D031680846019123
:1075C00006F034FC0199044609EB0100013806F08D
:1075D0002DFC84424FF014021F4B13D06FF01503A3
:1075E00002FB08F84BF8083040F221121B491C48F6
:1075F00006F0F8FA40F22111184803B0BDE8F04F48
:1076000006F07BBB14F1160F2C60EDD01978A14267
:10761000EADD02FB08B0BC60BC60FC6800F1080158
:10762000007B64F30400087138690C79400860F34A
:1076300047140C71F96821F01F016960396921F064
:107640001F01296108F1010814350C36ABE700BFB2
:107650006809002090ED00E04C14002088650100CE
:10766000655B010070B51B4D2E68102E0DD94FF4CF
:10767000A4721949194806F0B5FA17484FF4A471D5
:1076800006F03BFB4FF0FF3070BDFFF75FFF0020BF
:10769000134C144A2263864215D1134B1E70FFF718
:1076A0004BFF2368C3F30723102B0AD00A490B486A
:1076B0004FF4D67206F096FA4FF4D671064806F0EB
:1076C0001CFB0020E0E7696801EB0011FFF740FEBA
:1076D0000130E0E76458010088650100655B010046
:1076E00090ED00E0AAFF44004C140020014B18600C
:1076F000704700BF2400002010B52A48FEF7C2FDE5
:10770000044658B145210246274806F009FB2246A7
:107710004521264806F004FB204610BD06F02AFB52
:10772000044618B1024645212148EEE706F02EFB3B
:10773000044618B1024645211E48E6E7012006F03E
:107740002AFB044618B1024645211B48DDE701200B
:1077500006F015FB04460028D9D1072006F0F8FAF8
:10776000044618B1024645211448CEE71F2006F012
:10777000E9FA044618B1024645211148C5E7072039
:1077800006F0F1FA044618B1024645210D48BCE75F
:10779000012006F0E3FA04460028BDD00246452148
:1077A0000948B2E7CE650100D465010055670100C4
:1077B000026601002F660100626601009666010004
:1077C000C8660100F8660100316701002DE9F0414B
:1077D0000E4C0746051BC5F347130C255D4305F109
:1077E00048000E462044402106F088FB011E08DBBD
:1077F000074B2C44C4E91036064B5B59BDE8F041F9
:10780000184738463346BDE8F04118477C09002048
:107810005F4F0100A458010038B5CCB2012C0546D9
:1078200008D908490848792206F0DCF97921054889
:1078300006F063FA0C212B6904FB0134A06C00F004
:10784000070038BD8D670100655B0100F8B5CCB25B
:10785000012C0546164607690AD91849184840F20E
:107860004D1206F0BFF940F24D11144806F045FAEA
:107870004FF02003EFF3118283F31288BFF36F8F71
:107880000C2303FB0471896C11F0C00101D08E42FE
:1078900011D10121002003FB0473996482F3118844
:1078A000BFF36F8F30B90C23696803FB041463685E
:1078B00098470020F8BD4FF0FF30EFE78D670100DB
:1078C000655B010070B50D4606490446411A491131
:1078D00040220548FFF7BAFF2B4601462046BDE887
:1078E000704018477C090020F053010070B5002259
:1078F000012104460520FFF769F80520FFF748F845
:107900000F4800F071FE0F4B984215D100F08CFE2D
:1079100026690D49304606F072F900280BDB012577
:10792000B5642469084904F1200006F068F90028CC
:1079300001DB0020656570BD6FF00400FBE700BF50
:1079400081E900000000AD0BBC58010001460C238A
:1079500000224B43084870B5C4184833D4E9105688
:107960001844226406F0E8FA2DB132462B46BDE8F1
:1079700070400248184770BD7C090020F053010098
:10798000012808B506D0032808D0A0B90F4B9B6C7E
:107990005B0719D1BDE80840FFF7D8BF0C4940F29A
:1079A0005E220C4806F01EF940F25E21BDE8084058
:1079B000074806F0A2B9064940F26222054806F0DF
:1079C00011F940F26221F1E708BD00BF7C090020F7
:1079D0008D670100655B010008B54FF02003EFF3F0
:1079E000118183F31288BFF36F8F124A136843F03B
:1079F000020013F0010310600CD04FF05022D2F8B7
:107A00000C34D2F80C2413F0010303D00A4806F01A
:107A100093FA012381F31188BFF36F8F23B1BDE87F
:107A200008400020FFF792BF0120BDE8084000F0A9
:107A300019BE00BFD4090020C4090020074BD3E8B9
:107A4000EF2F22F00201C3E8E01F0028F7D1D3078F
:107A500002D4012000F056BE704700BFD4090020B8
:107A60001FB500220123CDE902236B46084ACDF859
:107A700000D0CDF804D006F084FA002805DB4FF4DE
:107A800080420023684602F03FF805B05DF804FB31
:107A90007D4F010008B50848084B186006F009FC46
:107AA00038B10748FFF722FE0548FDF763FE0020C6
:107AB00008BD6FF01200FBE738540100D809002020
:107AC000C5EA00000A2838B50446074D04D12868E5
:107AD00083680D215B68984728688368E1B25B681A
:107AE0009847204638BD00BFD809002008B5436834
:107AF000D3E9020101F08EFA034B984214BF6FF0F4
:107B00000F00002008BD00BF0000AD0B10B50446FB
:107B1000002201210A20FEF759FF60682369094A03
:107B200000F1080100F0BAFE074B984207D0074861
:107B30004521226806F0F4F86FF00F0010BD002018
:107B4000FCE700BF91EB00000000AD0BE86701000F
:107B5000CA0708B5436809D4C1F34202012A08D014
:107B6000022A0FD04521094806F0DAF86FF0150017
:107B700007E04FF0CC721B68C3F82425036900208E
:107B8000596208BD4FF0C8621B68F5E70D68010037
:107B90000378012B08D0022B08D04BB9054B0B62A0
:107BA00001F1100001F07ABF034BF8E7034BF6E751
:107BB000034BF4E70000AD0B0100AE0B0200AE0B6F
:107BC0000100AD0B2DE9F04F1D4646688FB0D0F88F
:107BD0001090338B0DF1240B059280460C46142235
:107BE00000215846D9F828A0049306F07BF98DF8B7
:107BF00025504FF0FF324FF0FF33484601F084FF2D
:107C000009F11003039300273D4600220023039847
:107C100001F07AFF304600F0B1FECDF818B0059BB8
:107C20009F4201D3002427E0217A0B0700F1B580A1
:107C3000059B07F1010B9B450AD2880708D4237DD9
:107C400081EA030202F0010203F0040313431DD092
:107C50007DB300236268049805EB020C844517D9B4
:107C6000D8F8003000900193452113464C482A462D
:107C700006F056F86FF01B04304600F0A7FE4846A9
:107C800001F00CFF20460FB0BDE8F08F0123E1E7C3
:107C9000C90706D421680AEB0500079306F017F917
:107CA000079B62681544ADB2002B39D05F460C3497
:107CB000B5E7CA071DD5002523680C9363680A93AE
:107CC000237A304603F0010213F0020F8DF82420CE
:107CD00006990CBF2022002200F0ACFE314B9842E6
:107CE00024D00B3398420CBF6FF00F046FF00404E4
:107CF000C2E7216801F06043B3F1005FDBD0626846
:107D0000738B934208D24521D8F80030264806F0FC
:107D100007F86FF01504AFE7504606F0D8F8A588CD
:107D2000002DC8D0CDF830A00A95C9E74FF48042A5
:107D30000023039801F0E8FE70B145213A461B4844
:107D400005F0EEFF304600F041FED6E9020101F0F9
:107D500061F96FF004048FE7D9F82020114B9A42A3
:107D600005D03B464521124805F0DAFFF1E7237ABA
:107D7000DB0701D4002599E70C9B9A45FAD12746E9
:107D800006E0A91A8DB2F8681AFA81F106F09FF898
:107D90007A680C3F9542F4D2ECE76FF085046BE70C
:107DA000246801000000AD0BB968010024690100DE
:107DB00053690100F0B54B79012B26D0032B21D15B
:107DC00010268B79032B1DD1CC790CB1012C19D144
:107DD0000A7912B1022A15D10E220B684568B3F553
:107DE000164F2D6865D02DD8B3F5165F64D016D820
:107DF000B3F5966F62D00AD8B3F5967F61D0B3F52C
:107E0000167F61D06FF0850052E00026D9E7B3F508
:107E1000166F5CD0B3F5965FF4D1374B3CE0B3F509
:107E2000E14F57D007D8B3F5615F55D0B3F5964F02
:107E3000E8D1324B30E047F61227BB42E2D14FF493
:107E4000000329E0B3F5613F48D013D8B3F5963F5E
:107E500047D009D84DF6C027BB4244D0B3F5614F97
:107E6000D0D14FF46B0317E0B3F5E13FCAD14FF027
:107E7000EB7311E0B3F5612F38D008D8204FBB4227
:107E800037D0B3F5E12FBDD14FF0E86304E01D4FCB
:107E9000BB42B7D14FF08053C5F824350369344352
:107EA0002243043303C9C5F86C2583E8030000208E
:107EB000F0BD4FF41D03EFE7134BEDE74FF49E23A6
:107EC000EAE74FF4A033E7E74FF41C33E4E74FF45D
:107ED0001D23E1E70D4BDFE70D4BDDE74FF06C7342
:107EE000DAE70C4BD8E74FF46503D5E74FF0706342
:107EF000D2E74FF08063CFE700B0130000A04E0040
:107F000090D0030040420F000050270000C07500D1
:107F100000F03A0000903A01036810B55A090CBF0E
:107F20004FF0FF32002203F01F0322FA03F3DB07B6
:107F300004460AD40E490F4840F2292205F052FEA9
:107F400040F229210A4805F0D8FE236803F01F02F9
:107F50005B0922600AD00649064840F22E2205F04D
:107F600041FE40F22E21024805F0C7FE024810BD36
:107F70008B690100655B010000258450F8B505465A
:107F80000F46066906F0BBF910B92C4B1B7883B974
:107F90004FF02003EFF3118483F31288BFF36F8F48
:107FA000284606F051F828BB84F31188BFF36F8F81
:107FB000EEE76424284606F047F870B9012006F081
:107FC00039F9013CF6D10021212002F097FCF0E7BD
:107FD00084F31188BFF36F8FF5E74FF02003EFF3C1
:107FE000118483F31288BFF36F8F284606F02CF8B4
:107FF0000028EDD0012206F8107F69680B68C3F8ED
:108000004465C3F848250022C3F82021D3F8200195
:10801000C3F85821D3F858214A68D20641BF082234
:10802000C3F800254FF48002C3F8042301229A60AC
:1080300084F31188BFF36F8FF8BD00BF5D1400207B
:10804000F7B50F46164640B918491948242205F0DD
:10805000C9FD2421154805F050FE47B913491448BD
:10806000252205F0BFFD2521104805F046FE4FF4FE
:10807000806500246FF01500A64201D803B0F0BD62
:10808000331BB3F5806F38BF1D46002001AB2A4675
:10809000391903F05BF8019BAB4203D10028EDD105
:1080A0002C44E9E76FF01500E8E700BFDC69010048
:1080B000655B01000B4B10B59A681968986811F45C
:1080C000803F094B094901D1824205D21A680C68E8
:1080D00022441A60034A12681B680A681344181A7B
:1080E00010BD00BF10E000E0EC090020E409002012
:1080F00020220020074B83F82320074B1860074BF2
:108100001860074B586098601A6842F007021A60BE
:10811000704700BF00ED00E0E4090020EC090020FA
:1081200010E000E008B5FFF7C5FF094A09491368E8
:10813000086803440B6000211160074A106813604F
:10814000181A02F079FEBDE80840FEF72BBD00BF0B
:10815000EC090020E0090020DC0900202DE9F041B5
:10816000394F59B1431C09D1384A136823F0010330
:1081700013604FF07F433B60BDE8F081344B3D68B6
:10818000B0F1FF3F08BF1846441E002C54DD9C424E
:10819000A8BF1C464FF02003EFF3118683F312882B
:1081A000BFF36F8F2B4801F0B9FA40B92A492B4829
:1081B000812205F017FD8121274805F09EFD254805
:1081C00001F0C8FAFFF776FF4FF0000EDFF87C8071
:1081D000DFF890C0224AD8F80810CCF800E0DFF8A9
:1081E00088C01368DCF800C01844A0EB0C0CF44500
:1081F0004346106022DA4FF480643C603F689C681C
:10820000013F5F600027A14238BF4919091B08449C
:108210009F6010600F4801F08FFA40B90E490F4877
:10822000AC2205F0DFFCAC210B4805F066FD86F3BF
:108230001188BFF36F8F9FE70024ABE7B4F5806F21
:10824000B8BF4FF48064D8E7E409002010E000E0F4
:10825000FEFFFF00E80900203F5B0100655B0100B5
:10826000E0090020EC090020DC09002038B54FF0BF
:108270002003EFF3118583F31288BFF36F8F154846
:1082800001F04CFA40B914491448812205F0AAFCC7
:108290008121114805F031FD0E4801F05BFAFFF72E
:1082A00009FF0F4B1C680F4B1B68E41A0444094874
:1082B00001F042FA40B908490848AC2205F092FCA6
:1082C000AC21054805F019FD85F31188BFF36F8FC8
:1082D000204638BDE80900203F5B0100655B0100D6
:1082E000E0090020DC090020054B1B68B3F17F4F3B
:1082F00001BF044A136843F001031360704700BFD5
:10830000E409002010E000E0024A136823F00103B2
:108310001360704710E000E00348452108B505F000
:10832000FFFC0020FEF726FF176A01002DE9F0434D
:108330000025214C214E54F8048CDFF8889085B03C
:10834000A84503D8002005B0BDE8F083636A96E82D
:1083500007001F6801AB83E807000C221946384666
:1083600005F08EFD90B98FB1636A21691B681A69A7
:1083700091420BD19A69A169914207D8E169914272
:1083800004D962695B6932EA03030AD0276A67B1DC
:108390000B4805F027FC404080F311884FF00400A3
:1083A00002DFE36801351C44CAE7484605F01AFCC1
:1083B000636A1F60F5E700BF3CC40000EC56010093
:1083C000396A0100626A0100064A074B1B6810689F
:1083D000BFF34F8F092B03D1431E584258417047BA
:1083E000002070473401FF003001FF00574A08B5F4
:1083F000136843F002031360554B564A1B6812681A
:10840000BFF34F8F092B01BF4FF050230022C3F859
:108410001421C3F81821FFF7D7FF30B101234E4ACA
:108420001360A2F63822C2F87835494B1A68043333
:108430001B68BFF34F8F092A05D1012B1EBF0122F4
:10844000464BC3F87825FFF7BFFF10B10E22444B0F
:108450001A603F4B3F4A1B681268BFF34F8F092BCE
:1084600004D100223F4B1A6001225A600022D3003F
:1084700003F57F03D3F80013BFF34F8F013108D00A
:10848000D3F800130132D3F80433B2F5807F0B60C8
:10849000EDD1354BDB69BFF34F8FD90745D5334B52
:1084A0001946D3F80024012AFBD1C3F80425D1F8DA
:1084B0000034012BFBD12C4BDA69BFF34F8FD2076D
:1084C0000AD5DA6922F00102DA61BFF34F8F274A39
:1084D000D2F80034012BFBD1254B1B68BFF34F8F23
:1084E00001330DD1204A136A23F0FF0343F0200328
:1084F0001362BFF34F8F1D4AD2F80034012BFBD11A
:1085000000221A4BC3F80425D3F80024012AFBD11A
:10851000BFF34F8F1749184BCA6802F4E062134348
:10852000CB60BFF34F8F00BFFDE7114B1B68BFF35C
:108530004F8F0133B3D00F4AD2F88C3043F44063ED
:10854000C2F88C300D4B0E4A1A6008BDD0ED00E029
:108550003001FF003401FF00384A00500040005055
:10856000E4AE03500C4700500080FF000090035021
:108570002080FF0000ED00E00400FA057C000020F0
:108580000090D00308B570B101281BD04FF44F7292
:108590001349144805F026FB11484FF44F7105F0BC
:1085A000ACFB00200DE031B14FF05023D3F818346C
:1085B00003F003030B704FF05023D3F81804C0F3FB
:1085C000004008BD31B14FF05023D3F80C3403F014
:1085D00001030B704FF05023D3F80C04EFE700BFFA
:1085E000956A0100655B010010B5044640B9094970
:1085F0000948BD2205F0F6FABD21064805F07DFBCD
:10860000064B1A7922B9012205481C601A7110BD67
:108610000448FCE7C96A0100655B0100F00900201D
:108620000000AD0B0C00AD0B08B50B4B1B7943B92B
:108630000A490B48D62205F0D5FAD621074805F09D
:108640005CFB0520FEF7B4F920B9BDE80840052021
:10865000FEF79EB908BD00BFF0090020C96A0100FD
:10866000655B0100224B13B51B79044653B92149C0
:1086700021484FF4897205F0B5FA4FF489711D480D
:1086800005F03BFB6CB1012C28D04FF4A2721949C4
:10869000194805F0A7FA4FF4A271164805F02DFB12
:1086A00018E020460DF10701FFF76CFF4FF0502353
:1086B00090B19DF80720022A0ED1C3F81825002298
:1086C0000E4B1A601B6802224FF05023C3F804239C
:1086D00001229A6002B010BD0122EEE70022084B91
:1086E0001A601B684FF05023C3F804431C60F1E785
:1086F000F0090020C96A0100655B010004510050C7
:10870000005100502D4B13B51B79044653B92C4929
:108710002C4840F24B1205F065FA40F24B11284804
:1087200005F0EBFA74B1012C27D02549254840F219
:10873000671205F057FA40F26711214805F0DDFA9B
:1087400002B010BD4FF050230222C3F808230122CB
:10875000C3F8044142F2107403F582731B681A4B8C
:108760001A6000210846FFF70DFF0028E8D001201D
:1087700005F060FD013CF4D1E2E74FF05023002208
:10878000C3F80843C3F8002103F580731B680F4B3F
:108790001C608DF8074042F2107401200DF10701B2
:1087A000FFF7F0FE0028CBD09DF807000128C7D1C5
:1087B00005F040FD013CF0D1C2E700BFF009002008
:1087C000C96A0100655B01000C5000500450005064
:1087D000164B07B51A6852B1002018601B680122B9
:1087E0004FF05023C3F80823114B1B689847114BD7
:1087F0001A688AB100200DF1070118601B68FFF7A5
:10880000C1FE9DF807104FF0502301294FF00202DE
:1088100005D1C3F81825996003B05DF804FBC3F8CF
:108820000823034B01201B689847F5E700510050CF
:10883000F009002004510050036810B55A090CBF1C
:108840004FF0FF32002203F01F0322FA03F3DB078D
:1088500004460AD40E490F4840F2292205F0C2F915
:1088600040F229210A4805F048FA236803F01F0264
:108870005B0922600AD00649064840F22E2205F024
:10888000B1F940F22E21024805F037FA024810BD36
:108890008B690100655B0100002584502DE9F347D9
:1088A0000746904699460C4651B92F492F4840F249
:1088B000151205F097F940F215112B4805F01DFA35
:1088C0004FF0340C3E792A4D0CFB06FC05EB0C01F5
:1088D00091F82D00002844D1637BD7F800A081F8DF
:1088E0003230A37B886045F80C80C1F8049081F891
:1088F000300081F82F0081F83330EBB1E37B2BB9E6
:10890000D4E90023CAF80825CAF80C35A368CAF8C8
:10891000243534237343EB5823B1386840F30730D0
:10892000FEF736F8342303FB06550123114885F87A
:108930002D3002B0BDE8F087236801A840F20C6832
:108940000193FFF779FF019B803340F82380636830
:1089500001A80193FFF770FF019B803340F823804B
:10896000CCE70548E5E700BF066B0100655B010049
:10897000F80900200000AD0B0500AD0B342270B5E6
:108980000F4D0479064602FB045292F82D20012A6D
:108990000AD00C490C4840F2791205F023F940F254
:1089A0007911084805F0A9F906223368C3F80025B3
:1089B000342303FB0454022384F82D3070BD00BF20
:1089C000F8090020066B0100655B0100342270B5D8
:1089D000144D0479064602FB045292F82D2052B938
:1089E000114912484FF4C27205F0FCF84FF4C271FD
:1089F0000D4805F082F93423002103FB045332684B
:108A00000B489960C2F80803D2F8000220F4BC5069
:108A1000C2F80002C2F80015012283F82F1083F873
:108A20002D2070BDF8090020066B0100655B010078
:108A300002029C012DE9F047037980460D46174656
:108A40003BB94B68B3F5005F03D28B68B3F5005FA9
:108A50000AD3BC49BC4840F2992205F0C3F840F261
:108A60009921B84805F049F9342498F80490B74E94
:108A700004FB09F43359FBB92B78022B0ED02B7869
:108A8000032B19D140F2A222AE49AF4805F0AAF853
:108A900040F2A221AB4805F030F90DE040F2A122EE
:108AA000A849A94805F09EF840F2A121A54805F083
:108AB00024F93359002BE2D03423002203FB09634D
:108AC000D8F8004083F82E206B6853B1EB6803F0B0
:108AD0006043B3F1005F04D0DFF878824046BDE820
:108AE000F0874FF0340C0CFB096C994BC4F8083339
:108AF0009CF82F3003F0FF0A33B1DCF80830DFF8C0
:108B00005882C4F80433E9E717F0140F0CBF0123AF
:108B10000023A8468CF82F300CF10C0EB8E80F009B
:108B2000AEE80F00D8F80030CCF82070CEF8003056
:108B3000C7F300138CF830306B78C4F88835C4F86C
:108B400004A1D4F80431C4F824A1D4F82431C4F821
:108B500060A1D4F86031C4F848A1D4F8483117F0C6
:108B6000010318BF0123C4F8503517F0020318BFE2
:108B70000123C4F840352B78032B00F2DF80DFE8B7
:108B800003F0AECA9302F9060AD56E496E4840F268
:108B9000DD1205F027F840F2DD116A4805F0ADF866
:108BA0003A070AD5674968484FF4EF7205F01AF89A
:108BB0004FF4EF71634805F0A0F87B070AD56149CF
:108BC000614840F2DF1205F00DF840F2DF115D4818
:108BD00005F093F82A6902F06043B3F1005F7FF477
:108BE0007BAF4FF48073E968C4F800326B68C4F857
:108BF0004415C4F848350023C4F85031D4F8501156
:108C000001212162A160D4F850110029FBD0C4F8E1
:108C10005031D4F85031AB68C4F84425C4F8483515
:108C200034234FF4802203FB09639A600823DFF8A2
:108C30002C81380707D42A78032A04D00122E25075
:108C40006B6803B96261342303FB09F3F218F3582C
:108C5000002B40F087800125D4F84821D4F8041176
:108C6000002940F09780003A18BF0122D4F824115F
:108C7000002900F09580C4F82431D4F82411D4F8E8
:108C80006001D4F8001210B111F4007F04D1256204
:108C900065610028E0D00022C90540F18180C4F858
:108CA0004831D4F84821D7E76B68EA68C4F844250E
:108CB000C4F848352B6903F06042B2F1005F7FF4DD
:108CC0000BAFAA68C4F834354FF48453C4F8382580
:108CD000C4F800323423022203FB096312E06B68FC
:108CE000EA6817F0200FC4F84425C4F848354FF05F
:108CF00034030BD04FF48072C4F800224FF480226A
:108D000003FB09639A60012323628FE74FF400722B
:108D1000C4F80022DFE76B68EA68C4F83425C4F8B9
:108D200038354FF48053C4F800323423022203FB59
:108D300009639A6001232362002378E70823DFF8A0
:108D4000208076E7066B0100655B0100F8090020D2
:108D500002029C010A00AD0B0B00AD0B0000AD0B35
:108D60000400AD0B790744BF002393607B0606D453
:108D7000342303FB09639A6842F002029A603423A9
:108D800003FB0966B36843F40073B360B368C4F8C7
:108D90000433A3E6C4F80431D4F80421012265E7C2
:108DA000002A3FF459AF3421002001FB0962D4F8B6
:108DB000C434C4F8C43482F82F008BB10F4A104970
:108DC00013F0010F14BF90468846013213F0020FD2
:108DD00018BF904613F0040F0A4B18BF98467DE663
:108DE0007B063FF57BAE204609FB016105F024FAC6
:108DF000034B002808BF984670E600BF0000AE0B8A
:108E00000100AD0B0200AE0BF0B5624C87B02368D9
:108E100053B9614961484FF4377204F0E3FE4FF4EF
:108E200037715D4804F069FF5D4BD3F824211D467E
:108E3000FAB10022C3F82421D3F82421D3F8042165
:108E4000BAB9A268C3F808230222A260A268C3F8D4
:108E50000423D3F860211AB1D3F800329E0503D45D
:108E600001224F4B1A625A61012384F82E3007B059
:108E7000F0BDD5F80431002B54D00023C5F80431DF
:108E8000D5F80431236A5D060AD494F82E303BB934
:108E90004049434805F0D0F980F0010084F82E00E5
:108EA000236A13F0040722D13E4E01AD0FCE0FC549
:108EB000336894F830C02B60394BC3F86071D3F835
:108EC0006021C3F85C71D3F85C21BCF1000F02D0C3
:108ED00094F82E205AB10022C3F80022A260324A30
:108EE000C3F808234FF48062304BC3F880212C4A2A
:108EF000D2F8C4349807C2F8C4343CD501238DF8A5
:108F0000003094F830300BB984F82F30236A5B07B7
:108F100003D594F82E30002BA9D0D4E9003168464F
:108F20009847A4E7C5F84831D5F84831237B83B981
:108F30001C4F01AE0FCF0FC63B68336094F8303042
:108F4000002BD4D1C5F80032A360174BC5F8083305
:108F5000C8E74FF40073C5F8003240F20223A36063
:108F600003F1CE73C5F80833A368C5F804330123B1
:108F7000AB602B627BE7590701D50223BFE7DA0715
:108F800001D50323BBE794F82E30002BB7D0042380
:108F9000B5E700BFF8090020066B0100655B010022
:108FA00000A00050040A002002029C0100E100E041
:108FB000036810B55A090CBF4FF0FF32002203F0CE
:108FC0001F0322FA03F3DB0704460AD40E490F48B5
:108FD00040F2292204F006FE40F229210A4804F05A
:108FE0008CFE236803F01F025B0922600AD0064949
:108FF000064840F22E2204F0F5FD40F22E210248F0
:1090000004F07BFE024810BD8B690100655B010026
:1090100000258450F7B50C46064605F03DF920467C
:1090200005F03AF901A840F20D650196FFF7C0FF7F
:10903000019B0127803340F8235001A80194FFF7DA
:10904000B7FF019B803340F82350042005F0F2F86D
:10905000092501A80194FFF7ABFF019A0369D340EA
:10906000DB0714D401A80196FFF7A2FF019B013D85
:1090700007FA03F3C360042005F0DCF8304605F07E
:109080000BF9042005F0D6F815F0FF05E1D101A891
:109090000194FFF78DFF0123019A9340C3600420E0
:1090A00005F0C8F8204605F0F7F8042005F0C2F8EE
:1090B00001A80194FFF77CFF019A03690348D3409C
:1090C00003F00103C01A03B0F0BD00BF0100AD0BF7
:1090D0000E4B70B553F82040013053F82060A64283
:1090E00000D870BDD4E900352846984765B1EB68D3
:1090F00030B10028B8BF4042FF28A8BFFF20187039
:109100005A7842F001025A700834E8E758590100D1
:1091100070B5054610B90024204670BD0378002BB9
:10912000F9D00F4A0F4C1646944208D10D4CB44268
:10913000F1D0204605F0BDF850B91834F7E72046C5
:1091400005F0B7F810B12368AB42E5D01834EBE76F
:109150002846216804F088FE0028EED1DCE700BF35
:1091600068540100F0530100F7B504460E464FF075
:109170002003EFF3118783F31288BFF36F8F01F0A1
:10918000EDFB0022042C98BF1D4B054694BF53F8FD
:1091900024301C4B0092452122461B4804F0C0FDA0
:1091A0003EB1F369C3F308031BB14521174804F02E
:1091B000B7FD35B1284605F0A8F8034608B1027896
:1091C00002B9134B2A464521124804F0A9FD314645
:1091D0002046FFF7A1F8042C08D10F490F488F2231
:1091E00004F000FD8F210C4804F087FD87F31188FF
:1091F000BFF36F8F284603B0BDE8F040FEF702B81A
:1092000070590100426B0100586B0100856B010031
:10921000506B0100AB6B0100C86B0100655B010086
:109220000023012210B586B0CDE904230F2201935B
:10923000CDE9023218230B4A0B4C03FB00234FF4F9
:10924000A0720A4904EBC01402FB001100932046EF
:10925000074B00F08FF9637B23F00403637306B0C0
:1092600010BD00BF2C0A0020600100202026002035
:1092700065070100012208B5094B02201A70FFF7AB
:1092800027FF01F0CBFE0320FFF722FF00F0C6F915
:1092900004F09FFC034A137B23F00103137308BD02
:1092A0005D140020E00100200248034A0021121A48
:1092B00004F018BE600100201C16002080B5354B5C
:1092C000A6B003F5006787F3088883F30A880024B3
:1092D000E023314D314E85F82230EC772C766C76D8
:1092E000AC7685F82040EC766B6ADFF8C49043F4E6
:1092F000E0236B626B6A43F400236B62AC63EB6840
:109300009BB243F0BF6343F40833EB60FDF7E0FE2C
:10931000FDF7FCFA4FF0FF33AB62EB62FEF7A2F908
:10932000FDF7FAFF40F20113ADF8243006ABB3604D
:10933000CDE91F4404F0BCFF2046FFF7C9FE012021
:10934000FFF7C6FE01F0BAF9154B164D0593012340
:1093500015494FF48052CDE9034328464B46CDE9E9
:1093600001440094F56100F005F980466A7B2846C7
:1093700022F004026A7300F099FE2046FFF750FFC6
:109380000A4B4A4641462846F36034757760FDF73C
:10939000D5FB00BF6027002000ED00E02C0A002074
:1093A000346C0100E0010020201600206001002044
:1093B000750201002DE9F041144D154CA846154EDB
:1093C000AC4208D9314614483C2204F00BFC3C2145
:1093D000304604F092FC444502D30020BDE8F08101
:1093E000D4E9041242EA010313F003030BD1E0684D
:1093F000A361834201D12034E2E7A76901331760FA
:10940000A2610A44F5E76FF01500E7E70C010020C0
:109410000C0100203C6C0100655B01002DE9F74365
:1094200004460D469046994600F108064FF0200389
:10943000EFF3118783F31288BFF36F8F304600F08C
:109440006DF940B91F492048812204F0CBFB8121EE
:109450001C4804F052FC304600F07CF9A369C3B10B
:109460002B601B68A361E3690133E361002430468C
:1094700000F062F940B913491348AC2204F0B2FB82
:10948000AC21104804F039FC87F31188BFF36F8FCB
:1094900013E058EA090203D16FF00B042B60E6E7F2
:1094A000224639463046CDE9008900F067FF044680
:1094B00018B9064B9B685B692B60204603B0BDE87A
:1094C000F08300BF3F5B0100655B01002C0A0020B8
:1094D0002DE9F04104460D4600F108064FF0200347
:1094E000EFF3118783F31288BFF36F8F304600F0DC
:1094F00015F940B91D491E48812204F073FB8121F2
:109500001A4804F0FAFB304600F024F9D4F8188029
:10951000B8F1000F0FD1204601F092F858B12A6837
:10952000C0F87880426100F0C1FD39463046BDE8A0
:10953000F04100F0BDBB2B68A26930461A602B6871
:10954000A361E369013BE36100F0F6F840B9074924
:109550000748AC2204F046FBAC21044804F0CDFBE4
:1095600087F31188BFF36F8FBDE8F0813F5B010087
:10957000655B01002DE9F04385B0DDF83C900446C1
:10958000B9F10F0F0F46154698462ED11F4B98453F
:109590002FD104F15803C4E91633109B002623731E
:1095A000042363730E9BE81D02930D9B20F00700BC
:1095B00001930C9B3D18C4E9197000932A46434659
:1095C00039462046C4E90666A66084F80E90E67324
:1095D000E666FDF797FA0E4B66659B6803B11B6F55
:1095E0002846236705B0BDE8F08309F110031E2B60
:1095F000CFD940F2FF120749074804F0F3FA40F2CE
:10960000FF11044804F079FBC3E700BF65070100C0
:109610002C0A0020616C0100655B01002DE9F04718
:10962000394F3A4D3E46DFF8EC8086B0BD420AD94C
:109630004146374840F2CF2204F0D4FA40F2CF211D
:10964000404604F05AFBB54205F130041DD300F04A
:1096500065FB40F2E7384FF000092C4C2D4DDFF848
:10966000B0A0B4420AD92946504640F2EE2204F096
:10967000B9FA40F2EE21284604F03FFBB44221D370
:1096800006B0BDE8F04700F07FBF54F8043C0593F6
:1096900054F8103C049354F8143C039354F8183CC9
:1096A000029354F81C3C019354F8203C009354E975
:1096B0000A2354E90C01FFF75DFF54F8303C5D6567
:1096C0002546B3E7636A5A1C0FD04FF40042404668
:1096D000494623EAE373C2FB0301494508BF4045FD
:1096E000276804D1384600F017FD3034B9E74FF44D
:1096F0007A720023FBF7A2FE02460B4607F1180020
:10970000054901F02FFAF0E70C0100200C010020C0
:10971000655B0100616C01009D110100006838B1BA
:10972000044B00F003001B7DC01A18BF01207047D6
:10973000012070472C0A0020054903468A68087DED
:10974000196802430020914204BF1860012070474D
:109750002C0A0020024A117D93680B430360704776
:109760002C0A0020104C08B5A26892F90E20002A9D
:1097700008DA0E490E48272204F034FA27210B4854
:1097800004F0BBFA4FF02002EFF3118382F312884A
:10979000BFF36F8F01F0DCFAA061FCF7B5FC002885
:1097A000F0D1FDF7B9F8EDE72C0A0020846C010038
:1097B000655B01002DE9F341044616461F46EFF3B1
:1097C000058343B162496348652204F00BFA6521C1
:1097D0005F4804F092FA4FF02003EFF3118883F30F
:1097E0001288BFF36F8F5C48FFF798FF40B95B4961
:1097F0005848812204F0F6F98121584804F07DFA96
:109800005548FFF7A7FFE368554AD3B1A0689168B0
:10981000884233D056EA070332D14F48FFF78CFF16
:1098200040B94E494B48AC2204F0DCF9AC214B481E
:1098300004F063FA88F31188BFF36F8F6FF00F00A5
:1098400019E0916891F90E100133E3609368424882
:109850002161A360FFF770FF40B940493D48AC2249
:1098600004F0C0F9AC213D4804F047FA88F31188B0
:10987000BFF36F8F002002B0BDE8F0812169E3E7FC
:1098800091F90E1090F90E306FF07E029942A8BF48
:1098900019469142B8BF11468B423FDD00F094FD5E
:1098A000054622464146CDE900672B4800F066FD9B
:1098B0000028E0D04FF02003EFF3118683F31288E5
:1098C000BFF36F8F2448FFF729FF40B92349214890
:1098D000812204F087F98121204804F00EFA1E4805
:1098E000FFF738FF236821699C420AD04BB193F9F6
:1098F0000E309942A8BF19466FF07E039942B8BF57
:109900001946A06890F90E30994209D16DB13146DF
:10991000114800F0CDF96FF00A00ACE70025C0E770
:1099200000F052FD0028F2D1F0E70B48FFF704FFEA
:1099300040B90A490748AC2204F054F9AC21074861
:1099400004F0DBF986F31188BFF36F8FE3E700BF04
:10995000A56C0100655B0100540A00203F5B01001B
:109960002C0A002038B50446EFF3058343B145497E
:109970004548C72204F036F9C721424804F0BDF932
:10998000A368002B78D0414DAA68934277D1E36851
:1099900043B93C493C48DF2204F024F9DF2139482F
:1099A00004F0ABF9EFF3058343B139493648FD22A2
:1099B00004F018F9FD21364804F09FF9AB68DB7B11
:1099C000012B08D132493048FE2204F00BF9FE2168
:1099D0002F4804F092F9AA68D37B013BD373E36864
:1099E000012B05D9013BE36000F0CEFD002038BD1E
:1099F0004FF02003EFF3118583F31288BFF36F8FCD
:109A00002448FFF78BFE40B923491F48812204F008
:109A1000E9F88121204804F070F91E48FFF79AFE0A
:109A2000A068216990F90E30994201D000F0CCFC79
:109A3000204600F005FEA06058B190F90E2022618A
:109A40000022826700F032FB2946124800F030F90C
:109A5000CAE7E0600F48FFF76FFE40B90E490A48B9
:109A6000AC2204F0BFF8AC210B4804F046F985F3B2
:109A70001188BFF36F8FB7E76FF01500B7E74FF0AE
:109A8000FF30B4E7A56C0100655B01002C0A0020E3
:109A9000C76C0100540A00203F5B010038B5044642
:109AA0004FF02003EFF3118583F31288BFF36F8F1C
:109AB0001248FFF733FE40B911491248812204F0E1
:109AC00091F881210E4804F018F90C48FFF742FE86
:109AD000204600F0B5FD48B10022826700F0E6FAAA
:109AE0002946BDE83840054800F0E2B8D4E9023222
:109AF0009A4218BF0133A360F2E700BF580A002062
:109B00003F5B0100655B0100F7B5044616461F4642
:109B1000EFF305835BB156EA070308D02B492C48C5
:109B2000792204F05FF87921284804F0E6F84FF034
:109B30002003EFF3118583F31288BFF36F8F25485D
:109B4000FFF7ECFD40B924492148812204F04AF88E
:109B50008121214804F0D1F81E48FFF7FBFDA368DE
:109B6000ABB1013B1B48A360FFF7E6FD40B91A49C2
:109B70001748AC2204F036F8AC21174804F0BDF8C1
:109B800085F31188BFF36F8F002003B0F0BD56EA54
:109B9000070313D10F48FFF7CFFD40B90E490C481A
:109BA000AC2204F01FF8AC210B4804F0A6F885F3B2
:109BB0001188BFF36F8F6FF00F00E6E7224629464A
:109BC000CDE90067034800F0D9FBDEE7F26C010045
:109BD000655B0100580A00203F5B010010B5084C8E
:109BE00023685BB1FEF742FB03462068054A034445
:109BF0000021BDE81040136101F0E0B810BD00BFC6
:109C0000680A00202C0A0020F8B504460D464FF0E3
:109C10002003EFF3118683F31288BFF36F8F1E4882
:109C2000FFF77CFD40B91D491D48812203F0DAFF92
:109C300081211A4804F061F81748FFF78BFD4FF4B3
:109C40000047002240F2E7300021164BE7FB0401F9
:109C50001A6100234FF47A72FBF7F0FB002C124BD1
:109C600016DC1860114B1D60FFF7B8FF0A48FFF7BC
:109C700063FD40B909490A48AC2203F0B3FFAC21A7
:109C8000064804F03AF886F31188BFF36F8FF8BDE9
:109C90000228B8BF0220E4E7600A00203F5B010011
:109CA000655B01002C0A0020680A0020640A00207D
:109CB00010B503460C46C1B9EFF30582AAB9144AA0
:109CC000D1699268914210D0FFF736FD40B9114931
:109CD0001148C32203F086FFC3210E4804F00DF89B
:109CE000BDE810400020FCF7B7BE1846FFF724FD82
:109CF00040B908490848AC2203F074FFAC2105487C
:109D000003F0FBFF84F31188BFF36F8F10BD00BF1A
:109D10002C0A00203F5B0100655B010038B54FF065
:109D20002003EFF3118583F31288BFF36F8F204870
:109D3000FFF7F4FC40B91F491F48812203F052FF8E
:109D400081211C4803F0D9FF1948FFF703FDEFF309
:109D5000058343B119491848FD2203F043FFFD2153
:109D6000164803F0CAFF164CA268D27B012A08D11C
:109D700012491148FE2203F035FFFE210F4803F07F
:109D8000BCFFA268D37B013BD3730948FFF7D4FC27
:109D900040B908490848AC2203F024FFAC2105482B
:109DA00003F0ABFF85F31188BFF36F8F38BD00BFA1
:109DB000600A00203F5B0100655B0100C76C010089
:109DC0002C0A00200B4B10B599420C460AD10A49C7
:109DD0000A4840F2E73203F005FF40F2E731064857
:109DE00003F08BFFD4E9003213605A600023C4E90A
:109DF000003310BD60010020126D0100655B0100A1
:109E0000836810B5044653B90A490B4840F28322CF
:109E100003F0E8FE40F28321064803F06EFF21467E
:109E2000A068FFF7CFFF637B23F002036373002377
:109E3000A36010BD126D0100655B010038B50246DC
:109E4000124804F088FA124D044600B9EC68AAB929
:109E5000AB6843B90F491048892203F0C3FE89213A
:109E60000C4803F04AFFAB685A7BD20606D1A269C0
:109E700022B9DA897F2A01D9EB6138BDAB68A342E8
:109E800001D0FFF7ABFEEC61F7E700BF4C0A002002
:109E90002C0A0020126D0100655B010070B590F97D
:109EA0000D200446002A437B06DA03F07F030146B7
:109EB00043731F48FFF786FF637B63F07F03637381
:109EC0001C4B9C4208D11C491C48BA2203F08AFE54
:109ED000BA21194803F011FF194A114651F8203FE1
:109EE000556A8B4208BF0023002B38BF0023CBB13B
:109EF00094F90E6093F90E0086420FD0801B002863
:109F00000CDD5968C4E900310C605C609068031B8B
:109F100058425841BDE87040FFF790BFAB4201D0B6
:109F20001B68E4E7C4E900152C605462EEE700BF4B
:109F30004C0A002060010020126D0100655B0100E9
:109F40002C0A002070B504464FF02003EFF3118572
:109F500083F31288BFF36F8F2548FFF7DFFB40B90B
:109F600024492548812203F03DFE8121214803F048
:109F7000C4FE1F48FFF7EEFB204B214A986811688A
:109F80008842194613D1FFF729FE1948FFF7D4FB81
:109F900040B918491848AC2203F024FEAC211548FA
:109FA00003F0ABFE85F31188BFF36F8F70BD002601
:109FB0001660144A1268BAB1C2897F2A14D8427B4B
:109FC000D20611D1104A90F90E60126896420BDB4E
:109FD0000E4A904208D01A69A24202DCFFF75EFFE7
:109FE000D1E7121B1A61D0E700230B61CDE700BF58
:109FF000600A00203F5B0100655B01002C0A002025
:10A000005C0A0020680A0020640A00206001002029
:10A0100070B590F90D200446002A437B3DDBDA063B
:10A020003BD18569002D38D163F07F0343731B4B0F
:10A03000984208D11A491B48BA2203F0D3FDBA212D
:10A04000174803F05AFE18490B4653F8200F984260
:10A0500018BF0546002D1A462B4638BF00234D6A0F
:10A06000B3B194F90E6093F90E0086420CD0801BB8
:10A07000002809DD5A68C4E9003214605C600020E1
:10A08000BDE87040FFF7DABEAB4201D01B68E7E7DE
:10A09000C4E900252C604C62F1E770BD600100202E
:10A0A000126D0100655B01002C0A002038B50446E2
:10A0B0004FF02003EFF3118583F31288BFF36F8F06
:10A0C0001248FFF72BFB40B911491248812203F0D7
:10A0D00089FD81210E4803F010FE0C48FFF73AFB82
:10A0E0002046FFF795FF0948FFF726FB40B90849CE
:10A0F0000848AC2203F076FDAC21054803F0FDFDD5
:10A1000085F31188BFF36F8F38BD00BF600A002050
:10A110003F5B0100655B010038B504464FF020034A
:10A12000EFF3118583F31288BFF36F8F1848FFF7A1
:10A13000F5FA40B917491848812203F053FD8121EF
:10A14000144803F0DAFD1248FFF704FB637B5A075B
:10A1500011D40F48FFF7F0FA40B90E490E48AC226F
:10A1600003F040FDAC210B4803F0C7FD85F31188D7
:10A17000BFF36F8F38BD23F0040320466373FFF7EE
:10A1800047FF2946BDE838400148FFF791BD00BFB1
:10A19000600A00203F5B0100655B010070B504466A
:10A1A0004FF02003EFF3118683F31288BFF36F8F14
:10A1B0001B48FFF7B3FA40B91A491B48812203F044
:10A1C00011FD8121174803F098FD1548FFF7C2FAE9
:10A1D00014F80B3C13F0280F10D154F8103CA4F1E4
:10A1E000180513B12846FFF70BFE14F80B3C284660
:10A1F00023F0140304F80B3CFFF70AFF0848FFF7AD
:10A200009BFA40B907490848AC2203F0EBFCAC21AB
:10A21000044803F072FD86F31188BFF36F8F70BDA1
:10A22000600A00203F5B0100655B010010B590F9FA
:10A230000D200446002A437B06DA03F07F03014623
:10A2400043730648FFF7BEFD054B9868031B584251
:10A250005841BDE81040FFF7F1BD00BF4C0A002097
:10A260002C0A002038B504460D46FFF7DFFF637B5C
:10A2700043F00203637315B3174BA5609C4208D1EA
:10A2800016491748BA2203F0ADFCBA21134803F06F
:10A2900034FD2B689D4208BF0023002B38BF0023EC
:10A2A0009BB194F90E1093F90E20914208D0521AE6
:10A2B000002A05DD5A68C4E9003214605C6038BDCC
:10A2C0006A68934201D01B68EAE76B68C4E90053EF
:10A2D0001C606C60F3E700BF60010020126D01009C
:10A2E000655B01002DE9F04104460D4616461F4608
:10A2F0004FF02003EFF3118883F31288BFF36F8FC1
:10A300001A48FFF70BFA40B919491A48812203F09D
:10A3100069FC8121164803F0F0FC1448FFF71AFA93
:10A3200020462946FFF79EFF1048FFF705FA40B97F
:10A330000F491048AC2203F055FCAC210C4803F047
:10A34000DCFC88F31188BFF36F8F7B1C08BFB6F16C
:10A35000FF3F08D032463B4604F118000649BDE8ED
:10A36000F04100F0FFBBBDE8F08100BF600A0020B3
:10A370003F5B0100655B01009D11010038B505469A
:10A380000D4B0C4698680D4B11461860DDE904230F
:10A39000FFF7A8FF2846FFF7CFF940B90849094859
:10A3A000C32203F01FFCC321054803F0A6FC20468E
:10A3B000BDE83840FCF750BB2C0A00205C0A0020A6
:10A3C0003F5B0100655B0100F8B504460E464FF0A7
:10A3D0002003EFF3118783F31288BFF36F8F3748A1
:10A3E000FFF79CF940B936493648812203F0FAFB61
:10A3F0008121334803F081FC3048FFF7ABF9637BE0
:10A4000076B2DA0656D1A569002D53D103F07F0349
:10A41000637321462C48FFF7D5FC637BA67363F07A
:10A420007F036373294B9C4208D129492548BA22EE
:10A4300003F0D8FBBA21264803F05FFC25490B4600
:10A4400053F8200F984218BF0546002D1A462B4698
:10A4500038BF00234D6A43B394F90E6093F90E00A0
:10A4600086421ED0801B00281BDD5A68C4E90032DA
:10A4700014605C600120FFF7E1FC01240F48FFF746
:10A480005BF940B90E490F48AC2203F0ABFBAC219D
:10A490000B4803F032FC87F31188BFF36F8F20461F
:10A4A000F8BDAB4201D01B68D5E7C4E900252C609C
:10A4B0004C62DFE7A6730024E0E700BF600A0020DB
:10A4C0003F5B0100655B01004C0A00206001002039
:10A4D000126D01002C0A002070B50446183000F0FF
:10A4E000FBFB4FF02003EFF3118683F31288BFF3D9
:10A4F0006F8F2048FFF712F940B91F491F4881228A
:10A5000003F070FB81211C4803F0F7FB1948FFF7AB
:10A5100021F994F90D20637B002A06DA03F07F030A
:10A52000214617486373FFF74DFC164D637BA868FF
:10A5300043F010036373031B58425841FFF77EFC3E
:10A540000C48FFF7F9F840B90B490C48AC2203F06E
:10A5500049FBAC21084803F0D0FB86F31188BFF318
:10A560006F8FAB68A34203D1BDE8704003F0E9BE32
:10A5700070BD00BF600A00203F5B0100655B010009
:10A580004C0A00202C0A002038B54FF02003EFF3CE
:10A59000118583F31288BFF36F8F2448FFF7BEF84D
:10A5A00040B923492348812203F01CFB8121204824
:10A5B00003F0A3FB204C1D48FFF7CCF8A268D27B28
:10A5C00052B91E491B4840F2853203F00BFB40F2A2
:10A5D00085311A4803F091FBEFF3058353B1174916
:10A5E000144840F2863203F0FDFA40F286311348F7
:10A5F00003F083FBA2680020D37B0133D373FFF702
:10A600001DFC0A48FFF798F840B909490948AC22EF
:10A6100003F0E8FAAC21064803F06FFB85F31188DC
:10A62000BFF36F8FBDE8384003F08BBE600A002097
:10A630003F5B0100655B01002C0A0020126D0100E8
:10A6400038B504464FF02003EFF3118583F31288E9
:10A65000BFF36F8F1648FFF761F840B915491648E8
:10A66000812203F0BFFA8121124803F046FB104813
:10A67000FFF770F8204603F06EFE044628B1FFF79E
:10A68000BFFB04F1180000F027FB0948FFF754F85E
:10A6900040B908490848AC2203F0A4FAAC210548A7
:10A6A00003F02BFB85F31188BFF36F8F204638BD75
:10A6B000600A00203F5B0100655B01000021044B44
:10A6C000084603F12002C3E90822FFF79DBA00BF44
:10A6D0002C0A0020F8B5EFF3058353B139493A4805
:10A6E00040F2DC4203F07EFA40F2DC41354803F0F0
:10A6F00004FB4FF02003EFF3118683F31288BFF3BE
:10A700006F8F3248FFF70AF840B931492E4881224D
:10A7100003F068FA81212E4803F0EFFA2D4D2B4803
:10A72000FFF718F8A96805F120004B7B03F07F03C1
:10A730004B73FFF747FBAC68637B63F07F03637386
:10A74000254B9C4208D11F491F48BA2203F04AFA00
:10A75000BA211C4803F0D1FA2B6A2048696A834267
:10A7600008BF0023002B38BF002333B394F90E70C9
:10A7700093F90E2097421CD0D21B002A19DD5A688B
:10A78000C4E9003214605C600120FFF757FB0F48FA
:10A79000FEF7D2FF40B90E490B48C32203F022FA5C
:10A7A000C3210B4803F0A9FA3046BDE8F840FCF796
:10A7B00053B98B4201D01B68D7E7C4E900010C6094
:10A7C0006C62E1E7126D0100655B0100600A002028
:10A7D0003F5B01002C0A0020600100204C0A002091
:10A7E0002DE9F04104460D46EFF3058353B13C4992
:10A7F0003C484FF49F6203F0F5F94FF49F613848ED
:10A8000003F07BFA54EA050304D1FFF763FF00204D
:10A81000BDE8F0816FF001031E1B4FF0FF3363EBC7
:10A820000507012E77F1000356DA03F09EFD0619A5
:10A830004FF02003EFF3118883F31288BFF36F8F7B
:10A840002948FEF76BFF40B928492648812203F0CA
:10A85000C9F98121254803F050FA254F2248FEF717
:10A8600079FFB868234B1860FFF7E0FCB868224610
:10A870002B461830204900F075F9BA681A48537B06
:10A8800043F010035373FEF757FF40B917491548BB
:10A89000C32203F0A7F9C321144803F02EFA40465F
:10A8A000FCF7DAF8BB685B7BDB060AD50C490D4880
:10A8B00040F2195203F096F940F21951084803F09A
:10A8C0001CFA03F052FD301A66EB0601012871F103
:10A8D0000003B8BF00209BE76FF00106361BA7E717
:10A8E000126D0100655B0100600A00203F5B010002
:10A8F0002C0A00205C0A00209D11010038B5044696
:10A900000D46EFF3058353B1114912484FF4A56288
:10A9100003F068F94FF4A5610D4803F0EEF96B1CE4
:10A9200008BFB4F1FF3F06D10B4B9868FFF7D4FD89
:10A930004FF0FF3038BD20462946FFF751FF4FF456
:10A940007A7380FB0334D80B40EA4440F2E700BF3F
:10A95000126D0100655B01002C0A0020014B986814
:10A96000704700BF2C0A00202DE9F04104464FF04B
:10A970002003EFF3118683F31288BFF36F8F3E48F5
:10A98000FEF7CCFE40B93D493D48812203F02AF94B
:10A9900081213A4803F0B1F93748FEF7DBFE637BCB
:10A9A0001A0712D53448FEF7C7FE40B93349344878
:10A9B000AC2203F017F9AC21304803F09EF986F37E
:10A9C0001188BFF36F8FBDE8F08123F0200242F0C1
:10A9D0000801D20938D16173A36813B12046FFF78B
:10A9E0000FFA04F1180000F077F94FF0000804F1B5
:10A9F0005807A56DBD4200D085BB0120FFF71EFAA8
:10AA0000204B9B68A342CDD1EFF30583002BC9D126
:10AA10001948FEF791FE40B918491948C32203F0BE
:10AA2000E1F8C321154803F068F93046FCF714F843
:10AA300040F24B621449124803F0D4F840F24B61E3
:10AA4000114803F05AF9ADE703F05F0343F0080340
:10AA500021460E486373FFF7B5F9BDE72846FFF7B7
:10AA6000CFF905F1180000F037F92846C5F87880CD
:10AA7000FFF7CEFABDE700BF600A00203F5B010090
:10AA8000655B01002C0A0020126D01004C0A0020B9
:10AA900008B50648064A0749121A03F018FABDE835
:10AAA0000840054A0549064803F011BA0000002095
:10AAB0005C010020906D010000000000906D01001D
:10AAC00000000020034B1B680BB9FDF7CFBB002033
:10AAD000704700BF6C0A002030B5036868B10A4AAD
