:020000021000EC
:1082000048050120F9C8010085BE0200CDC8010063
:10821000CDC80100CDC80100CDC80100CDC8010006
:10822000000000000000000000000000B9C30100D1
:10823000CDC801000000000061C30100CDC80100ED
:1082400039C4010039C4010039C4010039C4010036
:1082500039C4010039C4010039C4010039C4010026
:1082600039C4010039C4010039C4010039C4010016
:1082700039C4010039C4010039C4010039C4010006
:1082800039C4010039C4010039C4010039C40100F6
:1082900039C4010039C4010039C4010039C40100E6
:1082A00039C4010039C4010039C4010039C40100D6
:1082B00055E8010039C4010039C4010039C4010086
:1082C00039C4010039C4010039C4010039C40100B6
:1082D00039C4010039C4010039C4010039C40100A6
:1082E00039C4010039C4010039C4010039C4010096
:1082F00039C4010039C4010039C4010039C4010086
:1083000039C4010039C4010039C4010039C4010075
:1083100039C4010039C4010039C4010039C4010065
:1083200039C4010039C4010039C4010039C4010055
:1083300039C4010039C4010039C4010039C4010045
:1083400039C401000000000000000000000000002F
:10835000000000000000000000000000000000001D
:10836000000000000000000000000000000000000D
:1083700000000000000000000000000000000000FD
:1083800000000000000000000000000000000000ED
:1083900000000000000000000000000000000000DD
:1083A00000000000000000000000000000000000CD
:1083B00000000000000000000000000000000000BD
:1083C00000000000000000000000000000000000AD
:1083D000000000000000000000000000000000009D
:1083E000000000000000000000000000000000008D
:1083F000000000000000000000000000000000007D
:10840000DEE61E284CBBCE8F025B00003C00000065
:1084100000A40100010000000082010000820100B0
:10842000FFFF0291000000000000000000000000BB
:0C84300000000000000000000000000040
:04843C00FFFFFFFF40
:108440004FF0FF0C1CEAD0521EBF1CEAD15392EA37
:108450000C0F93EA0C0F6FD01A4480EA010C400213
:1084600018BF5FEA41211ED04FF0006343EA50106D
:1084700043EA5111A0FB01310CF00040B1F5000FAF
:108480003EBF490041EAD3715B0040EA010062F15E
:108490007F02FD2A1DD8B3F1004F40EBC25008BF48
:1084A00020F00100704790F0000F0CF0004C08BF66
:1084B00049024CEA502040EA51207F3AC2BFD2F133
:1084C000FF0340EAC250704740F400004FF0000341
:1084D000013A5DDC12F1190FDCBF00F0004070477B
:1084E000C2F10002410021FA02F1C2F1200200FAB9
:1084F00002FC5FEA310040F1000053EA4C0308BF80
:1085000020EADC70704792F0000F00F0004C02BFD0
:10851000400010F4000F013AF9D040EA0C0093F04B
:10852000000F01F0004C02BF490011F4000F013BA5
:10853000F9D041EA0C018FE70CEAD15392EA0C0F13
:1085400018BF93EA0C0F0AD030F0004C18BF31F07E
:10855000004CD8D180EA010000F00040704790F054
:10856000000F17BF90F0004F084691F0000F91F0F8
:10857000004F14D092EA0C0F01D142020FD193EABE
:108580000C0F03D14B0218BF084608D180EA010046
:1085900000F0004040F0FE4040F40000704740F022
:1085A000FE4040F44000704781F0004102E000BF0F
:1085B00083F0004330B54FEA41044FEA430594EAA3
:1085C000050F08BF90EA020F1FBF54EA000C55EADE
:1085D000020C7FEA645C7FEA655C00F0E2804FEAAF
:1085E0005454D4EB5555B8BF6D420CDD2C4480EA91
:1085F000020281EA030382EA000083EA010180EAC1
:10860000020281EA0303362D88BF30BD11F0004F0E
:108610004FEA01314FF4801C4CEA113102D0404244
:1086200061EB410113F0004F4FEA03334CEA13337F
:1086300002D0524263EB430394EA050F00F0A78097
:10864000A4F10104D5F1200E0DDB02FA0EFC22FA92
:1086500005F2801841F1000103FA0EF2801843FA86
:1086600005F359410EE0A5F120050EF1200E012A77
:1086700003FA0EFC28BF4CF0020C43FA05F3C018B5
:1086800051EBE37101F0004507D54FF0000EDCF12E
:10869000000C7EEB00006EEB0101B1F5801F1BD3D7
:1086A000B1F5001F0CD349085FEA30004FEA3C0CDB
:1086B00004F101044FEA445212F5800F80F09A80D1
:1086C000BCF1004F08BF5FEA500C50F1000041EBD5
:1086D000045141EA050130BD5FEA4C0C404141EBD9
:1086E0000101013C28BFB1F5801FE9D291F0000FD4
:1086F00004BF01460020B1FA81F308BF2033A3F183
:108700000B03B3F120020CDA0C3208DD02F1140C79
:10871000C2F10C0201FA0CF021FA02F10CE002F1B4
:108720001402D8BFC2F1200C01FA02F120FA0CFCAD
:10873000DCBF41EA0C019040E41AA2BF01EB0451F6
:10874000294330BD6FEA04041F3C1CDA0C340EDCF4
:1087500004F11404C4F1200220FA04F001FA02F337
:1087600040EA030021FA04F345EA030130BDC4F1F5
:108770000C04C4F1200220FA02F001FA04F340EAEA
:108780000300294630BD21FA04F0294630BD94F09B
:10879000000F83F4801306BF81F480110134013D82
:1087A0004EE77FEA645C18BF7FEA655C29D094EAF3
:1087B000050F08BF90EA020F05D054EA000C04BF71
:1087C0001946104630BD91EA030F1EBF002100205C
:1087D00030BD5FEA545C05D14000494128BF41F0FB
:1087E000004130BD14F580043CBF01F5801130BD5F
:1087F00001F0004545F0FE4141F470014FF00000EA
:1088000030BD7FEA645C1ABF194610467FEA655C9A
:108810001CBF0B46024650EA013406BF52EA03353C
:1088200091EA030F41F4002130BD00BF90F0000F2A
:1088300004BF0021704730B54FF4806404F1320466
:108840004FF000054FF0000150E700BF90F0000F1F
:1088500004BF0021704730B54FF4806404F1320446
:1088600010F0004548BF40424FF000013EE700BF16
:1088700042004FEAE2014FEA31014FEA02701FBFA6
:1088800012F07F4393F07F4F81F06051704732F0D8
:108890007F4208BF704793F07F4F04BF41F400212F
:1088A000704730B54FF4607401F0004521F000418D
:1088B0001CE700BF50EA010208BF704730B54FF017
:1088C00000050AE050EA010208BF704730B511F018
:1088D000004502D5404261EB41014FF4806404F150
:1088E00032045FEA915C3FF4D8AE4FF003025FEAD6
:1088F000DC0C18BF03325FEADC0C18BF033202EB5A
:10890000DC02C2F1200300FA03FC20FA02F001FAB3
:1089100003FE40EA0E0021FA02F11444BDE600BF56
:1089200070B54FF0FF0C4CF4E06C1CEA11541DBF05
:108930001CEA135594EA0C0F95EA0C0F00F0DEF8D0
:108940002C4481EA030621EA4C5123EA4C5350EAB5
:10895000013518BF52EA033541F4801143F4801306
:1089600038D0A0FB02CE4FF00005E1FB02E506F097
:108970000042E0FB03E54FF00006E1FB03569CF0EC
:10898000000F18BF4EF0010EA4F1FF04B6F5007FF2
:1089900064F5407404D25FEA4E0E6D4146EB060664
:1089A00042EAC62141EA55514FEAC52040EA5E50ED
:1089B0004FEACE2EB4F1FD0C88BFBCF5E06F1ED897
:1089C000BEF1004F08BF5FEA500E50F1000041EBCE
:1089D000045170BD06F0004646EA010140EA02007B
:1089E00081EA0301B4EB5C04C2BFD4EB0C0541EA9D
:1089F000045170BD41F480114FF0000E013C00F3B2
:108A0000AB8014F1360FDEBF002001F0004170BDD5
:108A1000C4F10004203C35DA0C341BDC04F11404EE
:108A2000C4F1200500FA05F320FA04F001FA05F27A
:108A300040EA020001F0004221F0004110EBD37047
:108A400021FA04F642EB06015EEA430E08BF20EA73
:108A5000D37070BDC4F10C04C4F1200500FA04F316
:108A600020FA05F001FA04F240EA020001F00041A8
:108A700010EBD37041F100015EEA430E08BF20EA1B
:108A8000D37070BDC4F1200500FA05F24EEA020E63
:108A900020FA04F301FA05F243EA020321FA04F092
:108AA00001F0004121FA04F220EA020000EBD37049
:108AB0005EEA430E08BF20EAD37070BD94F0000F49
:108AC0000FD101F00046400041EB010111F4801F7D
:108AD00008BF013CF7D041EA060195F0000F18BF2E
:108AE000704703F00046520043EB030313F4801F6A
:108AF00008BF013DF7D043EA0603704794EA0C0F24
:108B00000CEA135518BF95EA0C0F0CD050EA410639
:108B100018BF52EA4306D1D181EA030101F00041B6
:108B20004FF0000070BD50EA410606BF10461946DE
:108B300052EA430619D094EA0C0F02D150EA0136EA
:108B400013D195EA0C0F05D152EA03361CBF10462B
:108B500019460AD181EA030101F0004141F0FE41CA
:108B600041F470014FF0000070BD41F0FE4141F44E
:108B7000780170BD70B54FF0FF0C4CF4E06C1CEA4E
:108B800011541DBF1CEA135594EA0C0F95EA0C0F03
:108B900000F0A7F8A4EB050481EA030E52EA0335BE
:108BA0004FEA013100F088804FEA03334FF08055DF
:108BB00045EA131343EA12634FEA022245EA11150C
:108BC00045EA10654FEA00260EF000419D4208BFBD
:108BD000964244F1FD0404F5407402D25B084FEA6A
:108BE0003202B61A65EB03055B084FEA32024FF416
:108BF00080104FF4002CB6EB020E75EB030E22BF73
:108C0000B61A754640EA0C005B084FEA3202B6EB32
:108C1000020E75EB030E22BFB61A754640EA5C00E1
:108C20005B084FEA3202B6EB020E75EB030E22BF71
:108C3000B61A754640EA9C005B084FEA3202B6EB72
:108C4000020E75EB030E22BFB61A754640EADC0031
:108C500055EA060E18D04FEA051545EA16754FEA93
:108C600006164FEAC30343EA52734FEAC2025FEAB1
:108C70001C1CC0D111F4801F0BD141EA00014FF040
:108C800000004FF0004CB6E711F4801F04BF014311
:108C90000020B4F1FD0C88BFBCF5E06F3FF6AFAE2D
:108CA000B5EB030C04BFB6EB020C5FEA500C50F1BD
:108CB000000041EB045170BD0EF0004E4EEA113140
:108CC00014EB5C04C2BFD4EB0C0541EA045170BD47
:108CD00041F480114FF0000E013C90E645EA060E8B
:108CE0008DE60CEA135594EA0C0F08BF95EA0C0FB9
:108CF0003FF43BAF94EA0C0F0AD150EA01347FF401
:108D000034AF95EA0C0F7FF425AF104619462CE7D7
:108D100095EA0C0F06D152EA03353FF4FDAE10463A
:108D2000194622E750EA410618BF52EA43067FF48B
:108D3000C5AE50EA41047FF40DAF52EA43057FF41B
:108D4000EBAE12E74FEA4102B2F1E04324BFB3F5C4
:108D5000001CDCF1FE5C0DD901F0004C4FEAC002B2
:108D60004CEA5070B2F1004F40EB830008BF20F096
:108D70000100704711F0804F21D113F13872BCBF50
:108D800001F00040704741F480114FEA5252C2F1A5
:108D90001802C2F1200C10FA0CF320FA02F018BFEE
:108DA00040F001004FEAC1234FEAD32303FA0CFC41
:108DB00040EA0C0023FA02F34FEA4303CCE77FEAD0
:108DC000625307D150EA01331EBF4FF0FE4040F41A
:108DD0004000704701F0004040F0FE4040F40000C9
:108DE000704700BF80F0004002E000BF81F000410A
:108DF00042001FBF5FEA410392EA030F7FEA226C41
:108E00007FEA236C6AD04FEA1262D2EB1363C1BFD0
:108E1000D218414048404140B8BF5B42192B88BF3F
:108E2000704710F0004F40F4000020F07F4018BF62
:108E3000404211F0004F41F4000121F07F4118BF82
:108E4000494292EA030F3FD0A2F1010241FA03FC2A
:108E500010EB0C00C3F1200301FA03F100F0004312
:108E600002D5494260EB4000B0F5000F13D3B0F1DA
:108E7000807F06D340084FEA310102F10102FE2A49
:108E800051D2B1F1004F40EBC25008BF20F00100B9
:108E900040EA03007047490040EB0000013A28BF58
:108EA000B0F5000FEDD2B0FA80FCACF1080CB2EBDB
:108EB0000C0200FA0CF0AABF00EBC2505242184359
:108EC000BCBFD0401843704792F0000F81F40001FE
:108ED00006BF80F400000132013BB5E74FEA4103D1
:108EE0007FEA226C18BF7FEA236C21D092EA030F3D
:108EF00004D092F0000F08BF0846704790EA010FB7
:108F00001CBF0020704712F07F4F04D1400028BFE3
:108F100040F00040704712F100723CBF00F50000C5
:108F2000704700F0004343F0FE4040F400007047FB
:108F30007FEA226216BF08467FEA236301464202A7
:108F400006BF5FEA412390EA010F40F480007047BA
:108F50004FF0000304E000BF10F0004348BF404260
:108F60005FEA000C08BF704743F0964301464FF09C
:108F700000001CE050EA010208BF70474FF00003F8
:108F80000AE000BF50EA010208BF704711F0004339
:108F900002D5404261EB41015FEA010C02BF844609
:108FA0000146002043F0B64308BFA3F18053A3F568
:108FB0000003BCFA8CF2083AA3EBC25310DB01FAAF
:108FC00002FC634400FA02FCC2F12002BCF1004F33
:108FD00020FA02F243EB020008BF20F001007047C4
:108FE00002F1200201FA02FCC2F1200250EA4C0018
:108FF00021FA02F243EB020008BF20EADC7070475E
:109000007BB972B90029BEBF00204FF0004106E0D5
:1090100008BF00281CBF6FF000414FF0FF3000F088
:10902000CBB9ADF1080C6DE904CE002909DB002BAA
:109030001ADB00F04DF8DDF804E0DDE9022304B0AE
:109040007047404261EB4101002B1BDB00F040F810
:10905000DDF804E0DDE9022304B0404261EB4101A8
:10906000524263EB43037047524263EB430300F009
:109070002FF8DDF804E0DDE9022304B0404261EBA3
:1090800041017047524263EB430300F021F8DDF8E1
:1090900004E0DDE9022304B0524263EB430370476E
:1090A00053B94AB9002908BF00281CBF4FF0FF314F
:1090B0004FF0FF3000F080B9ADF1080C6DE904CE3F
:1090C00000F006F8DDF804E0DDE9022304B07047A3
:1090D0002DE9F04F099E0D4604460F46002B47D15F
:1090E0008A4294465FD9B2FA82F343B1C3F12001B8
:1090F0009F4002FA03FC9C4020FA01F10F434FEA23
:109100001C451FFA8CFE220CB7FBF5F105FB11770D
:1091100001FB0EF042EA0742904208D91CEB020222
:1091200001F1FF3702D2904200F234813946121A1F
:10913000A4B2B2FBF5F005FB102200FB0EFE44EAE0
:109140000244A64508D91CEB040400F1FF3202D208
:10915000A64500F21981104640EA0140A4EB0E0436
:1091600000211EB1DC400023C6E90043BDE8F08FBA
:109170008B4208D9002E00F0FB800021C6E90005D3
:109180000846BDE8F08FB3FA83F100294BD1AB421A
:10919000C0F0F180824240F2EE800846002EE5D019
:1091A000C6E90047E2E702B9FFDEB2FA82F3002B1C
:1091B00040F09D808D1A4FEA124E97B20121B5FB07
:1091C000FEF20EFB1250250C45EA004507FB02F0AB
:1091D000A8420FD91CEB050502F1FF382CBF4FF058
:1091E00001094FF00009A84203D9B9F1000F00F0BE
:1091F000CE8042462D1AA4B2B5FBFEF00EFB1055F0
:1092000000FB07F744EA0544A74208D91CEB040415
:1092100000F1FF3502D2A74200F2B3802846E41BDA
:1092200040EA02409DE7C1F120078B4005FA01F4B6
:1092300022FA07FCFD408A404CEA030C20FA07F3AF
:109240004FEA1C491C431FFA8CFE00FA01F3200C64
:10925000B5FBF9F809FB185540EA054508FB0EF087
:10926000A8420FD91CEB050508F1FF3A2CBF4FF0BF
:10927000010B4FF0000BA84203D9BBF1000F00F027
:109280008C80D0462D1AA4B2B5FBF9F009FB10551D
:1092900000FB0EFE44EA0545AE4507D91CEB05056B
:1092A00000F1FF3401D2AE457ED8204640EA0840A6
:1092B000A5EB0E05A0FB029845454C46C64602D3D9
:1092C00006D14B4504D20138B9EB020468EB0C0E11
:1092D000002E6FD01A1B65EB0E0522FA01F305FA7A
:1092E00007F7CD4000211F43C6E900753EE702FAAB
:1092F00003FCC3F1200001FA03F24FEA1C4EC14007
:1093000024FA00F51FFA8CF79C401543B1FBFEF0E0
:109310002A0C0EFB101142EA014200FB07F19142B8
:109320000ED91CEB020200F1FF382CBF4FF00109EF
:109330004FF00009914202D9B9F1000F31D04046F7
:10934000521AADB2B2FBFEF10EFB112245EA024504
:1093500001FB07F2AA4207D91CEB050501F1FF3812
:1093600001D2AA4223D84146AD1A41EA004126E77C
:1093700031463046FAE6841A65EB030301201F46A6
:109380000CE7644402384AE764440238E4E6023AEF
:1093900065442FE702396244C9E6A8F10208654432
:1093A00070E702386244CBE7023865447EE7023951
:1093B0006544D9E73146D9E6704700BF4FF0FF3C1E
:1093C00006E000BF4FF0010C02E000BF4FF0010CBF
:1093D0004DF804CD4FEA410C7FEA6C5C4FEA430C38
:1093E00018BF7FEA6C5C1BD001B050EA410C0CBF87
:1093F00052EA430C91EA030F02BF90EA020F0020E9
:10940000704710F1000F91EA030F58BF994208BF4F
:1094100090422CBFD8176FEAE37040F0010070470C
:109420004FEA410C7FEA6C5C02D150EA013C07D163
:109430004FEA430C7FEA6C5CD6D152EA033CD3D0AE
:109440005DF8040B704700BF8446104662468C46A8
:109450001946634600E000BF01B5FFF7B7FF0028DB
:1094600048BF10F1000F01BD4DF808EDFFF7F4FF04
:109470000CBF012000205DF808FB00BF4DF808ED8F
:10948000FFF7EAFF34BF012000205DF808FB00BFB2
:109490004DF808EDFFF7E0FF94BF012000205DF8D4
:1094A00008FB00BF4DF808EDFFF7CEFF94BF012089
:1094B00000205DF808FB00BF4DF808EDFFF7C4FF82
:1094C00034BF012000205DF808FB00BF4FEA410CCB
:1094D0007FEA6C5C02D150EA013C0AD14FEA430CAE
:1094E0007FEA6C5C02D152EA033C02D14FF00000EB
:1094F00070474FF0010070474FEA410212F5001229
:1095000015D211D56FF47873B3EB625212D94FEACA
:10951000C12343F0004343EA505311F0004F23FAB4
:1095200002F018BF404270474FF00000704750EA09
:10953000013005D111F0004008BF6FF000407047C6
:109540004FF00000704700BF10F8012B11F8013BED
:10955000012A28BF9A42F7D0D01A7047034613F861
:10956000012B002AFBD1181A0138704700000000B7
:1095700001282DE9F84F0F4609D004286ED012F0CB
:10958000B7FC162303604FF0FF30BDE8F88F4FF0B3
:109590002003EFF3118483F31288BFF36F8F3448F5
:1095A0000CF0B0FE40B9334933488E2212F084F9F2
:1095B0008E21304812F017FB2D480CF0BFFE2F4BC8
:1095C0002B489D68D3E900690CF0AAFE40B92949EF
:1095D0002948B92212F070F9B921264812F003FB8C
:1095E00084F31188BFF36F8F14F06CFADFF890806A
:1095F000C0F30E04C00B40EA4140A0FB080AA4FBE4
:109600000843C90B08FB01A1E40B44EA43442418B6
:1096100041F1000A14A3D3E9002320465146FFF785
:109620003FFD11A3D3E9002310EB060B49EBE076D5
:1096300051462046C7E900B6FFF732FD114B1544ED
:109640009D42BD6008D91BF1010346F10006C7E940
:109650000036A5EB0805BD60002096E700252E46E4
:10966000A946C1E7AFF3008000CA9A3B00000000A2
:1096700010CF0020AAF4020070F40200F8CA002003
:1096800000CA9A3BFFC99A3B0128F8B50E4606D09E
:1096900012F02EFC162303604FF0FF30F8BD14F0DB
:1096A00011FA334A33687468A3FB0235B66802FBCB
:1096B00004559C194FEAD03343EA414345EBE67524
:1096C000A3FB0236C90BC0F30E0002FB0161A0FB35
:1096D0000202E41A4FEAD03343EA424365EB010544
:1096E000E41A65F1000520461FA3D3E900232946AB
:1096F000FFF786FC1CA3D3E9002307460E4620464D
:109700002946FFF77DFC14464FF02003EFF3118547
:1097100083F31288BFF36F8F16480CF0F3FD40B946
:10972000154916488E2212F0C7F88E21124812F001
:109730005AFA10480CF002FE114B0E48C3E90076AD
:109740009C600CF0EDFD40B90B490C48B92212F0B9
:10975000B3F8B921084812F046FA85F31188BFF32F
:109760006F8F00209AE700BF00CA9A3B00000000FC
:1097700000CA9A3B10CF0020AAF4020070F4020045
:10978000F8CA002000000000002370B586B0CDE9C3
:10979000043304230D4606460193002800F09E8002
:1097A000002900F09B80062104A812F0DEFE04468A
:1097B00038B1024645214E4812F02FFA204606B035
:1097C00070BD014604AA304612F0CCFE044640B1FA
:1097D00045210246474812F020FA04A812F0D8FEAC
:1097E000ECE7032101AB02AA04A812F0CAFF044669
:1097F00018B1024645214048EDE7019B0146183368
:109800006B4403F8100C022202A810F071F96A46AA
:109810000121C6B204A812F07FFF044618B1024627
:1098200045213648D7E7009B042B16D0052B07D0DF
:1098300028705721324812F0F0F96FF07F04CCE71E
:1098400009230F2E2B7029D96FF0150245212D48C1
:1098500012F0E3F96FF01504BFE707230F2E2B700A
:10986000F2D8294B33F81600284EE0B1FEF7EEFF90
:109870001DA3D3E90023FFF753F8FFF763FA042190
:1098800068600DEB010302AA04A8019112F079FFB0
:10989000044650B1024645211D489CE71D4B33F854
:1098A00016001D4EE1E71D48E9E7019B022218332F
:1098B0006B44014603F8100C02A810F019F9C2B26B
:1098C0000F2A02D945211648C2E7501CC0B2FFF743
:1098D00043FB3146FEF7B4FDA8607EE76FF0150448
:1098E0006CE700BFAFF300807B14AE47E17A244001
:1098F000410C03006F0C0300A00C0300D10C03000B
:10990000F80C0300250D030034F102000AD7A33F31
:109910004E0D030054F102000AD723400AD7A3409A
:109920007E0D0300000000002DE9F04F164699B0AF
:109930001F46446A0546DDF89480CDE9046774B992
:1099400010200FF0C5FA0246686220B9A84BEA2140
:10995000A84810F0A9FBC0E901440460C4606B6A28
:10996000196851B15A680123284693404A608B60B8
:1099700010F07CFC6B6A00221A603B1EB7BF23F01C
:109980000043002301220593A8BFC8F80030DDF88A
:109990001490994BB8BFC8F8002033EA090319D1D5
:1099A00042F20F73249A1360C9F31303334300F098
:1099B0007E85269B53B9914B22E0914B039308334C
:1099C000269A1360039819B0BDE8F08F8B4B039370
:1099D0000333F5E7DDE904340022CDE90C34DDE999
:1099E0000C010023FFF740FD804658B10123249A63
:1099F0001360269B002B00F0578582481860431E99
:109A00000393DFE716ABC9F30A542846019317AB5B
:109A10000093DDE90C2310F0A9FE8346002C7CD0D6
:109A20000D9BA4F2FF34CDF84C80C3F31303DDE9A2
:109A30000C0143F07F5141F440110022724BFEF7BC
:109A4000B7FD65A3D3E90023FEF76AFF64A3D3E95A
:109A50000023FEF7AFFD06460F462046FEF7F6FE52
:109A600061A3D3E90023FEF75BFF02460B463046B5
:109A70003946FEF79FFD06460F46FFF73DFD0022E3
:109A80008246002330463946FFF7F8FC48B150467D
:109A9000FEF7DCFE32463B46FFF7E6FC08B90AF16A
:109AA000FF3ABAF1160F56D8584B03EBCA03DDE95B
:109AB0000C01D3E90023FFF7E1FC00284DD00AF1A7
:109AC000FF3A00230F93169B1C1B631E099349BF8B
:109AD000C4F1010300230693002354BF06930993A6
:109AE000BAF1000F3BDB099BCDF838A05344099332
:109AF00000230A93229B092B00F28C80052BC5BF03
:109B0000043B002401242293229B023B032B00F2FE
:109B10008D80DFE803F02E504E5CDDE916431C44D7
:109B200004F23243202BC6BFC3F1400304F21240BB
:109B3000C3F1200304F1FF34C5BF09FA03F326FA89
:109B400000F006FA03F01843FEF770FE0123A1F1BE
:109B5000F871139371E70123B4E70F90B3E7069B05
:109B6000A3EB0A030693CAF100030A9300230E93A2
:109B7000C0E700230B93239B002B5ADC4FF0010915
:109B80004B46CDF82090CDF88C900022686A426058
:109B9000042202F1140641689E4250D9284610F072
:109BA00025FB039000284ED1194B02464FF4D57186
:109BB000CEE60123DEE700230B93239B0AEB030988
:109BC00009F10103012B0893B8BF0123DDE701234D
:109BD000F2E700BFAFF3008061436F63A787D23F16
:109BE000B3C8608B288AC63FFB799F501344D33F8C
:109BF000351D0300A71E03000000F07FA31E030015
:109C00009A1E0300E10B03000000F83F70EC020015
:109C1000251F0300012400230B9422934FF0FF39EA
:109C200000221223CDF820902392AEE701230B935C
:109C3000F4E7DDF88C904B46CDF82090A5E7013194
:109C400052004160A5E76B6A039A1A60089B0E2BCD
:109C500000F2A880002C00F0A580BAF1000F34DDDE
:109C60000AF00F03994A1AF4807F02EBC303D3E989
:109C70000034CDE910344FEA2A1416D0944B04F086
:109C80000F040327D3E90823DDE90C01FEF772FF77
:109C9000CDE904018E4E54B9DDE91023DDE904015C
:109CA000FEF768FFCDE9040129E00227F2E7E107AA
:109CB00008D50137DDE91001D6E90023FEF730FEB3
:109CC000CDE9100164100836E5E700F0A580CAF17F
:109CD00000047E4B7E4E022704F00F02241103EB9A
:109CE000C203DDE90C01D3E90023FEF719FE0023CE
:109CF000CDE90401002C40F08480002BD2D10F9BD1
:109D0000002B00F08B800022DDE90434CDE9103413
:109D1000DDE910016F4BFFF7B1FB00287ED0089BF7
:109D2000002B7BD0B9F1000F38DD0AF1FF38013785
:109D30004C460022684BDDE91001FEF7F1FDCDE94C
:109D400004013846FEF782FDDDE90423FEF7E8FD55
:109D50000022624BFEF72EFCA1F15076CDE91001F6
:109D60001196002C5DD100225D4BDDE90401FEF768
:109D70001FFC02460B46CDE90423109A3346FFF739
:109D80009BFB002840F09B82109A06F10043DDE91E
:109D90000401FFF773FB002840F08F82DDE90C34EB
:109DA000CDE90434179B002BC0F25181BAF10E0F9C
:109DB00000F34D81454B03EBCA03D3E90034CDE9F1
:109DC0000634239B002B80F2DA80089B002B00F3E3
:109DD000D68040F071820022414BDDE90601FEF79A
:109DE0009FFDDDE90423FFF75DFB089C2646002864
:109DF00040F04782039F31230AF1010A07F8013B33
:109E000043E2E20705D50137D6E90023FEF788FDD6
:109E10000123641008366DE7022770E7D046089CDE
:109E20008FE70399294B214403EBC40312910B994B
:109E3000DDE9106753E90223002955D000202949A4
:109E4000FEF798FE3B463246FEF7B2FB039FCDE994
:109E50001001DDE90401FFF74FFB0446FEF7F6FCB5
:109E600002460B463034DDE90401FEF7A1FB024651
:109E70000B4607F8014BCDE90423DDE91023FFF77A
:109E8000FDFA002873D100201249DDE90423FEF712
:109E90008FFBDDE91023FFF7F1FA002840F0B680D0
:109EA000129B9F423FF47AAF00220B4BDDE9100179
:109EB000FEF736FD0022084BCDE91001DDE9040173
:109EC000FEF72EFDCDE90401C3E700BF70EC0200F0
:109ED00048EC02000000F03F0000244000001C405D
:109EE000000014400000E03F30463946FEF718FD00
:109EF000129B039C1493CDE91001DDE90401FFF7E7
:109F0000FBFA1590FEF7A2FC02460B46DDE90401C0
:109F1000FEF74EFB159B06460F463033002204F831
:109F2000013B129B9C4224D1A44BDDE91001FEF7BA
:109F300041FB02460B4630463946FFF7BDFA002882
:109F400063D100209D49DDE91023FEF731FB024675
:109F50000B4630463946FFF791FA00283FF41EAF12
:109F6000149F7B1E149317F8013C302BF8D0C24687
:109F70003BE0934BFEF7D4FCCDE90401BDE7DDE9FE
:109F80000489039F40464946DDE90623FEF7F2FDBA
:109F9000FFF7B2FA0446FEF759FC04F13006DDE99A
:109FA0000623FEF7BDFC02460B4640464946FEF737
:109FB000FFFA07F8016B039E0246DDF820C00B464E
:109FC000BE1BB44536D1FEF7F5FA80468946DDE979
:109FD0000623FFF771FA58BB40464946DDE90623E0
:109FE000FFF742FA08B1E10722D42846594610F09B
:109FF0003DF900230AF101003B70249B1860269B69
:10A00000002B3FF4DFAC1F60DCE427463B461F46D5
:10A0100013F8012D392A07D1039A9A42F7D1302239
:10A02000039908F101080A701A7801321A709EE744
:10A03000D046EBE70022624BFEF772FC00220023C1
:10A0400080468946FFF710FA00289BD0CDE70B9A8F
:10A05000002A00F0D080229A012A00F3B380139ADC
:10A06000002A00F0A68003F233430A9C069F069A5A
:10A07000012128461A440692099A1A44099210F0BE
:10A080005FF90646002F0CDD099B002B09DDBB4262
:10A09000069AA8BF3B46D21AFF1A0692099AD31A0B
:10A0A00009930A9BF3B10B9B002B00F0A880002CB6
:10A0B00010DD31462246284610F000FA5A46014685
:10A0C0000646284610F052F9804659462846C346AF
:10A0D00010F0CCF80A9B1A1B04D05946284610F001
:10A0E000EDF983460121284610F02AF90E9B04461B
:10A0F000002B40F386801A460146284610F0DEF910
:10A10000229B0446012B7FDD4FF00008236904EBFE
:10A110008303186914F0B5F8C0F12000099B1844B6
:10A1200010F01F0000F09280C0F12003042B40F3D8
:10A130008A80C0F11C00069B074403440693099BD8
:10A1400003440993069B002B05DD59461A46284611
:10A1500010F00EFA8346099B002B05DD21461A46B6
:10A16000284610F005FA04460F9B002B70D02146BC
:10A17000584614F0D3F800286ADA002359460A2218
:10A18000284610F095F80B9B0AF1FF3A8346002B06
:10A1900000F09481314600230A22284610F088F806
:10A1A000B9F1000F064600F39380229B022B57DC87
:10A1B0008EE0169BC3F1360357E700BF0000E03F77
:10A1C00000002440089B5C1E0A9BA342B7BF0A9B69
:10A1D0001C1B0A94E21ABFBF0E9B00249B180E930F
:10A1E000089B002BBBBF069B089A069F9F1AACBF1B
:10A1F000089B00233BE70A9C069F0B9E42E70A9AB6
:10A200006BE7229B012B19DC049BBBB9059BC3F3B5
:10A2100013039BB9059B23F000431B0D1B0583B162
:10A22000069B4FF0010801330693099B0133099304
:10A230000E9B002B7FF46AAF01206FE74FF0000800
:10A24000F6E79846F4E73FF47DAF18461C3072E716
:10A25000089B002B36DC229B022B33DDDDF820909F
:10A26000B9F1000F0DD121464B460522284610F0CA
:10A270001FF801460446584614F050F800283FF7EE
:10A28000B9AD239B039F6FEA030A4FF000082146F4
:10A2900028460FF0EBFF002E3FF4A7AEB8F1000FF9
:10A2A00005D0B04503D0414628460FF0DFFF3146C8
:10A2B00028460FF0DBFF98E600242646E1E7C24679
:10A2C000264697E50B9BDDF82090002B00F0FD80E3
:10A2D000002F05DD31463A46284610F049F906467A
:10A2E000B8F1000F5CD0716828460FF07FFF074679
:10A2F00028B9804B024640F2EA21FFF729BB3269B8
:10A3000006F10C010C300232920013F0FCFC012229
:10A310003946284610F02CF9039BB0460646013317
:10A320000893039B4B440A93049B03F00103099396
:10A33000089B21465846013B049313F00DFF03464A
:10A3400041460690584630330B9313F0E7FF3246F0
:10A3500081462146284610F07BF9C26807460B9BD0
:10A3600002BB0146584613F0D9FF0B9B0246394603
:10A370002846CDE90B320FF079FF229B0C9A089FFB
:10A3800043EA0201099B0B430B9B0DD1392B29D0CA
:10A39000B9F1000F01DD069B3133049A137076E7A3
:10A3A0003046B9E70122E2E7B9F1000F06DB229956
:10A3B00041EA0909099959EA010120D1002AECDD95
:10A3C000594601222846089310F0D2F821468346C8
:10A3D00013F0A4FF0028089B02DCDED1DA07DCD5ED
:10A3E000392BD8D13923049A13703B461F46013BC1
:10A3F00017F8012C392A50D001321A7047E7002A89
:10A4000003DD392BEED00133C7E7089A0A9902F829
:10A41000013C8A422AD0594600230A2228460FF0DE
:10A4200047FFB04583464FF000034FF00A02414614
:10A43000284607D10FF03CFF80460646089B0133B3
:10A44000089375E70FF034FF3146804600230A2257
:10A4500028460FF02DFF0646F0E7B9F1000F039AEA
:10A460004FF00008CCBF4F46012717445946012240
:10A470002846089310F07CF82146834613F04EFFDF
:10A480000028B2DC02D1089BDB07AED43B461F4656
:10A4900013F8012D302AFAD0F9E6039A9A42A5D191
:10A4A0000AF1010A312379E7134BFFF7A9BA269B7A
:10A4B000002B7FF482AA114BFFF7A2BAB9F1000F6B
:10A4C00003DC229B022B3FF7CBAE039F214658466D
:10A4D00013F042FE039A00F1300307F8013BBA1A69
:10A4E0009145BADD594600230A2228460FF0E0FEC6
:10A4F0008346EBE7251F0300E00B03009A1E0300D1
:10A5000010B50378044613B1042B16D010BD027A9F
:10A5100044210E4811F081FB237A012B0BD0052B2F
:10A52000F4D10B4A44210B4811F077FBBDE81040F1
:10A5300009480CF087B9094AF4E7D0E9042344211B
:10A54000BDE81040064811F068BB00BFA1F1020051
:10A550008DF10200C3F102008CCA002074F10200E8
:10A56000E8F1020001220023F0B5492193B06148CF
:10A57000CDE9002311F051FB002004F035F902462B
:10A58000C0B949215C4811F048FB5C480CF0FEF969
:10A590005B4812F034F90446D0B1024645215948CF
:10A5A00011F03BFB45215848224611F036FB45216E
:10A5B000564805E04521564811F02FFB45215548E6
:10A5C00011F02BFB4521544811F027FB13B0F0BDCF
:10A5D0004FF0FF324FF0FF3348480CF06DF949213E
:10A5E0004E4811F01AFB49214D4811F016FB4D4D14
:10A5F0004D4E4E4C00214FF4C0300DF09DFB2A46CD
:10A60000402130460AF0F8FF024620B1442120469E
:10A6100011F003FBEEE74921454811F0FEFA454FE2
:10A62000454E414D00214FF420300DF085FB402177
:10A630003C4A28460AF0E0FF2A4649213F4811F0EB
:10A64000ECFA684606F068FCDDE900014FF47A7226
:10A650000023FEF7D5FCCDE9020102A80EF028FB8D
:10A66000DDE9002304464921354811F0D6FA492195
:10A670003846A26811F0D1FA49213846626811F0D3
:10A68000CCFA49213046226811F0C7FA49213046F8
:10A69000226A11F0C2FAAA7F49212A48303A11F001
:10A6A000BCFA6368092B08DC27490AA813F0B8FC38
:10A6B0000A2207A90AA813F08EFC04A90A22A0689E
:10A6C00013F001FB0AA90A22606813F0FCFA04A93E
:10A6D00014220DA813F0ACFC0AA914220DA813F043
:10A6E0007AFC0DA813F0D3FA49210246174811F05D
:10A6F00094FA96E71EF2020030F202008CCA0020A3
:10A7000001A5010096F20200BBF20200EAF202008B
:10A710004CF202007AF202000EF4020009F3020089
:10A720001FF3020051F30200CED400205BF30200BD
:10A730002BF40200BBF30200CFF3020094F30200FB
:10A74000A6F30200E4F30200E00B0300FAF30200B8
:10A75000032808B506D911F0CBFB092303604FF09D
:10A76000FF3008BD044B03EB40100830D0E8AF3F8A
:10A77000002BF0D00020F4E7B0CD002070B50446E7
:10A780000D461646FFF7E4FF002809DB064B600183
:10A7900045B11A185268AA4204D011F0A9FB06600C
:10A7A000002000E0185870BDB0CD002070B5044600
:10A7B0000E461546FFF7CCFF00280CDB074B610166
:10A7C00003EB4414626832601DB101F10C021A44BB
:10A7D0002A60585870BD0020FCE700BFB0CD0020B3
:10A7E00010B500244FF0FF324FF0FF3314480BF048
:10A7F000DBFD144A6301D2E8AF1F79B10134042CA8
:10A8000002F12002F6D111F073FB17234FF0FF3451
:10A8100003600B480BF09AFE204610BDD2E8EF0F04
:10A820000130C2E8EC0FBCF1000FF7D10648C218A6
:10A83000C15051600C33184413F0C9F8E9E700BF68
:10A8400010CA0020B8CD0020B0CD002010B40446BE
:10A850001046094B620103EB44149950606040B10B
:10A86000C46834B10C32134410BC40F2051210F02D
:10A87000AEBF10BC704700BFB0CD002030B50D4951
:10A88000400100F108030B44D3E8AF2F82B1541EFE
:10A89000D3E8EF5F954204D1C3E8EC4FBCF1000F61
:10A8A000F6D1F1D1012A01BF00230A180B505360E1
:10A8B00030BD00BFB0CD0020436870B503F0030386
:10A8C000022B04460E46816010D0032B04D0012BCE
:10A8D0000FD10025284601E00568002000236360B1
:10A8E00010B131460EF054F8284670BD00250068BE
:10A8F000F4E745220449054810F0DEFF45210248EF
:10A9000011F071F90025E8E74DF4020070F402003F
:10A910000B6801330B60014B1B68184788C500208A
:10A92000014B1860704700BF88C5002007B50B4673
:10A93000002102460191034801A900F071FC03B017
:10A940005DF804FB11A901002DE9F74FB0F81CA038
:10A9500004461AF0080F93461CD001290CBF4AF098
:10A96000100A4AF0200AA0F81CA004F114000BF011
:10A97000D7FC40B992499348B92210F09DFFB92104
:10A980008F4811F030F98BF31188BFF36F8F03B04C
:10A99000BDE8F08F8C4FDFF82C820AF0070A0229FD
:10A9A00006D1204610F095FF0028DED0012863D1A3
:10A9B000D4F81890A38BB9F1000F19DA0026256896
:10A9C00023F00703C4E9006643F00103A383A38BCC
:10A9D00003F007025245009203D0A268002A40F01B
:10A9E000F58015B9002E00F02F814FF0000AEFE03E
:10A9F00003F00702511F012920D8002123F007038B
:10AA0000062A25689BB2C4E900110AD13DB1294646
:10AA1000E28B0968013292B20029FAD1E28343F055
:10AA200002032046A38310F054FF06460028CED030
:10AA3000A38B43F02003A3830026C8E7042A0DD18B
:10AA400023F007039AB22046A28310F042FF054686
:10AA500080B142F020020025A283EDE740F21B12F4
:10AA60003946404610F028FF40F21B11384611F0DD
:10AA7000BAF800252E46AAE7032831D1BAF1000F13
:10AA80000AD0394640464FF4AB7210F015FF4FF430
:10AA9000AB71384611F0A7F8236853B939464046E0
:10AAA00040F2571210F008FF40F25711384611F0EB
:10AAB0009AF823691E6856B9394640464FF4AD727C
:10AAC00010F0FAFE4FF4AD71384611F08CF8A38BFC
:10AAD00023F0070343F006030025A383A94676E786
:10AAE00004282ED1BAF1020F0AD03946404640F26E
:10AAF0005D1210F0E1FE40F25D11384611F073F87E
:10AB0000E38B53B1394640464FF4AF7210F0D4FE98
:10AB10004FF4AF71384611F066F823695E6856B994
:10AB20003946404640F2611210F0C6FE40F2611113
:10AB3000384611F058F8A38B23F0070343F00403C1
:10AB4000CAE705282ED1BAF1010F0AD0394640468E
:10AB50004FF4B27210F0B0FE4FF4B271384611F0FB
:10AB600042F8236853B93946404640F2651210F066
:10AB7000A3FE40F26511384611F035F823699E684E
:10AB800056B9394640464FF4B47210F095FE4FF472
:10AB9000B471384611F027F8A38B23F0070343F074
:10ABA000050399E7002540F26B123946404610F044
:10ABB00083FE40F26B11384611F015F82E468DE7F2
:10ABC000AAF4020070F4020088F402004FF0010AB7
:10ABD00043F00803A38304F11403184601930BF018
:10ABE0009FFB40B940463149B92210F065FEB921BA
:10ABF0002E4810F0F8FF8BF31188BFF36F8FBAF176
:10AC0000000F30D1002D40D116B120462849B04761
:10AC10004FF02003EFF3118B83F31288BFF36F8F94
:10AC200001980BF06FFB40B9404620498E2210F08E
:10AC300043FE8E211D4810F0D6FF01980BF07EFBDD
:10AC4000A38B23F00803A383A38BDA0625D5012168
:10AC500023F01003A383B4F81CA00AF0070A00290C
:10AC60007FF49DAE81E6A1680029CBD0D1F800A089
:10AC70004B462046D1F804B0009AD847BAF1000FED
:10AC8000C0D05146DAF800A0F2E729464B462046EC
:10AC9000009A2D6810F039FEB4E713F020011EBFB2
:10ACA00023F020030221A383D5E700BFAAF402000A
:10ACB000B5AC0100F8B504460D4600F114064FF09E
:10ACC0002003EFF3118783F31288BFF36F8F3046B1
:10ACD0000BF018FB40B90A490A488E2210F0ECFD2F
:10ACE0008E21074810F07FFF30460BF027FB3A46D5
:10ACF0002046A5610121BDE8F840FFF725BE00BF51
:10AD0000AAF4020070F402002DE9F04704460F4651
:10AD100010F011FE051E54DB04F114094FF020035E
:10AD2000EFF3118A83F31288BFF36F8F48460BF05D
:10AD3000E9FA40B9334934488E2210F0BDFD8E2126
:10AD4000304810F050FF48460BF0F8FA4FF6FF710C
:10AD5000E38BA28B8B4202F007064AD0022E1FD152
:10AD600035464FF001080133E38348460BF0D8FA2B
:10AD700040B924492448B92210F09EFDB921214848
:10AD800010F031FF8AF31188BFF36F8FB8F1000F15
:10AD900017D0002332463946204610F0B6FD10E0A9
:10ADA000930701D0062E0FD100233B606368EBB9F7
:10ADB000C4E900773546F6B9524602212046FFF72E
:10ADC000C3FD2846BDE8F087052E17D0012E0AD016
:10ADD0000E490D4840F2C91210F06EFD40F2C91143
:10ADE0000A4810F000FF6FF0040504E01F60676080
:10ADF000E0E76FF00A054FF00008B6E76FF0850551
:10AE0000F9E700BFAAF4020070F4020088F402001F
:10AE10002DE9F843C36844695F1E40F26C7305690D
:10AE2000E1170135E41841F10001022D8CBF002328
:10AE30000123E41A61F100010029804655DA6FF41C
:10AE4000C7704FF4C8720023201861F10001FEF7AB
:10AE5000D7F8284B024603FB0044D8E900903C2376
:10AE6000D8F80880C617C8FB0306B446A0FB030643
:10AE7000022D8CBF6FF0020E4FF0090E03FB0C6623
:10AE800010EB090C40F26D104FEA940300FB043301
:10AE90004FF06400B4FBF0F405EB0E004FF09905A1
:10AEA00005FB00F04FF0050500F10200B0FBF5F0E6
:10AEB0003B44A3EB0403104C0344A2FB040204FB39
:10AEC000012146EBE9761B180C480D4A41F10001BF
:10AED0001818A0FB020361F1000102FB013110EB25
:10AEE0000C0041EB0601BDE8F8834FF4C872002363
:10AEF0002046ACE770FEFFFFB13A02009405F5FF73
:10AF00008051010070B579B305680C1F641BE60819
:10AF100024F007042C446388DB0708D41349144841
:10AF2000A42210F0C9FCA421104810F05CFE3146A8
:10AF3000284610F02CFD304435F83030C01A8642D7
:10AF400008D00A490A48AC2210F0B6FCAC210748E8
:10AF500010F049FE6388314623F0010328466380E0
:10AF6000BDE8704010F0CFBD70BD00BFD0F402004E
:10AF700070F402004B422DE9F04703EA010731EA81
:10AF80000303144606681BD0042F3D4628BF042542
:10AF9000B946CF1B07F1FF3A1AEA070F0AD0314929
:10AFA00031484FF49C7210F087FC4FF49C712D488F
:10AFB00010F019FE7CB94FF000094846BDE8F08753
:10AFC000042904D8BDE8F047114610F0CDBD4FF07C
:10AFD00000090425DEE7B368B3EBD40FEBD904F125
:10AFE0000B013944491B3046C90810F026FD804644
:10AFF0000028E0D009F1040505EBC00535445544AF
:10B000007F422F40A7EB09094C44A9F10403073400
:10B010009B1B24F00704A41BB0EBD30F4FEAD3070C
:10B020004FEAE40408D201463A46304610F051FD9A
:10B030004146304610F0B0FC3946304610F0A7FCCF
:10B040003844844207D23046224610F042FD214661
:10B05000304610F0A1FC06EBC706738843F00103ED
:10B060007380AAE7D0F4020070F40200B2F5802FDA
:10B070002DE9F04104460E4617465ED3364940F2AC
:10B08000DB12364810F018FC40F2DB11324810F0A9
:10B09000AAFD043FF51D3E4425F0070526F00706EE
:10B0A000761B172E4FEAD6070AD82B492B4840F2B9
:10B0B000EB1210F001FC40F2EB11274810F093FD69
:10B0C0002560B7FA87F40023C4F12008C4F12404F2
:10B0D000A4000734E408EB60631CBB42AF600AD9EC
:10B0E0001D491E4840F2FB1210F0E6FB40F2FB1136
:10B0F000194810F078FD002205F1100303EB8808D1
:10B10000984525D1630043F001036B803B1B05EBA1
:10B11000C40158002A804880A91925F834404A8083
:10B12000AB5305EBC7035A88214642F0010228467B
:10B13000BDE8F0415A8010F02FBC042AA9D8064976
:10B140004FF4F172054810F0B7FB4FF4F1719DE731
:10B1500043F8042BD4E700BFD0F4020070F40200DF
:10B16000F0B5034602680A270020064E11460C7807
:10B170000132A55D6D0701D41960F0BD07FB0040E9
:10B180003038F3E7351C03002DE9F84F15469A4691
:10B19000D378224A6F2B13F802B080460F460BF08B
:10B1A000030B29D024D8582B14BF0A261026DDF80B
:10B1B00028903246002340463946FDF771FF092AA0
:10B1C000D4B21ED83034B045E4B277F1000309F8A8
:10B1D000014D01D3D14511D82B789B0605D5082EFA
:10B1E00015D1AB7843F00803AB704846BDE8F88F43
:10B1F00003F0F703702BD7E70826D8E780460F4601
:10B20000D7E7BBF1010F0CBF37345734DBE7102E03
:10B21000EBD1AB7843F01003E6E700BF351C030029
:10B220002DE9F04F82468B4691461C46002593B08F
:10B2300099F8000008B928463DE309F101032528E3
:10B24000029306D05946D0470028C0F23483013516
:10B25000F5E1182200210CA812F062FD99F80130E6
:10B26000252B5AD009F10102164612F8013B2B2B6F
:10B2700000F08B8079D8202B00F08C80232B00F0FD
:10B280008E809DF8383003F04402442A03D16FF3D6
:10B2900086138DF838309DF83830059643F08003DA
:10B2A0008DF8383033782A2B7ED19DF8393043F031
:10B2B00001038DF83930731C05931A782E2A0CBFC0
:10B2C000012100219DF8392061F341028DF83920D8
:10B2D0000BD15A1C05925A782A2A7BD19DF8392025
:10B2E000023342F004028DF83920194611F8010B9F
:10B2F0006C2800F0B6807DD8682800F084806A2829
:10B3000000F0B9804C2800F0BD809DF83920194626
:10B310006FF3C6028DF8392080E009F10202029233
:10B320008DF83B309DF83930D90740F14A8154F807
:10B33000048BB8F1000F07DA9DF83820C8F1000837
:10B3400042F004028DF838205A0740F1438154F846
:10B35000047B002F80F242819DF839306FF3410366
:10B360008DF839304FF0FF3738E12D2B06D0302BD8
:10B3700087D19DF8383043F0400303E09DF8383022
:10B3800043F004038DF838306EE79DF8383043F011
:10B390000803F7E79DF8383043F01003F2E79DF813
:10B3A000383043F02003EDE705A8FFF7D9FE059BF1
:10B3B000B34281D09DF838100F90C1F3400242EAA9
:10B3C000D072520062F07F0201F07D010A438DF8D5
:10B3D000382071E705A8FFF7C3FE9DF838301090BC
:10B3E000C3F3400242EAD07060F341038DF8383075
:10B3F000059B7AE774289DF8392040D07A2884D1BB
:10B400001346062228E05A78682A9DF8392021D16F
:10B41000012161F3C6028DF83920991C0B4613F8FF
:10B42000012B782A02938DF83B209DF8393000F2E9
:10B43000C080572A33D8412A03D0453A022A00F265
:10B44000B88004229DF83A3062F302038DF83A3056
:10B45000012385E01346022262F3C6038DF83930DA
:10B46000DCE75A786C2A9DF8392001D10421D0E715
:10B4700013460322F0E705229DF83930ECE7134626
:10B480000722E9E7BDF8383023F4F04323F0020344
:10B4900043F4804343F00203ADF83830BEE7A2F135
:10B4A0005801202900F2858001A050F821F000BF4A
:10B4B00075B50100B3B50100B3B50100B3B5010026
:10B4C000B3B50100B3B50100B3B50100B3B50100D8
:10B4D000B3B5010043B40100B3B5010075B5010077
:10B4E00035B5010043B4010043B4010043B4010089
:10B4F000B3B5010035B50100B3B50100B3B5010026
:10B50000B3B50100B3B501007DB5010075B501000B
:10B5100099B50100B3B50100B3B5010099B50100BB
:10B52000B3B5010075B50100B3B50100B3B50100B5
:10B5300075B5010001209DF83A1003F0780360F31F
:10B540000201402B8DF83A1002BF9DF8381041F0EF
:10B5500001018DF83810632A31D1003B18BF012357
:10B560009DF83820C2F340010B4363F341028DF88C
:10B570003820D7E602209DF83A10DEE703219DF837
:10B580003A2003F07803A3F1400061F30202434242
:10B590008DF83A204341E3E703219DF83A2013F068
:10B5A000780F61F3020214BF012300238DF83A20C3
:10B5B000D6E79DF8383043F001038DF8383000238A
:10B5C000CEE79DF93820002AACBF4FF0FF38DDF8F8
:10B5D0003C80B9E69F077FF5C5AE109F0023CDE9FB
:10B5E0000F339DF83A309DF8391003F00703012B13
:10B5F000C1F3C30139D1CB1E042B23D8DFE803F0FC
:10B6000003090922220054F8043BDA17CDE90C3271
:10B6100006E0073424F00704F4E80223CDE90C2304
:10B620009DF8383013F0030657D04A465946504625
:10B63000029B10F0C2FA0028C0F23D810544DDF8FB
:10B640000890F5E554F8043B01294FEAE372CDE98F
:10B650000C3205D19DF830300C9300230D93DFE7B9
:10B660000229DDD1BDF93030CFE7022B23D1CB1E2B
:10B67000042B13D8DFE803F0030A0A121200002398
:10B680002268201D0C920D930446C9E7E01D20F0AE
:10B690000700F0E80223CDE90C23F5E754F8043B5A
:10B6A00001290C934FF000030D93D3D00229B7D199
:10B6B000BDF83030D0E7042B09D1E31D23F0070398
:10B6C00003F10804D3E90023CDE90C23A8E7032BF9
:10B6D00004BF54F8043B0C93A2E79DF83B00782884
:10B6E000ADD8622820D825283FF4ACAD5828A6D183
:10B6F000DDE90C010DF12E0300930EAA06ABFFF756
:10B7000043FD8146002F0DF12E000BDB9DF8382004
:10B71000A0EB09036FF386129F428DF8382001D900
:10B72000FB1A0F9307463CE06338152887D801A21F
:10B7300052F820F0B3B7010015B801003FB6010080
:10B740003FB601003FB601003FB6010015B8010049
:10B750003FB601003FB601003FB601003FB6010011
:10B760006FB801003DB8010041B801003FB60100CB
:10B770003FB601008DB701003FB601003DB80100A2
:10B780003FB601003FB601003DB80100002FDDF8D3
:10B7900030900ADB3946484612F08DFC002609EB52
:10B7A0000007B9F1000F0CD149E74846FDF7D6FE76
:10B7B000F4E700260C9B0DF119078DF818300DF1F8
:10B7C0001809A7EB090306B101339DF83A20D0060A
:10B7D00066D5023352060F9948BF109A0B4448BFF2
:10B7E0009B18B8F1000F73DD9DF83820A8EB030813
:10B7F000C2F38003039353076AD450065ED53EB16B
:10B8000059463046D047002855DB039B01351E467C
:10B81000302354E01E070FD413F0100618BF202663
:10B82000DDE90C23002BBFF663AF524263EB430309
:10B830002D26CDE90C235BE72B26F1E7002657E701
:10B840000C9840B30DF12E030093002106AB0EAA15
:10B85000FFF79AFCBDF83A30814603F0EF0343F45A
:10B86000F04343F010030026ADF83A304AE70C9B52
:10B8700007293FF6E4AEDFE801F00C04060C0808E7
:10B880000C0C1D70DBE61D80D9E6EA17C3E90052F7
:10B89000D5E61D60D3E62E4F0646A7F1050990E7D1
:10B8A000110748BF013395E7184659460393D0471F
:10B8B0000028039B04DA13B0BDE8F08F2023454431
:10B8C0004246002AA5EB080108F1FF38ECDC0D46E2
:10B8D0002EB159463046D0470028ECDB01359DF8A3
:10B8E0003A30D90601D41A0705D559463020D04739
:10B8F0000028E0DB01359DF83A30DB0606D55946D5
:10B900009DF83B00D0470028D5DB01350F9E2E4423
:10B91000731B002B15DC3B464A465946504610F037
:10B920004CF90028C7DB0544A844A8EB0503002B0D
:10B930007FF785AE59462020D0470028BBDB013574
:10B94000F3E759463020D0470028B4DB0135DFE764
:10B95000F6F402004FF02002EFF3118382F3128815
:10B96000BFF36F8F0121044AC2F8401583F3118899
:10B97000BFF36F8F002070470090034020B1034B4E
:10B98000800143F001031847704700BF40EC0200FC
:10B99000F0B505469BB00F4614460021302202A8A0
:10B9A00012F0BEF9002D00F08580002C00F082809E
:10B9B0001B238DF8083012F085F84FF47A720026B8
:10B9C000A0FB020302FB0131C00B4FF47A7200238B
:10B9D00040EA41403146FDF763FB384A0244130A0E
:10B9E000110201F47F0103F47F430B4343EA026336
:10B9F00043F08303E8682A610C9330223346CDE993
:10BA0000006602A910F0ACF900280FDB31463022A5
:10BA10000EA812F085F9A9683A46284610F000FAF7
:10BA2000B04205DA10F064FA006840421BB0F0BD85
:10BA300037D0E86830223346CDE900660EA910F011
:10BA4000BFF90028EEDB30282ED1149B2A691BBADF
:10BA50009A4202D06FF01500E8E79DF8383003F005
:10BA60000703042BF6D19DF8393003B3189B199ABC
:10BA70001BBA12BA53EA0201ECD0002BA2600ADA18
:10BA80000F4A9342E6D900200E4A9B1840F1FF323C
:10BA9000C4E90032CAE700200A4A1A44C4E9002077
:10BAA000C4E76FF07300C1E76FF07900BEE76FF095
:10BAB0000F00BBE76FF00D00B8E700BF807EAA83E0
:10BAC0007F7EAA838081557C2DE9F04705460E468E
:10BAD00017461C4CDFF87090DFF870804C4508D991
:10BAE00041461B48D5220FF0E7FED521404610F015
:10BAF0007AF84C4507D310F0FBF96A2303604FF046
:10BB0000FF30BDE8F0872368AB4200D0BBB9636863
:10BB100043B941460E48DB220FF0CEFEDB21404602
:10BB200010F061F83A46314628466368984730B1CC
:10BB30003A4631462846A368BDE8F04718470C341A
:10BB4000CCE700BF4CEB020058EB020028F50200E6
:10BB500070F402002DE9F04F06464FF000089BB04C
:10BB60000491104619461D46144611F0B1FFB14626
:10BB7000C24647460BAB0893CDE90501049B0393EE
:10BB8000039B03BB002F60D0B5F1FF3F08BFB4F1AA
:10BB9000FF3F16BF4FF47A704FF0FF34A4FB004014
:10BBA000049B1CBFE40B44EA404400934FF48272B0
:10BBB000334641465046019410F074F80746384623
:10BBC0001BB0BDE8F08FD9F80000002837DB0AAAC7
:10BBD00009A9FEF7EBFD079088B34FF0FF324FF055
:10BBE000FF330A9810F06DF81AAB019308AB00937D
:10BBF0004FF481724B460799099810F053F810F1F1
:10BC0000780F83460DD010F1120F07990CD1BAF1BD
:10BC1000000F02D18846DDF824A04FF0000B012769
:10BC200002E000242546A3460A9810F04CF8BBF128
:10BC3000000F04DA10F05CF9CBF1000336E0039B4F
:10BC400009F10809013B03939AE754EA050310D070
:10BC5000B5F1FF3F08BFB4F1FF3F0AD00CF0FEFB87
:10BC6000059B1C1A069B63EB0105002DBCBF3C46DF
:10BC7000254608990BAF3F4BC91B891059432B46EA
:10BC8000224638460CF0AEFD00F10B030B2B81462B
:10BC900008D840F6810828FA03F86FEA080818F077
:10BCA000010807D010F024F9C9F100034FF0FF3765
:10BCB000036084E70897B1464746DDF810A0BAF163
:10BCC000000F1CD1B8F1000F3FF479AF002F7FF4C3
:10BCD00076AF54EA05033FF472AFB5F1FF3F08BFFA
:10BCE000B4F1FF3FC5D00CF0B9FB059B1C1A069BB5
:10BCF00063EB0105012C75F10003BADA5FE74FF041
:10BD00000003D9F80000A9F80630002829DB0AAAA8
:10BD100009A9FEF74BFD834620B92023A9F8063078
:10BD200001371EE04FF0FF324FF0FF330A980FF05B
:10BD3000C8FF08AB594640F20312009309984B46DE
:10BD40000FF0B0FF83460A980FF0BDFF1BF10B0FF9
:10BD50000CD0BBF1000F7FF46DAFB9F90630002BAA
:10BD6000DED109F108090AF1FF3AA8E74FF001080E
:10BD7000F7E700BFCDCCCCCC38B5044640B90B4971
:10BD80000B4813220FF098FD132108480FF02BFFEA
:10BD9000084D2B6843B10549054814220FF08CFD6E
:10BDA000142102480FF01FFF2C6038BD5CF5020023
:10BDB00070F4020030CE00202DE9F041DFF854800D
:10BDC0001F46D8F8003004460D46164643B91249BE
:10BDD00012481D220FF070FD1D210F480FF003FFC8
:10BDE000D8F800301B6843B90B490C481E220FF0ED
:10BDF00063FD1E2108480FF0F6FED8F800303246E9
:10BE0000D3F800E029463B462046F446BDE8F04121
:10BE1000604700BF30CE00205CF5020070F40200E5
:10BE200070B50F4D04462B6843B90E490E482522C4
:10BE30000FF042FD25210B480FF0D5FE2B685B6803
:10BE400043B90849084826220FF036FD2621054847
:10BE50000FF0C9FE2B682046BDE870405B681847AC
:10BE600030CE00205CF5020070F402002DE9F843AA
:10BE700005464FF02003EFF3118683F31288BFF3DA
:10BE80006F8F1D480AF03EFA40B91C491C488E22AB
:10BE90000FF012FD8E2119480FF0A5FE16480AF08A
:10BEA0004DFA184B1C689CB14FF00C09164FDFF887
:10BEB0005C80D4E90132002D08BF13462BB198F8FD
:10BEC000142009FB02F2B85C98472468002CF0D1DA
:10BED00009480AF025FA40B908490948B9220FF083
:10BEE000EBFCB92105480FF07EFE86F31188BFF305
:10BEF0006F8FBDE8F88300BF34CE0020AAF40200A3
:10BF000070F4020038CE002040CE00204CD4002037
:10BF10000123420900F01F0003FA00F0C043054B63
:10BF200003EB8203D3E8EF2F0240C3E8E12F00299F
:10BF3000F8D170474CCE0020012238B5174B1C7D3C
:10BF400004F01F039A40D043154B610903EB8103B2
:10BF5000D3E8EF1F01EA0005C3E8EC5FBCF1000F76
:10BF6000F6D1114213D00F4B0F4D8BB10C2363430D
:10BF7000EA185178E85C0FF04AFE0020FFF776FFE0
:10BF80000C235C4300232A192B51C2E9013338BD2D
:10BF900083F31188BFF36F8FEFE700BF4CD400200D
:10BFA00050CE00200FBC020040CE00202DE9F84307
:10BFB0002F4B07461C7D4FEA54184FEA88082D4B3B
:10BFC0004344D3E8AF3F04F01F0943FA09F313F0E9
:10BFD000010F294E0AD10146204600F07BF828B116
:10BFE00007C80C2303FB046383E807000C236343A7
:10BFF000F55CF2182DB92046FFF78AFF2846BDE808
:10C00000F8837B1C0FD04FF400450021D2F808C004
:10C010001A480023ECFB0501194AFDF741F80121FC
:10C02000381A0CF03FF90BF077F80120FFF71EFFEC
:10C03000012303FA09F9134B9844D8E8EF3F43EA88
:10C040000903C8E8E23F002AF7D10F4B33B10C23B4
:10C050006343F2185178F05C0FF0CDFDFFF76CFFF1
:10C060002046FFF755FF0BF0B3FC0120C7E700BFE8
:10C070004CD400204CCE002040CE00203F420F0088
:10C0800040420F0050CE0020F7BB0200062810B53A
:10C09000044608D9084909482C220FF00DFC2C2130
:10C0A00005480FF0A0FD064800EB8404D4E8AF0F6C
:10C0B000B0FA80F0400910BD9AF5020070F4020059
:10C0C00054CE002008B9024B0B600020704700BF1F
:10C0D00038ED02002DE9F04F85B00E4603A9FFF7B9
:10C0E000F1FF4FF400474FF00009441EDFF868A04D
:10C0F000DFF8688024B2631C04D10025284605B00F
:10C10000BDE8F08F039A04EB440312F8230002EB1E
:10C110008305FFF7BBFFE0B14FF0000BD446594653
:10C1200068684246E0FB07C14B466046FCF7B8FF33
:10C13000D44659460190A8684246E0FB07C14B46E9
:10C140006046FCF7ADFF721CD8D0019B1844B0428A
:10C15000D4D9013C24B2CEE73F420F0040420F0049
:10C1600008B50AF0D9FFBDE8084001480FF095BEB8
:10C1700070CE002008B503480FF090FEBDE80840DF
:10C180000BF026BC70CE0020014910220A607047D7
:10C1900010ED00E072B6404080F31188BFF36F8F5E
:10C1A000BFF34F8F30BF62B6BFF36F8F704700BFD2
:10C1B00072B6494081F3118820BF80F3118862B6BE
:10C1C000704700BF37B505460C46C9B18B681048AB
:10C1D0000093D1E9002345210FF01FFD636945213C
:10C1E0000093D4E903230B480FF017FD4521E269C2
:10C1F00009480FF012FD4521A26908480FF00DFD16
:10C200002146284603B0BDE8304009F023BD00BFF9
:10C21000C4F50200F8F502002CF6020040F6020018
:10C2200043B2002B08DB012200F01F0002FA00F0ED
:10C23000024A5B0942F82300704700BF00E100E0BA
:10C2400043B2002B0DDB012200F01F0002FA00F0C8
:10C250005B09044A203342F82300BFF34F8FBFF33A
:10C260006F8F704700E100E0054B420953F8222030
:10C27000012300F01F0003FA00F01040704700BFD8
:10C2800000E100E038B54C1C072C054608D90D49E3
:10C290000D4857220FF010FB57210A480FF0A3FC5E
:10C2A0006BB2002BACBF03F16043084B4FEA441460
:10C2B000E4B2ABBF03F5614305F00F0583F800431B
:10C2C0005C5538BD73F6020070F4020014ED00E016
:10C2D00008B572B6044B9A691AB100229A6111F03E
:10C2E00067FB62B608BD00BF4CD4002030BFFFF72B
:10C2F000FDBF00BF0B4A08B50B4B22F07F029A60CE
:10C30000BFF34F8FBFF36F8FD3F8882022F47002F2
:10C31000C3F8882009F014FD0BF040FE00F0E0FAAD
:10C3200009F04EFD0082010000ED00E0094A0A49D3
:10C33000936809689867D96708494B6843F0805348
:10C340004B60002383F31188BFF36F8F9368D86F1E
:10C35000704700BF4CD400204CF0020000ED00E01C
:10C3600013498A684FF030001044EFF3098C80E8DD
:10C37000F01F202080F31288BFF36F8F0D4F4FF016
:10C380000066CA698A603E60906F0023936780F3FD
:10C39000118802F1300090E8F01F8CF3098802F157
:10C3A000000004B50FF075FDBDE8044070470000C3
:10C3B0004CD4002004ED00E01EF0040F0CBFEFF39E
:10C3C0000880EFF30980816911F8021C0229FFD06F
:10C3D00001B50FF04FFD01BD42F8203C009B0B4919
:10C3E00042F81C3C019B21F0010142F8183C029BE1
:10C3F00042F8081C42F8143C4FF0807342F8043CA9
:10C400000023203A02658367704700BF7BB90200B2
:10C41000084B9860836E83F30B88104681F309887C
:10C42000002163B681F31188BFF36F8F00220023D0
:10C430000FF0A3FA4CD4002001B572B60B4A9069F4
:10C4400000281EBF0021916111F0B2FA62B6EFF32D
:10C450000580A0F110004FEAC0000549014409C958
:10C460009847BDE801400349084700004CD400202C
:10C4700044E9020079C40100044B9968D8698842F4
:10C4800003D003494FF080520A6070474CD400201B
:10C4900004ED00E038B5214C452121480FF0BDFBEB
:10C4A000A36A9D0103D545211E480FF0B6FBA36A80
:10C4B000DC0103D545211C480FF0AFFB174DAC6ADA
:10C4C00014F4801404D0452118480FF0A6FB022470
:10C4D000AB6A180303D5452115480FF09EFB0F4D9D
:10C4E000AB6A590303D5452112480FF096FBAB6A9E
:10C4F0009A0303D5452110480FF08FFB074DAB6A17
:10C50000DB0303D545210D480FF087FBAB6A2046BE
:10C510006FEA03436FEA1343AB6238BD00ED00E0FE
:10C52000A9F60200C6F60200DEF60200FDF60200E1
:10C530002CF702004FF7020079F7020098F702008B
:10C5400070B5234C06460D46224845210FF065FB89
:10C55000A36AD90403D545211F480FF05EFBA36AE7
:10C560001A0503D545211D480FF057FB184CA36A47
:10C570009B0510D51A4845210FF04FFBA26BA36A0B
:10C58000180408D5452117480FF047FB1EB1A36AD0
:10C5900023F40043A3620E4CA36A590503D5452139
:10C5A00011480FF03AFBA36ADA050BD545210F4875
:10C5B0000FF033FB0020064A936A43F47F439362F3
:10C5C000287070BDA36A9B04F4D545210848EFE7A5
:10C5D00000ED00E0C8F70200E3F70200F9F70200FF
:10C5E00011F802002FF8020049F8020069F8020071
:10C5F00086F8020070B52B4C06460D462A484521A8
:10C600000FF00BFBA36AD80603D5452127480FF08E
:10C6100004FBA36A190703D5452125480FF0FDFA4D
:10C62000204CA36A9A0710D5452122480FF0F5FA4D
:10C63000626BA36A1B0608D545211F480FF0EDFA6F
:10C640001EB1A36A23F08003A362164CA36ADE071F
:10C6500003D5452119480FF0E0FAA36A980603D5DF
:10C66000452117480FF0D9FA0E4B9A6AD10602D429
:10C670009A6A92070DD59B6ADB060AD511491248C2
:10C6800040F24F120FF018F940F24F110D480FF021
:10C69000AAFA0020034A936A43F0FF0393622870CA
:10C6A00070BD00BF00ED00E0BAF80200D5F802004E
:10C6B000F9F702000DF902002AF9020045F902001B
:10C6C00086F8020069F9020070F402002DE9F043D7
:10C6D0006B4B0546D3F804808946144600278BB07F
:10C6E000C8F3080687F31188BFF36F8F02F07F430A
:10C6F000B3F17F4F11D1D0070FD4510603D42207D5
:10C7000008D4012708E045215E480FF086FA14F0AE
:10C71000040400D04D4600275DB94FF47C725A499D
:10C720005A480FF0C9F84FF47C7157480FF05BFA84
:10C7300000250024F31E8DF80740092B00F28D80A0
:10C74000DFE803F0058084688B8B8B8B8B884C4EE5
:10C7500045214F480FF061FA8DF80740F46A14F054
:10C76000020405D045214B480FF057FA002406E09B
:10C77000F36A002B23DA452147480FF04EFA9DF863
:10C780000730CBB902AA05F120061346286869686C
:10C79000083503C3B5421A46F7D1099B002F69D06B
:10C7A000C3F3080222B96FEA53236FEA43230993C4
:10C7B000204602A9FFF706FD0BB0BDE8F083F36A3F
:10C7C0005B0036D5452135480FF027FAAB6933F8C1
:10C7D000022C4DF602739A4206D145212A68304850
:10C7E0000FF01BFA2C68CAE796F8283033B1012005
:10C7F0000DF10701FFF7FEFE0446C0E796F8293069
:10C800002BB101200DF10701FFF79AFEF4E7738DBC
:10C810009BB213B1FFF73EFEEEE71B4940F2C22286
:10C820001A480FF049F840F2C22117480FF0DBF91F
:10C83000A5E7154940F2C62214480FF03DF840F232
:10C84000C621F2E700200DF10701D3E700200DF12A
:10C850000701D9E74521134886E7134918F4F87F03
:10C86000124A134808BF0A46A6F1100345210FF0EB
:10C87000D4F97BE723F4FF7323F0010397E700BFAC
:10C8800000ED00E0D1F9020069F9020070F4020045
:10C89000F9F9020015FA02003BFA02004EFA020012
:10C8A00072FA020093FA0200A3F90200B8F902003A
:10C8B000BCFA0200044B5A6942F010025A615A69EC
:10C8C00042F480625A61704700ED00E0EFF30880A7
:10C8D000EFF3098101B57246FFF7F8FE01BD00BF15
:10C8E000002320210348C2180133412B82F8001392
:10C8F000F9D1704700E100E0002080F31488BFF315
:10C900006F8F002080F30A8880F30B8811F07CFF82
:10C9100000200E490860BFF34F8F0D4880F3088850
:10C9200000F03EF8202080F311880A484FF400619F
:10C93000401880F30988EFF314800221084380F344
:10C940001488BFF36F8FFFF7D5FC000094ED00E073
:10C950004805012088060120BFF34F8F0549064B8B
:10C96000CA6802F4E0621343CB60BFF34F8F00BF8D
:10C97000FDE700BF00ED00E00400FA0500231846C3
:10C980000649D1F89020C2F30722934200D17047A4
:10C99000C1F89830C1F8A0000133F6E700ED00E0DF
:10C9A00010B572B6002484F31388FFF7E7FF23461F
:10C9B0004FF0FF300B4A03F120010133102B42F8F6
:10C9C0002100F8D100234FF0FF3003F16001013363
:10C9D000102B42F82100F8D162B6BFF34F8FBFF39E
:10C9E0006F8F10BD00E100E0064B9B68834207D1CA
:10C9F000EFF3058323B1044A536843F08053536037
:10CA00000BF0E0B94CD4002000ED00E01FB5094C5C
:10CA1000094A23460121094800F02CF90023039319
:10CA2000074B0121E41A01A80193029400F03EF99A
:10CA300004B010BD0000042000C5002038ED020045
:10CA4000F8CA002010B50B680C7A23F01F0204F01E
:10CA50001F031A43CB68640923F01F03054943EA07
:10CA6000440343F00103C1F89800C1F89C20C1F8C9
:10CA7000A03010BD00ED00E030B54B680C6885B00B
:10CA80000A894D890094013B24F01F04234402F0DD
:10CA90001F0242EA451223F01F030F2804468DF8B7
:10CAA0000820039309D90246452106480FF0B5F83E
:10CAB0006FF01504204605B030BD6946FFF7C2FF90
:10CAC000F8E700BFD8FA02002DE9F04F8946144676
:10CAD00006464FF00008584D85B0C84527DAD6F80D
:10CAE00004A0BAF1000F44D0BAF11F0F18D91AF000
:10CAF0001F0F15D1D6F800B01BF01F0F10D15846EC
:10CB00000FF0CDF907460AEB0B0001380FF0C7F91B
:10CB1000874210D06FF015073A464521474802E09A
:10CB20004246452146480FF078F86FF0150420463C
:10CB300005B0BDE8F08F17F1160FEDD0BC42EBDD6C
:10CB4000C5F89870D5F89C10C5F89870D5F8A03045
:10CB500021F01F0143F01F0BD6E900321A4499421D
:10CB600002F1FF3A1DD1D34507D13146F8B2FFF7A4
:10CB700083FF08F101080C36AFE73146C5F898701D
:10CB8000D5F89C3022F01F0203F01F031A43C5F8AA
:10CB90009C20E0B2FFF770FF10F1160FC5D0441CC7
:10CBA000E7E7013BD345E0B223F01F03C5F89870D7
:10CBB00008D1D5F8A020314602F01F021343C5F872
:10CBC000A030E7E7D5F8A01001F01F010B43C5F82E
:10CBD000A0303146FFF750FF10F1160FA5D0C5F871
:10CBE0009870D5F89C209DF808300BF1FF3B62F35C
:10CBF00004038DF80830D5F8A0309DF808205B08B4
:10CC000063F34712D6E900310B44009323F01F036E
:10CC100001305B44A3EB0A03C0B223F01F030F28CB
:10CC20008DF80820039303D90246452105487AE789
:10CC30006946FFF707FFB2E700ED00E02BFB0200BB
:10CC400003FB0200D8FA02000522044BC3F894202B
:10CC5000BFF34F8FBFF36F8F704700BF00ED00E051
:10CC6000BFF35F8F0022024BC3F89420704700BFD0
:10CC700000ED00E010B50A4C2278FFF725FF207088
:10CC800016300CD10749084840F211120EF014FE7C
:10CC9000BDE8104040F2111102480EF0A4BF10BDD3
:10CCA0000ED5002053FB020070F402002DE9F74F6F
:10CCB000304D8A4606464FF00008AB462E4FD04511
:10CCC00002DB03B0BDE8F08FD6F80490B9F1000F95
:10CCD0004AD03168084601910FF0E1F80199044605
:10CCE00009EB010001380FF0DAF884424FF014022A
:10CCF000224B13D06FF0150302FB08F84BF80830F5
:10CD000040F221121E491F480EF0D6FD40F22111BB
:10CD10001B4803B0BDE8F04F0EF065BF14F1160FCD
:10CD20002C60EDD01978A142EADD02FB08B0C7F80B
:10CD30009840C7F89840D7F89C4000F10801007B64
:10CD400064F304000871D7F8A0000C79400860F380
:10CD500047140C71D7F89C1021F01F016960D7F8B7
:10CD6000A01021F01F01296108F1010814350C36CB
:10CD7000A5E700BFF8CE002000ED00E00ED50020B2
:10CD800053FB020070F4020038B51D4D2C68102CC6
:10CD90000DD94FF4A4721B491B480EF08DFD1948A4
:10CDA0004FF4A4710EF01FFF4FF0FF3038BD00208C
:10CDB000FFF756FF154B164AC3F8C020844217D11F
:10CDC000144B1C70FFF740FF104BD3F89030C3F3A7
:10CDD0000723102B0AD00B490B484FF4D6720EF0E4
:10CDE0006BFD4FF4D67107480EF0FDFE0020DDE725
:10CDF000696801EB0011FFF725FE0130DEE700BF97
:10CE000044ED020053FB020070F4020000ED00E06C
:10CE1000AAFF44000ED5002008B5094BC3F100530A
:10CE200003F58023B3F5006F08D206490648812236
:10CE30000EF042FD812103480EF0D5FE002008BD12
:10CE4000402601208AFB020070F40200014B1860AA
:10CE5000704700BF90C50020F8B506460D46002477
:10CE6000064FAC4208DA3B6898470A28305504F16F
:10CE7000010401D00D28F4D12046F8BD8CC5002056
:10CE8000F8B50D46094F461EC0F10104A3199D4295
:10CE900001DC2846F8BD73780A2B02D10D203B68CF
:10CEA00098473B6816F8010F9847EFE790C50020B8
:10CEB00008B505210148FFF7E3FFFEE7BAFB0200D2
:10CEC00010B5074C2368C2180648C0F1005101F59F
:10CED00080218A422EBF4FF0FF30C018226010BD63
:10CEE0000CCF00204026012010B5044650B910494F
:10CEF000104840F277120EF0DFFC40F277110C4838
:10CF00000EF071FE14200BF0E3FF206050B90849C9
:10CF1000084840F27F120EF0CFFC40F27F11044827
:10CF20000EF061FE2068BDE8104010F050BD00BF5B
:10CF30008AFB020070F4020010B5044650B90A4999
:10CF40000A4840F29D120EF0B7FC40F29D110648CF
:10CF50000EF049FE4FF0FF322046BDE810404FF082
:10CF6000FF3309F0A9BC00BF8AFB020070F4020085
:10CF700010B5044650B90A490A484FF4D2720EF06F
:10CF80009BFC4FF4D27106480EF02DFE4FF0FF329D
:10CF90002046BDE810404FF0FF3309F005BA00BF4E
:10CFA0008AFB020070F4020010B5044650B908492B
:10CFB000084840F2B9120EF07FFC40F2B911044863
:10CFC0000EF011FE2046BDE8104009F03BBC00BF4A
:10CFD0008AFB020070F4020010B5044650B90849FB
:10CFE00008484FF4E0720EF067FC4FF4E07104481B
:10CFF0000EF0F9FD2046BDE8104009F0A7BA00BFC9
:10D000008AFB020070F4020008B51D210448FFF7F6
:10D0100037FF404080F311884FF0030002DF00BF6C
:10D02000C0FB020010B501F0E9FB041E0ADA22463B
:10D03000452114480EF0F1FD2246452112480EF01C
:10D04000ECFD1DE004D0572110480EF0E6FDF3E79B
:10D050000F4808F0A9FA30B145210E480EF0DDFD69
:10D060006FF00404E8E70C4808F09EFA10B145217F
:10D070000A48F3E70A4808F097FA04460028F6D170
:10D08000204610BDEDFB020037FD02001FFC020030
:10D0900065FC020077FC0200A5FC020003FD020013
:10D0A0001EFD020010B5044650B90B490B484FF461
:10D0B000F9720EF001FC4FF4F97107480EF093FD80
:10D0C00023680C33D3E8EF2F42F00102C3E8E12FCD
:10D0D0000029F7D110BD00BF84FD020070F40200EA
:10D0E00002460B46014809F05FB900BF4CCA002058
:10D0F000014809F02BBA00BF4CCA002038B50546DC
:10D100004FF0FF314FF0FF30FFF7EAFF00212846D4
:10D110000EF0FCFE044648BB2B6828469B7E2BB1D4
:10D12000FFF7C0FFFFF7E4FF204638BD0EF0E9FE31
:10D13000044630B1846824B101212846A047041E6A
:10D14000F0DB2B681B6953B90A490B4840F6CA72D9
:10D150000EF0B2FB40F6CA7106480EF044FD2846B8
:10D16000FFF7A0FF28460EF0DAFEDBE76FF077044A
:10D17000D8E700BFACFD020070F40200F8B54FF034
:10D18000FF304FF0FF31FFF7ABFF114C114D124F45
:10D19000AC4226460AD93946104841F2E5020EF063
:10D1A0008BFB41F2E50138460EF01DFDAC4203D386
:10D1B000BDE8F840FFF79CBF336804341B689B68E8
:10D1C000002BE5D01B68002BE2D030469847DFE704
:10D1D000D8CA0020DCCA0020ACFD020070F40200B6
:10D1E00070B50E4C0E4D0F4EAC420AD931460E486A
:10D1F00041F217120EF060FB41F2171130460EF0AB
:10D20000F2FCAC4200D370BD032120460EF07EFE3E
:10D2100010B92046FFF772FF0434E5E7D8CA0020B2
:10D22000DCCA0020ACFD020070F4020037B54023D8
:10D230000C460A490093411A491105462346084AFB
:10D2400008480EF08BFE011E05DA2846234603B07F
:10D25000BDE83040184703B030BD00BF24CF0020E8
:10D26000CBBF0200B4E8020038B5CCB2012C0546B1
:10D2700008D90849084879220EF01EFB7921054893
:10D280000EF0B1FC0C23296904FB0314A06C00F020
:10D29000070038BDD6FD020070F40200F8B5CCB22C
:10D2A000012C0546174606690AD91849184840F264
:10D2B0004D120EF001FB40F24D1114480EF093FC9C
:10D2C0004FF02003EFF3118183F31288BFF36F8FC8
:10D2D0000C2202FB04639B6C13F0C00301D09F423D
:10D2E00011D10123002002FB0466B36481F311888D
:10D2F000BFF36F8F30B90C23696803FB04146368B4
:10D3000098470020F8BD4FF0FF30EFE7D6FD020050
:10D3100070F4020070B50D4606490446411A4911E1
:10D3200040220548FFF7BAFF2B4601462046BDE8DC
:10D330007040184724CF0020B4E8020070B50022E6
:10D34000012104460520FEF79DFF0520FEF768FF3A
:10D350000F4804F049F90F4B984215D104F064F9D5
:10D3600026690D4930460EF0F5FA00280BDB012541
:10D3700024690949B56404F120000EF0EBFA002895
:10D3800001DB0020656570BD6FF00400FBE700BFA6
:10D39000D1D301000000AD0B9CED020001460C232F
:10D3A00000224B43084870B5C4184833D4E91056DE
:10D3B000184422640EF0BFFD2DB132462B46BDE865
:10D3C00070400248184770BD24CF0020B4E8020026
:10D3D000012808B506D0032808D0A0B90F4B9B6CD4
:10D3E0005B0719D1BDE80840FFF7D8BF0C4940F2F0
:10D3F0005E220C480EF060FA40F25E21BDE8084063
:10D4000007480EF0F0BB064940F2622205480EF0D4
:10D4100053FA40F26221F1E708BD00BF24CF00209B
:10D42000D6FD020070F4020008B54FF02003EFF3C0
:10D43000118183F31288BFF36F8F114A136843F091
:10D44000020013F0010310600BD00E4AD2F80C3426
:10D45000D2F80C2413F0010303D00B480EF06BFD3F
:10D46000012381F31188BFF36F8F23B1BDE808401A
:10D470000020FFF793BF0120BDE8084004F0F2B898
:10D480007CCF0020005000406CCF00207FB50022F0
:10D490000123CDE9022304ABCDE90433094A6B46ED
:10D4A000CDF800D0CDF804D00EF088FD002805DBC3
:10D4B0004FF480420023684609F0FEF907B05DF89A
:10D4C00004FB00BFE9BF0200074BD3E8EF2F22F0B7
:10D4D0000201C3E8E01F0028F7D1D30702D40120DE
:10D4E00004F00CB9704700BF7CCF00202DE9F0415B
:10D4F000012206464249D1E8EF3FC1E8E02F00286B
:10D50000F9D19BB93F4940484B60CB608A60FDF739
:10D51000FBFB00280ADA3D493D484FF408720EF043
:10D52000CBF94FF4087139480EF05DFB86B3731EDA
:10D53000012B52D8012E06D1364BD3F81C3403F000
:10D540000303022B24D010F026FA044618B9324BFC
:10D550001B78002B4ED14FF02003EFF3118783F39C
:10D560001288BFF36F8F01242A4DDFF8B080D5F801
:10D570001834D5F81824D2030CD503F00303022B7A
:10D5800001D0012E06D124B387F31188BFF36F8F2A
:10D59000BDE8F081C4B13846FEF70AFED5F818356B
:10D5A000DBB2012BE3D1D5F80421002ADFD0002221
:10D5B000C5F80421D5F804210222C5F81825202237
:10D5C000C8F88021AB60D2E7002121200AF0B4FB2B
:10D5D000E4E70223C5F80433DAE70C490C4840F2CB
:10D5E00032220EF069F9BDE8F04140F232210748DD
:10D5F0000EF0F9BA0222074B0746C3F80823B3E737
:10D6000080CF002014CF002044CF0020D6FD0200A0
:10D6100070F40200005000408DDB002000E100E0CB
:10D6200010B5044C2046FDF77BF92046FFF70EFCB1
:10D63000002010BD39D60100F7B504460325134E6E
:10D640008DF80700EFF311874FF0200181F3118867
:10D6500001220DF10701002005F09CFC87F31188E1
:10D6600020B101233370204603B0F0BD3378002B86
:10D67000F9D0013D08D010F08EF90028E2D1002148
:10D6800042200AF059FBDDE73570ECE70FD50020AA
:10D6900070B516460C46056941B91E491E4824223C
:10D6A0000EF00AF924211B480EF09DFA636843B975
:10D6B0001849194825220EF0FFF8252115480EF0CB
:10D6C00092FA6B685BB100229C4212D12368A96870
:10D6D00052B9A1426B6000D1AB60002323606EB9E8
:10D6E000002070BD0B46EFE7A142136008BFAA609F
:10D6F000F3E719681A460029F4D13EB16B68A868AF
:10D7000023606C600028EBD1AC60EAE76FF0150095
:10D71000E7E700BF33FE020070F402007FB5406807
:10D7200001F01F04057BB2F5005F44EA45144FF099
:10D73000000504D1204604F02DFB00204BE0B2F59B
:10D74000804FCDE9025548D1B3F5003F0CBF04230B
:10D7500005238DF80830836823FA01F1C90748D4FE
:10D76000B2F5A03F45D166090CBF4FF0FF3300234F
:10D7700004F01F05EB40DA070AD42649264840F298
:10D7800029220EF099F840F2292122480EF02BFAB6
:10D7900056B12049204840F22E220EF08DF840F27A
:10D7A0002E211C480EF01FFA1C4B803553F82530F3
:10D7B000DB071ED40DF107052946204604F018FAB0
:10D7C000174B984214D1284604F072FA154B984230
:10D7D0000ED06FF00B0004B070BDB3F5C02F05D0B4
:10D7E000B3F5003F0CBF02230123B2E70323B0E7E8
:10D7F000039500232046194602AA04F0CFF8094BEE
:10D80000984204D10121204604F058FA95E76FF0C0
:10D810000400E0E760FE020070F40200002584408E
:10D820000400AD0B0000AD0B10B504F031FA044656
:10D8300068B904F005FA084B98420AD12146074816
:10D8400004F0D0F9224605213120FEF71BFD00200F
:10D8500010BD6FF00400FBE70000AD0B61D80100C4
:10D860002DE9F843430922D1124B5C68FCB1012633
:10D870002568DFF84480114FDFF844908640A368A4
:10D880001E4210D0636843B93946484645220EF01F
:10D8900013F8452138460EF0A6F9D4E901322146A5
:10D8A00040463240984715B12C462D68E7E7BDE861
:10D8B000F88300BF84CF0020CCE8020033FE0200D2
:10D8C00070F402002DE9F043476801F01F053B7B2F
:10D8D0000E46144685B045EA4315CAB902A9284642
:10D8E00004F086F90446284604F07EFA474B984235
:10D8F00004D06FF0040005B0BDE8F083844205D188
:10D900009DF8080004F0CEF9A042F2D10020F2E721
:10D910004FF000090DF103013046CDE9029904F002
:10D9200067F94B4680464946284602AA04F036F875
:10D93000364B984202D06FF01500DCE7804503D1EA
:10D940009DF8030004F0AEF9A3054CD5304B314AE5
:10D950002340934239D00CD8062B14D004D893B16D
:10D96000022BE8D104230EE0B3F5801FE3D101239D
:10D9700009E0294A93422AD0B3F5A00F29D0B3F584
:10D98000800FD8D102238DF8043084F48073C3F360
:10D990000023E0068DF805304CBF0323C4F3401389
:10D9A00021058DF8063016D501217B6801FA06F6AF
:10D9B0009E600022284601A904F09CF8134B98426F
:10D9C00014BF6FF01500002095E70723DBE7052360
:10D9D000D9E70323D7E7620541BF01217B6801FA3C
:10D9E00006F6DE60E5E7E3064FF000034CBF0324D4
:10D9F000C4F340141A46284601A98DF8044003F0E8
:10DA0000CDFF024B984281D095E700BF0000AD0BDF
:10DA10000600F000060010000200400008B503698F
:10DA2000D3E90C0105F022FA034B984214BF6FF0C2
:10DA30000F00002008BD00BF0000AD0B38B5056920
:10DA400004462B460A4A406805F1300104F006FE00
:10DA5000084B984207D00848452122680EF0DDF8AF
:10DA60006FF0040038BD0123002085F84030F9E74D
:10DA7000D9DA01000000AD0B9EFE020038B5CB07DD
:10DA8000044609D4C1F34201012908D002291BD060
:10DA9000452110480EF0C1F86FF0150038BD4FF069
:10DAA000CC732569AA6B934211D0AB6395F84030D3
:10DAB0002BB1606804F09EFE002385F840302046BC
:10DAC000BDE83840FFF7BABF4FF0C863E9E7002070
:10DAD000E4E700BFC3FE02000378012B08D0022B4D
:10DAE00008D04BB9054B4B6401F1180008F0AABEF1
:10DAF000034BF8E7034BF6E7034BF4E70000AD0BED
:10DB00000100AE0B0200AE0B0100AD0B2DE9F04F92
:10DB10001D46D0F804808DB00669B8F8083003922D
:10DB200007460C461422002107A80293D6F848A005
:10DB300010F0F6F896F840308DF81D50C3B14FF054
:10DB4000FF324FF0FF33304608F0B6FE06F1180BF7
:10DB50004FF0000900220023584608F0ADFE404671
:10DB600004F0ECFD4D46039B994509D3002430E0B9
:10DB70003846FFF763FF0028E1DA6FF004042EE077
:10DB8000217A0B0700F1B980039A09F1010393424E
:10DB900004930AD2880708D4237D81EA030202F0A5
:10DBA000010203F0040313431DD085B30023626810
:10DBB000DDF808C0A818604517D93B6845210193D6
:10DBC0004F481346CDF800C02A460EF026F86FF0F5
:10DBD0001B04404604F0DAFD304608F033FE2046D0
:10DBE0000DB0BDE8F08F0123E1E7C90706D4216835
:10DBF0000AEB0500059310F086F8059B6268154452
:10DC0000ADB2002B3AD0DDF810900C34ABE7CA0768
:10DC10001DD5002523680A9363680893237A40463C
:10DC200003F0010213F0020F8DF81C2007A90CBFAE
:10DC30002022002204F02EFE324B984224D00B33D7
:10DC400098420CBF6FF00F046FF00404C1E7216825
:10DC500001F06043B3F1005FDBD06268B8F80A30CE
:10DC6000934207D245213B6827480DF0D6FF6FF05D
:10DC70001504AEE7504610F046F8A588002DC8D030
:10DC8000CDF828A00895C9E74FF4804200235846F4
:10DC900008F012FE70B145214A461C480DF0BDFF48
:10DCA000404604F073FDD6E90C0105F0DFF86FF093
:10DCB00004048EE7726C134B9A4205D04B46452103
:10DCC00013480DF0AAFFF2E7237ADB0701D4002501
