:020000021000EC
:1082000078040120C1C7010097AE020095C70100A4
:1082100095C7010095C7010095C7010095C70100EA
:108220000000000000000000000000006DC201001E
:1082300095C701000000000015C2010095C70100AC
:10824000EDC20100EDC20100EDC20100EDC201006E
:10825000EDC20100EDC20100EDC20100EDC201005E
:10826000EDC20100EDC20100EDC20100EDC201004E
:10827000EDC20100EDC20100EDC20100EDC201003E
:10828000EDC20100EDC20100EDC20100EDC201002E
:10829000EDC20100EDC20100EDC20100EDC201001E
:1082A000EDC20100EDC20100EDC20100EDC201000E
:1082B00021E60100EDC20100EDC20100EDC20100A6
:1082C000EDC20100EDC20100EDC20100EDC20100EE
:1082D000EDC20100EDC20100EDC20100EDC20100DE
:1082E000EDC20100EDC20100EDC20100EDC20100CE
:1082F000EDC20100EDC20100EDC20100EDC20100BE
:10830000EDC20100EDC20100EDC20100EDC20100AD
:10831000EDC20100EDC20100EDC20100EDC201009D
:10832000EDC20100EDC20100EDC20100EDC201008D
:10833000EDC20100EDC20100EDC20100EDC201007D
:10834000EDC201000000000000000000000000007D
:10835000000000000000000000000000000000001D
:10836000000000000000000000000000000000000D
:1083700000000000000000000000000000000000FD
:1083800000000000000000000000000000000000ED
:1083900000000000000000000000000000000000DD
:1083A00000000000000000000000000000000000CD
:1083B00000000000000000000000000000000000BD
:1083C00000000000000000000000000000000000AD
:1083D000000000000000000000000000000000009D
:1083E000000000000000000000000000000000008D
:1083F000000000000000000000000000000000007D
:10840000DEE61E284CBBCE8F025B00003C00000065
:10841000DC920100010000000082010000820100E6
:10842000FFFF0291000000000000000000000000BB
:0C84300000000000000000000000000040
:04843C00FFFFFFFF40
:108440004FF0FF0C1CEAD0521EBF1CEAD15392EA37
:108450000C0F93EA0C0F6FD01A4480EA010C400213
:1084600018BF5FEA41211ED04FF0006343EA50106D
:1084700043EA5111A0FB01310CF00040B1F5000FAF
:108480003EBF490041EAD3715B0040EA010062F15E
:108490007F02FD2A1DD8B3F1004F40EBC25008BF48
:1084A00020F00100704790F0000F0CF0004C08BF66
:1084B00049024CEA502040EA51207F3AC2BFD2F133
:1084C000FF0340EAC250704740F400004FF0000341
:1084D000013A5DDC12F1190FDCBF00F0004070477B
:1084E000C2F10002410021FA02F1C2F1200200FAB9
:1084F00002FC5FEA310040F1000053EA4C0308BF80
:1085000020EADC70704792F0000F00F0004C02BFD0
:10851000400010F4000F013AF9D040EA0C0093F04B
:10852000000F01F0004C02BF490011F4000F013BA5
:10853000F9D041EA0C018FE70CEAD15392EA0C0F13
:1085400018BF93EA0C0F0AD030F0004C18BF31F07E
:10855000004CD8D180EA010000F00040704790F054
:10856000000F17BF90F0004F084691F0000F91F0F8
:10857000004F14D092EA0C0F01D142020FD193EABE
:108580000C0F03D14B0218BF084608D180EA010046
:1085900000F0004040F0FE4040F40000704740F022
:1085A000FE4040F44000704781F0004102E000BF0F
:1085B00083F0004330B54FEA41044FEA430594EAA3
:1085C000050F08BF90EA020F1FBF54EA000C55EADE
:1085D000020C7FEA645C7FEA655C00F0E2804FEAAF
:1085E0005454D4EB5555B8BF6D420CDD2C4480EA91
:1085F000020281EA030382EA000083EA010180EAC1
:10860000020281EA0303362D88BF30BD11F0004F0E
:108610004FEA01314FF4801C4CEA113102D0404244
:1086200061EB410113F0004F4FEA03334CEA13337F
:1086300002D0524263EB430394EA050F00F0A78097
:10864000A4F10104D5F1200E0DDB02FA0EFC22FA92
:1086500005F2801841F1000103FA0EF2801843FA86
:1086600005F359410EE0A5F120050EF1200E012A77
:1086700003FA0EFC28BF4CF0020C43FA05F3C018B5
:1086800051EBE37101F0004507D54FF0000EDCF12E
:10869000000C7EEB00006EEB0101B1F5801F1BD3D7
:1086A000B1F5001F0CD349085FEA30004FEA3C0CDB
:1086B00004F101044FEA445212F5800F80F09A80D1
:1086C000BCF1004F08BF5FEA500C50F1000041EBD5
:1086D000045141EA050130BD5FEA4C0C404141EBD9
:1086E0000101013C28BFB1F5801FE9D291F0000FD4
:1086F00004BF01460020B1FA81F308BF2033A3F183
:108700000B03B3F120020CDA0C3208DD02F1140C79
:10871000C2F10C0201FA0CF021FA02F10CE002F1B4
:108720001402D8BFC2F1200C01FA02F120FA0CFCAD
:10873000DCBF41EA0C019040E41AA2BF01EB0451F6
:10874000294330BD6FEA04041F3C1CDA0C340EDCF4
:1087500004F11404C4F1200220FA04F001FA02F337
:1087600040EA030021FA04F345EA030130BDC4F1F5
:108770000C04C4F1200220FA02F001FA04F340EAEA
:108780000300294630BD21FA04F0294630BD94F09B
:10879000000F83F4801306BF81F480110134013D82
:1087A0004EE77FEA645C18BF7FEA655C29D094EAF3
:1087B000050F08BF90EA020F05D054EA000C04BF71
:1087C0001946104630BD91EA030F1EBF002100205C
:1087D00030BD5FEA545C05D14000494128BF41F0FB
:1087E000004130BD14F580043CBF01F5801130BD5F
:1087F00001F0004545F0FE4141F470014FF00000EA
:1088000030BD7FEA645C1ABF194610467FEA655C9A
:108810001CBF0B46024650EA013406BF52EA03353C
:1088200091EA030F41F4002130BD00BF90F0000F2A
:1088300004BF0021704730B54FF4806404F1320466
:108840004FF000054FF0000150E700BF90F0000F1F
:1088500004BF0021704730B54FF4806404F1320446
:1088600010F0004548BF40424FF000013EE700BF16
:1088700042004FEAE2014FEA31014FEA02701FBFA6
:1088800012F07F4393F07F4F81F06051704732F0D8
:108890007F4208BF704793F07F4F04BF41F400212F
:1088A000704730B54FF4607401F0004521F000418D
:1088B0001CE700BF50EA010208BF704730B54FF017
:1088C00000050AE050EA010208BF704730B511F018
:1088D000004502D5404261EB41014FF4806404F150
:1088E00032045FEA915C3FF4D8AE4FF003025FEAD6
:1088F000DC0C18BF03325FEADC0C18BF033202EB5A
:10890000DC02C2F1200300FA03FC20FA02F001FAB3
:1089100003FE40EA0E0021FA02F11444BDE600BF56
:1089200070B54FF0FF0C4CF4E06C1CEA11541DBF05
:108930001CEA135594EA0C0F95EA0C0F00F0DEF8D0
:108940002C4481EA030621EA4C5123EA4C5350EAB5
:10895000013518BF52EA033541F4801143F4801306
:1089600038D0A0FB02CE4FF00005E1FB02E506F097
:108970000042E0FB03E54FF00006E1FB03569CF0EC
:10898000000F18BF4EF0010EA4F1FF04B6F5007FF2
:1089900064F5407404D25FEA4E0E6D4146EB060664
:1089A00042EAC62141EA55514FEAC52040EA5E50ED
:1089B0004FEACE2EB4F1FD0C88BFBCF5E06F1ED897
:1089C000BEF1004F08BF5FEA500E50F1000041EBCE
:1089D000045170BD06F0004646EA010140EA02007B
:1089E00081EA0301B4EB5C04C2BFD4EB0C0541EA9D
:1089F000045170BD41F480114FF0000E013C00F3B2
:108A0000AB8014F1360FDEBF002001F0004170BDD5
:108A1000C4F10004203C35DA0C341BDC04F11404EE
:108A2000C4F1200500FA05F320FA04F001FA05F27A
:108A300040EA020001F0004221F0004110EBD37047
:108A400021FA04F642EB06015EEA430E08BF20EA73
:108A5000D37070BDC4F10C04C4F1200500FA04F316
:108A600020FA05F001FA04F240EA020001F00041A8
:108A700010EBD37041F100015EEA430E08BF20EA1B
:108A8000D37070BDC4F1200500FA05F24EEA020E63
:108A900020FA04F301FA05F243EA020321FA04F092
:108AA00001F0004121FA04F220EA020000EBD37049
:108AB0005EEA430E08BF20EAD37070BD94F0000F49
:108AC0000FD101F00046400041EB010111F4801F7D
:108AD00008BF013CF7D041EA060195F0000F18BF2E
:108AE000704703F00046520043EB030313F4801F6A
:108AF00008BF013DF7D043EA0603704794EA0C0F24
:108B00000CEA135518BF95EA0C0F0CD050EA410639
:108B100018BF52EA4306D1D181EA030101F00041B6
:108B20004FF0000070BD50EA410606BF10461946DE
:108B300052EA430619D094EA0C0F02D150EA0136EA
:108B400013D195EA0C0F05D152EA03361CBF10462B
:108B500019460AD181EA030101F0004141F0FE41CA
:108B600041F470014FF0000070BD41F0FE4141F44E
:108B7000780170BD70B54FF0FF0C4CF4E06C1CEA4E
:108B800011541DBF1CEA135594EA0C0F95EA0C0F03
:108B900000F0A7F8A4EB050481EA030E52EA0335BE
:108BA0004FEA013100F088804FEA03334FF08055DF
:108BB00045EA131343EA12634FEA022245EA11150C
:108BC00045EA10654FEA00260EF000419D4208BFBD
:108BD000964244F1FD0404F5407402D25B084FEA6A
:108BE0003202B61A65EB03055B084FEA32024FF416
:108BF00080104FF4002CB6EB020E75EB030E22BF73
:108C0000B61A754640EA0C005B084FEA3202B6EB32
:108C1000020E75EB030E22BFB61A754640EA5C00E1
:108C20005B084FEA3202B6EB020E75EB030E22BF71
:108C3000B61A754640EA9C005B084FEA3202B6EB72
:108C4000020E75EB030E22BFB61A754640EADC0031
:108C500055EA060E18D04FEA051545EA16754FEA93
:108C600006164FEAC30343EA52734FEAC2025FEAB1
:108C70001C1CC0D111F4801F0BD141EA00014FF040
:108C800000004FF0004CB6E711F4801F04BF014311
:108C90000020B4F1FD0C88BFBCF5E06F3FF6AFAE2D
:108CA000B5EB030C04BFB6EB020C5FEA500C50F1BD
:108CB000000041EB045170BD0EF0004E4EEA113140
:108CC00014EB5C04C2BFD4EB0C0541EA045170BD47
:108CD00041F480114FF0000E013C90E645EA060E8B
:108CE0008DE60CEA135594EA0C0F08BF95EA0C0FB9
:108CF0003FF43BAF94EA0C0F0AD150EA01347FF401
:108D000034AF95EA0C0F7FF425AF104619462CE7D7
:108D100095EA0C0F06D152EA03353FF4FDAE10463A
:108D2000194622E750EA410618BF52EA43067FF48B
:108D3000C5AE50EA41047FF40DAF52EA43057FF41B
:108D4000EBAE12E74FEA4102B2F1E04324BFB3F5C4
:108D5000001CDCF1FE5C0DD901F0004C4FEAC002B2
:108D60004CEA5070B2F1004F40EB830008BF20F096
:108D70000100704711F0804F21D113F13872BCBF50
:108D800001F00040704741F480114FEA5252C2F1A5
:108D90001802C2F1200C10FA0CF320FA02F018BFEE
:108DA00040F001004FEAC1234FEAD32303FA0CFC41
:108DB00040EA0C0023FA02F34FEA4303CCE77FEAD0
:108DC000625307D150EA01331EBF4FF0FE4040F41A
:108DD0004000704701F0004040F0FE4040F40000C9
:108DE000704700BF80F0004002E000BF81F000410A
:108DF00042001FBF5FEA410392EA030F7FEA226C41
:108E00007FEA236C6AD04FEA1262D2EB1363C1BFD0
:108E1000D218414048404140B8BF5B42192B88BF3F
:108E2000704710F0004F40F4000020F07F4018BF62
:108E3000404211F0004F41F4000121F07F4118BF82
:108E4000494292EA030F3FD0A2F1010241FA03FC2A
:108E500010EB0C00C3F1200301FA03F100F0004312
:108E600002D5494260EB4000B0F5000F13D3B0F1DA
:108E7000807F06D340084FEA310102F10102FE2A49
:108E800051D2B1F1004F40EBC25008BF20F00100B9
:108E900040EA03007047490040EB0000013A28BF58
:108EA000B0F5000FEDD2B0FA80FCACF1080CB2EBDB
:108EB0000C0200FA0CF0AABF00EBC2505242184359
:108EC000BCBFD0401843704792F0000F81F40001FE
:108ED00006BF80F400000132013BB5E74FEA4103D1
:108EE0007FEA226C18BF7FEA236C21D092EA030F3D
:108EF00004D092F0000F08BF0846704790EA010FB7
:108F00001CBF0020704712F07F4F04D1400028BFE3
:108F100040F00040704712F100723CBF00F50000C5
:108F2000704700F0004343F0FE4040F400007047FB
:108F30007FEA226216BF08467FEA236301464202A7
:108F400006BF5FEA412390EA010F40F480007047BA
:108F50004FF0000304E000BF10F0004348BF404260
:108F60005FEA000C08BF704743F0964301464FF09C
:108F700000001CE050EA010208BF70474FF00003F8
:108F80000AE000BF50EA010208BF704711F0004339
:108F900002D5404261EB41015FEA010C02BF844609
:108FA0000146002043F0B64308BFA3F18053A3F568
:108FB0000003BCFA8CF2083AA3EBC25310DB01FAAF
:108FC00002FC634400FA02FCC2F12002BCF1004F33
:108FD00020FA02F243EB020008BF20F001007047C4
:108FE00002F1200201FA02FCC2F1200250EA4C0018
:108FF00021FA02F243EB020008BF20EADC7070475E
:109000007BB972B90029BEBF00204FF0004106E0D5
:1090100008BF00281CBF6FF000414FF0FF3000F088
:10902000BBB9ADF1080C6DE904CE002909DB002BBA
:109030001ADB00F04DF8DDF804E0DDE9022304B0AE
:109040007047404261EB4101002B1BDB00F040F810
:10905000DDF804E0DDE9022304B0404261EB4101A8
:10906000524263EB43037047524263EB430300F009
:109070002FF8DDF804E0DDE9022304B0404261EBA3
:1090800041017047524263EB430300F021F8DDF8E1
:1090900004E0DDE9022304B0524263EB430370476E
:1090A00053B94AB9002908BF00281CBF4FF0FF314F
:1090B0004FF0FF3000F070B9ADF1080C6DE904CE4F
:1090C00000F006F8DDF804E0DDE9022304B07047A3
:1090D0002DE9F047089E0D4604468A46002B7FD1B5
:1090E0008A42174641D9B2FA82F24AB1C2F120014E
:1090F00005FA02F39740944020FA01F141EA030A8D
:109100004FEA17484FEA144C1FFA87F9BAFBF8FEEA
:1091100008FB1EA30EFB09F14CEA0343994206D952
:10912000FB1802D2994200F224810EF1FF3E591A37
:10913000A3B2B1FBF8F008FB101100FB09F943EAF8
:109140000144A14505D93C1902D2A14500F20E8186
:109150000138A4EB090440EA0E4000211EB1D440BE
:109160000023C6E90043BDE8F08702B9FFDEB2FA8A
:1091700082F2002A4FD1CB1B4FEA174E1FFA87F815
:109180000121250CB3FBFEFC0EFB1C302B4608FB1B
:109190000CF945EA0045A9450AD97D192CBF0123E0
:1091A0000023A94502D9002B00F0D9800CF1FF3C27
:1091B000A5EB0905A3B2B5FBFEF00EFB105508FBAD
:1091C00000F843EA0544A04505D93C1902D2A04560
:1091D00000F2C9800138A4EB080440EA0C40BDE766
:1091E0008B4208D9002E00F0B1800021C6E90005AD
:1091F0000846BDE8F087B3FA83F1002946D1AB42B7
:10920000C0F0A780824240F2A4800846002EAAD077
:10921000C6E9004AA7E7C2F12000974001FA02F32D
:109220004FEA174EC14024FA00F51FFA87F8944020
:109230001D43B1FBFEF02B0C0EFB101100FB08FCD4
:1092400043EA01439C4509D9FB182CBF01210021A9
:109250009C4502D9002900F095800138A3EB0C034E
:10926000ADB2B3FBFEF10EFB113301FB08FC45EA86
:109270000345AC4505D97D1902D2AC4500F2898081
:109280000139A5EB0C0341EA00417AE7C1F1200462
:109290008B4002FA01F705FA01FCE24020FA04F8DB
:1092A000E54000FA01FE134348EA0C024FEA134876
:1092B0004FEA124C1FFA83F9B5FBF8FA08FB1A556E
:1092C0000AFB09F04CEA054C60450AD913EB0C0C7B
:1092D0002CBF01250025604501D9002D55D00AF18C
:1092E000FF3AACEB000C92B2BCFBF8F008FB10CCE0
:1092F00000FB09F942EA0C4CE14505D913EB0C0CD3
:1093000001D2E1453BD8013840EA0A40ACEB090CF8
:10931000A0FB0789CC4545464A4602D306D1C6453F
:1093200004D20138B8EB070569EB03022EB3BEEB9C
:1093300005036CEB020C23FA01F20CFA04F42CFA8C
:1093400001F300211443C6E900430CE731463046DF
:1093500009E7841A65EB030301209A4656E7ACF14E
:10936000020C3D4424E702383C4434E702383C44D4
:10937000EFE6AEF1020E3B44D9E63146F3E60238A1
:109380009C44C1E702383B4468E7AAF1020A9C44C6
:10939000A7E702393D4474E7704700BF4FF0FF3C38
:1093A00006E000BF4FF0010C02E000BF4FF0010CDF
:1093B0004DF804CD4FEA410C7FEA6C5C4FEA430C58
:1093C00018BF7FEA6C5C1BD001B050EA410C0CBFA7
:1093D00052EA430C91EA030F02BF90EA020F002009
:1093E000704710F1000F91EA030F58BF994208BF70
:1093F00090422CBFD8176FEAE37040F0010070472D
:109400004FEA410C7FEA6C5C02D150EA013C07D183
:109410004FEA430C7FEA6C5CD6D152EA033CD3D0CE
:109420005DF8040B704700BF8446104662468C46C8
:109430001946634600E000BF01B5FFF7B7FF0028FB
:1094400048BF10F1000F01BD4DF808EDFFF7F4FF24
:109450000CBF012000205DF808FB00BF4DF808EDAF
:10946000FFF7EAFF34BF012000205DF808FB00BFD2
:109470004DF808EDFFF7E0FF94BF012000205DF8F4
:1094800008FB00BF4DF808EDFFF7CEFF94BF0120A9
:1094900000205DF808FB00BF4DF808EDFFF7C4FFA2
:1094A00034BF012000205DF808FB00BF4FEA410CEB
:1094B0007FEA6C5C02D150EA013C0AD14FEA430CCE
:1094C0007FEA6C5C02D152EA033C02D14FF000000B
:1094D00070474FF0010070474FEA410212F5001249
:1094E00015D211D56FF47873B3EB625212D94FEAEB
:1094F000C12343F0004343EA505311F0004F23FAD5
:1095000002F018BF404270474FF00000704750EA29
:10951000013005D111F0004008BF6FF000407047E6
:109520004FF00000704700BF10F8012B11F8013B0D
:10953000012A28BF9A42F7D0D01A7047034613F881
:10954000012B002AFBD1181A0138704700000000D7
:109550002DE9F04304469BB00F4616460021302209
:1095600002A813F043FB002C00F08780002E00F0CF
:1095700084801B238DF8083013F07DFA4FF47A7342
:109580000025A0FB038903FB01994FEAD8304FF473
:109590007A720023294640EA4940FFF781FD3C4AA0
:1095A0000244130A110201F47F0103F47F430B43C9
:1095B00043EA026343F08303E06822610C933022A4
:1095C0002B46CDE9005502A911F0CEFB00280FDB98
:1095D000294630220EA813F009FBA1683A4620461E
:1095E00011F022FCA84206DA11F06EFC006840423D
:1095F0001BB0BDE8F08337D0E06830222B46CDE9C0
:1096000000550EA911F0E0FB0028EDDB30282ED12B
:10961000149B22691BBA9A4202D06FF01500E7E74B
:109620009DF8383003F00703042BF6D19DF839304C
:1096300003B3189B199A1BBA12BA53EA0201ECD071
:10964000002BB2600CDA134A9342E6D90CA1D1E99F
:109650000001C01841F10001C6E900010020C7E780
:1096600009A1D1E90001F4E76FF07300C0E76FF0E2
:109670007900BDE76FF00F00BAE76FF00D00B7E7B4
:109680008081557CFFFFFFFF8081557C000000003A
:10969000807EAA837F7EAA8301282DE9F0470D46AC
:1096A00009D0042863D011F00FFC162303604FF09B
:1096B000FF30BDE8F0874FF02003EFF3118783F30D
:1096C0001288BFF36F8F2E480CF014FD40B92D495E
:1096D0002D48812211F0E6F881212A4811F07BFA09
:1096E00027480CF023FD294B25489E68D3E9004804
:1096F0000CF00EFD40B923492348AC2211F0D2F8FA
:10970000AC21204811F067FA87F31188BFF36F8FFF
:1097100013F0B1F90B461E4FA0FB070107FB031125
:1097200015A3D3E900234FEAD03949EA41494FEA6A
:10973000D13A48465146FFF7B3FC0FA3D3E90023C3
:10974000041941EB080848465146C5E90048FFF7AF
:10975000A7FC104B32449A42AA6006D9013448F162
:109760000001C5E90041D21BAA600020A1E7002644
:109770003446B046CCE700BF00CA9A3B0000000068
:10978000BCCE0020AEE5020074E50200C0CA002095
:1097900000CA9A3BFFC99A3B0128F8B50C4606D08F
:1097A00011F092FB162303604FF0FF30F8BD13F069
:1097B00062F90E462E4D22686168A2FB052305FB67
:1097C0000133A168521843EBE173A0FB050105FBCF
:1097D0000611C40B44EA4144141B4FEAD13563EB34
:1097E0000505204620A3D3E900232946FFF708FCFE
:1097F0001DA3D3E9002307460E4620462946FFF75E
:10980000FFFB14464FF02003EFF3118583F312881A
:10981000BFF36F8F17480CF06DFC40B9164917481D
:10982000812211F03FF88121134811F0D4F9114839
:109830000CF07CFC124B0F48C3E900769C600CF0E6
:1098400067FC40B90C490D48AC2211F02BF8AC2153
:10985000094811F0C0F985F31188BFF36F8F00201C
:10986000A4E700BFAFF3008000CA9A3B00000000ED
:1098700000CA9A3BBCCE0020AEE5020074E50200AF
:10988000C0CA0020000000000023F0B587B0CDE979
:10989000043304230D4606460193002800F0A680F9
:1098A000002900F0A380062104A811F039FE044627
:1098B00038B102464521524811F0B3F9204607B0AD
:1098C000F0BD014604AA304611F027FE044640B11F
:1098D000452102464B4811F0A4F904A811F033FECB
:1098E000ECE7032101AB02AA04A811F027FF04460C
:1098F00018B1024645214448EDE7019B06AA1344EE
:10990000014603F8100C022202A810F065F86A461E
:109910000646012104A811F0DAFE044618B10246F9
:1099200045213A48D7E7009B042B1BD0052B07D0D5
:1099300028705721364811F074F96FF07F04CCE796
:109940000923344F2B702A1D30D0F0B20F282DD8A8
:10995000072B0BD0092B25D06FF07F042246452121
:109960002D48B8E707232D4F2B70ECE72C4B33F82D
:109970001000C8B1FEF76AFF1FA3D3E90023FEF76A
:10998000CFFFFFF7DFF9042168600DEB010302AAA6
:1099900004A8019111F0D2FE044650B102464521BF
:1099A000204898E7204BE2E72048ECE76FF01504E9
:1099B000D4E7019B06AA13440146022203F8100CC7
:1099C00002A810F009F8C2B20F2A06D9452118489A
:1099D00011F027F96FF015047FE70130C0B2FFF7EF
:1099E000BBFA3946FEF72CFDA86076E76FF0150448
:1099F00064E700BFAFF300807B14AE47E17A2440F8
:109A00003DFD02006BFD02009CFD0200CDFD020049
:109A1000F4FD02000AD7234021FE02000AD7A33F2B
:109A20004CE202004AFE02006CE202000AD7A340A8
:109A30007AFE0200000000002DE9F04F164699B0B2
:109A40001F46446A0546DDF89480CDE904673CB9B9
:109A500010200FF0E3F968620460C460C0E90144BB
:109A60006B6A196851B15A680123284693404A60CD
:109A70008B6013F02BFB6B6A00221A603B1EB7BF92
:109A800023F00043002301220593A8BFC8F800304B
:109A9000DDF81490AC4BB8BFC8F8002033EA0903D6
:109AA00019D142F20F73249A1360C9F3130333439D
:109AB00000F06A85269B53B9A44B23E0A44B039383
:109AC0000833269A1360039819B0BDE8F08F9F4BB6
:109AD00003930333F5E7DDE904340022CDE90C34C8
:109AE000DDE90C010023FFF7AFFC804660B10123E4
:109AF000249A1360269B002B00F04385954B269AF1
:109B00001360013B0393DEE716ABC9F30A54284602
:109B1000019317AB0093DDE90C2313F016FD834688
:109B2000002C7CD00D9BA4F2FF34CDF84C80C3F305
:109B30001303DDE90C0143F07F5141F44011002291
:109B4000854BFEF735FD7AA3D3E90023FEF7E8FE47
:109B500079A3D3E90023FEF72DFD06460F462046E4
:109B6000FEF774FE76A3D3E90023FEF7D9FE024682
:109B70000B4630463946FEF71DFD06460F46FFF7F9
:109B8000ABFC00228246002330463946FFF766FCD4
:109B900048B15046FEF75AFE32463B46FFF754FCAA
:109BA00008B90AF1FF3ABAF1160F56D86B4B03EB1E
:109BB000CA03DDE90C01D3E90023FFF74FFC0028BD
:109BC0004DD00AF1FF3A00230F93169B1C1B631E16
:109BD000099349BFC4F1010300230693002354BF36
:109BE00006930993BAF1000F3BDB099BCDF838A02F
:109BF0005344099300230A93229B092B00F2B4805B
:109C0000052BC5BF043B002401242293229B023B69
:109C1000032B00F2B580DFE803F02E7D7BA5DDE9A4
:109C200016431C4404F23243202BC6BFC3F1400349
:109C300004F21240C3F1200304F1FF34C5BF09FA56
:109C400003F326FA00F006FA03F01843FEF7EEFDE0
:109C50000123A1F1F871139371E70123B4E70F9089
:109C6000B3E7069BA3EB0A030693CAF100030A932A
:109C700000230E93C0E700230B93239B002B00F3DC
:109C800082804FF001094B46CDF82090CDF88C90A2
:109C900000226E6A7260042202F114007168984218
:109CA00077D9284613F0DEF96B6A30601B6803939E
:109CB000089B0E2B00F2EE80002C00F0EB80BAF136
:109CC000000F7ADD0AF00F03244A1AF4807F02EBBA
:109CD000C303D3E90034CDE910344FEA2A145CD031
:109CE0001F4B04F00F040327D3E90823DDE90C011F
:109CF000FEF740FFCDE90401194E002C4FD1DDE9FC
:109D00001023DDE90401FEF735FFCDE904016EE023
:109D10000123B1E700230B93239B0AEB030909F10D
:109D20000103012B0893B8BF0123B1E7AFF3008013
:109D300061436F63A787D23FB3C8608B288AC63F51
:109D4000FB799F501344D33F0000F07FC90E0300FE
:109D5000C00E0300DDFC02000000F83F80DD0200C1
:109D600058DD02000123D6E7012400230B9422933F
:109D70004FF0FF3900221223CDF82090239287E77D
:109D800001230B93F4E7DDF88C904B46CDF820903F
:109D90007EE70131520071607EE70227ACE7E10700
:109DA00008D50137DDE91001D6E90023FEF7B8FD3B
:109DB000CDE91001641008369FE700F0A580CAF1D4
:109DC0000004A34BA34E022704F00F02241103EB5F
:109DD000C203DDE90C01D3E90023FEF7A1FD002356
:109DE000CDE90401002C40F08480002B8DD10F9B25
:109DF000002B00F08B800022DDE90434CDE9103423
:109E0000DDE91001944BFFF729FB00287ED0089B69
:109E1000002B7BD0B9F1000F38DD0AF1FF38013794
:109E20004C4600228D4BDDE91001FEF779FDCDE9AE
:109E300004013846FEF70AFDDDE90423FEF770FD54
:109E40000022874BFEF7B6FBA1F15076CDE9100159
:109E50001196002C5DD10022824BDDE90401FEF752
:109E6000A7FB02460B46CDE90423109A3346FFF7C1
:109E700013FB002840F09482109A06F10043DDE9BC
:109E80000401FFF7EBFA002840F08882DDE90C348A
:109E9000CDE90434179B002BC0F24F81BAF10E0FAD
:109EA00000F34B816A4B03EBCA03D3E90034CDE9DD
:109EB0000634239B002B80F2D980089B002B00F3F3
:109EC000D58040F06A820022664BDDE90601FEF78C
:109ED00027FDDDE90423FFF7D5FA089C2646002874
:109EE00040F04082039F31230AF1010A07F8013B49
:109EF0003CE2E20705D50137D6E90023FEF710FD65
:109F00000123641008366DE7022770E7D046089CED
:109F10008FE703994E4B214403EBC40312910B9935
:109F2000DDE9106753E90223002946D000204E499D
:109F3000FEF720FE3B463246FEF73AFB039FCDE993
:109F40001001DDE90401FFF7C7FA0446FEF77EFCC5
:109F500002460B463034DDE90401FEF729FB0246D8
:109F60000B4607F8014BCDE90423DDE91023FFF789
:109F700075FA002864D100203749DDE90423FEF793
:109F800017FBDDE91023FFF769FA002840F0B480E1
:109F9000129B9F423FF47AAF0022304BDDE9100163
:109FA000FEF7BEFC00222D4BCDE91001DDE90401D6
:109FB000FEF7B6FCCDE90401C3E730463946FEF7AB
:109FC000AFFC129B039C1493CDE91001DDE9040161
:109FD000FFF782FA1590FEF739FC02460B46DDE9E1
:109FE0000401FEF7E5FA159B06460F4630330022C2
:109FF00004F8013B129B9C4224D11B4BDDE910016C
:10A00000FEF7D8FA02460B4630463946FFF744FAC7
:10A01000002870D100201449DDE91023FEF7C8FAAA
:10A0200002460B4630463946FFF718FA00283FF43F
:10A030002DAF149F7B1E149317F8013C302BF8D0E2
:10A04000C24648E0054BFEF76BFCCDE90401BDE7D5
:10A0500080DD020058DD02000000F03F00002440D7
:10A0600000001C40000014400000E03FDDE90489CE
:10A07000039F40464946DDE90623FEF77BFDFFF7D7
:10A080002BFA0446FEF7E2FB04F13006DDE9062375
:10A09000FEF746FC0B46024649464046FEF788FA64
:10A0A00007F8016B039E089BBE1BB34238D10246E2
:10A0B0000B46FEF77FFA80468946DDE90623FFF767
:10A0C000EBF958BB40464946DDE90623FFF7BCF9EA
:10A0D00008B1E10722D42846594612F0F7FF0023C1
:10A0E0000AF101003B70249B1860269B002B3FF473
:10A0F000EAAC1F60E7E427463B461F4613F8012DF4
:10A10000392A07D1039A9A42F7D13022039908F1EC
:10A1100001080A701A7801321A7091E7D046EBE70D
:10A120000022A14BFEF7FCFB00220023804689465B
:10A13000FFF78AF900289CD0CDE70B9A002A00F09F
:10A14000CC80229A012A00F3AF80139A002A00F0F3
:10A15000A78003F233430A9C069F069A01212846F2
:10A160001A440692099A1A44099213F053F80646C3
:10A17000002F0CDD099B002B09DDBB42069AA8BF0E
:10A180003B46D21AFF1A0692099AD31A09930A9BE0
:10A19000F3B10B9B002B00F0A480002C10DD3146A6
:10A1A000224628460FF0E6FE5A4601460646284655
:10A1B00013F039F8804659462846C34612F086FF08
:10A1C0000A9B1A1B04D0594628460FF0D3FE83463B
:10A1D0000121284613F01EF80E9B0446002B40F385
:10A1E00082801A46014628460FF0C4FE229B044690
:10A1F000012B7BDD4FF00008236904EB8303186912
:10A2000012F0BAFFC0F12000099B184410F01F00A3
:10A2100000F08D80C0F12003042B40F38680C0F154
:10A220001C00069B074403440693099B03440993BF
:10A23000069B002B05DD59461A46284613F08EF87A
:10A240008346099B002B05DD21461A46284613F05C
:10A2500085F804460F9B002B6BD02146584613F01F
:10A26000DCF8002865DA002359460A22284612F055
:10A2700044FF0B9B0AF1FF3A8346002B00F08B81D1
:10A28000314600230A22284612F037FFB9F1000FA9
:10A29000064600F39180229B022B40F38D8050E014
:10A2A000169BC3F1360356E7089B5C1E0A9BA3422C
:10A2B000B7BF0A9B1C1B0A94E21ABFBF0E9B002467
:10A2C0009B180E93089B002BBBBF069B089A069F0A
:10A2D0009F1AACBF089B00233FE70A9C069F0B9E7A
:10A2E00046E70A9A6FE7229B012B19DC049BBBB956
:10A2F000059BC3F313039BB9059B23F000431B0D80
:10A300001B0583B1069B4FF0010801330693099B9F
:10A31000013309930E9B002B7FF46EAF012073E78E
:10A320004FF00008F6E79846F4E781D018461C3055
:10A3300077E7089B002B39DC229B022B36DDDDF80A
:10A340002090B9F1000F0DD121464B460522284639
:10A3500012F0D3FE01460446584613F05EF800287A
:10A360003FF7C0AD239B039F6FEA030A4FF000083D
:10A370002146284612F0AAFE002E3FF4ACAEB8F1FA
:10A38000000F05D0B04503D04146284612F09EFE8E
:10A390003146284612F09AFE9DE600242646E1E763
:10A3A000C24626469EE500BF000024400B9BDDF818
:10A3B0002090002B00F0F680002F05DD31463A4654
:10A3C000284612F0CBFF0646B8F1000F55D0716851
:10A3D000284612F047FE3269074606F10C010232A8
:10A3E0000C30920012F0F5FB01223946284612F09B
:10A3F000B5FF039BB046064601330893039B4B44CD
:10A400000A93049B03F001030993089B21465846D5
:10A41000013B049312F090FD0346414606905846D6
:10A4200030330B9312F0F9FF32468146214628461D
:10A4300013F00EF8C26807460B9B02BB0146584654
:10A4400012F0EBFF0B9B024639462846CDE90B3252
:10A4500012F03CFE229B0C9A089F43EA0201099BE2
:10A460000B430B9B0DD1392B29D0B9F1000F01DD26
:10A47000069B3133049A13707AE73046B9E701221C
:10A48000E2E7B9F1000F06DB229941EA09090999CF
:10A4900059EA010120D1002AECDD59460122284663
:10A4A000089312F05BFF2146834612F0B6FF0028A6
:10A4B000089B02DCDED1DA07DCD5392BD8D1392371
:10A4C000049A13703B461F46013B17F8012C392AAA
:10A4D00050D001321A704BE7002A03DD392BEED041
:10A4E0000133C7E7089A0A9902F8013C8A422AD048
:10A4F000594600230A22284612F0FFFDB045834644
:10A500004FF000034FF00A024146284607D112F0EF
:10A51000F4FD80460646089B0133089375E712F068
:10A52000ECFD3146804600230A22284612F0E5FD64
:10A530000646F0E7B9F1000F039A4FF00008CCBFD0
:10A540004F4601271744594601222846089312F026
:10A5500005FF2146834612F060FF0028B2DC02D1DD
:10A56000089BDB07AED43B461F4613F8012D302A6B
:10A57000FAD0FDE6039A9A42A5D10AF1010A3123E5
:10A5800079E7134BFFF7BEBA269B002B7FF496AA00
:10A59000104BFFF7B7BAB9F1000F03DC229B022B77
:10A5A0003FF7CFAE039F2146584612F0C5FC039AF1
:10A5B00000F1300307F8013BBA1A9145BADD59465C
:10A5C00000230A22284612F098FD8346EBE700BFDD
:10A5D000DCFC0200C00E030010B50378044613B182
:10A5E000042B16D010BD027A44210E4810F019FB3E
:10A5F000237A012B0BD0052BF4D10B4A44210B48B5
:10A6000010F00FFBBDE8104009480CF017B8094ADC
:10A61000F4E7D0E904234421BDE81040064810F0D7
:10A6200000BB00BFB9E20200A5E20200DBE20200CB
:10A6300050CA00208CE2020000E302000122002345
:10A64000F0B5492185B04D48CDE9002310F0E9FA75
:10A65000002003F0B5FF0246C0B94921484810F078
:10A66000E0FA48480CF08EF8474811F0A5F8044687
:10A67000D0B102464521454810F0D3FA452144485F
:10A68000224610F0CEFA4521424805E045214248D5
:10A6900010F0C7FA4521414810F0C3FA452140485F
:10A6A00010F0BFFA05B0F0BD4FF0FF324FF0FF33AE
:10A6B00034480BF0FDFF49213A4810F0B2FA492125
:10A6C000394810F0AEFA394D394E3A4C00214FF46A
:10A6D000C0300DF04FFA2A46402130460AF07EFE87
:10A6E000024620B14421204610F09BFAEEE74921B2
:10A6F000314810F096FA314F314E2D4D00214FF474
:10A7000020300DF037FA40212846284A0AF066FE2C
:10A710002A4649212B4810F084FA684606F0FEFAD2
:10A72000DDE900014FF47A720023FEF769FCCDE900
:10A73000020102A80EF06AFADDE90023044649216D
:10A74000214810F06EFA3846A268492110F069FAE3
:10A7500038466268492110F064FA3046226849217F
:10A7600010F05FFA3046226A492110F05AFAAA7FA7
:10A7700049211648303A10F054FABEE736E3020099
:10A7800048E3020050CA0020D9A50100AEE3020050
:10A79000D3E3020002E4020064E3020092E3020059
:10A7A00012E5020021E4020037E4020069E402003D
:10A7B0007AD4002073E402002FE50200D3E4020003
:10A7C000E7E40200ACE40200BEE40200FCE40200A4
:10A7D000032808B506D910F077FB092303604FF072
:10A7E000FF3008BD044B03EB40100830D0E8AF3F0A
:10A7F000002BF0D00020F4E778CD002070B504469F
:10A800000D461646FFF7E4FF002809DB064B600102
:10A8100045B11A185268AA4204D010F055FB0660E0
:10A82000002000E0185870BD78CD002070B50446B7
:10A830000E461546FFF7CCFF00280CDB074B6101E5
:10A8400003EB4414626832601DB101F10C021A443A
:10A850002A60585870BD0020FCE700BF78CD00206A
:10A8600010B500244FF0FF324FF0FF3314480BF0C7
:10A870008DFC144A6301D2E8AF1F79B10134042C76
:10A8800002F12002F6D110F01FFB17234FF0FF3426
:10A8900003600B480BF052FD204610BDD2E8EF0FCD
:10A8A0000130C2E8EC0FBCF1000FF7D10648C21826
:10A8B000C15051600C33184412F06BF8E9E700BF47
:10A8C000D4C9002080CD002078CD002010B41446DB
:10A8D000094B420103EB4010995044604CB1E068D1
:10A8E00038B10C322046134410BC40F205120FF070
:10A8F00062BF10BC704700BF78CD002030B50D4B53
:10A90000400100F108021A44D2E8AF1F81B14C1E89
:10A91000D2E8EF5F8D4204D1C2E8EC4FBCF1000FEA
:10A92000F6D1F1D1012901BF002219181A504A604D
:10A9300030BD00BF78CD0020436870B503F003033D
:10A94000022B04460E46816010D0032B04D0012B4D
:10A950000FD10025284601E0056800200023636030
:10A9600010B131460DF0C6FF284670BD00250068C5
:10A97000F4E74522044905480FF094FF45210248B9
:10A9800010F029F90025E8E751E5020074E502001E
:10A990000B6801330B60014B1B68184788C500200A
:10A9A000014B1860704700BF88C5002007B50B46F3
:10A9B000002102460191034801A900F081FC03B087
:10A9C0005DF804FB91A901002DE9F74FB0F81CA038
:10A9D00004461AF0080F93461CD001290CBF4AF018
:10A9E000100A4AF0200AA0F81CA004F114000BF091
:10A9F0008FFB40B9BA49BB48AC220FF053FFAC21E2
:10AA0000B74810F0E8F88BF31188BFF36F8F03B0ED
:10AA1000BDE8F08FB44FDFF8CC820AF0070A0229B4
:10AA200006D120460FF04BFF0028DED0012865D16B
:10AA3000D4F81890A38BB9F1000F19DA0026256815
:10AA400023F00703C4E9006643F00103A383A38B4B
:10AA500003F007025245009203D0A268002A40F09A
:10AA6000F18015B9002E00F02B814FF0000AEBE0C9
:10AA700003F00702511F012922D8002123F0070308
:10AA8000062A25689BB2C4E900110CD18D422A46E2
:10AA900038BF0A462AB1E18B12680131E183002AEE
:10AAA000F8D143F002032046A3830FF008FF0646C7
:10AAB0000028CCD0A38B43F02003A3830026C6E755
:10AAC000042A0DD123F007039AB22046A2830FF087
:10AAD000F6FE054680B142F020020025A283EDE794
:10AAE00040F21B12394640460FF0DCFE40F21B11CB
:10AAF000384610F070F800252E46A8E7032831D11B
:10AB0000BAF1000F0AD0394640464FF4AB720FF04D
:10AB1000C9FE4FF4AB71384610F05DF8236853B9A5
:10AB20003946404640F257120FF0BCFE40F2571132
:10AB3000384610F050F823691E6856B93946404629
:10AB40004FF4AD720FF0AEFE4FF4AD71384610F019
:10AB500042F8A38B23F0070343F006030025A383E9
:10AB6000A94674E704282ED1BAF1020F0AD039465B
:10AB7000404640F25D120FF095FE40F25D113846FE
:10AB800010F029F8E38B53B1394640464FF4AF72C9
:10AB90000FF088FE4FF4AF71384610F01CF82369AF
:10ABA0005E6856B93946404640F261120FF07AFEAF
:10ABB00040F26111384610F00EF8A38B23F0070322
:10ABC00043F00403CAE705282ED1BAF1010F0AD0D9
:10ABD000394640464FF4B2720FF064FE4FF4B27142
:10ABE00038460FF0F8FF236853B93946404640F223
:10ABF00065120FF057FE40F2651138460FF0EBFF7B
:10AC000023699E6856B9394640464FF4B4720FF036
:10AC100049FE4FF4B47138460FF0DDFFA38B23F0EB
:10AC2000070343F0050399E7002540F26B1239460C
:10AC300040460FF037FE40F26B1138460FF0CBFF65
:10AC40002E468DE74FF0010A43F00803A38304F179
:10AC50001403184601930BF05BFA40B940462049B3
:10AC6000AC220FF01FFEAC211D480FF0B4FF8BF398
:10AC70001188BFF36F8FBAF1000F39D1002D4CD17D
:10AC800016B120461949B0474FF02003EFF3118B5E
:10AC900083F31288BFF36F8F01980BF02BFA40B942
:10ACA00040460F4981220FF0FDFD81210C480FF035
:10ACB00092FF01980BF03AFAA38B23F00803A383C9
:10ACC000A38BDA0631D5012123F01003A383B4F856
:10ACD0001CA00AF0070A00297FF4A1AE85E600BF98
:10ACE000AEE5020074E502008CE502003DAD010016
:10ACF000A1680029C2D00B68002B38BF00239A46F8
:10AD000020464B46D1F804B0009AD847BAF1000F5C
:10AD1000B4D05146DAF80030EEE729464B462046DB
:10AD2000009A2D680FF0E7FDA8E713F020011EBF81
:10AD300023F020030221A383C9E700BFF8B504462E
:10AD40000D4600F114064FF02003EFF3118783F353
:10AD50001288BFF36F8F30460BF0CCF940B90A4927
:10AD60000A4881220FF09EFD812107480FF033FF32
:10AD700030460BF0DBF93A462046A5610121BDE8DB
:10AD8000F840FFF721BE00BFAEE5020074E5020007
:10AD90002DE9F04704460F460FF0C3FD051E54DBB6
:10ADA00004F114094FF02003EFF3118A83F31288A2
:10ADB000BFF36F8F48460BF09DF940B933493448D3
:10ADC00081220FF06FFD812130480FF004FF4846CB
:10ADD0000BF0ACF94FF6FF71E38BA28B8B4202F0C4
:10ADE00007064AD0022E1FD135464FF00108013325
:10ADF000E38348460BF08CF940B924492448AC223F
:10AE00000FF050FDAC2121480FF0E5FE8AF31188C8
:10AE1000BFF36F8FB8F1000F17D0002332463946C9
:10AE200020460FF068FD10E0930701D0062E0FD1E9
:10AE300000233B606368EBB9C4E900773546F6B997
:10AE4000524602212046FFF7BFFD2846BDE8F087A5
:10AE5000052E17D0012E0AD00E490D4840F2C91216
:10AE60000FF020FD40F2C9110A480FF0B4FE6FF058
:10AE7000040504E01F606760E0E76FF00A054FF02B
:10AE80000008B6E76FF08505F9E700BFAEE5020000
:10AE900074E502008CE502002DE9F74F0369C468F0
:10AEA00003F10109631E40F26C74002501934369AC
:10AEB0008046E41845EBE375B9F1020F8CBF00231F
:10AEC0000123E41A65F10005002C75F1000357DA3F
:10AED0006FF4C7704FF4C8720023201845F1FF319A
:10AEE000FEF78EF8294B4FF03C0C03FB0044D8E9E9
:10AEF00000539A46B9F1020F8CBF6FF0020E4FF06B
:10AF0000090E4FEAE37BD8F80830F144CCFB03ABE1
:10AF1000AAFB0C230CFB0B33521943EBE57340F2F5
:10AF20006D154FF0990E4FEA940C05FB04CC019D72
:10AF30000EFB09FE65444FF0640C4FF00509B4FBAD
:10AF4000FCF40EF1020EBEFBF9FEDFF84CC02C1B28
:10AF5000A644A0FB0C450CFB01550D4966180D4994
:10AF600045F1FF3716EB0E06A6FB014547F100073A
:10AF700001FB0755A01845EB030103B0BDE8F08FB6
:10AF80004FF4C872002320462946A9E770FEFFFF50
:10AF90009405F5FF80510100B13A020070B579B314
:10AFA00005680C1F641BE60824F007042C44A378F2
:10AFB000DB0708D413491448A3220FF073FCA32124
:10AFC00010480FF008FE314628460FF0D6FC3044FA
:10AFD00035F83030C01A864208D00A490A48AB22F8
:10AFE0000FF060FCAB2107480FF0F5FD6388314698
:10AFF00023F0010328466380BDE870400FF07ABD5E
:10B0000070BD00BFD4E5020074E502004B422DE99B
:10B01000F04703EA010731EA0303144606681BD030
:10B02000042F3D4628BF0425B946CF1B07F1FF3A40
:10B030001AEA070F0AD03149314840F227120FF0BF
:10B0400031FC40F227112D480FF0C5FD7CB94FF0BF
:10B0500000094846BDE8F087042904D8BDE8F04758
:10B0600011460FF078BD4FF000090425DEE7B36804
:10B07000B3EBD40FEBD904F10B013944491B304633
:10B08000C9080FF0D0FC80460028E0D009F1040583
:10B0900005EBC005354455447F422F40A7EB090915
:10B0A0004C44A9F1040307349B1B24F00704A41BA0
:10B0B000B0EBD30F4FEAD3074FEAE40408D20146BE
:10B0C0003A4630460FF0FCFC414630460FF05AFC41
:10B0D000394630460FF051FC3844844207D230469E
:10B0E00022460FF0EDFC214630460FF04BFC06EBFC
:10B0F000C706738843F001037380AAE7D4E5020012
:10B1000074E50200B2F5802F2DE9F04106460D46A8
:10B1100017465DD3354940F2A51235480FF0C2FB02
:10B1200040F2A51131480FF056FD043FEC1D3D449F
:10B1300024F0070425F007052D1B172D4FEAD5072E
:10B140000AD82A492A4840F2B5120FF0ABFB40F268
:10B15000B51126480FF03FFDB7FA87F80023C8F174
:10B1600024084FEA8808346008F10706F608E3600F
:10B17000731CBB42A7600AD91C491D4840F2C51286
:10B180000FF090FB40F2C51118480FF024FD00238A
:10B1900004F11002A044904525D1720042F0010252
:10B1A0006280BA1B04EBC6015000238048806119FD
:10B1B00024F8366004EBC7074B8062537B88314626
:10B1C00043F0010320467B80BDE8F0410FF0DABB7D
:10B1D000042AAAD805494FF4D67205480FF062FB3D
:10B1E0004FF4D6719EE742F8043BD4E7D4E5020061
:10B1F00074E50200F0B5024601680A270020074EF8
:10B200000C46237801319D5D6D0701D41460F0BDBB
:10B2100007FB0033A3F13000F2E700BF520D03003B
:10B220002DE9F74F14469946D378244A6F2B13F82B
:10B2300002A006460AF003020F4601922DD028D83C
:10B24000582B14BF0A251025AA464FF0000BDDF835
:10B25000308052465B4630463946FDF721FF092AC9
:10B26000D3B21FD830335F45DBB208BF564508F86C
:10B27000013D01D3C84512D823789B0605D5082D7A
:10B2800016D1A37843F00803A370404603B0BDE88D
:10B29000F08F03F0F703702BD3E70825D4E70646B9
:10B2A0000F46D6E7019A012A0CBF37335733DAE746
:10B2B000102DEAD1A37843F01003E5E7520D030007
:10B2C0002DE9F04F82468B4691461C46002593B0EF
:10B2D00099F8000008B928463AE309F10103252846
:10B2E000029306D05946D0470028C0F23183013579
:10B2F000F1E1182200210CA811F078FC99F8013036
:10B30000252B59D0029A164612F8013B2B2B00F040
:10B310008B8079D8202B00F08C80232B00F08E803E
:10B320009DF8383003F04402442A03D16FF38613AA
:10B330008DF838309DF83830059643F080038DF84D
:10B34000383033782A2B7ED19DF8393043F0010311
:10B350008DF83930731C05931A782E2A0CBF012101
:10B3600000219DF8392061F341028DF839200BD17D
:10B370005A1C05925A782A2A7BD19DF8392002332B
:10B3800042F004028DF83920194611F8010B6C289F
:10B3900000F0B6807DD8682800F084806A2800F02C
:10B3A000B9804C2800F0BD809DF8392019466FF314
:10B3B000C6028DF8392080E009F1020202928DF870
:10B3C0003B309DF83930D90740F1498154F8048B5E
:10B3D000B8F1000F07DA9DF83820C8F1000842F0F4
:10B3E00004028DF838205A0740F1428154F8047B5A
:10B3F000002F80F241819DF839306FF341038DF8C1
:10B4000039304FF0FF3737E12D2B06D0302B87D165
:10B410009DF8383043F0400303E09DF8383043F0A6
:10B4200004038DF838306EE79DF8383043F0080398
:10B43000F7E79DF8383043F01003F2E79DF8383015
:10B4400043F02003EDE705A8FFF7D4FE059BB342C8
:10B4500081D09DF838100F90C1F3400242EAD072BB
:10B46000520062F07F0201F07D010A438DF838201E
:10B4700071E705A8FFF7BEFE9DF838301090C3F3C2
:10B48000400242EAD07060F341038DF83830059BEA
:10B490007AE774289DF8392040D07A2884D1134661
:10B4A000062228E05A78682A9DF8392021D1012106
:10B4B00061F3C6028DF83920991C0B4613F8012B55
:10B4C000782A02938DF83B209DF8393000F2BF8036
:10B4D000572A33D8412A03D0453A022A00F2B780CE
:10B4E00004229DF83A3062F302038DF83A300123CA
:10B4F00084E01346022262F3C6038DF83930DCE79C
:10B500005A786C2A9DF8392001D10421D0E71346DE
:10B510000322F0E705229DF83930ECE713460722B5
:10B52000E9E7BDF8383023F4F04323F0020343F495
:10B53000804343F00203ADF83830BEE7A2F1580172
:10B54000202900F2848001A050F821F011B60100FA
:10B550004FB601004FB601004FB601004FB60100D3
:10B560004FB601004FB601004FB601004FB60100C3
:10B57000E1B401004FB6010011B60100D1B50100E0
:10B58000E1B40100E1B40100E1B401004FB60100F3
:10B59000D1B501004FB601004FB601004FB6010012
:10B5A0004FB6010019B6010011B6010035B6010011
:10B5B0004FB601004FB6010035B601004FB601008D
:10B5C00011B601004FB601004FB6010011B60100DF
:10B5D00001209DF83A1003F0780360F30201402B3C
:10B5E0008DF83A1002BF9DF8381041F001018DF836
:10B5F0003810632A31D1003B18BF01239DF8382051
:10B60000C2F340010B4363F341028DF83820D8E6C2
:10B6100002209DF83A10DEE703219DF83A2003F05E
:10B620007803A3F1400061F3020243428DF83A200F
:10B630004341E3E703219DF83A2013F0780F61F3CB
:10B64000020214BF012300238DF83A20D6E79DF8AB
:10B65000383043F001038DF838300023CEE79DF9F0
:10B660003820002AACBF4FF0FF38DDF83C80BAE646
:10B670009F077FF5C6AE109F0023CDE90F339DF8DD
:10B680003A309DF8391003F00703012BC1F3C301D1
:10B6900037D1CB1E042B21D8DFE803F003070720A6
:10B6A000200054F8042BD31704E0073424F00704D7
:10B6B000F4E80223CDE90C239DF8383013F003069B
:10B6C00055D04A4659465046029B0FF06EFA002864
:10B6D000C0F23E810544DDF80890F9E554F8042BEA
:10B6E00001294FEAE273CDE90C2305D19DF83030F2
:10B6F0000C9300230D93DFE70229DDD1BDF9302043
:10B70000D1E7022B23D1CB1E042B13D8DFE803F0A3
:10B71000030A0A12120000232268201D0C920D93C6
:10B720000446C9E7073424F00700F0E80223CDE916
:10B730000C23F5E754F8043B01290C934FF0000368
:10B740000D93D3D00229B7D1BDF83030D0E7042B08
:10B7500007D1073424F00704F4E80223CDE90C23D1
:10B76000AAE7032B04BF54F8043B0C93A4E79DF80D
:10B770003B007828AFD8622820D825283FF4B2AD06
:10B780005828A8D1DDE90C010DF12E0300930EAA73
:10B7900006ABFFF745FD8146002F0DF12E000BDBB8
:10B7A0009DF83820A0EB09036FF386129F428DF8B5
:10B7B000382001D9FF1A0F9707463CE06338152857
:10B7C00089D801A252F820F047B80100A9B80100B9
:10B7D000D7B60100D7B60100D7B60100D7B6010031
:10B7E000A9B80100D7B60100D7B60100D7B601004D
:10B7F000D7B6010007B90100D5B80100D9B80100DA
:10B80000D7B60100D7B6010021B80100D7B60100B4
:10B81000D5B80100D7B60100D7B60100D5B80100F0
:10B82000002FDDF830900ADB3946484611F030FB36
:10B83000002609EB0007B9F1000F0CD14BE7484691
:10B84000FDF77CFEF4E700260C9B0DF119078DF83F
:10B8500018300DF11809A7EB090306B101339DF863
:10B860003A20D00669D5023352060F9948BF109A84
:10B870000B4448BF9B18B8F1000F76DD9DF83820C7
:10B88000A8EB0308C2F38003039353076DD450065B
:10B8900061D53EB159463046D047002858DB039B5E
:10B8A00001351E46302357E01E0711D413F0100651
:10B8B00018BF2026DDE90C23002A73F10001BFF632
:10B8C00061AF524263EB43032D26CDE90C2359E7C8
:10B8D0002B26EFE7002655E70C9848B30DF12E0311
:10B8E0000093002106AB0EAAFFF79AFCBDF83A3090
:10B8F000814603F0EF0343F4F04343F010030026C6
:10B90000ADF83A3048E70C9B07293FF6E4AEDFE894
:10B9100001F00D04060D08080D0D1D70DBE61D80FD
:10B92000D9E62846E917C3E90001D4E61D60D2E64E
:10B930002E4F0646A7F105098DE7110748BF0133D1
:10B9400092E7184659460393D0470028039B04DA30
:10B9500013B0BDE8F08F202345444246002AA5EBF2
:10B96000080108F1FF38ECDC0D462EB1594630468F
:10B97000D0470028ECDB01359DF83A30D90601D4D8
:10B980001A0705D559463020D0470028E0DB01359D
:10B990009DF83A30DB0606D559469DF83B00D04766
:10B9A0000028D5DB01350F9E2E44731B002B15DCC0
:10B9B0003B464A46594650460FF0F7F80028C7DB89
:10B9C0000544A844A8EB0503002B7FF784AE594635
:10B9D0002020D0470028BBDB0135F3E75946302053
:10B9E000D0470028B4DB0135DFE700BFFAE50200ED
:10B9F0004FF02002EFF3118382F31288BFF36F8FB1
:10BA00000121044AC2F8401583F31188BFF36F8FF8
:10BA1000002070470090034020B1034B800143F0A9
:10BA200001031847704700BF50DD02002DE9F047C1
:10BA3000DFF87C9005460E461746CA461A4CDFF8DA
:10BA400074804C4508D941461848D5220EF02AFF8B
:10BA5000D52140460FF0BFF8544507D30FF034FA14
:10BA60006A2303604FF0FF30BDE8F0872368AB42E4
:10BA700000D0BBB9636843B941460C48DB220EF0E5
:10BA800011FFDB2140460FF0A6F83A463146284622
:10BA90006368984730B13A4631462846A368BDE806
:10BAA000F04718470C34CCE760DC020074E5020074
:10BAB0006CDC02002CE602002DE9F04F0646002760
:10BAC0009BB00491104619461D46144610F0D9FF4C
:10BAD000B046B946CDE905010BABDDF810B00893CF
:10BAE0000397BBF1000F1FD1039B002B63D00135DF
:10BAF0000BBFB4F1FF3F4FF47A734FF0FF33A4FB59
:10BB000003451CBFE30B43EA45430193049B3946BD
:10BB100000934FF48272334648460FF0C9F8074647
:10BB200038461BB0BDE8F08FD8F8000000283DDB98
:10BB30000AAA09A9FEF77AFE0790002836D04FF02E
:10BB4000FF324FF0FF330A980FF0C1F81AAB0193A0
:10BB500008AB00934FF481724346079909980FF0A0
:10BB6000A7F810F1780F82460ED010F1120F079946
:10BB70000ED1B9F1000F02D10F46DDF82490012358
:10BB80004FF0000A039303E0002400254FF0000A61
:10BB90000A980FF08BF8BAF1000F07DA0FF094F95A
:10BBA000CAF100034FF0FF370360B9E708F1080856
:10BBB0000BF1FF3B95E754EA050311D06A1C08BF5F
:10BBC000B4F1FF3F0CD00CF08FFB059B1C1A069BB9
:10BBD00063EB0105002C75F10003BCBF00240025B8
:10BBE00008990BAF3E4BC91B891059432B4622467F
:10BBF00038460CF0A9FD00F10B030B2B814608D849
:10BC000040F6810828FA03F86FEA080818F00108DE
:10BC100004D00FF059F9C9F10003C3E70897B14602
:10BC20004746DDF810A0BAF1000F1BD1B8F1000FA4
:10BC30003FF476AF002F3FF773AF54EA05033FF4AC
:10BC40006FAF6B1C08BFB4F1FF3FC9D00CF04CFBC9
:10BC5000059B1C1A069B63EB0105012C75F1000383
:10BC6000BEDA5DE74FF00003D9F80000A9F806300E
:10BC700000282DDB0AAA09A9FEF7D8FD834620B9C2
:10BC80002023A9F80630013722E04FF0FF324FF0B1
:10BC9000FF330A980FF01BF808AB594640F2031225
:10BCA000009309984B460FF003F883460A980EF06C
:10BCB000FDFF1BF10B0F10D0BBF1000F04D00FF0F4
:10BCC00003F9CBF100036DE7B9F90630002BDAD1A7
:10BCD00009F108090AF1FF3AA5E74FF00108F7E773
:10BCE000CDCCCCCC38B5054640B90B490B48132216
:10BCF0000EF0D8FD132108480EF06DFF084C2268A5
:10BD000042B10549054814220EF0CCFD1421024829
:10BD10000EF061FF256038BD60E6020074E50200A8
:10BD2000F8CD00202DE9F041124C984623680546D5
:10BD30000E46174643B9104910481D220EF0B2FDB9
:10BD40001D210D480EF047FF23681B6843B90A49BF
:10BD50000A481E220EF0A6FD1E2107480EF03BFFEA
:10BD600023683A461C68314643462846A446BDE847
:10BD7000F0416047F8CD002060E6020074E5020063
:10BD800070B50F4C0546236843B90E490E4825226D
:10BD90000EF088FD25210B480EF01DFF23685B681F
:10BDA00043B90849084826220EF07CFD26210548A3
:10BDB0000EF011FF23682846BDE870405B68184705
:10BDC000F8CD002060E6020074E502002DE9F8439A
:10BDD00005464FF02003EFF3118683F31288BFF37B
:10BDE0006F8F1E480AF086F940B91D491D4881220F
:10BDF0000EF058FD81211A480EF0EDFE17480AF0AA
:10BE000095F9194B1C68002C38BF00249CB14FF0E9
:10BE10000C09164FDFF85880D4E90132002D08BF15
:10BE200013462BB198F8142009FB02F2B85C98472E
:10BE30002468002CF0D109480AF06AF940B9084991
:10BE40000848AC220EF02EFDAC2105480EF0C3FED2
:10BE500086F31188BFF36F8FBDE8F883FCCD002017
:10BE6000AEE5020074E5020000CE00200CCE0020FA
:10BE7000FCD30020012200F01F039A40084B400928
:10BE800003EB8000D0E8EF3F43EA0201C0E8EC1F7B
:10BE9000BCF1000FF6D11A4214BF012000207047F8
:10BEA00018CE0020012230B51A4B85B01D7D05F05B
:10BEB0001F039A40D043184B690903EB8103D3E871
:10BEC000EF1F01EA0004C3E8EC4FBCF1000FF6D10C
:10BED000114217D00C22114C01AB02FB054207CADC
:10BEE00083E807000E4A7AB193E807000EF08EFE51
:10BEF0000020FFF76BFF0C2300226B43E118E25098
:10BF0000C1E9012205B030BD82F31188BFF36F8F04
:10BF1000EEE700BFFCD3002008CE00200CCE0020AE
:10BF20000DAC02002DE9F041334B07461C7D88B073
:10BF30002046FFF79FFFDFF8D88060B90C256E46DA
:10BF400005FB04853A46214630460EF08BFF96E805
:10BF5000070085E807000C23634318F8030008EB8B
:10BF60000302650904F01F06A8B37B1C0FD04FF431
:10BF7000004C0021D2F808E020480023ECFB0E0121
:10BF80001F4AFDF78DF80121381A0CF0BBF80AF0B2
:10BF9000C7FF0120FFF71AFF01221A4BB24003EB43
:10BFA0008503D3E8EF1F1143C3E8E01F0028F8D151
:10BFB0000C2303FB048405AB94E8070083E8070027
:10BFC000114A1AB193E807000EF00DFEFFF76AFF61
:10BFD0000BF016FC01200123B340DB430B4A02EBBC
:10BFE0008505D5E8EF2F1A40C5E8E12F0029F8D1E3
:10BFF00008B0BDE8F08100BFFCD300203F420F0035
:10C0000040420F0008CE0020E7AB020018CE00200F
:10C010000CCE002008B50AF083FFBDE808400148B7
:10C020000EF044BF1CCE002008B503480EF03FFFC1
:10C03000BDE808400BF0E4BB1CCE002001491022F3
:10C040000A60704710ED00E072B6404080F311883E
:10C05000BFF36F8FBFF34F8F30BF62B6BFF36F8FE9
:10C06000704700BF72B6494081F3118820BF80F34A
:10C07000118862B6704700BF37B505460C46C9B196
:10C080008B6810480093D1E9002345210EF0C9FDCB
:10C09000636945210093D4E903230B480EF0C1FDE9
:10C0A0004521E26909480EF0BCFD4521A269084816
:10C0B0000EF0B7FD2146284603B0BDE8304009F038
:10C0C000BBBC00BF9EE60200D2E6020006E702000B
:10C0D0001AE7020043B2002B08DB012200F01F0028
:10C0E00002FA00F0024A5B0942F82300704700BFE1
:10C0F00000E100E043B2002B0DDB012200F01F0045
:10C1000002FA00F05B09044A203342F82300BFF32F
:10C110004F8FBFF36F8F704700E100E0054B42097E
:10C1200053F82220012300F01F0003FA00F0104012
:10C13000704700BF00E100E038B54C1C072C0546F5
:10C1400008D90D490D4859220EF0ACFB59210A4877
:10C150000EF041FD6BB2002BACBF03F16043084B06
:10C160004FEA4414E4B2ABBF03F5614305F00F0599
:10C1700083F800435C5538BD4DE7020074E50200CA
:10C1800014ED00E008B572B6044B9A691AB10022AA
:10C190009A6110F0F7FB62B608BD00BFFCD3002027
:10C1A00030BFFFF7FDBF00BF0B4A08B50B4B22F0B5
:10C1B0007F029A60BFF34F8FBFF36F8FD3F8882051
:10C1C00022F47002C3F8882009F0D6FC0BF004FEBC
:10C1D00000F0EAFA09F0DAFC0082010000ED00E06C
:10C1E000094A0A49936809689867D96708494B68FA
:10C1F00043F080534B60002383F31188BFF36F8FAC
:10C200009368D86F704700BFFCD3002068E102003C
:10C2100000ED00E013498A684FF030001044EFF35E
:10C22000098C80E8F01F202080F31288BFF36F8F05
:10C230000D4F4FF00066CA698A603E60906F002320
:10C24000936780F3118802F1300090E8F01F8CF3BF
:10C25000098802F1000004B50EF024FEBDE8044098
:10C2600070470000FCD3002004ED00E01EF0040F36
:10C270000CBFEFF30880EFF30980816911F8021C0D
:10C280000229FFD001B50EF0FEFD01BD42F8203CB1
:10C29000009B0B4942F81C3C019B21F0010142F834
:10C2A000183C029B42F8081C42F8143C4FF0807383
:10C2B00042F8043C0023203A02658367704700BFC0
:10C2C00067A90200084B9860836E83F30B881046C1
:10C2D00081F30988002163B681F31188BFF36F8F62
:10C2E000002200230EF03FFBFCD3002001B572B604
:10C2F0000B4A906900281EBF0021916110F042FB9B
:10C3000062B6EFF30580A0F110004FEAC0000549C6
:10C31000014409C99847BDE80140034908470000A6
:10C32000FCD3002058DA02002DC30100044B9968A9
:10C33000D869884203D003494FF080520A607047A1
:10C34000FCD3002004ED00E070B52B4C06460D46F2
:10C350002A4845210EF065FCA26AD00603D5452186
:10C3600027480EF05EFCA36A190703D5452125482E
:10C370000EF057FC204CA36A9A0710D5452122489D
:10C380000EF04FFC626BA36A1B0608D545211F48BF
:10C390000EF047FC1EB1A36A23F08003A362164C83
:10C3A000A26AD60703D5452119480EF03AFCA36AC4
:10C3B000980603D5452117480EF033FC0E4B9A6AB8
:10C3C000D10602D49A6A92070DD59B6ADB060AD57C
:10C3D0001149124840F24F120EF064FA40F24F1128
:10C3E0000D480EF0F8FB0020034A936A43F0FF0368
:10C3F0009362287070BD00BF00ED00E083E702008B
:10C400009EE70200D6E70200EEE702000BE802001A
:10C4100026E802004AE802007EE8020074E5020015
:10C4200070B5234C06460D46224845210EF0F9FB17
:10C43000A26AD10403D545211F480EF0F2FBA36A7E
:10C440001A0503D545211D480EF0EBFB184CA36AD5
:10C450009B0510D51A4845210EF0E3FBA26BA36A99
:10C46000180408D5452117480EF0DBFB1EB1A36A5E
:10C4700023F40043A3620E4CA36A590503D545215A
:10C4800011480EF0CEFBA36ADA050BD545210F4803
:10C490000EF0C7FB0020064A936A43F47F43936281
:10C4A000287070BDA36A9B04F4D545210848EFE7C6
:10C4B00000ED00E0B8E80200D3E80200D6E7020091
:10C4C000E9E8020007E9020021E9020041E902006F
:10C4D0004AE8020038B5214C452121480EF0A1FB65
:10C4E000A26A950103D545211E480EF09AFBA36A66
:10C4F000DC0103D545211C480EF093FB174DAC6AB7
:10C5000014F4801404D0452118480EF08AFB02244C
:10C51000AB6A180303D5452115480EF082FB0F4D79
:10C52000AA6A510303D5452112480EF07AFBAB6A83
:10C530009A0303D5452110480EF073FB074DAB6AF3
:10C54000DB0303D545210D480EF06BFBAB6A20469B
:10C550006FEA03436FEA1343AB6238BD00ED00E0BE
:10C560005EE902007BE9020093E90200B2E9020001
:10C57000E1E9020004EA02002EEA02004DEA0200AC
:10C580002DE9F0436E4B0546D3F8048089461446E6
:10C5900000268BB0C8F3080786F31188BFF36F8FAE
:10C5A00002F07F43B3F17F4F11D1D0070FD4510672
:10C5B00003D4220708D4012608E0452161480EF083
:10C5C00030FB14F0040400D04D4600265DB940F263
:10C5D000F2325D495D480EF065F940F2F2315A4899
:10C5E0000EF0F9FA00250023FA1E1C468DF80730DC
:10C5F0001346092B00F29180DFE803F00584886C74
:10C600008F8F8F8F8F8C452151480EF00AFB4C4B3A
:10C610008DF80740DC6A14F0020405D045214D482E
:10C620000EF0FFFA002406E0DA6A002A23DA452138
:10C6300049480EF0F6FA9DF80730CBB902AA05F189
:10C640002007134628686968083503C3BD421A46A7
:10C65000F7D1099B002E6DD0C3F3080222B96FEA0F
:10C6600053236FEA43230993204602A9FFF704FDF1
:10C670000BB0BDE8F083DB6A5B003AD54521374853
:10C680000EF0CFFAAB6933F8022C4DF602739A42E2
:10C690000CD003F1604303F626631B786BB10120D5
:10C6A0000DF10701FFF750FE0446C4E745212A6853
:10C6B0002B480EF0B6FA2C68BDE72A4B1B782BB13D
:10C6C00001200DF10701FFF7ABFEEDE7264B1B88BC
:10C6D0009BB213B1FFF7FEFEE6E71B4940F2C3220F
:10C6E0001A480EF0DFF840F2C32117480EF073FA33
:10C6F000A1E7154940F2C72214480EF0D3F840F2E2
:10C70000C721F2E700200DF10701CBE700200DF172
:10C710000701D8E74521154882E7154918F4F87F45
:10C72000144A154808BF0A46A7F1100345210EF028
:10C7300078FA77E723F4FF7323F0010393E700BF50
:10C7400000ED00E0ABEA02007EE8020074E50200C2
:10C75000D3EA0200EFEA020015EB020028EB020028
:10C760004CEB020029ED00E02AED00E06DEB020049
:10C770007DEA020092EA020096EB0200044B5A693D
:10C7800042F010025A615A6942F480625A6170475D
:10C7900000ED00E0EFF30880EFF3098101B5724688
:10C7A000FFF7EEFE01BD00BF002320210348C218A1
:10C7B0000133412B82F80013F9D1704700E100E00A
:10C7C000002080F31488BFF36F8F002080F30A8865
:10C7D00080F30B8811F0A2F800200E490860BFF327
:10C7E0004F8F0D4880F3088800F03CF8202080F33C
:10C7F00011880A484FF40061401880F30988EFF36C
:10C8000014800221084380F31488BFF36F8FFFF771
:10C81000CBFC000094ED00E078040120B805012075
:10C82000BFF34F8F0549064BCA6802F4E062134319
:10C83000CB60BFF34F8F00BFFDE700BF00ED00E00E
:10C840000400FA0500231846054A1168C1F30721C0
:10C850008B4200D17047936010610133F8E700BF4D
:10C8600090ED00E010B572B6002484F31388FFF752
:10C87000E9FF0E4A234611464FF0FF3403F1200032
:10C880000133102B42F82040F8D100234FF0FF3045
:10C8900003F160020133102B41F82200F8D162B697
:10C8A000BFF34F8FBFF36F8F10BD00BF00E100E0FB
:10C8B000064B9B68834207D1EFF3058323B1044AFB
:10C8C000536843F0805353600BF09AB9FCD30020B7
:10C8D00000ED00E01FB5094C094A23460121094833
:10C8E00000F01AF900230393074B0121E41A01A871
:10C8F0000193029400F02CF904B010BD0000042054
:10C9000000C5002048DE0200C0CA002010B50B6838
:10C910000C7A23F01F0204F01F031A43CB6864094A
:10C9200023F01F03044943EA440343F001038860F2
:10C93000CA600B6110BD00BF90ED00E030B54B68E0
:10C940000C6885B00A898D7A0094013B24F01F049D
:10C95000234402F01F0242EA451223F01F030F286E
:10C9600004468DF80820039309D90246452106485C
:10C970000EF057F96FF01504204605B030BD69463A
:10C98000FFF7C4FFF8E700BFB2EB02002DE9F04F5C
:10C990008946144606464FF00008524D85B0C845FA
:10C9A00023DA7768002F42D01F2F17D9FB0615D145
:10C9B000D6F800A01AF01F0F10D150460EF078FAEA
:10C9C000834607EB0A0001380EF072FA834510D057
:10C9D0006FF0150B5A464521434802E04246452177
:10C9E00042480EF01EF96FF01504204605B0BDE870
:10C9F000F08F1BF1160FEDD0631E5B45EADBC5F827
:10CA000008B0E968C5F808B02F6921F01F01D6E920
:10CA100000321A44994247F01F0702F1FF3A1CD135
:10CA2000574508D131465FFA8BF0FFF787FF08F1D1
:10CA300001080C36B3E73146C5F808B0EB6822F0C0
:10CA40001F0203F01F031A43EA60E0B2FFF776FF0C
:10CA500010F1160FC7D0441CE9E7013B5745E0B27F
:10CA600023F01F03C5F808B006D12A69314602F049
:10CA70001F0213432B61E9E7296901F01F010B43F2
:10CA80002B613146FFF75AFF10F1160FABD0C5F8F6
:10CA900008B0EA689DF80830013F62F304038DF89E
:10CAA00008302B699DF808205B0863F347128DF866
:10CAB0000820D6E900321344009323F01F033B44BF
:10CAC000441CA3EB0A0AE0B22AF01F030F280393C9
:10CAD00003D902464521064883E76946FFF716FF5A
:10CAE000B9E700BF90ED00E005EC0200DDEB0200CD
:10CAF000B2EB02000522034B5A60BFF34F8FBFF326
:10CB00006F8F704790ED00E0BFF35F8F0022014B05
:10CB10005A60704790ED00E010B50A4C2278FFF79C
:10CB200035FF207016300CD10749084840F2111229
:10CB30000DF0B8FEBDE8104040F2111102480EF0B1
:10CB40004AB810BDBAD400202DEC020074E50200F2
:10CB50002DE9F74F2D4D8A4606464FF00008AB46AB
:10CB60002B4FD04502DB03B0BDE8F08FD6F8049020
:10CB7000B9F1000F44D03168084601910EF098F9E0
:10CB80000199044609EB010001380EF091F9844245
:10CB90004FF014021F4B13D06FF0150302FB08F87F
:10CBA0004BF8083040F221121B491C480DF07AFE68
:10CBB00040F22111184803B0BDE8F04F0EF00BB859
:10CBC00014F1160F2C60EDD01978A142EADD02FBBA
:10CBD00008B0BC60BC60FC6800F10801007B64F335
:10CBE0000400087138690C79400860F347140C712F
:10CBF000F96821F01F016960396921F01F0129617D
:10CC000008F1010814350C36ABE700BFA4CE0020B4
:10CC100090ED00E0BAD400202DEC020074E5020093
:10CC200070B51B4D2E68102E0DD94FF4A472194902
:10CC300019480DF037FE17484FF4A4710DF0CBFFE3
:10CC40004FF0FF3070BDFFF75FFF0020134C144A18
:10CC50002263864215D1134B1E70FFF74BFF2368EA
:10CC6000C3F30723102B0AD00A490B484FF4D6729E
:10CC70000DF018FE4FF4D67106480DF0ACFF002001
:10CC8000E0E7696801EB0011FFF740FE0130E0E7E3
:10CC900054DE02002DEC020074E5020090ED00E08D
:10CCA000AAFF4400BAD4002008B5094BC3F10053D1
:10CCB00003F58023B3F5006F08D2064906488122A8
:10CCC0000DF0F0FD812103480DF085FF002008BD27
:10CCD0007025012064EC020074E50200014B18602D
:10CCE000704700BF8CC5002010B5074C2368C218E0
:10CCF0000648C0F1005101F580218A422EBF4FF055
:10CD0000FF30C018226010BDB8CE00207025012071
:10CD100010B5044650B90A490A4840F29D120DF078
:10CD2000C1FD40F29D1106480DF055FF4FF0FF3256
:10CD30002046BDE810404FF0FF3309F0B9BC00BFFA
:10CD400064EC020074E5020010B5044650B90A49CB
:10CD50000A484FF4D2720DF0A5FD4FF4D271064887
:10CD60000DF039FF4FF0FF322046BDE810404FF084
:10CD7000FF3309F00BBA00BF64EC020074E5020057
:10CD800010B5044650B90849084840F2B9120DF0F0
:10CD900089FD40F2B91104480DF01DFF2046BDE8A1
:10CDA000104009F04BBC00BF64EC020074E50200C7
:10CDB00010B5044650B9084908484FF4E0720DF028
:10CDC00071FD4FF4E07104480DF005FF2046BDE809
:10CDD000104009F0B3BA00BF64EC020074E5020031
:10CDE00010B501F0F7FB041E0ADA2246452114486B
:10CDF0000DF017FF2246452112480DF012FF1DE0ED
:10CE000004D0572110480DF00CFFF3E70F4808F04D
:10CE1000BDFA30B145210E480DF003FF6FF0040458
:10CE2000E8E70C4808F0B2FA10B145210A48F3E7E8
:10CE30000A4808F0ABFA04460028F6D1204610BD97
:10CE4000A3EC0200EDED0200D5EC02001BED0200A8
:10CE50002DED02005BED0200B9ED0200D4ED020001
:10CE600010B5044650B90B490B484FF4F9720DF058
:10CE700019FD4FF4F97107480DF0ADFE23680C332E
:10CE8000D3E8EF2F42F00102C3E8E12F0029F7D1E8
:10CE900010BD00BF3AEE020074E50200014809F03F
:10CEA0004DBA00BF10CA002002460B46014809F0E7
:10CEB0006DB900BF10CA002038B505464FF0FF31EC
:10CEC0004FF0FF30FFF7F0FF002128460EF017F873
:10CED000044648BB2B6828469B7E2BB1FFF7C0FF5A
:10CEE000FFF7DCFF204638BD0DF0F7FF044630B1F8
:10CEF000846824B101212846A047041EF0DB2B687A
:10CF00001B6953B90A490B4840F6B5720DF0CAFCCB
:10CF100040F6B57106480DF05EFE2846FFF7A0FF0B
:10CF200028460DF0DFFFDBE76FF07704D8E700BF9E
:10CF300062EE020074E502002DE9F041144E4FF05C
:10CF4000FF304FF0FF31FFF7AFFFB046114C124FEB
:10CF5000B44225460AD93946104841F2CF020DF0B5
:10CF6000A1FC41F2CF0138460DF035FE444503D314
:10CF7000BDE8F041FFF792BF2B6804341B689B6843
:10CF8000002BE5D01B68002BE2D028469847DFE74E
:10CF9000A0CA00209CCA002062EE020074E50200D4
:10CFA000F8B50F4D0F4C2F460F4EAC420AD9314603
:10CFB0000E4841F201120DF075FC41F201113046AC
:10CFC0000DF009FEBC4200D3F8BD032120460DF050
:10CFD00096FF10B92046FFF76FFF0434E5E700BF66
:10CFE000A0CA00209CCA002062EE020074E5020084
:10CFF0002DE9F0410E4C0746051BC5F347130C25E0
:10D000005D4305F148000E46204440210DF080FFAD
:10D01000011E08DB074B2C44C4E91036064B5B5954
:10D02000BDE8F041184738463346BDE8F04118479F
:10D03000D0CE002073AF020094DE020038B5CCB22F
:10D04000012C054608D90849084879220DF02AFC28
:10D05000792105480DF0BFFD0C212B6904FB01343B
:10D06000A06C00F0070038BD8CEE020074E50200F1
:10D07000F8B5CCB2012C0546164607690AD91849FD
:10D08000184840F24D120DF00DFC40F24D111448BD
:10D090000DF0A1FD4FF02003EFF3118283F312880E
:10D0A000BFF36F8F0C2303FB0471896C11F0C00177
:10D0B00001D08E4211D10121002003FB0473996439
:10D0C00082F31188BFF36F8F30B90C23696803FBBB
:10D0D0000414636898470020F8BD4FF0FF30EFE775
:10D0E0008CEE020074E5020070B50D460649044658
:10D0F000411A491140220548FFF7BAFF2B46014665
:10D100002046BDE870401847D0CE0020C8D90200A4
:10D1100070B50022012104460520FFF70DF8052017
:10D12000FEF7D8FF0F4804F08DF90F4B984215D148
:10D1300004F0A8F926690D4930460DF001FC0028DD
:10D140000BDB0125B5642469084904F120000DF0CA
:10D15000F7FB002801DB0020656570BD6FF004005F
:10D16000FBE700BFA5D101000000AD0BACDE020063
:10D1700001460C2300224B43084870B5C4184833BD
:10D18000D4E91056184422640DF0E0FE2DB1324669
:10D190002B46BDE870400248184770BDD0CE002035
:10D1A000C8D90200012808B506D0032808D0A0B9C4
:10D1B0000F4B9B6C5B0719D1BDE80840FFF7D8BF48
:10D1C0000C4940F25E220C480DF06CFB40F25E21EF
:10D1D000BDE8084007480DF0FEBC064940F2622257
:10D1E00005480DF05FFB40F26221F1E708BD00BF8A
:10D1F000D0CE00208CEE020074E5020008B54FF09E
:10D200002003EFF3118183F31288BFF36F8F114A6C
:10D21000136843F0020013F0010310600BD00E4AB4
:10D22000D2F80C34D2F80C2413F0010303D00B48CD
:10D230000DF08CFE012381F31188BFF36F8F23B1B2
:10D24000BDE808400020FFF793BF0120BDE808407B
:10D2500004F036B928CF00200050004018CF00203D
:10D26000074BD3E8EF2F22F00201C3E8E01F0028AC
:10D27000F7D1D30702D4012004F072B9704700BF80
:10D2800028CF00207FB500220123CDE9022304AB83
:10D29000CDE90433094A6B46CDF800D0CDF804D06F
:10D2A0000DF079FE002805DB4FF48042002368462C
:10D2B00009F0FEF907B05DF804FB00BF91AF020072
:10D2C0002DE9F843012206464449D1E8EF3FC1E881
:10D2D000E02F0028F9D19BB9414942484B60CB600F
:10D2E0008A60FDF755FD00280ADA3F493F484FF4B0
:10D2F00008720DF0D7FA4FF408713B480DF06BFC43
:10D300008EB3731E012B55D8012E06D1384BD3F89E
:10D310001C3403F00303022B25D00FF026FB044638
:10D3200018B9344B1B78002B51D14FF02003EFF389
:10D33000118783F31288BFF36F8F01242C4DDFF820
:10D34000C080A946D5F81834D5F81824D2030CD5D6
:10D3500003F00303022B01D0012E06D134B387F36F
:10D360001188BFF36F8FBDE8F883D4B13846FEF75C
:10D3700079FED5F81835DBB2012BE3D1D8F80020BF
:10D38000002ADFD00022C8F80020D8F800200222AE
:10D390002021C5F81825184AC2F88011174A1360D1
:10D3A000D0E7002121200AF0E5FBE2E70223C9F8DB
:10D3B0000433D8E70C490D4840F232220DF072FADE
:10D3C000BDE8F84340F2322107480DF004BC0222C8
:10D3D000074B0746C3F80823B0E700BF2CCF002057
:10D3E000C0CE0020F0CE00208CEE020074E50200DA
:10D3F0000050004039DB002000E100E00850004010
:10D400000451004010B5044C2046FDF7C9FA2046EF
:10D41000FFF764FC002010BD1DD40100F7B50446E1
:10D420000325134E8DF80700EFF311874FF020010D
:10D4300081F3118801220DF10701002005F06EFC37
:10D4400087F3118820B101233370204603B0F0BD6B
:10D450003378002BF9D0013D08D00FF086FA002870
:10D46000E2D1002142200AF085FBDDE73570ECE7D0
:10D47000BBD4002070B516460C46056941B91E495B
:10D480001E4824220DF00EFA24211B480DF0A3FBA8
:10D49000636843B91849194825220DF003FA25217C
:10D4A00015480DF098FB6B685BB100229C4213D1CC
:10D4B00023685AB9AA686B60944200D1AB6000231C
:10D4C000236076B9002070BD0B46EFE71360AB68B0
:10D4D0009C4208BFAA60F2E719681A460029F3D1F6
:10D4E0003EB16B682360A8686C600028EAD1AC602C
:10D4F000E9E76FF01500E6E7E9EE020074E50200E7
:10D500007FB5406801F01F04057BB2F5005F44EA77
:10D5100045144FF0000504D1204604F053FB0020D1
:10D520004BE0B2F5804FCDE9025548D1B3F5003F4D
:10D530000CBF042305238DF80830836823FA01F11A
:10D54000C90748D4B2F5A03F45D166090CBF4FF0DA
:10D55000FF33002304F01F05EB40DA070AD4264905
:10D56000264840F229220DF09DF940F22921224857
:10D570000DF031FB56B12049204840F22E220DF02B
:10D5800091F940F22E211C480DF025FB1C4B8035F3
:10D5900053F82530DB071ED40DF107052946204638
:10D5A00004F046FA174B984214D1284604F09CFA2E
:10D5B000154B98420ED06FF00B0004B070BDB3F560
:10D5C000C02F05D0B3F5003F0CBF02230123B2E703
:10D5D0000323B0E7039500232046194602AA04F06E
:10D5E00009F9094B984204D10121204604F082FA3E
:10D5F00095E76FF00400E0E716EF020074E5020023
:10D60000002584400400AD0B0000AD0B10B504F004
:10D610005BFA044668B904F02FFA084B98420AD125
:10D620002146074804F0FEF9224605213120FEF785
:10D6300083FD002010BD6FF00400FBE70000AD0B80
:10D6400045D601002DE9F843430929D1154B5C6803
:10D6500034B325680126002D38BF0025DFF84C8043
:10D66000114FDFF84C908640A3681E4210D06368CB
:10D6700043B93946484645220DF014F9452138464C
:10D680000DF0A9FAD4E901322146404632409847CC
:10D6900035B12B682C46002B38BF00231D46E3E72D
:10D6A000BDE8F88330CF0020E9EE0200E0D90200A7
:10D6B00074E502002DE9F043476801F01F053B7B4C
:10D6C0000E46144685B045EA4315CAB902A9284654
:10D6D00004F0AEF90446284604F096FA474B984207
:10D6E00004D06FF0040005B0BDE8F083844205D19A
:10D6F0009DF8080004F0F2F9A042F2D10020F2E710
:10D700004FF000090DF103013046CDE9029904F014
:10D710008FF94B4680464946284602AA04F06AF82B
:10D72000364B984202D06FF01500DCE7804503D1FC
:10D730009DF8030004F0D2F9A3054CD5304B314AD3
:10D740002340934239D00CD8062B14D004D893B17F
:10D75000022BE8D104230EE0B3F5801FE3D10123AF
:10D7600009E0294A93422AD0B3F5A00F29D0B3F596
:10D77000800FD8D102238DF8043084F48073C3F372
:10D780000023E0068DF805304CBF0323C4F340139B
:10D7900021058DF8063016D501217B6801FA06F6C1
:10D7A0009E600022284601A904F0CAF8134B984253
:10D7B00014BF6FF01500002095E70723DBE7052372
:10D7C000D9E70323D7E7620541BF01217B6801FA4E
:10D7D00006F6DE60E5E7E3064FF000034CBF0324E6
:10D7E000C4F340141A46284601A98DF8044004F0F9
:10D7F00001F8024B984281D095E700BF0000AD0BC5
:10D800000600F000060010000200400008B5436862
:10D81000D3E9020105F0EEF9034B984214BF6FF013
:10D820000F00002008BD00BF0000AD0B10B504467E
:10D83000002201210A20FEF77FFC60682369094A63
:10D8400000F1080104F01AFE074B984207D0074880
:10D85000452122680DF0E5F96FF00F0010BD0020A2
:10D86000FCE700BFB1D801000000AD0B54EF02008F
:10D87000CA0708B5436809D4C1F34202012A08D097
:10D88000022A0FD0452109480DF0CBF96FF01500A1
:10D8900007E04FF0CC721B68C3F824250369002011
:10D8A000596308BD4FF0C8621B68F5E779EF0200C5
:10D8B0000378012B08D0022B08D04BB9054B0B6322
:10D8C00001F1180008F0BABE034BF8E7034BF6E786
:10D8D000034BF4E70000AD0B0100AE0B0200AE0BF2
:10D8E0000100AD0B2DE9F04F1D4646688FB0D0F812
:10D8F0001090338B0DF1240B059280460C461422B8
:10D9000000215846D9F838A004930FF06FF98DF82C
:10D9100025504FF0FF324FF0FF33484608F0C8FE65
:10D9200009F11803039300273D46002200230398C2
:10D9300008F0BEFE304604F011FECDF818B0059B8D
:10D940009F4201D3002427E0217A0B0700F1B58024
:10D95000059B07F1010B9B450AD2880708D4237D5C
:10D9600081EA030202F0010203F0040313431DD015
:10D970007DB300236268049805EB020C844517D937
:10D98000D8F8003000900193452113464C482A46B0
:10D990000DF047F96FF01B04304604F007FE4846CF
:10D9A00008F04CFE20460FB0BDE8F08F0123E1E700
:10D9B000C90706D421680AEB050007930FF009F99F
:10D9C000079B62681544ADB2002B39D05F460C341A
:10D9D000B5E7CA071DD5002523680C9363680A9331
:10D9E000237A304603F0010213F0020F8DF8242051
:10D9F00006990CBF2022002204F00CFE314B984205
:10DA000024D00B3398420CBF6FF00F046FF0040466
:10DA1000C2E7216801F06043B3F1005FDBD06268C8
:10DA2000738B934208D24521D8F8003026480DF078
:10DA3000F8F86FF01504AFE750460FF0CAF8A58864
:10DA4000002DC8D0CDF830A00A95C9E74FF4804228
:10DA50000023039808F02CFE70B145213A461B487C
:10DA60000DF0DFF8304604F0A1FDD6E9020105F023
:10DA7000C1F86FF004048FE7D9F83020114B9A42B7
:10DA800005D03B46452112480DF0CBF8F1E7237A4B
:10DA9000DB0701D4002599E70C9B9A45FAD127466C
:10DAA00006E0A91A8DB2F8681AFA81F10FF091F820
:10DAB0007A680C3F9542F4D2ECE76FF085046BE78F
:10DAC00090EF02000000AD0B25F0020090F0020084
:10DAD000BFF002002DE9F0410125046803790E46EC
:10DAE0009D40636827691B681D420AD11449154887
:10DAF00040F2BB420CF0D6FE40F2BB4110480DF0A4
:10DB00006AF83B681D42636818BF86F001061B680F
:10DB10001D420AD10A490B4840F291420CF0C2FE64
:10DB200040F2914106480DF056F836B1A368DB6823
:10DB300029462046BDE8F0411847A3681B69F7E76E
:10DB4000FDF0020074E502002DE9F04F85B0019070
:10DB5000002201210B20FEF7EFFA019B3F4ED3F884
:10DB60001090DFF800A1D9F80840D9E9023203EBA0
:10DB7000C2039C4205D3019B18690DF079FA00207D
:10DB800068E020680EF0D5FE00285AD0D4F8008056
:10DB900094F804B06579D8F808300293D8F80430C6
:10DBA0000393D8F81030009305F03003302B0AD1DE
:10DBB0003146504640F2E1220CF074FE40F2E12181
:10DBC00030460DF008F805F00603042B0AD1314663
:10DBD000504640F2E9220CF065FE40F2E921304661
:10DBE0000CF0F9FF0127039AE807126807FA0BF710
:10DBF00054BF45F4B05585F4D055174225F48053F1
:10DC00000CD140F2FD223146504603930CF04AFEFF
:10DC100040F2FD2130460CF0DEFF039B009AE9073D
:10DC2000126859464CBF174322EA0707009A40463C
:10DC30001760029A15681A46A84700280ADB0834BC
:10DC400093E7226806484521237912680CF0E9FF22
:10DC50006FF0120005B0BDE8F08F00BFFDF00200CC
:10DC600027F1020074E502002DE9F043056985B053
:10DC7000AF6D2C6E8FB9002C4CD100222846114676
:10DC80000DF0D4F92C6405F1280008F0D7FC00232E
:10DC900085F86C3005B0BDE8F0833E4614B1A7426C
:10DCA00028BF2646D5F85480D0F80490B8F1000F6C
:10DCB00032D08FB308F06043B3F1005F2CD0082E50
:10DCC00028BF082605F16E031846324641460EF07D
