:10000000006A0220E98C0000F57E0100BD8C000032
:10001000BD8C0000BD8C0000BD8C00000000000005
:1000200000000000000000000000000075840000D7
:10003000BD8C000000000000E5830000BD8C0000C6
:10004000E9850000E9850000E9850000E9850000F8
:10005000E9850000E9850000E9850000E9850000E8
:10006000E9850000E9850000E9850000E9850000D8
:10007000E9850000E9850000E9850000E9850000C8
:10008000E9850000E9850000E9850000E9850000B8
:10009000E9850000E9850000E9850000E9850000A8
:1000A000E9850000E9850000E9850000E985000098
:1000B000E9850000E9850000E9850000E985000088
:1000C000E9850000E9850000E9850000E985000078
:1000D000E9850000E9850000E9850000E985000068
:1000E000E9850000E9850000E9850000E985000058
:1000F000E9850000E9850000E9850000E985000048
:1001000001F0FF01102A2BDB10F0070F08D010F8C8
:10011000013B013A8B422DD010F0070F42B3F6D1CC
:10012000F0B441EA012141EA014122F007047FF0E5
:1001300000070023F0E80256083C85EA010586EA3C
:10014000010685FA47F5A3FA87F586FA47F6A5FA78
:1001500087F68EB9EED1F0BC01F0FF0102F0070284
:1001600032B110F8013B013A83EA010313B1F8D12F
:100170000020704701387047002D06BF3546033810
:10018000073815F0010F07D1013015F4807F02BF49
:10019000013015F4C03F0130F0BC0138704700BF9A
:1001A00081F0004102E000BF83F0004330B54FEA28
:1001B00041044FEA430594EA050F08BF90EA020F95
:1001C0001FBF54EA000C55EA020C7FEA645C7FEA28
:1001D000655C00F0E2804FEA5454D4EB5555B8BF4B
:1001E0006D420CDD2C4480EA020281EA030382EABC
:1001F000000083EA010180EA020281EA0303362D4E
:1002000088BF30BD11F0004F4FEA01314FF4801C20
:100210004CEA113102D0404261EB410113F0004F32
:100220004FEA03334CEA133302D0524263EB4303E9
:1002300094EA050F00F0A780A4F10104D5F1200E87
:100240000DDB02FA0EFC22FA05F2801841F10001E2
:1002500003FA0EF2801843FA05F359410EE0A5F1B6
:1002600020050EF1200E012A03FA0EFC28BF4CF0E7
:10027000020C43FA05F3C01851EBE37101F000459D
:1002800007D54FF0000EDCF1000C7EEB00006EEBAA
:100290000101B1F5801F1BD3B1F5001F0CD3490834
:1002A0005FEA30004FEA3C0C04F101044FEA44528B
:1002B00012F5800F80F09A80BCF1004F08BF5FEA12
:1002C000500C50F1000041EB045141EA050130BDF2
:1002D0005FEA4C0C404141EB0101013C28BFB1F504
:1002E000801FE9D291F0000F04BF01460020B1FA4F
:1002F00081F308BF2033A3F10B03B3F120020CDA22
:100300000C3208DD02F1140CC2F10C0201FA0CF0FF
:1003100021FA02F10CE002F11402D8BFC2F1200C64
:1003200001FA02F120FA0CFCDCBF41EA0C0190401A
:10033000E41AA2BF01EB0451294330BD6FEA040463
:100340001F3C1CDA0C340EDC04F11404C4F120024E
:1003500020FA04F001FA02F340EA030021FA04F360
:1003600045EA030130BDC4F10C04C4F1200220FAB7
:1003700002F001FA04F340EA0300294630BD21FAF5
:1003800004F0294630BD94F0000F83F4801306BFBB
:1003900081F480110134013D4EE77FEA645C18BFAF
:1003A0007FEA655C29D094EA050F08BF90EA020F46
:1003B00005D054EA000C04BF1946104630BD91EA3E
:1003C000030F1EBF0021002030BD5FEA545C05D141
:1003D0004000494128BF41F0004130BD14F5800480
:1003E0003CBF01F5801130BD01F0004545F0FE41F4
:1003F00041F470014FF0000030BD7FEA645C1ABF29
:10040000194610467FEA655C1CBF0B46024650EA5F
:10041000013406BF52EA033591EA030F41F400218B
:1004200030BD00BF90F0000F04BF0021704730B511
:100430004FF4806404F132044FF000054FF00001E6
:1004400050E700BF90F0000F04BF0021704730B5A7
:100450004FF4806404F1320410F0004548BF40427C
:100460004FF000013EE700BF42004FEAE2014FEAD1
:1004700031014FEA02701FBF12F07F4393F07F4FAC
:1004800081F06051704732F07F4208BF704793F0AF
:100490007F4F04BF41F40021704730B54FF46074C2
:1004A00001F0004521F000411CE700BF50EA0102C5
:1004B00008BF704730B54FF000050AE050EA01026E
:1004C00008BF704730B511F0004502D5404261EBDE
:1004D00041014FF4806404F132045FEA915C3FF41F
:1004E000D8AE4FF003025FEADC0C18BF03325FEABC
:1004F000DC0C18BF033202EBDC02C2F1200300FA6D
:1005000003FC20FA02F001FA03FE40EA0E0021FA91
:1005100002F11444BDE600BF70B54FF0FF0C4CF47F
:10052000E06C1CEA11541DBF1CEA135594EA0C0F31
:1005300095EA0C0F00F0DEF82C4481EA030621EA6C
:100540004C5123EA4C5350EA013518BF52EA0335A7
:1005500041F4801143F4801338D0A0FB02CE4FF059
:100560000005E1FB02E506F00042E0FB03E54FF089
:100570000006E1FB03569CF0000F18BF4EF0010E81
:10058000A4F1FF04B6F5007F64F5407404D25FEA7D
:100590004E0E6D4146EB060642EAC62141EA555130
:1005A0004FEAC52040EA5E504FEACE2EB4F1FD0C72
:1005B00088BFBCF5E06F1ED8BEF1004F08BF5FEAF0
:1005C000500E50F1000041EB045170BD06F00046A2
:1005D00046EA010140EA020081EA0301B4EB5C044F
:1005E000C2BFD4EB0C0541EA045170BD41F4801147
:1005F0004FF0000E013C00F3AB8014F1360FDEBF6C
:10060000002001F0004170BDC4F10004203C35DA47
:100610000C341BDC04F11404C4F1200500FA05F3CA
:1006200020FA04F001FA05F240EA020001F000426B
:1006300021F0004110EBD37021FA04F642EB0601E1
:100640005EEA430E08BF20EAD37070BDC4F10C040B
:10065000C4F1200500FA04F320FA05F001FA04F2CF
:1006600040EA020001F0004110EBD37041F10001BB
:100670005EEA430E08BF20EAD37070BDC4F12005C6
:1006800000FA05F24EEA020E20FA04F301FA05F22E
:1006900043EA020321FA04F001F0004121FA04F2D6
:1006A00020EA020000EBD3705EEA430E08BF20EAA6
:1006B000D37070BD94F0000F0FD101F000464000E0
:1006C00041EB010111F4801F08BF013CF7D041EA62
:1006D000060195F0000F18BF704703F00046520066
:1006E00043EB030313F4801F08BF013DF7D043EA37
:1006F0000603704794EA0C0F0CEA135518BF95EAED
:100700000C0F0CD050EA410618BF52EA4306D1D173
:1007100081EA030101F000414FF0000070BD50EA92
:10072000410606BF1046194652EA430619D094EA1C
:100730000C0F02D150EA013613D195EA0C0F05D106
:1007400052EA03361CBF104619460AD181EA03015A
:1007500001F0004141F0FE4141F470014FF0000012
:1007600070BD41F0FE4141F4780170BD70B54FF0AD
:10077000FF0C4CF4E06C1CEA11541DBF1CEA13552D
:1007800094EA0C0F95EA0C0F00F0A7F8A4EB05040F
:1007900081EA030E52EA03354FEA013100F0888006
:1007A0004FEA03334FF0805545EA131343EA1263CF
:1007B0004FEA022245EA111545EA10654FEA002684
:1007C0000EF000419D4208BF964244F1FD0404F53D
:1007D000407402D25B084FEA3202B61A65EB030599
:1007E0005B084FEA32024FF480104FF4002CB6EB56
:1007F000020E75EB030E22BFB61A754640EA0C00D6
:100800005B084FEA3202B6EB020E75EB030E22BF15
:10081000B61A754640EA5C005B084FEA3202B6EB56
:10082000020E75EB030E22BFB61A754640EA9C0015
:100830005B084FEA3202B6EB020E75EB030E22BFE5
:10084000B61A754640EADC0055EA060E18D04FEAA3
:10085000051545EA16754FEA06164FEAC30343EA43
:1008600052734FEAC2025FEA1C1CC0D111F4801F10
:100870000BD141EA00014FF000004FF0004CB6E709
:1008800011F4801F04BF01430020B4F1FD0C88BFA8
:10089000BCF5E06F3FF6AFAEB5EB030C04BFB6EBB3
:1008A000020C5FEA500C50F1000041EB045170BDA6
:1008B0000EF0004E4EEA113114EB5C04C2BFD4EBD3
:1008C0000C0541EA045170BD41F480114FF0000E57
:1008D000013C90E645EA060E8DE60CEA135594EAD3
:1008E0000C0F08BF95EA0C0F3FF43BAF94EA0C0FD6
:1008F0000AD150EA01347FF434AF95EA0C0F7FF44B
:1009000025AF104619462CE795EA0C0F06D152EA9E
:1009100003353FF4FDAE1046194622E750EA410682
:1009200018BF52EA43067FF4C5AE50EA41047FF493
:100930000DAF52EA43057FF4EBAE12E74FF0FF3CF8
:1009400006E000BF4FF0010C02E000BF4FF0010CC9
:100950004DF804CD4FEA410C7FEA6C5C4FEA430C42
:1009600018BF7FEA6C5C1BD001B050EA410C0CBF91
:1009700052EA430C91EA030F02BF90EA020F0020F3
:10098000704710F1000F91EA030F58BF994208BF5A
:1009900090422CBFD8176FEAE37040F00100704717
:1009A0004FEA410C7FEA6C5C02D150EA013C07D16E
:1009B0004FEA430C7FEA6C5CD6D152EA033CD3D0B9
:1009C0005DF8040B704700BF8446104662468C46B3
:1009D0001946634600E000BF01B5FFF7B7FF0028E6
:1009E00048BF10F1000F01BD4DF808EDFFF7F4FF0F
:1009F0000CBF012000205DF808FB00BF4DF808ED9A
:100A0000FFF7EAFF34BF012000205DF808FB00BFBC
:100A10004DF808EDFFF7E0FF94BF012000205DF8DE
:100A200008FB00BF4DF808EDFFF7CEFF94BF012093
:100A300000205DF808FB00BF4DF808EDFFF7C4FF8C
:100A400034BF012000205DF808FB00BF4FEA4102DF
:100A5000B2F1E04324BFB3F5001CDCF1FE5C0DD91C
:100A600001F0004C4FEAC0024CEA5070B2F1004F66
:100A700040EB830008BF20F00100704711F0804F69
:100A800021D113F13872BCBF01F00040704741F42E
:100A900080114FEA5252C2F11802C2F1200C10FA32
:100AA0000CF320FA02F018BF40F001004FEAC12316
:100AB0004FEAD32303FA0CFC40EA0C0023FA02F3BA
:100AC0004FEA4303CCE77FEA625307D150EA013390
:100AD0001EBF4FF0FE4040F44000704701F0004060
:100AE00040F0FE4040F40000704700BF7BB972B98F
:100AF0000029BEBF00204FF0004106E008BF0028DB
:100B00001CBF6FF000414FF0FF3000F075B8ADF141
:100B1000080C6DE904CE002909DB002B1ADB00F07C
:100B2000E2F8DDF804E0DDE9022304B0704740425A
:100B300061EB4101002B1BDB00F0D5F8DDF804E090
:100B4000DDE9022304B0404261EB4101524263EB14
:100B500043037047524263EB430300F0C4F8DDF8EF
:100B600004E0DDE9022304B0404261EB410170473B
:100B7000524263EB430300F0B6F8DDF804E0DDE930
:100B8000022304B0524263EB4303704753B94AB99E
:100B9000002908BF00281CBF4FF0FF314FF0FF3085
:100BA00000F02AB8ADF1080C6DE904CE00F09BF816
:100BB000DDF804E0DDE9022304B07047D0B50C4B4A
:100BC000002206460F46FFF7A7FC00F017F8044680
:100BD000FFF728FC074B0022FFF79EFC02460B465E
:100BE00030463946FFF7E0FA00F008F82146D0BD5C
:100BF0000000F03D0000F041704700BF4A0011D2F4
:100C000012F5001211D20DD56FF47873B3EB625266
:100C10000ED44FEAC12343F0004343EA505323FA72
:100C200002F070474FF00000704750EA013002D1E7
:100C30004FF0FF3070474FF0000070474FEA410C13
:100C40007FEA6C5C02D150EA013C0AD14FEA430CC6
:100C50007FEA6C5C02D152EA033C02D14FF0000003
:100C600070474FF0010070474FEA410212F5001241
:100C700015D211D56FF47873B3EB625212D94FEAE3
:100C8000C12343F0004343EA505311F0004F23FACD
:100C900002F018BF404270474FF00000704750EA22
:100CA000013005D111F0004008BF6FF000407047DF
:100CB0004FF00000704700BF38B500220023044603
:100CC0000D46FFF79BFE28B920462946BDE838406F
:100CD000FFF774BF204605F10041FFF76FFF404268
:100CE00061EB410138BD2DE9F04F099E88468E46E3
:100CF000154604461946002B40F0C7804245B2FA1B
:100D000082F746D94FB1C7F1200C08FA07F320FA51
:100D10000CFCBD404CEA030EBC404FEA15481FFADC
:100D200085FCBEFBF8F9220C08FB19E309FB0CFA61
:100D300042EA03439A4528D9EB1809F1FF3004D25F
:100D40009A4502D9A9F102002B44A3EB0A03A4B2ED
:100D5000B3FBF8F208FB123302FB0CFC44EA034439
:100D6000A44514D92C1902F1FF3303D2A44501D9AB
:100D7000931E2C44A4EB0C0443EA00401EB1FC403B
:100D8000002334607360BDE8F08F4846DDE713460A
:100D9000F0E702B9FFDE8FBBA8EB020301214FEAA7
:100DA000154EAAB2B3FBFEFC200C0EFB1C330CFB51
:100DB00002F840EA0343984563D9EB180CF1FF3081
:100DC00004D2984502D9ACF102002B44A3EB0803EE
:100DD000A4B2B3FBFEFC0EFB1C330CFB02F244EA94
:100DE0000344A2424FD92C190CF1FF3304D2A24282
:100DF00002D9ACF102032C44A41ABDE7C7F1200CC0
:100E000028FA0CF908FA07F320FA0CFCBD404CEA6A
:100E100003024FEA154EABB2B9FBFEFC110C0EFB00
:100E20001C900CFB03F841EA0040804504FA07F4EB
:100E300023D928180CF1FF3104D2804502D9ACF136
:100E400002012844A0EB080092B2B0FBFEFC0EFBAE
:100E50001C000CFB03F842EA004398450FD9EB183D
:100E60000CF1FF3204D2984502D9ACF102022B44B6
:100E7000A3EB080342EA014191E76146E2E76246DB
:100E8000F6E76046A2E76346B6E7434505D90EB1EB
:100E9000C6E900080021084675E7B3FA83FCBCF1F7
:100EA000000F10D1434501D382420AD8841A68EB5F
:100EB000030301209E46002E68D0C6E9004E0021A3
:100EC00061E76046F7E7CCF1200E03FA0CF322FA53
:100ED0000EF41C4320FA0EF108FA0CF328FA0EFB6C
:100EE00019434FEA144902FA0CF5BBFBF9F8A3B217
:100EF00009FB18BB0A0C08FB03FA42EA0B429245B5
:100F000000FA0CF73ED9A21808F1FF3004D292453E
:100F100002D9A8F102002244A2EB0A0289B2B2FB74
:100F2000F9F809FB182208FB03F341EA0242934255
:100F30002AD9A21808F1FF3104D2934202D9A8F1AC
:100F40000201224441EA0040A0FB0598D21A424522
:100F50004B46414602D306D14F4504D2B9EB0503B7
:100F600068EB040101388EB1FC1A62EB010707FA45
:100F70000EFE24FA0CF34EEA030327FA0CF7C6E937
:100F800000379CE74046C7E74146DBE73146FAE6D3
:100F900010F8012B11F8013B012A28BF9A42F7D023
:100FA000D01A7047034613F8012B002AFBD1181AF8
:100FB00001387047000000002DE9F04F2DED028B45
:100FC0009FEDAB8B9BB081468A4615461C4600269A
:100FD000287810B9304600F0CBBD6B1C2528029351
:100FE00006D05146C8470028C0F2C28501362EE21D
:100FF000182200210CA81AF0AEFE6B78252B59D0D0
:101000006A1C174612F8013B2B2B00F08B8079D815
:10101000202B00F08C80232B00F08E809DF8383040
:1010200003F04402442A03D16FF386138DF838305D
:101030009DF838300A9743F080038DF838303B78BC
:101040002A2B7ED19DF8393043F001038DF83930D9
:101050007B1C0A931A782E2A9DF839200CBF012197
:10106000002161F341028DF839200BD15A1C0A92FC
:101070005A782A2A7BD19DF8392042F004028DF853
:1010800039200233194611F8010B6C2800F0CF808B
:101090007DD8682800F084806A2800F0D2804C282F
:1010A00000F0D6809DF839206FF3C6028DF8392004
:1010B000194680E0AA1C02928DF83B309DF8393029
:1010C000DF0740F1788154F804BBBBF1000F07DA69
:1010D0009DF8382042F004028DF83820CBF1000B47
:1010E000580740F1718154F8048BB8F1000F80F279
:1010F00070819DF839306FF341038DF839304FF02E
:10110000FF3866E12D2B06D0302B87D19DF8383083
:1011100043F0400303E09DF8383043F004038DF8BA
:1011200038306EE79DF8383043F00803F7E79DF854
:10113000383043F01003F2E79DF8383043F02003D5
:10114000EDE70AA805F0B4FC0A9BBB4281D09DF8EC
:1011500038700F90C7F3400141EAD072520062F03C
:101160007F0207F07D010A438DF8382071E70AA855
:1011700005F09EFC9DF838301090C3F3400242EA1F
:10118000D07060F341038DF838300A9B7AE77428F9
:101190009DF8392059D07A2884D11346062241E09F
:1011A0005A78682A9DF839203AD1012161F3C602A4
:1011B0008DF83920991C0B4613F8012B0293782ADD
:1011C0008DF83B2000F2CD80572A55D8412A04D013
:1011D000A2F14503022B00F2C4809DF83A300421AD
:1011E00061F302038DF83A3002F0DF03A3F1410806
:1011F0009DF83920D8F1000343EB080363F3C712CD
:101200008DF83920D3B2120600F1D38003F07802B2
:10121000182A40F0A3806FF3C6038DF839308AE0B6
:101220001346022262F3C6038DF83930C3E75A78B9
:101230006C2A9DF8392001D10421B7E71346032217
:10124000F0E79DF839300522ECE713460722E9E77D
:10125000BDF8383023F4F04323F0020343F4804315
:1012600043F00203ADF83830A5E700BFAFF30080CC
:101270000000000000000008A2F15803202B70D8E5
:1012800001A151F823F000BF3B13000063130000DD
:101290006313000063130000631300006313000076
:1012A000631300006313000063130000DB110000F0
:1012B000631300003B1300000D130000DB1100005E
:1012C000DB110000DB110000631300000D130000B0
:1012D0006313000063130000631300006313000036
:1012E000711300003B13000095130000631300000E
:1012F0006313000095130000631300003B1300000C
:1013000063130000631300003B1300009DF83A30A4
:10131000012161F302038DF83A309DF8393003F072
:101320007803402B02BF9DF8381041F001018DF881
:101330003810632A05D0002306E09DF83A300221D8
:10134000E7E7003B18BF01239DF83820C2F34001B6
:101350000B4363F341028DF83820AFE613F0380FEA
:10136000E9D09DF8383043F001038DF83830E2E7DA
:101370009DF83A30032262F302038DF83A309DF86B
:10138000393003F07803A3F1400CDCF1000343EBA8
:101390000C03D9E79DF83A30032262F302038DF87B
:1013A0003A309DF8393013F0780F14BF0123002331
:1013B000CAE70123C8E79DF93820002AB4BFDDF849
:1013C0003CB04FF0FF3B8BE699077FF598AEDDF818
:1013D00040809DF839100023CDE90F339DF83A3055
:1013E00003F00702042A09D18A0707D49DF939209E
:1013F000002AB4BF4FF00D084FF0060803F00703B2
:10140000012BC1F3C30137D1CB1E042B21D8DFE858
:1014100003F003090920200054F8043BDA17CDE952
:101420000C3206E0073424F00704F4E80223CDE987
:101430000C239DF83870BB0756D0029B2A465146B4
:10144000484616F0E4FB0028C0F292830644029D51
:10145000BEE554F8043B01294FEAE372CDE90C32B2
:1014600005D19DF830300C9300230D93E1E702295C
:10147000DFD1BDF93030D1E7022B23D1CB1E042BB5
:1014800013D8DFE803F0030A0A12120020680C9058
:101490000022231D0D921C46CBE7E31D23F007031A
:1014A000B3EC027B8DED0C7BF5E754F8043B0C9319
:1014B00001294FF000030D93D3D00229B9D1BDF813
:1014C0003030D0E7042B09D1E31D23F0070303F1EB
:1014D0000804D3E90023CDE90C23AAE7032B04BFBA
:1014E00054F8043B0C93A4E79DF83B20782AAED82F
:1014F000572A00F28C80252A00F0D480242AA6D90D
:10150000412A03D0A2F14503022BA0D8DDE90C1338
:10151000002BC0F2B781380700F1B68117F0100731
:1015200018BF2027C3F30A55C3F31303CDE90813EB
:10153000002D40F0AB8151EA030014BF01200020D0
:10154000DB0243EA5153C902462A45EA010E43EA47
:10155000E57C08BF66225EEA0C0CCDE9081300F0BA
:101560000382002840F0CB81DDE908014FF0000C38
:1015700041F00041A5F2FE35099163464FF0050E9A
:1015800015F1020FC0F2C281BCF1000F01D0CDE90C
:101590000801002DDDE9080100F3CD8109980899C3
:1015A000C5F1040C1C3500FA05F5ACF1200E21FA4A
:1015B0000CF120FA0EFE294341EA0E0120FA0CF04C
:1015C000CDE9081002F0DF01472940F0D481DD1C8D
:1015D00002DB984580F2CB81023AB8F1000FD2B21B
:1015E00001DD08F1FF389DF83810880600F1C3814D
:1015F000B8F1000FD4BF00210121662A039140F009
:10160000BC8113EB080140F1BA810021BAE1A2F1DB
:101610005803202B3FF61BAF01A050F823F000BF6A
:10162000271800004F1400004F1400004F14000052
:101630004F1400004F1400004F1400004F1400001E
:101640004F1400000D1500004F140000D1160000CB
:10165000C71700000D1500000D1500000D15000046
:101660004F140000C71700004F1400004F14000073
:101670004F1400004F1400005D18000027180000F0
:101680002B1800004F1400004F140000AB16000090
:101690004F140000271800004F1400004F140000E2
:1016A00027180000514610469CE4B8F1000F0C9A30
:1016B00009DB4146104603921AF0CCFC039A00273E
:1016C000151862B9C3E610460392FFF76BFCF5E705
:1016D0000C9B8DF84C3000270DF14D0513AAAB1A69
:1016E00007B101339DF83A00C10640F1358202335B
:1016F0000F9940060B4444BF10995B18BBF1000FD3
:1017000023DDABEB030B9DF838305907C3F380089A
:101710001BD4580640F13682002F00F03682514625
:1017200038460392C8470028C0F22282039A4746EF
:1017300001364FF030085E445B46002BA6EB0B00F1
:101740000BF1FF3B00F30C82064647B15146384689
:101750000392C8470028C0F20B82039A01369DF815
:101760003A30590640F165829DF93930002BA6EBDD
:10177000020680F219821746B846F31917F8010BD2
:10178000702840F00582109F1E461F44BB1B002B93
:1017900000F348822B4642465146484616F037FA37
:1017A0000028C0F2E581304406468344ABEB0603D3
:1017B000002B7FF74CAE51462020C8470028C0F2CE
:1017C000D7810136F2E73D072BD417F0100718BF79
:1017D0002027DDE90C23002B05DA524263EB43039B
:1017E000CDE90C232D270DF1650300930EAADDE949
:1017F0000C0113AB05F072F90246B8F1000F0DF1C0
:101800006505FFF65EAF9DF83810AB1A6FF38611D1
:1018100098458DF838107FF654AFA8EB03030F936B
:101820004FE72B27D5E70027DDE70C98002800F0CD
:101830008F810DF1650300930EAA13AB002105F013
:101840004DF9BDF83A3003F0EF0343F4F04343F0B1
:1018500010030246ADF83A300027CEE70C9B07296B
:101860003FF6F5ADDFE801F00C04060C08080C0C9F
:101870001E70ECE51E80EAE5F217C3E90062E6E5BA
:101880001E60E4E52D274DE62B274BE640F2FF7066
:10189000854231D10132B948D2B20B43125C02F019
:1018A00003021BD1012A11D149238DF84C304E235C
:1018B0008DF84D3046238DF84E309DF838306FF35B
:1018C00086138DF838300DF14F0507E769238DF841
:1018D0004C306E238DF84D306623ECE7012A07BFAC
:1018E0004E2341226E2361220CBF8DF84C308DF8BF
:1018F0004C308DF84D20DEE7002021E6013D4918EF
:101900005B41002BFADACDE908132DE6400840EAE6
:10191000C1704908B1F1333FAC4605F10105F5D27C
:101920000EFB01F5A0FB0E012944013B0CF1020561
:101930004FF0010C24E6023041F10001CDE908012D
:1019400008A8CDE9032316F033F9049B039ADDE9D7
:101950000810013D013349184041002805F1FF35C9
:10196000F9DACDE9081014E600231D4616E6A8EBC7
:101970000308662237E600213FE608F1010110293D
:10198000A8BF10218DED0A8B102007900D46DDE9D0
:101990000A01A5B9089D4019099D41EB0501B1F166
:1019A000805F1BD2CDE90801662A40F09980002BA8
:1019B00023DC30218DF84C100DF14D052FE040084F
:1019C00040EAC1704908CDE90A010AA8CDE904231B
:1019D000013D16F0EDF8DDE90423D8E7400840EAC0
:1019E000C1704908CDE9080108A8CDE9042316F023
:1019F000DFF8059B049A0133D6E713AD0799002958
:101A00000BDD07A908A8CDE9042316F0E9F8059B2A
:101A100005F8010B013B049AF0D10F9300239DF8C8
:101A20003810890602D4B8F1000F1DDD2E2105F80B
:101A3000011B9BB1B8F1000F16DD59424145A8BF0B
:101A400041469DF83A000F910029A8EB0108D4BF48
:101A50000021012161F345108DF83A00B8F1000F23
:101A600002DD0799002956DC0399002963D1CDF8DE
:101A7000408002F0DF01452921D1002B2946B8BF63
:101A80005B4201F8022BB4BF2D222B22632B6A701C
:101A900009DD6420B3FBF0F202F1300CE91C85F89B
:101AA00002C000FB12330A200D46B3FBF0F200FB2C
:101AB000123302F1300C303305F802CB4B700F9B20
:101AC000002B43DC109B002BD4BF002301239DF887
:101AD0003A2063F3861200238DF83A202B70FDE53F
:101AE00007A908A8CDE9042316F07AF8DDE9042354
:101AF0009DF838108DF84C00302818BF03F1FF33E3
:101B0000880602D4B8F1000F12DD2E218DF84D1099
:101B10000DF14E05A2E707A908A8CDE9042316F0A8
:101B20005FF808F1FF38DDE9042305F8010B95E7BC
:101B30000DF14D0598E700211091284615F8011D7B
:101B40003029FAD02E2918BF054692E70123BEE7B7
:101B50000B4D07466A1FC2E5010748BF0133C7E5C1
:101B6000514640460392C8470028039ABFF6E4ADA9
:101B70001BB0BDEC028BBDE8F08F00BF6FED030022
:101B800062BF03004FF02008D5E54FF03008D2E5E2
:101B90005146C8470028BFF6EFADE9E7514603922A
:101BA000C8470028039AE3DB1078374BC35C5B0718
:101BB000174606EB020802F10102EFD49DF83A3015
:101BC0000F9E990607D4B044002EA8EB060206F13A
:101BD000FF360FDC904638782E2808D15146C8478A
:101BE0000028C5DB002E08F1010809DC0137A8EB4D
:101BF00007060EE051463020C8470028E4DAB7E770
:101C000051463020C847013EEAE75146C847002800
:101C1000AEDB1D4AB846F31917F8010B125C5207E8
:101C2000F3D4B0E551463020C8470028A0DB013688
:101C3000ACE5D80601D4190707D5514630200392E8
:101C4000C847002894DB039A01369DF83A30DB063A
:101C500008D59DF83B0003925146C847002887DB12
:101C6000039A01360F9F3744BB1B002B01DC2B4628
:101C700092E5514630200392C8470028FFF678AF1E
:101C8000039A0136F0E700BF70ED0300000000008A
:101C90002DE9F043494207EE901A2DED068BB8EE80
:101CA000E78AF2EE087A78EE277AF7EE008AC8EE35
:101CB000A79A3AA7D7E9006783B0044600259FEDAD
:101CC000309A9FED30AAD4E901325343AB424FD949
:101CD000236803EB85034FEA8508D3F80090484654
:101CE000FEF7C2FB32463B46FEF788FE00EE109A36
:101CF000002818BFB0EE490A19F0A5FF01A813F09B
:101D000001FCDFED217ADFED216A9FED217AE0EE23
:101D10000A7AE0EE276AF0EE477AE0EE267A9DED49
:101D2000017AB8EEC77AF2EE046A37EE277ADFED71
:101D3000197A27EE277AF0EE487AE7EE267A69EEEE
:101D4000A77AF5EEC07AF1EE10FA0ED4F4EE687AC6
:101D5000F1EE10FAB7EE007AC8BFF0EE477A2368CA
:101D60004344C3ED007A0135ADE7DFED0B7AF6E7CA
:101D7000002003B0BDEC068BBDE8F083AFF300801C
:101D80006042A20DA8A19D3FF5CA83C0FBB3C0402D
:101D9000E09248C09B209A3E00000000A0C2EBFEEB
:101DA0004B48B4390000000030B52DED048BD0E96C
:101DB00001218FB003684A4302A8012116F0C7FB36
:101DC00001220023114606A816F0C1FB069B002B3A
:101DD0007DD0039A079B9A427BD1089B012B78D137
:101DE0000024039BA34210D90499029801FB04F537
:101DF0000AAB01AA00EB850016F092FF069B019A40
:101E000003EB840301341A60EBE70122002311463F
:101E10000AA816F09CFB0A9B002B54D0039A0B9B3C
:101E20009A4252D10C9B012B4FD10024039BA34219
:101E300010D90499029801FB04F501AB6A4600EB46
:101E4000850016F054FF0A9B009A03EB84030134CB
:101E50001A60EBE7069BD3ED009A0A9B93ED008A8C
:101E600038EE698AB7EE009A18EE100AFEF7FCFA0F
:101E70001BA3D3E90023FEF7C1FD08BBC9EE088A06
:101E800002A8B0EE690A16F078FB044650B9F4EEE9
:101E9000498AF1EE10FA05D0B0EE680A02A808F0FF
:101EA0007FFF04460AA816F0BDFA06A816F0BAFA93
:101EB00002A816F0B7FA20460FB0BDEC048B30BD77
:101EC000F0EE498ADCE7044CECE7044CEAE7024C0C
:101ED000EBE7024CE9E700BF16FCFFFF14FCFFFF35
:101EE000FCA9F1D24D62503F2DE9F04F2DED028B50
:101EF000074685B0D8000D461646984616F00CFEEB
:101F0000044660B103AB0093002330461A461946DD
:101F100000F0CAFB064620B9204616F001FE26480E
:101F200040E0394622460EF043FE9FED218B2746C6
:101F30004FF00009C14507F108072CD057F8080CED
:101F4000FEF792FAB0EE481AF0EE681A41EC100B68
:101F500013F022FB57F8040C5BEC10ABFEF784FA8D
:101F6000B0EE481AF0EE681A41EC100B13F014FBB7
:101F700052465B4651EC100BFEF718F941EC100B82
:101F800013F0B8FB51EC100BFEF760FD09F10109ED
:101F900045F8040BCEE7304616F0C2FD204616F099
:101FA000BFFD002005B0BDEC028BBDE8F08F00BF87
:101FB000000000000000004016FCFFFF00000000D1
:101FC0002DE9F04790B08046189C670807F1010999
:101FD00099450D4616467ED100232246012102A8CE
:101FE00016F0B5FA0298002873D0A54228BF2546FE
:101FF0004FEA850A5246414619F072FE0298621B6A
:1020000092000021504419F0A6FE202C20D0402C34
:102010001ED0802C1CD0B4F5807F19D0B4F5007F81
:1020200016D0B4F5806F13D0B4F5006F10D0B4F5AE
:10203000805F0DD002984B4622463146FFF754FF91
:10204000054602A816F0EEF9284610B0BDE8F08764
:10205000A1B20AA80EF0DCFE05460028F1D1034625
:102060002246012106A816F072FA069A2AB906A895
:1020700016F0D8F9A5F2EA35E3E72B4602990AA84B
:1020800016F0F0FD069B1A6832605A680FF2580984
:10209000D9E9008906EB870301241A600436A742B8
:1020A00013D9069801AA00EBC40002210EF0EAFE43
:1020B0000198FEF7D9F942464B46FEF72DFAFEF796
:1020C000C5FC013446F8040BE9E706A816F0AAF9A6
:1020D000B7E7034DB5E7034DB6E700BFAFF30080A8
:1020E00016FCFFFF11FCFFFFCD3B7F669EA0F63F75
:1020F0002DE9F04F2DED028B93B0CDE9002305467D
:102100000E46002900F0F8804068AA6801394F1097
:1021100021F001010023014402A816F018FA029BE5
:10212000002B00F0E780BFB23B463A4602A92846A2
:1021300009F046F80446002873D1034604990122A9
:1021400006A816F004FA069B002B00F0D180234667
:10215000049901220AA816F0FAF90A9B002B00F054
:10216000C5806B68A34267D9049A029B02FB04F105
:1021700003EB81030EA8314616F0E9F9DDF838804B
:10218000B8F1000F43D0109A079B9A4252D1089B96
:10219000012B4FD10699DDF83CA04FEA82098E460B
:1021A00000239A420FD0DFED587A08EB83004FF0FE
:1021B000000CE2451CD090ED007A0CF1010C77EE9A
:1021C000877A4844F5E7A8688300634301EB800001
:1021D0005B1A884216D02A6801EB030C6244B1EC0A
:1021E000017AD2ED007A77EEC77AC2ED007AF0E795
:1021F00007EE10AAF8EE476A013387EEA67AAEEC36
:10220000017ACEE70EA816F00DF90134A9E73F4C8C
:102210000EA816F007F90AA816F004F906A816F099
:1022200001F902A816F0FEF8204613B0BDEC028BAF
:10223000BDE8F08F364CEBE73B463A4602A928460C
:1022400008F0BEFF04460028E5D180466B68434590
:1022500044D9049A029B02FB08F103EB81030EA808
:10226000314616F074F90E9B93B3009B53B30AA941
:102270000EA809F0C9F8074658BB049F2B68DDF883
:1022800028A0BF0008FB07395744BA451AD0D9F82F
:1022900000005AF804BBFEF7E7F841EC180B58466B
:1022A000FEF7E2F816A3D3E90023FDF77FFF02460D
:1022B0000B4651EC180BFEF759FAFEF7C7FB49F82D
:1022C000040BE2E70EA816F0ADF808F10108BDE72F
:1022D0000E4F0EA816F0A6F83C469CE7019B002B7B
:1022E00099D02846FFF760FD044694E7074C92E733
:1022F000064C93E7054C94E70C4695E7AFF3008056
:10230000BBBDD7D9DF7CDB3D0000000016FCFFFF22
:1023100014FCFFFF000000002DE9F04F2DED068BAF
:102320008E1C8FB04FEA860908EE903A04469DF85D
:102330008030029148461546039316F0EDFB0746A0
:1023400078B36368029A934240F09C81A268AA42E3
:1023500040F098815A430021206819F0FCFCDDED23
:102360001E7AB8EE678AB0EE480A09F0A1F8DDEDF2
:102370001F7AB8EE679AF0EE409AB0EE490A09F07B
:1023800097F83046F0EE400A3946B0EE690A16F08A
:10239000AEF8484616F0C0FB064620B9384616F09F
:1023A000BFFBBB4869E1DFEDBB9A9FEDBBAA4FF0D5
:1023B000000A029B03F101081FFA8AF3984534DBF7
:1023C00007EB830292ED000A019380EE290A06EBE7
:1023D000830B13F0C3F9019BF7EE007A30EE670A26
:1023E00020EE0A0AB4EE408AF1EE10FAC8BFB0EE51
:1023F000480AB4EE409AF1EE10FA48BFB0EE490A2E
:10240000984504D08BED000A0AF1010AD1E710EEDD
:10241000100AFEF729F89CA3D3E90023FDF7C4FEB8
:10242000FEF714FBCBF80000EEE7384616F078FB19
:10243000484616F071FB074608B93046AFE701354C
:1024400007EE905AF8EE688AB8EEE78A4FF0000976
:1024500006EB890393ED000A28EE000A80EE280AB5
:1024600013F00EF8BDEEC00A10EE103A47F829300E
:1024700009F101091FFA89F9C845E9DA304616F071
:102480004FFBDFF818B2B8460025029BAB4240F282
:10249000E980D8F8003001936B1C0493D8F80860E9
:1024A000019B98ED018AA6EB030909F101020121C4
:1024B000002306A8059216F04AF8DDE9052108F187
:1024C000040819B906A815F0ADFF6AE7DDED017A39
:1024D0000592F8EEE78A07EE906AB8EEE79A1046A2
:1024E000F0EE490AB0EE680A16F001F80121059AEB
:1024F000DDF818A000230AA816F029F80A99002987
:1025000046D0019A18EE10EAAEEB020E18EE102A31
:102510000AF1040CB61A059A0B4650460CEB890CCE
:10252000844531D0D0ED007AF4EEE78AF1EE10FA6E
:1025300010D5B8EEC87AF4EEC77AF1EE10FA09D8E1
:1025400007EE10EA77EEE87AF8EEC76A87EEA67A29
:1025500083ED007AF0EC017AB4EEE79AF1EE10FA2E
:1025600010DDB8EEC87AF4EEC77AF1EE10FA09DBA6
:1025700007EE106A79EE677AF8EEC76A87EEA67AF8
:1025800083ED007A0433CBE79200504619F0A8FBA4
:102590000AA815F047FF0022F7EE006A91455CDBC0
:1025A0000199A3688818039999B905FB0300069B54
:1025B0003A4903EB8203D3ED007A236818440023E1
:1025C000B1EC017AF4EE477AF1EE10FA05D1DBB204
:1025D0003CE0636803FB0050E9E70133EF2BEFD1E8
:1025E000F5EEC07AF1EE10FA33D4F4EEE67AF1EEBD
:1025F00010FA30DCEE230021CE1876100BEB860C9F
:102600009CED007AF4EEC77AF1EE10FA15D5731E40
:102610008B42F1DA0BEB810696ED007A0BEB830629
:1026200096ED006A37EE677A77EEC67AB4EEE77A0F
:10263000F1EE10FACBD5CBB208E001DD711CE7E773
:10264000FCEEC77ACDED057A9DF8143003700132A7
:10265000A4E70023FAE70123F8E706A815F0E2FE55
:10266000049D12E7039B23B1D4E901329BB262605F
:10267000A360384616F054FA00200FB0BDEC068B6C
:10268000BDE8F08F0648F8E7FCA9F1D24D62503F53
:1026900016FCFFFF00E08C4400002F441CD7010013
:1026A00014FCFFFF000000002DE9F04F2DED028B20
:1026B00085B0002510F0010A8B4614461F4603958D
:1026C00009D063480EF0E4FA2C46204605B0BDEC74
:1026D000028BBDE8F08F451003ABCDF800A0524649
:1026E000284600F0B9F805EB4506039B06EBD676C5
:1026F00076100C3303EBC606002F58D1304616F087
:102700000BFA0446002CE0D0039B04F10C021344A6
:10271000636003EBC503A360002322605946009366
:10272000284603AB05EBD57700F096F87F10BBF198
:10273000000F42D057457DDD0AF1010A5046FDF7F2
:1027400081FE804628468946FDF77CFE02460B4600
:1027500040464946FEF70AF83E4B0022FDF726FDAB
:1027600037A3D3E90023FDF7D7FE41EC100B41EC72
:10277000180B00F005FC4FEACA08A36851EC100BD7
:10278000A8F1080803EB0809FEF760F9B0EE480A63
:10279000F0EE680AC9F8000000F0C6FCA36851EC2E
:1027A000100B9844FEF752F9C8F80400C2E73B68E2
:1027B0003E60B342A6D2544687E75F453ADD0BF14F
:1027C000010B5846FDF73EFE804628468946FDF738
:1027D00039FE02460B4640464946FDF7C7FF1D4BF2
:1027E0000022FDF7E3FC18A3D3E90023FDF794FED4
:1027F00041EC100B41EC180B00F0C2FB4FEACB0888
:10280000A36851EC100BA8F1080803EB0809FEF7C8
:102810001DF9B0EE480AF0EE680AC9F8000000F0B1
:1028200083FCA36851EC100B9844FEF70FF9C8F82D
:102830000400C2E7109B002B3FF447AF1E6044E743
:10284000182D4454FB210940182D4454FB2109C084
:102850001AE003000000E03F2DE9F84F00F12107E6
:102860002DED028BDDF830B004460E461546FF0014
:10287000002B3DD1384616F04FF90546D0B3C5E9D7
:10288000004605F5847A002E44D056464FF0000AE3
:102890002046FDF7D7FDA2458046894606F1080689
:1028A00067DA5046FDF7CEFD4BA3D3E90023FDF7D1
:1028B00033FE42464B46FDF759FF41EC100B41EC0D
:1028C000180B00F05DFB51EC100BFEF7BFF8B0EEFB
:1028D000480AF0EE680A46F8080C00F025FC51ECB6
:1028E000100BFEF7B3F80AF1010A46F8040CCFE723
:1028F00052B91F60BBF1000F01D0CBF80070BDECE6
:10290000028B2846BDE8F88F1A681F60BA42B6D21B
:102910000025EFE72046FDF795FDA6428046894653
:102920000AF1080A25DA3046FDF78CFD2CA3D3E91D
:102930000023FDF7F1FD42464B46FDF717FF41EC42
:10294000100B41EC180B00F01BFB51EC100BFEF7C9
:102950007DF8B0EE480AF0EE680A4AF8080C00F07C
:10296000E3FB51EC100BFEF771F801364AF8040C4A
:10297000D0E72046FDF766FD41EC100B12F0BAFEE1
:1029800000F052FB59EC108B05F1080A042694FB69
:10299000F6F306FB1342AAB1022E0FD0042E0FD07D
:1029A00002363046FDF74EFD02460B46404649468C
:1029B000FEF724F8002818BF2646E8E70326F0E7CC
:1029C0000226EEE7012BCAE900631C4692DD0AF1FC
:1029D000080ADCE7AFF30080182D4454FB211940AE
:1029E000182D4454FB2119C02DE9F0430B682DED3F
:1029F000028B1E68012E89B00446894611D001253C
:102A00009C4B0193CDE902659B4B009344699B4A23
:102A10009B495D23A047284609B0BDEC028BBDE869
:102A2000F0834B681D68012D0CD0924B0193CDE9CA
:102A30000256944B00934469904A91495E23A04703
:102A40000125E8E7002218F091F8804640B98E4B46
:102A5000009366696023894A8C492046B047DAE7CB
:102A600083681B68002B04DC894B00936669612333
:102A7000F1E700224946204618F07BF8064620B9C7
:102A8000844B009366696323E5E7D9F8107027B992
:102A9000814B009366696523DDE798F80030072BCA
:102AA00017D1A36B40F202412046984720B97B4BD7
:102AB000009366696B23CEE7B862A36B40F20241D4
:102AC0002046984720B9764B009366696F23C2E78A
:102AD000F862327898F80030072A0CD1092B3DD0E3
:102AE000072B17D06F4B009365697523634A6749BD
:102AF0002046A847A4E79A4230D0CDE902326A4B7B
:102B000001936A4B0093656978235C4A5C492046CF
:102B1000A84795E733694BB10022CDE90232644BF7
:102B20000193644B009365697D23EEE7B96ADFED9D
:102B3000620A624840F20122BAEE040A11F098F9E2
:102B4000F96A9FED5D0A5E4840F20122F7EE000A45
:102B500011F08EF93369FB61F3683B6298F800501D
:102B6000D9F81490092D39D0072D40F02981336907
:102B70004BB10022CDE902324D4B01934D4B0093F6
:102B800065692523C1E7DFED4F7A96ED037ADFED26
:102B90004E6AB4EEE77AF1EE10FACCBF77EE677AC0
:102BA00077EEC77AF4EEE67AF1EE10FA40F3C180E0
:102BB0004FF07C53002217EE100ACDE90423FDF7F5
:102BC00053FC424B0193CDE90201414B00936569EF
:102BD00026232A4A3F492046A84731E7307807286C
:102BE00033D1336913F5004F09D03B4ACDE90232A6
:102BF0003A4B01932F4B009365692B2385E7DFED5B
:102C0000387A96ED037ADFED376AB4EEE77AF1EEC3
:102C100010FACCBF77EE677A77EEC77AF4EEE67AF1
:102C2000F1EE10FA40F3A6802F4B002217EE100AA7
:102C3000CDE90423FDF718FC2C4B0193CDE90201EB
:102C4000234B009365692C23C3E7092854D0676997
:102C500012F0D0F80646284612F0CCF8244B019327
:102C6000114B0093CDE90260044A22492F232046EC
:102C7000B847E5E657E903002FE90300B1E8030090
:102C8000ABE203006BE8030076E203005FE20300BF
:102C90003FE9030099E2030059E9030074E90300E6
:102CA0008BE90300AEE90300C5E20300D2E20300B2
:102CB0009FD00300E8E9030000000000A99901008B
:102CC0009B990100000000386F12033322EA0300D1
:102CD0002EEA030002EA03000080FFFF43EA03003C
:102CE000000080376F1283320000F03E4AEA030092
:102CF00056EA030006E60300336913F1800F0AD099
:102D00006FF07F02CDE90232494B0193494B0093AA
:102D100065693023F9E696ED037ADFED477AB4EE84
:102D2000677AF1EE10FA25D0444B009365693123A0
:102D3000DCE6D8F80C00FDF797FB0446D9F8000054
:102D40000D46FDF791FB02460B4620462946FDF74E
:102D5000E3FB35A3D3E90023FDF708FD07F10806DF
:102D600041EC100B07A9304612F050F8079BFB60AE
:102D7000002550E6D8F80C00FDF776FB41EC180B67
:102D8000D9F80000FDF770FBB0EE481AF0EE681AB3
:102D900007F1080441EC100B07AA2146052000F0BA
:102DA0005BF80799F9601F22052017F069FEFDF70F
:102DB00049FB01F100431946FDF756FFB861D7E71B
:102DC000012D13D02846666912F014F8054601203B
:102DD00012F010F81A4B01931A4B0093CDE90250F0
:102DE000194A1A494E232046B04729E6307801286F
:102DF00012D0676911F0FEFF0646284611F0FAFF6F
:102E00000F4B0193124B0093CDE902600E4A0F491C
:102E10004F232046B847FEE5D9F80000FDF724FB14
:102E2000C7E90001A4E700BF140014001400243F08
:102E300062EA0300E8E903000000803B67EA030060
:102E400089EA0300D2E20300B1E8030006E60300CA
:102E5000C5E20300000000002DE9F84F4FF00043E9
:102E60002DED028B23FA00F057EC106B59EC118B0F
:102E700093468A46FDF7E6FA424604460D464B461F
:102E800030463946FDF748FB02460B4620462946A8
:102E9000FDF742FB02460B4643EC182B0AA3D3E98D
:102EA0000023FDF7C9FD08B19FED078BB0EE480A7E
:102EB000F0EE680ABDEC028B59465046BDE8F84F6B
:102EC00011F0E6BFAFF300800000C0FFFFFFDF415D
:102ED0002DE9F74F0446C86815461E468A46FDF799
:102EE000C3FA8046E8688946FDF7BEFA02460B46FB
:102EF00040464946FDF710FBDDE90C7B80468946DC
:102F0000D6B1F068FDF7B0FA02460B464046494696
:102F1000FDF74AF98046F86821F00049FDF7A4FA68
:102F200002460B4640464946FDF720FC11A3D3E973
:102F30000023FDF76DFD50B13B462A465146204621
:102F4000CDF830B003B0BDE8F04F11F0BDBF064B77
:102F5000009320466569054A05494FF4A273A847C6
:102F6000012003B0BDE8F08FA3EB030010EB0300DA
:102F70005FE203007B14AE47E17A943F000000005B
:102F80001FB553EC102B264823F00041814206DC8C
:102F90009FED211B05B05DF804EB01F049B8214815
:102FA000814209DD10EE100A1946FDF7FDF841ECEB
:102FB000100B05B05DF804FB684600F02DFE00F034
:102FC000030001280BD0022816D0E0B99DED021BAA
:102FD0009DED000B01F02CF851EC100BE7E79DED97
:102FE000021B9DED000B01F037FC53EC102B10EE93
:102FF000100A03F10041DAE79DED021B9DED000B85
:1030000001F016F8F1E79DED021B9DED000B01208C
:1030100001F022FCE0E700BF00000000000000001B
:10302000FB21E93FFFFFEF7F51EC100B2DE9F04151
:10303000C1F30A57A7F2FF36132E10EE105A10EE06
:10304000108A0C4632DC002E14DA33A3D3E90023B5
:10305000FDF7ACF800220023FDF7EEFC38B1002CA0
:1030600057DA24F000431D4301D02D4C00252146A2
:10307000284625E02B4F374101EA070303431FD0C1
:1030800025A3D3E90023FDF791F800220023FDF7E3
:10309000D3FC0028EBD0002CBEBF4FF4801343FAC2
:1030A00006F6A41924EA07040025E0E7332E0BDD19
:1030B000B6F5806F04D110EE102A0B46FDF776F8B6
:1030C00041EC100BBDE8F081A7F213474FF0FF333E
:1030D00023FA07F70742F3D00FA3D3E90023FDF744
:1030E00065F800220023FDF7A7FC0028BFD0002CC4
:1030F00002DA142E03D1013425EA0705B7E70123CC
:10310000C6F1340603FA06F63544454538BFE418DF
:10311000F2E700252C46AAE79C7500883CE4377E40
:103120000000F0BFFFFF0F001FB553EC102B284825
:1031300023F00041814207DC9FED231B002005B0F6
:103140005DF804EB01F088BB2248814209DD10EEF6
:10315000100A1946FDF728F841EC100B05B05DF890
:1031600004FB684600F058FD00F0030001280CD075
:10317000022811D0F0B99DED021B9DED000B01203E
:1031800001F06AFB51EC100BE6E79DED021B9DED93
:10319000000B00F04DFFF5E79DED021B9DED000BD0
:1031A000012001F059FB53EC102B10EE100A03F133
:1031B0000041D1E79DED021B9DED000B00F038FFB3
:1031C000F1E700BFAFF30080000000000000000046
:1031D000FB21E93FFFFFEF7F2DE9F04F2DED068B3F
:1031E00089B08DED001BDDE9000727F0004656EAA7
:1031F000000153EC102B00F0CC847F4923F00044F5
:103200008C4210EE108A994609DC03D17AB9A642A5
:1032100002DD0CE08E4202DC8E4210D178B104F166
:10322000404404F5801454EA080300F0B284734863
:1032300009B0BDEC068BBDE8F04F01F0CDBBB9F194
:10324000000F36DA6E498E4251DCA1F154718E4284
:1032500040F3AA843115A1F2FF3114290FDDC1F129
:10326000340120FA01FC0CFA01F1814240F09C8407
:103270000CF0010CCCF10201049180B159E000285E
:1032800055D1C1F1140146FA01FC0CFA01F1B14229
:1032900040F087840CF0010CCCF1020104915949F3
:1032A0008E422DD1002F79DA56490020FDF75EFAC3
:1032B00016E00021049100283BD14F498E42EED107
:1032C00004F1404303F5801353EA080300F06184DE
:1032D0004D4B9C420DDD002F80F25F8400200021C9
:1032E00041EC100B09B0BDEC068BBDE8F08F02215C
:1032F000E0E7002FF2DADDE9000303F10041EFE738
:10330000B7F1804F04D110461946FDF705F9E7E7FC
:103310003E498F420DD1B9F1000F0ADB43EC102B6F
:1033200009B0BDEC068BBDE8F04F12F07BBA00216E
:10333000049143EC102BCDE9022318F07BFCDDE96E
:10334000022351EC100BB8F1000F2AD12CB1DFF899
:10335000B4C029F0404EE64523D1002F05DA0246DD
:103360000B4600202749FDF701FAB9F1000FB7DA43
:10337000049B04F1404404F58014234308D1024621
:103380000B4610461946FCF70FFF02460B468DE729
:10339000049B012BA4D1024601F1004310461946BB
:1033A0009EE74FEAD97C0CF1FF350695049DAC46AB
:1033B000069D5CEA0505E4D0154B9E4240F3FC8077
:1033C00003F104739E42104B07DD9C420ADC002F80
:1033D00084DA07A3D3E9002395E79C42F7DB094B86
:1033E0009C4217DD002FF4DC78E700BFAFF30080CC
:1033F0009C7500883CE4377E0000F07F62D10300BA
:10340000FFFF3F430000F03FFFFFEF3F0000E03FC2
:103410000000E041644B0022FCF7C6FE56A3D3E94E
:10342000002304460D46FDF777F855A3D3E90023A2
:1034300006460F4620462946FDF76EF85B4B82464E
:103440008B46002220462946FDF766F802460B46C9
:103450004DA1D1E90001FCF7A7FE22462B46FDF75E
:103460005BF802460B4600205149FCF79DFE2246C0
:10347000804689462B4620462946FDF74DF80246F0
:103480000B4640464946FDF747F841A3D3E90023E0
:10349000FDF742F802460B4650465946FCF784FEBB
:1034A00002460B468046894630463946FCF77EFE8A
:1034B000002032463B4604460D46FCF775FE0246A8
:1034C0000B4640464946FCF76FFE049B069A013BBB
:1034D000134382468B4640F0F0819FED2F7BB0EE88
:1034E000478AF0EE678ADDE90067002632463B46F0
:1034F000DDE90001FCF758FE22462B46FDF70CF8EB
:10350000DDE900238046894650465946FDF704F818
:1035100002460B4640464946FCF748FE32463B46CB
:103520008046894620462946FCF7F6FF0B460446AE
:103530000D46024649464046FCF738FE1D4B99426F
:1035400045EC194B06460F468B4640F3F98201F1D4
:103550003F4303F5E003034300F0EC8110A3D3E9FC
:10356000002351EC180BFCF7D7FF0DA3D3E9002380
:10357000CBE600BFAFF30080000000604715F73FC7
:1035800044DF5DF80BAE543E555555555555D53F66
:10359000FE822B654715F73F000000000000F0BFDA
:1035A0009C7500883CE4377E0000F03F0000D03F6F
:1035B0000000E03FFFFF8F40D54B03EA09030022E4
:1035C0002BB9D44BFCF7A8FF6FF034020C4623153F
:1035D000A3F2FF3313440593CF4BC4F3130444F019
:1035E0007F559C4245F4401508DDCC4B9C4240F38E
:1035F0006281059B01330593A5F580150024E30046
:103600000793C74B03EBC40393ED007B294653ECB0
:10361000172BB0EE479AF0EE679A8246FCF7C4FD8E
:10362000524606460F462B4651EC190BFCF7BEFDE1
:1036300002460B460020BB49FDF798F841EC1A0BF7
:1036400002460B4630463946FCF766FF0023CDE9BB
:1036500002010293DDE90289AB466D1045F0005589
:1036600005F5002541EC180B05EB8443002240468C
:10367000494614461D46FCF74FFF02460B463046AE
:103680003946FCF791FD53EC192B06460F462046B0
:103690002946FCF789FD02460B4650465946FCF781
:1036A00083FD42464B46FCF737FF02460B46304649
:1036B0003946FCF779FD53EC1A2BFCF72DFF53EC40
:1036C000182B41EC190B51EC180BFCF725FF7CA3D0
:1036D000D3E9002304460D46FCF71EFF7AA3D3E985
:1036E0000023FCF763FD22462B46FCF715FF78A369
:1036F000D3E90023FCF75AFD22462B46FCF70CFFCA
:1037000075A3D3E90023FCF751FD22462B46FCF7B5
:1037100003FF73A3D3E90023FCF748FD22462B46A1
:10372000FCF7FAFE70A3D3E90023FCF73FFD224625
:1037300006460F462B4620462946FCF7EDFE02467C
:103740000B4630463946FCF7E7FE424604460D4636
:103750004B4651EC180BFCF729FD53EC192BFCF7E9
:10376000DBFE22462B46FCF721FD424682468B4675
:103770004B4640464946FCF7CFFE6B4B00220646BF
:103780000F46FCF713FD52465B46FCF70FFD002089
:1037900004460D4602460B4640464946FCF7BCFE31
:1037A000614B80468946002220462946FCF7FCFCF6
:1037B00032463B46FCF7F8FC02460B46504659465B
:1037C000FCF7F2FC53EC182BFCF7A6FE224606464B
:1037D0000F462B4651EC190BFCF79EFE02460B469A
:1037E00030463946FCF7E2FC06460F4602460B46D9
:1037F00040464946FCF7DAFC3DA3D3E9002300200C
:1038000004460D46FCF788FE424641EC180B4B4639
:1038100020462946FCF7C8FC02460B46304639468E
:10382000FCF7C2FC34A3D3E90023FCF775FE34A3F4
:10383000D3E9002306460F4620462946FCF76CFED6
:1038400002460B4630463946FCF7B0FC079A374B28
:103850001344D3E90023FCF7A9FC824605988B4664
:10386000FCF7F0FD079A324B1344D3E90089064672
:103870000F4652465B4651EC180BFCF797FC42464C
:103880004B46FCF793FC32463B46FCF78FFC00208E
:1038900032463B4604460D46FCF786FC42464B4604
:1038A000FCF782FC53EC182BFCF77EFC02460B461F
:1038B0005046594607E60124A1E69FED137B0EE62C
:1038C000EF4E454A287ECA3F65DBC9934A86CD3F05
:1038D00001411DA96074D13F4D268F515555D53FEB
:1038E000FFAB6FDBB66DDB3F033333333333E33F83
:1038F000000000E009C7EE3FFD033ADC09C7EE3FD8
:10390000F5015B14E02F3EBE000000000000F03F18
:103910000000F07F000040438E98030079B60B0052
:1039200058D301000000F03F0000084078D30100A8
:1039300068D30100B5A3D3E9002340464946FCF70C
:1039400035FC224641EC1A0B2B4630463946FCF733
:103950002BFC02460B4651EC1A0BFDF76DF80028C4
:103960007FF4FCADA44A2BF00043934240F30A815C
:103970001B154FF4801AA3F2FE334AFA03F35B449B
:10398000C3F30A529D4EA2F2FF321641C3F3130A4B
:10399000002023EA0601C2F114024AF4801A4AFA0E
:1039A00002FABBF1000F02460B4620462946B8BF7B
:1039B000CAF1000AFCF7F8FB41EC190B42464B46F2
:1039C00051EC190BFCF7F2FB79A3D3E9002300209B
:1039D00004460D46FCF7A0FD53EC192B06460F4696
:1039E00020462946FCF7E0FB02460B464046494686
:1039F000FCF7DAFB70A3D3E90023FCF78DFD70A37D
:103A0000D3E900238046894620462946FCF784FDF9
:103A100002460B4640464946FCF7C8FB04460D46A5
:103A200002460B4630463946FCF7C0FB32463B4661
:103A300080468946FCF7B8FB02460B4620462946DD
:103A4000FCF7B2FB424606460F464B464046494607
:103A5000FCF762FD5CA3D3E9002304460D46FCF7A6
:103A60005BFD5BA3D3E90023FCF79EFB22462B46BC
:103A7000FCF752FD58A3D3E90023FCF797FB22463D
:103A80002B46FCF749FD56A3D3E90023FCF78CFB3A
:103A900022462B46FCF740FD53A3D3E90023FCF755
:103AA00085FB22462B46FCF737FD02460B46404677
:103AB0004946FCF779FB04460D4602460B46404654
:103AC0004946FCF729FD002241EC190B4FF08043D9
:103AD00020462946FCF768FB02460B4651EC190BC1
:103AE000FCF744FE324604460D463B4640464946F6
:103AF000FCF712FD32463B46FCF758FB02460B46EC
:103B000020462946FCF750FB42464B46FCF74CFB4F
:103B10000B4602463A490020FCF746FB41EC100BED
:103B200010EE903A03EB0A53B3F5801F2DDA50469E
:103B300000F05AFF51EC100B53EC182BFFF7E5BBCC
:103B4000304B21F000469E427FF70CAF2E4B0B44CA
:103B500003430BD026A3D3E9002351EC180BFCF749
:103B6000DBFC23A3D3E90023FFF7CFBB22462B4680
:103B7000FCF71AFB42464B46FCF754FF00283FF483
:103B8000F1AEE7E74FF0000A18E751EC100B1946C9
:103B9000D2E71B490020FFF7A3BBDDE90001FFF7D7
:103BA0009FBB0490FFF77BBB0021FFF765BB00BF05
:103BB00000000000432EE63FEF39FAFE422EE63FBA
:103BC000396CA80C615C20BED0A4BE726937663E19
:103BD000F16BD2C541BDBB3E2CDE25AF6A56113F0D
:103BE00093BDBE166CC1663F3E5555555555C53FF4
:103BF00059F3F8C21F6EA5010000E03FFFFF0F0060
:103C00000000F03FFFCB904000346F3FFE822B65F9
:103C10004715973C000000002DE9F04F2DED028B79
:103C200055EC104BCA4B8BB025F0004898458246A6
:103C3000029508DC0022002380ED000BC0E902237E
:103C40004FF0000B28E0C34B984578DC029BC24E36
:103C5000002B10EE100AB0A3D3E90023294639DD6A
:103C6000FCF7A2FAB04504460D461BD0ACA3D3E93D
:103C70000023FCF799FA02460B46CAE900232046C6
:103C80002946FCF791FAA6A3D3E90023FCF78CFAA6
:103C9000CAE902014FF0010B58460BB0BDEC028B94
:103CA000BDE8F08FA0A3D3E90023FCF77DFAA0A321
:103CB000D3E9002304460D46FCF776FA02460B468C
:103CC000CAE9002320462946FCF76EFA98A3D3E9F7
:103CD0000023DBE7FCF76AFAB04504460D4616D030
:103CE0008FA3D3E90023FCF761FA02460B46CAE929
:103CF000002320462946FCF757FA89A3D3E900237D
:103D0000FCF754FA4FF0FF3BCAE90201C4E786A36F
:103D1000D3E90023FCF74AFA85A3D3E9002304463C
:103D20000D46FCF743FA02460B46CAE9002320463B
:103D30002946FCF739FA7EA3D3E90023E0E7874B55
:103D4000984500F3D98017F075FF55EC104B10EE35
:103D5000100A79A3D3E900232946FCF7DDFB804B49
:103D60000022FCF723FAFCF77FFF8346FCF76AFB8F
:103D700002460B4643EC182B67A3D3E90023FCF75C
:103D8000CBFB02460B4620462946FCF70DFA64A3FE
:103D9000D3E9002306460F4651EC180BFCF7BCFB99
:103DA000BBF11F0F04460D460DDC6E4B0BF1FF32CD
:103DB00053F82230434506D022462B46304639463A
:103DC000FCF7F2F90FE02B46224630463946FCF765
:103DD000EBF94FEA28530393C1F30A53C3EB185886
:103DE000B8F1100F02DCCAE9000139E04EA3D3E9B3
:103DF000002351EC180BFCF78FFB04460D460246DE
:103E00000B4630463946FCF7CFF902460B46804652
:103E1000894630463946FCF7C7F922462B46FCF75F
:103E2000C3F943A3D3E9002304460D4651EC180B14
:103E3000FCF772FB22462B46FCF7B6F902460B460E
:103E400004460D4640464946FCF7AEF9039AC1F3D5
:103E50000A53D31A312B24DCCAE9000146464F46E7
:103E6000DAE90089304642464B463946FCF79CF970
:103E70002B462246FCF798F9029B002BCAE9020167
:103E8000BFF60AAF09F10043CAF8043001F100435C
:103E9000CAF80080CAF80800CAF80C30CBF1000B51
:103EA000FAE627A3D3E9002351EC180BFCF734FB07
:103EB00004460D4602460B4640464946FCF774F957
:103EC00002460B4606460F4640464946FCF76CF94B
:103ED00022462B46FCF768F91BA3D3E900230446CE
:103EE0000D4651EC180BFCF717FB22462B46FCF74E
:103EF0005BF904460D465FE71B4B984536DD10EE37
:103F0000102A2B4620462946FCF74EF9CAE9020141
:103F1000CAE9000194E600BF00004054FB21F93FCC
:103F20003163621A61B4D03D0000601A61B4D03DC3
:103F30007370032E8A19A33B83C8C96D305FE43FB9
:103F40000000002E8A19A33BC14920259A837B39A2
:103F5000FB21E93F7BD90240FB21F93FFB2139419D
:103F60000000E03F5C620300FFFFEF7F4FEA285450
:103F7000A4F2164410EE100AA8EB045110EE106AD9
:103F80000F46FCF771FEFCF75DFA02460B46304621
:103F90003946CDE90423FCF707F9234B0022FCF74F
:103FA000BBFA0F460646FCF75FFEFCF74BFA0246EB
:103FB0000B4630463946CDE90623FCF7F5F81A4B97
:103FC0000022FCF7A9FACDE9080104AD4FF003087F
:103FD000A9460026002732463B46D5E90401C346E0
:103FE000083D08F1FF38FCF7FFFC0028F3D10F4B28
:103FF00001930223009322465B465146484600F057
:10400000DFF8029B002B8346BFF646AEDAE90021BB
:1040100001F10043CAE90023DAE9022101F100437A
:10402000CAE902233AE700BF00007041DC620300E6
:104030002DE9F74F57EC106B27F00048B8F1795F86
:104040008DED001B07DA10EE100A3946FCF70CFE66
:10405000002800F0888032463B4630463946FCF75F
:104060005BFA514B002204460D46FCF755FA40A37B
:10407000D3E9002382468B4620462946FCF74CFABA
:104080003DA3D3E90023FCF791F822462B46FCF729
:1040900043FA3BA3D3E90023FCF786F822462B46DC
:1040A000FCF73AFA38A3D3E90023FCF77FF822465D
:1040B0002B46FCF731FA36A3D3E90023FCF774F85A
:1040C00022462B46FCF728FA33A3D3E90023FCF75A
:1040D0006DF822462B46FCF71FFA22462B46FCF7CA
:1040E0001BFADDE9002304460D4630463946FCF74D
:1040F00013FA0B46024629462046FCF755F82B4B8F
:10410000984506460F4610DC02460B465046594677
:10411000FCF74AF80B46264902460020FCF744F813
:1041200041EC100B03B0BDE8F08F224B20499845BD
:10413000CCBF214DA8F50015002422462B460020B7
:10414000FCF732F82246804689462B4650465946AF
:10415000FCF72AF832463B46FCF726F802460B46A7
:1041600040464946DAE79FED0E0BDBE7AFF30080F0
:10417000D43888BEE9FAA8BDC4B1B4BD9EEE213ED4
:10418000AD529C804F7E923E9015CB19A001FA3E15
:104190007751C1166CC1563F4C5555555555A53FE5
:1041A000000000000000F03F0000E03F3233D33F4A
:1041B0000000F03F0000E93F0000D23F0000000097
:1041C0002DE9F04F2DED028BADF51B7D12F1140F93
:1041D00008930191C44BA6990B9053F82130029398
:1041E000089B03F1FF33A8BFD41E0693B2BF00247F
:1041F000182394FBF3F46FF0170304FB033303EB72
:10420000020A029B069A9FEDB48B03EB0208A79B60
:10421000A71A22AE03EB87090025454513DD089B4D
:104220009FEDAD8B22AA02EBC3050DF5E47B4FF0A9
:104230000008029B98452FDC8DED048BDDF82C9057
:104240002F4600261BE0EF4207D459F82500FCF763
:10425000F9F8E6E802010135DFE751EC180BF8E761
:10426000D7E90023F9E80201FCF756F902460B46AC
:10427000DDE90401FBF79AFFCDE904010136069B55
:104280009E42A7F10807EBDD9DED047B08F10108D4
:10429000ABEC027B0835CCE7029B0EAA02EB830352
:1042A0000D93A79B03EB8403029C0C93E3000A93FA
:1042B0009AAB03EBC40353E928670DF1380872ABDE
:1042C00003EBC405C346A146B9F1000FA5F10805EB
:1042D00077DC47EC106B504600F086FB57EC106B18
:1042E00000224FF07F5310EE100A3946FCF714F904
:1042F00041EC100BFEF798FE7C4B51EC100B0022AA
:10430000FCF70AF902460B4630463946FBF74CFFEC
:104310000F460646FCF7A8FC0490FCF793F802460B
:104320000B4630463946FBF73FFFBAF1000F064611
:104330000F466DDD621E0EAB049D53F82200CAF1DC
:10434000180140FA01F31D448B40C01A0EAB0495CE
:1043500043F82200CAF1170340FA03FBBBF1000F38
:1043600065DD049B00220133049315466FF07F4105
:10437000944200F39C80BAF1000F07DDBAF1010FFF
:1043800000F0C080BAF1020F00F0C680BBF1020F4E
:104390004DD132463B4656490020FBF705FF064605
:1043A0000F46002D43D050469FED4D0B00F01CFBF7
:1043B0003046394653EC102BFBF7F6FE06460F4607
:1043C00035E04C4B002230463946FCF7A5F8FCF7A7
:1043D0004BFCFCF737F802460B4643EC182B464BD8
:1043E0000022FCF799F802460B4630463946FBF7A7
:1043F000DBFEFCF739FCD5E900234BF8040B51EC4C
:10440000180BFBF7D3FE09F1FF3906460F465BE7B1
:1044100006D1631E0EAA52F823004FEAE05B9DE727
:10442000364B0022FCF7FEFA00283DD183460022DD
:10443000002330463946FCF7D7FA002800F0BF8049
:10444000651E2B46002202998B426CDA002A00F08E
:1044500088800EABAAF1180A53F82530002B00F023
:10446000AC8050469FED1E0B00F0BEFA9AAB03EBFA
:10447000C50357EC106BEC00A3F19808AA46BAF1FB
:10448000000F80F2D5809FED148B2E46002EC0F2D7
:10449000038172AB8DED068BDFF864A003EBC609D8
:1044A0004FF00008AF1BE9E04FF0020B59E7D8F8D6
:1044B000003055B923B1C3F18073C8F8003001232F
:1044C000013208F104081D4652E7CB1AC8F8003043
:1044D0002B46F5E7AFF3008000000000000000006D
:1044E000000000000000F03FFC63030000002040DB
:1044F0000000F03F0000703E000070410000E03F0F
:1045000088D30100621E0EAB53F82230C3F31603AA
:104510000EA941F8223039E7621E0EAB53F8223063
:10452000C3F31503F4E70EA951F82310013B0A4326
:1045300089E7013352F8041D0029FAD00A9A9AA992
:104540000A44983A0A92089AE318A51822AA04F194
:10455000010802EBC5050493049B434504DA1C469D
:10456000A4E60D9A0123E5E70C9B53F82800FBF71E
:1045700069FFE5E802010B9BAB461C464FF00009C2
:1045800000260027069B994506DD0A9BE3E80267A3
:1045900008F101080A93DFE77BE90223F4E802014E
:1045A000FBF7BAFF02460B4630463946FBF7FEFDE5
:1045B00009F1010906460F46E4E7013D49E747ECEA
:1045C000106BCAF1000000F00FFA57EC106BA04B13
:1045D00010EE100A00223946FCF724FAF8B19D4B80
:1045E000002230463946FBF797FFFCF73DFB80463B
:1045F000FBF728FF964B0022FBF78EFF0B46024687
:1046000039463046FBF7D0FDFCF72EFB651C0EABA0
:104610000AF1180A43F8240043F8258021E73046C0
:104620003946FCF721FB0EAB254643F8240018E77A
:104630000EAB53F82A00FBF705FF32463B46FBF76B
:104640006BFF844B68E90201002230463946FBF7D4
:1046500063FF0AF1FF3A06460F4610E7F9E8022326
:10466000FAE80201FBF758FF02460B46DDE90601B6
:10467000FBF79CFDCDE9060108F10108029B984576
:1046800001DCB845EADD9DED067B4AAB03EBC707CD
:1046900087ED007B013EF9E6A69B022B0BDC002B8D
:1046A00035DC59D0049B03F007000DF51B7DBDECF4
:1046B000028BBDE8F08FA69B032BF3D14AAB2344BA
:1046C00006931C469A460295029B002BAAF1080A03
:1046D00069DCAA46BAF1010FA4F1080400F3838053
:1046E000069C002008340021012D00F39B80DDE9A9
:1046F0004A56DDE94C78BBF1000F40F09980019BF0
:10470000C3E90056C3E90278C3E90401CAE70834E3
:104710004AAB1C442E4600200021002E34DABBF1A7
:10472000000F37D0024601F10043019CC4E9002389
:1047300002460B46DDE94A01FBF736FD4CAE01248B
:10474000A5422ADABBF1000F02D001F1004319465D
:10475000019BC3E90201A5E79AAB1C44A4F59C7434
:1047600000200021002D09DABBF1000F02D001F179
:1047700000431946019BC3E9000193E774E9022352
:10478000FBF714FD013DEDE774E90223FBF70EFD95
:10479000013EC2E702460B46C7E7F6E80223FBF7F5
:1047A00005FD0134CCE7DAE90089DAE90267029B0A
:1047B000013B029332463B4640464946FBF7F6FC36
:1047C000CDE9080102460B4640464946FBF7ECFCA2
:1047D00032463B46FBF7EAFC9DED087BCAE9020145
:1047E0008AED007B70E7D4E90089D4E9026740468E
:1047F00032463B464946FBF7D9FCCDE90201024669
:104800000B4640464946FBF7CFFC32463B46FBF79A
:10481000CDFC9DED027BC4E9020184ED007B0AF131
:10482000FF3A57E774E90223FBF7C0FC013D5BE761
:10483000019B019A1D6006F100445C609F6008F1D5
:104840000043D36001F10043106153612AE700BFC8
:10485000000070410000703E2DE9F04F2DED048BFB
:10486000B0EE418AF0EE618A55EC104B83B025F032
:104870000043B3F1795F019006DA10EE100A294681
:10488000FCF7F2F9002851D022462B462046294653
:10489000FBF742FE82468B4602460B4620462946DF
:1048A000FBF73AFE41A3D3E90023804689465046F0
:1048B0005946FBF731FE3FA3D3E90023FBF774FC15
:1048C00052465B46FBF728FE3CA3D3E90023FBF7E7
:1048D0006DFC52465B46FBF71FFE3AA3D3E900236B
:1048E000FBF762FC52465B46FBF716FE37A3D3E9A3
:1048F0000023FBF75BFC019B06460F46EBB9024623
:104900000B4650465946FBF707FE25A3D3E9002383
:10491000FBF74AFC42464B46FBF7FEFD02460B46C0
:1049200020462946FBF742FC04460D4645EC104B59
:1049300003B0BDEC048BBDE8F08F1B4B51EC180BA2
:104940000022FBF7E9FD324641EC190B3B4640469D
:104950004946FBF7E1FD02460B4651EC190BFBF70C
:1049600023FC52465B46FBF7D7FD53EC182BFBF7B5
:104970001BFC0BA3D3E9002306460F4640464946DD
:10498000FBF7CAFD02460B4630463946FBF70EFCE4
:1049900002460B4620462946FBF706FCC4E700BF4B
:1049A000495555555555C53F0000E03F7CD5CF5A78
:1049B0003AD9E53DEB9C2B8AE6E55A3E7DFEB157A0
:1049C000E31DC73ED561C119A0012A3FA6F8101109
:1049D0001111813F000000009FED010B704700BFE7
:1049E000000000000000F87F70B555EC104BC5F3D7
:1049F0000A5206462B469AB925F00043234336D087
:104A0000394B294610EE100A0022FBF785FD374B83
:104A10009E4204460D4610DA2BA3D3E900233AE068
:104A200040F2FF718A420CD110EE102A204629462E
:104A3000FBF7BCFB04460D4619E0C1F30A520B46D6
:104A4000363A324440F2FE718A4208DD002D20A140
:104A5000D1E900011CDA20A1D1E9000118E0002A07
:104A600008DD23F0FF4323F4E00343EA025545EC5D
:104A7000104B70BD12F1350F19DA4CF250339E42D3
:104A800005F000430ADD12A1D1E90001002BE2D1BB
:104A90000FA3D3E90023FBF73FFDCBE70AA1D1E940
:104AA0000001002BB8D00EA1D1E90001B4E723F03A
:104AB000FF43363223F4E00343EA025120460C4B15
:104AC0000022E8E7AFF3008059F3F8C21F6EA5019A
:104AD0009C7500883CE4377E9C7500883CE437FE7A
:104AE00059F3F8C21F6EA58100005043B03CFFFF90
:104AF0000000903C000000002DE9F04F2DED048BEC
:104B000057EC106B93B0456ADDF88080069110EE8B
:104B100010AA044609920C93BB4675B9102011F0F7
:104B2000CBF80246606220B9A74BEA21A74811F0F2
:104B30008BF8C0E901550560C560636A196851B119
:104B40005A684A60012393408B60204612F018F99E
:104B5000636A00221A603B1EAABF002323F0004BA9
:104B6000C8F800309A4BBCBF0122C8F8002033EAD5
:104B70000B031BD10C9A42F20F731360CBF3130398
:104B8000334300F09285219B63B9924B22E0924B14
:104B900001930833219A1360019813B0BDEC048B84
:104BA000BDE8F08F8B4B01930333F3E70022002322
:104BB00050465946FBF718FF4BEC19AB804658B1ED
:104BC0000C9A01231360219B002B00F06B85834816
:104BD0001860431E0193DFE74BEC10AB10AA11A93C
:104BE000204612F049FBCBF30A5508EE100A002DBF
:104BF00000F0848019EE903AC3F3130343F07F571B
:104C0000564647F44017A5F2FF35CDF83880744B6F
:104C1000002230463946FBF7C7FA65A3D3E90023E3
:104C2000FBF77AFC64A3D3E90023FBF7BFFA06463F
:104C300028460F46FBF706FC61A3D3E90023FBF7E8
:104C40006BFC02460B4630463946FBF7AFFA064688
:104C50000F46FCF709F80022009000233046394641
:104C6000FBF7CCFE50B10098FBF7ECFB32463B461D
:104C7000FBF7BAFE10B9009B013B0093009B162B7B
:104C80005AD8009A574B03EBC203D3E9002351ECE7
:104C9000190BFBF7B3FE002850D0009B013B00939B
:104CA00000230B93109B5D1B6B1E059345BFC5F145
:104CB00001030493002300234CBF05930493009B3E
:104CC000002B3DDB059B009A0A92134405930023B9
:104CD0000793069B092B00F28980052BC4BF043B78
:104CE0000693069BA3F10203CCBF00250125032BED
:104CF00000F28780DFE803F02D3A3859DDE91053E0
:104D00001D4405F23243202BC1BFC3F1400305F21D
:104D100012400BFA03F326FA00F0DABFC3F12003C6
:104D200006FA03F01843FBF77DFB01230646A1F1C9
:104D3000F877013D0E936AE70123B2E70B90B1E7E4
:104D4000049B009A9B1A04935342079300230A93EF
:104D5000BFE700230893099B002B55DC0123CDE915
:104D600002331A4609920CE00123F3E70023099A63
:104D70000893009B134402930133012B0393B8BFA4
:104D80000123606A00224260042202F114069E425E
:104D900041683DD9204611F0B3FF019000283BD176
:104DA000114B02464FF4D571C0E60123DFE700BF87
:104DB00061436F63A787D23FB3C8608B288AC63F21
:104DC000FB799F501344D33FBCEE0300D3EE0300A6
:104DD0000000F07FB8EE0300AFEE0300A0D00300A8
:104DE0000000F83F00D401002FEF0300012500234D
:104DF000069308954FF0FF33CDE9023300221223CA
:104E0000B0E701230893F5E7099BCDE90233B8E742
:104E1000013141605200B8E7636A019A1A60039B4E
:104E20000E2B00F29D80002D00F09A80009B002B3D
:104E300032DDB74A03F00F0302EBC303D3E9008965
:104E4000009BD8054FEA231716D5B24B51EC190B2E
:104E5000D3E90823FBF78AFC07F00F0782468B464D
:104E60000325AC4E57B942464B4650465946FBF7D0
:104E70007DFC82468B4628E00225F2E7F90708D53B
:104E800040464946D6E90023FBF746FB01358046FC
:104E900089467F100836E5E700F09B80009B9D4F18
:104EA0005E429B4B06F00F0203EBC203D3E90023E3
:104EB00051EC190BFBF730FB361182468B46002371
:104EC0000225002E7AD1002BD3D10B9B002B00F0B2
:104ED0008280914B002250465946FBF78FFD0028F7
:104EE00079D0039B002B76D0029B002B36DD009BF4
:104EF000504659465F1E0022884BFBF70DFB029E71
:104F000082468B4601352846FBF79CFA52465B46A3
:104F1000FBF702FB824B0022FBF748F9D046D9464B
:104F20008246A1F1507B002E58D17E4B0022404694
:104F30004946FBF739F952465B4680468946FBF7FE
:104F40007BFD002840F0958252460BF1004340461D
:104F50004946FBF753FD002840F089825BEC19AB12
:104F6000119B002BC0F24881009A0E2A00F3448165
:104F7000674B03EBC203D3E90089099B002B80F246
:104F8000D580039B002B00F3D18040F06F82654BEE
:104F9000002240464946FBF7BFFA52465B46FBF704
:104FA00041FD039E3746002840F04582019D312394
:104FB00005F8013B009B0133009340E2F20705D561
:104FC000D7E90023FBF7A8FA01350123761008374B
:104FD00077E7022579E7009F039E94E701994C4B00
:104FE00031440D91089903EBC60353E902230029CC
:104FF00043D04D490020FBF7B9FB52465B46FBF717
:10500000D3F8019D82468B4649464046FBF72CFE6D
:105010000646FBF717FA02460B4640464946FBF7A1
:10502000C3F8303605F8016B52465B468046894628
:10503000FBF7E4FC002863D142464B46364900208A
:10504000FBF7B2F852465B46FBF7D8FC002840F06D
:10505000B5800D9B9D4281D0304B00225046594671
:10506000FBF75AFA2D4B82468B46404649460022B2
:10507000FBF752FA80468946C6E750465946FBF789
:105080004BFA0D9B019D0F9382468B464946404645
:10509000FBF7EAFD0646FBF7D5F9303602460B462C
:1050A00040464946FBF780F805F8016B0D9B9D4291
:1050B000804689464FF0000224D11B4B504659468A
:1050C000FBF774F802460B4640464946FBF7B4FC32
:1050D000002873D152465B4613490020FBF764F861
:1050E00002460B4640464946FBF788FC00283FF441
:1050F00035AF0F9D6B1E0F9315F8013C302BF8D088
:10510000009749E0054BFBF707FA80468946BDE763
:1051100000D40100D8D301000000F03F000024407B
:1051200000001C40000014400000E03F019D564676
:105130005F4642464B4630463946FBF717FBFBF7C6
:1051400093FD8246FBF77EF942464B46FBF7E4F9B6
:1051500002460B46304639460AF13006FBF724F882
:1051600005F8016B019E039FAE1BB74202460B463A
:1051700035D1FBF71BF842464B4606460F46FBF778
:105180005BFCD0B942464B4630463946FBF72CFC17
:1051900010B11AF0010F10D1204618EE101A11F0BC
:1051A000EFFD002300982B700C9B01301860219BB1
:1051B000002B3FF4F1AC1D60EEE4009F2B461D4632
:1051C00013F8012D392A06D1019A9A42F7D1019993
:1051D000302201370A701A7801321A7090E7A64B14
:1051E0000022FBF799F90022002306460F46FBF741
:1051F000FBFB00289DD0CFE7089A002A00F0D7805B
:10520000069A012A00F3BA800E9A002A00F0B280B2
:1052100003F23343079E049D049A1A440492059AAC
:1052200001211A442046059211F012FE0746002D76
:105230000CDD059B002B09DDAB42049AA8BF2B4671
:10524000D21A0492059AED1AD31A0593079B1BB341
:10525000089B002B00F0AF80002E13DD394632464C
:10526000204611F0B5FE18EE102A014607462046EA
:1052700011F004FE18EE101A8046204611F080FD51
:1052800008EE108A079B9A1B06D018EE101A2046CB
:1052900011F09EFE08EE100A0121204611F0D8FD03
:1052A0000A9B002B064640F388801A46014620469A
:1052B00011F08EFE069B012B064640F381804FF0D5
:1052C0000008336906EB8303186916F0DFFFC0F1AD
:1052D0002000059B184410F01F0000F09280C0F1E0
:1052E0002003042B40F38A80C0F11C00049B03447C
:1052F0000493059B034405440593049B002B07DDA1
:1053000018EE101A1A46204611F0BCFE08EE100ADC
:10531000059B002B05DD31461A46204611F0B2FEF2
:1053200006460B9B002B6ED018EE100A314616F085
:10533000FCFF002867DA009B013B18EE101A00936F
:105340000A220023204611F03DFD089B08EE100ABA
:10535000002B00F0B181002339460A22204611F0CB
:1053600031FD029B002B074600F38E80069B022B2B
:1053700051DC89E0109BC3F136034BE7039B5E1EB3
:10538000079BB342BFBF079B0796F21A0A9BB6BFA3
:105390009B189E1B0A93039BB8BF0026002BB7BF28
:1053A000DDE90323DDE903359D1A002334E7079E79
:1053B000049D089F3BE7079A67E7069B012B18DCD3
:1053C000BAF1000F15D1CBF3130393B92BF00043BF
:1053D0001B0D1B0583B1049B01330493059B013313
:1053E00005934FF001080A9B002B7FF46AAF012060
:1053F0006FE74FF00008F6E79846F4E73FF47DAF1B
:1054000018461C3072E7039B002B37DC069B022BEF
:1054100034DD039B0293029B6BB931460522204683
:1054200011F0D0FC0146064618EE100A16F07DFF7A
:1054300000283FF7BBAD099B019DDB4300934FF074
:1054400000083146204611F09BFC002F3FF4A4AE2B
:10545000B8F1000F05D0B84503D04146204611F001
:105460008FFC3946204611F08BFC95E60026374626
:10547000E1E70097374699E500002440089B002BA0
:1054800000F0CA80039B0293002D05DD39462A46B1
:10549000204611F0F7FD0746B8F1000F5BD07968A0
:1054A000204611F02DFC054628B9874B024640F2F4
:1054B000EA21FFF73BBB3A690232920007F10C0187
:1054C0000C3016F00DFC01222946204611F0DAFDC1
:1054D000019B03F10109DDE90123134405930AF05F
:1054E0000103B84604930746314618EE100A16F039
:1054F000E8FD4146029000F1300A18EE100A16F05D
:1055000014FF3A4603903146204611F02BFEC26844
:1055100009F1FF3B054602BB014618EE100A16F0E2
:1055200004FF024629462046079211F029FCDDE9D6
:10553000063243EA0201049B0B434D460FD1BAF1F8
:10554000390F2AD0039B002B02DD029B03F1310AA5
:105550008BF800A075E73846BAE70122E2E7039B23
:10556000002B04DB06990B4304990B4322D1002A3C
:10557000EEDD18EE101A0122204611F083FD3146AF
:1055800008EE100A16F0D1FE002803DCE0D11AF074
:10559000010FDDD0BAF1390FD7D139238BF80030A4
:1055A0002B461D46013B15F8012C392A71D00132DA
:1055B0001A7046E7002A07DDBAF1390FEDD00AF17B
:1055C00001038BF800303CE7059B09F801AC9945D5
:1055D00047D018EE101A00230A22204611F0F2FBE1
:1055E000B84508EE100A4FF000034FF00A0241469A
:1055F000204606D111F0E6FB8046074609F1010975
:1056000072E711F0DFFB3946804600230A2220466C
:1056100011F0D8FB0746F1E7039B0293019D18EEBA
:10562000100A314616F04DFD00F1300A019B05F8D5
:1056300001ABEA1A029B934209DD18EE101A00230F
:105640000A22204611F0BEFB08EE100AE7E7029B93
:10565000002BC8BF1D46019BD8BF01251D444FF03C
:10566000000818EE101A0122204611F00BFD3146F9
:1056700008EE100A16F059FE002891DC02D11AF04B
:10568000010F8DD12B461D4613F8012D302AFAD07B
:10569000D7E6019A9A4284D1009B013300933123CB
:1056A0001370CEE6094BFFF795BA219B002B7FF4D0
:1056B0006EAA074BFFF78EBA029B002BAEDC069B4F
:1056C000022B3FF7A8AEA9E72FEF03009FD00300FE
:1056D000AFEE0300B0B584B000AF88B16C462C4B80
:1056E00088B06A46C2E90530032342F8103F2948D2
:1056F0004FF4C65112F05DF9A5461037BD46B0BD56
:1057000007F10802391D384606F0A8F8C8B1224B47
:105710006C4688B06A46C2E90530032342F8103F60
:105720001C484FF4C65112F044F9A54607F10C008D
:1057300012F054FF0028E0D06C4688B0174B6A4640
:10574000D0E7BB68022BDBD197ED017ADFED147A4D
:10575000144B6D4688B06C4677EE277A636117EE7E
:10576000900AFAF781FE22460423C4E9060142F8B2
:10577000103F08484FF4035112F01BF9AD4612F0E8
:1057800028FF0028D2D007F10C0006F0DBF8CDE7A7
:10579000DCB9030010C80100FCB9030044BA0300DF
:1057A0000000000029BA03002DE9F04F99B0B0487D
:1057B00002AF06F0E5F870B1AE4B6C4688B002AAB5
:1057C000C2E90530032342F8103FAB484FF4C25101
:1057D00012F0EFF8A54600214FF4F0200AF012FC79
:1057E000A64808F013FA0446436886681B680569F2
:1057F000002B0EDBA249A34AA3484FF4357312F0E5
:1058000026FAA24812F023FA9E484FF4357112F09E
:1058100017FA2B6823F000432B604FF420223368E3
:105820001F212046984700214FF420300AF0EAFB60
:105830000226974B90487B6407F140024FF4865153
:105840003E64E84612F0B5F8924D284613F07BF816
:10585000A0B988B02B6890498DF8246002AAC2E9EB
:1058600005138E4B42F8103F83484FF4D25112F08B
:10587000A0F8C5465C37BD46BDE8F08F884B7B611C
:105880002022002107F1380016F065FA8549864B81
:10589000C7E90C13282387F838303C2387F83930C0
:1058A00007F10C033B64012387F8563087F8543026
:1058B0007E4B4FF47A50C7E90303AB6807F1300120
:1058C0001B68284698470028D4DB6368D4F8088012
:1058D0001B6826699A010ED469496A4A6A484FF4DE
:1058E000357312F0B4F9694812F0B1F965484FF414
:1058F000357112F0A5F933686D4ADFF888B123F0ED
:10590000007333601921D8F8003020469847636847
:105910001B689B010ED45A495B4840F211435A461A
:1059200012F095F9594812F092F940F21141584697
:1059300012F086F9A36807F118015B6820469847C2
:105940005C4B4D48FB6207F1280202234FF486515D
:10595000BB6212F02EF8D5F808904E48D9F8043002
:105960000121984700286E460EDA88B0524B02AAF1
:10597000C2E90530032342F8103F3F484FF4C651B7
:1059800012F017F8B54675E70023DFF840A1DFF8FD
:1059900010817B604FF47A7300933E48D9F8086019
:1059A00007F1180307F108020021B047002841DA87
:1059B000424B6E4688B002AAC2E90530032342F882
:1059C000103F2D484FF4C65111F0F3FFB546D9F8FA
:1059D00004303048002198470028FFF64BAF12F002
:1059E000FAFD0146364805F0D3FDC8B1354B6E4689
:1059F00088B002AAC2E90530032342F8103F1E48CE
:105A00004FF4C65111F0D5FF2F4BFB62B546022370
:105A10001948BB6207F128024FF4865111F0C9FF03
:105A20000021084605F074FE00214FF4F0200AF032
:105A3000E9FA6CE77B686BB1BB68524603F54861D5
:105A400033F9020B07EE900AF8EEE77A8B42E2ECAC
:105A5000017AF5D107F10801404608F025FB7B6883
:105A600001330B2B7B600AF5C85A93D1AFE700BF17
:105A7000D55600005DBA030010C801007BBA0300D0
:105A8000B3BA030082BA0300F1BA03000EBB0300ED
:105A900020BB03006CC601002CBB03000300000107
:105AA000A8050020E0C81000E06735001000800C59
:105AB000200001003CBB03004FBB030068BB030098
:105AC000300F002078BB03009DBB030030F6FF1FA2
:105AD0002DE9F04F8DB01F46029202F00403C2F38D
