:1000000058260120C92D0000036500009D2D000029
:100010009D2D00009D2D00009D2D00009D2D0000B8
:100020000000000000000000000000006D2900003A
:100030009D2D0000000000009D2D00009D2D000062
:10004000C9290000C9290000C9290000C9290000E8
:10005000C9290000C9290000C9290000C9290000D8
:10006000C9290000C9290000C9290000C9290000C8
:10007000C9290000C9290000C9290000C9290000B8
:10008000C9290000C9290000C9290000C9290000A8
:10009000C9290000C9290000C9290000C929000098
:1000A000C9290000C9290000C9290000C929000088
:1000B000C9290000C9290000C9290000C929000078
:1000C000C9290000C9290000C9290000C929000068
:1000D000C9290000C9290000C9290000C929000058
:1000E000C9290000C9290000C9290000C929000048
:1000F000C9290000C9290000C9290000C929000038
:10010000C9290000C9290000C9290000C929000027
:10011000C9290000C9290000C9290000C929000017
:10012000C9290000C9290000C9290000C929000007
:10013000C9290000C9290000C9290000C9290000F7
:04014000C9290000C9
:1001440053B94AB9002908BF00281CBF4FF0FF313A
:100154004FF0FF3000F080B9ADF1080C6DE904CE2A
:1001640000F006F8DDF804E0DDE9022304B070478E
:100174002DE9F04F099E0D4604460F46002B47D14A
:100184008A4294465FD9B2FA82F343B1C3F12001A3
:100194009F4002FA03FC9C4020FA01F10F434FEA0E
:1001A4001C451FFA8CFE220CB7FBF5F105FB1177F9
:1001B40001FB0EF042EA0742904208D91CEB02020E
:1001C40001F1FF3702D2904200F234813946121A0B
:1001D400A4B2B2FBF5F005FB102200FB0EFE44EACC
:1001E4000244A64508D91CEB040400F1FF3202D2F4
:1001F400A64500F21981104640EA0140A4EB0E0422
:1002040000211EB1DC400023C6E90043BDE8F08FA5
:100214008B4208D9002E00F0FB800021C6E90005BE
:100224000846BDE8F08FB3FA83F100294BD1AB4205
:10023400C0F0F180824240F2EE800846002EE5D004
:10024400C6E90047E2E702B9FFDEB2FA82F3002B07
:1002540040F09D808D1A4FEA124E97B20121B5FBF2
:10026400FEF20EFB1250250C45EA004507FB02F096
:10027400A8420FD91CEB050502F1FF382CBF4FF043
:1002840001094FF00009A84203D9B9F1000F00F0A9
:10029400CE8042462D1AA4B2B5FBFEF00EFB1055DB
:1002A40000FB07F744EA0544A74208D91CEB040401
:1002B40000F1FF3502D2A74200F2B3802846E41BC6
:1002C40040EA02409DE7C1F120078B4005FA01F4A2
:1002D40022FA07FCFD408A404CEA030C20FA07F39B
:1002E4004FEA1C491C431FFA8CFE00FA01F3200C50
:1002F400B5FBF9F809FB185540EA054508FB0EF073
:10030400A8420FD91CEB050508F1FF3A2CBF4FF0AA
:10031400010B4FF0000BA84203D9BBF1000F00F012
:100324008C80D0462D1AA4B2B5FBF9F009FB105508
:1003340000FB0EFE44EA0545AE4507D91CEB050556
:1003440000F1FF3401D2AE457ED8204640EA084091
:10035400A5EB0E05A0FB029845454C46C64602D3C4
:1003640006D14B4504D20138B9EB020468EB0C0EFC
:10037400002E6FD01A1B65EB0E0522FA01F305FA65
:1003840007F7CD4000211F43C6E900753EE702FA96
:1003940003FCC3F1200001FA03F24FEA1C4EC140F2
:1003A40024FA00F51FFA8CF79C401543B1FBFEF0CC
:1003B4002A0C0EFB101142EA014200FB07F19142A4
:1003C4000ED91CEB020200F1FF382CBF4FF00109DB
:1003D4004FF00009914202D9B9F1000F31D04046E3
:1003E400521AADB2B2FBFEF10EFB112245EA0245F0
:1003F40001FB07F2AA4207D91CEB050501F1FF38FE
:1004040001D2AA4223D84146AD1A41EA004126E767
:1004140031463046FAE6841A65EB030301201F4691
:100424000CE7644402384AE764440238E4E6023ADA
:1004340065442FE702396244C9E6A8F1020865441D
:1004440070E702386244CBE7023865447EE702393C
:100454006544D9E73146D9E6704700BF7FB53F4BC5
:100464003F4A4048C3F800264921C3F80426C3F88C
:100474000826C3F80C26C3F81026C3F81426C3F8BC
:100484001826C3F81C2605F02BFD00F0AFF83648FB
:1004940000F07EF828B94521334A344805F020FDA0
:1004A400FEE7334804F092FE04460269816813684B
:1004B40023F0806313600B684FF488721A21984705
:1004C400A36820465B6801A9984790B9019B5A012B
:1004D4000FD44FF05023D3F800340BB1DB0708D509
:1004E4004921244805F0FCFC01F038FD224802F0C3
:1004F4009BF801A800F0D8FC204B1B68834204D071
:1005040045211F4805F0ECFCFEE7039A49211D48EC
:1005140005F0E6FC49211C4805F0E2FC69469DF81B
:10052400080000F041F8009B039C1C44019B1D89BA
:1005340000F062FF66194FF02002EFF3118382F39B
:100544001288BFF36F8F635983F3088873689847E1
:1005540045210E4805F0C4FCFEE700BF00800150B1
:100564003546526E078D0000208D0000338D00004B
:10057400528D0000598D0000388900001CC70020EE
:100584007D8D0000A08D0000CF8D0000F48D000053
:1005940010B5044C236813B904F018FE20602068D9
:1005A40010BD00BF18C70020024608B538B1054881
:1005B4000023452105F094FC6FF0150008BD086088
:1005C400FCE700BF178E00001FB5074A03460C4620
:1005D4001068194601AA06F016F918B9019B2360A0
:1005E400029B636004B010BD18C700204FF4C051D3
:1005F400014803F005BF00BF8EE000202DE9F04F55
:10060400DFF8ECA1F9B038A8DDE9844817461D46A7
:10061400DAF8006007F062FE002138A803F0F6FF64
:100624003CB1B8F1000F04DD4246214638A807F07A
:1006340059FE4FF000097B89B7F808809844FB689D
:100644009844C8454BD80DA938A807F088FE869B66
:1006540023B1202218460DA905F09DFF00232A4648
:10066400009339464FF6FF7307A805F0E7F80446F0
:10067400002840F0B68080464FF0FF37DFF87491D1
:100684000DF1160305AA06A907A805F023F9041E0F
:10069400C0F2A78040F09880BDF816B0BBF1100FEF
:1006A40034D1BDF81480B8F1200F40F0988043464F
:1006B4002846069938AA05F021FC0446002840F093
:1006C4009080424638A90DA805F04FF904464A4BDC
:1006D4001B68834240F085804FF00108D0E7DDF8C5
:1006E4000CB2A8EB09039B4528BF9B4649465B46D1
:1006F4002846829A05F002FC0446002871D15A4625
:10070400829938A807F0EEFDD9449AE7BBF1010FAE
:1007140036D1BDF81430202B61D82846069938AA62
:1007240005F0ECFB044600285BD19DF814B0BBF146
:10073400200F03D94FF0FF342746A1E7D9F8003042
:100744002E4F0393039B9C42F4DA1DA807F0C6FDC9
:1007540000211DA803F05AFF7A681DA8126857F8F3
:10076400081B07F0BFFD15A91DA807F0F8FD5A46A0
:1007740038A915A805F0E6FE0028DDD00134E1E72C
:10078400BBF1200F7FF47CAF7B1C3FF479AFD9F829
:100794000030BB4215DDBDF81430B3F5807F1ED1A7
:1007A4002846069938AA05F0A9FB0446C8B9FFB241
:1007B4005946BDF81430009738AA0DA800F020F867
:1007C40006464FF0FF375BE7B8F1000F0DD00A4B38
:1007D4001B68B34201D0DAF80060344601E04FF000
:1007E400FF34204679B0BDE8F08F0124F9E700BF5B
:1007F40000C50020408900001CC700204489000077
:100804002DE9F04F9846ADF54B7D6B4B074627A875
:100814009DF850638A4691461D6807F01CFD674B9E
:100824008AAA53F8364003EBC6035B68029419683E
:1008340002A80C443023214606F0A3FA68BB029BAD
:100844008A9A13449C4228D1214629AA02A806F078
:10085400ACFA10BB0DF1B00B5A46214602A806F0C3
:10086400A4FA0646C8B929A806F0FFFD029B289001
:100874009C4212D133463246CDE9006B29A927A800
:1008840007F0A5FC48B927A803F05EFE28B929A8FB
:1008940006F0EBFD804528900AD027A807F0E5FC78
:1008A40027A807F0E2FC28460DF54B7DBDE8F08F44
:1008B400B8F5807F02D04FF0FF35F1E7BAF1200F91
:1008C400F9D149468AAA27A803F062FE0446002803
:1008D400F1D19DF82733BC2BEDD10DF5A478DF269B
:1008E400454603900CA807F0F9FC00210CA803F07E
:1008F4008DFE20220DF207310CA807F0F3FC042230
:1009040003A90CA807F0EEFC04A90CA807F027FD26
:100914001F2ED4BFB1464FF020099DF80F3040463A
:1009240001334A4604A9A6EB09068DF80F3005F0F9
:1009340032FE002EC844D5DC28462A46DF238AAE80
:10094400117816F801CB013B81EA0C0102F8011B76
:10095400F6D12B7803F07F032B7010F8016B002E77
:10096400A9D10134BE2CF8D195F8BE30012BA2D107
:100974000CA807F0B3FC31460CA803F047FE08228C
:100984000F490CA807F0AEFC394620220CA807F04A
:10099400A9FC20220DF207210CA807F0A3FC04A94E
:1009A4000CA807F0DCFC20220DF2073104A804F0A7
:1009B400DCFF054681E700BF00C500204489000034
:1009C4003D8E00002DE9F041022386B00D466F46AE
:1009D4000026DFF86880ADF8003017F8010B01A994
:1009E40001F0BEF90446A0B901981023816802AA57
:1009F400103905F083FA0446019805F07EFA44B9EB
:100A04001022414602A805F09DFD40B12EB14FF0E1
:100A1400FF34204606B0BDE8F0810126DDE70198E9
:100A240006F0CCF80423A0F108012A46019805F049
:100A340065FA0446019805F060FAEAE7488B00007D
:100A44002DE9F041384B88B0064600200D461C685D
:100A540004F0E9FE06A9C0B201F082F9002857D1DA
:100A6400294604F0E0FE2C2407A9C0B204FB056467
:100A740001F076F9002836D04FF02C0808FB05F871
:100A840006EB0807396911F0100137D14FF4807370
:100A94000193264B224600930846CDE90311069B99
:100AA4000291FFF7ABFD0446214B56F80820069847
:100AB4009A420CD13A89FB68D1438B4207D813443C
:100AC4008268934203D21B4B1B68A3421DD045B3DB
:100AD4008268002105F04AFA174A4521174805F0B3
:100AE400FFF9012411E0079805F060FA074607981A
:100AF40005F003FA631EE21C93420DD1002DF0D0E1
:100B04003046069905F027F82C46069805F0F5F9C5
:100B1400204608B0BDE8F08113F8011FB942EBD0BC
:100B2400AAE7074AD9E700BF00C500208EF80020D5
:100B34003DB8F3961CC70020458E0000578E000078
:100B44004F8E000073B50D46002104462846CDE9BA
:100B5400001104F0BFFF30B3164E2368B34203D133
:100B6400204601AA04F04AFFE36AB34204D16A466C
:100B74000121204604F042FFDDE90032934288BFA0
:100B84000193019BAB60019A2946204600F03AFB91
:100B9400094B1A68002A03DD5721084805F0A0F91B
:100BA400002002B070BD05F10801FFF70BFFAB6830
:100BB4000193E8E73DB8F39680DB00207F8E0000C8
:100BC4002DE9F84F884691469A460026DFF868B02A
:100BD4001A4C1B4D0B9B9E4201D300200FE00B9B34
:100BE40040469F1BB7F5806F28BF4FF48067124AB9
:100BF4003B4606EB0A0105F081F910B10120BDE87E
:100C0400F88F0A993B465A464846711805F092F9FE
:100C14000028F3D1C4F800563E44C4F80456C4F87E
:100C24000856C4F80C56C4F81056C4F81456C4F840
:100C34001856C4F81C56CDE780C700200080015028
:100C44003546526E2DE9F0430F4600218E4B85B098
:100C54001E688E4B044643628D4B0365084604F0C0
:100C6400E2FD04F12001C0B201F07AF80121002074
:100C740004F0D9FD04F14C01C0B201F071F805464D
:100C8400204604F0FCFE804668B900222046114646
:100C940004F09CFE804608B3002257217D4805F0ED
:100CA4001FF9012392E04FF4807257217A4805F02E
:100CB40017F90123984584F85830E6D194F8583050
:100CC400042B8DF8073000F28480012B00F2888019
:100CD40000F09F80FF2384F858309AE0204600F00B
:100CE400A7F90028DDD0684604F0EBFE69462046EB
:100CF40004F086FF18B1424657216848CFE768469A
:100D040004F0E8FE80F001016A462046C9B204F00E
:100D14005DFE02460028BFD1684604F0DBFE804633
:100D240060BB69462046FFF70DFF9DF8073084F845
:100D34005830033B012B06D8404604F0AFFF10B1F6
:100D4400FF2384F858309DF80730023B022B0BD860
:100D5400002004F091FF38B1FF2384F85830452176
:100D64004F4805F0BDF8FEE794F85830FF2BF6D055
:100D74006A460021204604F029FE92E79DF8079078
:100D8400B9F1010F17D1104603F068F9831E022B45
:100D940080460DD849462046FFF752FE414B1B685A
:100DA400984205D001280CBF4FF001084FF0050808
:100DB40084F8588082E701212046FFF741FE394B31
:100DC4001B68984214BF05239DF8073084F85830F7
:100DD40074E7052B7FF47EAF002004F05FFF13E07F
:100DE40069462046FFF7AEFE94F858300546DA1EF1
:100DF400012A0CD8002004F051FF054600287FF496
:100E040069AF002004F038FF054610B162E7022BF9
:100E1400F7D094F85830FF2B04D14521204805F031
:100E24005FF8FEE7012B06D06A460021204604F055
:100E3400CDFD0546D0B900212046FFF701FE064648
:100E4400DFF86080D8F8003098420FD110220021DA
:100E5400684605F0ABFB206A04F0EEFC002538710F
:100E6400236AD8F800605B683C60BB60E06C05F006
:100E740044F8206A05F041F8002D14BF2846304696
:100E840005B0BDE8F08300BF00C5002080CB002082
:100E940080D30020F08E0000AE8E00001C8F000076
:100EA400468F00001CC7002038B5064D044660225A
:100EB4000021284605F07AFB21462846FFF7C2FEAA
:100EC40038BD00BF20C7002073B516461C4633B397
:100ED400436A5D686379012B15D101BB1F4B2268FE
:100EE4001B689A4298BF0025002004F09CFC01A9CD
:100EF400C0B200F035FFF0B10125019804F0FDFF08
:100F0400284602B070BD022B09D12368012B08D9F1
:100F1400124A1268934202D8B1FA81F149090025B4
:100F2400E2E7FCD10029DFD00129F8D12179023987
:100F340018BF0121F3E7294620233246019804F023
:100F4400DDFF05460028D7D1002CD6D035680448EB
:100F54002D1A18BF4FF0FF35CFE700BF04C500209E
:100F64003DB8F3962DE9F04F07460C4685B001468F
:100F74000020164604F000FD051E52DB3846E46DE1
:100F840004F004FD5FFA84F94FF0000A4FF0010BFE
:100F94004FF0FF3405F1FF3809FB08089DB9BAF199
:100FA400010F03DD4521214804F09AFF631C06D09C
:100FB400FF2C2ADC40F2011301343460B38028464C
:100FC40005B0BDE8F08F6B1E0093414601233846FF
:100FD4000DF10F0204F092FF031E019323DB0122A3
:100FE40038460DF10F0105F0FAFD019B40B15B4558
:100FF40001D00AF1010A9B46009DA8EB0908CDE740
:10100400B4F1FF3F08BF2C46F5E70223A4F5807432
:101014007371631004F001040133013433603471DB
:10102400CDE70725CBE70125C9E700BF528F0000B4
:10103400816A426D38B58A4208D0531C8B4205D070
:101044005721144804F04CFF002038BDB1F5807FCF
:101054001CD957211048F5E7446A056D04EBC30415
:1010640005EBC30564686D68AC4202D057210B4898
:10107400E8E701339A42EFD1914205D9436A03EB81
:10108400C2025368A342F1D10120DEE700231C46CB
:10109400F0E700BF758F0000AD8F0000DC8F00000B
:1010A40000B589B0022004A905F0FEFD9DF81020CA
:1010B400012A41D0254B2649032A18BF0B469DF827
:1010C4001320492102929DF81220224801929DF892
:1010D40011200092204A04F003FF062006A905F01F
:1010E400E3FD9DF81820012A28D0184B1849032A3B
:1010F40018BF0B469DF81B20492102929DF81A2027
:10110400144801929DF819200092144A04F0E8FE54
:101114009DF81030012B13D19DF81230032B0FD101
:101124009DF81830012B0BD00D48492104F0D8FE4E
:10113400022009B05DF804FB0A4BC0E7094BD9E76C
:101144000948492104F0CCFE0020F2E70D9000008C
:101154001390000025900000179000006690000096
:1011640076900000089000009590000070B54B68E0
:1011740014461E4A03F0FF23934206460D4686B0EA
:101184002FD10B68012B2CD1204604A902F016FFA5
:101194009DF81020012A26D0154B1649032A18BFA2
:1011A4000B469DF81320492102929DF81220124803
:1011B40001929DF811200092104A04F091FE9DF8CE
:1011C4001030032B0DD12146304604F0C4FC2046D8
:1011D40005F061FD2046A96804F0E9FB204602F011
:1011E400DFFE06B070BD064BDBE700BF0001000464
:1011F4000D90000013900000259000006690000000
:1012040008900000436A2DE9F04F0C465E680546DD
:101214000121002389B033449A42084601F10101B7
:10122400F9D8724B1860204604F054FCB8B1E86D4C
:1012340004F09DFB0022AB6A013B3244904201D989
:10124400013BFAE7694A12689A4208D35721684871
:1012540004F046FE0123E37109B0BDE8F08F06A94E
:10126400022000F07DFD07A9062000F079FD21464B
:101274002846079AFFF77AFF6379012B08D15B4B65
:10128400DFF870B11F68594B1B68A7B901232360AD
:101294004FF002030127DFF85C816371534BDDF8E3
:1012A40018901B689F424AD9484604F026FE0798C6
:1012B40004F023FED0E7226801339B1A9F423CD8F6
:1012C4006B6A012A196853F8370003EBC70353F814
:1012D400083CDDF81880A0EB0109A3EB010A12D148
:1012E400E268079B022A0AD041462846039304F089
:1012F40032FC22464146284604F063FC039B19460F
:10130400284604F028FC32464946404604F021FCB5
:101314005346424641462846CDE90096FFF750FC25
:101324002146284604F0E3FB23680133236020B1FF
:10133400DBF800300133CBF80030013FA3E723682A
:101344009F4251D36A6AFB0052F83710083B04915C
:101354001168DDF81CA00391296DC8580968A0EB39
:10136400010B217901293DD1D158039B3246C91A79
:101374004846059104F0EDFB05995B464A46009109
:10138400284651460196FFF71BFC2146284604F0E7
:10139400AEFB4FF00203237120B1D8F800300133C3
:1013A400C8F8003032465946504604F0D2FBDDE915
:1013B400032349469B1A28465246CDE900B6FFF757
:1013C400FFFB2146284604F092FB23680133236087
:1013D4004FF00103237138B1D8F800300133C8F855
:1013E400003001E00229DDD0013757E704C50020B1
:1013F400AC90000080DB002038B501224FF0FF34B0
:1014040000251A4B29465A60C3F84843C3F80843D9
:1014140003F580535A60C3F84843C3F80843A3F55F
:101424005043C3F800558022C3F80843104805F020
:10143400BDF8802229460F4805F0B8F80E4B8022EB
:10144400C3F800552946C3F808430C4805F0AEF824
:10145400802229460A4805F0A9F80A4BC3F8084532
:101464004FF05023C3F8084338BD00BF004001507B
:101474008080005080810050009000508090005087
:1014840080910050007001502DE9F0430546079803
:1014940010B91060BDE8F0830324B0FBF4F404EB4E
:1014A4004407B84218BF0134B4F1804F05D34FF05C
:1014B400FF3313606FF00B00ECE7A40001348C429F
:1014C40000D80DB91460F5E72E460024DFF8B4E027
:1014D400BC4231469C4606F1040603F1030329D3BA
:1014E400844222D20134844228BF00239CF8006045
:1014F400244F38BF9CF801304FEAA60C17F80CC0F3
:10150400844281F800C007EB131C2FBF3D239B00CE
:1015140003F03C03FB5C36018B703D2306F0300680
:101524001CF80660CB704E70043100204D1B156012
:101534000870AFE713F803CC13F8021C4FEAAC09A8
:101544001EF809904FEA0C1C13F8018C0CF0300CB7
:1015540006F8049C0EEB111919F80CC0890006F862
:1015640003CC01F03C010EEB981C1CF8011008F0B0
:101574003F0806F8021C1EF80810033406F8011C84
:10158400A6E700BF699200008C4600212DE9F043D4
:1015940007460D460846079EDFF81881B5420AD370
:1015A4002E4604E00135AE420EF1010E05D190BB8A
:1015B4001060BDE8F0834FF0000E5C5D202CF1D08C
:1015C400AE42F4D0A6EB0509B9F1010F13D00D2CEE
:1015D40011D103EB050999F80190B9F10A0F18D05C
:1015E400BEF1000F04D13D2C07D10131022907D9E6
:1015F4006FF01500DDE70A2CF1E714F0800FF7D146
:1016040018F804407F2CF3D03F2C01D80029EFD1E7
:1016140001300135C2E74FF0060E00F00705C4089B
:101624000EFB05F50EFB04F40735641A04EBD50430
:101634008FB164450FD800249C461E4403203B46CA
:101644002146DFF870E0DFF87080664507D1DB1BC8
:1016540000201360ADE76FF00B001460A9E71CF8DD
:10166400019BA9F10A05EDB2162D03D828FA05F558
:10167400ED07EAD41EF809500131402D08BF0138A6
:1016840005F03F05042945EA8414DED178B1210C24
:101694000128197002D101330021D6E702284FEA4C
:1016A4001421597016BF9C7002330333F4E70146CA
:1016B400CBE700BFE9910000090040000B6801334B
:1016C4000B60014B1B68184708C5002007B50B4683
:1016D400002102460191034801A900F0E5F803B096
:1016E4005DF804FBC11600002DE9F84FB0F818901E
:1016F400044619F0080893460DD001290CBF49F09F
:10170400100949F02009A0F818908BF31188BFF351
:101714006F8FBDE8F88F09F00709022907D1204629
:1017240004F032FB0028F0D00128238B4ED16769E6
:10173400218B002F15DA256821F00701C4E9008800
:1017440041F0010121830026218B01F0070ACA45DB
:1017540002D0A368002B5AD10DB9002E71D00023FA
:1017640056E001F007035A1F012A1ED821F0070191
:10177400062B256889B2C4E900880AD13DB12A46FE
:10178400638B126801339BB2002AFAD1638341F060
:1017940002012046218304F0F7FA06460028D3D03C
:1017A400238B43F020032383CDE7042B0CD121F0BA
:1017B400070189B22046218304F0E6FA0546002891
:1017C400C1D041F0200121830025BCE7032809D1C1
:1017D400226923F00703166843F0060300252383D8
:1017E4002F46B1E7042806D1226923F0070356687F
:1017F40043F00403F2E7052806D1226923F0070326
:10180400966843F00503E9E700252E46E8E701233F
:1018140041F0080121838BF31188BFF36F8FFBB96B
:1018240085BB16B120461F49B0474FF02003EFF3A4
:10183400118B83F31288BFF36F8F238B23F008037C
:101844002383238BDA0625D5012123F01003238378
:10185400B4F8189009F0070900297FF45EAF54E743
:10186400A1680029DCD0D1F800903B4652462046BE
:10187400D1F804B0D847B9F1000FD1D04946D9F80E
:101884000090F2E729463B46524620462D6804F074
:1018940097FAC5E713F020011EBF23F020030221AD
:1018A4002383D5E7F15D00002DE9F04F8A464FF020
:1018B40000098FB01E46531E01900293029B587874
:1018C4005C1C252821D14FF0000C4FF0FF3718463F
:1018D4003D4663460A240230CDF80CC002780290DB
:1018E400392A00F1010059D81F2A18D8002A00F01B
:1018F400F3815146019B25209847029B5146187855
:10190400019B984709F10209D8E7002800F0E48117
:101914005146019B984709F101090294CEE7A2F1CF
:1019240020011929E5D80FF2080E5EF821F000BF56
:101934009D190000F7180000F71800009D19000019
:10194400F7180000211A0000F7180000F71800002B
:10195400F7180000F7180000631A00009D19000032
:10196400F7180000751A00002F1A0000F71800007D
:101974003B1A0000571A0000571A0000571A0000BB
:10198400571A0000571A0000571A0000571A00008F
:10199400571A0000571A000094469FE7582A00F08F
:1019A4001781A2F163015FFA81FEBEF1170FA0D87F
:1019B40017299ED80FF2040E5EF821F0331C0000A4
:1019C4009B1A0000F7180000F7180000F718000031
:1019D4007B1A00009B1A0000F7180000F71800009B
:1019E4007B1A0000F7180000F7180000F718000031
:1019F400811B0000F7180000F7180000151C0000F8
:101A0400F71800009B1A0000F7180000F7180000F0
:101A1400811B0000F71800007B1A000051462520A6
:101A2400019B984709F1010948E7039A002702F04E
:101A3400FE02039252E7002D0BDA002F0BDA039912
:101A4400002900F0418125EAE57504FB0525303DB8
:101A540044E7002FF7DB04FB0727303F3EE7002F66
:101A640056F8042B80F23281002A80F231815542EB
:101A74000222039232E7682A03D1682B06D1482355
:101A84002CE76C2A02D16C2B00F02481002B7FF40C
:101A940030AF134622E77A2B06D1752A56F8044B49
:101AA40061D14FF000080DE06C2BF6D04C2BF4D133
:101AB400073626F007031E46752AF6E8020107D109
:101AC400D3E90048BCF1200F50D1854B013D09E01A
:101AD40004468846B8F1000FF4DA6442814B68EB9F
:101AE4004808013D4FF0000B00930DAB05932046D1
:101AF40041460A220023CDF810B0FEF721FB059BD6
:101B0400303203F80129CDE905342046002341464B
:101B14000A22CDF81C80FEF713FB069B04460A2B11
:101B2400079B884673F100030BF1FF3BDFD2049B54
:101B3400C3F1010B38330DEB0304002FA4F10404AB
:101B440004DA039B13F0010F18BF2F46039BA7EB86
:101B54000B08B8F1000FD4BFA5EB0B05ED1B9B07D9
:101B64007CD42F4673E04FEAE478B3E7BCF12B0F43
:101B74000ABF5D4B5D4B05F1FF35B3E7702A27D1F2
:101B840056F8041B0023002959D059480090023DFF
:101B9400002402F06002A2F139080DF1340E01F0C4
:101BA4000F02092A88BF424430320EF80129102955
:101BB4004FEA111242EA03724FEA131073F1000361
:101BC40004F1FF3C20D2C4F1010B04F13803B2E765
:101BD4006C2B03D1002356F8041B08E04C2BF9D1DD
:101BE400073626F007031E465B6856F8081BBCF14F
:101BF400230F06D13F4C12F0200F3D4808BF20466A
:101C0400C4E73A480090C3E7644611460346C6E772
:101C140056F8044B204604F082FC002F834602DB76
:101C2400B842A8BFBB46314B002700938EE756F855
:101C3400043B4FF0010B8DF8203008ACF3E74FF074
:101C4400050B2D4CEFE751462020019B9847013F9F
:101C5400F9D525EAE573013D9944ED1A009BA9EBFA
:101C6400030904E000935146019B9847009B09EB4C
:101C7400030713F8010B0028F4D1C146B9F1010997
:101C840012D5D94628EAE878B9F1010911D5BBF192
:101C9400000FA8BFD8442C46013C10D5002DA8BF86
:101CA400A84408EB070909E65146019B30209847F0
:101CB400E4E7514614F8010B019B9847E4E75146C9
:101CC400019B20209847E7E70122D2E6174605E664
:101CD400154603E64C2301E648460FB0BDE8F08FF5
:101CE400CB970000A9920000AB920000659B000016
:101CF400B0920000AD920000B392000008B54FF01E
:101D04002002EFF3118382F31288BFF36F8F01F087
:101D140089F8034804F02BF800F08CFDFCE700BFC1
:101D2400B99200004FF02002EFF3118382F312887E
:101D3400BFF36F8F0121044AC2F8401583F3118861
:101D4400BFF36F8F002070470090035020B1034B06
:101D5400800143F001031847704700BF3089000039
:101D64000C4B70B51B6873B10B4A15680022AA426C
:101D740002DB6FF0010070BD1C4613F8106B864245
:101D840004D00132F3E76FF00C00F4E700200C609C
:101D9400F1E700BF0CC50020F089000070B588B0E1
:101DA40005460C46C0B269461646FFF7D9FF00281F
:101DB4001FDB009BEBB15A68216802929A68D868CD
:101DC400CDE9032600220195CDE90612059203F020
:101DD400FDF90546009804F090F86DB128460849CD
:101DE40001AA04F014FD079808B9059B236008B004
:101DF40070BD6FF01500FAE76FF01200F7E700BF4F
:101E0400C35F0000014803F0A5BB00BFF4890000D4
:101E1400F7B5244E306883685B6C03B1984730682B
:101E240083685B6BA3B9204C204D306883689B6941
:101E34008BB101220DF10701984701280BD12368CA
:101E440093B92B684BB94521194804F049F802E0CD
:101E540098470028E7D103B0F0BD69681A688B423F
:101E64002A6000D16A602360124A9DF80700118835
:101E7400B1F5007F04D223684F1C0B4417801872FD
:101E84000A28D2D1002023681188186059600A49B1
:101E94004D6825B9C1E9003310802060C4E72B6088
:101EA4004B60F9E7ACDF00208CDB002084DB0020F2
:101EB400E69200008CE00020A4DF0020044B10B563
:101EC400044618688368E1B25B689847204610BDF1
:101ED400ACDF0020F8B506460F4615464FF0200348
:101EE400EFF3118C83F31288BFF36F8F18490B68DB
:101EF40043B1184A5068984204D000241C6090B939
:101F0400C2E90033144B186828B15C680268A04227
:101F14001A6008BF5A608CF31188BFF36F8F086092
:101F240020B92860F8BD03605360EBE7446800F112
:101F34000801A742D8BF07F1FF342246304604F017
:101F44002AFB0023335501232B60E018EAE700BF86
:101F540090DB002084DB0020A4DF002037B50025BF
:101F64001C4B1D4AC3E900551C4B1D4C1D4803F571
:101F740002711360C3F8085219605160206006F0C2
:101F840000FB10B32068836823B19B6C13B12A460D
:101F940015499847206883685B6B0BB1984748B133
:101FA400206883689B6903B9FEE701220DF10701EC
:101FB4009847F4E700250D4B20681D8083689B6AD1
:101FC40033B19847284603B030BD4FF0FF30FAE7ED
:101FD4001846F8E7A4DF002084DB002094DB00200F
:101FE400ACDF00205C860000151E00008CE00020A1
:101FF40040F6061300202DE9F043DFF8EC90D3B04F
:10200400D9F80010ADF80C30384BDFF8E4801F68C5
:102014000B78A7EB080701330B707BBA4B808B88D6
:1020240008225BBA8B80487003F06DFE3A46414645
:10203400ADF8100003F067FE02252E4E40BA336857
:10204400BCB2ADF81000022103A85B68984704F104
:102054000A035BBA0DF11201022206A8ADF8123090
:1020640004F099FAD9F8001008220DF11A00ADF81D
:10207400125004F090FABDF8120006AB083080B29A
:102084003A464146ADF81200184404F084FABDF80B
:10209400120006AB204480B22A46ADF8120004A90F
:1020A400184404F078FABDF8123005AA2B449BB208
:1020B400ADF812300093AD2106AB26A8FFF7E4F982
:1020C40005993368ADF8121026A85B6889B2984761
:1020D400336829465B68084898474921074803F054
:1020E400FFFE53B0BDE8F083B4DF002010C500202C
:1020F4008EF90020B0DF00203F93000042930000DF
:1021040037B50E4C05460A21204604F05AF96B46B1
:102114000B4A92E8030083E803001946204604F0C2
:1021240041F92946204604F034F90A21204604F0F6
:1021340063F9FFF75DFF03B030BD00BF10C5002099
:1021440000890000F0B50C68164F85B002380D46C2
:10215400C4F500710090144B381903AA0131FFF73C
:1021640013FA0446D8B92B68039A1344022B2B6044
:1021740012D93E88023B76BAB6B29E420CD13246A0
:10218400B91C03F0C0FD38B9022E05D92B68023BF7
:102194001F442B60BC700124204605B0F0BD4FF0F5
:1021A400FF34F9E70EFA002011FC00202DE9F04776
:1021B40007290446A8B040F2C380027812F0FD0556
:1021C40040F0BE804388A1F108065BBA9BB2B342DB
:1021D400C0F0B680A74BA84F186083885BBA98B24A
:1021E400A380A64B01283B6003F18003FB6040F011
:1021F400F98194F80780B8F1000F09D0B8F1010F04
:1022040000F0B280082028B0BDE8F047FFF778BF9F
:1022140001469B4E384604F0D4F896E8030008AB18
:1022240083E803001946384604F0BCF83846052113
:1022340004F0BBF84446DFF84C8206F10807103678
:102244002146002003F0EFFA07A9C0B2FFF788FD8A
:102254000546002869D12023014610AA079803F0F7
:102264004DFE109B434570D0874B1D68079803F0C3
:1022740044FE864B1B68AB4257D114217E4804F0C0
:10228400A0F897E803000AAB83E8030019467A48EC
:1022940004F088F82146784804F07BF896E80300B7
:1022A4000CAB0DF1600983E803001946724804F091
:1022B40079F89DF85410484603F0B2FE4FF02E0A08
:1022C40000F1A003451C0DEB03009DF8551000F828
:1022D40040AC09EB050003F0A3FE284400F1A00381
:1022E400451C0DEB0300BDF8561000F840AC09EB9B
:1022F400050003F095FE054405F1A0036B44013588
:10230400169903F840AC09EB050003F089FE484632
:10231400CDF8389004F003F90EA90F90564804F054
:1023240041F81421544804F067F864B10521524877
:1023340004F05FF82146504804F05EF8FFF758FEB9
:1023440028B0BDE8F08701247AE74023019318AB55
:102354002946CDE90355029500932846079B10AA08
:10236400FEF74CF9054681E731460AAB18AA04F199
:102374000800089500F04AFA08B9032434E00A9BDF
:102384009E42FAD14FF0FF342A462846A2462646FA
:10239400A146A846279F18AB974255D1B9F1FF3FF4
:1023A40008BFB6F1FF3FE8D0B8F1000FE5D0002137
:1023B40003F039FA08A9C0B2FFF7D2FC0028DCD137
:1023C40056EA0903324F08D1089B38609B68A34240
:1023D40070EB0A03D1DB2F4B1C6000243B684C4597
:1023E40008BFB3425CD00024224649212A4803F0A6
:1023F40077FD2A4D0A21204803F0E3FF95E8030006
:1024040010AB83E8030019461B4803F0CBFF2146B9
:10241400194803F0BEFF6CB9D5E908010EAB83E897
:1024240003001946144803F0BDFF194B12481968FC
:1024340003F0AFFF0A21104803F0DEFFFFF7D8FDD9
:10244400089803F05AFD7BE7197A032904D8DFE8DA
:1024540001F00206090D186801320C339CE7D3E938
:102464000085F9E71C684FEAE47AF5E71E684FEA4D
:10247400E679F1E7B4DF002010C500208EF90020D2
:10248400088900003DB8F39600C500201CC7002051
:10249400B8DF0020C8DF0020159400000089000088
:1024A400DFF864A12B44DAF8002093423FF665AFCD
:1024B400089803F072FDB5FBF0F606FB1050C6B2A7
:1024C4003868DAF8003042199A4202D20EB1AD1BD4
:1024D40026460CA92844FEF777F8044620B1452186
:1024E4004A4803F0FDFC7FE7DFF824910C9AD9F801
:1024F40000309A4212D049214648C9F8002003F01E
:10250400EFFCDDE90C12089803F030FD044628B115
:1025140022464521404803F0E3FC65E73A68492137
:102524003E48AB1803F0DCFC002E42D0AC1B2BD091
:10253400234642463968089803F0FCFC00287FF4DF
:102544001CAF35463B68A04423443B6032464146B9
:1025540010A804F020F8089803F028FD10AB0146F9
:10256400C6F10802981904F021F8089C3E68204638
:1025740003F013FD31460346204610AA03F0DAFCAB
:1025840000287FF4FAAE01E0002DDFD13B681D4442
:10259400DAF800303D609D427FF425AF089803F0DF
:1025A400F5F90CA9FEF710F8044638B145211C488A
:1025B40097E72B46424639680898DFE70C9AD9F822
:1025C40000309A427FF60FAF4921124803F088FC8D
:1025D400DDE90C12089803F0C9FC044600283FF416
:1025E40003AF95E700287FF40DAEE379012B3FF4A8
:1025F4000AAE052B7FF406AEFFF782FD094805F00D
:10260400D4FF0120FFF77AFBC8DF00204A930000C3
:1026140024C500207593000098930000BB9300002C
:10262400DB93000090D00300F7B500240646234B4B
:10263400234D244F0094186000F0FCF8224BC4F59D
:102644000071C3F8005601AAC3F804560131C3F857
:1026540008563819C3F80C56C3F81056C3F8145664
:10266400C3F81856C3F81C56336898470028019BD2
:1026740001DC002BE0D004442BB940F201239C423E
:10268400DAD10024D8E73B78062B09D17B78092BD3
:102694000BD1002300936946A01EFFF753FD04E00D
:1026A400042B02D17B78142BF5D00128E9D10099B1
:1026B40006480239FFF77AFDE3E700BFB0DF0020E8
:1026C4003546526E0FFC00200080015010FA0020A5
:1026D40030B585B005460C4603F08EFD20B90024C4
:1026E40004F0010005B030BD0C2304F13C02CDE937
:1026F400014305210120054B009503F08DFD04469F
:10270400284603F087FD0028E9D0E9E715270000F3
:1027140073B504460E4603F0ADFE054638B3364B9A
:102724006946009305232046019303F062FD38B106
:102734003146204603F011FD10B10023337240E00E
:10274400204603F09AFEA8B12C4B6946009304235B
:102754002046019303F04DFD60B13146204603F05D
:1027640045FD38B101253572204603F08AFE28461E
:1027740002B070BD204603F080FE78B1204B69465C
:10278400009303232046019303F033FD30B1314617
:10279400204603F0E2FC08B10223CFE7204603F011
:1027A4006CFE80B10325174B6946204600930195C2
:1027B40003F01FFD38B13146204603F0CEFC10B1C2
:1027C40035720125D0E7204603F057FE08B90025ED
:1027D400CAE70D4B6946009303232046019303F097
:1027E40008FD0028F3D03146204603F0FFFC002802
:1027F400EDD00423A2E700BF7090000023940000F2
:10280400289400003B9300002C9400001FB54FF067
:10281400020C0124CDE9014C024C009403F035FE76
:1028240004B010BDD5260000014910220A6070478B
:1028340010ED00E072B6404080F31188BFF36F8F53
:10284400BFF34F8F30BF62B6BFF36F8F704700BFC7
:1028540072B6494081F3118820BF80F3118862B6B3
:10286400704700BF37B505460C46C9B18B681048A0
:102874000093D1E90023452103F032FB636945212C
:102884000093D4E903230B4803F02AFB4521E269B2
:10289400094803F025FB4521A269084803F020FB01
:1028A4002146284603B0BDE8304002F0B9BC00BF61
:1028B400309400006494000098940000AC940000EC
:1028C40043B2002B08DB012200F01F0002FA00F0E3
:1028D400024A5B0942F82300704700BF00E100E0B0
:1028E400054B420953F82220012300F01F0003FA8C
:1028F40000F01040704700BF00E100E043B2002B3D
:1029040001F10101ACBF03F16043064B4FEA4111F1
:10291400C9B2ABBF03F5614300F00F0083F80013A5
:102924001954704714ED00E030BFFFF7FDBF00BF3E
:102934000B4A08B50B4B22F07F029A60BFF34F8F0E
:10294400BFF36F8FD3F8882022F47002C3F8882075
:1029540002F0BCFC02F000FD00F028FA02F0C2FC18
:102964000000000000ED00E01EF0040F0CBFEFF3C8
:102974000880EFF30980816911F8021C0229FFD055
:1029840001B503F0B4FD01BD0446084611461A46DC
:10299400002383F30B880A4B2025A3F5205686F3E6
:1029A4000B8883F3098863B64FF0000383F311881F
:1029B400BFF36F8FA04785F31188BFF36F8FFEE7D6
:1029C4005826012001B5EFF30580A0F110004FEA6D
:1029D400C0000449014409C99847BDE801400249BF
:1029E400084700008C860000F1290000704700BFF2
:1029F40038B5214C4521214803F072FAA36A9D01A0
:102A040003D545211E4803F06BFAA36ADC0103D504
:102A140045211C4803F064FA174DAC6A14F4801481
:102A240004D04521184803F05BFA0224AB6A18036A
:102A340003D54521154803F053FA0F4DAB6A5903EA
:102A440003D54521124803F04BFAAB6A9A0303D528
:102A54004521104803F044FA074DAB6ADB0303D564
:102A640045210D4803F03CFAAB6A20466FEA034364
:102A74006FEA1343AB6238BD00ED00E0DF94000061
:102A8400FC9400001495000033950000629500004A
:102A940085950000AF950000CE95000070B5234CDD
:102AA40006460D462248452103F01AFAA36AD904C2
:102AB40003D545211F4803F013FAA36A1A0503D569
:102AC40045211D4803F00CFA184CA36A9B0510D548
:102AD4001A48452103F004FAA26BA36A180408D526
:102AE4004521174803F0FCF91EB1A36A23F40043FF
:102AF400A3620E4CA36A590503D54521114803F07E
:102B0400EFF9A36ADA050BD545210F4803F0E8F97C
:102B14000020064A936A43F47F439362287070BD91
:102B2400A36A9B04F4D545210848EFE700ED00E0D3
:102B3400FE950000199600002F96000047960000AD
:102B4400659600007F9600009F960000BC960000EA
:102B540070B5224C06460D462148452103F0C0F9C4
:102B6400A36AD80603D545211E4803F0B9F9A36A20
:102B7400190703D545211C4803F0B2F9174CA36A81
:102B84009A0710D54521194803F0AAF9626BA36A84
:102B94001B0608D54521164803F0A2F91EB1A36A05
:102BA40023F08003A3620D4CA36AD80703D5452103
:102BB400104803F095F9A36A990603D545210E48F8
:102BC40003F08EF90020054B9A6AD20658BF9A6A20
:102BD4009A6A42F0FF029A62287070BD00ED00E02C
:102BE400F09600000B9700002F960000439700001A
:102BF400609700007B970000BC9600002DE9F0412F
:102C0400544B0F465E6800258AB0C6F3080485F36A
:102C14001188BFF36F8F02F07F43B3F17F4F07D169
:102C240002F00C03082B05D145214B4803F058F959
:102C34002F4603E0120701D4074601254FF0000890
:102C4400E31E8DF80780092B72D8DFE803F00566D0
:102C54006A6371717171716E3E4E45213F4803F094
:102C64003FF9F46A8DF8078014F0020405D0452179
:102C74003B4803F035F9002406E0F36A002B1DDA23
:102C84004521384803F02CF99DF807309BB92022E0
:102C9400394602A803F07FFC099B002D55D0C3F3ED
:102CA400080222B96FEA53236FEA432309932046AB
:102CB40002A9FFF7D7FD0AB0BDE8F081F36A5B0013
:102CC400E2D54521284803F00BF9BB6933F8022CFF
:102CD4004DF602739A4209D096F828306BB1012060
:102CE4000DF10701FFF734FF0446CDE745213A68AB
:102CF4001E4803F0F5F83C68C6E796F829302BB176
:102D040001200DF10701FFF7C9FEEDE7738D9BB2BA
:102D1400002BB9D0FFF76CFEE6E700200DF10701A8
:102D2400E0E700200DF10701EDE745211048A0E799
:102D3400104916F4F87F104A104808BF0A46A4F157
:102D44001003452103F0CCF895E723F4FF7323F037
:102D54000103ABE700ED00E0CD970000FD97000014
:102D6400199800003F9800005298000076980000DF
:102D7400979800009F970000B4970000C098000047
:102D8400044B5A6942F010025A615A6942F4806253
:102D94005A61704700ED00E0EFF30880EFF309811A
:102DA40001B57246FFF72AFF01BD00BF00232021B1
:102DB4000348C2180133412B82F80013F9D170473C
:102DC40000E100E0002080F31488BFF36F8F00203F
:102DD40080F30A8880F30B8805F0ECFB00200E4991
:102DE4000860BFF34F8F0D4880F3088800F03EF869
:102DF400202080F311880A484FF40061401880F3C2
:102E04000988EFF314800221084380F31488BFF388
:102E14006F8FFFF78DFD000094ED00E05826012030
:102E240058260120BFF34F8F0549064BCA6802F4A8
:102E3400E0621343CB60BFF34F8F00BFFDE700BFD9
:102E440000ED00E00400FA05002318460649D1F815
:102E54009020C2F30722934200D17047C1F8983002
:102E6400C1F8A0000133F6E700ED00E010B572B63A
:102E7400002484F31388FFF7E7FF23464FF0FF3065
:102E84000B4A03F120010133102B42F82100F8D141
:102E940000234FF0FF3003F160010133102B42F89F
:102EA4002100F8D162B6BFF34F8FBFF36F8F10BD0F
:102EB40000E100E00121024B024A034800F01EB980
:102EC4000000042000C50020FC89000010B50B6838
:102ED4000C7A23F01F0204F01F031A43CB68640921
:102EE40023F01F03054943EA440343F00103C1F8F7
:102EF4009800C1F89C20C1F8A03010BD00ED00E09E
:102F040030B54B680C6885B00A894D890094013B43
:102F140024F01F04234402F01F0242EA451223F066
:102F24001F030F2804468DF80820039309D902468D
:102F34004521064802F0D4FF6FF01504204605B081
:102F440030BD6946FFF7C2FFF8E700BFDC98000018
:102F54002DE9F04F8946144606464FF00008584DB7
:102F640085B0C84527DAD6F804A0BAF1000F44D0DA
:102F7400BAF11F0F18D91AF01F0F15D1D6F800B0E7
:102F84001BF01F0F10D1584603F0C0FA07460AEB96
:102F94000B00013803F0BAFA874210D06FF015071E
:102FA4003A464521474802E042464521464802F058
:102FB40097FF6FF01504204605B0BDE8F08F17F1B8
:102FC400160FEDD0BC42EBDDC5F89870D5F89C1017
:102FD400C5F89870D5F8A03021F01F0143F01F0BFD
:102FE400D6E900321A44994202F1FF3A1DD1D34581
:102FF40007D13146F8B2FFF783FF08F101080C3618
:10300400AFE73146C5F89870D5F89C3022F01F021E
:1030140003F01F031A43C5F89C20E0B2FFF770FFCA
:1030240010F1160FC5D0441CE7E7013BD345E0B2CD
:1030340023F01F03C5F8987008D1D5F8A0203146B5
:1030440002F01F021343C5F8A030E7E7D5F8A0103B
:1030540001F01F010B43C5F8A0303146FFF750FFC4
:1030640010F1160FA5D0C5F89870D5F89C209DF8DE
:1030740008300BF1FF3B62F304038DF80830D5F8F8
:10308400A0309DF808205B0863F34712D6E90031AD
:103094000B44009323F01F0301305B44A3EB0A03AA
:1030A400C0B223F01F030F288DF80820039303D91F
:1030B4000246452105487AE76946FFF707FFB2E76C
:1030C40000ED00E02F99000007990000DC98000053
:1030D4000522044BC3F89420BFF34F8FBFF36F8FC7
:1030E400704700BF00ED00E0BFF35F8F0022024B8A
:1030F400C3F89420704700BF00ED00E010B5034C06
:103104002278FFF725FF207010BD00BF10FE0020BD
:1031140038B50E4D2C68102C15D80020FFF7E4FFAD
:103124000B4B0C4AC3F8C020844205D10A4B002043
:103134001C70FFF7CDFF38BD696801EB0011FFF784
:10314400C5FE0130F0E74FF0FF30F4E7088A0000D5
:1031540000ED00E0AAFF440010FE0020084B70B50B
:10316400C31A0D4607499B1004465943402206489A
:1031740003F041FA2B4601462046BDE8704018474B
:10318400DCDF0020B76DDBB614860000402373B586
:103194000B4C0093041B0B460D460A49A4106143D3
:1031A4000646094A094803F053FA011E05DA304677
:1031B4002B4602B0BDE87040184702B070BD00BF96
:1031C400DCDF0020B76DDBB6C966000014860000A2
:1031D40070B50022012104460520FFF78FFB05206E
:1031E400FFF76EFB0F4801F00DFC0F4B984215D111
:1031F40005F04AF926690D49304602F014FE00280C
:103204000BDB012524690949356404F11C0002F033
:103214000AFE002801DB0020E56470BD6FF00400A5
:10322400FBE700BF693200000000AD0B608A0000BC
:1032340001460C2300224B43084870B5C4184033A0
:10324400D4E90E561844A26303F0C2F92DB13246F4
:103254002B46BDE870400248184770BDDCDF0020F3
:103264001486000010B1012804D07047034B1B6C76
:103274005B0701D1FFF7DCBF704700BFDCDF002034
:1032840008B54FF02003EFF3118183F31288BFF3E5
:103294006F8F124A136843F0020013F001031060A9
:1032A4000CD04FF05022D2F80C34D2F80C2413F086
:1032B400010303D00A4803F08BF9012381F3118839
:1032C400BFF36F8F23B1BDE808400020FFF7B0BF04
:1032D4000120BDE8084005F0E2B800BF2CE0002062
:1032E4001CE00020074BD3E8EF2F22F00201C3E8D3
:1032F400E01F0028F7D1D30702D4012005F0FFB85E
:10330400704700BF2CE000202DE9F8430122074656
:103314003549D1E8EF3FC1E8E02F0028F9D133B9AE
:10332400324933484B60CB608A6002F08FFD7B1ECC
:10333400012B31D8012F07D14FF05023D3F81C347F
:1033440003F00303022B27D005F029F9044618B92A
:10335400284B1B78002B3FD14FF02003EFF311864D
:1033640083F31288BFF36F8F01244FF050254FF081
:103374000008DFF88490D5F81834D5F81824D2035F
:103384000CD503F00303022B01D0012F06D1ECB1BD
:1033940086F31188BFF36F8FBDE8F8833046FFF7DB
:1033A40057FAD5F81835DBB2012BE4D1D5F804214E
:1033B400002AE0D0C5F80481D5F804210222C5F81A
:1033C40018252022C9F88021AB60D4E74FF05023A0
:1033D4000222C3F80423DFE74FF0502302220646FB
:1033E400C3F80823C1E700BF30E00020CCDF002091
:1033F400F8DF002051FE002000E100E030B5406815
:1034040001F01F05047BB2F5005F45EA441585B061
:103414004FF0000404D1284601F080FD00202CE088
:10342400B2F5804FCDE9024429D1B3F5003F0CBF7A
:10343400042305238DF80830836823FA01F1C907B2
:1034440029D4B2F5A03F26D11B4A05F01F038033CF
:1034540052F82330DB071ED40DF107042146284619
:1034640001F0C4FC154B984214D1204601F00CFD28
:10347400134B98420ED06FF00B0005B030BDB3F57E
:10348400C02F05D0B3F5003F0CBF02230123D1E7C1
:103494000323CFE7039400232846194602AA01F028
:1034A4007BFB074B984204D10121284601F0F2FC32
:1034B400B4E76FF00400E0E7002584500400AD0B8E
:1034C4000000AD0B10B501F0CFFC044668B901F063
:1034D400A3FC084B98420AD12146074801F080FC1E
:1034E400224605210D20FFF709FA002010BD6FF0D8
:1034F4000400FBE70000AD0B01350000430970B583
:1035040010D1094B596869B101250C68074E8540F3
:103514008A682A4002D030464B68984714B1214645
:103524002468F5E770BD00BF34E000202C8600005D
:103534002DE9F043476801F01F053B7B0E46144616
:1035440085B045EA4315CAB902A9284601F04EFCE4
:103554000446284601F00AFD474B984204D06FF018
:10356400040005B0BDE8F083844205D19DF808004D
:1035740001F084FCA042F2D10020F2E74FF00009F0
:103584000DF103013046CDE9029901F02FFC4B46C1
:1035940080464946284602AA01F0FEFA364B984274
:1035A40002D06FF01500DCE7804503D19DF80300DD
:1035B40001F064FCA3054CD5304B314A23409342BF
:1035C40039D00CD8062B14D004D893B1022BE8D1EF
:1035D40004230EE0B3F5801FE3D1012309E0294A57
:1035E40093422AD0B3F5A00F29D0B3F5800FD8D1D8
:1035F40002238DF8043084F48073C3F30023E006BF
:103604008DF805304CBF0323C4F3401321058DF816
:10361400063016D501217B6801FA06F69E60002269
:10362400284601A901F062FB134B984214BF6FF0C6
:103634001500002095E70723DBE70523D9E70323DB
:10364400D7E7620541BF01217B6801FA06F6DE6017
:10365400E5E7E3064FF000034CBF0324C4F3401432
:103664001A46284601A98DF8044001F095FA024B48
:10367400984281D095E700BF0000AD0B0600F00032
:103684000600100002004000024B0B60012313608F
:10369400704700BF40E0002000487047B48A000033
:1036A40010B504F06AFF034C206004F063FF60600F
:1036B400002010BD40E00020F8B50E46144604F08A
:1036C40059FF21460546304603F055F83746F8B110
:1036D400B6FBF5F305FB136323B9B4FBF5F005FB67
:1036E400104040B12346324645210C4802F0F8FB15
:1036F4006FF015000BE0A54209D804F03BFF054626
:10370400384601F015FD641B2F44F9D12046F8BD5D
:103714002346324645210248E8E700BF8699000067
:10372400AA990000F8B50E461946304617461C46BD
:1037340003F021F840B9234632464521124802F0ED
:10374400CFFB6FF01500F8BD44EA060515F003053C
:1037540004D02346324645210C48F0E78CB124F0CE
:103764000304AC4205EB060006D1094AD2F8003442
:10377400DB07FBD50020E6E7795901F0F7FC0435B7
:10378400EFE72046DFE700BFAA990000CC990000CC
:103794000090035070B50D461946284616461C463F
:1037A40002F0E9FF40B9094823462A46452102F0C0
:1037B40097FB6FF0150070BD34B1224629463046A0
:1037C40002F0E9FE0020F6E72046F4E7AA9900009B
:1037D400F8B505460F46066904F0E1FE10B91E4B24
:1037E4001B78A3B94FF02003EFF3118483F31288FD
:1037F400BFF36F8F686803F0FEF800BB84F3118891
:10380400BFF36F8FEEE784F31188BFF36F8F6424E7
:10381400686803F0F0F828B9012004F033FE013C95
:10382400F6D1F4E74FF02003EFF3118483F3128809
:10383400BFF36F8F686803F0DEF80028E3D03146E9
:1038440001F8147F0122686803F0BAF884F3118840
:10385400BFF36F8FF8BD00BF51FE0020F0B54B7968
:10386400012B26D0032B21D110268B79032B1DD1BC
:10387400CC790CB1012C19D10A7912B1022A15D1D3
:103884000E220B684568B3F5164F2D6865D02DD808
:10389400B3F5165F64D016D8B3F5966F62D00AD824
:1038A400B3F5967F61D0B3F5167F61D06FF08500D4
:1038B40052E00026D9E7B3F5166F5CD0B3F5965FF6
:1038C400F4D1374B3CE0B3F5E14F57D007D8B3F50B
:1038D400615F55D0B3F5964FE8D1324B30E047F6EF
:1038E4001227BB42E2D14FF4000329E0B3F5613F54
:1038F40048D013D8B3F5963F47D009D84DF6C02722
:10390400BB4244D0B3F5614FD0D14FF46B0317E001
:10391400B3F5E13FCAD14FF0EB7311E0B3F5612F7A
:1039240038D008D8204FBB4237D0B3F5E12FBDD1F2
:103934004FF0E86304E01D4FBB42B7D14FF0805312
:1039440000693443C5F824352243031DC5F86C25AA
:1039540003C983E803000020F0BD4FF41D03EFE723
:10396400134BEDE74FF49E23EAE74FF4A033E7E768
:103974004FF41C33E4E74FF41D23E1E70D4BDFE77D
:103984000D4BDDE74FF06C73DAE70C4BD8E74FF4DF
:103994006503D5E74FF07063D2E74FF08063CFE75C
:1039A40000B0130000A04E0090D0030040420F006E
:1039B4000050270000C0750000F03A0000903A0162
:1039C4002DE9F8430023476805693C68C4F80035CD
:1039D40028604368DE68711C0BD00121DFF834C114
:1039E40006F01F029140CCF80810032180324CF8F5
:1039F400221019694A1C0FD01A7FDFF818E1002A37
:103A040014BF4FF0030C4FF0000C01F01F024FEAFB
:103A14008C0C80324EF822C0D3F814C0BCF1FF3FA6
:103A24000ED04FF0010EDFF8EC800CF01F020EFAFE
:103A340002FEC8F808E04FF0030E803248F822E096
:103A4400D3F818E0BEF1FF3F0FD05A7FDFF8C490DF
:103A5400002A14BF4FF003084FF000080EF01F02B5
:103A64004FEA8808803249F822801B68C3F80C6545
:103A7400C3F81415C3F808C5291DC3F810E5FFF7EA
:103A8400EDFE064678B97B6899071BD505F116004B
:103A940000F0FCFF204B984208D045211F4802F05B
:103AA4001FFA6FF004063046BDE8F883AA7D42F0A1
:103AB4000043C4F8A031C4F88C3001239340184A61
:103AC400C2F804350823C4F800353B7A5BB9C4F85E
:103AD4001031D4F8103105F11503C4F8343501233D
:103AE400C4F8383523607B6814359A075CBF4FF4FB
:103AF4008072C4F80423DB0644BF4FF48003C4F887
:103B040004330023C4F84455C4F848350123A360A2
:103B1400E360C8E7002584500000AD0BF99900006C
:103B2400007001500123834010B5DC430D4AD2E8F4
:103B3400EF1F01EA040CC2E8EECFBEF1000FF6D18C
:103B44004FF4803202FA00F002F15022C2F8080366
:103B5400BFF35F8FBFF36F8F0B4214BF01200020B0
:103B640010BD00BF4CE000201949F8B5044622F00E
:103B74007F450868C1E90023A5F50013101AB3F5C1
:103B8400400F22D2134B1B681A0A1B065E19124BF4
:103B940042F10007C3E90067012601F039FCA300E4
:103BA40003F1502303F58033D3F84025AA420BD107
:103BB4001EB94FF40002C3F840254FF48030074B80
:103BC40000FA04F4C3F84443F8BD0026E5E700BF57
:103BD40088C6002050E0002070C60020005001502C
:103BE400E1B101230E4A8340D2E8EF1F1943C2E832
:103BF400EC1FBCF1000FF7D14FF48033094A834026
:103C0400C2F80433084BD3E8AF3F23FA00F0C307EC
:103C140042BF4FF40012054BC3F80021704700BFA8
:103C24004CE000200050015048E0002000E100E09A
:103C34000D4B1868010A0006BFF35F8F0B4BD3F8D6
:103C44000435181841F10001B3F5801F0AD2084B5E
:103C5400D3E90023904271EB030303D210F1807087
:103C640041F10001704700BF50E0002000500150B6
:103C740070C600202DE9F04F85B0164698460546DB
:103C8400FFF750FF0090FFF7D3FFB04271EB08033A
:103C940076D2434B301A68EB0101984271F100036C
:103CA4007BD2404B03EB0513D3E902ABD84508BFE5
:103CB400564550D04FF4803326F07F4214464FEAE5
:103CC400850905F1500709F15029BF00AB4009F5FA
:103CD4008039BFB207F150270193D9F84005324B20
:103CE40007F58037D3F80415401A20F07F4021F0FF
:103CF4007F4C0128C9F840C507D1CDE90221132022
:103D040004F053FCDDE90221274B01F1020CA4EB82
:103D14000C0020F07F40B0F5000F88BF64460020FF
:103D2400386038680198C3F8440324F07F40C9F828
:103D34004005D3F80405814206D0201A023820F049
:103D44007F40B0F5000F19D8A41A24F07F4414EB77
:103D5400060A48F1000B002412490E982B0101EBCE
:103D64000512C850C2E902AB0F9B53602846009964
:103D7400FFF736FF204605B0BDE8F08F2046B1E7D7
:103D840001230A4AAB40D2E8EF1F1943C2E8E01FFF
:103D94000028F8D1B246C346DDE76FF01504E5E725
:103DA4000100000178C600200050015048E00020C6
:103DB40073B500244FF0FF304FF0FF31164D174B11
:103DC400C5F80845C3E902014FF4803302264FF4D5
:103DD4000012C5F80433124B0121C5F80463152001
:103DE400C3F880212246FEF789FD1520FEF768FD01
:103DF40001230C4AAB602B6013600B4B0B4A0093FE
:103E0400204600230194FFF735FF3046FFF77CFA84
:103E1400204602B070BD00BF0050015078C600209B
:103E240000E100E04CE000206D3B0000FFFF7F005C
:103E3400354B2DE9F743D3F8042391070BD5D3F879
:103E4400042142B10022C3F80421304AD3F80431DA
:103E54001368013313604FF02003EFF3118183F3F0
:103E64001288BFF36F8F284BD3F80423D2030ED5E7
:103E7400274AD2E8EF0F20F00104C2E8E54F002DF5
:103E8400F7D1002837D1D3F84021002A33D10023B9
:103E940081F31188BFF36F8F53B3FFF7C9FE4FF05F
:103EA4002003EFF3118783F31288BFF36F8F194B4D
:103EB400D3E90245A04271EB05024FF0000221D381
:103EC400D3E900164FF0FF384FF0FF391A604FF472
:103ED4008032C3E902890C4BC3F8482387F3118865
:103EE400BFF36F8F21B122462B46002000968847EE
:103EF40003B0BDE8F0830022C3F84021D3F8403179
:103F04000123C5E71146E9E70050015050E00020C5
:103F140048E0002078C60020431C13B520D00128B7
:103F240020DDB0F5000F1FDA441EFFF781FE0F4BB2
:103F3400D3E90013401AB0F5000F28BF0024013064
:103F440002190B48824228BF024600205218094930
:103F54000190009143F10003FFF78CFE02B010BD05
:103F64000348E1E70024E0E7014CDEE788C60020CF
:103F7400FFFF7F006D3B000008B5FFF759FE024BC1
:103F84001B68C01A08BD00BF88C60020034845212D
:103F940008B501F0A5FF0020FEF744FF3B9A00009E
:103FA400816808B5044A1023103901F0C3FF0038B2
:103FB40018BF012008BD00BF488B000030B50C4677
:103FC400816887B0102302AA1039054601F096FFD4
:103FD400002802DA012007B030BD1022284602A9C9
:103FE40002F0DBFD68B303232370A968012328468C
:103FF4000DF10702283901F081FF0028EADB9DF862
:104004000730284603F00F021B0962702371012256
:104014000DF1070102F0C1FD10B96378042B03D937
:104024000123637000232371AA682846203AA11C47
:1040340002F0DBFD0028CDD12846E11C02F030FE61
:10404400C9E71022044902A802F07CFA002814BF30
:1040540002230123C8E700BF488B00002DE9F04389
:1040640085B006466946022002F01EFE054618B1D8
:10407400FF2005B0BDE8F083062002A902F014FE7B
:10408400012804463FD1324649212C4801F028FF3B
:1040940003238DF809408DF808308DF80A308DF827
:1040A4000B308DF80C5000229DF800509DF80860EC
:1040B4009DF803709DF80B809DF80290204C2946D2
:1040C400207802F07EFD18B33146607802F079FD65
:1040D400F0B1A378042B01D0BB4219D1E378042BAF
:1040E40001D0434514D12379042B0FD16379022BDA
:1040F40019D1144A1448492101F0F2FE6079831E53
:10410400022BB6D9B4E70028CDD0B1E74B45EDD0AA
:104114000132032A04F10604D1D10C48492101F0EB
:10412400DFFE0120A5E7032B05D0094A0949042B2A
:1041340018BF0A46DEE7084ADCE700BF809A0000A1
:10414400F39A0000649A0000CB9A0000DE9A000003
:104154005D9A00006E9A0000699A000001680E4A98
:104164000346914215D1C169A2F11022A2F1EF12C6
:1041740091420ED18268012A0BD8C26812B101693A
:104184008A4206D0586928B19B691B1A5842584183
:1041940070470120704700BF55AA00FF0D4B70B552
:1041A4009E68A6B13046FFF7D9FF044678B9F36894
:1041B4006BB935690DB9204670BD2846FFF7CEFFAF
:1041C40028B9EB68B34202D12E462D69F2E70124E7
:1041D400F1E700BF54E000202DE9F843404F3C686C
:1041E400D4B1BC68C4B100284DD000294BD001FB28
:1041F40000F5B5FBF0F0884245D1281D43D8A90746
:104204000DD025F003060436FC6803E06368B3426E
:104214003BD2A469002CF9D12046BDE8F8832E4690
:10422400F2E7F86044E006F1200C04EB0C032039BB
:1042340059600021DFF8ACE0C3E902142169196177
:1042440044F80CE0DFF8A0C0C3F81CC001B1CB6097
:10425400C3E90520AAB193619A6902B1536123614C
:1042640000234FF00109C4E905333B69C4E901693E
:10427400DB072DD5FFF792FF50B31C4B48461B6854
:1042840025E0FB60E8E70024C6E7A3681BB1174BF1
:1042940001201B689847D4E90520616804F12008CF
:1042A400891B2329BFD80123A360002AB9D09061B8
:1042B400A36903B15A610023C4E905333B69DA07F2
:1042C40006D5FFF76BFF18B10120084B1B68984710
:1042D4002A4600214046444602F068F99CE700BFA4
:1042E40054E0002055AA00FF669911EE84C5002011
:1042F4002DE9F041054600287CD03F4F3B68002B58
:1043040078D0BA68002A75D0834203D87A681344F7
:10431400984203D3394B01201B689847A5F1200428
:104324002046FFF71BFF18B1344B01201B68984748
:1043340055F8183C012B03D0304B01201B689847DB
:10434400002355F8146C45F8183CAEB1B26892B924
:1043540055F81C3C03F1200273681344736055F84C
:10436400103C336103B1DE6020462022002102F0BC
:104374001DF9234634461E462069002832D083683E
:10438400002B2FD1636842682033134463600369B0
:10439400D4E905212361DAB901BB4269816962610B
:1043A400A161EAB19461A26902B1546103B1DC6014
:1043B4002022002102F0FAF83B699B071AD5FFF787
:1043C400EDFEB8B1BDE8F0410C4B01201B68184765
:1043D4009161A1690029E0D04A61DEE7F960F8E75C
:1043E400FC60E0E7002EE7D1FB68A36103B15C61E8
:1043F400FC60E1E7BDE8F08154E0002084C50020C2
:1044040038B50D46142200210446124802F0CEF8B5
:104414001149124800F032F8232D1AD914F003037D
:104424001FBF043DED18C3F10403E4182A4600211C
:10443400204602F0BBF8074B094AC3E900459C60DB
:104444002260A2F11022203DA2F1EF126560E26128
:10445400DC6038BD54E00020F5420000DD4100007E
:1044640055AA00FF014B1B68184700BF80C50020F8
:10447400014B1B68184700BF88C50020024B186019
:10448400024B00201960704780C5002088C50020B9
:10449400F8B500F108064768044630460D4602F0B8
:1044A400E4FF874216D16368B3F5807F12D80021F8
:1044B400304603F039F900280CDD0021304602F0C3
:1044C400A7FF38B145B9002104F1140003F02CF919
:1044D40000281EDC1B481EE004F12C060021304697
:1044E40003F022F90028F5DD0021304602F090FFA8
:1044F4000028EFD004F138060021304603F014F907
:104504000028E7DD0021304602F082FF0028DAD1DE
:10451400E0E70DB90020F8BD002104F1440003F0E8
:1045240003F90028D6DD002104F1500003F0FCF863
:104534000028CFDD002104F15C0003F0F5F8002829
:10454400E8DCC7E780BFFFFF70B500210446FFF732
:104554009FFF0546B8B904F10806304602F069FF2A
:104564007F2810D914342946204602F051FF50B157
:10457400204602F05EFF012805D93146204603F0AB
:1045840092F8002800DB014D284670BD00BEFFFFF5
:10459400F0B50C4687B0002105461646FFF778FFB4
:1045A40080BB03A802F061FE21466A6803A802F0FA
:1045B40062FF0446D0B905F10804214603A803F0BC
:1045C40072F800281BDA05F1680303A90093084672
:1045D400234605F114026F6803F0CCFB044628B9A6
:1045E4003A46314603A802F067FF044603A802F0E6
:1045F40042FE0CB1A4F58544204607B0F0BD6FF02F
:104604000304F3E7004CF7E780BFFFFF0023C0E992
:104614000033C1B9194A1A4BDFF868C0C0E9022354
:10462400194B1A4AC0E904C3194BC0E90623194BB4
:10463400036203F17453A3F52303A3F69243436285
:10464400816600207047144B144ADFF854C0C0E957
:10465400022303F1794303F5740303F50163036152
:10466400104BC0E905C303F1D14303F5C01303F5AF
:104674001E63C3610C4B03620C4BE0E767E6096AF7
:1046840085AE67BB72F36E3C3AF54FA57F520E516F
:104694008C68059BABD9831F07D57C36D89E05C192
:1046A40039590EF7310BC0FFA78FF964A44FFABE36
:1046B4002DE9F04FD1B048AB019300F1080600F1A9
:1046C400280304933346019A53F8040B42F8040B6D
:1046D40004988342F8D1DDE948474FF000094F9B25
:1046E4004CAD0293DDE94AE30393454B06AA0593D7
:1046F40095E82011B9F10F0F6AD84B7891F800B002
:104704001B0443EA0B6391F803B091F802A043EA57
:104714000B0343EA0A234FEAF52080EAB51080EA46
:10472400756A8CEA0800DDF814B0284080EA0C00B1
:1047340050445BF804AB93608244029853440344AE
:104744004FEA743A44EA0700CDF814B08AEAB40A8E
:1047540000EA0E0004EA070B8AEAB45A40EA0B00A6
:10476400504409F10109DDF80CA0B9F1400F9A4455
:10477400CDE902CE034402F1040201F1040120D187
:10478400CDE94D58CDE94834CDF83CC1CDF830A140
:104794004A970790CDF82CE106930199336851F8B4
:1047A400042B134446F8043B049B0191B342F4D117
:1047B40006A84FF4947100F0D5FE002051B0BDE876
:1047C400F08FBE46C4462746A8461C46554691E788
:1047D400136852F834BC4FEAF34A8AEA734A52F82F
:1047E400380C8AEA932A52F8143C03444FEABB403B
:1047F40080EAFB109A4480EADB0353448BE700BF52
:10480400588B000008B54FF47F03D3F83021D3F858
:104814003431BFF34F8F092A01BF4FF050230022D8
:10482400C3F81421C3F8182103F01BFE28B1012298
:104834004C4BC3F8382AC3F878254FF47F03D3F8D8
:104844003021D3F83431BFF34F8F092A05D1012B1E
:104854001EBF0122434BC3F8782503F002FE18B1B2
:104864000E22414BC3F8E42E4FF47F03D3F83021DA
:10487400D3F83431BFF34F8F092A06D10022394BC4
:10488400C3F80C270122C3F810270022D30003F534
:104894007F03D3F80013BFF34F8F013108D0D3F84F
:1048A40000130132D3F80433B2F5807F0B60EDD1ED
:1048B4002E4BDA69BFF34F8FD10743D52C4BD3F876
:1048C4000024012AFBD1C3F80425D3F80024012ACB
:1048D400FBD1264BDA69BFF34F8FD2070AD5DA69C9
:1048E40022F00102DA61BFF34F8F214AD2F800347B
:1048F400012BFBD11D4A136ABFF34F8F01330CD137
:10490400136A23F0FF0343F020031362BFF34F8FB6
:10491400174AD2F80034012BFBD10022144BC3F800
:104924000425D3F80024012AFBD1BFF34F8F11498A
:10493400114BCA6802F4E0621343CB60BFF34F8F9C
:1049440000BFFDE71B6ABFF34F8F0133B6D0094A9E
:10495400D2F88C3043F44063C2F88C30074B084AD9
:104964001A6008BD0040005000A003500080FF0002
:104974000090035000ED00E00400FA058CC500200F
:104984000090D00370B501250268B2FA82F3C3F136
:104994001F035E1CDCB210D005FA03F322EA030302
:1049A400D0E8EF6F964204D1C0E8EC3FBCF1000FB1
:1049B400F6D1E9D102480C7070BD0248FCE700BF93
:1049C4000000AD0B0200AD0B036810B5CB40DB0754
:1049D40011D4012303FA01F1036841EA0302D0E888
:1049E400EF4F9C4204D1C0E8EC2FBCF1000FF6D18C
:1049F400F2D1024810BD0248FCE700BF0000AD0B35
:104A04000400AD0B044B1A7922B9012218601A7103
:104A1400024870470248704768E000200000AD0B70
:104A24000C00AD0B4FF05023D3F8002110B552B158
:104A34000020C3F80001D3F800210122C3F80823A1
:104A4400114B1B6898474FF05023D3F804218AB1C7
:104A54000022C3F80421D3F80421D3F81824D3F88E
:104A6400181402F00302012A4FF0020103D1C3F823
:104A740018159A6010BDC3F80813034B0120BDE854
:104A840010401B68184700BF68E000200146014839
:104A9400FFF778BF90C5002000F01F02054800EB27
:104AA4008200D0F8003223F4403343EA0143C0F8D3
:104AB4000032704700258450034B083033F810004F
:104AC400C0F34010704700BF94C5002070B50D4C72
:104AD40000F1080334F813300546DA050E4607D50D
:104AE400C3F3432304EBC302526854F833309847AA
:104AF400A3682BB131462846E268BDE870401847E8
:104B040070BD00BF94C50020124A083032F810303E
:104B140010B4D9051BD5C3F3432123F4F85322F869
:104B24001030002002F1100434F8023B13F4807FAB
:104B340003D0C3F34323994209D001302028F3D191
:104B44000023054810BC42F83130FFF73DBF10BCCC
:104B5400704700BF94C50020E8C5002038B5024660
:104B6400FFF7AAFF0B4C02F1080560B1002134F8ED
:104B740015305B0B9B0003F1A04303F55043C3F8CE
:104B84001015C3F810151046FFF7BEFF002324F8D4
:104B9400153038BD94C500202DE9F34104461D4667
:104BA40009B34D4F00F1080837F81860B30706D56C
:104BB400FFF782FF18B1494802B0BDE8F081484BC5
:104BC40004F01F0003EB8000D0F80032097823F0D2
:104BD4000F0326F0020643EA810346F00106C0F8FB
:104BE400003227F8186092B13B4B04F1080633F801
:104BF400161010788F0752680CD5002ADBD133F8D1
:104C0400162022F01C0242EA800023F81600CDBBD5
:104C14003448D1E721F02001C904C90C23F8161047
:104C2400002AECD00328C6D892F800C0624692004D
:104C340002F1A04202F5504220B9C2F81005C2F8B0
:104C44001005DCE7D2F8107541EA4C3127F0030770
:104C5400C2F81075D2F8107541F0200127F44737D7
:104C640027F44077C2F81075D2F810E5270207F44C
:104C7400F8574EEA004E47EA0E07C2F8107523F8BB
:104C84001610BCE72046D5E90067FFF73DFF002E6C
:104C9400BED0114D2B689E4204D16B689F4201D156
:104CA400002209E010480DF10701FFF76BFE0D4BE0
:104CB400984281D19DF8072005EBC20308345F6058
:104CC40035F8143045F8326043EA422343F48073E4
:104CD40025F814309CE700BF94C500200400AD0BF8
:104CE400002584500000AD0BE8C50020F8B504464B
:104CF40069B3374E00F1080736F81750AB0704D4F0
:104D0400FFF7DAFE08B13348F8BD15F01C0F4B78F5
:104D140001D0012BF7D0304804F01F0C00EB8C0CB1
:104D2400DCF8000291F800E05B0020F4E16089788F
:104D340043EA0E2320F00700034343EA810343F0D0
:104D4400010345F00305CCF8003226F817500AB9E0
:104D54002248D9E71E4E04F1080736F817008307E6
:104D6400D1D592F800C00023614620F020008900CC
:104D740001F1A041C00401F55041C00CC1F8103547
:104D840026F81700C1F810355578002DE0D0D1F879
:104D94001035927823F4981323F4F853C1F810359E
:104DA400D1F810E5230203F4F8532D0443EA0E036B
:104DB40005F4403512052B4302F4801240EA4C30CE
:104DC400134340F02000C1F8103526F81700BFE760
:104DD40094C500200400AD0B002584500000AD0BE9
:104DE400014BC3E90201704794C5002008B502468F
:104DF400FFF762FE38B1054B083233F8123004482D
:104E04005B0B0B7008BD0348FCE700BF94C5002092
:104E14000000AD0B0400AD0B38B50F4C94F858509E
:104E2400BDB94022294604F1100001F0BFFB0D205A
:104E3400FDF746FD094B0A48C3F87C51D3F87C21A1
:104E44004FF00042C3F80423012384F8583063650B
:104E540038BD0448FCE700BF94C5002000D00050D2
:104E64000000AD0B0500AD0B034B93F85800003860
:104E740018BF0120704700BF94C5002001460148B7
:104E8400FFF7A2BDE4C5002001460148FFF77ABD43
:104E9400E4C50020024610B5FFF70EFE1C4B02F1DC
:104EA400080433F81430E0B113F0020419D15B0B99
:104EB4009A0002F1A04000F5514002F1A0420460C2
:104EC40002F550420068D2F8100540F00100C2F823
:104ED400100529B1012202FA03F30E4AC2F8043381
:104EE40010BDC3F38203042B0ED0052B0ED00A4B46
:104EF400196902F01F03D94001F001010231104683
:104F0400BDE81040FFF7C8BD0321F8E70221F6E72A
:104F140094C5002000D000500025845008B50246F6
:104F2400FFF7CAFDC0B10F4B02F1080133F811308D
:104F3400990711D401225B0B9A400B499B0003F1A2
:104F4400A043C1F8082303F55043D3F8102522F0F9
:104F54000302C3F8102508BD0021BDE8084010462F
:104F6400FFF79ABD94C5002000D000500C4B00F10F
:104F7400080233F8123010B5DB0704460DD5FFF7ED
:104F8400CDFF2046FFF7EAFD0222064B04F01F0482
:104F94008034054843F8242010BD0448FCE700BFD2
:104FA40094C50020002584500000AD0B0400AD0B17
:104FB4002DE9F04F002501222C464D4B4D484E491A
:104FC40085B01E6836B1D0F8046316421EBF1C605B
:104FD4001E68154304338B424FEA4202F1D1454F18
:104FE400D7F87C3193B1454E336A039333624FF063
:104FF40001090DF10C08039850B9C7F87C01D7F8E2
:105004007C31336A03933362002BF0D1012469E0CD
:1050140090FAA0FABAFA8AFA394A0AF1080332F87D
:1050240013104FEADA0C0AF0070309FA03F418F82C
:105034000C30C1F3820223EA040308F80C3006EBB7
:105044008A03D3F80042C8069346C4F3014418D532
:10505400114650460193FFF739FD019BE4B2D3F8A2
:105064000032C3F301439C4207D100215046FFF7AD
:1050740013FD21465046FFF70FFD09FA0AF030628E
:10508400B9E7022C0CBF0321022150460192FFF71D
:1050940003FD019A032A04D0022C07D1BBF1010FAE
:1050A400EBD159465046FFF711FDE6E7032CE4D156
:1050B400BBF1020FF4E795FAA5F3B3FA83F304FA0C
:1050C40003F29B0003F1A04303F55043D3F810050A
:1050D400D3F81015C0F30420C1F3014125EA0205F9
:1050E400FFF7F4FC002DE6D105B0BDE8F08F00BF5A
:1050F40000D1005000D0005020D100500025845031
:1051040094C500200022034BC3F88425C3F804256A
:10511400704700BF00900350044AD2F80834DB07FC
:10512400FBD50160BFF35F8F704700BF0090035051
:1051340008B5C0F30B0383B90222094BC3F88425D5
:10514400C3F804254FF0FF320260D3F80024D207DD
:10515400FBD5FFF7D7FF034808BD0348FCE700BFB2
:10516400009003500000AD0B0A00AD0B012208B5FE
:10517400054BC3F88425C3F80425FFF7CDFFBDE82C
:105184000840FFF7BFBF00BF009003500E4B70B53F
:1051940053F82040013053F82060A64200D870BD77
:1051A400D4E900352846984765B1EB6830B100284A
:1051B400B8BF4042FF28A8BFFF2018705A7842F0B9
:1051C40001025A700834E8E7588C000070B50546AF
:1051D40010B90024204670BD0378002BF9D00E4C82
:1051E4000E4EB44208D10C4CB442F2D0204603F027
:1051F400C8F950B91834F7E7204603F0C2F910B1E2
:105204002368AB42E6D01834EBE72846216801F066
:105214008DF90028EED1DDE7148600008C860000AD
:1052240073B504460D464FF02003EFF3118683F364
:105234001288BFF36F8F0022042896BF114B124BC4
:1052440053F82030009245210246104800F048FEF1
:105254003DB1EB69C3F308031BB145210C4800F0D1
:105264003FFE00220B4B45210B4800F039FE294636
:105274002046FEF78BFE86F31188BFF36F8F02B0D2
:1052840070BD00BF6C8C0000059B0000139B0000E8
:10529400409B0000669B00006E9B0000012208B545
:1052A400084B02201A70FFF771FF03F082F9032004
:1052B400FFF76CFFFBF7D2F8034A137B23F00103DB
:1052C400137308BD51FE002090C6002008B50348A2
:1052D400034A0021121A03F05EF908BD70C60020CB
:1052E40054FE002008B5194B03F5006282F30888C8
:1052F40083F30A880025E023154C84F82230E577EF
:1053040025766576A57684F82050636A43F4E02315
:10531400636284F82350FDF733FDFDF785FA4FF0FF
:10532400FF33A362E362FDF7F3FEFDF7C3FD03F071
:1053340027F92846FFF72AFF0120FFF727FF2B460E
:105344002A4629460348FDF71FFB00BF58260120C3
:1053540000ED00E0A152000008B50648064A0749DE
:10536400121A03F01AF9BDE80840054A054906482F
:1053740003F013B900C500206CC60020F09B0000A8
:1053840000000000D89B000000C50020034B1B68F0
:105394000BB9FEF7F1BD0020704700BF70E000209C
:1053A4000D4B10B51C689C4208BF0024FFF7EEFFAC
:1053B40074B1D4E904321B1A62EBE070B3F1004F0C
:1053C40070F1000204DA0028ACBF1846002010BDBA
:1053D4006FF00040FBE700BFF0C5002030B5036864
:1053E40068B10A4A5268904209D043B1D3E9042112
:1053F400D0E90445121941EB0501C3E904214268CF
:1054040013605A600023C0E9003330BDF0C50020AA
:105414002DE9F8434FF02003EFF3118483F312884E
:10542400BFF36F8F234EDFF89080244D3060D8F89F
:105434000000326840454FEAE277D5E9001E0BD000
:1054440050B1D0E9043C9A4277EB0C0916DA9B1A66
:105454006CEB070CC0E9043C52184EEB0707C5E996
:10546400002700253560FFF79BFF2946FEF754FD12
:1054740084F31188BFF36F8FBDE8F88359184EEB9E
:10548400E377D31A336000220023C0E90423C5E97B
:105494000017FFF7A3FF84F31188BFF36F8F8368AE
:1054A40098474FF02003EFF3118483F31288BFF37E
:1054B4006F8FBCE770E00020F0C5002010C700200B
:1054C40010B50A4C23681BB101230020236010BDD2
:1054D40000F052F80028F7D00138062803D8044B0E
:1054E40053F8200010BD034810BD00BF74E0002035
:1054F400808C0000FE8FFFFFBFF34F8F0549064BE2
:10550400CA6802F4E0621343CB60BFF34F8F00BF5D
:10551400FDE700BF00ED00E00400FA054FF0FE33A4
:10552400002130B4064A074D074C2B6013602360FA
:10553400064A074CEB606368C2F8001530BC184794
:1055440004148450001484500814845000008450BF
:10555400F8C50020024BD0E90012C3E900127047DD
:10556400F8C5002038B131B10022014403460130AE
:1055740088421A70FAD1704710B500F033F820B1A0
:10558400032400F067F8204610BD00F035F890B908
:1055940000F0B0F890B90F4B1B681B0EF02B08D12C
:1055A4000D4A0E4B12689A420AD0072400F01CF8E8
:1055B400E7E70624FAE70424204610BD0024F5E7B3
:1055C400012000F097F804460028F7D1044B186036
:1055D400D9E700BF28198450241A84500000E02021
:1055E4000C1A84500020704700207047014B18604B
:1055F400704700BF041A845010B5114800F048F8F1
:1056040000B110BD0F4800F043F80028F9D10E4C4A
:10561400204600F03DF80028F3D10C4B0C481C60E8
:1056240000F036F801460028EBD100F02DF80446CE
:1056340008B1204610BD00F03FF82046FAE700BF4D
:105644000CC6002000C6002008C6002010C600209A
:1056540004C6002008B5084800F024F8074800F004
:1056640021F8074800F01EF8064800F01BF8BDE8D2
:10567400084000F00BB800BF0CC6002000C6002094
:1056840008C6002004C6002000207047704700BFF1
:1056940008B5034B02681B6810689847002008BDD2
:1056A4001CC6002008B5034B02685B681068984765
:1056B400002008BD1CC6002070B5094C094D2069A6
:1056C400AB68984718B1084B08485B6898470021B5
:1056D400074AEB6811602069BDE87040184700BFB5
:1056E4002CC600201CC60020F8C500209C8C00009D
:1056F40078E0002070B51A4D1A4E0446B268286945
:105704009047F0B95CB1184C2368ABB1012B1AD0A7
:10571400013B23602869F3689847002070BD124C50
:10572400216839B90120114B114AC3F800051368E7
:10573400002BFCD101312160F368286998470020CF
:1057440070BD0C4870BD0A4A1368002BFCD1074A8F
:105754006FF07E40C2F80035FFF748FF2368D7E7B3
:105764002CC600201CC6002078E0002000008450D5
:1057740010198450E98FFFFF10B5044630B16368F7
:10578400DB0602D500232360636010BD024B03488F
:105794005B689847F3E700BFF8C50020BC8C0000A5
:1057A40068B143683BB1DB0607D5BFF35F8F0023C5
:1057B40003601846704703487047034870476FF406
:1057C400E0407047EA8FFFFFE98FFFFF10B5044602
:1057D40020B1002211232260636010BD0148FFF74D
:1057E4009DFEF6E7E48C0000A0B1436883B1DB06BC
:1057F4000CD50122D0E8EF3FC0E8E12F0029F9D110
:10580400012BF7D0BFF35F8F002070470348704728
:10581400034870476FF4E040704700BFE98FFFFF13
:10582400EA8FFFFF704729B1012914BF6FF01500FB
:105834000620704702207047002070472DE9F74387
:105844000E4617469946044628B94FF0FF3840469D
:1058540003B0BDE8F0830029F7D0002AF5D0CB6867
:105864000D8938461D44042329460DEB030200F03C
:1058740045FB80460028E8D146F60812BDF804101E
:105884007389914223D1BDF806109942DDD10423D6
:1058940038460DEB0302294400F030FB0028D4D134
:1058A40046F60713BDF804209A42CED19DF828305D
:1058B400BDF80620A3727389C4E900672B44E36032
:1058C40004351344A4F8089063612561BFE7002BF5
:1058D400E6D0BAE72DE9F7430F4690461E46044644
:1058E40020B94FF0FF3003B0BDE8F0830368002B0C
:1058F400F7D04368002BF4D04FF6FF79D4E90423A2
:105904009A4216D223685B8923B1E368934204BFA9
:10591400043323610423216960680DEB030200F062
:10592400EDFA0028DDD1A37A256923B1E368AB42FF
:1059340001D80120D7E72189BDF80620494502F1A5
:10594400040303D0BDF804C08C450BD116B1BDF8D7
:105954000410318004353D60A8F800202269134406
:105964002361C0E72B442361C8E700F0EBBD4FF48B
:1059740040735843303070470B7803F0FB03022B1D
:1059840014BF4FF0FF304FF44070704710B5044619
:1059940000F003FBC3B24FF44070A268303A00FB3E
:1059A400132010BD81680122203901F06AB913B5B2
:1059B4000446019101F002F90423A0F108010DEB62
:1059C4000302204601F02EF902B010BDF8B51346CB
:1059D4000F461646002102460546FBF775FA0446B3
:1059E40050B933460121284605F12C02FBF76CFA25
:1059F40010B1002F18BF04462046F8BD73B5054604
:105A040000200C461646FFF70EFF6946C0B2FCF7AD
:105A1400A7F930BB2C2101FB04542189E3680098C9
:105A2400CD18042329460DEB030200F067FAC0B930
:105A340046F60813BDF8042064899A4216D1BDF8CD
:105A440006309C420DD1042300980DEB030261192A
:105A540000F054FA28B946F60713BDF804209A4218
:105A640007D0009800F049FA02B070BD002CF2D0C3
:105A7400F7E7BDF80610214429443160F1E737B552
:105A84004FF480750446426A01A902200195FCF78F
:105A940085F958B9019B0620226DA36201A90195DD
:105AA400FCF77CF9054628B1092500E001252846C4
:105AB40003B030BD019B206A636500F06EFAE065B7
:105AC400F5E70123036003F1012343600023C0E9E8
:105AD400023370474379012B07D10368012B04D1AA
