:0200000270008C
:105000003DB8F396000000000002000000640200BA
:105010000000000000000000000000000000000090
:10502000FFFFFFFFFFFFFFFFFFFFFFFFFFFFFFFF90
:10503000FFFFFFFFFFFFFFFFFFFFFFFFFFFFFFFF80
:10504000FFFFFFFFFFFFFFFFFFFFFFFFFFFFFFFF70
:10505000FFFFFFFFFFFFFFFFFFFFFFFFFFFFFFFF60
:10506000FFFFFFFFFFFFFFFFFFFFFFFFFFFFFFFF50
:10507000FFFFFFFFFFFFFFFFFFFFFFFFFFFFFFFF40
:10508000FFFFFFFFFFFFFFFFFFFFFFFFFFFFFFFF30
:10509000FFFFFFFFFFFFFFFFFFFFFFFFFFFFFFFF20
:1050A000FFFFFFFFFFFFFFFFFFFFFFFFFFFFFFFF10
:1050B000FFFFFFFFFFFFFFFFFFFFFFFFFFFFFFFF00
:1050C000FFFFFFFFFFFFFFFFFFFFFFFFFFFFFFFFF0
:1050D000FFFFFFFFFFFFFFFFFFFFFFFFFFFFFFFFE0
:1050E000FFFFFFFFFFFFFFFFFFFFFFFFFFFFFFFFD0
:1050F000FFFFFFFFFFFFFFFFFFFFFFFFFFFFFFFFC0
:10510000FFFFFFFFFFFFFFFFFFFFFFFFFFFFFFFFAF
:10511000FFFFFFFFFFFFFFFFFFFFFFFFFFFFFFFF9F
:10512000FFFFFFFFFFFFFFFFFFFFFFFFFFFFFFFF8F
:10513000FFFFFFFFFFFFFFFFFFFFFFFFFFFFFFFF7F
:10514000FFFFFFFFFFFFFFFFFFFFFFFFFFFFFFFF6F
:10515000FFFFFFFFFFFFFFFFFFFFFFFFFFFFFFFF5F
:10516000FFFFFFFFFFFFFFFFFFFFFFFFFFFFFFFF4F
:10517000FFFFFFFFFFFFFFFFFFFFFFFFFFFFFFFF3F
:10518000FFFFFFFFFFFFFFFFFFFFFFFFFFFFFFFF2F
:10519000FFFFFFFFFFFFFFFFFFFFFFFFFFFFFFFF1F
:1051A000FFFFFFFFFFFFFFFFFFFFFFFFFFFFFFFF0F
:1051B000FFFFFFFFFFFFFFFFFFFFFFFFFFFFFFFFFF
:1051C000FFFFFFFFFFFFFFFFFFFFFFFFFFFFFFFFEF
:1051D000FFFFFFFFFFFFFFFFFFFFFFFFFFFFFFFFDF
:1051E000FFFFFFFFFFFFFFFFFFFFFFFFFFFFFFFFCF
:1051F000FFFFFFFFFFFFFFFFFFFFFFFFFFFFFFFFBF
:1052000048260020D1E10000594E0100A5E1000030
:10521000A5E10000A5E10000A5E10000A5E1000076
:105220000000000000000000000000009DDB000006
:10523000A5E100000000000045DB00003DF2000099
:105240001DDC00001DDC00001DDC00001DDC00007A
:105250001DDC00001DDC00001DDC00001DDC00006A
:105260001DDC00001DDC00001DDC00001DDC00005A
:105270001DDC00001DDC00001DDC00001DDC00004A
:105280001DDC00001DDC00001DDC00001DDC00003A
:105290001DDC00001DDC00001DDC00001DDC00002A
:1052A0001DDC00001DDC00001DDC00001DDC00001A
:1052B0001DDC00001DDC00001DDC00001DDC00000A
:1052C0001DDC00001DDC00001DDC00001DDC0000FA
:1052D0001DDC00001DDC00001DDC00001DDC0000EA
:1052E0001DDC00001DDC00001DDC00001DDC0000DA
:1052F0001DDC00001DDC00001DDC00001DDC0000CA
:105300001DDC00001DDC00001DDC00001DDC0000B9
:105310001DDC00001DDC00001DDC00001DDC0000A9
:105320001DDC00001DDC00001DDC00001DDC000099
:105330001DDC00001DDC00001DDC00001DDC000089
:105340001DDC000000000000000000000000000064
:10535000000000000000000000000000000000004D
:10536000000000000000000000000000000000003D
:10537000000000000000000000000000000000002D
:10538000000000000000000000000000000000001D
:10539000000000000000000000000000000000000D
:1053A00000000000000000000000000000000000FD
:1053B00000000000000000000000000000000000ED
:1053C00000000000000000000000000000000000DD
:1053D00000000000000000000000000000000000CD
:1053E00000000000000000000000000000000000BD
:1053F00000000000000000000000000000000000AD
:10540000DEE61E284CBBCE8F025B00003C00000095
:1054100000BE00000100000000C2000000C2000049
:10542000FFFF0291000000000000000000000000EB
:1054300000000000000000000000000053B94AB95D
:10544000002908BF00281CBF4FF0FF314FF0FF308C
:1054500000F080B9ADF1080C6DE904CE00F006F85B
:10546000DDF804E0DDE9022304B070472DE9F04FD8
:10547000099E0D4604460F46002B47D18A429446AA
:105480005FD9B2FA82F343B1C3F120019F4002FA1F
:1054900003FC9C4020FA01F10F434FEA1C451FFA20
:1054A0008CFE220CB7FBF5F105FB117701FB0EF02A
:1054B00042EA0742904208D91CEB020201F1FF3791
:1054C00002D2904200F234813946121AA4B2B2FBE1
:1054D000F5F005FB102200FB0EFE44EA0244A6454F
:1054E00008D91CEB040400F1FF3202D2A64500F2F9
:1054F0001981104640EA0140A4EB0E0400211EB1C0
:10550000DC400023C6E90043BDE8F08F8B4208D998
:10551000002E00F0FB800021C6E900050846BDE82A
:10552000F08FB3FA83F100294BD1AB42C0F0F18088
:10553000824240F2EE800846002EE5D0C6E90047E0
:10554000E2E702B9FFDEB2FA82F3002B40F09D8061
:105550008D1A4FEA124E97B20121B5FBFEF20EFBF7
:105560001250250C45EA004507FB02F0A8420FD96E
:105570001CEB050502F1FF382CBF4FF001094FF07D
:105580000009A84203D9B9F1000F00F0CE804246CD
:105590002D1AA4B2B5FBFEF00EFB105500FB07F769
:1055A00044EA0544A74208D91CEB040400F1FF3586
:1055B00002D2A74200F2B3802846E41B40EA024030
:1055C0009DE7C1F120078B4005FA01F422FA07FCA0
:1055D000FD408A404CEA030C20FA07F34FEA1C49CD
:1055E0001C431FFA8CFE00FA01F3200CB5FBF9F8FE
:1055F00009FB185540EA054508FB0EF0A8420FD9F3
:105600001CEB050508F1FF3A2CBF4FF0010B4FF0E2
:10561000000BA84203D9BBF1000F00F08C80D046EC
:105620002D1AA4B2B5FBF9F009FB105500FB0EFED4
:1056300044EA0545AE4507D91CEB050500F1FF34EA
:1056400001D2AE457ED8204640EA0840A5EB0E05C3
:10565000A0FB029845454C46C64602D306D14B45B1
:1056600004D20138B9EB020468EB0C0E002E6FD0A7
:105670001A1B65EB0E0522FA01F305FA07F7CD4078
:1056800000211F43C6E900753EE702FA03FCC3F19F
:10569000200001FA03F24FEA1C4EC14024FA00F543
:1056A0001FFA8CF79C401543B1FBFEF02A0C0EFB51
:1056B000101142EA014200FB07F191420ED91CEBA6
:1056C000020200F1FF382CBF4FF001094FF0000932
:1056D000914202D9B9F1000F31D04046521AADB211
:1056E000B2FBFEF10EFB112245EA024501FB07F277
:1056F000AA4207D91CEB050501F1FF3801D2AA42E5
:1057000023D84146AD1A41EA004126E731463046EA
:10571000FAE6841A65EB030301201F460CE7644494
:1057200002384AE764440238E4E6023A65442FE767
:1057300002396244C9E6A8F10208654470E70238FC
:105740006244CBE7023865447EE702396544D9E715
:105750003146D9E6704700BF2DE9E04F2746A04605
:10576000A146A246A346A446A2B02DEC000A84F3AB
:10577000008825462646A447EFF3148515F0080F48
:1057800018BFB0EE400A3DEC000A22B0BDE8E08F41
:105790000B6801330B60014B1B68184700000020A9
:1057A000014B1860704700BF0000002007B50B4692
:1057B000002102460191034801A900F005F803B059
:1057C0005DF804FB91C700002DE9F04F8B4692462F
:1057D0001C46002591B002909AF8000008B92846AE
:1057E0005FE325280AF1010707D05946029B984735
:1057F0000028C0F25683013512E2182200210AA8BF
:1058000008F093FB9AF80130252B78D0002210463F
:10581000964694461646394617F8013B2B2B00F066
:105820009D8000F29480202B00F09B80232B00F0C1
:105830009B802EB19DF8306046F004068DF83060F4
:10584000BCF1000F05D09DF8306046F008068DF8D9
:105850003060BEF1000F05D09DF8306046F01006B4
:105860008DF8306028B19DF8300040F020008DF8B0
:1058700030002AB19DF8302042F040028DF83020EF
:105880009DF8302002F04400442803D16FF38612C3
:105890008DF830209DF830202A2B42F080028DF8C0
:1058A00030207BD19DF831204B1C42F001028DF855
:1058B00031201A782E2A0CBF012100219DF83120B9
:1058C00061F341028DF8312074D15A782A2A6AD0C6
:1058D00000210A260133184610F8012BA2F13007E7
:1058E000092F40F28E809DF830200E91C2F34000C7
:1058F00040EAD17161F341028DF830205AE00AF19B
:1059000002078DF833309DF83130D90740F14981D5
:1059100054F8049BB9F1000F07DA9DF83020C9F163
:10592000000942F004028DF830205A0740F142810C
:1059300054F8048BB8F1000F80F241819DF83130AA
:105940006FF341038DF831304FF0FF3837E12D2BE5
:105950000CD0302B7FF46DAF01225CE74FF0010CCF
:1059600059E74FF0010E56E7012054E7012652E7B0
:1059700033460CFB0202303A1E4616F8010BA0F12A
:105980003007092FF4D9994293D09DF830100D9229
:10599000D20F62F341018DF830108AE70B460022E6
:1059A0004FF00A0CE8E79DF83120023342F0040280
:1059B0008DF831201F4617F8012B6C2A41D025D8CD
:1059C000682A2BD06A2A46D04C2A4CD01F4617F89A
:1059D000012B9DF83130782A8DF8332000F2D980E0
:1059E000572A4DD8412A03D0453A022A00F2D180E5
:1059F00004229DF8323062F302038DF83230012325
:105A00009EE006FB01210346303964E7742A26D064
:105A10007A2ADBD106229DF831300DE05A78682AC7
:105A20009DF8312006D1012161F3C6028DF83120A5
:105A30009F1CCCE71346022262F3C6038DF8313077
:105A4000C5E75A786C2A9DF8312001D10421EBE793
:105A500013460322F0E705229DF83130ECE70722D8
:105A60009DF83130E8E7BDF8303023F4F04323F0FF
:105A7000020343F4804343F00203ADF83030A6E75D
:105A8000A2F15801202900F2848001A050F821F0F1
:105A900055CB000093CB000093CB000093CB0000CC
:105AA00093CB000093CB000093CB000093CB00007E
:105AB00093CB0000F1C9000093CB000055CB000050
:105AC00015CB0000F1C90000F1C90000F1C90000C8
:105AD00093CB000015CB000093CB000093CB0000CC
:105AE00093CB000093CB00005DCB000055CB0000B2
:105AF00079CB000093CB000093CB000079CB000062
:105B000093CB000055CB000093CB000093CB00005B
:105B100055CB000001209DF8321003F0780360F3AC
:105B20000201402B8DF8321002BF9DF8301041F079
:105B300001018DF83010632A31D1003B18BF0123D9
:105B40009DF83020C2F340010B4363F341028DF80E
:105B50003020D8E602209DF83210DEE703219DF8C0
:105B6000322003F07803A3F1400061F302024342C4
:105B70008DF832204341E3E703219DF8322013F0F2
:105B8000780F61F3020214BF012300238DF8322045
:105B9000D6E79DF8303043F001038DF83030002314
:105BA000CEE79DF93020002AACBF4FF0FF39DDF879
:105BB0003490BAE69B077FF5C7AEDDF83880002346
:105BC000CDE90D339DF832309DF8311003F0070315
:105BD000012BC1F3C30138D1CB1E042B22D8DFE83F
:105BE00003F003090921210054F8043BDA17CDE939
:105BF0000A3206E0073424F00704F4E80223CDE972
:105C00000A239DF8303013F0030656D03B46524627
:105C10005946029808F086F80028C0F242810544EF
:105C2000BA46D9E554F8043B01294FEAE372CDE9BD
:105C30000A3205D19DF828300A9300230B93E0E740
:105C40000229DED1BDF92830D0E7022B23D1CB1EAB
:105C5000042B13D8DFE803F0030A0A121200002312
:105C60002268201D0A920B930446CAE7E01D20F02B
:105C70000700F0E80223CDE90A23F5E754F8043BD6
:105C800001290A934FF000030B93D3D00229B8D116
:105C9000BDF82830D0E7042B09D1E31D23F007031A
:105CA00003F10804D3E90023CDE90A23A9E7032B74
:105CB00004BF54F8043B0A93A3E79DF83300782807
:105CC000AED8622822D825283FF48FAD5828A7D116
:105CD000DDE90A010DF1260300930CAA04AB07F0DD
:105CE000DBFF8246B8F1000F0DF126000CDB9DF8BA
:105CF0003020A0EB0A036FF3861298458DF8302010
:105D000002D9A8EB03030D9380463DE063381528C4
:105D100086D801A252F820F099CD0000FDCD0000F8
:105D200021CC000021CC000021CC000021CC0000BF
:105D3000FDCD000021CC000021CC000021CC0000D2
:105D400021CC000057CE000025CE000029CE000057
:105D500021CC000021CC000071CD000021CC00003E
:105D600025CE000021CC000021CC000025CE000073
:105D7000B8F1000FDDF828A00ADB4146504608F0D4
:105D80008BF800260AEB0008BAF1000F0CD147E7A8
:105D9000504608F07AF8F4E700260A9B0DF1100A45
:105DA0008DF810300DF11108A8EB0A0306B101338C
:105DB0009DF83220D00668D5023352060D9948BFAF
:105DC0000E9A0B4448BF9B18B9F1000F76DD9DF881
:105DD0003020A9EB0309C2F38003039353076DD46A
:105DE000500661D546B159463046029B9847002877
:105DF00057DB039B01351E46302356E01E070FD4A8
:105E000013F0100618BF2026DDE90A23002BBFF689
:105E10005FAF524263EB43032D26CDE90A2357E7D8
:105E20002B26F1E7002653E70A9840B30DF126032D
:105E30000093002104AB0CAA07F02EFFBDF832300E
:105E4000824603F0EF0343F4F04343F010030026CF
:105E5000ADF8323046E70A9B07293FF6E1AEDFE8AE
:105E600001F00C04060C08080C0C1D70D8E61D800F
:105E7000D6E6EA17C3E90052D2E61D60D0E6DFF8A5
:105E8000C8A006460AF105088EE7110748BF01338E
:105E900093E7184603935946029B98470028039BB3
:105EA00004DA11B0BDE8F08F20234D444A46002AA1
:105EB000A5EB090109F1FF39EBDC0D4636B1594676
:105EC0003046029B98470028EBDB01359DF83230C5
:105ED000D90601D41A0706D559463020029B9847A7
:105EE0000028DEDB01359DF83230DB0607D5594648
:105EF0009DF83300029B98470028D2DB01350D9EA8
:105F00002E44731B002B16DC43465246594602981A
:105F100007F008FF0028C4DB0544A944A9EB0503EA
:105F2000002B7FF77DAE59462020029B9847002822
:105F3000B7DB0135F2E759463020029B984700282D
:105F4000AFDB0135DDE700BF8C5B0100044608B51F
:105F50004FF02002EFF3118382F31288BFF36F8FAB
:105F600008F081F9204601F063F9034807F06AFE62
:105F700000F01AFDFCE700BF925B01004FF0200229
:105F8000EFF3118382F31288BFF36F8F0121044A6C
:105F9000C2F8401583F31188BFF36F8F002070475C
:105FA0000090035020B1034B800143F001031847D8
:105FB000704700BFA0570100062807D10122044BFB
:105FC000C3F80025BFF34F8F20BFFDE7704700BF28
:105FD000004000502DE9F84305464FF02003EFF351
:105FE000118683F31288BFF36F8F1D4803F00CFCFA
:105FF00040B91C491C488E2207F024FE8E21194806
:1060000007F0A6FE164803F01BFC184B1C689CB159
:106010004FF00C09164FDFF85C80D4E90132002DF7
:1060200008BF13462BB198F8142009FB02F2B85CA4
:1060300098472468002CF0D1094803F0F3FB40B9DD
:1060400008490948B92207F0FDFDB921054807F0C4
:106050007FFE86F31188BFF36F8FBDE8F88300BF22
:1060600078020020BF5B0100E55B01007C0200209C
:1060700084020020580A00200123420900F01F007A
:1060800003FA00F0C043054B03EB8203D3E8EF2F84
:106090000240C3E8E12F0029F8D1704790020020A8
:1060A000012238B5174B1C7D04F01F039A40D043E2
:1060B000154B610903EB8103D3E8EF1F01EA0005EB
:1060C000C3E8EC5FBCF1000FF6D1114213D00F4BC7
:1060D0000F4D8BB10C236343EA185178E85C07F04D
:1060E0003FFE0020FFF776FF0C235C4300232A19B4
:1060F0002B51C2E9013338BD83F31188BFF36F8F91
:10610000EFE700BF580A002094020020614D010013
:10611000840200202DE9F8432F4B07461C7D4FEAEF
:1061200054184FEA88082D4B4344D3E8AF3F04F09E
:106130001F0943FA09F313F0010F294E0AD1014652
:10614000204600F07BF828B107C80C2303FB04634A
:1061500083E807000C236343F55CF2182DB9204651
:10616000FFF78AFF2846BDE8F8837B1C0FD04FF469
:1061700000450021D2F808C01A480023ECFB0501B5
:10618000194AFFF75BF90121381A04F05DFE03F0AC
:1061900037FE0120FFF71EFF012303FA09F9134B15
:1061A0009844D8E8EF3F43EA0903C8E8E23F002AF1
:1061B000F7D10F4B33B10C236343F2185178F05CE5
:1061C000FFF7FAFEFFF76CFF2046FFF755FF04F0DC
:1061D00039FA0120C7E700BF580A002090020020CA
:1061E000840200203F420F0040420F009402002032
:1061F000B9CF0000062810B5044608D90849094857
:106200002C2207F01FFD2C21054807F0A1FD0648B0
:1062100000EB8404D4E8AF0FB0FA80F0400910BD61
:10622000005C0100E55B01009802002008B9024B08
:106230000B600020704700BFA85701002DE9F04F08
:1062400085B00E4603A9FFF7F1FF4FF400474FF06A
:106250000009441EDFF868A0DFF8688024B2631CE0
:1062600004D10025284605B0BDE8F08F039A04EB61
:10627000440312F8230002EB8305FFF7BBFFE0B1F4
:106280004FF0000BD446594668684246E0FB07C110
:106290004B466046FFF7D2F8D44659460190A868AD
:1062A0004246E0FB07C14B466046FFF7C7F8721C49
:1062B000D8D0019B1844B042D4D9013C24B2CEE7D7
:1062C0003F420F0040420F00034610B588B08DF8E2
:1062D00007300DF1070302930123094ACDE90513A5
:1062E00010680393002207238DF810208DF81C30CE
:1062F000836802229C6802A94623A04708B010BD0B
:10630000B402002070B586B00E460DF107010546B7
:106310001446FFF7D9FFC0B90D4B9DF80720186848
:1063200002AB0393022322EA060222438DF80720E0
:106330008DF808508DF8092004938DF81430836887
:1063400001229C6803A94623A04706B070BD00BF88
:10635000B402002008B502F053FF044B0028186077
:106360000CBF6FF01200002008BD00BFB402002077
:10637000F7B500281C4614BF4FF400534FF40043F8
:106380008A420BD294222149214807F05BFC9421D8
:106390001E4803B0BDE8F04007F0DABC33D00D462C
:1063A0001C4E68B305F5E0770135AA4246F8274050
:1063B000F7D802FB03F0013A4B430090164807F070
:1063C00041FC164B14F0100F1549164808BF19462A
:1063D00007F038FC7221144807F034FC772112488A
:1063E00007F030FC7821104807F02CFC6C210E4897
:1063F00007F028FC0D4803B0BDE8F04007F022BCD0
:1064000005F5C077D0E703B0F0BD00BF3F5C0100E9
:10641000E55B010000300050605C0100335C01006E
:106420002A5C0100115E01007A5C01000568010030
:1064300008B543B2002B0CDB012200F01F018A409B
:106440005B091049203341F82320BFF34F8FBFF37E
:106450006F8F830003F1A04303F540533128D3F835
:10646000002806D0002A07DA02F00302023A012AC5
:1064700002D8054AC3F80028012107F0BEFC00201D
:1064800008BD00BF00E100E0000100801FB54FF42F
:10649000C0344FF4C131204807F0D4FBD4F80012C7
:1064A0001E4807F0CFFBD4F804121D4807F0CAFBC2
:1064B00010220021684607F038FDD4F80032684603
:1064C00000934FF4C133029300F00CFF012000F061
:1064D0003BFF002000F024FF002000F049FF0121D5
:1064E000002000F063FF00F057FFD4F804420D488D
:1064F00007F0A8FB0820FFF79BFF24F00104BFF37F
:106500004F8FBFF36F8F64086400204621462246F8
:106510002346FFF721F900BF7D5C0100945C010078
:10652000A95C0100C75C01002DE9F843524807F05F
:1065300089FB002140F2171308460322FFF718FFDA
:106540004E4D40F20713202203210020FFF710FFD9
:106550004B4807F077FBC5F30E044A4BC4F50044E3
:106560009C4208D248494948822207F06BFB8221AD
:10657000454807F0EDFBB4FA84F4454EC4F11B0422
:10658000D6F80035E4B2DA05C5F3C4350AD5414979
:106590003E484FF4BD7207F055FB4FF4BD713D48C6
:1065A00007F0D6FBD6F80435DB050AD5394937485C
:1065B00040F27B1207F046FB40F27B11354807F0B2
:1065C000C7FB334B3448C3F80055C3F80445D3F830
:1065D0000015D3F80425520107F034FB284807F0D2
:1065E00031FB00F06FF8014610B12C4807F02AFB90
:1065F00000242B4807F026FB40F217130422002149
:106600000120FFF7B5FE224D40F20713202204219E
:106610000120FFF7ADFE1A4807F014FBC5F88044CF
:10662000204807F00FFB204FC5F8C044DFF87C80FE
:106630001F4DDFF880906E792146002E14BF3B4637
:10664000434648462A6807F0FDFA66B91A480134FD
:1066500007F0F8FA202C05F10805ECD10848BDE850
:10666000F84307F0EFBA2879FFF7E2FE08B11348C4
:10667000EDE71348EBE700BFFD5C0100E07F0100A0
:1066800005680100200000003F5C0100E55B01009F
:1066900000300050215D0100535D0100995D010053
:1066A000C95D0100EB5D0100F25C0100375C010097
:1066B000A8570100075E0100145E01001B5E010087
:1066C000235E010000220248114604F03BBD00BFDA
:1066D000B802002070B50C461546064650B96FF05A
:1066E0001500BDE87040714672467346F4468EF35D
:1066F000008C7447002AF2D007F0C2FB0128EED0CC
:10670000B4F5404F16D32B19B3F5424F05D90B4AB8
:10671000944209D92D32934209D82A46214630465F
:1067200007F0F8FB0020DCE7054A944202D9054A4D
:106730009342F2D94FF0FF30D3E700BFFF01FF00D3
:106740002F01FF003801FF0070B506460D461446C4
:1067500007F096FB01280DD0204607F091FB012899
:1067600008D023462A463146084804F01FFD236816
:10677000AB4201D06FF01500BDE870407146724623
:106780007346F4468EF3008C744700BFB8020020B5
:106790002DE9F04F81460D4685B081B307F070FBBF
:1067A00001282CD1284607F06BFB012827D04FF099
:1067B0000008DFF85CB0DFF85CA001AF5BF8046BA9
:1067C0009AE807004E4487E807000C223946304615
:1067D00007F077FB044600B9A6B908F10108B8F143
:1067E000050FEBD16FF00D04204605B0BDE8F04F6A
:1067F000714672467346F4468EF3008C74476FF010
:106800001504F1E73C223146284607F083FBEBE70D
:10681000A858010070570100014804F08BBC00BF6C
:10682000BC58010010B5044618B90D4B0D485B6803
:106830009847616808290DD031F004030AD011F09F
:10684000020108D02146084802F0BCFE0023236064
:106850000023636010BD1422206807F066FBF7E791
:1068600098000020585F01007404002008B5E8B1CA
:106870004368042B0CD101220368D3E8EF1F0029E1
:1068800003D1C3E8E02F0028F7D10BD1002008BDC9
:1068900053B100684FF0FF324FF0FF3303F006F8BA
:1068A0000028F3D00348F2E70348F0E76FF4E04034
:1068B000EDE700BFE98FFFFFEA8FFFFF08B5B0B13A
:1068C0004368042B0DD100220368D3E8EF1F012990
:1068D00003D1C3E8E02F0028F7D1074808BF1046CE
:1068E00008BD3BB1006803F0B3F80020F8E76FF48F
:1068F000E040F5E70148F3E7E98FFFFFEA8FFFFF8C
:1069000010B5044618B9164B16485B68984763687B
:10691000042B23D0082B21D0CBB92368BBB94FF06F
:10692000FF324FF0FF3321460F4802F0F1FD08B966
:1069300023681BB90A4B0D485B6898471422002155
:10694000206807F0F2FA636843F00203636020688E
:1069500007F02CFD636843F00103636010BD00BFC6
:1069600098000020585F0100740400207E5F010041
:1069700008B5064940231422054807F0E4FCBDE8A9
:1069800008400449044804F089BC00BF9404002076
:1069900074040020D4580100C45801000149102299
:1069A0000A60704710ED00E072B6404080F3118835
:1069B000BFF36F8FBFF34F8F30BF62B6BFF36F8FE0
:1069C000704700BF37B505460C46C9B18B68104803
:1069D0000093D1E90023452107F0C8F963694521F7
:1069E0000093D4E903230B4807F0C0F94521E2697D
:1069F000094807F0BBF94521A269084807F0B6F934
:106A00002146284603B0BDE8304002F023BC00BF59
:106A1000AB5F0100DF5F0100136001002760010030
:106A200043B2002B08DB012200F01F0002FA00F045
:106A3000024A5B0942F82300704700BF00E100E012
:106A400043B2002B0DDB012200F01F0002FA00F020
:106A50005B09044A203342F82300BFF34F8FBFF392
:106A60006F8F704700E100E0054B420953F8222088
:106A7000012300F01F0003FA00F01040704700BF30
:106A800000E100E038B54C1C072C054608D90D493B
:106A90000D48572207F0D6F857210A4807F058F951
:106AA0006BB2002BACBF03F16043084B4FEA4414B8
:106AB000E4B2ABBF03F5614305F00F0583F8004373
:106AC0005C5538BD5A600100E55B010014ED00E043
:106AD00030BFFFF7FDBF00BF0B4A08B50B4B22F0DC
:106AE0007F029A60BFF34F8FBFF36F8FD3F8882078
:106AF00022F47002C3F8882002F022FC04F020F88F
:106B000000F05AFB02F05CFC00C2000000ED00E067
:106B1000094A0A49936809685867996708494B68A0
:106B200043F080534B60002383F31188BFF36F8FD2
:106B30009368986F704700BF580A0020EC59010015
:106B400000ED00E013498A684FF030001044EFF385
:106B5000098C80E8F01F202080F31288BFF36F8F2C
:106B60000D4F4FF00066CA698A603E60506F002387
:106B7000536780F3118802F1300090E8F01F8CF326
:106B8000098802F1000004B507F06DF9BDE8044082
:106B900070470000580A002004ED00E01EF0040FCA
:106BA0000CBFEFF30880EFF30980816911F8021C34
:106BB0000229FFD001B507F018F901BD42F8203CC9
:106BC000009B0B4942F81C3C019B21F0010142F85B
:106BD000183C029B42F8081C42F8143C4FF08073AA
:106BE00042F8043C0023203A02654367704700BF27
:106BF000854C0100084B9860436E83F30B88104668
:106C000081F30988002163B681F31188BFF36F8F88
:106C10000022002307F036F8580A002001B572B6AA
:106C20000B4A906900281EBF0021916107F0AFFB5D
:106C300062B6EFF30580A0F110004FEAC0000549ED
:106C4000014409C99847BDE80140034908470000CD
:106C5000580A0020F05401005DDC0000044B9968E4
:106C6000D869884203D003494FF080520A607047C8
:106C7000580A002004ED00E010B5244C24484521BA
:106C800007F074F8D4F8E820D4F8E430580603D5B7
:106C90004521204807F06AF8D4F8E430D9070BD52D
:106CA00045211D4807F062F8184AD2F8E43043F055
:106CB000FF03C2F8E43010BDD4F8E4309A0702D5DF
:106CC00045211648EEE7D4F8E4305B0702D54521AC
:106CD0001348E7E7D4F8E430180702D545211148F6
:106CE000E0E7D4F8E430D90602D545210E48D9E7CB
:106CF000D4F8E4309A0602D545210C48D2E7D4F8FE
:106D0000E4301B06D0D545210948CBE700ED00E073
:106D100090600100AE600100C3600100DE60010010
:106D20000161010021610100436101005D61010019
:106D30007C61010038B5214C4521214807F016F847
:106D4000A36A9D0103D545211E4807F00FF8A36AE9
:106D5000DC0103D545211C4807F008F8174DAC6A43
:106D600014F4801404D04521184806F0FFFF0224D3
:106D7000AB6A180303D54521154806F0F7FF0F4D00
:106D8000AB6A590303D54521124806F0EFFFAB6A01
:106D90009A0303D54521104806F0E8FF074DAB6A7A
:106DA000DB0303D545210D4806F0E0FFAB6A204622
:106DB0006FEA03436FEA1343AB6238BD00ED00E0B6
:106DC00094610100B1610100C9610100E861010045
:106DD000176201003A6201006462010083620100EF
:106DE00070B5234C06460D462248452106F0BEFFED
:106DF000A36AD90403D545211F4806F0B7FFA36A4B
:106E00001A0503D545211D4806F0B0FF184CA36AAA
:106E10009B0510D51A48452106F0A8FFA26BA36A6E
:106E2000180408D54521174806F0A0FF1EB1A36A33
:106E300023F40043A3620E4CA36A590503D54521F0
:106E4000114806F093FFA36ADA050BD545210F48D8
:106E500006F08CFF0020064A936A43F47F43936256
:106E6000287070BDA36A9B04F4D545210848EFE75C
:106E700000ED00E0B3620100CE620100E4620100B7
:106E8000FC6201001A6301003463010054630100D5
:106E90007163010070B52B4C06460D462A4845210A
:106EA00006F064FFA36AD80603D54521274806F0FB
:106EB0005DFFA36A190703D54521254806F056FF53
:106EC000204CA36A9A0710D54521224806F04EFFB0
:106ED000626BA36A1B0608D545211F4806F046FFD2
:106EE0001EB1A36A23F08003A362164CA36ADE07D7
:106EF00003D54521194806F039FFA36A980603D542
:106F00004521174806F032FF0E4B9A6AD10602D48B
:106F10009A6A92070DD59B6ADB060AD51149124879
:106F200040F24F1206F08EFE40F24F110D4806F06F
:106F30000FFF0020034A936A43F0FF039362287017
:106F400070BD00BF00ED00E0A5630100C06301005B
:106F5000E4620100F863010015640100306401007F
:106F60007163010054640100E55B01002DE9F0410B
:106F7000784B0D465C6800268AB0C4F3080786F398
:106F80001188BFF36F8F02F07F43B3F17F4F1ED1A3
:106F900012F0010339D012F0400302F0080840F06B
:106FA000D180520754BF05461E462A686A4B58BF17
:106FB00001261344012B98BF2A6C4521674806F02F
:106FC000D5FEB8F1000F1DD0EFF389855DB94FF400
:106FD0007C726349634806F035FE4FF47C7160486B
:106FE00006F0B6FE00254FF00008FB1E8DF8078066
:106FF000092B00F29580DFE803F00A8488668C9301
:1070000093939390EFF38885E0E71E46DFE7514FB7
:107010004521554806F0AAFEFC6A8DF8078014F059
:10702000020404D04521514806F0A0FE73E0FB6A3B
:10703000002B1DDA45214E4806F098FE9DF80730DA
:107040009BB92022294602A806F064FF099B002E66
:1070500073D0C3F3080222B96FEA53236FEA4323C4
:107060000993204602A9FFF7ADFC0AB0BDE8F08104
:10707000FB6A5B003CD545213E4806F077FEAB69D4
:1070800033F8022C4DF602739A4206D145212A6844
:10709000394806F06BFE2C68D0E797F8283033B1FA
:1070A00001200DF10701FFF7F5FE0446C6E797F84A
:1070B00029302BB101200DF10701FFF791FEF4E714
:1070C0007B8D9BB213B1FFF735FEEEE7D7F8E430C6
:1070D00013B1FFF7D1FDB1E7214940F2C2222148A7
:1070E00006F0B0FD40F2C2211D4806F031FEA5E7D2
:1070F0001B4940F2C6221B4806F0A4FD40F2C621FF
:10710000F2E700200DF10701CDE700200DF10701A6
:10711000D3E7FFF7B1FD002490E74521174883E747
:10712000174914F4F87F174A174808BF0A46A7F111
:107130001003452106F01AFEEDE723F4FF7323F058
:1071400001038DE7B8F1000F7FF440AF054601263B
:107150003CE700BF00ED00E0A6ED0501BC640100C6
:1071600054640100E55B0100E0640100FC6401007F
:107170002265010035650100596501007A6501004D
:107180008E640100A3640100A3650100044B5A69E9
:1071900042F010025A615A6942F480625A617047A3
:1071A00000ED00E0EFF30880EFF3098101B57246CE
:1071B000FFF7DCFE01BD00BF002320210348C218F9
:1071C0000133412B82F80013F9D1704700E100E050
:1071D000002080F31488BFF36F8F002080F30A88AB
:1071E00080F30B8807F00EF900200E490860BFF30A
:1071F0004F8F0D4880F3088800F03EF8202080F380
:1072000011880A484FF40061401880F30988EFF3B1
:1072100014800221084380F31488BFF36F8FFFF7B7
:107220005BFC000094ED00E0482600208827002049
:10723000BFF34F8F0549064BCA6802F4E06213435F
:10724000CB60BFF34F8F00BFFDE700BF00ED00E054
:107250000400FA05002318460649D1F89020C2F32D
:107260000722934200D17047C1F89830C1F8A000BE
:107270000133F6E700ED00E010B572B6002484F3A8
:107280001388FFF7E7FF23464FF0FF300B4A03F167
:1072900020010133102B42F82100F8D100234FF0D8
:1072A000FF3003F160010133102B42F82100F8D1C7
:1072B00062B6BFF34F8FBFF36F8F10BD00E100E0E8
:1072C000064B9B68834207D1EFF3058323B1044A41
:1072D000536843F08053536003F09EBB580A00206C
:1072E00000ED00E082680D4B9A60036883F38888A4
:1072F000436883F38988027B02F00101EFF39483F2
:1073000023F00303920748BF43F0020309B143F09F
:10731000010383F39488BFF36F8F704700ED02E0A1
:10732000084AD36848B123F400531B041B0C43F0F4
:10733000BF6343F40033D36070479BB243F4005300
:10734000F5E700BF00ED00E0084AD36840B19BB20A
:1073500043F4804343F0BF6343F40033D36070478A
:1073600023F480431B041B0CF4E700BF00ED00E096
:10737000084AD36840B19BB243F0080343F0BF63AF
:1073800043F40033D360704723F008031B041B0C45
:10739000F4E700BF00ED00E0034AD2F88C3043F47C
:1073A0004063C2F88C30704700ED00E00A4BD3F820
:1073B000D02020B142F00102C3F8D020704722F063
:1073C0000102C3F8D020D3F8D02011B142F002025C
:1073D000F2E722F00202EFE700ED00E01FB5094CF2
:1073E000094A23460121094800F02CF900230393A0
:1073F000074B0121E41A01A80193029400F03EF921
:1074000004B010BD0080002000000020E8580100FA
:107410007001002010B50B680C7A23F01F0204F0F5
:107420001F031A43CB68640923F01F03054943EA8D
:10743000440343F00103C1F89800C1F89C20C1F84F
:10744000A03010BD00ED00E030B54B680C6885B091
:107450000A894D890094013B24F01F04234402F063
:107460001F0242EA451223F01F030F2804468DF83D
:107470000820039309D902464521064806F076FC08
:107480006FF01504204605B030BD6946FFF7C2FF16
:10749000F8E700BFBF6501002DE9F04F89461446AB
:1074A00006464FF00008584D85B0C84527DAD6F893
:1074B00004A0BAF1000F44D0BAF11F0F18D91AF086
:1074C0001F0F15D1D6F800B01BF01F0F10D1584672
:1074D00006F0CDFC07460AEB0B00013806F0C7FCAE
:1074E000874210D06FF015073A464521474802E021
:1074F00042464521464806F039FC6FF01504204607
:1075000005B0BDE8F08F17F1160FEDD0BC42EBDDF2
:10751000C5F89870D5F89C10C5F89870D5F8A030CB
:1075200021F01F0143F01F0BD6E900321A449942A3
:1075300002F1FF3A1DD1D34507D13146F8B2FFF72A
:1075400083FF08F101080C36AFE73146C5F89870A3
:10755000D5F89C3022F01F0203F01F031A43C5F830
:107560009C20E0B2FFF770FF10F1160FC5D0441C4D
:10757000E7E7013BD345E0B223F01F03C5F898705D
:1075800008D1D5F8A020314602F01F021343C5F8F8
:10759000A030E7E7D5F8A01001F01F010B43C5F8B4
:1075A000A0303146FFF750FF10F1160FA5D0C5F8F7
:1075B0009870D5F89C209DF808300BF1FF3B62F3E2
:1075C00004038DF80830D5F8A0309DF808205B083A
:1075D00063F34712D6E900310B44009323F01F03F5
:1075E00001305B44A3EB0A03C0B223F01F030F2852
:1075F0008DF80820039303D90246452105487AE710
:107600006946FFF707FFB2E700ED00E012660100F0
:10761000EA650100BF6501000522044BC3F8942010
:10762000BFF34F8FBFF36F8F704700BF00ED00E0D7
:10763000BFF35F8F0022024BC3F89420704700BF56
:1076400000ED00E010B50A4C2278FFF725FF20700E
:1076500016300CD10749084840F2111206F0F2FA30
:10766000BDE8104040F21111024806F071BB10BD98
:10767000781400203A660100E55B01002DE9F74F20
:10768000304D8A4606464FF00008AB462E4FD04597
:1076900002DB03B0BDE8F08FD6F80490B9F1000F1B
:1076A0004AD031680846019106F0E1FB0199044691
:1076B00009EB0100013806F0DAFB84424FF01402B6
:1076C000224B13D06FF0150302FB08F84BF808307B
:1076D00040F221121E491F4806F0B4FA40F221116F
:1076E0001B4803B0BDE8F04F06F032BB14F1160F93
:1076F0002C60EDD01978A142EADD02FB08B0C7F892
:107700009840C7F89840D7F89C4000F10801007BEA
:1077100064F304000871D7F8A0000C79400860F306
:1077200047140C71D7F89C1021F01F016960D7F83D
:10773000A01021F01F01296108F1010814350C3651
:10774000A5E700BF9409002000ED00E078140020B8
:107750003A660100E55B010038B51D4D2C68102C20
:107760000DD94FF4A4721B491B4806F06BFA194857
:107770004FF4A47106F0ECFA4FF0FF3038BD002052
:10778000FFF756FF154B164AC3F8C020844217D1A5
:10779000144B1C70FFF740FF104BD3F89030C3F32D
:1077A0000723102B0AD00B490B484FF4D67206F072
:1077B00049FA4FF4D671074806F0CAFA0020DDE70F
:1077C000696801EB0011FFF725FE0130DEE700BF1D
:1077D000F45801003A660100E55B010000ED00E0AD
:1077E000AAFF440078140020014B1860704700BFC6
:1077F0002400002010B52A48FEF7ACFD044658B11D
:1078000045210246274806F0B1FA2246452126487E
:1078100006F0ACFA204610BD06F0CDFA044618B1C9
:10782000024645212148EEE706F0D1FA044618B198
:10783000024645211E48E6E7012006F0CDFA04463F
:1078400018B1024645211B48DDE7012006F0B8FAD1
:1078500004460028D9D1072006F09BFA044618B147
:10786000024645211448CEE71F2006F08CFA044654
:1078700018B1024645211148C5E7072006F094FAE1
:10788000044618B1024645210D48BCE7012006F028
:1078900086FA04460028BDD0024645210948B2E7D1
:1078A000806601008666010007680100B466010079
:1078B000E166010014670100486701007A67010072
:1078C000AA670100E367010037B540230C460A4967
:1078D0000093411A491105462346084A084806F014
:1078E00043FB011E05DA2846234603B0BDE83040BD
:1078F000184703B030BD00BFA8090020D74F0100D2
:107900007854010038B5CCB2012C054608D9084995
:107910000848792206F096F97921054806F018FA08
:107920000C23296904FB0314A06C00F0070038BD88
:107930003F680100E55B0100F8B5CCB2012C0546BB
:10794000174606690AD91849184840F24D1206F040
:1079500079F940F24D11144806F0FAF94FF020037E
:10796000EFF3118183F31288BFF36F8F0C2202FBB8
:1079700004639B6C13F0C00301D09F4211D101231B
:10798000002002FB0466B36481F31188BFF36F8F9C
:1079900030B90C23696803FB04146368984700201E
:1079A000F8BD4FF0FF30EFE73F680100E55B0100F5
:1079B00070B50D4606490446411A49114022054852
:1079C000FFF7BAFF2B4601462046BDE87040184736
:1079D000A80900207854010070B500220121044656
:1079E0000520FFF74FF80520FFF71AF80F4800F0C1
:1079F00033FE0F4B984215D100F04EFE26690D491B
:107A0000304606F02CF900280BDB012524690949D2
:107A1000B56404F1200006F022F9002801DB002003
:107A2000656570BD6FF00400FBE700BF6DEA000004
:107A30000000AD0B4C59010001460C2300224B43C2
:107A4000084870B5C4184833D4E910561844226465
:107A500006F077FA2DB132462B46BDE87040024859
:107A6000184770BDA809002078540100012808B506
:107A700006D0032808D0A0B90F4B9B6C5B0719D127
:107A8000BDE80840FFF7D8BF0C4940F25E220C4821
:107A900006F0D8F840F25E21BDE80840074806F03D
:107AA00057B9064940F26222054806F0CBF840F289
:107AB0006221F1E708BD00BFA80900203F6801006E
:107AC000E55B010008B54FF02003EFF3118183F36C
:107AD0001288BFF36F8F124A136843F0020013F04D
:107AE000010310600CD04FF05022D2F80C34D2F8C1
:107AF0000C2413F0010303D00A4806F022FA0123F4
:107B000081F31188BFF36F8F23B1BDE808400020D7
:107B1000FFF792BF0120BDE8084000F0DBBD00BFC9
:107B2000000A0020F00900201FB500220123CDE942
:107B300002236B46084ACDF800D0CDF804D006F0F9
:107B400043FA002805DB4FF480420023684602F028
:107B50004DF805B05DF804FBF54F0100074BD3E885
:107B6000EF2F22F00201C3E8E01F0028F7D1D3076E
:107B700002D4012000F000BE704700BF000A0020C0
:107B800008B50848084B186006F0CFFB38B1074825
:107B9000FFF72AFE0548FDF703FE002008BD6FF041
:107BA0001200FBE7C0540100040A0020B1EB000002
:107BB0000A2838B50446074D04D1286883680D218A
:107BC0005B68984728688368E1B25B6898472046FD
:107BD00038BD00BF040A002008B50369D3E90801D5
:107BE00001F090FA034B984214BF6FF00F00002091
:107BF00008BD00BF0000AD0B38B5056904462B4633
:107C00000A4A406805F1200100F074FE084B9842D2
:107C100007D008484521226806F0A8F86FF0040054
:107C200038BD0123002085F83030F9E795EC0000DD
:107C30000000AD0B9A68010038B5CB07044609D4A3
:107C4000C1F34201012908D002291BD04521104867
:107C500006F08CF86FF0150038BD4FF0CC73256935
:107C6000AA6A934211D0AB6295F830302BB16068AC
:107C700000F00CFF002385F830302046BDE8384086
:107C8000FFF7BABF4FF0C863E9E70020E4E700BFA1
:107C9000BF6801000378012B08D0022B08D04BB934
:107CA000054B4B6301F1100001F06ABF034BF8E78D
:107CB000034BF6E7034BF4E70000AD0B0100AE0BFE
:107CC0000200AE0B0100AD0B2DE9F04F1D46D0F8C0
:107CD00004808DB00669B8F80830039207460C4658
:107CE0001422002107A80293D6F838A006F01DF947
:107CF00096F830308DF81D50C3B14FF0FF324FF081
:107D0000FF33304601F072FF06F1100B4FF000090F
:107D100000220023584601F069FF404600F05AFE59
:107D20004D46039B994509D3002430E03846FFF7C0
:107D300063FF0028E1DA6FF004042EE0217A0B07DC
:107D400000F1B980039A09F10103934204930AD226
:107D5000880708D4237D81EA030202F0010203F0C0
:107D6000040313431DD085B300236268DDF808C007
:107D7000A818604517D93B68452101934F48134621
:107D8000CDF800C02A4605F0F1FF6FF01B04404615
:107D900000F048FE304601F0F3FE20460DB0BDE88D
:107DA000F08F0123E1E7C90706D421680AEB05003B
:107DB000059306F0AFF8059B62681544ADB2002B41
:107DC0003AD0DDF810900C34ABE7CA071DD500257A
:107DD00023680A9363680893237A404603F00102FC
:107DE00013F0020F8DF81C2007A90CBF20220022DF
:107DF00000F09CFE324B984224D00B3398420CBFCB
:107E00006FF00F046FF00404C1E7216801F06043D4
:107E1000B3F1005FDBD06268B8F80A30934207D252
:107E200045213B68274805F0A1FF6FF01504AEE738
:107E3000504606F06FF8A588002DC8D0CDF828A0D0
:107E40000895C9E74FF480420023584601F0CEFE62
:107E500070B145214A461C4805F088FF404600F0B5
:107E6000E1FDD6E9080101F04DF96FF004048EE759
:107E7000726B134B9A4205D04B464521134805F0CF
:107E800075FFF2E7237ADB0701D4002599E70A9B07
:107E90009A45FAD1A14607E0A91A8DB2D9F80C008B
:107EA0001AFA81F106F036F8D9F80420A9F10C0984
:107EB0009542F1D2E9E76FF0850468E7D6680100E2
:107EC0000000AD0B6B690100D6690100056A010075
:107ED000036810B55A090CBF4FF0FF32002203F0BF
:107EE0001F0322FA03F3DB0704460AD40E490F48A6
:107EF00040F2292205F0A6FE40F229210A4805F0A9
:107F000027FF236803F01F025B0922600AD006499D
:107F1000064840F22E2205F095FE40F22E2102483E
:107F200005F016FF024810BD3D6A0100E55B010047
:107F300000258450F0B54B79012B26D0032B21D19D
:107F400010268B79032B1DD1CC790CB1012C19D1C2
:107F50000A7912B1022A15D10E220B684568B3F5D1
:107F6000164F2D6865D02DD8B3F5165F64D016D89E
:107F7000B3F5966F62D00AD8B3F5967F61D0B3F5AA
:107F8000167F61D06FF0850052E00026D9E7B3F587
:107F9000166F5CD0B3F5965FF4D1374B3CE0B3F588
:107FA000E14F57D007D8B3F5615F55D0B3F5964F81
:107FB000E8D1324B30E047F61227BB42E2D14FF412
:107FC000000329E0B3F5613F48D013D8B3F5963FDD
:107FD00047D009D84DF6C027BB4244D0B3F5614F16
:107FE000D0D14FF46B0317E0B3F5E13FCAD14FF0A6
:107FF000EB7311E0B3F5612F38D008D8204FBB42A6
:1080000037D0B3F5E12FBDD14FF0E86304E01D4F49
:10801000BB42B7D14FF0805300693443C5F82435D3
:108020002243031DC5F86C2503C983E80300002023
:10803000F0BD4FF41D03EFE7134BEDE74FF49E2324
:10804000EAE74FF4A033E7E74FF41C33E4E74FF4DB
:108050001D23E1E70D4BDFE70D4BDDE74FF06C73C0
:10806000DAE70C4BD8E74FF46503D5E74FF07063C0
:10807000D2E74FF08063CFE700B0130000A04E00BE
:1080800090D0030040420F000050270000C0750050
:1080900000F03A0000903A01F8B505460F4606692F
:1080A00006F06DF910B92C4B1B7883B94FF0200303
:1080B000EFF3118483F31288BFF36F8F686805F0C4
:1080C000D7FF28BB84F31188BFF36F8FEEE76424DA
:1080D000686805F0CDFF70B9012006F0E7F8013CB3
:1080E000F6D10021212002F061FCF0E784F3118831
:1080F000BFF36F8FF5E74FF02003EFF3118483F3A5
:108100001288BFF36F8F686805F0B2FF0028EDD0CA
:10811000012206F8107F69680B68C3F84465C3F84C
:1081200048250022C3F82021D3F82001C3F85821A4
:10813000D3F858214A68D20641BF0822C3F8002567
:108140004FF48002C3F8042301229A6084F311885B
:10815000BFF36F8FF8BD00BF89140020F7B50F463D
:10816000164640B918491948202205F06BFD202118
:10817000154805F0EDFD47B913491448212205F0D3
:1081800061FD2121104805F0E3FD4FF480650024D6
:10819000A64203D816D1002003B0F0BD331BB3F5BF
:1081A000806F38BF1D4600202A4601AB391902F006
:1081B000FDFF20B9019BAB4201D12C44E8E76FF0F1
:1081C0001500E9E71620E7E78E6A0100E55B01008C
:1081D0004FF0E0239A69196910B511F4803F98694E
:1081E0000849094B01D1824206D21A680C68224420
:1081F0001A604FF0E02212691B680A681344181ACB
:1082000010BD00BF100A0020180A00202022002004
:10821000074B83F82320074B1860074B18604FF07B
:10822000E023586198611A6942F007021A617047A9
:1082300000ED00E0100A0020180A002008B5FFF742
:10824000C7FF094A09491368086803440B60002105
:108250001160074A10681360181A02F033FEBDE877
:108260000840FEF7FBBC00BF180A00200C0A0020E3
:10827000080A0020F8B53A4F59B1421C09D14FF015
:10828000E022136923F0010313614FF07F433B6049
:10829000F8BD431C3E6856D0012856DD6FF07F4381
:1082A000984254DA441E4FF02003EFF3118583F314
:1082B0001288BFF36F8F2B4801F0A6FA40B92A4904
:1082C0002A488E2205F0BEFC8E21274805F040FD8D
:1082D000244801F0B5FAFFF77BFF4FF0000E4FF096
:1082E000E021DFF88CC08B69DCF8002002442148D3
:1082F000CCF80020C0F800E01F480068101A704554
:1083000027DA4FF4806038603C688869013C4C6132
:108310000024834238BF9B191B1A8C6113441148F7
:10832000CCF8003001F07EFA40B90F490F48B9226D
:1083300005F088FCB9210C4805F00AFD85F3118889
:10834000BFF36F8FA4E70D48ACE70024ABE70B4CFD
:10835000A9E7B4F5806FB8BF4FF480643C60D3E701
:10836000100A0020140A0020BF5B0100E55B010039
:108370000C0A0020180A0020080A0020FEFFFF0057
:1083800038B54FF02003EFF3118583F31288BFF364
:108390006F8F154801F038FA40B9144914488E22FD
:1083A00005F050FC8E21114805F0D2FC0E4801F07A
:1083B00047FAFFF70DFF0F4B1C680F4B1B68E41AC1
:1083C0000444094801F02EFA40B908490848B92286
:1083D00005F038FCB921054805F0BAFC85F3118891
:1083E000BFF36F8F204638BD140A0020BF5B010029
:1083F000E55B01000C0A0020080A0020054B1B6801
:10840000B3F17F4F01BF4FF0E022136943F0010346
:1084100013617047100A00200348452108B505F094
:10842000A5FC0020FEF704FFC96A01002DE9F04316
:108430000025214C214E54F8048CDFF8849085B03F
:10844000A84503D8002005B0BDE8F083636A96E82C
:1084500007001F6801AB83E807000C221946384665
:1084600005F02FFD90B98FB1636A21691B681A6905
:1084700091420BD19A69A169914207D8E169914271
:1084800004D962695B6932EA03030AD0276A67B1DB
:108490000C4805F0D7FB404080F311884FF00400F2
:1084A00002DFE36801351C44CAE7484605F0CAFB11
:1084B000636A1F60F5E700BF3CC400007C57010001
:1084C000146B0100EB6A01005B4A08B5D2F8D030AA
:1084D00043F00203C2F8D0304FF47F03D3F83021C9
:1084E000D3F83431BFF34F8F092A01BF4FF0502327
:1084F0000022C3F81421C3F8182105F0C6FE28B1E4
:1085000001224E4BC3F8382AC3F878254FF47F0375
:10851000D3F83021D3F83431BFF34F8F092A05D176
:10852000012B1EBF0122454BC3F8782505F0ADFE97
:1085300018B10E22424BC3F8E42E4FF47F03D3F858
:108540003021D3F83431BFF34F8F092A06D10022EE
:108550003A4BC3F80C270122C3F810270022D3009E
:1085600003F57F03D3F80013BFF34F8F013108D019
:10857000D3F800130132D3F80433B2F5807F0B60D7
:10858000EDD1304BDA69BFF34F8FD10743D52E4B76
:10859000D3F80024012AFBD1C3F80425D3F8002422
:1085A000012AFBD1274BDA69BFF34F8FD2070AD5D7
:1085B000DA6922F00102DA61BFF34F8F224AD2F862
:1085C0000034012BFBD11F4A136ABFF34F8F0133D5
:1085D0000CD1136A23F0FF0343F020031362BFF3AF
:1085E0004F8F194AD2F80034012BFBD10022164BD1
:1085F000C3F80425D3F80024012AFBD1BFF34F8F21
:108600000D49124BCA6802F4E0621343CB60BFF31A
:108610004F8F00BFFDE71B6ABFF34F8F0133B6D00A
:10862000054AD2F88C3043F44063C2F88C30084BD2
:10863000084A1A6008BD00BF00ED00E0004000508D
:1086400000A003500080FF00009003500400FA05D2
:108650008C0000200090D00310B5044640B90949B1
:108660000948BD2205F0EEFABD21064805F070FB71
:10867000064B1A7922B9012205481C601A7110BDF7
:108680000448FCE7476B0100E55B01001C0A002081
:108690000000AD0B0C00AD0B08B50B4B1B7943B9BB
:1086A0000A490B48D62205F0CDFAD621074805F035
:1086B0004FFB0520FEF7D8F920B9BDE8084005209A
:1086C000FEF7AEB908BD00BF1C0A0020476B0100D1
:1086D000E55B0100254B10B51B79044653B92449CD
:1086E00024484FF4897205F0ADFA4FF4897120489F
:1086F00005F02EFB74B1012C2DD01D491D484FF4FF
:10870000A27205F09FFABDE810404FF4A27118481C
:1087100005F01EBB4FF05022D2F81834D2F81814CE
:10872000C90312D503F00303022B0ED1C2F818358A
:108730004FF050230022C3F80421D3F80421022271
:10874000C3F8042301229A6010BD4FF05023012288
:10875000C3F81825ECE74FF050230022C3F800219E
:10876000D3F80021C3F804431C60EDE71C0A002085
:10877000476B0100E55B010038B5284B04461B79C7
:1087800053B92749274840F24B1205F05BFA40F2F3
:108790004B11234805F0DCFA74B1012C23D0204999
:1087A000204840F2671205F04DFABDE8384040F22B
:1087B00067111B4805F0CCBA4FF050250223C5F8CD
:1087C0000833C5F80441D5F80431012342F210748E
:1087D000EB60D5F81834DB031FD5012005F066FDEA
:1087E000013CF6D119E04FF050250023C5F80843AD
:1087F000C5F80031D5F800316C6042F21074D5F83C
:108800000C34D5F80C2403F00103D20305D523B1B1
:10881000012005F04BFD013CF1D138BD1C0A0020C0
:10882000476B0100E55B01004FF05023D3F80021B6
:1088300010B552B10020C3F80001D3F80021012285
:10884000C3F80823114B1B6898474FF05023D3F807
:1088500004218AB10022C3F80421D3F80421D3F8FB
:108860001824D3F8181402F00302012A4FF0020171
:1088700003D1C3F818159A6010BDC3F80813034B51
:108880000120BDE810401B68184700BF1C0A0020EB
:10889000036810B55A090CBF4FF0FF32002203F0F5
:1088A0001F0322FA03F3DB0704460AD40E490F48DC
:1088B00040F2292205F0C6F940F229210A4805F0C4
:1088C00047FA236803F01F025B0922600AD00649B9
:1088D000064840F22E2205F0B5F940F22E2102485A
:1088E00005F036FA024810BD3D6A0100E55B010063
:1088F000002584502DE9F74F0646904699460C46D0
:1089000051B92F492F4840F2151205F09BF940F25A
:1089100015112B4805F01CFA342796F804A02A4DAF
:1089200007FB0AF7E91991F82D00002845D1637B70
:10893000D6F800B081F83230A37B886045F8078014
:10894000C1F8049081F8300081F82F0081F83330AD
:10895000F3B1E37B2BB9D4E90023CBF80825CBF89E
:108960000C35A368CBF82435342303FB0AF3EB580A
:1089700023B1306840F30730FEF752F8342303FB8D
:108980000A550123114885F82D3003B0BDE8F08F5A
:10899000236801A840F20C670193FFF779FF019B60
:1089A000803340F82370636801A80193FFF770FFDC
:1089B000019B803340F82370CBE70548E5E700BF13
:1089C000846B0100E55B0100240A00200000AD0B70
:1089D0000500AD0B342370B50F4C0679054603FB3B
:1089E000064393F82D30012B0AD00C490C4840F275
:1089F000791205F027F940F27911084805F0A8F935
:108A000006222B68C3F80025342303FB0644022307
:108A100084F82D3070BD00BF240A0020846B010053
:108A2000E55B0100342270B5144C0679054602FB63
:108A3000064292F82D3053B9114912484FF4C272D0
:108A400005F000F94FF4C2710D4805F081F93423A7
:108A5000002103FB06432A680B489960C2F808030B
:108A6000D2F8000220F4BC50C2F80002C2F800158F
:108A7000012283F82F1083F82D2070BD240A0020D6
:108A8000846B0100E55B010002029C013423F7B511
:108A9000234D0679044603FB065393F82D3053B952
:108AA000204921484FF4B07205F0CCF84FF4B07172
:108AB0001C4805F04DF934237343EB5823B120686B
:108AC00040F30730FDF7BCFF2046FFF7ABFF342330
:108AD00003FB065393F83320CAB993F83230B3B985
:108AE000236801A8D3F8083502270193FFF7D0FEC9
:108AF000019B803340F82370236801A8D3F80C351C
:108B00000193FFF7C5FE019B803340F823703423A7
:108B100003FB0655002385F82D3003B0F0BD00BFE0
:108B2000240A0020846B0100E55B01002DE9F04779
:108B3000037904460D4616463BB94B68B3F5005F12
:108B400003D28B68B3F5005F0AD3BA49BA4840F242
:108B5000992205F077F840F29921B64805F0F8F827
:108B6000342794F80490DFF8D48207FB09F758F80B
:108B7000073003BB2B78022B0ED02B78032B1AD196
:108B800040F2A222AB49AC4805F05CF840F2A221C9
:108B9000A84805F0DDF80EE040F2A122A549A6485C
:108BA00005F050F840F2A121A24805F0D1F858F89C
:108BB0000730002BE1D03423002203FB0983246813
:108BC00083F82E206B684BB1EB6803F06043B3F180
:108BD000005F03D09A4F3846BDE8F087342707FB83
:108BE0000987984BC4F8083397F82F3003F0FF0A31
:108BF00023B1BB68944FC4F80433ECE716F0140FAC
:108C00000CBF01230023AE4687F82F3007F10C0C70
:108C1000BEE80F00ACE80F00DEF800303E62CCF892
:108C20000030C6F3001387F830306B78C4F888350D
:108C3000C4F804A1D4F80431C4F824A1D4F8243130
:108C4000C4F860A1D4F86031C4F848A1D4F8483120
:108C500016F0010318BF0123C4F8503516F00203C3
:108C600018BF0123C4F840352B78032B00F2DF80B6
:108C7000DFE803F0AECA9302F3060AD56D496E48E9
:108C800040F2DD1204F0DEFF40F2DD11694805F02C
:108C90005FF837070AD5674967484FF4EF7204F069
:108CA000D1FF4FF4EF71634805F052F870070AD511
:108CB0006049614840F2DF1204F0C4FF40F2DF1166
:108CC0005C4805F045F82B6903F06042B2F1005FA3
:108CD00080D14FF48072E968C4F800226A68C4F851
:108CE0004415C4F848250022C4F85021D4F8501186
:108CF00001212162A160D4F850110029FBD0C4F8F1
:108D00005021D4F85021AA68C4F844353423C4F85B
:108D100048254FF4802203FB09839A6008234B4FB8
:108D2000310707D42A78032A04D00122E2506B6865
:108D300003B96261342303FB09F358F8032008EBFD
:108D40000301002A40F086800121D4F84831D4F88C
:108D50000401002840F09980003B18BF0123D4F89B
:108D60002401002800F09780C4F82421D4F82401BD
:108D7000D4F86051D4F8000215B110F4007F04D18A
:108D800021626161002DE0D00023C00540F18380A5
:108D9000C4F84821D4F84831D7E76B68EA68C4F8CA
:108DA0004425C4F848352B6903F06042B2F1005FF6
:108DB0007FF410AFAA68C4F834354FF48453C4F874
:108DC0003825C4F800323423022203FB098312E061
:108DD0006B68EA6816F0200FC4F84425C4F84835DB
:108DE0004FF034030BD04FF48072C4F800224FF4DC
:108DF000802203FB09839A60012323628EE74FF4EC
:108E00000072C4F80022DFE76B68EA68C4F8342512
:108E1000C4F838354FF48053C4F8003234230222AA
:108E200003FB09839A6001232362002377E7082369
:108E3000074F75E7846B0100E55B0100240A002001
:108E40000A00AD0B02029C010B00AD0B0000AD0B44
:108E50000400AD0B720744BF00238B60730606D479
:108E6000342303FB09839A6842F002029A60342398
:108E700003FB0988D8F8083043F40073C8F80830B9
:108E8000D8F80830C4F80433A5E6C4F80421D4F8AF
:108E90000431012363E7002B3FF457AF3421002056
:108EA00001FB0982D4F8C434C4F8C43482F82F001A
:108EB0008BB10F4A13F0010F0E4F18BF174613F076
:108EC000020F02F1010218BF174613F0040F0A4BFC
:108ED00018BF1F467FE673063FF57DAE204609FBAF
:108EE000018105F0E5F9034B002808BF1F4672E633
:108EF0000000AE0B0100AD0B0200AE0BF0B5614CF3
:108F000087B0236853B9604960484FF4377204F062
:108F100099FE4FF437715C4804F01AFF5C4DD5F8A8
:108F20002431FBB10023C5F82431D5F82431D5F81C
:108F30000431BBB9A368C5F808330223A360A36852
:108F4000C5F80433D5F860311BB1D5F800329E0561
:108F500003D401224E4B1A625A61012384F82E3049
:108F600007B0F0BDD5F80431002B54D00023C5F86C
:108F70000431D5F80431236A5D060AD494F82E3002
:108F80003BB94049424805F093F980F0010084F86C
:108F90002E00236A13F0040722D13E4E01AD0FCEFE
:108FA0000FC5336894F830C02B60394BC3F860713B
:108FB000D3F86021C3F85C71D3F85C21BCF1000FD9
:108FC00002D094F82E205AB10022C3F80022A260E9
:108FD000314AC3F808234FF48062304BC3F8802134
:108FE0002B4AD2F8C4349807C2F8C4343CD50123C4
:108FF0008DF8003094F830300BB984F82F30236AA4
:109000005B0703D594F82E30002BA9D0D4E90031AA
:1090100068469847A4E7C5F84831D5F84831237B1E
:1090200083B91C4F01AE0FCF0FC63B68336094F875
:109030003030002BD4D1C5F80032A360164BC5F8F0
:109040000833C8E74FF40073C5F8003240F202233A
:10905000A36003F1CE73C5F80833A368C5F80433E1
:109060000123AB602B627BE7590701D50223BFE7E1
:10907000DA0701D50323BBE794F82E30002BB7D0D5
:109080000423B5E7240A0020846B0100E55B01009E
:1090900000A00050300A002002029C0100E100E024
:1090A000036810B55A090CBF4FF0FF32002203F0DD
:1090B0001F0322FA03F3DB0704460AD40E490F48C4
:1090C00040F2292204F0BEFD40F229210A4804F0B2
:1090D0003FFE236803F01F025B0922600AD00649A5
:1090E000064840F22E2204F0ADFD40F22E21024847
:1090F00004F02EFE024810BD3D6A0100E55B010050
:1091000000258450F7B50C46064605F001F92046C7
:1091100005F0FEF801A840F20D650196FFF7C0FFCB
:10912000019B0127803340F8235001A80194FFF7E9
:10913000B7FF019B803340F82350042005F0B6F8B8
:10914000092501A80194FFF7ABFF019A0369D340F9
:10915000DB0714D401A80196FFF7A2FF019B013D94
:1091600007FA03F3C360042005F0A0F8304605F0C9
:10917000CFF8042005F09AF815F0FF05E1D101A819
:109180000194FFF78DFF0123019A9340C3600420EF
:1091900005F08CF8204605F0BBF8042005F086F8B1
:1091A00001A80194FFF77CFF019A03690348D340AB
:1091B00003F00103C01A03B0F0BD00BF0100AD0B06
:1091C0000E4B70B553F82040013053F82060A64292
:1091D00000D870BDD4E900352846984765B1EB68E2
:1091E00030B10028B8BF4042FF28A8BFFF20187048
:1091F0005A7842F001025A700834E8E7D859010061
:1092000070B5054610B90024204670BD0378002BC8
:10921000F9D00E4C0E4EB44208D10C4CB442F2D0F0
:10922000204605F082F850B91834F7E7204605F0DB
:109230007CF810B12368AB42E6D01834EBE728463F
:10924000216804F032FE0028EED1DDE778540100F9
:10925000F0540100F7B504460E464FF02003EFF33B
:10926000118783F31288BFF36F8F01F0CFFB0022C9
:10927000042C98BF1D4B054694BF53F824301C4B5B
:109280000092452122461B4804F070FD3EB1F3696F
:10929000C3F308031BB14521174804F067FD35B13E
:1092A000284605F072F8034608B1027802B9134B5C
:1092B0002A464521124804F059FD31462046FFF761
:1092C000ABF8042C08D10F490F488F2204F0BAFCE8
:1092D0008F210C4804F03CFD87F31188BFF36F8F9A
:1092E000284603B0BDE8F040FDF7EABFF0590100A1
:1092F000C06B0100D66B0100036C0100CE6B010056
:10930000296C0100466C0100E55B0100012208B5F3
:10931000094B02201A70FFF753FF01F0AFFE032044
:10932000FFF74EFF00F0F4F904F083FC034A137BCF
:1093300023F00103137308BD89140020F0010020FD
:1093400008B50348034A0021121A04F0F8FF08BDCB
:1093500070010020481600200023012270B586B05D
:10936000CDE904230F220193CDE9023218234FF4F3
:10937000A0720E4D0E4E03FB00550E4906EBC016B3
:10938000044602FB00110C4B3046009500F06CF9CE
:10939000737B0A482C75013423F0040300EBC424CA
:1093A0007373EE606C6006B070BD00BF580A002099
:1093B0007001002048260020510801008827002065
:1093C00080B5334BA6B003F5006282F3088883F3BF
:1093D0000A880024E0232F4D2F4E85F82230EC77A9
:1093E0002C766C76AC7685F82040EC766B6A2B4F49
:1093F00043F4E0236B626B6A43F400236B62AC635B
:10940000EB689BB243F0BF6343F40833EB60FDF7B6
:10941000BDFEFDF7C3FA4FF0FF33AB62EB62FEF720
:109420009BF9FDF7DBFF40F20113ADF8243006ABEA
:10943000B360CDE91F44229404F076FF2046FFF785
:10944000BFFE0120164DFFF7BBFE01F095F9154B4D
:10945000F5610593012314494FF48052CDE903438C
:1094600028463B46CDE90144009400F0FDF806464D
:109470006A7B284622F004026A7300F07FFE2046D1
:10948000FFF76AFF3A4631462846FDF7B3FB00BFB7
:109490008827002000ED00E0580A00200D0301009D
:1094A000F0010020B26C010048160020F8B5144C01
:1094B000144D154EAC4208D9314614483D2204F0F3
:1094C000C1FB3D21304604F043FCAC4201D30020F7
:1094D000F8BDD4E9041242EA010313F003030BD1EF
:1094E000E068A361834201D12034E3E7A769013337
:1094F0001760A2610A44F5E76FF01500E8E700BFC6
:109500001C0100201C010020BA6C0100E55B010079
:109510002DE9F74304460D4690461F4600F1080624
:109520004FF02003EFF3118983F31288BFF36F8F9D
:10953000304600F069F940B91F4920488E2204F0F6
:1095400081FB8E211C4804F003FC304600F078F9C2
:10955000A369C3B12B601B68A361E3690133E361B5
:109560000024304600F05EF940B913491348B9228F
:1095700004F068FBB921104804F0EAFB89F3118874
:10958000BFF36F8F13E058EA070203D16FF00B04AB
:109590002B60E6E7224649463046CDE9008700F0D9
:1095A00051FF044618B9064B9B685B692B60204647
:1095B00003B0BDE8F08300BFBF5B0100E55B0100C5
:1095C000580A00202DE9F04104460D4600F1080636
:1095D0004FF02003EFF3118783F31288BFF36F8FEF
:1095E000304600F011F940B91D491E488E2204F0A2
:1095F00029FB8E211A4804F0ABFB304600F020F91D
:10960000D4F81880B8F1000F0FD1204601F076F899
:1096100058B12A68C0F87880426100F0AFFD394641
:109620003046BDE8F04100F0B5BB2B68A26930467A
:109630001A602B68A361E369013BE36100F0F2F873
:1096400040B907490748B92204F0FCFAB921044897
:1096500004F07EFB87F31188BFF36F8FBDE8F081C4
:10966000BF5B0100E55B01002DE9F04385B0DDF84B
:109670003C900446B9F10F0F0F46154698462ED17F
:109680001F4B98452FD104F15803C4E91633109BA2
:1096900000262373042363730E9BE81D02930D9B26
:1096A00020F0070001930C9B3D18C4E9197000934A
:1096B0002A46434639462046C4E90666A66084F831
:1096C0000E90E673E666FDF779FA0E4B66659B68C9
:1096D00003B11B6F2846236705B0BDE8F08309F18D
:1096E00010031E2BCFD940F2FF120749074804F0A0
:1096F000A9FA40F2FF11044804F02AFBC3E700BFB7
:1097000051080100580A0020DF6C0100E55B0100F0
:109710002DE9F043374C384D384F87B0AC422646E0
:109720000AD93946364840F2D52204F08BFA40F285
:10973000D521384604F00CFBAE4204F130041BD3B3
:1097400000F05EFB2B4C2D4EDFF8B480DFF8B490B8
:10975000AC420AD9314640464FF43D7204F072FAE9
:109760004FF43D71304604F0F3FAAC4220D307B019
:10977000BDE8F04300F066BF54F8043C54E90C0126
:10978000059354F8103C049354F8143C039354F894
:10979000183C029354F81C3C019354F8203C00936D
:1097A00054E90A23FFF760FF54F8303C5E65B5E7E3
:1097B000636A5A1C0FD04FF4004240F2E730002198
:1097C00023EAE373C3FB020151EAC333276804D1E0
:1097D000384600F009FD3034BAE74FF47A720023BE
:1097E000FBF72CFE02460B4607F11800494601F034
:1097F0000BFAF0E71C0100201C010020DF6C0100C7
:10980000E55B01006D120100006838B1044B00F007
:1098100003001B7DC01A18BF01207047012070474C
:10982000580A0020054903468A68087D19680243E2
:109830000020914204BF186001207047580A0020A0
:10984000024A117D93680B4303607047580A002059
:10985000124C08B5A36893F90E30002B08DA1049B2
:109860001048272204F0EEF927210D4804F070FA81
:109870000D4D4FF02002EFF3118382F31288BFF3F6
:109880006F8F01F0ABFA2B78A06113B9FDF78CF85C
:10989000EFE7FCF73FFC0028EBD1F7E7580A002080
:1098A000026D0100E55B0100891400202DE9F34100
:1098B000044617461E46EFF3058343B15F496048EF
:1098C000652204F0BFF965215C4804F041FA4FF0CD
:1098D0002003EFF3118883F31288BFF36F8F594889
:1098E000FFF792FF40B9584955488E2204F0AAF973
:1098F0008E21554804F02CFA5248FFF7A1FFE36887
:10990000524AD3B1A0689168884233D057EA06031F
:1099100032D14C48FFF786FF40B94B494848B9223D
:1099200004F090F9B921484804F012FA88F311883C
:10993000BFF36F8F6FF00F0019E0916891F90E106F
:109940000133E36093683F482161A360FFF76AFF3A
:1099500040B93D493A48B92204F074F9B9213A486E
:1099600004F0F6F988F31188BFF36F8F002002B07E
:10997000BDE8F0812169E3E791F90E1090F90E300E
:109980006FF07E029942A8BF19469142B8BF1146B6
:109990008B423EDD04F002FD054622464146CDE9FC
:1099A0000076284800F04EFD0028E0D04FF020035C
:1099B000EFF3118683F31288BFF36F8F2148FFF70F
:1099C00023FF40B920491E488E2204F03BF98E2126
:1099D0001D4804F0BDF91B48FFF732FF23682169D9
:1099E0009C420AD04BB193F90E309942A8BF194658
:1099F0006FF07E039942B8BF1946A06804F0CEFC10
:109A000000B945B131460F4800F0C4F96FF00A00C3
:109A1000ADE70025C1E70B48FFF704FF40B90A494D
:109A20000748B92204F00EF9B921074804F090F96B
:109A300086F31188BFF36F8FE8E700BF236D010045
:109A4000E55B0100800A0020BF5B0100580A00208E
:109A500038B50446EFF3058343B143494348C72271
:109A600004F0F0F8C721404804F072F9A368002B15
:109A700074D03F4DAA68934273D1E36843B93A4921
:109A80003A48DF2204F0DEF8DF21374804F060F9BD
:109A9000EFF3058343B137493448FD2204F0D2F88F
:109AA000FD21344804F054F9AB68DB7B012B08D16D
:109AB00030492E48FE2204F0C5F8FE212D4804F05E
:109AC00047F9AA68D37B013BD373E368012B05D91F
:109AD000013BE36000F0B6FD002038BD4FF02003ED
:109AE000EFF3118583F31288BFF36F8F2248FFF7DE
:109AF0008BFE40B921491D488E2204F0A3F88E2127
:109B00001E4804F025F91C48FFF79AFE2169A06859
:109B100004F044FC204600F0F1FDA06058B190F93B
:109B20000E2022610022826700F028FB294612489D
:109B300000F030F9CEE7E0600F48FFF773FE40B960
:109B40000E490A48B92204F07DF8B9210B4804F007
:109B5000FFF885F31188BFF36F8FBBE76FF0150037
:109B6000BBE74FF0FF30B8E7236D0100E55B010074
:109B7000580A0020456D0100800A0020BF5B0100EB
:109B800038B504464FF02003EFF3118583F31288B4
:109B9000BFF36F8F1248FFF737FE40B911491248E3
:109BA0008E2204F04FF88E210E4804F0D1F80C48B4
:109BB000FFF746FE204600F0A1FD48B10022826773
:109BC00000F0DCFA2946BDE83840054800F0E2B86C
:109BD000D4E902329A4218BF0133A360F2E700BF12
:109BE000840A0020BF5B0100E55B0100F7B5044675
:109BF00016461D46EFF305835BB152EA050308D014
:109C00002B492C48792204F01DF87921284804F0CA
:109C10009FF84FF02003EFF3118783F31288BFF30F
:109C20006F8F2548FFF7F0FD40B9244921488E2267
:109C300004F008F88E21214804F08AF81E48FFF746
:109C4000FFFDA368ABB1013B1B48A360FFF7EAFD32
:109C500040B91A491748B92203F0F4FFB92117484F
:109C600004F076F887F31188BFF36F8F002003B0FC
:109C7000F0BD56EA050313D10F48FFF7D3FD40B9F5
:109C80000E490C48B92203F0DDFFB9210B4804F05E
:109C90005FF887F31188BFF36F8F6FF00F00E6E76F
:109CA00022463946CDE90065034800F0CBFBDEE7EC
:109CB000706D0100E55B0100840A0020BF5B0100BC
:109CC00010B5084C23685BB1FEF75AFB03462068C9
:109CD000054A03440021BDE81040136101F0B4B807
:109CE00010BD00BF940A0020580A0020F8B50446B1
:109CF0000D464FF02003EFF3118683F31288BFF374
:109D00006F8F1E48FFF780FD40B91D491D488E2208
:109D100003F098FF8E211A4804F01AF81748FFF74D
:109D20008FFD4FF40047002140F2E730164B4FF40F
:109D30007A7219610023E4FB0701FBF77FFB002C1B
:109D4000124B16DC1860124B1D60FFF7B9FF0B4871
:109D5000FFF768FD40B90A490A48B92203F072FFCB
:109D6000B921074803F0F4FF86F31188BFF36F8F22
:109D7000F8BD0228B8BF0220E4E700BF8C0A00202B
:109D8000BF5B0100E55B0100580A0020940A002037
:109D9000900A002010B503460C46C1B9EFF30582C6
:109DA000AAB9144AD1699268914210D0FFF73AFDDE
:109DB00040B911491148D02203F044FFD0210E4888
:109DC00003F0C6FFBDE810400020FCF7A1BE184616
:109DD000FFF728FD40B908490848B92203F032FFCF
:109DE000B921054803F0B4FF84F31188BFF36F8FE6
:109DF00010BD00BF580A0020BF5B0100E55B0100F9
:109E000038B54FF02003EFF3118583F31288BFF3C9
:109E10006F8F2048FFF7F8FC40B91F491F488E227A
:109E200003F010FF8E211C4803F092FF1948FFF742
:109E300007FDEFF3058343B119491848FD2203F0EC
:109E400001FFFD21164803F083FF164CA368DB7B5E
:109E5000012B08D112491148FE2203F0F3FEFE2126
:109E60000F4803F075FFA268D37B013BD373094809
:109E7000FFF7D8FC40B908490848B92203F0E2FED0
:109E8000B921054803F064FF85F31188BFF36F8F94
:109E900038BD00BF8C0A0020BF5B0100E55B0100FC
:109EA000456D0100580A00200B4B10B599420C4635
:109EB0000AD10A490A4840F2E73203F0C3FE40F2F1
:109EC000E731064803F044FFD4E9003213605A60DA
:109ED0000023C4E9003310BD70010020906D010023
:109EE000E55B0100836810B5044653B90A490B4885
:109EF00040F2832203F0A6FE40F28321064803F0DD
:109F000027FF2146A068FFF7CFFF637B23F0020302
:109F100063730023A36010BD906D0100E55B010039
:109F200038B50246124804F05EFA124D044600B9F4
:109F3000EC68AAB9AB6843B90F491048892203F00D
:109F400081FE89210C4803F003FFAB685A7BD206DF
:109F500006D1A26922B9DA897F2A01D9EB6138BD1D
:109F6000AB68A34201D0FFF7ABFEEC61F7E700BF9F
:109F7000780A0020580A0020906D0100E55B01007E
:109F800070B590F90D200446002A437B06DA03F0F1
:109F90007F03014643731D48FFF786FF637B63F031
:109FA0007F0363731A4B9C4208D11A491A48BA229C
:109FB00003F048FEBA21174803F0CAFE174A02F11F
:109FC0002005D2E90830AB421BD0D3B194F90E6022
:109FD00093F90E108E420FD0891B00290CDD5968B1
:109FE000C4E900310C605C609068031B5842584122
:109FF000BDE87040FFF794BF834202D01B68002B7E
:10A00000E6D1C4E9005004605462EDE7780A00200C
:10A0100070010020906D0100E55B0100580A0020EE
:10A0200038B504464FF02003EFF3118583F312880F
:10A03000BFF36F8F2448FFF7E7FB40B9234924485B
:10A040008E2203F0FFFD8E21204803F081FE1E4882
:10A05000FFF7F6FB1F4B204A98681168884213D11E
:10A06000FFF72EFE1848FFF7DDFB40B917491848E7
:10A07000B92203F0E7FDB921144803F069FE85F326
:10A080001188BFF36F8F38BD00211160134A126829
:10A09000BAB1C2897F2A14D8427BD20611D1104AA4
:10A0A00090F90E10126891420BDB0E4A904208D0D4
:10A0B0001A69A24202DCFFF763FFD1E7121B1A61A3
:10A0C000D0E70022FBE700BF8C0A0020BF5B010045
:10A0D000E55B0100580A0020880A0020940A00204D
:10A0E000900A00207001002070B590F90D20044600
:10A0F000002A437B38DBDA0636D18269002A33D165
:10A1000063F07F034373194B984208D118491948EB
:10A11000BA2203F097FDBA21154803F019FE164A3A
:10A1200002F12005D2E90830AB4218D0BBB194F956
:10A130000E6093F90E108E420CD0891B002909DDA8
:10A140005A68C4E9003214605C600020BDE87040C9
:10A15000FFF7E6BE984202D01B68002BE9D1C4E9A4
:10A16000005004605462F0E770BD00BF7001002031
:10A17000906D0100E55B0100580A002038B50446E7
:10A180004FF02003EFF3118583F31288BFF36F8F35
:10A190001248FFF739FB40B9114912488E2203F0EB
:10A1A00051FD8E210E4803F0D3FD0C48FFF748FB0C
:10A1B0002046FFF799FF0948FFF734FB40B90849EB
:10A1C0000848B92203F03EFDB921054803F0C0FD5F
:10A1D00085F31188BFF36F8F38BD00BF8C0A002054
:10A1E000BF5B0100E55B010038B504464FF020037A
:10A1F000EFF3118583F31288BFF36F8F1848FFF7D1
:10A2000003FB40B9174918488E2203F01BFD8E212D
:10A21000144803F09DFD1248FFF712FB637B5A07B9
:10A2200011D40F48FFF7FEFA40B90E490E48B92283
:10A2300003F008FDB9210B4803F08AFD85F311886E
:10A24000BFF36F8F38BD23F0040320466373FFF71D
:10A250004BFF2946BDE838400148FFF79BBD00BFD2
:10A260008C0A0020BF5B0100E55B010070B504466D
:10A270004FF02003EFF3118683F31288BFF36F8F43
:10A280001B48FFF7C1FA40B91A491B488E2203F058
:10A29000D9FC8E21174803F05BFD1548FFF7D0FA73
:10A2A00014F80B3C13F0280F10D154F8103CA4F113
:10A2B000180513B12846FFF715FE14F80B3C284685
:10A2C00023F0140304F80B3CFFF70EFF0848FFF7D8
:10A2D000A9FA40B907490848B92203F0B3FCB921EB
:10A2E000044803F035FD86F31188BFF36F8F70BD0E
:10A2F0008C0A0020BF5B0100E55B010010B590F9FE
:10A300000D200446002A437B06DA03F07F03014652
:10A3100043730648FFF7C8FD054B9868031B584276
:10A320005841BDE81040FFF7FBBD00BF780A002090
:10A33000580A002038B504460D46FFF7DFFF637B5F
:10A3400043F002036373F5B1154BA5609C4208D13D
:10A3500014491548BA2203F075FCBA21114803F0DC
:10A36000F7FC2B689D4215D0A3B194F90E1093F918
:10A370000E20914208D0521A002A05DD5A68C4E91D
:10A38000003214605C6038BD6A68934202D01B687A
:10A39000002BECD16B68C4E900531C606C60F2E7E1
:10A3A00070010020906D0100E55B01002DE9F04196
:10A3B0000446884616461D464FF02003EFF31187EA
:10A3C00083F31288BFF36F8F1A48FFF71DFA40B965
:10A3D00019491A488E2203F035FC8E21164803F0E5
:10A3E000B7FC1448FFF72CFA20464146FFF7A2FFBE
:10A3F0001048FFF717FA40B90F491048B92203F087
:10A4000021FCB9210C4803F0A3FC87F31188BFF3AA
:10A410006F8FB5F1FF3F08BFB6F1FF3F08D032465E
:10A420002B4604F118000649BDE8F04100F0ECBBF2
:10A43000BDE8F0818C0A0020BF5B0100E55B0100F4
:10A440006D12010038B505460D4B0C4698680D4B52
:10A4500011461860DDE90423FFF7A8FF2846FFF73F
:10A46000E1F940B908490948D02203F0EBFBD021BB
:10A47000054803F06DFC2046BDE83840FCF748BBBA
:10A48000580A0020880A0020BF5B0100E55B01003C
:10A49000F8B504460D464FF02003EFF3118683F321
:10A4A0001288BFF36F8F3448FFF7AEF940B93349D4
:10A4B00033488E2203F0C6FB8E21304803F048FC5F
:10A4C0002D48FFF7BDF9637B6DB2DA0651D1A26961
:10A4D000002A4ED103F07F03637321462948FFF71A
:10A4E000E3FC637BA57363F07F036373264B9C429D
:10A4F00008D126492248BA2203F0A4FBBA212348F6
:10A5000003F026FC224A02F12005D2E90830AB42D2
:10A510002AD04BB394F90E7093F90E108F421ED0CF
:10A52000C91B00291BDD5A68C4E9003214605C6055
:10A530000120FFF7F5FC01240F48FFF773F940B93C
:10A540000E490F48B92203F07DFBB9210B4803F0F7
:10A55000FFFB86F31188BFF36F8F2046F8BD83425F
:10A5600002D01B68002BD7D1C4E9005004605462AC
:10A57000DEE7A5730024DFE78C0A0020BF5B010043
:10A58000E55B0100780A002070010020906D010059
:10A59000580A002070B50446183000F0E3FB4FF075
:10A5A0002003EFF3118683F31288BFF36F8F2048E7
:10A5B000FFF72AF940B91F491F488E2203F042FBDA
:10A5C0008E211C4803F0C4FB1948FFF739F994F9B0
:10A5D0000D20637B002A06DA03F07F03214617482B
:10A5E0006373FFF761FC164D637BA86843F01003AB
:10A5F0006373031B58425841FFF792FC0C48FFF766
:10A6000011F940B90B490C48B92203F01BFBB921E1
:10A61000084803F09DFB86F31188BFF36F8FAB688A
:10A62000A34203D1BDE8704003F0D3BE70BD00BFAC
:10A630008C0A0020BF5B0100E55B0100780A002066
:10A64000580A002038B54FF02003EFF3118583F34B
:10A650001288BFF36F8F2448FFF7D6F840B923491B
:10A6600023488E2203F0EEFA8E21204803F070FB7F
:10A67000204C1D48FFF7E4F8A368DB7B53B91E4963
:10A680001B4840F2853203F0DDFA40F285311A486A
:10A6900003F05EFBEFF3058353B11749144840F212
:10A6A000863203F0CFFA40F28631134803F050FBB4
:10A6B000A2680020D37B0133D373FFF731FC0A4833
:10A6C000FFF7B0F840B909490948B92203F0BAFACE
:10A6D000B921064803F03CFB85F31188BFF36F8F67
:10A6E000BDE8384003F075BE8C0A0020BF5B010056
:10A6F000E55B0100580A0020906D010038B5044662
:10A700004FF02003EFF3118583F31288BFF36F8FAF
:10A710001648FFF779F840B9154916488E2203F01C
:10A7200091FA8E21124803F013FB1048FFF788F8C6
:10A73000204603F058FE044628B1FFF7D3FB04F18E
:10A74000180000F00FFB0948FFF76CF840B9084902
:10A750000848B92203F076FAB921054803F0F8FA5F
:10A7600085F31188BFF36F8F204638BD8C0A002017
:10A77000BF5B0100E55B01000021044B084603F1CB
:10A780002002C3E90822FFF7B1BA00BF580A00202F
:10A79000F8B5EFF3058353B13849394840F2DC424C
:10A7A00003F050FA40F2DC41344803F0D1FA4FF0A4
:10A7B0002003EFF3118683F31288BFF36F8F3148C4
:10A7C000FFF722F840B930492D488E2203F03AFABB
:10A7D0008E212D4803F0BCFA2C4D2A48FFF730F8A3
:10A7E000A96805F120004B7B03F07F034B73FFF753
:10A7F0005BFBAC68637B63F07F036373244B9C4219
:10A8000008D11E491E48BA2203F01CFABA211B487F
:10A8100003F09EFAD5E908311E48834228D03BB3A5
:10A8200094F90E7093F90E2097421CD0D21B002A87
:10A8300019DD5A68C4E9003214605C600120FFF73A
:10A840006FFB1048FEF7EEFF40B90F490C48D022CD
:10A8500003F0F8F9D0210C4803F07AFA3046BDE84D
:10A86000F840FCF755B98B4202D01B68002BD9D1B8
:10A87000C4E900010C606C62E0E700BF906D01006C
:10A88000E55B01008C0A0020BF5B0100580A002034
:10A8900070010020780A00202DE9F04105460E469F
:10A8A000EFF3058353B13A493A484FF49F6203F0FE
:10A8B000C9F94FF49F61364803F04AFA55EA060396
:10A8C00003D1FFF765FF00205FE06FF001044FF058
:10A8D000FF33641B63EB0603012C73F1000302DA00
:10A8E00003F087FD44194FF02003EFF3118883F341
:10A8F0001288BFF36F8F2848FEF786FF40B92749BB
:10A9000024488E2203F09EF98E21244803F020FA79
:10A91000234F2148FEF794FFB868224B1860FFF7D9
:10A92000EDFCB8682A46334618301F4900F06CF930
:10A93000BA681948537B43F010035373FEF772FF54
:10A9400040B916491348D02203F07CF9D0211348AE
:10A9500003F0FEF94046FCF7DBF8BB685B7BDB06E7
:10A960000AD50B490B4840F2195203F06BF940F23B
:10A970001951074803F0ECF903F03BFD201A63EB93
:10A980000303012873F100039DDBBDE8F08100BFE4
:10A99000906D0100E55B01008C0A0020BF5B0100A7
:10A9A000580A0020880A00206D12010038B50546BB
:10A9B0000C46EFF3058353B1114912484FF4A562D9
:10A9C00003F040F94FF4A5610D4803F0C1F9B4F16B
:10A9D000FF3F08BFB5F1FF3F06D10B4B9868FFF76B
:10A9E000D9FD4FF0FF3038BD28462146FFF754FF10
:10A9F0004FF47A7380FB0303C00B40EA4340F2E755
:10AA0000906D0100E55B0100580A0020014B986839
:10AA1000704700BF580A00202DE9F04104464FF06E
:10AA20002003EFF3118683F31288BFF36F8F3E4844
:10AA3000FEF7EAFE40B93D493D488E2203F002F997
:10AA40008E213A4803F084F93748FEF7F9FE637B1C
:10AA50001A0712D53448FEF7E5FE40B933493448A9
:10AA6000B92203F0EFF8B921304803F071F986F309
:10AA70001188BFF36F8FBDE8F08123F0200242F010
:10AA80000801D20938D16173A36813B12046FFF7DA
:10AA900029FA04F1180000F065F94FF0000804F1FC
:10AAA0005807A56DBD4200D085BB0120FFF738FADD
:10AAB000204B9B68A342CDD1EFF30583002BC9D176
:10AAC0001948FEF7AFFE40B918491948D02203F0E3
:10AAD000B9F8D021154803F03BF93046FCF718F8D7
