:10C20000009501201564020011420400E963020058
:10C21000E9630200E9630200E96302000000000034
:10C22000000000000000000000000000A15B020010
:10C23000E963020000000000115B0200E9630200F4
:10C24000155D0200896F0400155D0200155D020096
:10C25000155D0200155D0200155D0200155D02000E
:10C26000516F0400155D0200155D02006F6F040040
:10C27000155D0200155D0200155D0200155D0200EE
:10C28000155D0200155D0200155D0200155D0200DE
:10C29000155D0200155D0200155D0200155D0200CE
:10C2A000155D0200155D0200155D0200155D0200BE
:10C2B000155D0200155D0200155D0200155D0200AE
:10C2C000155D0200155D0200155D0200155D02009E
:10C2D000155D0200155D0200155D0200155D02008E
:10C2E000155D0200155D0200155D0200155D02007E
:10C2F000155D0200155D0200155D0200155D02006E
:10C3000001F0FF01102A2BDB10F0070F08D010F806
:10C31000013B013A8B422DD010F0070F42B3F6D10A
:10C32000F0B441EA012141EA014122F007047FF023
:10C3300000070023F0E80256083C85EA010586EA7A
:10C34000010685FA47F5A3FA87F586FA47F6A5FAB6
:10C3500087F68EB9EED1F0BC01F0FF0102F00702C2
:10C3600032B110F8013B013A83EA010313B1F8D16D
:10C370000020704701387047002D06BF354603384E
:10C38000073815F0010F07D1013015F4807F02BF87
:10C39000013015F4C03F0130F0BC0138704700BFD8
:10C3A00081F0004102E000BF83F0004330B54FEA66
:10C3B00041044FEA430594EA050F08BF90EA020FD3
:10C3C0001FBF54EA000C55EA020C7FEA645C7FEA66
:10C3D000655C00F0E2804FEA5454D4EB5555B8BF89
:10C3E0006D420CDD2C4480EA020281EA030382EAFA
:10C3F000000083EA010180EA020281EA0303362D8C
:10C4000088BF30BD11F0004F4FEA01314FF4801C5E
:10C410004CEA113102D0404261EB410113F0004F70
:10C420004FEA03334CEA133302D0524263EB430327
:10C4300094EA050F00F0A780A4F10104D5F1200EC5
:10C440000DDB02FA0EFC22FA05F2801841F1000120
:10C4500003FA0EF2801843FA05F359410EE0A5F1F4
:10C4600020050EF1200E012A03FA0EFC28BF4CF025
:10C47000020C43FA05F3C01851EBE37101F00045DB
:10C4800007D54FF0000EDCF1000C7EEB00006EEBE8
:10C490000101B1F5801F1BD3B1F5001F0CD3490872
:10C4A0005FEA30004FEA3C0C04F101044FEA4452C9
:10C4B00012F5800F80F09A80BCF1004F08BF5FEA50
:10C4C000500C50F1000041EB045141EA050130BD30
:10C4D0005FEA4C0C404141EB0101013C28BFB1F542
:10C4E000801FE9D291F0000F04BF01460020B1FA8D
:10C4F00081F308BF2033A3F10B03B3F120020CDA60
:10C500000C3208DD02F1140CC2F10C0201FA0CF03D
:10C5100021FA02F10CE002F11402D8BFC2F1200CA2
:10C5200001FA02F120FA0CFCDCBF41EA0C01904058
:10C53000E41AA2BF01EB0451294330BD6FEA0404A1
:10C540001F3C1CDA0C340EDC04F11404C4F120028C
:10C5500020FA04F001FA02F340EA030021FA04F39E
:10C5600045EA030130BDC4F10C04C4F1200220FAF5
:10C5700002F001FA04F340EA0300294630BD21FA33
:10C5800004F0294630BD94F0000F83F4801306BFF9
:10C5900081F480110134013D4EE77FEA645C18BFED
:10C5A0007FEA655C29D094EA050F08BF90EA020F84
:10C5B00005D054EA000C04BF1946104630BD91EA7C
:10C5C000030F1EBF0021002030BD5FEA545C05D17F
:10C5D0004000494128BF41F0004130BD14F58004BE
:10C5E0003CBF01F5801130BD01F0004545F0FE4132
:10C5F00041F470014FF0000030BD7FEA645C1ABF67
:10C60000194610467FEA655C1CBF0B46024650EA9D
:10C61000013406BF52EA033591EA030F41F40021C9
:10C6200030BD00BF90F0000F04BF0021704730B54F
:10C630004FF4806404F132044FF000054FF0000124
:10C6400050E700BF90F0000F04BF0021704730B5E5
:10C650004FF4806404F1320410F0004548BF4042BA
:10C660004FF000013EE700BF42004FEAE2014FEA0F
:10C6700031014FEA02701FBF12F07F4393F07F4FEA
:10C6800081F06051704732F07F4208BF704793F0ED
:10C690007F4F04BF41F40021704730B54FF4607400
:10C6A00001F0004521F000411CE700BF50EA010203
:10C6B00008BF704730B54FF000050AE050EA0102AC
:10C6C00008BF704730B511F0004502D5404261EB1C
:10C6D00041014FF4806404F132045FEA915C3FF45D
:10C6E000D8AE4FF003025FEADC0C18BF03325FEAFA
:10C6F000DC0C18BF033202EBDC02C2F1200300FAAB
:10C7000003FC20FA02F001FA03FE40EA0E0021FACF
:10C7100002F11444BDE600BF70B54FF0FF0C4CF4BD
:10C72000E06C1CEA11541DBF1CEA135594EA0C0F6F
:10C7300095EA0C0F00F0DEF82C4481EA030621EAAA
:10C740004C5123EA4C5350EA013518BF52EA0335E5
:10C7500041F4801143F4801338D0A0FB02CE4FF097
:10C760000005E1FB02E506F00042E0FB03E54FF0C7
:10C770000006E1FB03569CF0000F18BF4EF0010EBF
:10C78000A4F1FF04B6F5007F64F5407404D25FEABB
:10C790004E0E6D4146EB060642EAC62141EA55516E
:10C7A0004FEAC52040EA5E504FEACE2EB4F1FD0CB0
:10C7B00088BFBCF5E06F1ED8BEF1004F08BF5FEA2E
:10C7C000500E50F1000041EB045170BD06F00046E0
:10C7D00046EA010140EA020081EA0301B4EB5C048D
:10C7E000C2BFD4EB0C0541EA045170BD41F4801185
:10C7F0004FF0000E013C00F3AB8014F1360FDEBFAA
:10C80000002001F0004170BDC4F10004203C35DA85
:10C810000C341BDC04F11404C4F1200500FA05F308
:10C8200020FA04F001FA05F240EA020001F00042A9
:10C8300021F0004110EBD37021FA04F642EB06011F
:10C840005EEA430E08BF20EAD37070BDC4F10C0449
:10C85000C4F1200500FA04F320FA05F001FA04F20D
:10C8600040EA020001F0004110EBD37041F10001F9
:10C870005EEA430E08BF20EAD37070BDC4F1200504
:10C8800000FA05F24EEA020E20FA04F301FA05F26C
:10C8900043EA020321FA04F001F0004121FA04F214
:10C8A00020EA020000EBD3705EEA430E08BF20EAE4
:10C8B000D37070BD94F0000F0FD101F0004640001E
:10C8C00041EB010111F4801F08BF013CF7D041EAA0
:10C8D000060195F0000F18BF704703F000465200A4
:10C8E00043EB030313F4801F08BF013DF7D043EA75
:10C8F0000603704794EA0C0F0CEA135518BF95EA2B
:10C900000C0F0CD050EA410618BF52EA4306D1D1B1
:10C9100081EA030101F000414FF0000070BD50EAD0
:10C92000410606BF1046194652EA430619D094EA5A
:10C930000C0F02D150EA013613D195EA0C0F05D144
:10C9400052EA03361CBF104619460AD181EA030198
:10C9500001F0004141F0FE4141F470014FF0000050
:10C9600070BD41F0FE4141F4780170BD70B54FF0EB
:10C97000FF0C4CF4E06C1CEA11541DBF1CEA13556B
:10C9800094EA0C0F95EA0C0F00F0A7F8A4EB05044D
:10C9900081EA030E52EA03354FEA013100F0888044
:10C9A0004FEA03334FF0805545EA131343EA12630D
:10C9B0004FEA022245EA111545EA10654FEA0026C2
:10C9C0000EF000419D4208BF964244F1FD0404F57B
:10C9D000407402D25B084FEA3202B61A65EB0305D7
:10C9E0005B084FEA32024FF480104FF4002CB6EB94
:10C9F000020E75EB030E22BFB61A754640EA0C0014
:10CA00005B084FEA3202B6EB020E75EB030E22BF53
:10CA1000B61A754640EA5C005B084FEA3202B6EB94
:10CA2000020E75EB030E22BFB61A754640EA9C0053
:10CA30005B084FEA3202B6EB020E75EB030E22BF23
:10CA4000B61A754640EADC0055EA060E18D04FEAE1
:10CA5000051545EA16754FEA06164FEAC30343EA81
:10CA600052734FEAC2025FEA1C1CC0D111F4801F4E
:10CA70000BD141EA00014FF000004FF0004CB6E747
:10CA800011F4801F04BF01430020B4F1FD0C88BFE6
:10CA9000BCF5E06F3FF6AFAEB5EB030C04BFB6EBF1
:10CAA000020C5FEA500C50F1000041EB045170BDE4
:10CAB0000EF0004E4EEA113114EB5C04C2BFD4EB11
:10CAC0000C0541EA045170BD41F480114FF0000E95
:10CAD000013C90E645EA060E8DE60CEA135594EA11
:10CAE0000C0F08BF95EA0C0F3FF43BAF94EA0C0F14
:10CAF0000AD150EA01347FF434AF95EA0C0F7FF489
:10CB000025AF104619462CE795EA0C0F06D152EADC
:10CB100003353FF4FDAE1046194622E750EA4106C0
:10CB200018BF52EA43067FF4C5AE50EA41047FF4D1
:10CB30000DAF52EA43057FF4EBAE12E74FF0FF3C36
:10CB400006E000BF4FF0010C02E000BF4FF0010C07
:10CB50004DF804CD4FEA410C7FEA6C5C4FEA430C80
:10CB600018BF7FEA6C5C1BD001B050EA410C0CBFCF
:10CB700052EA430C91EA030F02BF90EA020F002031
:10CB8000704710F1000F91EA030F58BF994208BF98
:10CB900090422CBFD8176FEAE37040F00100704755
:10CBA0004FEA410C7FEA6C5C02D150EA013C07D1AC
:10CBB0004FEA430C7FEA6C5CD6D152EA033CD3D0F7
:10CBC0005DF8040B704700BF8446104662468C46F1
:10CBD0001946634600E000BF01B5FFF7B7FF002824
:10CBE00048BF10F1000F01BD4DF808EDFFF7F4FF4D
:10CBF0000CBF012000205DF808FB00BF4DF808EDD8
:10CC0000FFF7EAFF34BF012000205DF808FB00BFFA
:10CC10004DF808EDFFF7E0FF94BF012000205DF81C
:10CC200008FB00BF4DF808EDFFF7CEFF94BF0120D1
:10CC300000205DF808FB00BF4DF808EDFFF7C4FFCA
:10CC400034BF012000205DF808FB00BF4FEA41021D
:10CC5000B2F1E04324BFB3F5001CDCF1FE5C0DD95A
:10CC600001F0004C4FEAC0024CEA5070B2F1004FA4
:10CC700040EB830008BF20F00100704711F0804FA7
:10CC800021D113F13872BCBF01F00040704741F46C
:10CC900080114FEA5252C2F11802C2F1200C10FA70
:10CCA0000CF320FA02F018BF40F001004FEAC12354
:10CCB0004FEAD32303FA0CFC40EA0C0023FA02F3F8
:10CCC0004FEA4303CCE77FEA625307D150EA0133CE
:10CCD0001EBF4FF0FE4040F44000704701F000409E
:10CCE00040F0FE4040F40000704700BF7BB972B9CD
:10CCF0000029BEBF00204FF0004106E008BF002819
:10CD00001CBF6FF000414FF0FF3000F075B8ADF17F
:10CD1000080C6DE904CE002909DB002B1ADB0BF0AF
:10CD200018FEDDF804E0DDE9022304B0704740425C
:10CD300061EB4101002B1BDB0BF00BFEDDF804E087
:10CD4000DDE9022304B0404261EB4101524263EB52
:10CD500043037047524263EB43030BF0FAFDDDF8E7
:10CD600004E0DDE9022304B0404261EB4101704779
:10CD7000524263EB43030BF0ECFDDDF804E0DDE928
:10CD8000022304B0524263EB4303704753B94AB9DC
:10CD9000002908BF00281CBF4FF0FF314FF0FF30C3
:10CDA00000F02AB8ADF1080C6DE904CE0BF0D1FD0E
:10CDB000DDF804E0DDE9022304B07047D0B50C4B88
:10CDC000002206460F46FFF7A7FC00F017F80446BE
:10CDD000FFF728FC074B0022FFF79EFC02460B469C
:10CDE00030463946FFF7E0FA00F008F82146D0BD9A
:10CDF0000000F03D0000F041704700BF4A0011D232
:10CE000012F5001211D20DD56FF47873B3EB6252A4
:10CE10000ED44FEAC12343F0004343EA505323FAB0
:10CE200002F070474FF00000704750EA013002D125
:10CE30004FF0FF3070474FF0000070472DE9F007CA
:10CE400091E8F807B2E802105B1854EB0C04B2E862
:10CE500002104D4156EB0C06B2E802104F4158EB60
:10CE60000C08B2E8021059EB01095AEB0C0A80E8F1
:10CE7000F80780410130BDE8F00770472DE9F00761
:10CE800091E8F807B2E802105B1A74EB0C04B2E800
:10CE900002108D4176EB0C06B2E802108F4178EB60
:10CEA0000C08B2E8021079EB01097AEB0C0A80E871
:10CEB000F80780414042BDE8F00770472DE9F007D0
:10CEC000524290E87800B1E880071740DB1918EA71
:10CED000020854EB080419EA020955EB09051AEA9D
:10CEE000020A56EB0A0678C090E87800B1E880079D
:10CEF00017407B4118EA020854EB080419EA0209BA
:10CF000055EB09051AEA020A56EB0A0678C0804179
:10CF10000130BDE8F00770472DE9F007524290E874
:10CF20007800B1E880071740DB1B18EA020874EBB1
:10CF3000080419EA020975EB09051AEA020A76EBF8
:10CF40000A0678C090E87800B1E880071740BB4136
:10CF500018EA020874EB080419EA020975EB0905DE
:10CF60001AEA020A76EB0A0678C080414042BDE820
:10CF7000F00770472DE9F00152424FF0040890E8A5
:10CF8000300091E8C000A31B1340E41AF618EB1B15
:10CF90001340ED1AFF1830C0C0C1B8F10108EED13E
:10CFA000BDE8F001704700BF00B592EC080AB1E897
:10CFB000805707EE101A53EC102A56EC114AA7FBC3
:10CFC0000251A8FB020BE7FB6310E9FB62B041ECE6
:10CFD000145AA8FB0351EAFB6201E7FB64B5E7FBC7
:10CFE0006605E8FB661505EE10BAA9FB03B6EAFB79
:10CFF0006316ECFB6356E8FB640BE9FB641BEAFB7E
:10D00000645BECFB646B05EE900AACFB023012EE45
:10D01000104AEEFB6250E9FB6460EAFB64B0E7FB98
:10D020006431E8FB645112EE904AE8FB6461E9FB6D
:10D0300064B1EAFB640106EE103AA7FB043213EE7A
:10D04000104AE7FB6462E8FB64B2E9FB6402EAFBB6
:10D05000641211EE904AE9FB6453EAFB646313EE39
:10D06000904AE7FB64B3E8FB6403E9FB6413EAFB63
:10D07000642306EE905A17EE109A99E8000610EE17
:10D08000108AA9FB0854EAFB68B412EE108AECFB84
:10D090006804EEFB6814E9FB6824EAFB683410EED0
:10D0A000908AEEFB6865E9FB68B5EAFB680512EE5D
:10D0B000908AECFB6815EEFB6825E9FB6835EAFB16
:10D0C000684507EE106A11EE108AAEFB0876E9FBA0
:10D0D0006806EAFB681613EE108AECFB6826EEFB86
:10D0E0006836E9FB6846EAFB685611EE908AECFB6D
:10D0F00068B7EEFB6807E9FB6817EAFB682713EEE1
:10D10000908AECFB6837EEFB6847E9FB6857EAFB5F
:10D11000686700BD2DE9F04F07EE900AFFF744FF66
:10D1200017EE908A07EE90BAA8EC084A88E8FF004C
:10D13000BDE8F08F00B591E89857A3FB0352A3FB1D
:10D140000401E3FB6420E3FB671042EC145AA3FBE9
:10D150000752E3FB6802E4FB6415E3FB6805E3FBAD
:10D160006925A4FB07B6E3FB6926E3FB6A56E4FBEB
:10D17000670BE4FB682BE3FB6A5BE3FB6C6B40EC47
:10D18000151AA4FB0810E4FB6950E3FB6C60E3FB99
:10D190006EB0E7FB6721E4FB6951E4FB6A61E3FBE6
:10D1A0006EB1E4FB6E0106EE102AA7FB0832E4FB29
:10D1B0006A62E4FB6CB2E4FB6E02E7FB6E12E7FB13
:10D1C0006853E7FB6963E4FB6CB3E7FB6C03E7FBC5
:10D1D0006E13E8FB6E2306EE905AA7FB0954E7FB9B
:10D1E0006AB4E7FB6C04E8FB6C14E8FB6E24E9FB13
:10D1F0006E34E8FB6865E7FB6AB5E8FB6A05E8FBA7
:10D200006C15E9FB6C25E9FB6E35EAFB6E4507EE14
:10D21000106AA8FB0976E8FB6A06E9FB6A16E9FBD7
:10D220006C26EAFB6C36EAFB6E46ECFB6E56E8FBBE
:10D2300069B7E9FB6907E9FB6A17EAFB6A27EAFBBA
:10D240006C37ECFB6C47ECFB6E57EEFB6E6700BD7A
:10D250002DE9F04F07EE900AFFF76CFF17EE908A6A
:10D2600007EE90BAA8EC084A88E8FF00BDE8F08F06
:10D2700030B44FF0000310F8014B11F8015B013A94
:10D2800084EA050443EA0403F5D1A3F101034FEA5C
:10D29000D37030BC704700BF4FF0000310F8012B73
:10D2A000013943EA0203F9D1A3F101034FEAD37034
:10D2B000704700BF30B411F8014B12F8015B6C40AD
:10D2C00000F8014B013BF6D130BC70472DE9F00767
:10D2D00091E8F807B2E802105B1854EB0C04B2E8CE
:10D2E00002104D4156EB0C06B2E802104F4158EBCC
:10D2F0000C08B2E8021059EB01095AEB0C0A8941FB
:10D30000B3F1FF3374F1FF3475F1FF3576F10006A8
:10D3100077F1000778F1000879F101097AF1FF3A15
:10D3200051F100015B184C414D4156F1000657F197
:10D33000000758F1000859EBD1795AEB010A80E84F
:10D34000F807BDE8F00770472DE9F00791E8F80706
:10D35000B2E802105B1A74EB0C04B2E802108D41C3
:10D3600076EB0C06B2E802108F4178EB0C08B2E8BD
:10D37000021079EB01097AEB0C0A89415B184C41E8
:10D380004D4156F1000657F1000758F1000859EBDE
:10D39000D1795AEB010A80E8F807BDE8F007704739
:10D3A00018EB040859EB05095AEB060A5BEB070B6F
:10D3B0005FF0000C4CF1000C18EB050859EB060966
:10D3C0005AEB070A5BEB070B50EB0C005FF0000C0D
:10D3D00051EB0C0152EB0C0263414CF1000CB8EB29
:10D3E000070879F100097AF1000A7BEB040BA841E8
:10D3F000B141A241B3416CF1000CBBEB050BB04154
:10D40000B941AA41BB416CF1000C6FEAEC74B8EB76
:10D41000040879EB04097AEB040A7BF1000B70F144
:10D42000000071F1000172EBD472A3416CF1000CA9
:10D4300018EBEC7859EBEC795AEBEC7A5BF1000BDA
:10D4400050F1000451F1000552EBDC7653EBEC7720
:10D450004CF1000C18EBEC7059EBEC715AEBEC72E0
:10D460005BF1000354F1000455F1000556EBDC7646
:10D4700057EBEC77704700BF2DE9F04F07EE900AAD
:10D48000FFF792FD59EC168A17EE10AAFFF788FFF6
:10D4900059EC148A5BEC15AAFFF782FF17EE908A0D
:10D4A00088E8FF00BDE8F08F2DE9F04F07EE900A05
:10D4B000FFF740FE59EC168A17EE10AAFFF770FF2F
:10D4C00059EC148A5BEC15AAFFF76AFF17EE908AF5
:10D4D00088E8FF00BDE8F08F4FEA410C7FEA6C5C02
:10D4E00002D150EA013C0AD14FEA430C7FEA6C5C5E
:10D4F00002D152EA033C02D14FF0000070474FF0D6
:10D50000010070474FEA410212F5001215D211D501
:10D510006FF47873B3EB625212D94FEAC12343F030
:10D52000004343EA505311F0004F23FA02F018BFB2
:10D53000404270474FF00000704750EA013005D17B
:10D5400011F0004008BF6FF0004070474FF000003E
:10D55000704700BFF8B515460A4A1C4656682EB1FA
:10D5600001B02A46B446BDE8F040604700208DF87F
:10D57000000068460BF054FB9DF80000281A20704C
:10D580000020F8BD08000020002819D003781349B6
:10D59000134A13B1012B0ED011E00379012B00D0F7
:10D5A0006BB943790BB1012B09D18368643B8B4282
:10D5B00005D2C0680EE00379012B02D00BB1002028
:10D5C000704743790BB1012BF9D1C368643B8B429F
:10D5D000F5D280689042F2D8012070473D86010064
:10D5E000FF3F420F10B5054C206810B18047002066
:10D5F0002060BDE8104001F0CBBF0000100000200B
:10D600002DE9F0410E46050004D000F045F807462C
:10D6100000240AE06FF01500BDE8F081204600F01C
:10D6200041F8807838B1641CE4B2BC42F6D300BF44
:10D630006FF00B00F0E72746FF2CF9D0204600F0F2
:10D6400031F804460BF08FFC27712146074801F0A2
:10D6500077FFE070202805D00120A560A07037700A
:10D660000020D9E76FF02200D6E70000C78C010048
:10D6700010B5820702D06FF00D0010BD054A117081
:10D68000506028B101EBC1018A0000210BF0F1FECE
:10D69000002010BD140000200148007870470000F1
:10D6A0001400002005490A78904201D300207047F9
:10D6B000496800EBC00001EB8000704714000020B7
:10D6C00070B50546202A27D019481A4C00EB831C58
:10D6D0000CEB420004EB8303202922D00CEB410128
:10D6E00040784C784870204601460CEB410091424E
:10D6F00005704078F8D193F82220202A1ABF0CEB4D
:10D700004202547083F8214020220CEB410C8CF82B
:10D71000012083F8221070BD40F28A21702003F0AE
:10D7200079F993F82040407883F82000DBE7000087
:10D7300028140020A81400202DE9FF4F85B01546BD
:10D740000C4602F0EFF8284420F07F400290216858
:10D75000081A0002C11700EB11600012002800F344
:10D76000D580AC48089FAC4E00EB8700039090F842
:10D7700020502020E9460DF104088DF8000006F540
:10D78000407A202D18BF0AEB871B25D005EB4500FA
:10D7900006EBC0002268C168511A0902CA1701EBE2
:10D7A00012610830091217D4618971B1418961B9D8
:10D7B00000F0A4FD02F0B6F82168081A0002C117B3
:10D7C00000EB11600012332806DB0BEB450089F8F3
:10D7D00000504578202DD9D199F8000088F8000034
:10D7E000A146202D1CBF8D4800EB871B00F00E8149
:10D7F00005EB450106EBC10AD9F80420DAF8081058
:10D800004846891A0902CA1701EB12610AF1080792
:10D81000091215D47989002900F0F880418900297E
:10D8200040F0F48000F06AFD02F07CF83968081AD4
:10D830000002C11700EB11600012332880F2E6806D
:10D8400088F800509AF8141099F80C00814206D913
:10D850000BEB45004578202DCAD100F0D7B89DF8D4
:10D86000040000EB400006EBC005688AEF68002862
:10D8700043D16089E8B3A8680BF013FC698A2A7C5D
:10D88000674B1144491C4218984204D940F2D651C2
:10D89000702003F0BFF86348814204DD40F2D751A5
:10D8A000702003F0B7F86048814204DA4FF4BB619E
:10D8B000702003F0AFF85D489042DCBF02F5F7023C
:10D8C000A2F1F85205DD002ABCBFA2F5F70202F171
:10D8D000F852104602F026F820F07F41781A000234
:10D8E000C21700EB126000123328B8BF01F13300F9
:10D8F00000E002E0B8BF20F07F470298381A00022B
:10D90000C11700EB11600012002803DD09B00020F0
:10D91000BDE8F08FD4E90010401A384427F07F4169
:10D9200020F07F40C4E900100398DDF820806F46A6
:10D9300090F8205020200DF1040A8DF80000202DD1
:10D940001CBF364800EB881925D000BF05EB450009
:10D9500006EBC0002268C168511A0902CA1701EB20
:10D9600012610830091216D4618971B1418961B917
:10D9700000F0C4FC01F0D6FF2168081A0002C117AC
:10D9800000EB11600012332805DB09EB45003D7008
:10D990004578202DDAD138788AF800002746202DE6
:10D9A0001CBF1E4800EB881B30D005EB450106EB81
:10D9B000C1097968D9F808203846511A0902CA17EE
:10D9C00001EB126109F10808091212D4B8F80A1023
:10D9D000E1B14189D1B900F091FC01F0A3FFD8F881
:10D9E0000010081A0002C11700EB11600012332862
:10D9F0000CDA8AF8005099F81400397B88427FF6D7
:10DA00002EAF0BEB45004578202DCED109B001207B
:10DA1000BDE8F08FA8140020281100202814002051
:10DA2000FF7F841E0040420F00C0BDF00080841EB6
:10DA30002DE9F05F04463C480E4600EB86003B4F64
:10DA400090F82050202098469246107007F54079B3
:10DA5000202D18BF09EB861B28D000BF05EB450021
:10DA600007EBC00000F10801C0682268101A00022C
:10DA7000C21700EB1260001218D4608978B148898F
:10DA800068B9084600F03AFC01F04CFF2168081A1A
:10DA90000002C11700EB11600012332806DB0BEB0C
:10DAA00045008AF800504578202DD7D19AF800001B
:10DAB00088F80000202D18BF09EB861A30D005EB3E
:10DAC000450107EBC1096168D9F808202046511AC1
:10DAD0000902CA1701EB126109F10806091210D4F4
:10DAE0007189E9B14189D9B900F008FC01F01AFF48
:10DAF0003168081A0002C11700EB116000123328C8
:10DB00000EDA88F8005099F81400217B884202D878
:10DB10000020BDE8F09F0AEB45004578202DCED1CE
:10DB20000120BDE8F09F0000A8140020281100206B
:10DB30002DE9F74F96B015468A46002602F07AF98D
:10DB40000446BAF1010F18BFBAF1020F05D040F632
:10DB500063114FF0700002F05DFFFF490120086083
:10DB6000FE49C96808604FF0000B8DF846B0801E72
:10DB70000C90FB4905EB450001EBC0030833CDF8E1
:10DB800028B00FCB0DAF87E80F000DA800F0B6FB53
:10DB90000B90F348BDF83E80B0F89C03ADF844000C
:10DBA000B8F1000F14BF4FF001094FF000090D98B4
:10DBB0001490B9F1000F09D0EA4890F82C0028B968
:10DBC00002F0B0FE002808BF012700D00027E64879
:10DBD00000210D460078012818BF03283BD1E248F8
:10DBE0004688464537D90B99F343DFF880E3C818D8
:10DBF0000DF10C0C15AA714504D940F2D6517020D4
:10DC000002F008FFDA498B4204DD40F2D751702060
:10DC100002F000FFD7498B4204DA4FF4BB61702059
:10DC200002F0F8FED4498142DCBF00F5F700A0F114
:10DC3000F85005DD0028BCBFA0F5F70000F1F85052
:10DC4000614601F08BFE039820F07F4003900D9910
:10DC5000081A20F07F41002F18BF322504D19DF80B
:10DC60004400002818BF0225B4F1807F08D00D9829
:10DC7000001B0002C21700EB12600012012802DA3A
:10DC8000032216980BE047B1B64890F82D0020B15A
:10DC90009DF84400051C18BF0225204600220D9B5C
:10DCA0002A445B1A23F07F4CACF1010323F07F453B
:10DCB0002B1A1B024FEAE37E03EB1E631B129342F7
:10DCC00004DB002918BFCDF834C027E089B19DF8E6
:10DCD00045301BB9A44B1B78032B0AD027B99DF8FC
:10DCE0004410002918BF921E00218DF844B00E4642
:10DCF00007E037B99DF84430002B1CBF8DF844B0C5
:10DD0000921E0D9B591A491E21F07F45281A0002C8
:10DD1000C11700EB1160001290427CDB09975F464F
:10DD200001F07EFF281A0002C11700EB11600012FB
:10DD30003D2820DABAF1010F02D0099840B112E073
:10DD4000B4F1807F1CD14FF40E61702002F062FEAE
:10DD5000B4F1807F07D0601B0002C11700EB116097
:10DD60000012042804DD2C46204601F05FFF07E086
:10DD700000286DDC04E02C46204601F057FF4F469A
:10DD8000B4F1807F5FD00D980E9A001B121B20F01B
:10DD90007F4022F07F4201285AD3B0F5000F98BF90
:10DDA000B2F5000F54D820460BF07BF90B99704B5D
:10DDB0000D1AEB1A5A467BF1000319D3DFF8B0C1F4
:10DDC000431AB3EB0C0C72F1000C11D3DFF89CC1B9
:10DDD000AC453EBFC0F5902000F1F450451807D384
:10DDE0009C4539D2C1F5902101F1F45108444542D6
:10DDF000DFF870B19BF81E0098B350464FF0000A50
:10DE0000012805D0022002F06DF9012002F06AF924
:10DE1000B04532D200E01BE0A5EB06014FF0010354
:10DE20004FF003024FF0020002F088F8002808BF0C
:10DE30004FF0010AB8F1000F39D00123A5EB08011A
:10DE40000322184627E040F6FD11702002F0E2FDA3
:10DE500019B00020BDE8F08F40F6DD21702002F0FF
:10DE6000D9FDB04534BF304640461E30A842C4DB21
:10DE70004FF42161702002F0CDFD10D90123A5EBF4
:10DE800008010322184602F059F8E0B37EB1A91B3D
:10DE900001230322022002F051F8A0B307E056EA62
:10DEA000080004D040F64711702002F0B3FD0123B2
:10DEB00003222946002002F041F820B30126BAF1DE
:10DEC000000F04D014980D9000208DF84400B9F193
:10DED000000F04BF9BF82D00002800D02FB39BF843
:10DEE0002C0020B102F0F4FB00208BF82C00FFB1D5
:10DEF000A4F1320020F07F4101230322052002F02B
:10DF00001DF840B300E006E09BF82D00002808BF94
:10DF10008BF82D6015E0022002F0E4F8012002F0F9
:10DF2000E1F819B00020BDE8F08F9BF82C0028B371
:10DF30009BF82D0028B1052002F0D4F800208BF8C2
:10DF40002D00A5EB0800A0F11901002923DC40F603
:10DF50004221702013E019E0080500401C00002059
:10DF600028110020A814002024000020FF7F841E18
:10DF70000040420F00C0BDF00080841E01E002F0AE
:10DF800049FD02F0C1FB8BF82C60B0E740F2123182
:10DF9000702002F03FFD03220123104601F0CEFF66
:10DFA000F0B112490020C9680860114908600DF1FC
:10DFB0002808104898E8FE10C0F88013C0F88423A1
:10DFC000C0F88833C0F88C43C0F89053C0F894630D
:10DFD000C0F89873C0F89CC319B00120BDE8F08F59
:10DFE00040F64A21702002F015FD00001C000020C0
:10DFF00008050040281100202DE9F043064683B0B3
:10E0000008789073CF7A5773887A1073088914460A
:10E0100050810D460A785F4999464FEA410C4B42C0
:10E02000ACF101085AB1C043D5F8048004F10802EC
:10E0300088423DDD40F2D751702002F0EBFCEE68E3
:10E040006D686FEA000904F1080206EB0900464515
:10E0500004D940F2D651702002F0DCFC8945E9DC9D
:10E06000994528DB8445DCBF00F5F700A0F1F850A6
:10E0700005DD0028BCBFA0F5F70000F1F8502146EF
:10E0800001F06CFC206820F07F417019401C216079
:10E09000002F08BF7A3003D0012F08BF48302DD1A0
:10E0A00001F040FC20F07F40606003B0BDE8F083E9
:10E0B0000146984204DA4FF4BB61702002F0AAFCDA
:10E0C0008445DCBFA1F1F450A0F5902005DD0028C7
:10E0D000BCBF01F1F45000F59020214601F03EFC58
:10E0E0002068002F20F07F4108F10100216008BF67
:10E0F0007A3008D0012F08BF483004D040F27E614A
:10E10000702002F087FC01F00DFC20F07F4161607F
:10E11000608901AA694601F021FC1F4890F82F1080
:10E12000202923D00069401D20F07F40D4E9002140
:10E13000891A2060084420F07F4060604B463246D8
:10E140002146E868FFF7F8FA00281CBF03B0BDE8D5
:10E15000F083D4E90010401A304426F07F4120F0CB
:10E160007F40C4E9001003B0BDE8F083608906F188
:10E17000090720B102F0D6FB002808BF3237074854
:10E1800041780098814284BF081A074427F07F40F5
:10E19000CCE700000040420FA8140020240000201B
:10E1A00070B51E4D95F82F00202818BF70BD95F84A
:10E1B0002E2005EB820090F82040202C29D0184B0F
:10E1C00003EB821101EB4401497880F82010FF2114
:10E1D00080F8231085F82B1085F82F402146022067
:10E1E00000F0C6F8002085F82A00A8770D4904EB56
:10E1F000440001EBC000007D002808BF02F060FD74
:10E2000009484168002908BF70BD0020BDE8704082
:10E21000084740F25231702002F0FCFBA8140020A5
:10E2200028140020281100201C0000202DE9F05F98
:10E23000DFF8B88098F82E5008EB850090F8214060
:10E24000202C08BFBDE8F09FDFF8A4B0DFF8A4A041
:10E25000AAF540790AEB8517072617F8140001285C
:10E260000ED0042808BF02260AD005280CBF0326BA
:10E27000062805D040F6AA014FF0700002F0CAFB54
:10E28000BBF1000F18BFAFF30080EFF3108072B640
:10E2900007EB44014A7808EB850181F8212091F8C9
:10E2A0002220A24204BF202281F82220B8B12A46AF
:10E2B0002146012000F05CF804EB440109EBC100A9
:10E2C00059F8312040683146904798F82E5008EBB5
:10E2D000850090F82140202CBCD1BDE8F09F064875
:10E2E000002818BFAFF3008062B6E0E7A814002052
:10E2F00000000000281400200000000010B50446B3
:10E3000000680AF0CEFE02466089217A144B084468
:10E31000411C50189A4204D940F2D651702002F0A4
:10E3200079FB104A914204DD40F2D751702002F08F
:10E3300071FB0D4A914204DA4FF4BB61702002F088
:10E3400069FB0A498142DEBF00F5F700A0F1F850F1
:10E3500010BD0028BCBFA0F5F70000F1F85010BDBB
:10E36000FF7F841E0040420F00C0BDF00080841E6D
:10E37000DFF854C010B500230CEB821C07281ED216
:10E38000DFE800F0050505050404040001230CF88E
:10E390001100002B08BF10BD0C4800EB820292F860
:10E3A000220020280EBF82F821100CEB40004170A3
:10E3B00020200CEB4103587082F8221010BD4FF45E
:10E3C0001871702002F026FB28140020A8140020E9
:10E3D0002DE9F84F81465648884600EB88000090AA
:10E3E00090F82040B9F1010F254618BFB9F1020F8E
:10E3F00005D040F681214FF0700002F00BFB0027A2
:10E40000202D44D04A480026807F002808BF0226DD
:10E4100001F006FCDFF81CA104EB44010AEBC1018A
:10E420008A68C968121A091A22F07F4221F07F41D6
:10E43000964299BFB2F5000FB1F5000F3E4A02EBCC
:10E44000881B22D922460BEB42014C78202C14D099
:10E4500004EB44010AEBC101D1F808C0C968ACEB78
:10E46000000C091A2CF07F4C21F07F4166459CBFBF
:10E47000BCF5000FB1F5000FE4D8202A05D04346C3
:10E4800020210420FFF71CF90446AC4216D12B488A
:10E49000002818BFAFF3008001F0C2FB244C0346F4
:10E4A00094F8300020280CD0E068991C081A00026B
:10E4B000C11700EB11600012002802DD0020BDE84A
:10E4C000F88F202D0DD02A4649461846FFF730FB1D
:10E4D00020B3009880F8237084F830500120BDE804
:10E4E000F88F94F82C0018B102F0F2F884F82C7030
:10E4F00094F82D0020B1052001F0F4FD84F82D7072
:10E50000042001F0EFFD01F05DFE202084F83000D2
:10E510000B48C06807600B480760DFE743462A46A0
:10E5200020210420FFF7CCF80020BDE8F88F000080
:10E53000A81400202811002028140020000000004A
:10E540001C00002008050040064910B591F82F2056
:10E55000202A1CBF887710BD40F2B131702002F034
:10E5600059FA0000A81400202DE9F04F5E4E07462E
:10E5700085B096F82F008846202851D096F82F00B5
:10E5800006F10C0400EB4000A6F5607909EBC00A27
:10E5900020208DF8000096F82E0003AA06EB8000DC
:10E5A00001A990F82050306902903068384401F099
:10E5B000D5F9DAF80C000199652F084435D34B4B97
:10E5C0000021DB1B894130D32168411A21F07F41B2
:10E5D000B1F5000F29D820F07F406060304684F804
:10E5E0000C8090F82E00EA46202D1CBF404901EB1C
:10E5F000801B3ED005EB450009EBC0086068D8F8E9
:10E6000008202146101A0002C21700EB126008F120
:10E61000080600121BD4708958B3488948B128E015
:10E6200040F64C31702002F0F5F905B00120BDE84C
:10E63000F08F2046FFF762FE01F074F93168081A86
:10E640000002C11700EB11600012332811DA8AF8BA
:10E65000005098F81410207B814205D80298606021
:10E6600005B00220BDE8F08F0BEB45004578202D6A
:10E67000C0D1052001F036FD1B4C4FF0FF30A060EB
:10E6800094F82E309DF800202021202A13BF052069
:10E6900004EB830090F82000FFF712F894F82E2086
:10E6A000134901EB821194F82F2001EB42014870CD
:10E6B000206838442060FF2084F82B00607E012809
:10E6C00005D12069401E20F07F4001F051FB9DF8EC
:10E6D0000000202803D00748407802F06BFA05B00C
:10E6E0000020BDE8F08F0000A81400200040420F79
:10E6F000281400201C000020064810B590F82F10A8
:10E7000020291CBF007E10BD40F64531702002F06C
:10E7100081F90000A81400200246144B10B50844EB
:10E720009A4204D940F2D651702002F073F9104A8F
:10E73000914204DD40F2D751702002F06BF90D4A8E
:10E74000914204DA4FF4BB61702002F063F90A4988
:10E750008142DEBF00F5F700A0F1F85010BD00289F
:10E76000BCBFA0F5F70000F1F85010BDFF7F841E7C
:10E770000040420F00C0BDF00080841E154B0A1AF5
:10E780004FF0000CD31A7CF100033CBF10467047D9
:10E7900010B5431A0F4C1C1B7CF1000C3CBF1046FB
:10E7A00010BDDFF834C094453FBFC0F5902000F1A4
:10E7B000F450084410BD9C4506D2C1F5902101F1EA
:10E7C000F4510844404210BD40F6DD21702002F0B3
:10E7D00021F900000040420FFF7F841E074991F895
:10E7E0003020824204BF4868704700EB4000044973
:10E7F00001EBC0000830FFF781BD0000A814002025
:10E80000281100200E4910B591F82F00202812D0B1
:10E8100091F82F00A1F5607200EB400002EBC00000
:10E8200091F82F10406801EB410152F83120BDE80A
:10E8300010400421104740F68D01702002F0EAF8E4
:10E84000A8140020F8B56C4D6C4A05F560740126DB
:10E8500094F82C1008286ED2DFE800F0047399AB0E
:10E86000C943B0B519B901F04FFF84F82C60E08AB4
:10E8700010B102F057F890B1FFF792FCFF2084F836
:10E880002900A168B1F1FF3F05D001230322052033
:10E8900001F054FB40B1607E012810D109E040F640
:10E8A0003D01702002F0B6F840F64201702002F0FF
:10E8B000B1F82069401E20F07F4001F059FA94F829
:10E8C0002F0094F82F1000EB400005EBC0004068CB
:10E8D00001EB410155F8312001B00121BDE8F040C4
:10E8E000104794F82D0040B119B901F00DFF84F8DC
:10E8F0002C60002084F82D00F8BDFFF751FC4FF08C
:10E90000FF30A06094F829008DF800009DF8000009
:10E9100090B194F82F0094F82F1000EB400005EB15
:10E92000C000406801EB410155F8312001B00621DB
:10E93000BDE8F04010475AE040F65A01702002F05E
:10E9400069F8FFF72DFC84F8286001F0EBFF18B19F
:10E9500094F82C0028B108E040F66801702002F01D
:10E9600059F801F0D1FE84F82C6094F82F0094F847
:10E970002F1000EB400005EBC000406801EB4101A7
:10E9800055F8312001B00021BDE8F040104701F0FA
:10E9900063FCE08A10B101F0C5FF28B11848007887
:10E9A000032808BF6677F8BD40F67201702002F0B8
:10E9B00031F814480660D0680660F8BD1078BDE8EC
:10E9C000F84002F0F7B8FFF7EBFB94F82F0094F84B
:10E9D0002F1000EB400005EBC000406801EB410147
:10E9E00055F8312001B00521BDE8F040104740F650
:10E9F0008501702002F00EF8281100201C00002074
:10EA00002400002008050040034810B540780AF0B3
:10EA100048FB80B210BD0000240000202DE9F34F18
:10EA20008246E0488BB00068DF4DC005C00D0ED0B7
:10EA3000103840B20028B8BF00F00F0000F1E0200D
:10EA4000ACBF90F8000490F8140D40090DD00C985C
:10EA50004FF0000B0078002818BF012818D040F2B2
:10EA60001C714FF0700001F0D5FF95F82F004FF0AA
:10EA7000010B202807D00C98007848B14FF4E361CF
:10EA8000702001F0C7FF40F21571702001F0C2FF45
:10EA9000C64C24B1002140F21F70AFF30080C4497E
:10EAA0000AEB4A0001EBC0004FF00108009024B1CE
:10EAB000002140F22770AFF30080B8F1000F09D0B9
:10EAC00095F82E604FF0000985F82B90BBF1000FF0
:10EAD00007D032E0B748002818BFAFF3008062B615
:10EAE000EEE73746012020EA0706B348402200EB54
:10EAF000871100EB86100AF042FC24B1002140F29D
:10EB00009A50AFF3008005EB870105EB8600096A98
:10EB1000016224B1002140F29E50AFF3008024B185
:10EB2000002140F23170AFF3008095F82B008DF892
:10EB300004009DF804000028B9D124B1002140F25E
:10EB40003B70AFF3008001F06BF88046334606AAB5
:10EB50000C99FFF751FA24B1002140F24270AFF353
:10EB60000080954906A801EB861717F81A100129AD
:10EB700018BF022936D10699079AA1EB080121F0A6
:10EB80007F41A2EB080222F07F42022970D3B1F547
:10EB9000000F98BFB2F5000F6AD84FF0010901AB22
:10EBA00005AA3146FEF744FF002869D09DF81410ED
:10EBB0009DF8042033468A4266D00520FEF780FD8A
:10EBC00007EB4A0148709DF8140020281CBF07EB92
:10EBD000400080F801A061D0324651465FF003004A
:10EBE000FFF7C6FB05EB860090F823008DF80400C4
:10EBF0009DF80400002814BF0127002724B100213C
:10EC000040F24970AFF300806C48002818BFAFF3A2
:10EC10000080EFF3108872B624B1002140F24F70EB
:10EC2000AFF3008095F82B008DF804009DF80400E8
:10EC300000287FF43CAF24B1002140F25770AFF3BD
:10EC400000800DF1180E00989EE80E1000F10800EB
:10EC5000B9F1000F80E80E104CD024B1002140F231
:10EC60006470AFF30080BBF1000F34D11EE0FFE70A
:10EC7000324651460420FFF77BFB4FF00109B1E714
:10EC8000324651460420ABE7202919BF07EB41006B
:10EC9000407805EB860090F8200091E705EB8600B0
:10ECA00080F820A0FF2180F8231095E79FB195F808
:10ECB0002F0020280FD124B1002140F26970AFF35A
:10ECC000008031460220FFF783FB20B90C980078C2
:10ECD000F0B301284CD024B1002140F28670AFF38C
:10ECE0000080BBF1000F1CBFFF2085F82B0048D02F
:10ECF0004FF0010924B1002140F29770AFF300807A
:10ED0000B8F1000F47D024B1002140F29B70AFF35F
:10ED10000080B9F1000F11D095F82E0005EB8000AE
:10ED200090F82100202809D024B1002140F2A270DF
:10ED3000AFF300802248407801F03CFF24B100216D
:10ED400040F2A770AFF300800DB04846BDE8F08FE9
:10ED5000FFE724B1002140F27170AFF3008095F815
:10ED60002E2051460420FFF703FB4FF00109C1E7B5
:10ED7000002C3FF49CAE002140F27C70AFF3008089
:10ED800095E695F82E100120884385F82E00FF2087
:10ED900085F82B00ACE70748002818BFAFF30080C8
:10EDA00062B6B0E704ED00E0A81400200000000007
:10EDB000281100200000000028140020000000009E
:10EDC0001C0000202DE9F14FA44886B00068C00562
:10EDD000C00D11D0103840B20028B8BF00F00F00AD
:10EDE00000F1E020ACBF90F8000490F8140D400949
:10EDF00008BF4FF0010901D04FF0000906980078D4
:10EE000000281EBF002007B0BDE8F08F4FF0000BB8
:10EE1000934D944CDA4625B1002140F22560AFF3C2
:10EE2000008094F82E6084F82BA04FF0000825B1E4
:10EE3000002140F22A60AFF30080B9F1000F1DD12C
:10EE40003746012020EA07068748402200EB871159
:10EE500000EB86100AF093FA25B1002140F29A5097
:10EE6000AFF3008004EB870104EB8600096A0162BE
:10EE700025B1002140F29E50AFF3008025B1002162
:10EE800040F23260AFF3008000F0CAFE074633461E
:10EE90006A460699FFF7B0F825B100214FF4C76024
:10EEA000AFF3008094F82F00202814D02069009937
:10EEB000091A0902CA1701EB126109120BD5DDE923
:10EEC0000012511A20F07F42084420F07F40CDE923
:10EED00000204FF001084DB1002140F24260AFF335
:10EEE000008000214FF4C960AFF3008000980199C1
:10EEF000C01BC91B20F07F4021F07F41B0F5000FFF
:10EF000098BFB1F5000F03D8B9F1000F0CD103E0A1
:10EF1000B9F1000F38D094E033463A466946534879
:10EF2000FEF70AFC48EA0008B8F1000F22D000986A
:10EF30000AF0B7F8BDF80A109DF808204C4B1144B0
:10EF4000491C4218984241D8484881425ADC404204
:10EF500081425FDB581C9042DCBF02F5F702A2F150
:10EF6000F85205DD002ABCBFA2F5F70202F1F85203
:10EF70000698C2604FF0010B002D62D0002140F2D4
:10EF80005B60AFF300805CE0BDF80A0005AA04A94D
:10EF900000F0E4FC94F82F0020281CD02069401DCC
:10EFA00020F07F40DDE90021891A014421F07F41F2
:10EFB000CDE900010AF075F8BDF80A109DF80820A7
:10EFC0002B4B11444A1C8118984218D940F2D65153
:10EFD000702001F01FFDBDF80A0007F1090620B1FD
:10EFE00001F0A0FC002808BF32362248049940787E
:10EFF000884284BF401A064426F07F40D2E71B486F
:10F00000824204DD40F2D751702001F003FD1A481E
:10F01000824204DA4FF4BB61702001F0FBFC174818
:10F020008842DCBF01F5F701A1F1F85105DD0029A7
:10F03000BCBFA1F5F70101F1F85106984FF0010BA3
:10F04000C16094F82B008DF810009DF81000002886
:10F050007FF4E1AE07B05846BDE8F08F04ED00E064
:10F0600000000000A8140020281400200040420FD7
:10F07000FF7F841E2400002000C0BDF00080841E9D
:10F080002DE9F14F8A4D8CB095F82E000020894C67
:10F0900001278146A5F18008089024B1002140F2A3
:10F0A000B670AFF30080002F39D000BF85F82B90E9
:10F0B00024B1002140F2BB70AFF3008095F82EA080
:10F0C000012020EA0A0608EB861008EB8A11834625
:10F0D00040220AF054F924B1002140F29A50AFF3D3
:10F0E000008005EB860005EB8A010090096A016249
:10F0F00024B1002140F29E50AFF3008095F82B0020
:10F100008DF808009DF8080080B1002C1CBF00217C
:10F1100040F2C170C1D000BFAFF30080BDE76648C8
:10F12000002818BFAFF3008062B6BFE724B100210A
:10F1300040F2C570AFF300800C981BF81000032854
:10F1400078D1DDF800A0CDF814A00C999AF8200031
:10F15000884214BF4FF0000B4FF0010B0AF1200C56
:10F160008646202208EB861303E0024603EB4200AA
:10F170004078884202D020280AD0F6E7202807D01D
:10F18000864507D103EB4E0040788CF8000007E07D
:10F1900048460CE003EB400003EB42014078487026
:10F1A00024B1002140F20450AFF30080012010EAA6
:10F1B0000B0F1CBFFF218AF82310002858D024B160
:10F1C000002140F2CA70AFF30080324601200C9952
:10F1D000FFF7CEF8059890F823008DF808009DF809
:10F1E0000800002814BF4FF0010A4FF0000A24B1B4
:10F1F000002140F2D570AFF300803048002818BFDE
:10F20000AFF30080EFF3108772B624B1002140F213
:10F21000DA70AFF3008095F82B008DF808009DF8A8
:10F22000080040B1002C1CBF002140F2DE703FF40A
:10F2300034AF71E71CE0BAF1000F08D095F82F0049
:10F24000202804D131460220FFF7C2F808B324B1C8
:10F25000002140F2F270AFF3008095F82E100120EB
:10F26000884385F82E00FF2085F82B0001200890A8
:10F2700024B1002140F2FB70AFF300808FB124B1C4
:10F28000002140F2FF70AFF3008008980DB0BDE898
:10F29000F08F002CF2D0002140F2ED70AFF300802F
:10F2A000E7E70548002818BFAFF3008062B6E6E73D
:10F2B000A814002000000000000000000000000072
:10F2C000202824BF0020704700EB4000034B43F888
:10F2D000301003EBC000426001207047281100206D
:10F2E00010B5202811D20E4991F82E30A1F18002DC
:10F2F00002EB831C1CF810303BB191F82E3002EB6E
:10F30000831212F81020012A01D0002010BD91F8BC
:10F310002E2001460020FFF72BF8012010BD000031
:10F32000A81400202DE9F84F814E804696F82E0053
:10F33000A6F1800707EB801010F81800002868D0AD
:10F3400096F82E907B4D25B1002140F69230AFF318
:10F35000008007EB891414F81800012818D0C0B2F7
:10F3600004281CBF0528062858D02DB14FF00001F5
:10F3700040F69E30AFF3008001F072FC25B1002111
:10F3800040F6A230AFF3008014F818000128E6D14F
:10F39000012425B1002140F6A930AFF30080002CF4
:10F3A00042D0002086F82B0025B1002140F6AE3077
:10F3B000AFF3008096F82EB0012020EA0B0907EB8E
:10F3C0008B1107EB8910402209F0D9FF25B10021EC
:10F3D00040F29A50AFF3008006EB8B0006EB890AEF
:10F3E000006ACAF8200025B1002140F29E50AFF318
:10F3F000008096F82B008DF800009DF80000D0B139
:10F40000002D1CBF002140F6B430C2D0AFF3008005
:10F41000BFE740F68931702001F0FCFA4A464146C8
:10F420000120FEF7A5FFA9E74348002818BFAFF366
:10F43000008062B6B5E725B1002140F6B830AFF3E1
:10F4400000809AF821300AF1210140461C464FF015
:10F45000200B07EB89120AF1220A04E0A34602EB13
:10F460004B0C9CF80140844202D0202C2BD0F5E7B5
:10F47000202C28D0A34204D102EB4300407808702E
:10F4800005E002EB440002EB4B0140784870BAF112
:10F49000000F11D025B1002140F2FC40AFF30080F5
:10F4A0009AF80000A04207D125B1002140F2FF40A8
:10F4B000AFF300808AF800B05DB1002140F2045043
:10F4C000AFF3008000E025B1002140F6BC30AFF37F
:10F4D00000801A48002818BFAFF30080EFF31084B3
:10F4E00072B696F82B008DF800009DF8000038B138
:10F4F000002D1CBF002140F6C2303FF44AAF85E723
:10F5000086F82E90FF2086F82B0054B1002D08BFFE
:10F51000BDE8F88F002140F6CF30AFF30080BDE8A2
:10F52000F88F0548002818BFAFF3008062B6EDE7FA
:10F53000A8140020000000000000000000000000EF
:10F5400070B50D46064601F0DBF90F4890F82E2005
:10F550000024803800EB821010F8141029B1611CCF
:10F56000CCB2202CF8D3202070BD084804EB440115
:10F5700040F8316000EBC100214645600120FEF7F4
:10F58000F7FE204670BD0000A814002028110020BE
:10F590002DE9F04782B000F043FB054600F012FE73
:10F5A000664CA068B0F1FF3F1CBF4FF0FF30A06079
:10F5B000A07F634F90B9D4E90310401A20F07F4038
:10F5C0004FF40C7109F09AFD21690844281A0002D1
:10F5D000C11700EB11600012C00F13D0607E28B37A
:10F5E00094F829008DF800009DF80000F0B100F0BB
:10F5F00027FC00BF94F82A00F0B140F211417020BE
:10F6000001F008FA94F82F0094F82F1000EB400056
:10F6100007EBC000406801EB410157F83120082199
:10F62000904740F2F931702001F0F4F9E81C20F025
:10F630007F4000F0FBFADDE7012084F82A0094F80F
:10F640002F00202824D094F82F80202084F82F0029
:10F6500084F83000002684F8286084F8296039484E
:10F6600026600078022816BF03280120002020779A
:10F6700094F82E9004EB890A9AF8200020282FD0C5
:10F6800000EB400007EBC000817D012905D027E099
:10F6900040F21441702001F0BDF92F4600F1080539
:10F6A000408A01AA694600F059F994F82F002028F1
:10F6B00004D02069401D20F07F4009E068890937A7
:10F6C00020B101F02FF9002808BF323727F07F4022
:10F6D000D5E90021891A2860084420F07F4068603D
:10F6E00049460120FEF774FE0028F9D0164800EBC9
:10F6F000891010F81800022804D14A464146062015
:10F70000FEF736FEFF2084F82B009AF821000F4DFB
:10F7100020281CBF687801F04DFA207F18B100F056
:10F720009BFD267766776968002904BF02B0BDE8B3
:10F73000F087642002B0BDE8F0470847A814002015
:10F740002811002024000020281400201C00002084
:10F7500010B5324C82B094F82F10202908D0A1683F
:10F76000B1F1FF3F09D040F6BA21702001F052F903
:10F7700040F6B921702001F04DF962680146284B2E
:10F7800050189A4204D940F2D651702001F042F943
:10F79000244A914204DD40F2D751702001F03AF939
:10F7A000214A914204DA4FF4BB61702001F032F932
:10F7B0001E498142DCBF00F5F700A0F1F85005DDDD
:10F7C0000028BCBFA0F5F70000F1F85001AA694677
:10F7D00000F0C4F89DF804000F288CBF0120002021
:10F7E0000099084420F07F41A16094F829008DF829
:10F7F00000009DF80000002804BF02B010BD0123E6
:10F800000322052000F09AFB00281CBF02B010BDA7
:10F8100040F6C221702001F0FDF80000A81400207D
:10F82000FF7F841E0040420F00C0BDF00080841E98
:10F8300070B51E4C202184F8201084F8211084F823
:10F840002210002084F8230084F82E0084F82F1062
:10F85000421EA2602060A07784F8280084F8290066
:10F860002077607784F83010114984F82C0084F8F0
:10F870002D00087048704880A4F182011022887021
:10F8800001F8040F521EFAD10A4D012684F82A60AD
:10F89000FF202870084801F06FF9687001F0CAF97C
:10F8A000E86000F021FD84F8316070BDA8140020EC
:10F8B000240000201C0000202DE2000070B504464A
:10F8C0001546084609F0EDFB144B011B0022CB1A2C
:10F8D00072F1000318D3DFF844C0231AB3EB0C0C09
:10F8E00072F1000210D30E4A8A423EBFC4F5902145
:10F8F00001F1F451014407D39A4209D2C0F5902096
:10F9000000F1F4502044414201F10F00281A70BD6B
:10F9100040F6DD21702001F07DF800000040420F2C
:10F92000FF7F841E410B48F2376251430A0C094B9A
:10F93000510202FB03020848504300F586306E3046
:10F94000400D5B4210FB03F3B2EB532F88BF491C01
:10F9500008447047F7C2FFFF6F0C0100430B48F2E9
:10F96000376C03FB0CF330B41B0CDFF844C05C02B3
:10F9700003FB0C030F4858434FEA505C04EB0C00A8
:10F9800043F609541CFB04F404F5807C43F6085547
:10F99000A3EB5C2C2C440CF0FF0CB3EB542F84BF76
:10F9A0004FF0000C401C086082F800C030BC70476B
:10F9B000F7C2FFFF6F0C01002DE9F041384CD4F87D
:10F9C0000403DFF8E08010F4803F4FF400664FF04E
:10F9D000E0274FF0000519D033480068B0B1C4F8F3
:10F9E0004051C7F88062D4F84005D8F80010401A9A
:10F9F00020F07F40022802D3B0F5000F06D94FF463
:10FA00008030C4F808030420FEF71CFFD4F8040378
:10FA100010F4003F1AD025480068B8B1C4F844512A
:10FA2000C7F880622248D0F84005D8F80010401A84
:10FA300020F07F40022802D3B0F5000F06D94FF422
:10FA40000030C4F808030520FEF7FCFED4F80403D8
:10FA500010F4802F08BFBDE8F08116480068002828
:10FA600008BFBDE8F081C4F84851C7F88062124869
:10FA7000D0F84005D8F80010401A20F07F40022846
:10FA800004D3B0F5000F98BFBDE8F0814FF480209B
:10FA9000C4F80803BDE8F0410620FEF7D3BE00001D
:10FAA00000B0004004B5004040B1004044B1004007
:10FAB00004B0004048B1004008B000402DE9F041DA
:10FAC000384D2878042868D0E81C0122017859B103
:10FAD000012908BF6A7002D06978002958D0022134
:10FAE0000170407800F0FEFA2F4CD4F804034FF078
:10FAF000000810F4002F4FF480774FF0E0260AD072
:10FB00002A48006838B1032000F0ECFAC6F8807289
:10FB10000320FEF797FED4F8040310F4802F0AD0D8
:10FB20002348006838B1022000F0DCFAC6F8807281
:10FB30000220FEF787FED4F8040310F4003F0AD039
:10FB40001C48006838B1012000F0CCFAC6F8807279
:10FB50000120FEF777FED4F8040310F4803F08BFBD
:10FB6000BDE8F08114480068002808BFBDE8F081B6
:10FB7000002000F0B7FAC6F8807204202870C5F89B
:10FB80000880C4F80082BDE8F0410020FEF75ABEAC
:10FB900040F22B416C2000F03DFFBDE8F041072012
:10FBA000FEF750BE2C000020008000404C81004039
:10FBB0004881004044810040408100400122110200
:10FBC0004FF0E0230020C3F8801103F5C073BFF3AA
:10FBD0004F8FBFF36F8FC3F800110E4941F8042F08
:10FBE000431EC1F80433C1F83C05C1F83C010A4B7F
:10FBF000C3F84005C1F840011B1DC3F84005C1F81A
:10FC000044011B1DC3F84005C1F84801CA600349FF
:10FC10004870704700800040048000402C000020A5
:10FC2000014800687047000004B500402DE9F04726
:10FC3000484E0546F71E3378F968012B04BFA942E8
:10FC4000BDE8F0874FF04040434A1060434A6FF4EC
:10FC50008020C2F8080302F104004FF00004002BDA
:10FC600063D06FF4A02CC2F848C3C0F84045C2F876
:10FC700044413B4800684FF0E0294FF0010800285C
:10FC800004BF4FF40060C9F880024FF48030C2F81E
:10FC90000803C2F84803C2F840413248D0F800C017
:10FCA000A5EB0C0C2CF07F4CBCF1020F4AD3BCF539
:10FCB000000F47D8C2F840554FF4803CC2F844C307
:10FCC0002BB102688A1A22F07F42022AF9D3C7F8C0
:10FCD00008803C70FFF772FF2348D0F8041564F3E6
:10FCE0000101C0F80415D0F80825022161F30102D2
:10FCF000C0F80825D0F81025042161F30302C0F8EC
:10FD00001025C0F80C80B968C0F800128015C9F839
:10FD10008002C9F800011549C00508600420FD6093
:10FD2000707086F80080BDE8F0876FF4802CC2F810
:10FD300048C3C2F84045C2F84041C0F84045C2F847
:10FD4000444196E70020C2F8400540F269216C204A
:10FD500000F060FE2F00002008F5014000B00040D8
:10FD600048B1004004B500400080004004F5014067
:10FD700070B52A4CE168814214BF01220022DFF8ED
:10FD8000A0C09CF80050022D02D0002A34D002E01E
:10FD9000002A08BF70BD62789AB3224B4FF08042B0
:10FDA0001A60214B9213C3F80823C3F8482300229A
:10FDB000C3F840211D4A1668861B26F07F46022E96
:10FDC00024D3B6F5000F21D8C3F840054FF4803690
:10FDD000C3F844632DB11368CB1A23F07F43022B81
:10FDE000F9D3134B02214A071A60E06004208CF813
:10FDF00001008CF8001070BD40F277216C2000F0FB
:10FE000009FE40F27B216C2000F004FE0020C3F8C4
:10FE1000400540F287216C2000F0FCFD2C00002002
:10FE20002F00002008F5014000B0004004B500405C
:10FE300004F501400148C068704700002C00002014
:10FE40002DE9F04136486FF48021C0F80813354A97
:10FE500000F1040C002113786BB16FF4A024C0F8FA
:10FE60004843CCF84015C0F844112F4800684FF0C3
:10FE7000010C98B90CE06FF48024C0F84843C0F836
:10FE80004015C0F84011CCF84015C0F84411ECE71B
:10FE90004FF0E0244FF40060C4F88002022B04D03D
:10FEA00040F293216C2000F0B5FD204E3068204CCC
:10FEB000C01C20F07F40E3681E4D98420BD037688D
:10FEC000DF1B27F07F47042F05D3B7F5000F02D8BB
:10FED000FFF7ACFE1EE03068181A20F07F400228C1
:10FEE00015D3B0F5000F12D8134B4FF080401860B7
:10FEF000C4F808C02170C5F804C0C5F80CC04000A3
:10FF0000191F08600420507082F800C002E0C4F895
:10FF100008C02170A068C5F80002BDE8F0810000AB
:10FF200000B000402F00002048B1004004B5004060
:10FF30002C0000200080004008F501402DE9F0472A
:10FF4000634C0027012694F800C065784FF4A07434
:10FF500007287BD2DFE800F0040404046A6A6A0020
:10FF6000DFF87081D8F80C90B9F1807F04BF98F861
:10FF70000180B8F1000F03D0BCF1020F05D02CE0D6
:10FF800040F2D6216C2000F045FDA5F1040808F0F0
:10FF9000FF0804EB880404F1804808F53048002489
:10FFA000BCF1010F03D0BCF1020F0AD012E0042D06
:10FFB00024BFD8F80090B9F1000F08BF4FF00044FB
:10FFC00008E0042D24BFD8F80090B9F1000F08BF55
:10FFD00044F0804414F0804FE1D13F4C00F1100C0C
:10FFE00006FA0CFCC4F808C304EB8005AAB14FF074
:10FFF000400808EB800808F0FF08A044C8F800603B
:020000021000EC
:1000000004EB8000D0F84005A1EB000020F07F4019
:10001000904238BFC5F8407551D3C5F84015012B43
:1000200008BFC4F804C30120BDE8F087BCF1000F8D
:1000300006D0854204D140F2F9216C2000F0EAFCA0
:10004000A0F1040C0CF0FF0C012B00E03AE00CBF17
:1000500001250025BCF1030F04D340F2BD116C2033
:1000600000F0D8FC0CF1100306FA03F31B4EC6F89F
:100070000833C6F8483304EB8C0C46F80C70001FAC
:10008000C0B206EB80007AB1DFF854C0DCF800C0E3
:10009000A1EB0C0C2CF07F4C624592BFBCF5000F1D
:1000A0000021C0F840150AD8C0F84015002D18BF2F
:1000B000C6F80433C6F844330120BDE8F0870020B9
:1000C000BDE8F08740F2FE216C2000F0A3FC0000A8
:1000D0002F0000202C0000200080004000B00040D5
:1000E00004B500402DE9F843012600274FF4A0781D
:1000F000072851D2DFE800F004040404191919009C
:1001000000F1100106FA01F22649C1F8082301EBBB
:1001100080030022C3F8402508EB80028F5022495B
:1001200051F820000090BDE8F883204D011FCCB2AB
:10013000297879B16A7882420CD11D4A4FF040404B
:100140001060012908BFFFF739FD2F7019494FF0E2
:100150008070C860184904F1100006FA00F0C1F878
:100160000803C1F84803A0000844D0F84005134A2A
:100170001268801A20F07F40022807D301EB840226
:100180000020C2F8400508EB84000F500C4850F8DE
:1001900024000090BDE8F88340F27F316C2000F02D
:1001A00039FC000000800040408100402F0000200A
:1001B00008F501402C00002000B0004004B50040CC
:1001C00040B1004020496FF48020C1F808031F4867
:1001D0000A1D037800205BB16FF4A023C1F84833F7
:1001E000C2F84005C1F844011949096899B90CE001
:1001F0006FF48023C1F84833C1F84005C1F84001CD
:10020000C2F84005C1F84401EEE74FF0E0224FF498
:100210000061C2F880120F494FF0FF32C1F8082385
:10022000C1F84005C1F840010A1DC2F84005C1F8F7
:100230004401121DC2F84005C1F84801121DC2F860
:100240004005C1F84C01704700B000402F0000206D
:1002500048B1004000800040084890F902000028A2
:10026000B8BF704700F01F01012202FA01F14009F6
:10027000800000F1E020C0F8001270472C00002040
:1002800010B507280DD2DFE800F0040404040606C8
:100290000600064902E0001F0549C0B201EB8000DC
:1002A00010BD40F222316C2000F0B4FB40810040D0
:1002B00040B1004010B507280DD2DFE800F004047B
:1002C000040406060600064902E0001F0549C0B204
:1002D00001EB800010BD40F222316C2000F09AFB4F
:1002E0004081004040B1004070B51A48002404210C
:1002F0000470C01E01708905C160FFF75FFC012317
:100300004FF0E02CDD02CCF88051BFF34F8FBFF3EC
:100310006F8FCCF88052104A536093600F48016889
:100320000029FCD1481EC2F80803C2F84803C2F8ED
:100330004045C2F840410A48C0F84045C2F844412F
:10034000001DC0F84045C2F84841CCF80051136088
:1003500070BD00002F00002000B0004004B5004038
:1003600004B000402DE9F041164C607A002827D0F7
:100370004FF480718D05284608F0E4FE80464FF466
:100380008271284608F0DEFE00260746B8F1000F0D
:1003900009D00120C5F80803207920B12671E06951
:1003A00008B18047E66137B1C5F804610220C5F89D
:1003B000080300F063FA4046BDE8F04100F058B889
:1003C000BDE8F0813C00002010B508F065FF30B9B1
:1003D00008F083FF18B908F0B6FF002802D00249E0
:1003E0000220086010BD0000340C004070B500F021
:1003F0008BF900F097FA094C4FF0804530B1FFF7C8
:10040000E3FF012028610420A07204E00320A07211
:100410000120C5F804030020E07170BD3C000020FD
:1004200070B5124CA079E0B1E179401E814218DA32
:1004300000F078FA054600F05DFBA179012902D9A8
:10044000E179491CE1710DB1616900E02169411A4E
:10045000022902DA11F1020F07DC0DB1606100E040
:100460002061BDE87040FFF7C1BF70BD3C000020B7
:100470002DE9F04706464FF080454FF48671284637
:1004800008F060FE80464FF48871284608F05AFE56
:10049000274C8246277804F1080008F0C7FE10B107
:1004A0004FF4D57116E04FF0010946B1A07A032848
:1004B00005D10420A072FFF787FFC5F81090002631
:1004C000B8F1000F18D0C5F80C61A07A042804D048
:1004D0004FF4DE716D2000F09DFA08F0DDFE28B9C2
:1004E00008F0FBFE10B908F02EFF08B111480660B5
:1004F0000220A07200F0ECF8BAF1000F08D0C5F8A5
:100500001061A07A022801D1FFF78AFFC5F8149084
:100510003FB12670A07A022801D1FFF767FF00F0F3
:10052000D7F8BDE8F0470248083008F096BE000052
:100530003C000020340C00402DE9F0475F4C0027C0
:100540000646A761427881780078E0726271A171F5
:10055000E7714FF001084FF08045052825D2DFE80C
:1005600000F0100306202200C4F8188009E000F013
:10057000CBF80121284608F0EAFD0028F9D0022036
:10058000A06108F010FEB0B100F0E6F9217E01F0A4
:10059000030188420FD1B07950B10220C5F804039D
:1005A00070E04748ECE74748EAE740F22B314DE07E
:1005B00000F0A6F966E0C5F80C804FF4827AC5F821
:1005C0000471A069C5F8180508F052FE40B908F09A
:1005D00059FE28B908F06DFE10B908F07EFE38B15A
:1005E0004FF08050D0F844023749C0F342300860E1
:1005F00008F03EFE40B908F045FE28B908F059FE63
:1006000010B908F06AFE18B12F491031C1F8008006
:10061000C5F808800220C5F80403B07990BBD5F86E
:10062000040310F0020F0FD0DFF8A090D9F80010EB
:10063000C94341F3001101F10108D9F8001041F05C
:100640001001C9F8001007E04FF43B716D2000F075
:10065000E1F900BF00F004FB5146284608F072FDA6
:100660000028F7D000F04CF9B8F1000F05D1D9F807
:10067000001021F01001C9F800100220C5F808038D
:10068000C5F80471A07970B1307860B900F04AF90A
:10069000064600F02FFA6FF0004116B1C4E90410CD
:1006A00001E0C4E904010121284608F050FD08B129
:1006B00000F032F9A772BDE8F08700003C0000208E
:1006C00001000200010003003C05004010ED00E0C5
:1006D00010B5EFF3108472B60A48417829B1417819
:1006E000491E4170417829B108E040F20D116D209A
:1006F00000F090F9807808B900F022F9002C00D1C0
:1007000062B610BD3C00002010B5EFF3108472B645
:1007100006484178491C41704078012801D108F011
:100720002DFD002C00D162B610BD00003C00002061
:10073000054810B5C17821B100210171C170FFF7E2
:10074000C7FF002010BD00003C00002070B50C4C1D
:10075000E17861B90125E570E061FFF7D5FF00F0B0
:10076000E1F830B1E06910B180470020E06100207D
:1007700070BD4FF080402571C0F80453F7E70000CA
:100780003C0000202DE9F04104006FF015003CD042
:100790002178042939D80029617838D0002934D14A
:1007A000A178002931D1002008F097FC002008F042
:1007B00087FC4FF080484FF0FF31C8F80813002540
:1007C000C8F80051C8F80451C8F80C51C8F81051C5
:1007D000134E7570A088B08108F0C7FC012708B1DE
:1007E000F77077700121404608F0B1FC08B100F0C5
:1007F00093F82046FFF7A0FE7772002008F060FC17
:100800004FF0E0212846C1F80071BDE8F0810029D1
:10081000FBD02029F9D8A1782129C4D9F5E7000017
:100820003C00002001488089704700003C00002007
:1008300010B50D4808F0FAFC0B49083948B1012001
:1008400008704FF0E021C1F80002BDE81040FFF74A
:100850005BBF887A022801D1FFF7C8FDBDE81040D0
:10086000014808F0FABC0000440000200248807AE9
:10087000002800D0012070473C000020F8B51F4D33
:10088000E87A00280FD1287E00F0030008F07BFCF6
:10089000002808D0EFF3108172B6FFF7E7FF18B118
:1008A000002900D162B6F8BD0126AE7201B962B668
:1008B00018204FF08044C4F80803A6614FF420705C
:1008C000ADF80000BDF80000411EADF80010F9D2EF
:1008D0000027C4F80C71C4F810710848083008F0FB
:1008E000B8FC2F70FFF782FD6661687900F07F0029
:1008F000C4F838051820C4F80403F8BD3C000020F3
:1009000010B5044C207E00F0030008F03CFC0028E9
:10091000F8D010BD3C00002001490120087070474C
:10092000B00200204FF08040D0F8000118B9034811
:100930000078002800D0012070470000B00200209D
:100940004FF08040012141600021C0F800110148B2
:1009500001707047B00200200248006800F00300F8
:10096000704700001C04004010B531B1012907D0C8
:1009700040F2023105A000F021F8D0F8140401E0A3
:10098000D0F8080400F0010010BD00006E72665F30
:10099000636C6F636B2E6800BFF34F8F054801686F
:1009A000054A01F4E06111430160BFF34F8F00BFBE
:1009B000FDE700000CED00E00400FA0572B6034A02
:1009C000526802B19047FFF7E7FF00005C0000208B
:1009D000064810B50021016001210160084608F0B9
:1009E000F9FBBDE81040012008F0E7BBFC1F004008
:1009F000074810B501214160891EC0F808130C207A
:100A000008F0E8FBBDE810400C2008F0D6BB000061
:100A100000C000400EB572B60F4A5568D5B100222D
:100A200003466E460A2403E0B0FBF4F0521CD2B237
:100A30000028F9D1B05409E0B3FBF4F004FB103006
:100A4000B3FBF4F3521ED2B23030B054002AF3D1CB
:100A50003046A847FFF7A0FF5C00002070B5174C98
:100A600006460D46607810B14FF0FF3070BD06B9F4
:100A7000134E62602570FFF7ABFFFFF7B9FF3046FA
:100A8000FFF780FE0600F1D1FEF7D2FEFFF7F6FE7B
:100A900008F06EFA284608F090FB0120002D09DBD3
:100AA00005F01F0100FA01F16A09920002F1E0224B
:100AB000C2F800116070304670BD00005C0000207C
:100AC000F691010001484078704700005C0000206A
:100AD000074890F90000002809DB00F01F020121FF
:100AE00091404009800000F1E020C0F800127047FA
:100AF0005C0000202DE9F04101264FF0E022310397
:100B00004FF000084046C2F88011BFF34F8FBFF38B
:100B10006F8F164CC4F800010C2008F07AFB144DBE
:100B20002868C04340F30017286840F01000286090
:100B3000C4F8046326607F1C02E000BF00F090F858
:100B4000D4F800010028F9D01FB9286820F010005F
:100B50002860084805686660C4F80863C4F8008126
:100B60000C2008F056FB2846BDE8F08100C000408C
:100B700010ED00E008C5004010B5024605200C4904
:100B800004E000BF01EBC0031B7933B1401EC0B2CB
:100B9000F8D248216920FFF73DFF41F8302001EBF2
:100BA000C00100224A718A7101220A7110BD000041
:100BB000DC14002010B5052801D3582106E00A49AD
:100BC00001EBC0000179012903D059216920FFF709
:100BD00021FF41798279491CC9B28A4200D0417112
:100BE000BDE81040FFF774BFDC14002070B5052588
:100BF0000E4E0F4C16E0217806EBC1000279012A57
:100C000008D1427983799A4204D04279827156F8A8
:100C1000310080472078401CC0B22070052801D3E5
:100C2000002020706D1EEDB2E5D270BDDC140020F6
:100C3000B102002000B508F01BFB40B908F022FB10
:100C400028B908F036FB10B908F047FB08B1024894
:100C500000BD024800BD00000C05004000E7014057
:100C600010B508F03AFB30B3EFF31080C8B10021A3
:100C700072B6124802680368C2F3001243F0100310
:100C800003604FF0E023D3F80042D3F804321C4352
:100C900000D040BF20BF00BF00BF00BF00BF12B1E7
:100CA00005E00121E4E7026822F010020260002959
:100CB00000D062B610BD20BF10BD000010ED00E0F6
:100CC0000149012088707047640000204B950100A5
:100CD0007B95010067950100559501006195010024
:100CE0004F95010049950100479501007795010056
:100CF0006D9501005B95010041950100399501005A
:100D00003D950100339501000148006800680047E7
:100D10007800002001480068406900477800002002
:100D2000014A1268D2681047780000200148006824
:100D30000069004778000020014A12689268104755
:100D40007800002001490968896A08477800002076
:100D50000148007870470000B20200201FB5174C10
:100D6000207A022800D202208DF80100E0790328C1
:100D700000D203208DF80000A079ADF8040060795E
:100D8000ADF80200684606F0BBF908B1832110E017
:100D9000E068029002A806F0C9F908B1872108E0CE
:100DA00007480068039003A80BF0ECFC002803D070
:100DB0008B21032000F0E2F81FBD00000415002085
:100DC0006410010010B528B11422044908F0D7FAC4
:100DD000002010BD6FF0150010BD00008010010054
:100DE00070B503006FF02C0003D1294C63780BB170
:100DF000801170BD09B36FF015057AB3254B0C292E
:100E000041D2DFE801F04006090C10131B2316261F
:100E10002C31107818702BE01078587028E010688A
:100E2000C3F8050024E01068D86021E010789870BD
:100E30001EE011780029DCD1D97019E0E07810B1FA
:100E4000107802281FD31078187411E01088588287
:100E50000EE011780029CCD1197109E013E0107867
:100E6000022810D3187503E011780029C1D15975F3
:100E700001220849002008F0A1FBB0F5803F04DB07
:100E80006FF00B0070BD284670BD0121A17070BDD0
:100E90007C0000200415002070B50C46050019D018
:100EA000C4B100F013F9C0B12846FFF765FE0C4D40
:100EB00000220C492870204608F080FB0CF061F9F4
:100EC0000021287806F0EEFAFFF748FF012068704D
:100ED000002070BD6FF0150070BD4FF0FF3070BD89
:100EE0007C0000200415002030B587B005000CD030
:100EF000FFF7E8FD4FF0FF3420B1FFF793FCB0F5AA
:100F0000FA7F05D9204607B030BD6FF01500FAE72B
:100F1000154C1648656000F0E9F900206070A0707B
:100F2000E07001461822684608F0A3FA182210491A
:100F3000684608F024FA182269460E4808F01FFA9D
:100F4000EFF3108472B66FF00C0000F047FD0A4812
:100F500000F012FE18B19821032000F00FF804B938
:100F600062B60020CFE700007C0000205D0D01008C
:100F70006810010004150020F91001000EB572B6CA
:100F8000154A5568D5B1002203466E460A2403E08F
:100F9000B0FBF4F0521CD2B20028F9D1B05409E0F1
:100FA000B3FBF4F004FB1030B3FBF4F3521ED2B2E7
:100FB0003030B054002AF3D13046A847BFF34F8FEA
:100FC00006480168064A01F4E06111430160BFF37D
:100FD0004F8F00BFFDE700007C0000200CED00E01B
:100FE0000400FA05064810B581784078014302D024
:100FF0004FF0FF3010BD06F071FA002010BD000068
:101000007C000020064810B581784078014302D06A
:101010004FF0FF3010BD06F0A1F8002010BD000019
:101020007C000020064810B581784078014302D04A
:101030004FF0FF3010BD0BF078FD002010BD000018
:101040007C000020064810B581784078014302D02A
:101050004FF0FF3010BD06F053FA002010BD000025
:101060007C0000200100000001010100001B1B03A7
:10107000020000004C1D000003001F0000000000E3
:1010800033782A1820F56161A68B77606283392A4C
:101090007CF114E4054A10B5526812B1BDE8104065
:1010A000104792210420FFF769FF00001C15002063
:1010B000054A10B5926812B1BDE81040104798215A
:1010C0000420FFF75BFF00001C15002005480168A5
:1010D00029B1416819B1806808B10120704700202A
:1010E000704700001C15002002490DC881E80D0062
:1010F000002070471C150020F8B5124C002625680A
:1011000011E00098022802D003280CD106E02068E4
:1011100010B10020266005E028210CE0206868B1AD
:1011200001202660A847684600F0F8FC0028E8D0B7
:10113000052805D035210420FFF720FF2D21FAE7EF
:10114000F8BD0000840000207CB51F4C05462078C7
:1011500040B1A278611C2846921C08F010F90020CA
:10116000207021E0194801F0E1FF00281DD0174C44
:101170002078112804D10A213E2008F0C2FA18B1C3
:101180002078082805D009E01049284608F0C3FC5B
:101190000AE005213E2008F0B4FA38B10B49284690
:1011A00008F00DFB002800D001207CBDA088ADF820
:1011B000000001A9684608F0CCFD0028F5D09C216C
:1011C0000820FFF7DBFE0000BA160020B81500204B
:1011D00070B50A7882703AB3012A25D813230370B8
:1011E00000230AE001EB430400EB4305A678EE7010
:1011F0006488240A5B1C2C71DBB29342F2D3002377
:101200000BE000BF01EB430500EB43042E79667150
:10121000AD882D0A5B1CA571DBB29342F2D301218C
:1012200001EB8200C0B270BD002070BD01210C4AEC
:1012300040280CD2202803D8401E8140106802E0CC
:10124000213881405068014207D100207047FF28B3
:1012500003D0403881409068F5E7012070470000D6
:10126000880000200121401E81400448C0680142DE
:1012700001D0012070470020704700008800002046
:1012800001490068C860704788000020044902686E
:10129000406842F48C220A60024A1043486070475A
:1012A00088000020F8074002014900688860704704
:1012B0008800002005484FF0FF310160C90C4160F3
:1012C000002181601F21C16070470000880000205C
:1012D00010B5FFF7EFFF0BF099FB044602480068DA
:1012E00000B18047204610BD9800002001490860E9
:1012F00070470000980000200221018041800021F9
:1013000001713321417142F67821C1800149816028
:10131000002070471820F5613EB50446694609F083
:101320007AF870B140F25A2108E000BFBDF804001D
:10133000214600F0ABF820B140F25F211720FFF703
:101340001DFE684600F052F80028EFD03EBD0000B8
:1013500010B5022804D34FF4D6711720FFF70EFE04
:101360000149085C10BD000028150020F8B50500F3
:10137000009510D00026087849780446A14200D98B
:101380000C46EA1C22F00302AA4206D040F2791170
:101390001720FFF7F3FD0126EDE7134F3870797042
:1013A0003146684600F0EEF800210B460098C01C5C
:1013B00020F0030000906EB907EB8102D06000209E
:1013C00006E000BFD2F80CC04CF82030401CC0B280
:1013D000A042F7D30098491C00EB8400C9B20090EA
:1013E0000229E3D3401BF8BD2815002070B5044640
:1013F00009F0BDF908B1102070BD257800F0FEF8A5
:1014000002460C48618800EB85000EE0C36853F883
:10141000213043B14A1C6280A180C06850F821008D
:10142000A060002070BD491C89B29142EED361805A
:10143000052070BD281500202DE9F04121B10129BA
:1014400002D00020BDE8F0810F4C00273B464FF64C
:10145000FF7604EB810514F801C00AE0DC19D5F829
:101460000CE0A4B25EF824E0BEF1000F04D05B1CD7
:101470009BB29C45F2D8344604802046B442E0D06A
:10148000BDE8F04100F034B8281500202DE9F04106
:101490000646A0F57F400C4643F20207FF3820D0F5
:1014A000022C02D30720BDE8F081304600F05AF844
:1014B000050016D00C48294650F8242030469047A5
:1014C0000A48002100EB8407F86840F826102046FF
:1014D00000F08AF802462946786808F07BFF002071
:1014E000E1E73846DFE700001C1601002815002060
:1014F0002DE9F04190460D46074608F09DFF48B1A2
:10150000164800EB8506F06850F8270028B14FF424
:101510009D7115E040F2391112E0706800281AD070
:10152000284600F061F80146706808F005FF0400E5
:1015300010D0F068022D40F8274004D340F2451146
:101540001720FFF71BFD06484246214650F825307C
:10155000384698472046BDE8F08100002815002055
:101560001416010070B50C46054608F065FF00280A
:1015700005D0034800EB8400C06850F8250070BD1A
:10158000281500202DE9F843164E8846054600240C
:101590002868C01C20F003002860204600F024F8D2
:1015A000315D4843B8F1000F01D0002200E02A6805
:1015B0000146009232B100274FEA0D0008F0E9FE23
:1015C0001FB106E001270020F8E706EB8401009A2E
:1015D0004A602968641C0844E4B22860022CD7D30E
:1015E000BDE8F88328150020034931F810004FF6B4
:1015F000FC71C01C084070471016010003490878B0
:101600004978884200D2084670470000281500201B
:101610002802D4004DA401004DA40100BFBF010069
:101620008DB401002DE9FF4F264C804681B0206823
:101630009A46934658B1027A424503D9416851F817
:10164000280040B143F2020005B0BDE8F08FA521AB
:101650001820FFF793FC1946029808F00FFF86B296
:1016600058460E9908F001FF85B27019001D87B227
:101670002068A1463946006808F05EFE04001FD0CD
:10168000678025802946201D0E9D07465A46012366
:10169000009508F0B1FD2088314638440123029AB4
:1016A000CDF800A008F0A8FD2088C119384608F040
:1016B000D4FDD9F800004168002041F82840C3E774
:1016C0000420C1E79C00002070B5144C23688BB146
:1016D000197A814212D95A6852F8201071B1002546
:1016E00042F820504A88186808F074FE21680020EB
:1016F0000A7A0CE0C8211820FFF740FC43F20200F0
:1017000070BD4B6853F8203033B9401CC0B28242E0
:10171000F7D8086808F053FE002070BD9C00002038
:101720002DE9F0410D46040090464FF0000609D027
:101730000027E01C20F00300A04205D086211820DD
:10174000FFF71CFC0127F4E7CDB11146002008F09B
:1017500020FE0C3000EB85068FB90A4F04F10C0017
:10176000AA003C602572606000EB850020600021CB
:10177000606807F07EFE4146386808F00AFE304691
:10178000BDE8F0819C00002070B5084D2868002855
:101790000AD0002404E02046FFF796FF641CE4B260
:1017A0002868007AA042F6D870BD00009C00002096
:1017B000094910B502460968002049B10B7A9342E5
:1017C00005D9496851F82210002900D0081D10BD24
:1017D000EE211820FFF7D2FB9C0000200A4910B52B
:1017E00002460968002059B10B7A934207D949682B
:1017F00051F82210002902D031F8040B084410BD22
:10180000FC211820FFF7BAFB9C00002070B51E4B8E
:10181000456804460022A1B1012060705888810803
:101820005FF0000004EB400304EB80061A83198488
:1018300000FB015373602318401C1A750428F1D370
:1018400070BD62705FF0000004EB40010A830A84FF
:1018500004EB80014A602118401C0A750428F3D368
:101860005888B0F5FF7F01D2460800E0FF2608F057
:1018700078FE656020842918A1606684E560A084F4
:101880002161E68470BD0000A00000202DE9F04138
:1018900070B100251144CCB2244EC11C002721F0A8
:1018A00003013470814205D04E210920FFF766FB09
:1018B0000125EFE71F2B04D84FF6FF7101EA8301E2
:1018C00009E05900FF2B0BD903F1FF02B2EB430FE4
:1018D00000D2114689B2C91C21F0030335B107E0DB
:1018E0007C22B2EB430FF5D37C21F3E77060738069
:1018F00004EB840107EBC102002176684FF0010C74
:101900000DE04DB901EB810700EB020E06F837C080
:1019100006EBC707C7F804E0491C1A44C9B2A14244
:10192000EFD3D21D22F00700BDE8F081A000002017
:1019300070B5104A00205168127814E000EB800363
:1019400011F833306BB100EB800011EBC0040CD008
:101950000025A57001212046FFF758FF257020467D
:1019600070BD401CC0B29042E8D3A9210920FFF706
:1019700005FB0000A0000020044810B54088840842
:1019800008F0EFFD844200D3204610BDA0000020E7
:1019900030B50D4901204860821EC1F808230B496B
:1019A00088600023C1F80032C1F80823084C236086
:1019B000251D28608860C1F8082323602860064937
:1019C0000448086030BD000000E0004000F0004026
:1019D00000F500400000F63F08F5014010B5044650
:1019E000FFF7D6FF08F090FE00F088F8054904489C
:1019F0000860204600F0B8F8BDE8104000F0D0B80C
:101A00000000F63F08F501402DE9F84F82463848BE
:101A100007F00CFCDFF8D8B028B101260BF101006B
:101A2000FF21017000E000264FF48075314C4FF02B
:101A300000082F1D01216160C4F80081C4F80481F1
:101A4000C4F804A52160DFF8B0901CE0D9F80000CC
:101A5000C00618D50E2008F066FEEFF31080009047
:101A600072B603212046C4F80413294608F068FE24
:101A700030B93946204608F063FE08B9FFF7F0F8A0
:101A8000009800B962B62946204608F059FE28B9E8
:101A90003946204608F054FE0028D7D03946204663
:101AA00008F04EFE0028C5D106BB9BF801108DF84A
:101AB0000010009900919DF8001009B1012500E087
:101AC00000250BF1010080F800800320C4F8080312
:101AD000C4F80481C4F800810E2008F024FE0448F4
:101AE00007F0BBFB15B11120BDE8F88F0020FBE724
:101AF000B302002000E0004010ED00E010B5064801
:101B000007F0A7FB18B127211D20FFF737FA02487D
:101B10000021417010BD0000B302002070B51149D2
:101B20000A68EAB100231D4601244A68521C4A6033
:101B3000092A00D34D600E7904FA06F20E681642A7
:101B40000BD0EFF3108372B60C6894430C6003B9AA
:101B500062B649680160002070BD5B1C092BE4D3AC
:101B6000052070BDA80000200248002101604160EE
:101B700070470000A800002010B5084C617809B13A
:101B80000F2010BDFEF7F8FF2070FF2801D00020C5
:101B900010BD78211F20FFF7F1F90000B0000020F0
:101BA0000149002048707047B00000200648074AED
:101BB000818C5288914204D190F8220008B1002013
:101BC0007047012070470000BC17002098020020D9
:101BD0000149488070470000980200200848094ADF
:101BE000818C5288914209D14FF6FF71818410F89F
:101BF000221F19B100210170012070470020704799
:101C0000BC17002098020020074810F8221F012965
:101C100007D001210170054803490088888401200C
:101C20007047002070470000BC1700209802002079
:101C30000649074B8A8C5B889A4205D191F822208D
:101C400012B101600120704700207047BC170020CE
:101C50009802002009498A8CA2F57F43FF3B02D0FD
:101C60000021016007E091F822200449012A02D0F6
:101C7000016001207047002070470000BC17002061
:101C800001490880704700009802002005490020A3
:101C900081F822004FF6FF7088840349088048804D
:101CA00070470000BC1700209802002005498A8C6C
:101CB000824205D1002081F822004FF6FF7088840F
:101CC00070470000BC1700200A4A10B1012807D055
:101CD0000EE0507860B1D2F802000860D08804E0CD
