:1000000000430020CDBE00002F4C0100A1BE000027
:10001000A1BE0000A1BE0000A1BE000000000000C3
:10002000000000000000000000000000E5BA000031
:10003000A1BE00000000000055BA0000A1BE0000F3
:1000400059BC000059BC000059BC000059BC00005C
:1000500059BC000059BC000059BC000059BC00004C
:1000600059BC000059BC000059BC000059BC00003C
:1000700059BC000059BC000059BC000059BC00002C
:1000800059BC000059BC000059BC000059BC00001C
:1000900059BC000059BC000059BC000059BC00000C
:1000A00059BC000059BC000059BC000059BC0000FC
:1000B00059BC000059BC000059BC000059BC0000EC
:1000C00059BC000059BC000059BC000059BC0000DC
:1000D00059BC000059BC000059BC000059BC0000CC
:1000E00059BC000059BC000059BC000059BC0000BC
:1000F00059BC000059BC000059BC000059BC0000AC
:1001000001F0FF01102A2BDB10F0070F08D010F8C8
:10011000013B013A8B422DD010F0070F42B3F6D1CC
:10012000F0B441EA012141EA014122F007047FF0E5
:1001300000070023F0E80256083C85EA010586EA3C
:10014000010685FA47F5A3FA87F586FA47F6A5FA78
:1001500087F68EB9EED1F0BC01F0FF0102F0070284
:1001600032B110F8013B013A83EA010313B1F8D12F
:100170000020704701387047002D06BF3546033810
:10018000073815F0010F07D1013015F4807F02BF49
:10019000013015F4C03F0130F0BC0138704700BF9A
:1001A00081F0004102E000BF83F0004330B54FEA28
:1001B00041044FEA430594EA050F08BF90EA020F95
:1001C0001FBF54EA000C55EA020C7FEA645C7FEA28
:1001D000655C00F0E2804FEA5454D4EB5555B8BF4B
:1001E0006D420CDD2C4480EA020281EA030382EABC
:1001F000000083EA010180EA020281EA0303362D4E
:1002000088BF30BD11F0004F4FEA01314FF4801C20
:100210004CEA113102D0404261EB410113F0004F32
:100220004FEA03334CEA133302D0524263EB4303E9
:1002300094EA050F00F0A780A4F10104D5F1200E87
:100240000DDB02FA0EFC22FA05F2801841F10001E2
:1002500003FA0EF2801843FA05F359410EE0A5F1B6
:1002600020050EF1200E012A03FA0EFC28BF4CF0E7
:10027000020C43FA05F3C01851EBE37101F000459D
:1002800007D54FF0000EDCF1000C7EEB00006EEBAA
:100290000101B1F5801F1BD3B1F5001F0CD3490834
:1002A0005FEA30004FEA3C0C04F101044FEA44528B
:1002B00012F5800F80F09A80BCF1004F08BF5FEA12
:1002C000500C50F1000041EB045141EA050130BDF2
:1002D0005FEA4C0C404141EB0101013C28BFB1F504
:1002E000801FE9D291F0000F04BF01460020B1FA4F
:1002F00081F308BF2033A3F10B03B3F120020CDA22
:100300000C3208DD02F1140CC2F10C0201FA0CF0FF
:1003100021FA02F10CE002F11402D8BFC2F1200C64
:1003200001FA02F120FA0CFCDCBF41EA0C0190401A
:10033000E41AA2BF01EB0451294330BD6FEA040463
:100340001F3C1CDA0C340EDC04F11404C4F120024E
:1003500020FA04F001FA02F340EA030021FA04F360
:1003600045EA030130BDC4F10C04C4F1200220FAB7
:1003700002F001FA04F340EA0300294630BD21FAF5
:1003800004F0294630BD94F0000F83F4801306BFBB
:1003900081F480110134013D4EE77FEA645C18BFAF
:1003A0007FEA655C29D094EA050F08BF90EA020F46
:1003B00005D054EA000C04BF1946104630BD91EA3E
:1003C000030F1EBF0021002030BD5FEA545C05D141
:1003D0004000494128BF41F0004130BD14F5800480
:1003E0003CBF01F5801130BD01F0004545F0FE41F4
:1003F00041F470014FF0000030BD7FEA645C1ABF29
:10040000194610467FEA655C1CBF0B46024650EA5F
:10041000013406BF52EA033591EA030F41F400218B
:1004200030BD00BF90F0000F04BF0021704730B511
:100430004FF4806404F132044FF000054FF00001E6
:1004400050E700BF90F0000F04BF0021704730B5A7
:100450004FF4806404F1320410F0004548BF40427C
:100460004FF000013EE700BF42004FEAE2014FEAD1
:1004700031014FEA02701FBF12F07F4393F07F4FAC
:1004800081F06051704732F07F4208BF704793F0AF
:100490007F4F04BF41F40021704730B54FF46074C2
:1004A00001F0004521F000411CE700BF50EA0102C5
:1004B00008BF704730B54FF000050AE050EA01026E
:1004C00008BF704730B511F0004502D5404261EBDE
:1004D00041014FF4806404F132045FEA915C3FF41F
:1004E000D8AE4FF003025FEADC0C18BF03325FEABC
:1004F000DC0C18BF033202EBDC02C2F1200300FA6D
:1005000003FC20FA02F001FA03FE40EA0E0021FA91
:1005100002F11444BDE600BF70B54FF0FF0C4CF47F
:10052000E06C1CEA11541DBF1CEA135594EA0C0F31
:1005300095EA0C0F00F0DEF82C4481EA030621EA6C
:100540004C5123EA4C5350EA013518BF52EA0335A7
:1005500041F4801143F4801338D0A0FB02CE4FF059
:100560000005E1FB02E506F00042E0FB03E54FF089
:100570000006E1FB03569CF0000F18BF4EF0010E81
:10058000A4F1FF04B6F5007F64F5407404D25FEA7D
:100590004E0E6D4146EB060642EAC62141EA555130
:1005A0004FEAC52040EA5E504FEACE2EB4F1FD0C72
:1005B00088BFBCF5E06F1ED8BEF1004F08BF5FEAF0
:1005C000500E50F1000041EB045170BD06F00046A2
:1005D00046EA010140EA020081EA0301B4EB5C044F
:1005E000C2BFD4EB0C0541EA045170BD41F4801147
:1005F0004FF0000E013C00F3AB8014F1360FDEBF6C
:10060000002001F0004170BDC4F10004203C35DA47
:100610000C341BDC04F11404C4F1200500FA05F3CA
:1006200020FA04F001FA05F240EA020001F000426B
:1006300021F0004110EBD37021FA04F642EB0601E1
:100640005EEA430E08BF20EAD37070BDC4F10C040B
:10065000C4F1200500FA04F320FA05F001FA04F2CF
:1006600040EA020001F0004110EBD37041F10001BB
:100670005EEA430E08BF20EAD37070BDC4F12005C6
:1006800000FA05F24EEA020E20FA04F301FA05F22E
:1006900043EA020321FA04F001F0004121FA04F2D6
:1006A00020EA020000EBD3705EEA430E08BF20EAA6
:1006B000D37070BD94F0000F0FD101F000464000E0
:1006C00041EB010111F4801F08BF013CF7D041EA62
:1006D000060195F0000F18BF704703F00046520066
:1006E00043EB030313F4801F08BF013DF7D043EA37
:1006F0000603704794EA0C0F0CEA135518BF95EAED
:100700000C0F0CD050EA410618BF52EA4306D1D173
:1007100081EA030101F000414FF0000070BD50EA92
:10072000410606BF1046194652EA430619D094EA1C
:100730000C0F02D150EA013613D195EA0C0F05D106
:1007400052EA03361CBF104619460AD181EA03015A
:1007500001F0004141F0FE4141F470014FF0000012
:1007600070BD41F0FE4141F4780170BD70B54FF0AD
:10077000FF0C4CF4E06C1CEA11541DBF1CEA13552D
:1007800094EA0C0F95EA0C0F00F0A7F8A4EB05040F
:1007900081EA030E52EA03354FEA013100F0888006
:1007A0004FEA03334FF0805545EA131343EA1263CF
:1007B0004FEA022245EA111545EA10654FEA002684
:1007C0000EF000419D4208BF964244F1FD0404F53D
:1007D000407402D25B084FEA3202B61A65EB030599
:1007E0005B084FEA32024FF480104FF4002CB6EB56
:1007F000020E75EB030E22BFB61A754640EA0C00D6
:100800005B084FEA3202B6EB020E75EB030E22BF15
:10081000B61A754640EA5C005B084FEA3202B6EB56
:10082000020E75EB030E22BFB61A754640EA9C0015
:100830005B084FEA3202B6EB020E75EB030E22BFE5
:10084000B61A754640EADC0055EA060E18D04FEAA3
:10085000051545EA16754FEA06164FEAC30343EA43
:1008600052734FEAC2025FEA1C1CC0D111F4801F10
:100870000BD141EA00014FF000004FF0004CB6E709
:1008800011F4801F04BF01430020B4F1FD0C88BFA8
:10089000BCF5E06F3FF6AFAEB5EB030C04BFB6EBB3
:1008A000020C5FEA500C50F1000041EB045170BDA6
:1008B0000EF0004E4EEA113114EB5C04C2BFD4EBD3
:1008C0000C0541EA045170BD41F480114FF0000E57
:1008D000013C90E645EA060E8DE60CEA135594EAD3
:1008E0000C0F08BF95EA0C0F3FF43BAF94EA0C0FD6
:1008F0000AD150EA01347FF434AF95EA0C0F7FF44B
:1009000025AF104619462CE795EA0C0F06D152EA9E
:1009100003353FF4FDAE1046194622E750EA410682
:1009200018BF52EA43067FF4C5AE50EA41047FF493
:100930000DAF52EA43057FF4EBAE12E74FF0FF3CF8
:1009400006E000BF4FF0010C02E000BF4FF0010CC9
:100950004DF804CD4FEA410C7FEA6C5C4FEA430C42
:1009600018BF7FEA6C5C1BD001B050EA410C0CBF91
:1009700052EA430C91EA030F02BF90EA020F0020F3
:10098000704710F1000F91EA030F58BF994208BF5A
:1009900090422CBFD8176FEAE37040F00100704717
:1009A0004FEA410C7FEA6C5C02D150EA013C07D16E
:1009B0004FEA430C7FEA6C5CD6D152EA033CD3D0B9
:1009C0005DF8040B704700BF8446104662468C46B3
:1009D0001946634600E000BF01B5FFF7B7FF0028E6
:1009E00048BF10F1000F01BD4DF808EDFFF7F4FF0F
:1009F0000CBF012000205DF808FB00BF4DF808ED9A
:100A0000FFF7EAFF34BF012000205DF808FB00BFBC
:100A10004DF808EDFFF7E0FF94BF012000205DF8DE
:100A200008FB00BF4DF808EDFFF7CEFF94BF012093
:100A300000205DF808FB00BF4DF808EDFFF7C4FF8C
:100A400034BF012000205DF808FB00BF4FEA4102DF
:100A500012F5001215D211D56FF47873B3EB625210
:100A600012D94FEAC12343F0004343EA505311F037
:100A7000004F23FA02F018BF404270474FF00000C9
:100A8000704750EA013005D111F0004008BF6FF007
:100A9000004070474FF00000704700BF4FEA41022E
:100AA000B2F1E04324BFB3F5001CDCF1FE5C0DD9CC
:100AB00001F0004C4FEAC0024CEA5070B2F1004F16
:100AC00040EB830008BF20F00100704711F0804F19
:100AD00021D113F13872BCBF01F00040704741F4DE
:100AE00080114FEA5252C2F11802C2F1200C10FAE2
:100AF0000CF320FA02F018BF40F001004FEAC123C6
:100B00004FEAD32303FA0CFC40EA0C0023FA02F369
:100B10004FEA4303CCE77FEA625307D150EA01333F
:100B20001EBF4FF0FE4040F44000704701F000400F
:100B300040F0FE4040F40000704700BF7BB972B93E
:100B40000029BEBF00204FF0004106E008BF00288A
:100B50001CBF6FF000414FF0FF3000F075B8ADF1F1
:100B6000080C6DE904CE002909DB002B1ADB00F02C
:100B7000BAF8DDF804E0DDE9022304B07047404232
:100B800061EB4101002B1BDB00F0ADF8DDF804E068
:100B9000DDE9022304B0404261EB4101524263EBC4
:100BA00043037047524263EB430300F09CF8DDF8C7
:100BB00004E0DDE9022304B0404261EB41017047EB
:100BC000524263EB430300F08EF8DDF804E0DDE908
:100BD000022304B0524263EB4303704753B94AB94E
:100BE000002908BF00281CBF4FF0FF314FF0FF3035
:100BF00000F02AB8ADF1080C6DE904CE00F073F8EE
:100C0000DDF804E0DDE9022304B07047D0B50C4BF9
:100C1000002206460F46FFF77FFC00F017F8044657
:100C2000FFF700FC074B0022FFF776FC02460B465D
:100C300030463946FFF7B8FA00F008F82146D0BD33
:100C40000000F03D0000F041704700BF4A0011D2A3
:100C500012F5001211D20DD56FF47873B3EB625216
:100C60000ED44FEAC12343F0004343EA505323FA22
:100C700002F070474FF00000704750EA013002D197
:100C80004FF0FF3070474FF0000070474FEA410CC3
:100C90007FEA6C5C02D150EA013C0AD14FEA430C76
:100CA0007FEA6C5C02D152EA033C02D14FF00000B3
:100CB00070474FF00100704738B50022002304460A
:100CC0000D46FFF79BFE28B920462946BDE838406F
:100CD000FFF79CBF204605F10041FFF797FF404218
:100CE00061EB410138BD2DE9F04F099E88468E46E3
:100CF000154604461946002B40F0C7804245B2FA1B
:100D000082F746D94FB1C7F1200C08FA07F320FA51
:100D10000CFCBD404CEA030EBC404FEA15481FFADC
:100D200085FCBEFBF8F9220C08FB19E309FB0CFA61
:100D300042EA03439A4528D9EB1809F1FF3004D25F
:100D40009A4502D9A9F102002B44A3EB0A03A4B2ED
:100D5000B3FBF8F208FB123302FB0CFC44EA034439
:100D6000A44514D92C1902F1FF3303D2A44501D9AB
:100D7000931E2C44A4EB0C0443EA00401EB1FC403B
:100D8000002334607360BDE8F08F4846DDE713460A
:100D9000F0E702B9FFDE8FBBA8EB020301214FEAA7
:100DA000154EAAB2B3FBFEFC200C0EFB1C330CFB51
:100DB00002F840EA0343984563D9EB180CF1FF3081
:100DC00004D2984502D9ACF102002B44A3EB0803EE
:100DD000A4B2B3FBFEFC0EFB1C330CFB02F244EA94
:100DE0000344A2424FD92C190CF1FF3304D2A24282
:100DF00002D9ACF102032C44A41ABDE7C7F1200CC0
:100E000028FA0CF908FA07F320FA0CFCBD404CEA6A
:100E100003024FEA154EABB2B9FBFEFC110C0EFB00
:100E20001C900CFB03F841EA0040804504FA07F4EB
:100E300023D928180CF1FF3104D2804502D9ACF136
:100E400002012844A0EB080092B2B0FBFEFC0EFBAE
:100E50001C000CFB03F842EA004398450FD9EB183D
:100E60000CF1FF3204D2984502D9ACF102022B44B6
:100E7000A3EB080342EA014191E76146E2E76246DB
:100E8000F6E76046A2E76346B6E7434505D90EB1EB
:100E9000C6E900080021084675E7B3FA83FCBCF1F7
:100EA000000F10D1434501D382420AD8841A68EB5F
:100EB000030301209E46002E68D0C6E9004E0021A3
:100EC00061E76046F7E7CCF1200E03FA0CF322FA53
:100ED0000EF41C4320FA0EF108FA0CF328FA0EFB6C
:100EE00019434FEA144902FA0CF5BBFBF9F8A3B217
:100EF00009FB18BB0A0C08FB03FA42EA0B429245B5
:100F000000FA0CF73ED9A21808F1FF3004D292453E
:100F100002D9A8F102002244A2EB0A0289B2B2FB74
:100F2000F9F809FB182208FB03F341EA0242934255
:100F30002AD9A21808F1FF3104D2934202D9A8F1AC
:100F40000201224441EA0040A0FB0598D21A424522
:100F50004B46414602D306D14F4504D2B9EB0503B7
:100F600068EB040101388EB1FC1A62EB010707FA45
:100F70000EFE24FA0CF34EEA030327FA0CF7C6E937
:100F800000379CE74046C7E74146DBE73146FAE6D3
:100F900010F8012B11F8013B012A28BF9A42F7D023
:100FA000D01A7047034613F8012B002AFBD1181AF8
:100FB00001387047000000002DE9F84F00F12107CB
:100FC0002DED028BDDF830B004460E461546FF00CD
:100FD000002B3DD1384610F049FA0546D0B3C5E99B
:100FE000004605F5847A002E44D056464FF0000A9C
:100FF0002046FFF727FAA2458046894606F10806F3
:1010000067DA5046FFF71EFA4BA3D3E90023FFF738
:1010100083FA42464B46FFF7A9FB41EC100B41EC2B
:10102000180B01F0ADFF51EC100BFFF737FDB0EEE0
:10103000480AF0EE680A46F8080C02F075F851EC20
:10104000100BFFF72BFD0AF1010A46F8040CCFE75D
:1010500052B91F60BBF1000F01D0CBF80070BDEC9E
:10106000028B2846BDE8F88F1A681F60BA42B6D2D4
:101070000025EFE72046FFF7E5F9A64280468946BE
:101080000AF1080A25DA3046FFF7DCF92CA3D3E988
:101090000023FFF741FA42464B46FFF767FB41EC5E
:1010A000100B41EC180B01F06BFF51EC100BFFF72C
:1010B000F5FCB0EE480AF0EE680A4AF8080C02F0B7
:1010C00033F851EC100BFFF7E9FC01364AF8040C39
:1010D000D0E72046FFF7B6F941EC100B0DF056FFB4
:1010E00001F0A2FF59EC108B05F1080A042694FBCD
:1010F000F6F306FB1342AAB1022E0FD0042E0FD036
:1011000002363046FFF79EF902460B4640464946F6
:10111000FFF774FC002818BF2646E8E70326F0E72F
:101120000226EEE7012BCAE900631C4692DD0AF1B4
:10113000080ADCE7AFF30080182D4454FB21194066
:10114000182D4454FB2119C02DE9F04F2DED028BD1
:1011500085B0002510F0010A8B4614461F46039502
:1011600009D0634804F044FE2C46204605B0BDEC8F
:10117000028BBDE8F08F451003ABCDF800A05246BE
:101180002846FFF719FF05EB4506039B06EBD676CD
:1011900076100C3303EBC606002F58D1304610F002
:1011A00065F90446002CE0D0039B04F10C021344C3
:1011B000636003EBC503A3600023226059460093DC
:1011C000284603AB05EBD577FFF7F6FE7F10BBF1A2
:1011D000000F42D057457DDD0AF1010A5046FFF766
:1011E00031F9804628468946FFF72CF902460B461E
:1011F00040464946FFF7BAFA3E4B0022FEF7D6FFBB
:1012000037A3D3E90023FFF787F941EC100B41EC3A
:10121000180B01F0B5FE4FEACA08A36851EC100B99
:10122000A8F1080803EB0809FFF738FCB0EE480AFC
:10123000F0EE680AC9F8000001F076FFA36851ECEF
:10124000100B9844FFF72AFCC8F80400C2E73B687B
:101250003E60B342A6D2544687E75F453ADD0BF1C4
:10126000010B5846FFF7EEF8804628468946FFF7FF
:10127000E9F802460B4640464946FFF777FA1D4B10
:101280000022FEF793FF18A3D3E90023FFF744F9E8
:1012900041EC100B41EC180B01F072FE4FEACB0849
:1012A000A36851EC100BA8F1080803EB0809FFF73D
:1012B000F5FBB0EE480AF0EE680AC9F8000001F04C
:1012C00033FFA36851EC100B9844FFF7E7FBC8F815
:1012D0000400C2E7109B002B3FF447AF1E6044E7B9
:1012E000182D4454FB210940182D4454FB2109C0FA
:1012F000284E04000000E03F2DE9F84F4FF0004376
:101300002DED028B23FA00F057EC106B59EC118B8A
:1013100093468A46FFF796F8424604460D464B46EA
:1013200030463946FFF7F8F802460B462046294674
:10133000FFF7F2F802460B4643EC182B0AA3D3E959
:101340000023FFF779FB08B19FED078BB0EE480A49
:10135000F0EE680ABDEC028B59465046BDE8F84FE6
:1013600004F0B0BDAFF300800000C0FFFFFFDF411D
:101370002DE9F74F0446C86815461E468A46FFF712
:1013800073F88046E8688946FFF76EF802460B4618
:1013900040464946FFF7C0F8DDE90C7B80468946A8
:1013A000D6B1F068FFF760F802460B464046494662
:1013B000FEF7FAFE8046F86821F00049FFF754F87E
:1013C00002460B4640464946FFF7D0F911A3D3E940
:1013D0000023FFF71DFB50B13B462A4651462046ED
:1013E000CDF830B003B0BDE8F04F04F087BD064B38
:1013F000009320466569054A05494FF4A273A84742
:10140000012003B0BDE8F08FDD4E04006D4E0400F6
:10141000AD4E04007B14AE47E17A943F000000001B
:101420002DE9F0430B682DED028B1E68012E89B06B
:101430000446894611D001259C4B0193CDE90265F4
:101440009B4B009344699B4A9B495D23A0472846D8
:1014500009B0BDEC028BBDE8F0834B681D68012D1F
:101460000CD0924B0193CDE90256944B0093446902
:10147000904A91495E23A0470125E8E7002210F039
:1014800071F8804640B98E4B009366696023894AA3
:101490008C492046B047DAE783681B68002B04DCE0
:1014A000894B009366696123F1E700224946204693
:1014B00010F05BF8064620B9844B009366696323FD
:1014C000E5E7D9F8107027B9814B00936669652369
:1014D000DDE798F80030072B17D1A36B40F20241EB
:1014E0002046984720B97B4B009366696B23CEE773
:1014F000B862A36B40F202412046984720B9764B70
:10150000009366696F23C2E7F862327898F800307A
:10151000072A0CD1092B3DD0072B17D06F4B009316
:1015200065697523634A67492046A847A4E79A423C
:1015300030D0CDE902326A4B01936A4B0093656962
:1015400078235C4A5C492046A84795E733694BB14C
:101550000022CDE90232644B0193644B009365692C
:101560007D23EEE7B96ADFED620A624840F20122AC
:10157000BAEE040A07F090F8F96A9FED5D0A5E483A
:1015800040F20122F7EE000A07F086F83369FB61AA
:10159000F3683B6298F80050D9F81490092D39D0BF
:1015A000072D40F0298133694BB10022CDE9023289
:1015B0004D4B01934D4B009365692523C1E7DFED4A
:1015C0004F7A96ED037ADFED4E6AB4EEE77AF1EEEC
:1015D00010FACCBF77EE677A77EEC77AF4EEE67A48
:1015E000F1EE10FA40F3C1804FF07C53002217EE69
:1015F000100ACDE90423FEF737FF424B0193CDE9F2
:101600000201414B0093656926232A4A3F4920463F
:10161000A84731E73078072833D1336913F5004FF5
:1016200009D03B4ACDE902323A4B01932F4B00934C
:1016300065692B2385E7DFED387A96ED037ADFEDD8
:10164000376AB4EEE77AF1EE10FACCBF77EE677A3C
:1016500077EEC77AF4EEE67AF1EE10FA40F3A68060
:101660002F4B002217EE100ACDE90423FEF7FCFEF3
:101670002C4B0193CDE90201234B009365692C2388
:10168000C3E7092854D0676908F0DAF80646284607
:1016900008F0D6F8244B0193114B0093CDE902607A
:1016A000044A22492F232046B847E5E66B5604003A
:1016B00043560400FF550400054F0400C7550400BD
:1016C0003A510400AD4E0400535604005D5104002D
:1016D0006D560400885604009F5604009B4F04007A
:1016E0006F5104007C51040022590400C2560400CA
:1016F000000000006B2101005D21010000000038A6
:101700006F120333FC56040008570400DC56040033
:101710000080FFFF1D570400000080376F128332E6
:101720000000F03E24570400D54F0400025404008A
:10173000336913F1800F0AD06FF07F02CDE90232D6
:10174000494B0193494B009365693023F9E696EDC7
:10175000037ADFED477AB4EE677AF1EE10FA25D01E
:10176000444B009365693123DCE6D8F80C00FEF7A2
:101770007BFE0446D9F800000D46FEF775FE0246D2
:101780000B4620462946FEF7C7FE35A3D3E90023C2
:10179000FEF7ECFF07F1080641EC100B07A93046F5
:1017A00004F04EFB079BFB60002550E6D8F80C00C8
:1017B000FEF75AFE41EC180BD9F80000FEF754FE74
:1017C000B0EE481AF0EE681A07F1080441EC100B6D
:1017D00007AA21460520FFF78FFD0799F9601F2210
:1017E00005200FF049FEFEF72DFE01F100431946DA
:1017F000FFF72CF9B861D7E7012D13D028466669A9
:1018000008F01EF80546012008F01AF81A4B01935B
:101810001A4B0093CDE90250194A1A494E2320462B
:10182000B04729E63078012812D0676908F008F837
:101830000646284608F004F80F4B0193124B00931C
:10184000CDE902600E4A0F494F232046B847FEE516
:10185000D9F80000FEF708FEC7E90001A4E700BFC1
:10186000140014001400243F30570400C256040032
:101870000000803B35570400575704007C5104009A
:10188000FF550400025404006F51040000000000E2
:101890002DE9F043494207EE901A2DED068BB8EE84
:1018A000E78AF2EE087A78EE277AF7EE008AC8EE39
:1018B000A79A3AA7D7E9006783B0044600259FEDB1
:1018C000309A9FED30AAD4E901325343AB424FD94D
:1018D000236803EB85034FEA8508D3F80090484658
:1018E000FEF7C2FD32463B46FFF788F800EE109A3D
:1018F000002818BFB0EE490A13F0EAFF01A80DF066
:101900004DFADFED217ADFED216A9FED217AE0EEDD
:101910000A7AE0EE276AF0EE477AE0EE267A9DED4D
:10192000017AB8EEC77AF2EE046A37EE277ADFED75
:10193000197A27EE277AF0EE487AE7EE267A69EEF2
:10194000A77AF5EEC07AF1EE10FA0ED4F4EE687ACA
:10195000F1EE10FAB7EE007AC8BFF0EE477A2368CE
:101960004344C3ED007A0135ADE7DFED0B7AF6E7CE
:10197000002003B0BDEC068BBDE8F083AFF3008020
:101980006042A20DA8A19D3FF5CA83C0FBB3C04031
:10199000E09248C09B209A3E00000000A0C2EBFEEF
:1019A0004B48B4390000000030B52DED048BD0E970
:1019B00001218FB003684A4302A8012112F0A4FE5E
:1019C00001220023114606A812F09EFE069B002B62
:1019D0007DD0039A079B9A427BD1089B012B78D13B
:1019E0000024039BA34210D90499029801FB04F53B
:1019F0000AAB01AA00EB850011F0D7F8069B019A0B
:101A000003EB840301341A60EBE701220023114643
:101A10000AA812F079FE0A9B002B54D0039A0B9B64
:101A20009A4252D10C9B012B4FD10024039BA3421D
:101A300010D90499029801FB04F501AB6A4600EB4A
:101A4000850011F05BF80A9B009A03EB84030134D4
:101A50001A60EBE7069BD3ED009A0A9B93ED008A90
:101A600038EE698AB7EE009A18EE100AFEF7FCFC11
:101A70001BA3D3E90023FEF7C1FF08BBC9EE088A08
:101A800002A8B0EE690A12F054FE044650B9F4EE12
:101A9000498AF1EE10FA05D0B0EE680A02A808F003
:101AA000F5F904460AA80FF095FC06A80FF092FC81
:101AB00002A80FF08FFC20460FB0BDEC048B30BDA8
:101AC000F0EE498ADCE7044CECE7044CEAE7024C10
:101AD000EBE7024CE9E700BF16FCFFFF14FCFFFF39
:101AE000FCA9F1D24D62503F2DE9F04F2DED028B54
:101AF000074685B0D8000D46164698460FF0B6FC4E
:101B0000044660B103AB0093002330461A461946E1
:101B1000FFF71AFB064620B920460FF0ABFC26481B
:101B200040E03946224604F0F3F89FED218B27462A
:101B30004FF00009C14507F108072CD057F8080CF1
:101B4000FEF792FCB0EE481AF0EE681A41EC100B6A
:101B50000DF06EF957F8040C5BEC10ABFEF784FC4B
:101B6000B0EE481AF0EE681A41EC100B0DF060F977
:101B700052465B4651EC100BFEF718FB41EC100B84
:101B80000DF004FA51EC100BFEF788FF09F1010982
:101B900045F8040BCEE730460FF06CFC20460FF002
:101BA00069FC002005B0BDEC028BBDE8F08F00BFE2
:101BB000000000000000004016FCFFFF00000000D5
:101BC0002DE9F04790B08046189C670807F101099D
:101BD00099450D4616467ED100232246012102A8D2
:101BE00012F092FD0298002873D0A54228BF254626
:101BF0004FEA850A5246414613F0B7FE0298621B2F
:101C000092000021504413F0D8FE202C20D0402C0C
:101C10001ED0802C1CD0B4F5807F19D0B4F5007F85
:101C200016D0B4F5806F13D0B4F5006F10D0B4F5B2
:101C3000805F0DD002984B4622463146FFF754FF95
:101C4000054602A80FF0C6FB284610B0BDE8F08795
:101C5000A1B20AA807F022F905460028F1D10346EF
:101C60002246012106A812F04FFD069A2AB906A8BD
:101C70000FF0B0FBA5F2EA35E3E72B4602990AA87C
:101C800010F095FE069B1A6832605A680FF25809E8
:101C9000D9E9008906EB870301241A600436A742BC
:101CA00013D9069801AA00EBC400022107F030F90D
:101CB0000198FEF7D9FB42464B46FEF72DFCFEF796
:101CC000EDFE013446F8040BE9E706A80FF082FBAD
:101CD000B7E7034DB5E7034DB6E700BFAFF30080AC
:101CE00016FCFFFF11FCFFFFCD3B7F669EA0F63F79
:101CF0002DE9F04F2DED028B93B0CDE90023054681
:101D00000E46002900F0F8804068AA6801394F109B
:101D100021F001010023014402A812F0F5FC029B0E
:101D2000002B00F0E780BFB23B463A4602A92846A6
:101D300008F002FA0446002873D1034604990122F0
:101D400006A812F0E1FC069B002B00F0D180234690
:101D5000049901220AA812F0D7FC0A9B002B00F07C
:101D6000C5806B68A34267D9049A029B02FB04F109
:101D700003EB81030EA8314612F0C6FCDDF8388073
:101D8000B8F1000F43D0109A079B9A4252D1089B9A
:101D9000012B4FD10699DDF83CA04FEA82098E460F
:101DA00000239A420FD0DFED587A08EB83004FF002
:101DB000000CE2451CD090ED007A0CF1010C77EE9E
:101DC000877A4844F5E7A8688300634301EB800005
:101DD0005B1A884216D02A6801EB030C6244B1EC0E
:101DE000017AD2ED007A77EEC77AC2ED007AF0E799
:101DF00007EE10AAF8EE476A013387EEA67AAEEC3A
:101E0000017ACEE70EA80FF0E5FA0134A9E73F4CBE
:101E10000EA80FF0DFFA0AA80FF0DCFA06A80FF000
:101E2000D9FA02A80FF0D6FA204613B0BDEC028B07
:101E3000BDE8F08F364CEBE73B463A4602A9284610
:101E400008F07AF904460028E5D180466B684345DE
:101E500044D9049A029B02FB08F103EB81030EA80C
:101E6000314612F051FC0E9B93B3009B53B30AA969
:101E70000EA808F085FA074658BB049F2B68DDF8CA
:101E800028A0BF0008FB07395744BA451AD0D9F833
:101E900000005AF804BBFEF7E7FA41EC180B58466D
:101EA000FEF7E2FA16A3D3E90023FEF77FF9024614
:101EB0000B4651EC180BFEF759FCFEF7EFFD49F805
:101EC000040BE2E70EA80FF085FA08F10108BDE760
:101ED0000E4F0EA80FF07EFA3C469CE7019B002BAC
:101EE00099D02846FFF760FD044694E7074C92E737
:101EF000064C93E7054C94E70C4695E7AFF300805A
:101F0000BBBDD7D9DF7CDB3D0000000016FCFFFF26
:101F100014FCFFFF000000002DE9F04F2DED068BB3
:101F20008E1C8FB04FEA860908EE903A04469DF861
:101F3000803002914846154603930FF097FA074602
:101F400078B36368029A934240F09C81A268AA42E7
:101F500040F098815A430021206813F02EFDDDEDFA
:101F60001E7AB8EE678AB0EE480A08F05DFADDED39
:101F70001F7AB8EE679AF0EE409AB0EE490A08F080
:101F800053FA3046F0EE400A3946B0EE690A12F0D4
:101F90008DFB48460FF06AFA064620B938460FF026
:101FA00069FABB4869E1DFEDBB9A9FEDBBAA4FF030
:101FB000000A029B03F101081FFA8AF3984534DBFB
:101FC00007EB830292ED000A019380EE290A06EBEB
:101FD000830B0DF00FF8019BF7EE007A30EE670AE5
:101FE00020EE0A0AB4EE408AF1EE10FAC8BFB0EE55
:101FF000480AB4EE409AF1EE10FA48BFB0EE490A32
:10200000984504D08BED000A0AF1010AD1E710EEE1
:10201000100AFEF729FA9CA3D3E90023FEF7C4F8BF
:10202000FEF73CFDCBF80000EEE738460FF022FA51
:1020300048460FF01BFA074608B93046AFE70135AE
:1020400007EE905AF8EE688AB8EEE78A4FF000097A
:1020500006EB890393ED000A28EE000A80EE280AB9
:102060000CF05AFEBDEEC00A10EE103A47F82930C7
:1020700009F101091FFA89F9C845E9DA30460FF07C
:10208000F9F9DFF818B2B8460025029BAB4240F2DE
:10209000E980D8F8003001936B1C0493D8F80860ED
:1020A000019B98ED018AA6EB030909F101020121C8
:1020B000002306A8059212F027FBDDE9052108F1AF
:1020C000040819B906A80FF085F96AE7DDED017A71
:1020D0000592F8EEE78A07EE906AB8EEE79A1046A6
:1020E000F0EE490AB0EE680A12F0E0FA0121059A12
:1020F000DDF818A000230AA812F006FB0A990029AF
:1021000046D0019A18EE10EAAEEB020E18EE102A35
:102110000AF1040CB61A059A0B4650460CEB890CD2
:10212000844531D0D0ED007AF4EEE78AF1EE10FA72
:1021300010D5B8EEC87AF4EEC77AF1EE10FA09D8E5
:1021400007EE10EA77EEE87AF8EEC76A87EEA67A2D
:1021500083ED007AF0EC017AB4EEE79AF1EE10FA32
:1021600010DDB8EEC87AF4EEC77AF1EE10FA09DBAA
:1021700007EE106A79EE677AF8EEC76A87EEA67AFC
:1021800083ED007A0433CBE79200504613F0EDFB69
:102190000AA80FF01FF90022F7EE006A91455CDBF8
:1021A0000199A3688818039999B905FB0300069B58
:1021B0003A4903EB8203D3ED007A236818440023E5
:1021C000B1EC017AF4EE477AF1EE10FA05D1DBB208
:1021D0003CE0636803FB0050E9E70133EF2BEFD1EC
:1021E000F5EEC07AF1EE10FA33D4F4EEE67AF1EEC1
:1021F00010FA30DCEE230021CE1876100BEB860CA3
:102200009CED007AF4EEC77AF1EE10FA15D5731E44
:102210008B42F1DA0BEB810696ED007A0BEB83062D
:1022200096ED006A37EE677A77EEC67AB4EEE77A13
:10223000F1EE10FACBD5CBB208E001DD711CE7E777
:10224000FCEEC77ACDED057A9DF8143003700132AB
:10225000A4E70023FAE70123F8E706A80FF0BAF88D
:10226000049D12E7039B23B1D4E901329BB2626063
:10227000A36038460FF0FEF800200FB0BDEC068BCF
:10228000BDE8F08F0648F8E7FCA9F1D24D62503F57
:1022900016FCFFFF00E08C4400002F4458F10300BF
:1022A00014FCFFFF000000002DE9F04F2DED028B24
:1022B0009FEDAB8B9BB081468A4615461C46002697
:1022C000287810B9304600F0CBBD6B1C252802934E
:1022D00006D05146C8470028C0F2C28501362EE21A
:1022E000182200210CA813F068FB6B78252B59D01D
:1022F0006A1C174612F8013B2B2B00F08B8079D813
:10230000202B00F08C80232B00F08E809DF838303D
:1023100003F04402442A03D16FF386138DF838305A
:102320009DF838300A9743F080038DF838303B78B9
:102330002A2B7ED19DF8393043F001038DF83930D6
:102340007B1C0A931A782E2A9DF839200CBF012194
:10235000002161F341028DF839200BD15A1C0A92F9
:102360005A782A2A7BD19DF8392042F004028DF850
:1023700039200233194611F8010B6C2800F0CF8088
:102380007DD8682800F084806A2800F0D2804C282C
:1023900000F0D6809DF839206FF3C6028DF8392001
:1023A000194680E0AA1C02928DF83B309DF8393026
:1023B000DF0740F1788154F804BBBBF1000F07DA66
:1023C0009DF8382042F004028DF83820CBF1000B44
:1023D000580740F1718154F8048BB8F1000F80F276
:1023E00070819DF839306FF341038DF839304FF02B
:1023F000FF3866E12D2B06D0302B87D19DF8383081
:1024000043F0400303E09DF8383043F004038DF8B7
:1024100038306EE79DF8383043F00803F7E79DF851
:10242000383043F01003F2E79DF8383043F02003D2
:10243000EDE70AA808F0B4FF0A9BBB4281D09DF8E3
:1024400038700F90C7F3400141EAD072520062F039
:102450007F0207F07D010A438DF8382071E70AA852
:1024600008F09EFF9DF838301090C3F3400242EA16
:10247000D07060F341038DF838300A9B7AE77428F6
:102480009DF8392059D07A2884D11346062241E09C
:102490005A78682A9DF839203AD1012161F3C602A1
:1024A0008DF83920991C0B4613F8012B0293782ADA
:1024B0008DF83B2000F2CD80572A55D8412A04D010
:1024C000A2F14503022B00F2C4809DF83A300421AA
:1024D00061F302038DF83A3002F0DF03A3F1410803
:1024E0009DF83920D8F1000343EB080363F3C712CA
:1024F0008DF83920D3B2120600F1D38003F07802B0
:10250000182A40F0A3806FF3C6038DF839308AE0B3
:102510001346022262F3C6038DF83930C3E75A78B6
:102520006C2A9DF8392001D10421B7E71346032214
:10253000F0E79DF839300522ECE713460722E9E77A
:10254000BDF8383023F4F04323F0020343F4804312
:1025500043F00203ADF83830A5E700BFAFF30080C9
:102560000000000000000008A2F15803202B70D8E2
:1025700001A151F823F000BF2B26000053260000D4
:102580005326000053260000532600005326000067
:10259000532600005326000053260000CB240000E1
:1025A000532600002B260000FD250000CB24000050
:1025B000CB240000CB24000053260000FD250000A2
:1025C0005326000053260000532600005326000027
:1025D000612600002B2600008526000053260000FF
:1025E0005326000085260000532600002B260000FD
:1025F00053260000532600002B2600009DF83A3099
:10260000012161F302038DF83A309DF8393003F06F
:102610007803402B02BF9DF8381041F001018DF87E
:102620003810632A05D0002306E09DF83A300221D5
:10263000E7E7003B18BF01239DF83820C2F34001B3
:102640000B4363F341028DF83820AFE613F0380FE7
:10265000E9D09DF8383043F001038DF83830E2E7D7
:102660009DF83A30032262F302038DF83A309DF868
:10267000393003F07803A3F1400CDCF1000343EBA5
:102680000C03D9E79DF83A30032262F302038DF878
:102690003A309DF8393013F0780F14BF012300232E
:1026A000CAE70123C8E79DF93820002AB4BFDDF846
:1026B0003CB04FF0FF3B8BE699077FF598AEDDF815
:1026C00040809DF839100023CDE90F339DF83A3052
:1026D00003F00702042A09D18A0707D49DF939209B
:1026E000002AB4BF4FF00D084FF0060803F00703AF
:1026F000012BC1F3C30137D1CB1E042B21D8DFE856
:1027000003F003090920200054F8043BDA17CDE94F
:102710000C3206E0073424F00704F4E80223CDE984
:102720000C239DF83870BB0756D0029B2A465146B1
:10273000484612F04BFA0028C0F292830644029DEC
:10274000BEE554F8043B01294FEAE372CDE90C32AF
:1027500005D19DF830300C9300230D93E1E7022959
:10276000DFD1BDF93030D1E7022B23D1CB1E042BB2
:1027700013D8DFE803F0030A0A12120020680C9055
:102780000022231D0D921C46CBE7E31D23F0070317
:10279000B3EC027B8DED0C7BF5E754F8043B0C9316
:1027A00001294FF000030D93D3D00229B9D1BDF810
:1027B0003030D0E7042B09D1E31D23F0070303F1E8
:1027C0000804D3E90023CDE90C23AAE7032B04BFB7
:1027D00054F8043B0C93A4E79DF83B20782AAED82C
:1027E000572A00F28C80252A00F0D480242AA6D90A
:1027F000412A03D0A2F14503022BA0D8DDE90C1336
:10280000002BC0F2B781380700F1B68117F010072E
:1028100018BF2027C3F30A55C3F31303CDE90813E8
:10282000002D40F0AB8151EA030014BF01200020CD
:10283000DB0243EA5153C902462A45EA010E43EA44
:10284000E57C08BF66225EEA0C0CCDE9081300F0B7
:102850000382002840F0CB81DDE908014FF0000C35
:1028600041F00041A5F2FE35099163464FF0050E97
:1028700015F1020FC0F2C281BCF1000F01D0CDE909
:102880000801002DDDE9080100F3CD8109980899C0
:10289000C5F1040C1C3500FA05F5ACF1200E21FA47
:1028A0000CF120FA0EFE294341EA0E0120FA0CF049
:1028B000CDE9081002F0DF01472940F0D481DD1C8A
:1028C00002DB984580F2CB81023AB8F1000FD2B218
:1028D00001DD08F1FF389DF83810880600F1C3814A
:1028E000B8F1000FD4BF00210121662A039140F006
:1028F000BC8113EB080140F1BA810021BAE1A2F1D9
:102900005803202B3FF61BAF01A050F823F000BF67
:10291000172B00003F2700003F2700003F27000043
:102920003F2700003F2700003F2700003F2700000F
:102930003F270000FD2700003F270000C1290000BD
:10294000B72A0000FD270000FD270000FD2700003A
:102950003F270000B72A00003F2700003F27000064
:102960003F2700003F2700004D2B0000172B0000E1
:102970001B2B00003F2700003F2700009B29000081
:102980003F270000172B00003F2700003F270000D3
:10299000172B0000514610469CE4B8F1000F0C9A2A
:1029A00009DB41461046039213F086F9039A00278B
:1029B000151862B9C3E610460392FEF7F3FAF5E77D
:1029C0000C9B8DF84C3000270DF14D0513AAAB1A66
:1029D00007B101339DF83A00C10640F13582023358
:1029E0000F9940060B4444BF10995B18BBF1000FD0
:1029F00023DDABEB030B9DF838305907C3F3800898
:102A00001BD4580640F13682002F00F03682514622
:102A100038460392C8470028C0F22282039A4746EC
:102A200001364FF030085E445B46002BA6EB0B00EE
:102A30000BF1FF3B00F30C82064647B15146384686
:102A40000392C8470028C0F20B82039A01369DF812
:102A50003A30590640F165829DF93930002BA6EBDA
:102A6000020680F219821746B846F31917F8010BCF
:102A7000702840F00582109F1E461F44BB1B002B90
:102A800000F348822B4642465146484612F09EF8D3
:102A90000028C0F2E581304406468344ABEB0603D0
:102AA000002B7FF74CAE51462020C8470028C0F2CB
:102AB000D7810136F2E73D072BD417F0100718BF76
:102AC0002027DDE90C23002B05DA524263EB430398
:102AD000CDE90C232D270DF1650300930EAADDE946
:102AE0000C0113AB08F072FC0246B8F1000F0DF1B7
:102AF0006505FFF65EAF9DF83810AB1A6FF38611CF
:102B000098458DF838107FF654AFA8EB03030F9368
:102B10004FE72B27D5E70027DDE70C98002800F0CA
:102B20008F810DF1650300930EAA13AB002108F00D
:102B30004DFCBDF83A3003F0EF0343F4F04343F0AB
:102B400010030246ADF83A300027CEE70C9B072968
:102B50003FF6F5ADDFE801F00C04060C08080C0C9C
:102B60001E70ECE51E80EAE5F217C3E90062E6E5B7
:102B70001E60E4E52D274DE62B274BE640F2FF7063
:102B8000854231D10132B948D2B20B43125C02F016
:102B900003021BD1012A11D149238DF84C304E2359
:102BA0008DF84D3046238DF84E309DF838306FF358
:102BB00086138DF838300DF14F0507E769238DF83E
:102BC0004C306E238DF84D306623ECE7012A07BFA9
:102BD0004E2341226E2361220CBF8DF84C308DF8BC
:102BE0004C308DF84D20DEE7002021E6013D4918EC
:102BF0005B41002BFADACDE908132DE6400840EAE4
:102C0000C1704908B1F1333FAC4605F10105F5D279
:102C10000EFB01F5A0FB0E012944013B0CF102055E
:102C20004FF0010C24E6023041F10001CDE908012A
:102C300008A8CDE9032311F09AFF049B039ADDE96C
:102C40000810013D013349184041002805F1FF35C6
:102C5000F9DACDE9081014E600231D4616E6A8EBC4
:102C60000308662237E600213FE608F1010110293A
:102C7000A8BF10218DED0A8B102007900D46DDE9CD
:102C80000A01A5B9089D4019099D41EB0501B1F163
:102C9000805F1BD2CDE90801662A40F09980002BA5
:102CA00023DC30218DF84C100DF14D052FE040084C
:102CB00040EAC1704908CDE90A010AA8CDE9042318
:102CC000013D11F054FFDDE90423D8E7400840EA54
:102CD000C1704908CDE9080108A8CDE9042311F025
:102CE00046FF059B049A0133D6E713AD07990029E7
:102CF0000BDD07A908A8CDE9042311F050FF059BBF
:102D000005F8010B013B049AF0D10F9300239DF8C5
:102D10003810890602D4B8F1000F1DDD2E2105F808
:102D2000011B9BB1B8F1000F16DD59424145A8BF08
:102D300041469DF83A000F910029A8EB0108D4BF45
:102D40000021012161F345108DF83A00B8F1000F20
:102D500002DD0799002956DC0399002963D1CDF8DB
:102D6000408002F0DF01452921D1002B2946B8BF60
:102D70005B4201F8022BB4BF2D222B22632B6A7019
:102D800009DD6420B3FBF0F202F1300CE91C85F898
:102D900002C000FB12330A200D46B3FBF0F200FB29
:102DA000123302F1300C303305F802CB4B700F9B1D
:102DB000002B43DC109B002BD4BF002301239DF884
:102DC0003A2063F3861200238DF83A202B70FDE53C
:102DD00007A908A8CDE9042311F0E1FEDDE90423E9
:102DE0009DF838108DF84C00302818BF03F1FF33E0
:102DF000880602D4B8F1000F12DD2E218DF84D1097
:102E00000DF14E05A2E707A908A8CDE9042311F0AA
:102E1000C6FE08F1FF38DDE9042305F8010B95E74C
:102E20000DF14D0598E700211091284615F8011D78
:102E30003029FAD02E2918BF054692E70123BEE7B4
:102E40000B4D07466A1FC2E5010748BF0133C7E5BE
:102E5000514640460392C8470028039ABFF6E4ADA6
:102E60001BB0BDEC028BBDE8F08F00BF106004000A
:102E70004D5E04004FF02008D5E54FF03008D2E554
:102E80005146C8470028BFF6EFADE9E75146039227
:102E9000C8470028039AE3DB1078374BC35C5B0715
:102EA000174606EB020802F10102EFD49DF83A3012
:102EB0000F9E990607D4B044002EA8EB060206F137
:102EC000FF360FDC904638782E2808D15146C84787
:102ED0000028C5DB002E08F1010809DC0137A8EB4A
:102EE00007060EE051463020C8470028E4DAB7E76D
:102EF00051463020C847013EEAE75146C8470028FE
:102F0000AEDB1D4AB846F31917F8010B125C5207E5
:102F1000F3D4B0E551463020C8470028A0DB013685
:102F2000ACE5D80601D4190707D5514630200392E5
:102F3000C847002894DB039A01369DF83A30DB0637
:102F400008D59DF83B0003925146C847002887DB0F
:102F5000039A01360F9F3744BB1B002B01DC2B4625
:102F600092E5514630200392C8470028FFF678AF1B
:102F7000039A0136F0E700BF116004000000000072
:102F80001FB553EC102B264823F00041814206DC8C
:102F90009FED211B05B05DF804EB01F049B8214815
:102FA000814209DD10EE100A1946FDF7FDF841ECEB
:102FB000100B05B05DF804FB684600F02DFE00F034
:102FC000030001280BD0022816D0E0B99DED021BAA
:102FD0009DED000B01F02CF851EC100BE7E79DED97
:102FE000021B9DED000B01F037FC53EC102B10EE93
:102FF000100A03F10041DAE79DED021B9DED000B85
:1030000001F016F8F1E79DED021B9DED000B01208C
:1030100001F022FCE0E700BF00000000000000001B
:10302000FB21E93FFFFFEF7F51EC100B2DE9F04151
:10303000C1F30A57A7F2FF36132E10EE105A10EE06
:10304000108A0C4632DC002E14DA33A3D3E90023B5
:10305000FDF7ACF800220023FDF7EEFC38B1002CA0
:1030600057DA24F000431D4301D02D4C00252146A2
:10307000284625E02B4F374101EA070303431FD0C1
:1030800025A3D3E90023FDF791F800220023FDF7E3
:10309000D3FC0028EBD0002CBEBF4FF4801343FAC2
:1030A00006F6A41924EA07040025E0E7332E0BDD19
:1030B000B6F5806F04D110EE102A0B46FDF776F8B6
:1030C00041EC100BBDE8F081A7F213474FF0FF333E
:1030D00023FA07F70742F3D00FA3D3E90023FDF744
:1030E00065F800220023FDF7A7FC0028BFD0002CC4
:1030F00002DA142E03D1013425EA0705B7E70123CC
:10310000C6F1340603FA06F63544454538BFE418DF
:10311000F2E700252C46AAE79C7500883CE4377E40
:103120000000F0BFFFFF0F001FB553EC102B284825
:1031300023F00041814207DC9FED231B002005B0F6
:103140005DF804EB01F088BB2248814209DD10EEF6
:10315000100A1946FDF728F841EC100B05B05DF890
:1031600004FB684600F058FD00F0030001280CD075
:10317000022811D0F0B99DED021B9DED000B01203E
:1031800001F06AFB51EC100BE6E79DED021B9DED93
:10319000000B00F04DFFF5E79DED021B9DED000BD0
:1031A000012001F059FB53EC102B10EE100A03F133
:1031B0000041D1E79DED021B9DED000B00F038FFB3
:1031C000F1E700BFAFF30080000000000000000046
:1031D000FB21E93FFFFFEF7F2DE9F04F2DED068B3F
:1031E00089B08DED001BDDE9000727F0004656EAA7
:1031F000000153EC102B00F0CC847F4923F00044F5
:103200008C4210EE108A994609DC03D17AB9A642A5
:1032100002DD0CE08E4202DC8E4210D178B104F166
:10322000404404F5801454EA080300F0B284734863
:1032300009B0BDEC068BBDE8F04F01F0CDBBB9F194
:10324000000F36DA6E498E4251DCA1F154718E4284
:1032500040F3AA843115A1F2FF3114290FDDC1F129
:10326000340120FA01FC0CFA01F1814240F09C8407
:103270000CF0010CCCF10201049180B159E000285E
:1032800055D1C1F1140146FA01FC0CFA01F1B14229
:1032900040F087840CF0010CCCF1020104915949F3
:1032A0008E422DD1002F79DA56490020FDF75EFAC3
:1032B00016E00021049100283BD14F498E42EED107
:1032C00004F1404303F5801353EA080300F06184DE
:1032D0004D4B9C420DDD002F80F25F8400200021C9
:1032E00041EC100B09B0BDEC068BBDE8F08F02215C
:1032F000E0E7002FF2DADDE9000303F10041EFE738
:10330000B7F1804F04D110461946FDF705F9E7E7FC
:103310003E498F420DD1B9F1000F0ADB43EC102B6F
:1033200009B0BDEC068BBDE8F04F0BF0C7BE002125
:10333000049143EC102BCDE9022312F0C0FADDE931
:10334000022351EC100BB8F1000F2AD12CB1DFF899
:10335000B4C029F0404EE64523D1002F05DA0246DD
:103360000B4600202749FDF701FAB9F1000FB7DA43
:10337000049B04F1404404F58014234308D1024621
:103380000B4610461946FCF70FFF02460B468DE729
:10339000049B012BA4D1024601F1004310461946BB
:1033A0009EE74FEAD97C0CF1FF350695049DAC46AB
:1033B000069D5CEA0505E4D0154B9E4240F3FC8077
:1033C00003F104739E42104B07DD9C420ADC002F80
:1033D00084DA07A3D3E9002395E79C42F7DB094B86
:1033E0009C4217DD002FF4DC78E700BFAFF30080CC
:1033F0009C7500883CE4377E0000F07F7A59040019
:10340000FFFF3F430000F03FFFFFEF3F0000E03FC2
:103410000000E041644B0022FCF7C6FE56A3D3E94E
:10342000002304460D46FDF777F855A3D3E90023A2
:1034300006460F4620462946FDF76EF85B4B82464E
:103440008B46002220462946FDF766F802460B46C9
:103450004DA1D1E90001FCF7A7FE22462B46FDF75E
:103460005BF802460B4600205149FCF79DFE2246C0
:10347000804689462B4620462946FDF74DF80246F0
:103480000B4640464946FDF747F841A3D3E90023E0
:10349000FDF742F802460B4650465946FCF784FEBB
:1034A00002460B468046894630463946FCF77EFE8A
:1034B000002032463B4604460D46FCF775FE0246A8
:1034C0000B4640464946FCF76FFE049B069A013BBB
:1034D000134382468B4640F0F0819FED2F7BB0EE88
:1034E000478AF0EE678ADDE90067002632463B46F0
:1034F000DDE90001FCF758FE22462B46FDF70CF8EB
:10350000DDE900238046894650465946FDF704F818
:1035100002460B4640464946FCF748FE32463B46CB
:103520008046894620462946FCF7F6FF0B460446AE
:103530000D46024649464046FCF738FE1D4B99426F
:1035400045EC194B06460F468B4640F3F98201F1D4
:103550003F4303F5E003034300F0EC8110A3D3E9FC
:10356000002351EC180BFCF7D7FF0DA3D3E9002380
:10357000CBE600BFAFF30080000000604715F73FC7
:1035800044DF5DF80BAE543E555555555555D53F66
:10359000FE822B654715F73F000000000000F0BFDA
:1035A0009C7500883CE4377E0000F03F0000D03F6F
:1035B0000000E03FFFFF8F40D54B03EA09030022E4
:1035C0002BB9D44BFCF7A8FF6FF034020C4623153F
:1035D000A3F2FF3313440593CF4BC4F3130444F019
:1035E0007F559C4245F4401508DDCC4B9C4240F38E
:1035F0006281059B01330593A5F580150024E30046
:103600000793C74B03EBC40393ED007B294653ECB0
:10361000172BB0EE479AF0EE679A8246FCF7C4FD8E
:10362000524606460F462B4651EC190BFCF7BEFDE1
:1036300002460B460020BB49FDF798F841EC1A0BF7
:1036400002460B4630463946FCF766FF0023CDE9BB
:1036500002010293DDE90289AB466D1045F0005589
:1036600005F5002541EC180B05EB8443002240468C
:10367000494614461D46FCF74FFF02460B463046AE
:103680003946FCF791FD53EC192B06460F462046B0
:103690002946FCF789FD02460B4650465946FCF781
:1036A00083FD42464B46FCF737FF02460B46304649
:1036B0003946FCF779FD53EC1A2BFCF72DFF53EC40
:1036C000182B41EC190B51EC180BFCF725FF7CA3D0
:1036D000D3E9002304460D46FCF71EFF7AA3D3E985
:1036E0000023FCF763FD22462B46FCF715FF78A369
:1036F000D3E90023FCF75AFD22462B46FCF70CFFCA
:1037000075A3D3E90023FCF751FD22462B46FCF7B5
:1037100003FF73A3D3E90023FCF748FD22462B46A1
:10372000FCF7FAFE70A3D3E90023FCF73FFD224625
:1037300006460F462B4620462946FCF7EDFE02467C
:103740000B4630463946FCF7E7FE424604460D4636
:103750004B4651EC180BFCF729FD53EC192BFCF7E9
:10376000DBFE22462B46FCF721FD424682468B4675
:103770004B4640464946FCF7CFFE6B4B00220646BF
:103780000F46FCF713FD52465B46FCF70FFD002089
:1037900004460D4602460B4640464946FCF7BCFE31
:1037A000614B80468946002220462946FCF7FCFCF6
:1037B00032463B46FCF7F8FC02460B46504659465B
:1037C000FCF7F2FC53EC182BFCF7A6FE224606464B
:1037D0000F462B4651EC190BFCF79EFE02460B469A
:1037E00030463946FCF7E2FC06460F4602460B46D9
:1037F00040464946FCF7DAFC3DA3D3E9002300200C
:1038000004460D46FCF788FE424641EC180B4B4639
:1038100020462946FCF7C8FC02460B46304639468E
:10382000FCF7C2FC34A3D3E90023FCF775FE34A3F4
:10383000D3E9002306460F4620462946FCF76CFED6
:1038400002460B4630463946FCF7B0FC079A374B28
:103850001344D3E90023FCF7A9FC824605988B4664
:10386000FCF7F0FD079A324B1344D3E90089064672
:103870000F4652465B4651EC180BFCF797FC42464C
:103880004B46FCF793FC32463B46FCF78FFC00208E
:1038900032463B4604460D46FCF786FC42464B4604
:1038A000FCF782FC53EC182BFCF77EFC02460B461F
:1038B0005046594607E60124A1E69FED137B0EE62C
:1038C000EF4E454A287ECA3F65DBC9934A86CD3F05
:1038D00001411DA96074D13F4D268F515555D53FEB
:1038E000FFAB6FDBB66DDB3F033333333333E33F83
:1038F000000000E009C7EE3FFD033ADC09C7EE3FD8
:10390000F5015B14E02F3EBE000000000000F03F18
:103910000000F07F000040438E98030079B60B0052
:10392000D06E01000000F03F00000840F06E010082
:10393000E06E0100B5A3D3E9002340464946FCF7F9
:1039400035FC224641EC1A0B2B4630463946FCF733
:103950002BFC02460B4651EC1A0BFDF76DF80028C4
:103960007FF4FCADA44A2BF00043934240F30A815C
:103970001B154FF4801AA3F2FE334AFA03F35B449B
:10398000C3F30A529D4EA2F2FF321641C3F3130A4B
:10399000002023EA0601C2F114024AF4801A4AFA0E
:1039A00002FABBF1000F02460B4620462946B8BF7B
:1039B000CAF1000AFCF7F8FB41EC190B42464B46F2
:1039C00051EC190BFCF7F2FB79A3D3E9002300209B
:1039D00004460D46FCF7A0FD53EC192B06460F4696
:1039E00020462946FCF7E0FB02460B464046494686
:1039F000FCF7DAFB70A3D3E90023FCF78DFD70A37D
:103A0000D3E900238046894620462946FCF784FDF9
:103A100002460B4640464946FCF7C8FB04460D46A5
:103A200002460B4630463946FCF7C0FB32463B4661
:103A300080468946FCF7B8FB02460B4620462946DD
:103A4000FCF7B2FB424606460F464B464046494607
:103A5000FCF762FD5CA3D3E9002304460D46FCF7A6
:103A60005BFD5BA3D3E90023FCF79EFB22462B46BC
:103A7000FCF752FD58A3D3E90023FCF797FB22463D
:103A80002B46FCF749FD56A3D3E90023FCF78CFB3A
:103A900022462B46FCF740FD53A3D3E90023FCF755
:103AA00085FB22462B46FCF737FD02460B46404677
:103AB0004946FCF779FB04460D4602460B46404654
:103AC0004946FCF729FD002241EC190B4FF08043D9
:103AD00020462946FCF768FB02460B4651EC190BC1
:103AE000FCF744FE324604460D463B4640464946F6
:103AF000FCF712FD32463B46FCF758FB02460B46EC
:103B000020462946FCF750FB42464B46FCF74CFB4F
:103B10000B4602463A490020FCF746FB41EC100BED
:103B200010EE903A03EB0A53B3F5801F2DDA50469E
:103B300000F05AFF51EC100B53EC182BFFF7E5BBCC
:103B4000304B21F000469E427FF70CAF2E4B0B44CA
:103B500003430BD026A3D3E9002351EC180BFCF749
:103B6000DBFC23A3D3E90023FFF7CFBB22462B4680
:103B7000FCF71AFB42464B46FCF754FF00283FF483
:103B8000F1AEE7E74FF0000A18E751EC100B1946C9
:103B9000D2E71B490020FFF7A3BBDDE90001FFF7D7
:103BA0009FBB0490FFF77BBB0021FFF765BB00BF05
:103BB00000000000432EE63FEF39FAFE422EE63FBA
:103BC000396CA80C615C20BED0A4BE726937663E19
:103BD000F16BD2C541BDBB3E2CDE25AF6A56113F0D
:103BE00093BDBE166CC1663F3E5555555555C53FF4
:103BF00059F3F8C21F6EA5010000E03FFFFF0F0060
:103C00000000F03FFFCB904000346F3FFE822B65F9
:103C10004715973C000000002DE9F04F2DED028B79
:103C200055EC104BCA4B8BB025F0004898458246A6
:103C3000029508DC0022002380ED000BC0E902237E
:103C40004FF0000B28E0C34B984578DC029BC24E36
:103C5000002B10EE100AB0A3D3E90023294639DD6A
:103C6000FCF7A2FAB04504460D461BD0ACA3D3E93D
:103C70000023FCF799FA02460B46CAE900232046C6
:103C80002946FCF791FAA6A3D3E90023FCF78CFAA6
:103C9000CAE902014FF0010B58460BB0BDEC028B94
:103CA000BDE8F08FA0A3D3E90023FCF77DFAA0A321
:103CB000D3E9002304460D46FCF776FA02460B468C
:103CC000CAE9002320462946FCF76EFA98A3D3E9F7
:103CD0000023DBE7FCF76AFAB04504460D4616D030
:103CE0008FA3D3E90023FCF761FA02460B46CAE929
:103CF000002320462946FCF757FA89A3D3E900237D
:103D0000FCF754FA4FF0FF3BCAE90201C4E786A36F
:103D1000D3E90023FCF74AFA85A3D3E9002304463C
:103D20000D46FCF743FA02460B46CAE9002320463B
:103D30002946FCF739FA7EA3D3E90023E0E7874B55
:103D4000984500F3D98011F0BAFD55EC104B10EEF8
:103D5000100A79A3D3E900232946FCF7DDFB804B49
:103D60000022FCF723FAFCF771FE8346FCF76AFB9E
:103D700002460B4643EC182B67A3D3E90023FCF75C
:103D8000CBFB02460B4620462946FCF70DFA64A3FE
:103D9000D3E9002306460F4651EC180BFCF7BCFB99
:103DA000BBF11F0F04460D460DDC6E4B0BF1FF32CD
:103DB00053F82230434506D022462B46304639463A
:103DC000FCF7F2F90FE02B46224630463946FCF765
:103DD000EBF94FEA28530393C1F30A53C3EB185886
:103DE000B8F1100F02DCCAE9000139E04EA3D3E9B3
:103DF000002351EC180BFCF78FFB04460D460246DE
:103E00000B4630463946FCF7CFF902460B46804652
:103E1000894630463946FCF7C7F922462B46FCF75F
:103E2000C3F943A3D3E9002304460D4651EC180B14
:103E3000FCF772FB22462B46FCF7B6F902460B460E
:103E400004460D4640464946FCF7AEF9039AC1F3D5
:103E50000A53D31A312B24DCCAE9000146464F46E7
:103E6000DAE90089304642464B463946FCF79CF970
:103E70002B462246FCF798F9029B002BCAE9020167
:103E8000BFF60AAF09F10043CAF8043001F100435C
:103E9000CAF80080CAF80800CAF80C30CBF1000B51
:103EA000FAE627A3D3E9002351EC180BFCF734FB07
:103EB00004460D4602460B4640464946FCF774F957
:103EC00002460B4606460F4640464946FCF76CF94B
:103ED00022462B46FCF768F91BA3D3E900230446CE
:103EE0000D4651EC180BFCF717FB22462B46FCF74E
:103EF0005BF904460D465FE71B4B984536DD10EE37
:103F0000102A2B4620462946FCF74EF9CAE9020141
:103F1000CAE9000194E600BF00004054FB21F93FCC
:103F20003163621A61B4D03D0000601A61B4D03DC3
:103F30007370032E8A19A33B83C8C96D305FE43FB9
:103F40000000002E8A19A33BC14920259A837B39A2
:103F5000FB21E93F7BD90240FB21F93FFB2139419D
:103F60000000E03FA8F60300FFFFEF7F4FEA285470
:103F7000A4F2164410EE100AA8EB045110EE106AD9
:103F80000F46FCF763FDFCF75DFA02460B46304630
:103F90003946CDE90423FCF707F9234B0022FCF74F
:103FA000BBFA0F460646FCF751FDFCF74BFA0246FA
:103FB0000B4630463946CDE90623FCF7F5F81A4B97
:103FC0000022FCF7A9FACDE9080104AD4FF003087F
:103FD000A9460026002732463B46D5E90401C346E0
:103FE000083D08F1FF38FCF7FFFC0028F3D10F4B28
:103FF00001930223009322465B465146484600F057
:10400000DFF8029B002B8346BFF646AEDAE90021BB
:1040100001F10043CAE90023DAE9022101F100437A
:10402000CAE902233AE700BF0000704128F7030005
:104030002DE9F74F57EC106B27F00048B8F1795F86
:104040008DED001B07DA10EE100A3946FCF7FEFC76
:10405000002800F0888032463B4630463946FCF75F
:104060005BFA514B002204460D46FCF755FA40A37B
:10407000D3E9002382468B4620462946FCF74CFABA
:104080003DA3D3E90023FCF791F822462B46FCF729
:1040900043FA3BA3D3E90023FCF786F822462B46DC
:1040A000FCF73AFA38A3D3E90023FCF77FF822465D
:1040B0002B46FCF731FA36A3D3E90023FCF774F85A
:1040C00022462B46FCF728FA33A3D3E90023FCF75A
:1040D0006DF822462B46FCF71FFA22462B46FCF7CA
:1040E0001BFADDE9002304460D4630463946FCF74D
:1040F00013FA0B46024629462046FCF755F82B4B8F
:10410000984506460F4610DC02460B465046594677
:10411000FCF74AF80B46264902460020FCF744F813
:1041200041EC100B03B0BDE8F08F224B20499845BD
:10413000CCBF214DA8F50015002422462B460020B7
:10414000FCF732F82246804689462B4650465946AF
:10415000FCF72AF832463B46FCF726F802460B46A7
:1041600040464946DAE79FED0E0BDBE7AFF30080F0
:10417000D43888BEE9FAA8BDC4B1B4BD9EEE213ED4
:10418000AD529C804F7E923E9015CB19A001FA3E15
:104190007751C1166CC1563F4C5555555555A53FE5
:1041A000000000000000F03F0000E03F3233D33F4A
:1041B0000000F03F0000E93F0000D23F0000000097
:1041C0002DE9F04F2DED028BADF51B7D12F1140F93
:1041D00008930191C44BA6990B9053F82130029398
:1041E000089B03F1FF33A8BFD41E0693B2BF00247F
:1041F000182394FBF3F46FF0170304FB033303EB72
:10420000020A029B069A9FEDB48B03EB0208A79B60
:10421000A71A22AE03EB87090025454513DD089B4D
:104220009FEDAD8B22AA02EBC3050DF5E47B4FF0A9
:104230000008029B98452FDC8DED048BDDF82C9057
:104240002F4600261BE0EF4207D459F82500FCF763
:10425000F9F8E6E802010135DFE751EC180BF8E761
:10426000D7E90023F9E80201FCF756F902460B46AC
:10427000DDE90401FBF79AFFCDE904010136069B55
:104280009E42A7F10807EBDD9DED047B08F10108D4
:10429000ABEC027B0835CCE7029B0EAA02EB830352
:1042A0000D93A79B03EB8403029C0C93E3000A93FA
:1042B0009AAB03EBC40353E928670DF1380872ABDE
:1042C00003EBC405C346A146B9F1000FA5F10805EB
:1042D00077DC47EC106B504600F086FB57EC106B18
:1042E00000224FF07F5310EE100A3946FCF714F904
:1042F00041EC100BFEF798FE7C4B51EC100B0022AA
:10430000FCF70AF902460B4630463946FBF74CFFEC
:104310000F460646FCF79AFB0490FCF793F802461A
:104320000B4630463946FBF73FFFBAF1000F064611
:104330000F466DDD621E0EAB049D53F82200CAF1DC
:10434000180140FA01F31D448B40C01A0EAB0495CE
:1043500043F82200CAF1170340FA03FBBBF1000F38
:1043600065DD049B00220133049315466FF07F4105
:10437000944200F39C80BAF1000F07DDBAF1010FFF
:1043800000F0C080BAF1020F00F0C680BBF1020F4E
:104390004DD132463B4656490020FBF705FF064605
:1043A0000F46002D43D050469FED4D0B00F01CFBF7
:1043B0003046394653EC102BFBF7F6FE06460F4607
:1043C00035E04C4B002230463946FCF7A5F8FCF7A7
:1043D0003DFBFCF737F802460B4643EC182B464BE7
:1043E0000022FCF799F802460B4630463946FBF7A7
:1043F000DBFEFCF72BFBD5E900234BF8040B51EC5B
:10440000180BFBF7D3FE09F1FF3906460F465BE7B1
:1044100006D1631E0EAA52F823004FEAE05B9DE727
:10442000364B0022FCF7FEFA00283DD183460022DD
:10443000002330463946FCF7D7FA002800F0BF8049
:10444000651E2B46002202998B426CDA002A00F08E
:1044500088800EABAAF1180A53F82530002B00F023
:10446000AC8050469FED1E0B00F0BEFA9AAB03EBFA
:10447000C50357EC106BEC00A3F19808AA46BAF1FB
:10448000000F80F2D5809FED148B2E46002EC0F2D7
:10449000038172AB8DED068BDFF864A003EBC609D8
:1044A0004FF00008AF1BE9E04FF0020B59E7D8F8D6
:1044B000003055B923B1C3F18073C8F8003001232F
:1044C000013208F104081D4652E7CB1AC8F8003043
:1044D0002B46F5E7AFF3008000000000000000006D
:1044E000000000000000F03F48F8030000002040FA
:1044F0000000F03F0000703E000070410000E03F0F
:10450000006F0100621E0EAB53F82230C3F3160396
:104510000EA941F8223039E7621E0EAB53F8223063
:10452000C3F31503F4E70EA951F82310013B0A4326
:1045300089E7013352F8041D0029FAD00A9A9AA992
:104540000A44983A0A92089AE318A51822AA04F194
:10455000010802EBC5050493049B434504DA1C469D
:10456000A4E60D9A0123E5E70C9B53F82800FBF71E
:1045700069FFE5E802010B9BAB461C464FF00009C2
:1045800000260027069B994506DD0A9BE3E80267A3
:1045900008F101080A93DFE77BE90223F4E802014E
:1045A000FBF7BAFF02460B4630463946FBF7FEFDE5
:1045B00009F1010906460F46E4E7013D49E747ECEA
:1045C000106BCAF1000000F00FFA57EC106BA04B13
:1045D00010EE100A00223946FCF724FAF8B19D4B80
:1045E000002230463946FBF797FFFCF72FFA80464A
:1045F000FBF728FF964B0022FBF78EFF0B46024687
:1046000039463046FBF7D0FDFCF720FA651C0EABAF
:104610000AF1180A43F8240043F8258021E73046C0
:104620003946FCF713FA0EAB254643F8240018E789
:104630000EAB53F82A00FBF705FF32463B46FBF76B
:104640006BFF844B68E90201002230463946FBF7D4
:1046500063FF0AF1FF3A06460F4610E7F9E8022326
:10466000FAE80201FBF758FF02460B46DDE90601B6
:10467000FBF79CFDCDE9060108F10108029B984576
:1046800001DCB845EADD9DED067B4AAB03EBC707CD
:1046900087ED007B013EF9E6A69B022B0BDC002B8D
:1046A00035DC59D0049B03F007000DF51B7DBDECF4
:1046B000028BBDE8F08FA69B032BF3D14AAB2344BA
:1046C00006931C469A460295029B002BAAF1080A03
:1046D00069DCAA46BAF1010FA4F1080400F3838053
:1046E000069C002008340021012D00F39B80DDE9A9
:1046F0004A56DDE94C78BBF1000F40F09980019BF0
:10470000C3E90056C3E90278C3E90401CAE70834E3
:104710004AAB1C442E4600200021002E34DABBF1A7
:10472000000F37D0024601F10043019CC4E9002389
:1047300002460B46DDE94A01FBF736FD4CAE01248B
:10474000A5422ADABBF1000F02D001F1004319465D
:10475000019BC3E90201A5E79AAB1C44A4F59C7434
:1047600000200021002D09DABBF1000F02D001F179
:1047700000431946019BC3E9000193E774E9022352
:10478000FBF714FD013DEDE774E90223FBF70EFD95
:10479000013EC2E702460B46C7E7F6E80223FBF7F5
:1047A00005FD0134CCE7DAE90089DAE90267029B0A
:1047B000013B029332463B4640464946FBF7F6FC36
:1047C000CDE9080102460B4640464946FBF7ECFCA2
:1047D00032463B46FBF7EAFC9DED087BCAE9020145
:1047E0008AED007B70E7D4E90089D4E9026740468E
:1047F00032463B464946FBF7D9FCCDE90201024669
:104800000B4640464946FBF7CFFC32463B46FBF79A
:10481000CDFC9DED027BC4E9020184ED007B0AF131
:10482000FF3A57E774E90223FBF7C0FC013D5BE761
:10483000019B019A1D6006F100445C609F6008F1D5
:104840000043D36001F10043106153612AE700BFC8
:10485000000070410000703E2DE9F04F2DED048BFB
:10486000B0EE418AF0EE618A55EC104B83B025F032
:104870000043B3F1795F019006DA10EE100A294681
:10488000FCF7E4F8002851D022462B462046294662
:10489000FBF742FE82468B4602460B4620462946DF
:1048A000FBF73AFE41A3D3E90023804689465046F0
:1048B0005946FBF731FE3FA3D3E90023FBF774FC15
:1048C00052465B46FBF728FE3CA3D3E90023FBF7E7
:1048D0006DFC52465B46FBF71FFE3AA3D3E900236B
:1048E000FBF762FC52465B46FBF716FE37A3D3E9A3
:1048F0000023FBF75BFC019B06460F46EBB9024623
:104900000B4650465946FBF707FE25A3D3E9002383
:10491000FBF74AFC42464B46FBF7FEFD02460B46C0
:1049200020462946FBF742FC04460D4645EC104B59
:1049300003B0BDEC048BBDE8F08F1B4B51EC180BA2
:104940000022FBF7E9FD324641EC190B3B4640469D
:104950004946FBF7E1FD02460B4651EC190BFBF70C
:1049600023FC52465B46FBF7D7FD53EC182BFBF7B5
:104970001BFC0BA3D3E9002306460F4640464946DD
:10498000FBF7CAFD02460B4630463946FBF70EFCE4
:1049900002460B4620462946FBF706FCC4E700BF4B
:1049A000495555555555C53F0000E03F7CD5CF5A78
:1049B0003AD9E53DEB9C2B8AE6E55A3E7DFEB157A0
:1049C000E31DC73ED561C119A0012A3FA6F8101109
:1049D0001111813F000000009FED010B704700BFE7
:1049E000000000000000F87F70B555EC104BC5F3D7
:1049F0000A5206462B469AB925F00043234336D087
:104A0000394B294610EE100A0022FBF785FD374B83
:104A10009E4204460D4610DA2BA3D3E900233AE068
:104A200040F2FF718A420CD110EE102A204629462E
:104A3000FBF7BCFB04460D4619E0C1F30A520B46D6
:104A4000363A324440F2FE718A4208DD002D20A140
:104A5000D1E900011CDA20A1D1E9000118E0002A07
:104A600008DD23F0FF4323F4E00343EA025545EC5D
:104A7000104B70BD12F1350F19DA4CF250339E42D3
:104A800005F000430ADD12A1D1E90001002BE2D1BB
:104A90000FA3D3E90023FBF73FFDCBE70AA1D1E940
:104AA0000001002BB8D00EA1D1E90001B4E723F03A
:104AB000FF43363223F4E00343EA025120460C4B15
:104AC0000022E8E7AFF3008059F3F8C21F6EA5019A
:104AD0009C7500883CE4377E9C7500883CE437FE7A
:104AE00059F3F8C21F6EA58100005043B03CFFFF90
:104AF0000000903C000000002DE9F04F2DED048BEC
:104B000057EC106B93B0456ADDF88080069110EE8B
:104B100010AA044609920C93BB4675B910200AF0FE
:104B200017FD0246606220B9A74BEA21A7480AF0A8
:104B3000D7FCC0E901550560C560636A196851B1C9
:104B40005A684A60012393408B6020460BF02AFE8E
:104B5000636A00221A603B1EAABF002323F0004BA9
:104B6000C8F800309A4BBCBF0122C8F8002033EAD5
:104B70000B031BD10C9A42F20F731360CBF3130398
:104B8000334300F09285219B63B9924B22E0924B14
:104B900001930833219A1360019813B0BDEC048B84
:104BA000BDE8F08F8B4B01930333F3E70022002322
:104BB00050465946FBF718FF4BEC19AB804658B1ED
:104BC0000C9A01231360219B002B00F06B85834816
:104BD0001860431E0193DFE74BEC10AB10AA11A93C
:104BE00020460CF05BF8CBF30A5508EE100A002DB6
:104BF00000F0848019EE903AC3F3130343F07F571B
:104C0000564647F44017A5F2FF35CDF83880744B6F
:104C1000002230463946FBF7C7FA65A3D3E90023E3
:104C2000FBF77AFC64A3D3E90023FBF7BFFA06463F
:104C300028460F46FBF706FC61A3D3E90023FBF7E8
:104C40006BFC02460B4630463946FBF7AFFA064688
:104C50000F46FBF7FBFE002200900023304639464A
:104C6000FBF7CCFE50B10098FBF7ECFB32463B461D
:104C7000FBF7BAFE10B9009B013B0093009B162B7B
:104C80005AD8009A574B03EBC203D3E9002351ECE7
:104C9000190BFBF7B3FE002850D0009B013B00939B
:104CA00000230B93109B5D1B6B1E059345BFC5F145
:104CB00001030493002300234CBF05930493009B3E
:104CC000002B3DDB059B009A0A92134405930023B9
:104CD0000793069B092B00F28980052BC4BF043B78
:104CE0000693069BA3F10203CCBF00250125032BED
:104CF00000F28780DFE803F02D3A3859DDE91053E0
:104D00001D4405F23243202BC1BFC3F1400305F21D
:104D100012400BFA03F326FA00F0DABFC3F12003C6
:104D200006FA03F01843FBF77DFB01230646A1F1C9
:104D3000F877013D0E936AE70123B2E70B90B1E7E4
:104D4000049B009A9B1A04935342079300230A93EF
:104D5000BFE700230893099B002B55DC0123CDE915
:104D600002331A4609920CE00123F3E70023099A63
:104D70000893009B134402930133012B0393B8BFA4
:104D80000123606A00224260042202F114069E425E
:104D900041683DD920460BF0C5FC019000283BD16D
:104DA000114B02464FF4D571C0E60123DFE700BF87
:104DB00061436F63A787D23FB3C8608B288AC63F21
:104DC000FB799F501344D33F616104007861040074
:104DD0000000F07F5D610400546104002359040069
:104DE0000000F83F786F0100D46104000125002322
:104DF000069308954FF0FF33CDE9023300221223CA
:104E0000B0E701230893F5E7099BCDE90233B8E742
:104E1000013141605200B8E7636A019A1A60039B4E
:104E20000E2B00F29D80002D00F09A80009B002B3D
:104E300032DDB74A03F00F0302EBC303D3E9008965
:104E4000009BD8054FEA231716D5B24B51EC190B2E
:104E5000D3E90823FBF78AFC07F00F0782468B464D
:104E60000325AC4E57B942464B4650465946FBF7D0
:104E70007DFC82468B4628E00225F2E7F90708D53B
:104E800040464946D6E90023FBF746FB01358046FC
:104E900089467F100836E5E700F09B80009B9D4F18
:104EA0005E429B4B06F00F0203EBC203D3E90023E3
:104EB00051EC190BFBF730FB361182468B46002371
:104EC0000225002E7AD1002BD3D10B9B002B00F0B2
:104ED0008280914B002250465946FBF78FFD0028F7
:104EE00079D0039B002B76D0029B002B36DD009BF4
:104EF000504659465F1E0022884BFBF70DFB029E71
:104F000082468B4601352846FBF79CFA52465B46A3
:104F1000FBF702FB824B0022FBF748F9D046D9464B
:104F20008246A1F1507B002E58D17E4B0022404694
:104F30004946FBF739F952465B4680468946FBF7FE
:104F40007BFD002840F0958252460BF1004340461D
:104F50004946FBF753FD002840F089825BEC19AB12
:104F6000119B002BC0F24881009A0E2A00F3448165
:104F7000674B03EBC203D3E90089099B002B80F246
:104F8000D580039B002B00F3D18040F06F82654BEE
:104F9000002240464946FBF7BFFA52465B46FBF704
:104FA00041FD039E3746002840F04582019D312394
:104FB00005F8013B009B0133009340E2F20705D561
:104FC000D7E90023FBF7A8FA01350123761008374B
:104FD00077E7022579E7009F039E94E701994C4B00
:104FE00031440D91089903EBC60353E902230029CC
:104FF00043D04D490020FBF7B9FB52465B46FBF717
:10500000D3F8019D82468B4649464046FBF71EFD7C
:105010000646FBF717FA02460B4640464946FBF7A1
:10502000C3F8303605F8016B52465B468046894628
:10503000FBF7E4FC002863D142464B46364900208A
:10504000FBF7B2F852465B46FBF7D8FC002840F06D
:10505000B5800D9B9D4281D0304B00225046594671
:10506000FBF75AFA2D4B82468B46404649460022B2
:10507000FBF752FA80468946C6E750465946FBF789
:105080004BFA0D9B019D0F9382468B464946404645
:10509000FBF7DCFC0646FBF7D5F9303602460B463B
:1050A00040464946FBF780F805F8016B0D9B9D4291
:1050B000804689464FF0000224D11B4B504659468A
:1050C000FBF774F802460B4640464946FBF7B4FC32
:1050D000002873D152465B4613490020FBF764F861
:1050E00002460B4640464946FBF788FC00283FF441
:1050F00035AF0F9D6B1E0F9315F8013C302BF8D088
:10510000009749E0054BFBF707FA80468946BDE763
:10511000786F0100506F01000000F03F0000244054
:1051200000001C40000014400000E03F019D564676
:105130005F4642464B4630463946FBF717FBFBF7C6
:1051400085FC8246FBF77EF942464B46FBF7E4F9C5
:1051500002460B46304639460AF13006FBF724F882
:1051600005F8016B019E039FAE1BB74202460B463A
:1051700035D1FBF71BF842464B4606460F46FBF778
:105180005BFCD0B942464B4630463946FBF72CFC17
:1051900010B11AF0010F10D1204618EE101A0BF0C2
:1051A00001FB002300982B700C9B01301860219BA1
:1051B000002B3FF4F1AC1D60EEE4009F2B461D4632
:1051C00013F8012D392A06D1019A9A42F7D1019993
:1051D000302201370A701A7801321A7090E7A64B14
:1051E0000022FBF799F90022002306460F46FBF741
:1051F000FBFB00289DD0CFE7089A002A00F0D7805B
:10520000069A012A00F3BA800E9A002A00F0B280B2
:1052100003F23343079E049D049A1A440492059AAC
:1052200001211A44204605920BF024FB0746002D6D
:105230000CDD059B002B09DDAB42049AA8BF2B4671
:10524000D21A0492059AED1AD31A0593079B1BB341
:10525000089B002B00F0AF80002E13DD394632464C
:1052600020460BF0C7FB18EE102A014607462046E1
:105270000BF016FB18EE101A804620460BF092FA3F
:1052800008EE108A079B9A1B06D018EE101A2046CB
:105290000BF0B0FB08EE100A012120460BF0EAFAF1
:1052A0000A9B002B064640F388801A46014620469A
:1052B0000BF0A0FB069B012B064640F381804FF0CC
:1052C0000008336906EB8303186910F011FEC0F182
:1052D0002000059B184410F01F0000F09280C0F1E0
:1052E0002003042B40F38A80C0F11C00049B03447C
:1052F0000493059B034405440593049B002B07DDA1
:1053000018EE101A1A4620460BF0CEFB08EE100AD3
:10531000059B002B05DD31461A4620460BF0C4FBE9
:1053200006460B9B002B6ED018EE100A314610F08B
:105330002EFE002867DA009B013B18EE101A00933E
:105340000A22002320460BF04FFA089B08EE100AB1
:10535000002B00F0B181002339460A2220460BF0D1
:1053600043FA029B002B074600F38E80069B022B1C
:1053700051DC89E0109BC3F136034BE7039B5E1EB3
:10538000079BB342BFBF079B0796F21A0A9BB6BFA3
:105390009B189E1B0A93039BB8BF0026002BB7BF28
:1053A000DDE90323DDE903359D1A002334E7079E79
:1053B000049D089F3BE7079A67E7069B012B18DCD3
:1053C000BAF1000F15D1CBF3130393B92BF00043BF
:1053D0001B0D1B0583B1049B01330493059B013313
:1053E00005934FF001080A9B002B7FF46AAF012060
:1053F0006FE74FF00008F6E79846F4E73FF47DAF1B
:1054000018461C3072E7039B002B37DC069B022BEF
:1054100034DD039B0293029B6BB931460522204683
:105420000BF0E2F90146064618EE100A10F0AFFD47
:1054300000283FF7BBAD099B019DDB4300934FF074
:105440000008314620460BF0ADF9002F3FF4A4AE22
:10545000B8F1000F05D0B84503D0414620460BF007
:10546000A1F9394620460BF09DF995E6002637460E
:10547000E1E70097374699E500002440089B002BA0
:1054800000F0CA80039B0293002D05DD39462A46B1
:1054900020460BF009FB0746B8F1000F5BD0796896
:1054A00020460BF03FF9054628B9874B024640F2EB
:1054B000EA21FFF73BBB3A690232920007F10C0187
:1054C0000C3010F052FA0122294620460BF0ECFA7B
:1054D000019B03F10109DDE90123134405930AF05F
:1054E0000103B84604930746314618EE100A10F03F
:1054F0001AFC4146029000F1300A18EE100A10F032
:1055000046FD3A460390314620460BF03DFBC2680B
:1055100009F1FF3B054602BB014618EE100A10F0E8
:1055200036FD02462946204607920BF03BF9DDE99D
:10553000063243EA0201049B0B434D460FD1BAF1F8
:10554000390F2AD0039B002B02DD029B03F1310AA5
:105550008BF800A075E73846BAE70122E2E7039B23
:10556000002B04DB06990B4304990B4322D1002A3C
:10557000EEDD18EE101A012220460BF095FA3146A6
:1055800008EE100A10F003FD002803DCE0D11AF049
:10559000010FDDD0BAF1390FD7D139238BF80030A4
:1055A0002B461D46013B15F8012C392A71D00132DA
:1055B0001A7046E7002A07DDBAF1390FEDD00AF17B
:1055C00001038BF800303CE7059B09F801AC9945D5
:1055D00047D018EE101A00230A2220460BF004F9D7
:1055E000B84508EE100A4FF000034FF00A0241469A
:1055F000204606D10BF0F8F88046074609F101096C
:1056000072E70BF0F1F83946804600230A22204663
:105610000BF0EAF80746F1E7039B0293019D18EEB1
:10562000100A314610F07FFB00F1300A019B05F8AB
:1056300001ABEA1A029B934209DD18EE101A00230F
:105640000A2220460BF0D0F808EE100AE7E7029B8A
:10565000002BC8BF1D46019BD8BF01251D444FF03C
:10566000000818EE101A012220460BF01DFA3146F0
:1056700008EE100A10F08BFC002891DC02D11AF021
:10568000010F8DD12B461D4613F8012D302AFAD07B
:10569000D7E6019A9A4284D1009B013300933123CB
:1056A0001370CEE6094BFFF795BA219B002B7FF4D0
:1056B0006EAA074BFFF78EBA029B002BAEDC069B4F
:1056C000022B3FF7A8AEA9E7D461040022590400D9
:1056D000546104002DE9F04F2DED088B89B016467A
:1056E000DDE91A250F46D2F804A0116803910AFBE0
:1056F00001F9BAF1010F06FB03F1044600EBC909F9
:105700004FEAC10816D1034697E8030083E8030077
:10571000083399454744F7D105F584730593039BF6
:10572000023B032B00F28482DFE813F01B005600DB
:10573000F900960108320492039A4FEACA0B7243A9
:105740000499009101953946CDE906230590FFF7AC
:10575000C1FF059858448145DDE906234744EFD150
:10576000DAE70AF1010304EBC303F6000834D5EDD0
:10577000436A53ED015AD5ED427A13ED026A26EEE3
:10578000E57ABAF1010AA6EE277A03F1080304F1DB
:10579000080467EEA57A3544E6EE267A54ED046AED
:1057A00076EEC76A43ED046A54ED036A76EEE76A63
:1057B00043ED036A54ED046A36EE877A04ED047A09
:1057C00014ED037A77EE277A44ED037ACFD109B04E
:1057D000BDEC088BBDE8F08F06FB0AF305EBC303B5
:1057E00093ED439A04EBCA08330104EB0A194FEA1C
:1057F000C60B04F108064446574603930434AA46F0
:10580000F1EE499AD8ED017AD5ED436A14ED016ABB
:1058100095ED428AD9ED015A56F8080C66EEE78AF2
:105820000836B0EE687AA6EE087A08F108085D44FA
:1058300028EE278A09F10809F0EE487AE6EE267A82
:105840000834DAED436A19ED026A9AED428A66EE8F
:10585000E58AE6EE088A28EE258A77EE28AAA6EEE3
:10586000268A77EE688A37EE88AA37EEC88AFAF772
:10587000FBFD41EC1B0B1AEE900AFAF7F5FDEB4B22
:105880000022FAF749FE02460B4651EC1B0BFAF7D1
:105890008BFCFBF703F944F80C0C56F80C0CFAF7E8
:1058A000E3FD41EC1B0B1AEE100AFAF7DDFDDF4BAE
:1058B0000022FAF731FE0B46024651EC1B0BFAF7B9
:1058C00073FCFBF7EBF848F8040C56ED047A77EE1E
:1058D000AA7A013F46ED047A56ED037A77EE8A7A8A
:1058E00046ED037A54ED037AE9EE087A49ED027A3F
:1058F00058ED017AE9EEA87A49ED017A54ED037A80
:10590000E9EE887A44ED037A58ED017AE9EE287AD7
:1059100048ED017A039B9A447FF474AF57E75746EA
:1059200018224FEAC60A4FEA061904EB071056433D
:105930006A6804EBC70100EBC70304F1040CAE4630
:10594000A846D1ED016AD5ED437A91ED006A95ED57
:10595000427AD0ED014AD3ED013A93ED004A1CEDB5
:10596000013A67EEE65AE6EE075A27EE267AB0EEDF
:10597000655AA6EE277AD0ED005AD8ED427AF0EEBD
:10598000476A98ED437A27EE646AA5EEA76A67EE48
:10599000A47ADEED434AE5EE877A9EED427A64EE24
:1059A000E35AE4EE075A27EE237AD4ED013AA4EE47
:1059B000247A33EE464A73EEE74A36EE036A77EE10
:1059C000A37A35EE253A76EE873A0CED016AC4EDFE
:1059D000017A36EE436A77EEE37A80ED006AC0ED35
:1059E000017A36EEC77A5CED016A76EE836A75EE6F
:1059F000655A4CED016AD4ED017A77EEA37A74EE24
:105A0000076AC4ED017A34EE477A74EEE57A74EEF3
:105A1000A55AC2B181ED007AC1ED015AC3ED006A09
:105A2000C3ED017A013F04F1080401F10801554476
:105A300000F10800C84403F10803B6440CF1080C57
:105A40007FF47FAFC3E6C1ED006AC1ED017A83ED5B
:105A5000007AC3ED015AE5E7059A0AFB06F302EB6B
:105A6000C307F20097ED012A039218227243D7ED83
:105A7000001A049207EBC30704EB0A1397ED001A10
:105A8000D7ED012A4FEA061B04EBCA0703EBCA0154
:105A900003EB0A107601AC46AE46A8464FF000096B
:105AA000F1EE420ACA4504F1080407F1080703F1C0
:105AB000080301F1080100F108007FF788AED5ED79
:105AC000436A57ED013AD5ED425A17ED026AD8ED17
:105AD000424A13ED025A11ED024A14ED027A54EDD6
