:100000000035002079340000038100004D340000E9
:100010004D3400004D3400004D340000000000005D
:10002000000000000000000000000000913000000F
:100030004D34000000000000013000004D3400008D
:1000400005320000053200000532000005320000D4
:1000500005320000053200000532000005320000C4
:1000600005320000053200000532000005320000B4
:1000700005320000053200000532000005320000A4
:100080000532000005320000053200000532000094
:100090000532000005320000053200000532000084
:1000A0000532000005320000053200000532000074
:1000B0000532000005320000053200000532000064
:1000C0000532000005320000053200000532000054
:1000D0000532000005320000053200000532000044
:1000E0000532000005320000053200000532000034
:1000F0000532000005320000053200000532000024
:1001000001F0FF01102A2BDB10F0070F08D010F8C8
:10011000013B013A8B422DD010F0070F42B3F6D1CC
:10012000F0B441EA012141EA014122F007047FF0E5
:1001300000070023F0E80256083C85EA010586EA3C
:10014000010685FA47F5A3FA87F586FA47F6A5FA78
:1001500087F68EB9EED1F0BC01F0FF0102F0070284
:1001600032B110F8013B013A83EA010313B1F8D12F
:100170000020704701387047002D06BF3546033810
:10018000073815F0010F07D1013015F4807F02BF49
:10019000013015F4C03F0130F0BC0138704700BF9A
:1001A00081F0004102E000BF83F0004330B54FEA28
:1001B00041044FEA430594EA050F08BF90EA020F95
:1001C0001FBF54EA000C55EA020C7FEA645C7FEA28
:1001D000655C00F0E2804FEA5454D4EB5555B8BF4B
:1001E0006D420CDD2C4480EA020281EA030382EABC
:1001F000000083EA010180EA020281EA0303362D4E
:1002000088BF30BD11F0004F4FEA01314FF4801C20
:100210004CEA113102D0404261EB410113F0004F32
:100220004FEA03334CEA133302D0524263EB4303E9
:1002300094EA050F00F0A780A4F10104D5F1200E87
:100240000DDB02FA0EFC22FA05F2801841F10001E2
:1002500003FA0EF2801843FA05F359410EE0A5F1B6
:1002600020050EF1200E012A03FA0EFC28BF4CF0E7
:10027000020C43FA05F3C01851EBE37101F000459D
:1002800007D54FF0000EDCF1000C7EEB00006EEBAA
:100290000101B1F5801F1BD3B1F5001F0CD3490834
:1002A0005FEA30004FEA3C0C04F101044FEA44528B
:1002B00012F5800F80F09A80BCF1004F08BF5FEA12
:1002C000500C50F1000041EB045141EA050130BDF2
:1002D0005FEA4C0C404141EB0101013C28BFB1F504
:1002E000801FE9D291F0000F04BF01460020B1FA4F
:1002F00081F308BF2033A3F10B03B3F120020CDA22
:100300000C3208DD02F1140CC2F10C0201FA0CF0FF
:1003100021FA02F10CE002F11402D8BFC2F1200C64
:1003200001FA02F120FA0CFCDCBF41EA0C0190401A
:10033000E41AA2BF01EB0451294330BD6FEA040463
:100340001F3C1CDA0C340EDC04F11404C4F120024E
:1003500020FA04F001FA02F340EA030021FA04F360
:1003600045EA030130BDC4F10C04C4F1200220FAB7
:1003700002F001FA04F340EA0300294630BD21FAF5
:1003800004F0294630BD94F0000F83F4801306BFBB
:1003900081F480110134013D4EE77FEA645C18BFAF
:1003A0007FEA655C29D094EA050F08BF90EA020F46
:1003B00005D054EA000C04BF1946104630BD91EA3E
:1003C000030F1EBF0021002030BD5FEA545C05D141
:1003D0004000494128BF41F0004130BD14F5800480
:1003E0003CBF01F5801130BD01F0004545F0FE41F4
:1003F00041F470014FF0000030BD7FEA645C1ABF29
:10040000194610467FEA655C1CBF0B46024650EA5F
:10041000013406BF52EA033591EA030F41F400218B
:1004200030BD00BF90F0000F04BF0021704730B511
:100430004FF4806404F132044FF000054FF00001E6
:1004400050E700BF90F0000F04BF0021704730B5A7
:100450004FF4806404F1320410F0004548BF40427C
:100460004FF000013EE700BF42004FEAE2014FEAD1
:1004700031014FEA02701FBF12F07F4393F07F4FAC
:1004800081F06051704732F07F4208BF704793F0AF
:100490007F4F04BF41F40021704730B54FF46074C2
:1004A00001F0004521F000411CE700BF50EA0102C5
:1004B00008BF704730B54FF000050AE050EA01026E
:1004C00008BF704730B511F0004502D5404261EBDE
:1004D00041014FF4806404F132045FEA915C3FF41F
:1004E000D8AE4FF003025FEADC0C18BF03325FEABC
:1004F000DC0C18BF033202EBDC02C2F1200300FA6D
:1005000003FC20FA02F001FA03FE40EA0E0021FA91
:1005100002F11444BDE600BF70B54FF0FF0C4CF47F
:10052000E06C1CEA11541DBF1CEA135594EA0C0F31
:1005300095EA0C0F00F0DEF82C4481EA030621EA6C
:100540004C5123EA4C5350EA013518BF52EA0335A7
:1005500041F4801143F4801338D0A0FB02CE4FF059
:100560000005E1FB02E506F00042E0FB03E54FF089
:100570000006E1FB03569CF0000F18BF4EF0010E81
:10058000A4F1FF04B6F5007F64F5407404D25FEA7D
:100590004E0E6D4146EB060642EAC62141EA555130
:1005A0004FEAC52040EA5E504FEACE2EB4F1FD0C72
:1005B00088BFBCF5E06F1ED8BEF1004F08BF5FEAF0
:1005C000500E50F1000041EB045170BD06F00046A2
:1005D00046EA010140EA020081EA0301B4EB5C044F
:1005E000C2BFD4EB0C0541EA045170BD41F4801147
:1005F0004FF0000E013C00F3AB8014F1360FDEBF6C
:10060000002001F0004170BDC4F10004203C35DA47
:100610000C341BDC04F11404C4F1200500FA05F3CA
:1006200020FA04F001FA05F240EA020001F000426B
:1006300021F0004110EBD37021FA04F642EB0601E1
:100640005EEA430E08BF20EAD37070BDC4F10C040B
:10065000C4F1200500FA04F320FA05F001FA04F2CF
:1006600040EA020001F0004110EBD37041F10001BB
:100670005EEA430E08BF20EAD37070BDC4F12005C6
:1006800000FA05F24EEA020E20FA04F301FA05F22E
:1006900043EA020321FA04F001F0004121FA04F2D6
:1006A00020EA020000EBD3705EEA430E08BF20EAA6
:1006B000D37070BD94F0000F0FD101F000464000E0
:1006C00041EB010111F4801F08BF013CF7D041EA62
:1006D000060195F0000F18BF704703F00046520066
:1006E00043EB030313F4801F08BF013DF7D043EA37
:1006F0000603704794EA0C0F0CEA135518BF95EAED
:100700000C0F0CD050EA410618BF52EA4306D1D173
:1007100081EA030101F000414FF0000070BD50EA92
:10072000410606BF1046194652EA430619D094EA1C
:100730000C0F02D150EA013613D195EA0C0F05D106
:1007400052EA03361CBF104619460AD181EA03015A
:1007500001F0004141F0FE4141F470014FF0000012
:1007600070BD41F0FE4141F4780170BD70B54FF0AD
:10077000FF0C4CF4E06C1CEA11541DBF1CEA13552D
:1007800094EA0C0F95EA0C0F00F0A7F8A4EB05040F
:1007900081EA030E52EA03354FEA013100F0888006
:1007A0004FEA03334FF0805545EA131343EA1263CF
:1007B0004FEA022245EA111545EA10654FEA002684
:1007C0000EF000419D4208BF964244F1FD0404F53D
:1007D000407402D25B084FEA3202B61A65EB030599
:1007E0005B084FEA32024FF480104FF4002CB6EB56
:1007F000020E75EB030E22BFB61A754640EA0C00D6
:100800005B084FEA3202B6EB020E75EB030E22BF15
:10081000B61A754640EA5C005B084FEA3202B6EB56
:10082000020E75EB030E22BFB61A754640EA9C0015
:100830005B084FEA3202B6EB020E75EB030E22BFE5
:10084000B61A754640EADC0055EA060E18D04FEAA3
:10085000051545EA16754FEA06164FEAC30343EA43
:1008600052734FEAC2025FEA1C1CC0D111F4801F10
:100870000BD141EA00014FF000004FF0004CB6E709
:1008800011F4801F04BF01430020B4F1FD0C88BFA8
:10089000BCF5E06F3FF6AFAEB5EB030C04BFB6EBB3
:1008A000020C5FEA500C50F1000041EB045170BDA6
:1008B0000EF0004E4EEA113114EB5C04C2BFD4EBD3
:1008C0000C0541EA045170BD41F480114FF0000E57
:1008D000013C90E645EA060E8DE60CEA135594EAD3
:1008E0000C0F08BF95EA0C0F3FF43BAF94EA0C0FD6
:1008F0000AD150EA01347FF434AF95EA0C0F7FF44B
:1009000025AF104619462CE795EA0C0F06D152EA9E
:1009100003353FF4FDAE1046194622E750EA410682
:1009200018BF52EA43067FF4C5AE50EA41047FF493
:100930000DAF52EA43057FF4EBAE12E74FF0FF3CF8
:1009400006E000BF4FF0010C02E000BF4FF0010CC9
:100950004DF804CD4FEA410C7FEA6C5C4FEA430C42
:1009600018BF7FEA6C5C1BD001B050EA410C0CBF91
:1009700052EA430C91EA030F02BF90EA020F0020F3
:10098000704710F1000F91EA030F58BF994208BF5A
:1009900090422CBFD8176FEAE37040F00100704717
:1009A0004FEA410C7FEA6C5C02D150EA013C07D16E
:1009B0004FEA430C7FEA6C5CD6D152EA033CD3D0B9
:1009C0005DF8040B704700BF8446104662468C46B3
:1009D0001946634600E000BF01B5FFF7B7FF0028E6
:1009E00048BF10F1000F01BD4DF808EDFFF7F4FF0F
:1009F0000CBF012000205DF808FB00BF4DF808ED9A
:100A0000FFF7EAFF34BF012000205DF808FB00BFBC
:100A10004DF808EDFFF7E0FF94BF012000205DF8DE
:100A200008FB00BF4DF808EDFFF7CEFF94BF012093
:100A300000205DF808FB00BF4DF808EDFFF7C4FF8C
:100A400034BF012000205DF808FB00BF4FEA4102DF
:100A500012F5001215D211D56FF47873B3EB625210
:100A600012D94FEAC12343F0004343EA505311F037
:100A7000004F23FA02F018BF404270474FF00000C9
:100A8000704750EA013005D111F0004008BF6FF007
:100A9000004070474FF00000704700BF53B94AB99B
:100AA000002908BF00281CBF4FF0FF314FF0FF3076
:100AB00000F074B9ADF1080C6DE904CE00F006F851
:100AC000DDF804E0DDE9022304B070472DE9F047CA
:100AD000089D04468E46002B4DD18A42944669D922
:100AE000B2FA82F252B101FA02F3C2F1200120FA05
:100AF00001F10CFA02FC41EA030E94404FEA1C4853
:100B0000210CBEFBF8F61FFA8CF708FB16E341EA4E
:100B1000034306FB07F199420AD91CEB030306F1D4
:100B2000FF3080F01F81994240F21C81023E6344F5
:100B30005B1AA4B2B3FBF8F008FB103344EA034499
:100B400000FB07F7A7420AD91CEB040400F1FF33AE
:100B500080F00A81A74240F207816444023840EAEB
:100B60000640E41B00261DB1D4400023C5E9004324
:100B70003146BDE8F0878B4209D9002D00F0EF80A7
:100B80000026C5E9000130463146BDE8F087B3FADA
:100B900083F6002E4AD18B4202D3824200F2F980C2
:100BA000841A61EB030301209E46002DE0D0C5E9C5
:100BB000004EDDE702B9FFDEB2FA82F2002A40F011
:100BC0009280A1EB0C014FEA1C471FFA8CFE012614
:100BD000200CB1FBF7F307FB131140EA01410EFBB8
:100BE00003F0884208D91CEB010103F1FF3802D25F
:100BF000884200F2CB804346091AA4B2B1FBF7F059
:100C000007FB101144EA01440EFB00FEA64508D97B
:100C10001CEB040400F1FF3102D2A64500F2BB80B8
:100C20000846A4EB0E0440EA03409CE7C6F1200707
:100C3000B34022FA07FC4CEA030C20FA07F401FA4D
:100C400006F31C43F9404FEA1C4900FA06F3B1FBD6
:100C5000F9F8200C1FFA8CFE09FB181140EA01413B
:100C600008FB0EF0884202FA06F20BD91CEB0101D8
:100C700008F1FF3A80F08880884240F28580A8F130
:100C800002086144091AA4B2B1FBF9F009FB101182
:100C900044EA014100FB0EFE8E4508D91CEB010120
:100CA00000F1FF346CD28E456AD90238614440EAC3
:100CB0000840A0FB0294A1EB0E01A142C846A64643
:100CC00056D353D05DB1B3EB080261EB0E0101FACC
:100CD00007F722FA06F3F1401F43C5E90071002629
:100CE0003146BDE8F087C2F12003D8400CFA02FC7F
:100CF00021FA03F3914001434FEA1C471FFA8CFE8F
:100D0000B3FBF7F007FB10360B0C43EA064300FB7E
:100D10000EF69E4204FA02F408D91CEB030300F11C
:100D2000FF382FD29E422DD9023863449B1B89B2D3
:100D3000B3FBF7F607FB163341EA034106FB0EF35C
:100D40008B4208D91CEB010106F1FF3816D28B4209
:100D500014D9023E6144C91A46EA004638E72E46D5
:100D6000284605E70646E3E61846F8E64B45A9D2CD
:100D7000B9EB020864EB0C0E0138A3E74646EAE73C
:100D8000204694E74046D1E7D0467BE7023B6144EA
:100D900032E7304609E76444023842E7704700BF53
:100DA0004FEA410C7FEA6C5C02D150EA013C0AD167
:100DB0004FEA430C7FEA6C5C02D152EA033C02D159
:100DC0004FF0000070474FF001007047034613F8E2
:100DD000012B002AFBD1181A0138704700000000CF
:100DE0002DE9F04F2DED028B9FEDAB8B9BB0814633
:100DF0008A4615461C460026287810B9304600F071
:100E0000CBBD6B1C2528029306D05146C84700284D
:100E1000C0F2C28501362EE2182200210CA807F08C
:100E200050FF6B78252B59D06A1C174612F8013BEE
:100E30002B2B00F08B8079D8202B00F08C80232B7B
:100E400000F08E809DF8383003F04402442A03D12C
:100E50006FF386138DF838309DF838300A9743F0D9
:100E600080038DF838303B782A2B7ED19DF83930BD
:100E700043F001038DF839307B1C0A931A782E2A2F
:100E80009DF839200CBF0121002161F341028DF84A
:100E900039200BD15A1C0A925A782A2A7BD19DF804
:100EA000392042F004028DF839200233194611F836
:100EB000010B6C2800F0CF807DD8682800F084807A
:100EC0006A2800F0D2804C2800F0D6809DF83920A6
:100ED0006FF3C6028DF83920194680E0AA1C0292F1
:100EE0008DF83B309DF83930DF0740F1788154F8B8
:100EF00004BBBBF1000F07DA9DF8382042F0040272
:100F00008DF83820CBF1000B580740F1718154F86F
:100F1000048BB8F1000F80F270819DF839306FF3C7
:100F200041038DF839304FF0FF3866E12D2B06D0A4
:100F3000302B87D19DF8383043F0400303E09DF813
:100F4000383043F004038DF838306EE79DF83830C0
:100F500043F00803F7E79DF8383043F01003F2E759
:100F60009DF8383043F02003EDE70AA801F0EEFCCD
:100F70000A9BBB4281D09DF838700F90C7F34001A7
:100F800041EAD072520062F07F0207F07D010A430D
:100F90008DF8382071E70AA801F0D8FC9DF83830A8
:100FA0001090C3F3400242EAD07060F341038DF821
:100FB00038300A9B7AE774289DF8392059D07A286E
:100FC00084D11346062241E05A78682A9DF83920D8
:100FD0003AD1012161F3C6028DF83920991C0B46E4
:100FE00013F8012B0293782A8DF83B2000F2CD8074
:100FF000572A55D8412A04D0A2F14503022B00F20A
:10100000C4809DF83A30042161F302038DF83A3030
:1010100002F0DF03A3F141089DF83920D8F1000365
:1010200043EB080363F3C7128DF83920D3B21206DD
:1010300000F1D38003F07802182A40F0A3806FF308
:10104000C6038DF839308AE01346022262F3C603E4
:101050008DF83930C3E75A786C2A9DF8392001D1D0
:101060000421B7E713460322F0E79DF83930052243
:10107000ECE713460722E9E7BDF8383023F4F043E4
:1010800023F0020343F4804343F00203ADF8383009
:10109000A5E700BFAFF300800000000000000008DB
:1010A000A2F15803202B70D801A151F823F000BF02
:1010B000631100008B1100008B1100008B110000E8
:1010C0008B1100008B1100008B1100008B110000B0
:1010D0008B110000031000008B1100006311000051
:1010E0003511000003100000031000000310000081
:1010F0008B110000351100008B1100008B110000D6
:101100008B1100008B110000991100006311000089
:10111000BD1100008B1100008B110000BD110000FB
:101120008B110000631100008B1100008B11000077
:10113000631100009DF83A30012161F302038DF83C
:101140003A309DF8393003F07803402B02BF9DF808
:10115000381041F001018DF83810632A05D00023C2
:1011600006E09DF83A300221E7E7003B18BF012373
:101170009DF83820C2F340010B4363F341028DF820
:101180003820AFE613F0380FE9D09DF8383043F03F
:1011900001038DF83830E2E79DF83A30032262F31C
:1011A00002038DF83A309DF8393003F07803A3F14B
:1011B000400CDCF1000343EB0C03D9E79DF83A3017
:1011C000032262F302038DF83A309DF8393013F0B0
:1011D000780F14BF01230023CAE70123C8E79DF954
:1011E0003820002AB4BFDDF83CB04FF0FF3B8BE65F
:1011F00099077FF598AEDDF840809DF839100023FF
:10120000CDE90F339DF83A3003F00702042A09D1E3
:101210008A0707D49DF93920002AB4BF4FF00D0882
:101220004FF0060803F00703012BC1F3C30137D1C8
:10123000CB1E042B21D8DFE803F00309092020008E
:1012400054F8043BDA17CDE90C3206E0073424F0F9
:101250000704F4E80223CDE90C239DF83870BB079E
:1012600056D0029B2A465146484606F019FF0028F0
:10127000C0F292830644029DBEE554F8043B012966
:101280004FEAE372CDE90C3205D19DF830300C9372
:1012900000230D93E1E70229DFD1BDF93030D1E71A
:1012A000022B23D1CB1E042B13D8DFE803F0030A53
:1012B0000A12120020680C900022231D0D921C4679
:1012C000CBE7E31D23F00703B3EC027B8DED0C7B32
:1012D000F5E754F8043B0C9301294FF000030D93FC
:1012E000D3D00229B9D1BDF83030D0E7042B09D1D1
:1012F000E31D23F0070303F10804D3E90023CDE93C
:101300000C23AAE7032B04BF54F8043B0C93A4E777
:101310009DF83B20782AAED8572A00F28C80252AE7
:1013200000F0D480242AA6D9412A03D0A2F1450393
:10133000022BA0D8DDE90C13002BC0F2B7813807CF
:1013400000F1B68117F0100718BF2027C3F30A5524
:10135000C3F31303CDE90813002D40F0AB8151EA2C
:10136000030014BF01200020DB0243EA5153C902ED
:10137000462A45EA010E43EAE57C08BF66225EEA9A
:101380000C0CCDE9081300F00382002840F0CB815B
:10139000DDE908014FF0000C41F00041A5F2FE35F7
:1013A000099163464FF0050E15F1020FC0F2C2819C
:1013B000BCF1000F01D0CDE90801002DDDE90801E5
:1013C00000F3CD8109980899C5F1040C1C3500FA89
:1013D00005F5ACF1200E21FA0CF120FA0EFE29439E
:1013E00041EA0E0120FA0CF0CDE9081002F0DF010D
:1013F000472940F0D481DD1C02DB984580F2CB8187
:10140000023AB8F1000FD2B201DD08F1FF389DF8C1
:101410003810880600F1C381B8F1000FD4BF002155
:101420000121662A039140F0BC8113EB080140F1D1
:10143000BA810021BAE1A2F15803202B3FF61BAF7D
:1014400001A050F823F000BF4F16000077120000F3
:101450007712000077120000771200007712000068
:101460007712000077120000771200003513000099
:1014700077120000F9140000EF150000351300008A
:10148000351300003513000077120000EF1500003F
:101490007712000077120000771200007712000028
:1014A000851600004F16000053160000771200004A
:1014B00077120000D3140000771200004F160000CE
:1014C00077120000771200004F16000051461046B8
:1014D0009CE4B8F1000F0C9A09DB414610460392D8
:1014E00007F075FD039A0027151862B9C3E6104688
:1014F0000392FFF76BFCF5E70C9B8DF84C3000274F
:101500000DF14D0513AAAB1A07B101339DF83A004E
:10151000C10640F1358202330F9940060B4444BFA7
:1015200010995B18BBF1000F23DDABEB030B9DF8AB
:1015300038305907C3F380081BD4580640F136826F
:10154000002F00F03682514638460392C8470028E3
:10155000C0F22282039A474601364FF030085E44BB
:101560005B46002BA6EB0B000BF1FF3B00F30C825C
:10157000064647B1514638460392C8470028C0F294
:101580000B82039A01369DF83A30590640F1658284
:101590009DF93930002BA6EB020680F2198217461E
:1015A000B846F31917F8010B702840F00582109F18
:1015B0001E461F44BB1B002B00F348822B464246AD
:1015C0005146484606F06CFD0028C0F2E5813044E3
:1015D00006468344ABEB0603002B7FF74CAE514627
:1015E0002020C8470028C0F2D7810136F2E73D0726
:1015F0002BD417F0100718BF2027DDE90C23002B90
:1016000005DA524263EB4303CDE90C232D270DF19C
:10161000650300930EAADDE90C0113AB01F0ACF9F0
:101620000246B8F1000F0DF16505FFF65EAF9DF8BB
:101630003810AB1A6FF3861198458DF838107FF685
:1016400054AFA8EB03030F934FE72B27D5E70027F1
:10165000DDE70C98002800F08F810DF16503009301
:101660000EAA13AB002101F087F9BDF83A3003F060
:10167000EF0343F4F04343F010030246ADF83A3071
:101680000027CEE70C9B07293FF6F5ADDFE801F018
:101690000C04060C08080C0C1E70ECE51E80EAE534
:1016A000F217C3E90062E6E51E60E4E52D274DE68A
:1016B0002B274BE640F2FF70854231D10132B94809
:1016C000D2B20B43125C02F003021BD1012A11D1EA
:1016D00049238DF84C304E238DF84D3046238DF83C
:1016E0004E309DF838306FF386138DF838300DF199
:1016F0004F0507E769238DF84C306E238DF84D3088
:101700006623ECE7012A07BF4E2341226E236122A4
:101710000CBF8DF84C308DF84C308DF84D20DEE745
:10172000002021E6013D49185B41002BFADACDE9A2
:1017300008132DE6400840EAC1704908B1F1333F73
:10174000AC4605F10105F5D20EFB01F5A0FB0E013B
:101750002944013B0CF102054FF0010C24E6023054
:1017600041F10001CDE9080108A8CDE9032306F005
:1017700068FC049B039ADDE90810013D0133491818
:101780004041002805F1FF35F9DACDE9081014E6EB
:1017900000231D4616E6A8EB0308662237E6002163
:1017A0003FE608F101011029A8BF10218DED0A8B39
:1017B000102007900D46DDE90A01A5B9089D4019E2
:1017C000099D41EB0501B1F1805F1BD2CDE9080114
:1017D000662A40F09980002B23DC30218DF84C10D4
:1017E0000DF14D052FE0400840EAC1704908CDE9F0
:1017F0000A010AA8CDE90423013D06F022FCDDE937
:101800000423D8E7400840EAC1704908CDE908013F
:1018100008A8CDE9042306F014FC059B049A0133C3
:10182000D6E713AD079900290BDD07A908A8CDE974
:10183000042306F01EFC059B05F8010B013B049AEE
:10184000F0D10F9300239DF83810890602D4B8F127
:10185000000F1DDD2E2105F8011B9BB1B8F1000F13
:1018600016DD59424145A8BF41469DF83A000F9107
:101870000029A8EB0108D4BF0021012161F3451024
:101880008DF83A00B8F1000F02DD0799002956DC07
:101890000399002963D1CDF8408002F0DF0145298A
:1018A00021D1002B2946B8BF5B4201F8022BB4BFFF
:1018B0002D222B22632B6A7009DD6420B3FBF0F22A
:1018C00002F1300CE91C85F802C000FB12330A203B
:1018D0000D46B3FBF0F200FB123302F1300C303353
:1018E00005F802CB4B700F9B002B43DC109B002BA9
:1018F000D4BF002301239DF83A2063F3861200230E
:101900008DF83A202B70FDE507A908A8CDE904233E
:1019100006F0AFFBDDE904239DF838108DF84C008C
:10192000302818BF03F1FF33880602D4B8F1000F46
:1019300012DD2E218DF84D100DF14E05A2E707A9FD
:1019400008A8CDE9042306F094FB08F1FF38DDE98F
:10195000042305F8010B95E70DF14D0598E70021EB
:101960001091284615F8011D3029FAD02E2918BFEC
:10197000054692E70123BEE70B4D07466A1FC2E505
:10198000010748BF0133C7E5514640460392C847A7
:101990000028039ABFF6E4AD1BB0BDEC028BBDE896
:1019A000F08F00BFCBA900007CA800004FF02008FA
:1019B000D5E54FF03008D2E55146C8470028BFF6BC
:1019C000EFADE9E751460392C8470028039AE3DBED
:1019D0001078374BC35C5B07174606EB020802F131
:1019E0000102EFD49DF83A300F9E990607D4B04417
:1019F000002EA8EB060206F1FF360FDC9046387881
:101A00002E2808D15146C8470028C5DB002E08F112
:101A1000010809DC0137A8EB07060EE0514630202B
:101A2000C8470028E4DAB7E751463020C847013EEE
:101A3000EAE75146C8470028AEDB1D4AB846F3190D
:101A400017F8010B125C5207F3D4B0E55146302071
:101A5000C8470028A0DB0136ACE5D80601D4190739
:101A600007D5514630200392C847002894DB039ADB
:101A700001369DF83A30DB0608D59DF83B0003920D
:101A80005146C847002887DB039A01360F9F374429
:101A9000BB1B002B01DC2B4692E551463020039204
:101AA000C8470028FFF678AF039A0136F0E700BF79
:101AB000CCA90000000000002DE9F04F2DED048BB3
:101AC00057EC106B93B0456ADDF88080069110EEFC
:101AD00010AA044609920C93BB4675B9102004F075
:101AE00001FB0246606220B9A74BEA21A74804F037
:101AF000C9FAC0E901550560C560636A196851B14A
:101B00005A684A60012393408B60204605F028FC08
:101B1000636A00221A603B1EAABF002323F0004B19
:101B2000C8F800309A4BBCBF0122C8F8002033EA45
:101B30000B031BD10C9A42F20F731360CBF3130308
:101B4000334300F09285219B63B9924B22E0924B84
:101B500001930833219A1360019813B0BDEC048BF4
:101B6000BDE8F08F8B4B01930333F3E70022002392
:101B700050465946FEF738FF4BEC19AB804658B13A
:101B80000C9A01231360219B002B00F06B85834886
:101B90001860431E0193DFE74BEC10AB10AA11A9AC
:101BA000204605F059FECBF30A5508EE100A002D29
:101BB00000F0848019EE903AC3F3130343F07F578B
:101BC000564647F44017A5F2FF35CDF83880744BE0
:101BD000002230463946FEF7E7FA65A3D3E9002331
:101BE000FEF79AFC64A3D3E90023FEF7DFFA06466A
:101BF00028460F46FEF726FC61A3D3E90023FEF733
:101C00008BFC02460B4630463946FEF7CFFA0646B5
:101C10000F46FEF71BFF0022009000233046394696
:101C2000FEF7ECFE50B10098FEF70CFC32463B4646
:101C3000FEF7DAFE10B9009B013B0093009B162BC8
:101C40005AD8009A574B03EBC203D3E9002351EC57
:101C5000190BFEF7D3FE002850D0009B013B0093E8
:101C600000230B93109B5D1B6B1E059345BFC5F1B5
:101C700001030493002300234CBF05930493009BAE
:101C8000002B3DDB059B009A0A9213440593002329
:101C90000793069B092B00F28980052BC4BF043BE8
:101CA0000693069BA3F10203CCBF00250125032B5D
:101CB00000F28780DFE803F02D3A3859DDE9105350
:101CC0001D4405F23243202BC1BFC3F1400305F28E
:101CD00012400BFA03F326FA00F0DABFC3F1200337
:101CE00006FA03F01843FEF79DFB01230646A1F117
:101CF000F877013D0E936AE70123B2E70B90B1E755
:101D0000049B009A9B1A04935342079300230A935F
:101D1000BFE700230893099B002B55DC0123CDE985
:101D200002331A4609920CE00123F3E70023099AD3
:101D30000893009B134402930133012B0393B8BF14
:101D40000123606A00224260042202F114069E42CE
:101D500041683DD9204605F0C3FA019000283BD1E7
:101D6000114B02464FF4D571C0E60123DFE700BFF7
:101D700061436F63A787D23FB3C8608B288AC63F91
:101D8000FB799F501344D33F1CAB000033AB0000E2
:101D90000000F07F18AB00000FAB000006A90000A8
:101DA0000000F83F08A00000B1AB000001250023AF
:101DB000069308954FF0FF33CDE90233002212233A
:101DC000B0E701230893F5E7099BCDE90233B8E7B3
:101DD000013141605200B8E7636A019A1A60039BBF
:101DE0000E2B00F29D80002D00F09A80009B002BAE
:101DF00032DDB74A03F00F0302EBC303D3E90089D6
:101E0000009BD8054FEA231716D5B24B51EC190B9E
:101E1000D3E90823FEF7AAFC07F00F0782468B469A
:101E20000325AC4E57B942464B4650465946FEF73D
:101E30009DFC82468B4628E00225F2E7F90708D58B
:101E400040464946D6E90023FEF766FB0135804649
:101E500089467F100836E5E700F09B80009B9D4F88
:101E60005E429B4B06F00F0203EBC203D3E9002353
:101E700051EC190BFEF750FB361182468B460023BE
:101E80000225002E7AD1002BD3D10B9B002B00F022
:101E90008280914B002250465946FEF7AFFD002844
:101EA00079D0039B002B76D0029B002B36DD009B64
:101EB000504659465F1E0022884BFEF72DFB029EBE
:101EC00082468B4601352846FEF7BCFA52465B46F1
:101ED000FEF722FB824B0022FEF768F9D046D94676
:101EE0008246A1F1507B002E58D17E4B0022404605
:101EF0004946FEF759F952465B4680468946FEF749
:101F00009BFD002840F0958252460BF1004340466D
:101F10004946FEF773FD002840F089825BEC19AB5F
:101F2000119B002BC0F24881009A0E2A00F34481D5
:101F3000674B03EBC203D3E90089099B002B80F2B6
:101F4000D580039B002B00F3D18040F06F82654B5E
:101F5000002240464946FEF7DFFA52465B46FEF74E
:101F600061FD039E3746002840F04582019D3123E4
:101F700005F8013B009B0133009340E2F20705D5D1
:101F8000D7E90023FEF7C8FA013501237610083798
:101F900077E7022579E7009F039E94E701994C4B70
:101FA00031440D91089903EBC60353E9022300293C
:101FB00043D04D490020FEF7D9FB52465B46FEF761
:101FC000F3F8019D82468B4649464046FEF73EFDAA
:101FD0000646FEF737FA02460B4640464946FEF7EC
:101FE000E3F8303605F8016B52465B468046894679
:101FF000FEF704FD002863D142464B4636490020D7
:10200000FEF7D2F852465B46FEF7F8FC002840F097
:10201000B5800D9B9D4281D0304B002250465946E1
:10202000FEF77AFA2D4B82468B46404649460022FF
:10203000FEF772FA80468946C6E750465946FEF7D3
:102040006BFA0D9B019D0F9382468B464946404695
:10205000FEF7FCFC0646FEF7F5F9303602460B4665
:1020600040464946FEF7A0F805F8016B0D9B9D42DE
:10207000804689464FF0000224D11B4B50465946FA
:10208000FEF794F802460B4640464946FEF7D4FC5C
:10209000002873D152465B4613490020FEF784F8AE
:1020A00002460B4640464946FEF7A8FC00283FF48E
:1020B00035AF0F9D6B1E0F9315F8013C302BF8D0F8
:1020C000009749E0054BFEF727FA80468946BDE7B1
:1020D00008A00000E09F00000000F03F0000244046
:1020E00000001C40000014400000E03F019D5646E7
:1020F0005F4642464B4630463946FEF737FBFEF711
:10210000A5FC8246FEF79EF942464B46FEF704FACE
:1021100002460B46304639460AF13006FEF744F8CF
:1021200005F8016B019E039FAE1BB74202460B46AA
:1021300035D1FEF73BF842464B4606460F46FEF7C2
:102140007BFCD0B942464B4630463946FEF74CFC44
:1021500010B11AF0010F10D1204618EE101A05F038
:10216000FFF8002300982B700C9B01301860219B16
:10217000002B3FF4F1AC1D60EEE4009F2B461D46A2
:1021800013F8012D392A06D1019A9A42F7D1019903
:10219000302201370A701A7801321A7090E7A64B84
:1021A0000022FEF7B9F90022002306460F46FEF78B
:1021B0001BFC00289DD0CFE7089A002A00F0D780AA
:1021C000069A012A00F3BA800E9A002A00F0B28023
:1021D00003F23343079E049D049A1A440492059A1D
:1021E00001211A442046059205F022F90746002DE8
:1021F0000CDD059B002B09DDAB42049AA8BF2B46E2
:10220000D21A0492059AED1AD31A0593079B1BB3B1
:10221000089B002B00F0AF80002E13DD39463246BC
:10222000204605F0C5F918EE102A0146074620465B
:1022300005F014F918EE101A8046204605F090F8C3
:1022400008EE108A079B9A1B06D018EE101A20463B
:1022500005F0AEF908EE100A0121204605F0E8F875
:102260000A9B002B064640F388801A46014620460A
:1022700005F09EF9069B012B064640F381804FF046
:102280000008336906EB8303186906F091FFC0F17B
:102290002000059B184410F01F0000F09280C0F150
:1022A0002003042B40F38A80C0F11C00049B0344EC
:1022B0000493059B034405440593049B002B07DD11
:1022C00018EE101A1A46204605F0CCF908EE100A4E
:1022D000059B002B05DD31461A46204605F0C2F964
:1022E00006460B9B002B6ED018EE100A314606F006
:1022F000AEFF002867DA009B013B18EE101A00932E
:102300000A220023204605F04DF8089B08EE100A2B
:10231000002B00F0B181002339460A22204605F047
:1023200041F8029B002B074600F38E80069B022B90
:1023300051DC89E0109BC3F136034BE7039B5E1E23
:10234000079BB342BFBF079B0796F21A0A9BB6BF13
:102350009B189E1B0A93039BB8BF0026002BB7BF98
:10236000DDE90323DDE903359D1A002334E7079EE9
:10237000049D089F3BE7079A67E7069B012B18DC43
:10238000BAF1000F15D1CBF3130393B92BF000432F
:102390001B0D1B0583B1049B01330493059B013383
:1023A00005934FF001080A9B002B7FF46AAF0120D0
:1023B0006FE74FF00008F6E79846F4E73FF47DAF8B
:1023C00018461C3072E7039B002B37DC069B022B60
:1023D00034DD039B0293029B6BB9314605222046F4
:1023E00004F0E0FF0146064618EE100A06F02FFF43
:1023F00000283FF7BBAD099B019DDB4300934FF0E5
:1024000000083146204604F0ABFF002F3FF4A4AE95
:10241000B8F1000F05D0B84503D04146204604F07E
:102420009FFF3946204604F09BFF95E6002637467D
:10243000E1E70097374699E500002440089B002B10
:1024400000F0CA80039B0293002D05DD39462A4621
:10245000204605F007F90746B8F1000F5BD0796810
:10246000204604F03DFF054628B9874B024640F25E
:10247000EA21FFF73BBB3A690232920007F10C01F7
:102480000C3006F010FC01222946204605F0EAF83F
:10249000019B03F10109DDE90123134405930AF0CF
:1024A0000103B84604930746314618EE100A06F0B9
:1024B0009AFD4146029000F1300A18EE100A06F02B
:1024C000C6FE3A4603903146204605F03BF9C26805
:1024D00009F1FF3B054602BB014618EE100A06F063
:1024E000B6FE024629462046079204F039FFDDE990
:1024F000063243EA0201049B0B434D460FD1BAF169
:10250000390F2AD0039B002B02DD029B03F1310A15
:102510008BF800A075E73846BAE70122E2E7039B93
:10252000002B04DB06990B4304990B4322D1002AAC
:10253000EEDD18EE101A0122204605F093F8314620
:1025400008EE100A06F083FE002803DCE0D11AF042
:10255000010FDDD0BAF1390FD7D139238BF8003014
:102560002B461D46013B15F8012C392A71D001324A
:102570001A7046E7002A07DDBAF1390FEDD00AF1EB
:1025800001038BF800303CE7059B09F801AC994545
:1025900047D018EE101A00230A22204604F002FF4A
:1025A000B84508EE100A4FF000034FF00A0241460A
:1025B000204606D104F0F6FE8046074609F10109DF
:1025C00072E704F0EFFE3946804600230A222046D7
:1025D00004F0E8FE0746F1E7039B0293019D18EE25
:1025E000100A314606F0FFFC00F1300A019B05F8A5
:1025F00001ABEA1A029B934209DD18EE101A002380
:102600000A22204604F0CEFE08EE100AE7E7029BFD
:10261000002BC8BF1D46019BD8BF01251D444FF0AC
:10262000000818EE101A0122204605F01BF831466A
:1026300008EE100A06F00BFE002891DC02D11AF019
:10264000010F8DD12B461D4613F8012D302AFAD0EB
:10265000D7E6019A9A4284D1009B0133009331233B
:102660001370CEE6094BFFF795BA219B002B7FF440
:102670006EAA074BFFF78EBA029B002BAEDC069BBF
:10268000022B3FF7A8AEA9E7B1AB000005A90000F7
:102690000FAB0000194B1A481A681A4B02F5446137
:1026A00010B55960C3F83C1102F544710024C3F819
:1026B0006C11C3F89C11C3F8CC1102F5C871C0E9C4
:1026C0000044C3F82421C3F85421C3F88421C3F87B
:1026D000B421C3F8E421C3F8FC11C3F814220A4959
:1026E0000A4A846005F014FD0948084A8460C0E97C
:1026F00000440849BDE8104005F00ABDB8070020B5
:10270000C807002000000020937D0000D4070020AF
:10271000BC070020A37D000008B5094B1868002302
:1027200019460222806804F069FA064805F061FB48
:102730000548002243F6706105F05BFB012008BDEF
:102740003C030020F8A7000026A800000B68013316
:102750000B60014B1B68184728020020014B1860D2
:10276000704700BF2802002007B50B460021024633
:102770000191034801A9FEF733FB03B05DF804FBA8
:102780004D2700002DE9F74FB0F81C9019F008080C
:10279000044693460ED001290CBF49F0100949F0B8
:1027A0002009A0F81C908BF31188BFF36F8F03B042
:1027B000BDE8F08FDFF890A109F00709022907D1E1
:1027C000204605F023FB0028EDD00128A38B4BD138
:1027D000A769A18B002F15DA256821F00701C4E94C
:1027E000008841F00101A1830026A18B01F00702BE
:1027F0004A4502D0A368002B57D10DB9002E6FD0E7
:10280000002353E001F007035A1F012A1DD821F0CD
:102810000701062B256889B2C4E900880AD13DB1B9
:10282000E38B2A46126801339BB2002AFAD1E38374
:1028300041F00201A183204605F0E8FA0028D3D038
:10284000A38B43F02003A383CEE7042B0AD121F00E
:10285000070189B2A183204605F0D8FA10B141F0F2
:102860002001A1830025BFE7032809D1226923F0B5
:102870000703166843F00603A38300252F46B4E739
:10288000042806D1226923F00703566843F00403A5
:10289000F2E7052806D1226923F00703966843F082
:1028A0000503E9E700252E46E8E7012341F008018A
:1028B000A1838BF31188BFF36F8F03BB002D31D140
:1028C00016B151462046B0474FF02003EFF3118B6D
:1028D00083F31288BFF36F8FA38B23F00803A383C6
:1028E000A38BDA0627D523F01003A3830121B4F8C4
:1028F0001C9009F0070900297FF460AF53E7A16835
:102900000029DBD0D1F80090D1F804B001923B4609
:102910002046D847019AB9F1000FCFD04946D9F8DF
:102920000090F1E729463B46204601922D6805F0CC
:1029300089FA019AC2E713F020011EBF23F0200399
:10294000A3830221D3E700BF717E0000F0B5094EDA
:10295000016802460A2700200C46013123789D5D5C
:102960006D0701D41460F0BD07FB0033A3F1300004
:10297000F2E700BFCCA900002DE9F84F15469A46B2
:10298000D378224A13F802B06F2B80460F460BF023
:10299000030B29D024D8582B14BF0A261026DDF8A3
:1029A00028903246002340463946FEF777F8092A38
:1029B000D4B21ED83034B045E4B277F1000309F840
:1029C000014D01D3D14511D82B789B0605D5082E92
:1029D00015D1AB7843F00803AB704846BDE8F88FDB
:1029E00003F0F703702BD7E70826D8E780460F4699
:1029F000D7E7BBF1010F0CBF37345734DBE7102E9C
:102A0000EBD1AB7843F01003E6E700BFCCA90000A0
:102A100008B54FF02002EFF3118382F31288BFF361
:102A20006F8F00F0F7FE034805F0E3F900F04EFA6F
:102A3000FCE700BF7DA8000038B5044C044DAC4253
:102A400000D338BD54F8043B9847F8E7C895000018
:102A5000CC95000038B5054C256804EB850405B914
:102A600038BD54F80439013D9847F8E7C095000097
:102A70002DE9F84305464FF02003EFF3118683F369
:102A80001288BFF36F8F0E4B1C689CB10D4FDFF89F
:102A900038804FF00C09D4E90132002D08BF1346ED
:102AA0002BB198F8142009FB02F2B85C984724680F
:102AB000002CF0D186F31188BFF36F8FBDE8F88347
:102AC000D8070020E0070020880E002042090123DB
:102AD00000F01F0003FA00F0074BBFF35B8FC04309
:102AE00003EB820353E8002F024043E80021002952
:102AF000F8D1BFF35B8F7047EC07002038B51A4B55
:102B00001C7DBFF35B8F04F01F0301229A40174B1B
:102B10006109D04303EB810353E8001F01EA00057C
:102B200043E8005CBCF1000FF6D1BFF35B8F1142AC
:102B300013D00F4B0F4D8BB10C236343EA18E85CA5
:102B4000517805F02AFB0020FFF792FF0C235C432D
:102B50002A1900232B51C2E9013338BD83F31188B0
:102B6000BFF36F8FEFE700BF880E0020F007002053
:102B70009B810000E00700202DE9F843324B334AE7
:102B80001C7DBFF35B8F63094FEA830952F8233042
:102B90002F4EBFF35B8F04F01F0843FA08F313F0C6
:102BA000010F07460AD10146204600F069F828B116
:102BB00007C80C2303FB046383E807000C2363436B
:102BC000F218F55C2DB92046FFF780FF2846BDE8D6
:102BD000F8837B1C0FD0D2F808C01E481E4A4FF461
:102BE000004500210023ECFB0501FDF757FF012103
:102BF000381A06F023F802F0E5FD0120FFF738FF50
:102C0000BFF35B8F012303FA08F8144B994459E88A
:102C1000003F43EA080349E80032002AF7D1BFF336
:102C20005B8F0F4B33B10C236343F218F05C517888
:102C300005F0A7FAFFF762FF2046FFF747FF02F013
:102C400091FF0120C3E700BF880E0020EC070020A1
:102C5000E00700203F420F0040420F00F007002035
:102C600083810000054BBFF35B8F53F82000BFF357
:102C70005B8F003818BF0120704700BFF4070020A9
:102C80002DE9F04F85B00F4603A900F047F8DFF8B3
:102C90008480DFF884A0013804B24FF0000B631C7D
:102CA00004D10026304605B0BDE8F08F039A04EB4E
:102CB000440302EB830612F82300FFF7D3FF054617
:102CC00010BB70684FF40049C4462946E0FB09C1B7
:102CD00052465B466046FDF7E1FE0190B068C4468F
:102CE0002946E0FB09C15B4652466046FDF7D6FE29
:102CF000074B1B68591C01D0834205D97A1CD1D0DF
:102D0000019B1844B842CDD9013C24B2C7E700BFAB
:102D10002C0200203F420F0040420F0008B9024B36
:102D20000B600020704700BF6CA50000014804F054
:102D3000A1BE00BF6CA5000010B5044618B90D4B2C
:102D40000D485B689847616808290DD031F004038D
:102D50000AD011F0020108D00848214605F061FEB2
:102D6000002323600023636010BD2068142205F057
:102D7000A8FFF7E70C050020A6A800001008002017
:102D800008B508B34368042B10D101220368BFF3D0
:102D90005B8F53E8001F002903D143E8002000287F
:102DA000F7D1BFF35B8F0BD1002008BD53B1006892
:102DB0004FF0FF324FF0FF3302F0AAFB0028F3D0B0
:102DC0000348F2E70348F0E76FF4E040EDE700BFA7
:102DD000E98FFFFFEA8FFFFF08B5D0B14368042BEE
:102DE00011D100220368BFF35B8F53E8001F012954
:102DF00003D143E800200028F7D1BFF35B8F0748D9
:102E000008BF104608BD3BB1006802F0F9FB002086
:102E1000F8E76FF4E040F5E70148F3E7E98FFFFFDB
:102E2000EA8FFFFF10B5044618B9164B16485B68C9
:102E300098476368042B23D0082B21D0CBB9236893
:102E4000BBB912484FF0FF324FF0FF33214602F07A
:102E500087FA08B923681BB90A4B0D485B68984785
:102E600020681422002105F02CFF636843F0020360
:102E70006360206805F013FE636843F0010363603C
:102E800010BD00BF0C050020A6A8000010080020FF
:102E9000CCA8000008B5064906484023142205F0D6
:102EA000A4FDBDE808400449044804F043BE00BF47
:102EB000300800201008002084A5000074A5000040
:102EC000014910220A60704710ED00E072B64040E0
:102ED00080F31188BFF36F8FBFF34F8F30BF62B69F
:102EE000BFF36F8F704700BF72B6494081F31188FE
:102EF00020BF80F3118862B6704700BF43B2002B39
:102F000008DB012200F01F0002FA00F05B09024A10
:102F100042F82300704700BF00E100E0054B420982
:102F200000F01F0053F82220012303FA00F01040A4
:102F3000704700BF00E100E043B2002BA8BF03F1DF
:102F4000604301F10101B8BF064B4FEA4111ACBF2C
:102F500003F5614300F00F00C9B2B4BF195483F800
:102F60000013704714ED00E030BFFFF7FDBF00BF56
:102F7000144A08B5144B22F07F029A60BFF34F8FBA
:102F8000BFF36F8FD3F8882022F47002C3F8882033
:102F9000D3F8882042F4A002C3F888204FF04042C2
:102FA000C3F83422BFF34F8FBFF36F8F0023E1EEDE
:102FB000103A02F005F902F0F7FE00F051FA02F0C3
:102FC00043F900BF0000000000ED00E0094A0A4993
:102FD000936809689967094958674B6843F08053BB
:102FE0004B60002383F31188BFF36F8F9368986F52
:102FF000704700BF880E0020FCA6000000ED00E036
:1030000021498A6882F8BDE04FF030001044EFF3A8
:10301000098C80E8F01F1EF0100F03D102F17C0034
:1030200080EC108A202080F31288BFF36F8F174F37
:103030004FF00066CA698A603E6092F9BDE0506F49
:103040000023536780F311881EF0100F03D0002374
:10305000E1EE103A03E002F17C0090EC108AEFF30D
:10306000148323F0040383F31488BFF36F8F04B534
:10307000104600F091FABDE8044002F1300090E8FB
:10308000F01F8CF309887047880E002004ED00E0E3
:103090001EF0040F0CBFEFF30880EFF30980816985
:1030A00011F8021C0229FFD001B505F022F801BD7C
:1030B000017B10B511F0020405D0416E603141660C
:1030C000816E6039816642F8203C029B42F81C3CCC
:1030D0000F49039B42F8183C049B42F8143C21F032
:1030E00001014FF0807342F8043C42F8081C0023B1
:1030F000203A02654367C0F8BC301CB9FD2380F854
:10310000BD3010BD4FF60853C0F8BC30F9E700BF22
:10311000657F000030B5017BD0F8BC30174A11F054
:10312000020F03F0080503D190F8BD40E40613D464
:10313000546B44F0804454634DB943F00803C0F825
:10314000BC30436E60334366836E603B836641F000
:1031500002010173802030BD516B21F08041516329
:103160004DB123F00803C0F8BC30436E603B4366AA
:10317000836E603383662020EDE700BF00EF00E040
:103180000D4B0246986810B590B1D0F8BC30406E37
:1031900013F0080F14BF8024202412F1160F04D05E
:1031A000031B934205D8824203D2814228BF0020EC
:1031B00010BD0020FCE700BF880E002008B51446B3
:1031C0000D460022E1EE102AEFF3148222F00402F1
:1031D00082F31488BFF36F8FBFF36F8F084A90603C
:1031E00000F0DAF9204685F30988002163B681F3FF
:1031F0001188BFF36F8F0022002304F0B3FE00BFDD
:10320000880E002001B572B60B4A906900281EBFD7
:103210000021916105F034FC62B6EFF30580A0F166
:1032200010004FEAC0000549014409C99847BDE8AC
:103230000140034908470000880E00204094000028
:1032400045320000044B9968D869884203D003498D
:103250004FF080520A607047880E002004ED00E0B5
:1032600038B51C4B14469A6A9A6A9A6A05469007C2
:1032700020D5586B9A6A12061CD519B19A6A22F0A9
:1032800080029A629A6A9A6A9A6AD20615D49B6AEE
:103290009B0712D400200F4B9A6A920642BF5A6ACB
:1032A00022F400525A629A6A42F0FF029A620023A4
:1032B000237038BD6FF01500E4E7064B5B68190515
:1032C000E8D52946FFF75CFF0028E3D080F30988A2
:1032D0000220E0E700ED00E00D4B9A6A9A6A9A6AD4
:1032E000920508D59A6B9A6A120404D518B19A6AA5
:1032F00022F400429A62064B9A6A9A6AD20558BF33
:103300009A6A9A6A002042F47F429A620870704773
:1033100000ED00E070B5484B5B689CB0C3F3080358
:10332000002686F31188BFF36F8F02F07F44B4F15B
:103330007F4F12D102F00C04082C0ED014074EBFA0
:103340000D46054601260022033B8DF80720032B7E
:103350006BD8DFE803F00455595D3546F3E7364B8B
:10336000DC6A14F0020460D1DA6A002A15DBDA6A3A
:10337000520012D5AA6932F8021C4DF6027291422F
:103380000AD093F828200AB30DF10702012128463C
:10339000FFF766FF044600E02C689DF807309BB9F4
:1033A0006822294602A805F07EFC099B002E3ED02B
:1033B000C3F3080222B96FEA53236FEA4323099348
:1033C00002A9204604F093FE1CB070BD93F829209A
:1033D0002AB10DF107010120FFF77EFFDAE75A8DD0
:1033E00092B2002AD9D09A6A9A6A9A6A9A6A9A6AB2
:1033F0009A6A9A6A6FEA02426FEA12429A62CCE7CC
:103400000DF107020021C2E70DF107010020E3E7FB
:10341000094B9A6A9A6A9A6A9A6A9A6A9A6A9A6A3C
:103420006FEA02426FEA12429A620024B5E723F47F
:10343000FF7323F00103C2E700ED00E0024A536985
:1034400043F010035361704700ED00E0EFF3088094
:10345000EFF3098101B57246FFF75CFF01BD00BFC4
:10346000044800232021C2180133302B82F80013B6
:10347000F9D1704700E100E0002080F31488BFF329
:103480006F8F05F063FF00200D490860BFF34F8F79
:103490000C4880F3088800F02BF8202080F3118876
:1034A00009484FF40261401880F30988EFF3148053
:1034B0000221084380F31488BFF36F8FFFF758FD94
:1034C00094ED00E000350020003700200749D1F8D6
:1034D00090200023C2F307221846934200D1704780
:1034E000C1F89830C1F8A0000133F6E700ED00E024
:1034F00008B572B6002383F31388FFF7E7FF144B78
:103500004FF0FF32C3F88020C3F88420C3F888202E
:10351000C3F88C20C3F89020C3F89420C3F89820F7
:10352000C3F89C20C3F88021C3F88421C3F8882104
:10353000C3F88C21C3F89021C3F89421C3F89821D3
:10354000C3F89C2162B6BFF34F8FBFF36F8F08BDE6
:1035500000E100E0084B9B6883420BD1EFF3058349
:1035600043B1064B5A6842F080525A605A6A22F4BC
:1035700000425A6202F0C6BB880E002000ED00E057
:10358000024B034A0348012100F074B800000420F4
:103590000000002098A5000010B50446FFF7BAFD12
:1035A000626E064B121AC3E90020054A9A60BDE814
:1035B00010400121184600F067B800BF300D002010
:1035C00000000B15F0B51F4F00268E4201DB1046A0
:1035D000F0BD44689CB353B104F1FF3C14EA0C0FF6
:1035E00018D11F2C16D905681CEA050F12D1202C02
:1035F0000568D0F808C0D2B20FD9B4F1004F0ED888
:10360000013CB4FA84F4C4F11F046400072A4CEAB4
:10361000040406D96FF01502D9E70824F6E73E2422
:10362000F4E725F01F05154345F0100544F00104AB
:10363000C7F89820C7F89C500132C7F8A04001365F
:103640000C30C2E700ED00E0044B0522C3F89420E3
:10365000BFF34F8FBFF36F8F704700BF00ED00E0E7
:10366000BFF35F8F024B0022C3F89420704700BF66
:1036700000ED00E010B5034C01232278FFF7A2FF14
:10368000207010BDA810002008B5094A0023127848
:10369000FFF798FF10F1160F02D0064A072800DD49
:1036A00008BDC2F89800C2F8A0300130F6E700BFAC
:1036B000A810002000ED00E014490868082810B5A3
:1036C00021D8FFF7CDFF124C49680022904201F14A
:1036D0000C0105D10F4B1870FFF7B6FF002010BD8D
:1036E000C4F8982051F80C3C23F01F03134343F017
:1036F0001003C4F89C3051F8043C43F00103C4F8B3
:10370000A0300132E2E74FF0FF30E8E7A4A5000067
:1037100000ED00E0A8100020014B1860704700BFCA
:1037200054020020F8B5084F06460D460024AC426E
:1037300008DA3B6898470A28305504F1010401D0A3
:103740000D28F4D12046F8BD50020020F8B50A4FEC
:103750000D46461EC0F10104A3199D4201DC284616
:10376000F8BD73780A2B02D13B680D2098473B685F
:1037700016F8010F9847EFE75402002008B50248F9
:103780000521FFF7E3FFFEE7F9A8000010B5074C9D
:103790002368C2180648C0F1005101F580218A4211
:1037A0003ABFC01822604FF0FF3010BD3C0D002022
:1037B000803F002010B54FF02003EFF3118083F31A
:1037C0001288BFF36F8F114A0123C2F840354FF0C2
:1037D00080424FF08051C2F87835D1F83041082C42
:1037E00008D1D1F83411052904D8094C615C09B11C
:1037F000C2F838364FF080430122C3F8802580F3A9
:103800001188BFF36F8F002010BD00BF00E00140A2
:103810000EA900004FF08043C0B2C3F81C05BFF3EF
:103820004F8F0549054BCA6802F4E0621343CB6031
:10383000BFF34F8F00BFFDE700ED00E00400FA0585
:1038400020B1034B800143F001031847704700BFCC
:10385000C09F000070B50D460649411A0446491143
:103860000548402204F0BBFC2B4601462046BDE83B
:1038700070401847500D0020C893000037B50C4623
:103880000A490B4A411A4023009349110546234631
:10389000084804F0D0FC011E05DA2846234603B090
:1038A000BDE83040184703B030BD00BF500D0020C8
:1038B000A5820000C8930000002270B501210446D3
:1038C0001046FFF739FB0F4801F05CF80E4B9842A9
:1038D00015D104F0B6FF26690C49304604F0E6FA2B
:1038E00000280BDB246909490125B56404F1200097
:1038F00004F0DCFA002801DB6565002070BD6FF084
:103900000400FBE74D3900000000AD0BECA5000002
:1039100073B50C2301460B484B43C418D4E910522D
:103920000026483326641844019204F045FC35B162
:10393000019A05482B4602B0BDE87040184702B016
:1039400070BD00BF500D0020C893000010B10128C9
:1039500004D07047034B9B6C5B0701D1FFF7D8BFC6
:10396000704700BF500D002008B54FF02003EFF363
:10397000118183F31288BFF36F8F124A136843F0EB
:10398000020013F0010310600CD04FF08042D2F817
:103990000C34D2F80C2413F0010303D00A4804F0CD
:1039A0000BFC012381F31188BFF36F8F23B1BDE8B6
:1039B00008400020FFF7ACBFBDE80840012004F03C
:1039C0004DBF00BFA80D0020980D00201FB500229C
:1039D0000123CDE90223094ACDF800D06B46CDF88A
:1039E00004D004F058FC002805DB4FF4804200238B
:1039F000684601F067FE05B05DF804FBBD8200007B
:103A0000094BBFF35B8F53E8002F22F0020143E81C
:103A100000100028F7D1BFF35B8FD30702D4012039
:103A200004F059BF704700BFA80D00202DE9F041F8
:103A30003949BFF35B8F0746012251E8003F41E857
:103A400000200028F9D1BFF35B8F33B933493448E4
:103A50004B60CB608A6004F03CFA7B1E012B2FD8B0
:103A6000012F07D14FF08043D3F81C3403F0030338
:103A7000012B25D004F0FEFF044618B9294B1B7812
:103A8000002B41D14FF02003EFF3118683F312880E
:103A9000BFF36F8F0124DFF890804FF08045D5F899
:103AA0001834D5F81824D2030CD503F00303012BE6
:103AB00001D0012F06D10CB386F31188BFF36F8FAD
:103AC000BDE8F081ACB13046FFF70EFAD5F81835F5
:103AD000002BE4D1D5F80421002AE0D0C5F8043148
:103AE000D5F804310123C5F81835C8F88031AB602A
:103AF000D5E70021212002F0E5F8E7E74FF0804309
:103B00000222C3F80423DBE74FF080430222C3F80C
:103B100008230646BFE700BFAC0D0020400D002083
:103B2000700D0020F914002000E100E00A2838B5EB
:103B3000064D044603D128680D2104F0C2FB286815
:103B4000E1B204F0BEFB204638BD00BFB00D00203E
:103B500008B5084B0848186004F01DFF38B1074845
:103B6000FFF7DAFD0548FEF7F9FD002008BD6FF00C
:103B70001200FBE7B00D0020289400002D3B000050
:103B800030B54068047B01F01F05B2F5001F45EA1F
:103B9000441585B04FF0000404D1284601F076F9B1
:103BA000002032E0B2F5800FCDE902442FD1B3F10D
:103BB000007F0CBF042305238DF80830836823FAA7
:103BC00001F1C9072FD4B2F1A07F2CD16A09012AD3
:103BD00005F01F031C4A03F5E07318BF4FF0A04225
:103BE00052F82330DB071ED40DF107042146284686
:103BF00001F0B0F8154B984214D1204601F0F8F8C6
:103C0000134B98420ED06FF00B0005B030BDB3F1EE
:103C1000C06F05D0B3F1007F0CBF02230123CBE7B7
:103C20000323C9E703940023194602AA284600F09B
:103C30006BFF074B984204D10121284601F0DEF8C2
:103C4000AEE76FF00400E0E7000300500400AD0BA6
:103C50000000AD0B10B501F0BBF8044668B901F0E7
:103C60008FF8084B98420AD10748214601F06CF8BA
:103C7000224605210620FFF75FF9002010BD6FF0F6
:103C80000400FBE70000AD0B8D3C0000430970B55C
:103C900002D0012B15D070BD0B4E33695968002935
:103CA000F9D000F01F0301250C689D408A682A4066
:103CB00002D04B6830469847002CECD0214624684F
:103CC000F4E7024EE9E700BFE0930000F89300003C
:103CD0002DE9F04347683B7B01F01F0585B00E4698
:103CE00045EA43151446CAB902A9284601F032F83C
:103CF0000446284601F0F2F84A4B984204D06FF08F
:103D0000040005B0BDE8F083844205D19DF80800A9
:103D100001F068F8A042F2D10020F2E74FF000096C
:103D20000DF103013046CDE9029901F013F84B463D
:103D3000804602AA4946284600F0E6FE394B9842E2
:103D400002D06FF01500DCE7804503D19DF8030039
:103D500001F048F8A30351D540F20663234040F236
:103D6000062293423BD00CD8062B15D004D89BB129
:103D7000022BE6D104230FE0B3F5007FE1D101234C
:103D80000AE040F2024293422BD0B3F5C06F2AD032
:103D9000B3F5806FD5D102238DF8043084F48033DD
:103DA000C3F30043E0068DF8053054BFC4F340135D
:103DB000032321038DF8063017D57B68012101FA12
:103DC00006F6C3F80865002201A9284600F04AFF5C
:103DD000144B984214BF6FF01500002091E70723A1
:103DE000DAE70523D8E70323D6E7620341BF7B6800
:103DF000012101FA06F6C3F80C65E4E7E3064FF08B
:103E0000000354BFC4F3401403241A4601A92846F2
:103E10008DF8044000F078FE024B98423FF47CAFEE
:103E20008FE700BF0000AD0BF0B54B79012B26D01A
:103E3000032B21D110268B79032B1DD1CC790CB10A
:103E4000012C19D10A7912B1022A15D10E220B6860
:103E50004568B3F5164F2D6865D02DD8B3F5165FBC
:103E600064D016D8B3F5966F62D00AD8B3F5967FB2
:103E700061D0B3F5167F61D06FF0850052E0002667
:103E8000D9E7B3F5166F5CD0B3F5965FF4D1374B35
:103E90003CE0B3F5E14F57D007D8B3F5615F55D09B
:103EA000B3F5964FE8D1324B30E047F61227BB42CC
:103EB000E2D14FF4000329E0B3F5613F48D013D8B5
:103EC000B3F5963F47D009D84DF6C027BB4244D042
:103ED000B3F5614FD0D14FF46B0317E0B3F5E13F79
:103EE000CAD14FF0EB7311E0B3F5612F38D008D889
:103EF000204FBB4237D0B3F5E12FBDD14FF0E8637F
:103F000004E01D4FBB42B7D14FF080530069C5F8A4
:103F10002435031D03C934432243C5F86C2583E8C7
:103F200003000020F0BD4FF41D03EFE7134BEDE756
:103F30004FF49E23EAE74FF4A033E7E74FF41C3336
:103F4000E4E74FF41D23E1E70D4BDFE70D4BDDE721
:103F50004FF06C73DAE70C4BD8E74FF46503D5E705
:103F60004FF07063D2E74FF08063CFE700B01300EB
:103F700000A04E0090D0030040420F0000502700E8
:103F800000C0750000F03A0000903A012DE9F743B7
:103F9000D0F804800669D8F80040D8F80C900021C9
:103FA000C4F800150746306001AA484604F072FBC9
:103FB000051E56DB019BD9F800201979186804F01A
:103FC00086FB051E4DDB311D3846FFF72DFF0546EC
:103FD000002846D1D8F80430990719D506F1160003
:103FE00001F076F8224B98423FD1B07DC30003F137
:103FF000804303F5F83304F10C0204F59071C3F823
:104000001015C3F814251B4A01238340C2F8043558
:104010000823C4F8003598F808305BB9C4F81031AB
:10402000D4F8103106F11503C4F834350123C4F86F
:1040300038352360D8F804309A075CBF4FF480729B
:10404000C4F80423DB0644BF4FF48003C4F80433F0
:1040500014360023C4F84465C4F848350123A3602E
:10406000E360284603B0BDE8F0836FF00405F8E78D
:104070000000AD0B00F00140F8B5066905460F469B
:1040800004F0F8FC10B9204B1B7883B94FF02003E3
:10409000EFF3118483F31288BFF36F8F686804F025
:1040A0002AFA28BB84F31188BFF36F8FEEE76424EC
:1040B000686804F020FA70B9012004F0C0FB013CEC
:1040C000F6D10021212001F0FDFDF0E784F31188F5
:1040D000BFF36F8FF5E74FF02003EFF3118483F305
:1040E0001288BFF36F8F686804F005FA0028EDD0DE
:1040F0003146012201F8147F686804F0E1F984F385
:104100001188BFF36F8FF8BDF914002010B501239B
:104110008340114ABFF35B8FDC4352E8001F01EA82
:10412000040C42E800CEBEF1000FF6D1BFF35B8F66
:104130004FF4803202FA00F002F1804202F5805220
:10414000C2F80803BFF35F8FBFF36F8F0B4214BF3A
:104150000120002010BD00BFD00D00201949F8B586
:10416000044622F07F450868C1E90023A5F5001345
:10417000101AB3F5400F22D2134B1B681A0A1B0604
:104180005E19124B42F10007C3E90067012601F0F6
:10419000E7FEA30003F1804303F58833D3F84025FD
:1041A000AA420BD11EB94FF40002C3F84025084BB8
:1041B0004FF4803000FA04F4C3F84443F8BD0026FD
:1041C000E5E700BF28060020D40D002010060020DF
:1041D0000010014019B3BFF35B8F0123104A8340E5
:1041E00052E8001F194342E8001CBCF1000FF7D150
:1041F000BFF35B8F0B4A4FF480338340C2F8043324
:10420000094BBFF35B8F1B68BFF35B8F23FA00F092
:10421000C30742BF054B4FF40032C3F8002170477B
:10422000D00D002000100140CC0D002000E100E086
:104230000D4B1868010A0006BFF35F8F0B4BD3F8D4
:104240000435181841F10001B3F5801F0AD2084B5C
:10425000D3E90023904271EB030303D210F1807085
:1042600041F10001704700BFD40D00200010014053
:10427000100600202DE9F04F2DED028B85B016467B
:1042800098460546FFF742FF08EE100AFFF7D0FFF9
:10429000B04271EB08037BD2474B301A68EB010147
:1042A000984271F1000380F08480444B03EB0513C6
:1042B000D3E902ABD84508BF564551D04FEA85092E
:1042C00009F1804905F1500709F58839BF004FF41D
:1042D000803101FA05F3BFB226F07F4207F1804733
:1042E0000193D9F84005364B07F588371446D3F8C3
:1042F0000415401A20F07F4021F07F4C0128C9F8B6
:1043000040C507D1CDE90221132004F0B6FCDDE958
:1043100002212B4B01F1020CA4EB0C0020F07F409A
:10432000B0F5000F88BF64460020386038680198F7
:10433000C3F8440324F07F40C9F84005D3F80405CE
:10434000814206D0201A023820F07F40B0F5000FDD
:104350001CD8A41A24F07F4414EB060A48F1000B81
:10436000164910982B0101EB0512C2E902ABC850A7
:10437000119B53600024284618EE101AFFF72AFFFD
:10438000204605B0BDEC028BBDE8F08F2046AEE7BD
:1043900001230C4ABFF35B8FAB4052E8001F194367
:1043A00042E800100028F8D1BFF35B8FB246C34645
:1043B000D6E76FF01504DEE70100000118060020C3
:1043C00000100140CC0D002073B5194B194D00248D
:1043D0004FF0FF304FF0FF31C5F80845C3E9020147
:1043E0004FF48033C5F80433134B02264FF40032E8
:1043F0000121C5F804631120C3F880212246FEF78D
:104400009BFD1120FEF77AFD0C4A0123AB602B6067
:1044100013600B4B0B4A0093019400232046FFF7D7
:1044200029FF3046FFF702FB204602B070BD00BFF7
:10443000180600200010014000E100E0D00D00202F
:104440005D410000FFFF7F002DE9F743364CD4F8B3
:1044500004339A070BD5D4F8043143B1334A00230F
:10446000C4F80431D4F804311368013313604FF0F9
:104470002003EFF3118283F31288BFF36F8FD4F818
:104480000433DB0312D5BFF35B8F294B53E8001FC6
:1044900021F0010043E80006002EF7D1BFF35B8F47
:1044A000002939D1D4F84031002B35D1002382F3D3
:1044B0001188BFF36F8F63B3FFF7BAFE4FF020038D
:1044C000EFF3118C83F31288BFF36F8F194BD3E98D
:1044D0000267B04271EB070228BF4FF0FF384FF080
:1044E000000221BF4FF0FF39D3E90015C3E902896B
:1044F0001A6026BF4FF48033C4F8483311468CF35A
:104500001188BFF36F8F21B1009532463B460020E2
:10451000884703B0BDE8F0830023C4F84031D4F8E5
:1045200040310123C3E700BF00100140D40D00203B
:10453000CC0D002018060020431C13B521D0012803
:1045400021DDB0F5000F20DA441EFFF771FE104B9D
:10455000D3E90013401AB0F5000F28BF0024013042
:1045600002190C48824228BF024652184FF0000040
:1045700009490190009143F10003FFF77BFE02B06F
:1045800010BD0448E0E70024DFE7024CDDE700BF90
:1045900028060020FFFF7F005D41000008B5FFF7FF
:1045A00047FE024B1B68C01A08BD00BF280600204A
:1045B00000F01F0140090128044B4FF0010218BF11
:1045C0004FF0A0438A40C3F80C2570470003005009
:1045D00000F48053002B30B51CBF00210122C0F332
:1045E000811500F01F0410F0200F00F4706040EA05
:1045F0008500064B40EA010008BF4FF0A04304F5D8
:10460000E07140EA420243F8212030BD000300502F
:1046100000F01F0140090128044B4FF0010218BFB0
:104620004FF0A0438A40C3F80825704700030050AC
:104630004FF08053D3F83021082A06D1D3F8343113
:10464000052B02D8024AD05C70470020704700BF9B
:104650003CA90000024AD2F80034002BFBD070477E
:1046600000E0014010B504F0E0F840B14FF08043A5
:104670000022C3F80C21C3F81021C3F8382504F038
:10468000D4F8002846D04FF08052654BD2F804147D
:10469000C3F82015D2F80814C3F82415D2F80C1466
:1046A000C3F82815D2F81014C3F82C15D2F8141436
:1046B000C3F83015D2F81814C3F83415D2F81C1406
:1046C000C3F84015D2F82014C3F84415D2F82414C6
:1046D000C3F84815D2F82814C3F84C15D2F82C1496
:1046E000C3F85015D2F83014C3F85415D2F8341466
:1046F000C3F86015D2F83814C3F86415D2F83C1426
:10470000C3F86815D2F84014C3F86C15D2F84424E5
:10471000C3F87025FFF78CFF18B1424B424AC3F82B
:104720008C26FFF785FF18B1404BFB22C3F81825F4
:10473000FFF77EFF70B14FF080414FF08053D1F80A
:10474000E42ED3F8583222F00F0203F00F03134384
:10475000C1F8E43EFFF76CFF20B1354B4FF4007217
:10476000C3F8402604F061F848B14FF08043D3F815
:104770000024D20744BF6FF00102C3F800242D4A81
:10478000D2F8883043F47003C2F88830BFF34F8FFB
:10479000BFF36F8F4FF08053D3F83021082A0ED12A
:1047A000D3F83431052B02D8234AD35C3BB14FF008
:1047B0001023D3F808224FF08043C3F858254FF058
:1047C0001023D3F80022002A03DBD3F80432002B95
:1047D00022DA1A4901234FF01020C1F804351224BF
:1047E000FFF738FFC0F80042FFF734FFC0F804427B
:1047F000FFF730FF0023C1F80435FFF72BFFBFF3AD
:104800004F8F0C490E4BCA6802F4E0621343CB6031
:10481000BFF34F8F00BFFDE70A4B0B4A1A6010BD74
:1048200000C00040005000404881030000F00040FC
:104830000090024000ED00E036A9000000E00140D9
:104840000400FA05B00200200090D00370B50125E5
:104850000268B2FA82F3C3F11F035E1CDCB214D00B
:10486000BFF35B8F05FA03F322EA030350E8006FFE
:10487000964204D140E8003CBCF1000FF6D1BFF3F2
:104880005B8FE5D102480C7070BD0248FCE700BFA9
:104890000000AD0B0200AD0B0368CB40DB0710B589
:1048A00015D4012303FA01F10368BFF35B8F41EADA
:1048B000030250E8004F9C4204D140E8002CBCF1B8
:1048C000000FF6D1BFF35B8FEED1024810BD024856
:1048D000FCE700BF0000AD0B0400AD0BF7B50446CC
:1048E00018B1012829D003B0F0BD4FF08043022257
:1048F000C3F80823C3F80401D3F804210122DA60C5
:1049000001239C428DF8073014BF00250DF10705E7
:1049100042F210774FF08046D4B1012CE3D125B19B
:10492000D6F80C3403F001032B70D6F80C34DB03FB
:1049300018D4134B00225A71D5E74FF08043002260
:10494000C3F80803C3F80021D3F800215860D7E763
:1049500025B1D6F8183403F003032B60D6F81834C9
:10496000DA03C0D52DB9012003F069FF013FD3D18F
:1049700003E09DF80730012BF5D0012CD9D0B2E728
:10498000D80D0020044B1A7922B9012218609A80B0
:104990000248704702487047D80D00200000AD0B58
:1049A0000C00AD0B4FF0804310B5D3F800216AB175
:1049B0000022C3F80021D3F800210122C3F8082304
:1049C000114B587910B95A711B6898474FF08043C2
:1049D000D3F8042172B10022C3F80421D3F80421D2
:1049E000D3F81824D3F81814920704D10122C3F87D
:1049F00018259A6010BD0222C3F80823024BBDE8B7
:104A000010401B6801201847D80D0020036803F0F0
:104A10001F025B09012B0260024818BF4FF0A04043
:104A2000704700BF00030050034B083033F81000FC
:104A3000C0F34010704700BFB402002070B500F111
:104A400008030C4C34F81330DA0505460E4607D53A
:104A5000C3F3432304EBC30254F83330526898473E
:104A6000A3682BB1E26831462846BDE8704018477C
:104A700070BD00BFB4020020134A083010B432F8F1
:104A80001030D9051CD5C3F3432123F4F85322F881
:104A9000103002F11004002034F8023B13F4807F40
:104AA00003D0C3F3432399420AD001303028F3D115
:104AB000002342F8313005485DF8044BFFF7ECBEA7
:104AC0005DF8044B704700BFB402002028030020AB
:104AD00038B50246FFF7A8FF094C02F1080540B1BE
:104AE00034F8153007495B0B03F5A273002041F839
:104AF00023001046FFF7C0FF002324F8153038BD0F
:104B0000B4020020006000402DE9FF410446174632
:104B10001D4621B34E4E00F1080836F818309B07A9
:104B200006D5FFF781FF18B14A4804B0BDE8F0810F
:104B30000023CDE900338DF80E308DF80F300DF1E4
:104B40000F020B4620460DF10E0103F0C6FE36F8AB
:104B5000183023F0020343F0010326F8183097B110
:104B60003B4B3E787A6804F1080033F810108F0749
:104B70000CD5002AD8D133F8102022F01C0242EACA
:104B8000860223F81020CDBB3348CEE721F0200168
:104B9000C904C90C23F81010002AECD0032EC3D886
:104BA00017782EB92D4A07F5A27142F82160E2E785
:104BB000BA0002F1804202F5C04241EA4731D2F820
:104BC00010C52CF0030CC2F810C5D2F810C52CF497
:104BD0004F3C2CF4407CC2F810C5D2F810E54FEAE7
:104BE000042C0CF47C5C4EEA064E4CEA0E0C41F0B0
:104BF000200123F81010C2F810C5BCE7D5E9006702
:104C00002046FFF739FF002EBED0114D2B689E4283
:104C100004D16B689F4201D100220AE010480DF1D7
:104C20000F01FFF713FE0C4B98427FF47EAF9DF807
:104C30000F2045F8326005EBC20308345F6035F899
:104C4000143043EA422343F4807325F814309BE781
:104C5000B40200200400AD0B0000AD0B006000406A
:104C600028030020F0B5044685B0154619B3334E2D
:104C700000F1080736F81720930703D4FFF7D4FE96
:104C8000002858D112F01C0F02D04B78012B52D0C3
:104C900001238DF80F300023CDE900134A1C8B1C33
:104CA00020460DF10F0103F018FE36F8173043F0DF
:104CB000030326F8173015B9214805B0F0BD1F4E83
:104CC00004F1080736F81700830734D595F800C0BB
:104CD0006146890020F0200001F18041C00401F507
:104CE000C041C00C26F817000023C1F810356A78BF
:104CF000002AE1D0D1F81035AD7823F4991323F4CC
:104D0000F853C1F81035D1F810E5230203F47C53B1
:104D1000120402F4403243EA0E0313432A0502F45C
:104D2000801240EA4C30134340F0200026F8170070
:104D3000C1F81035C0E70348BFE700BFB402002048
:104D40000000AD0B0400AD0B014BC3E9020170473D
:104D5000B402002008B50246FFF766FE38B1054BE5
:104D60000548083233F812305B0B0B7008BD03485E
:104D7000FCE700BFB40200200000AD0B0400AD0B47
:104D800038B50F4C94F87850BDB96022294604F12B
:104D9000100003F096FF0620FEF7B0F8094B0A4812
:104DA000C3F87C51D3F87C214FF00042C3F80423B0
:104DB000012384F87830636738BD0448FCE700BFFE
:104DC000B4020020006000400000AD0B0500AD0BF8
:104DD000034B93F87800003818BF0120704700BFDC
:104DE000B402002001460148FFF756BD240300200D
:104DF00001460148FFF72ABD2403002037B50446C9
:104E0000FFF712FE04F108021E4B33F81230E8B12E
:104E100013F002051AD15B0B9A0002F1804000F5F5
:104E2000C24002F1804202F5C04205600068D2F83B
:104E3000100540F00100C2F8100529B1012202FA64
:104E400003F3114AC2F8043303B030BDC3F3820345
:104E5000042B12D0052B12D001A80194FFF7D6FD28
:104E6000019BD0F81015D94001F001010231204614
:104E700003B0BDE8304003F077BD0321F7E702211E
:104E8000F5E700BFB40200200060004008B502460C
:104E9000FFF7CAFDC0B102F108010E4B33F8113023
:104EA000990711D45B0B01229A409B000A4903F138
:104EB000804303F5C043C1F80823D3F8102522F03E
:104EC0000302C3F8102508BDBDE8084000211046C4
:104ED00003F04ABDB4020020006000400E4B00F118
:104EE000080213B533F81230DB07044611D5FFF77B
:104EF000CDFF2046FFF7ECFD01A80194FFF786FDEA
:104F0000019B03F5E073022240F82320034802B01E
:104F100010BD0348FBE700BFB40200200000AD0B4A
:104F20000400AD0B2DE9F04F644B65486549002640
:104F300087B0012234461D6835B1D0F804531542BC
:104F40001EBF1C601D68164304338B424FEA4202A9
:104F5000F1D1DFF86C81D8F87C31002B00F0918022
:104F60004FF0A043D3F820250492C3F82025D3F8AE
:104F700020280592C3F8202800270DF110097B0195
:104F800000934FF0010A49E0009B4F4A94FAA4F4C1
:104F9000B4FA84F41C4404F10803E00832F8133036
:104FA000039404F007020AFA02FC19F8002022EA2E
:104FB0000C0209F8002003A8C3F382059908FFF743
:104FC00025FD039A02F5E0724B0750F82220AB460C
:104FD000C2F3014229D520465946D5B2FFF72EFD2E
:104FE00003A80394FFF712FD039B03F5E07350F849
:104FF0002330C3F301439D4207D10021204603F033
:10500000B3FC2946204603F0AFFC03A80394FFF746
:10501000FDFC039B0AFA03F3C0F8203559F827403A
:10502000002CB1D1CFB90127A9E7022A0CBF032177
:1050300002212046019203F097FC032D04D0019A2F
:10504000022A06D1012DE0D159462046FFF7F6FC91
:10505000DBE7032AD9D1022DF5E7C8F87C41D8F85F
:105060007C311A494FF0A043D3F820250492C3F8AD
:105070002025D1F820350593C1F8203513437FF45E
:105080007BAF012416B907B0BDE8F08F96FAA6F3FE
:10509000B3FA83F304FA03F29B0003F1804303F5B0
:1050A000C04326EA0206D3F81005D3F81015C0F362
:1050B0000520C1F30141FFF7C1FCE3E700610040B7
:1050C0000060004020610040B40200200003005056
:1050D00001460148FFF7BABB3003002010B5144C5D
:1050E000144A1549032323616361144BA261E361F0
:1050F0004FF4806323620023A3626362E36222664B
:105100000F4A6266E01D1022A2662367E3666367AA
:1051100003F055FFBFF35F8F0A49204603F04FFFAE
:10512000BFF35F8F2023A371BFF35F8F10BD00BF5C
:10513000E00D002042A900004BA90000F91000205A
:10514000E91000204FA900000E4B70B553F8204025
:10515000013053F82060A64200D870BDD4E9003574
:105160002846984765B1EB6830B10028B8BF404287
:10517000FF28A8BFFF2018705A7842F001025A7029
:105180000834E8E7E8A6000008B50B4B012202202E
:105190001A70FFF7D9FF00F057FF02F09BFF0320C2
:1051A000FFF7D2FF00F03CF9FDF7B6FA034A137B94
:1051B00023F00103137308BDF9140020F00600204A
:1051C00008B50348034A0021121A03F00AFC08BD7F
:1051D000100600200015002070B5164E164D174918
:1051E000C02386B003FB006601220023CDE904231F
:1051F0000F22CDE902320193182303FB0055044628
:105200004FF4C07000FB04110D4B00954FF4A072D9
:10521000304600F0D3F8737B0A482C7523F0040362
:1052200073734FF4086303FB04041C44EE606C606A
:1052300006B070BD30060020880E002080350020AA
:10524000D95400000037002000B52D4BB9B083F3CE
:1052500008882C4D2C4E6B6943F4007300246B615D
:10526000E02385F82230EC772C766C76AC7685F8E6
:1052700020406B6A43F4E0236B6285F82340FEF71D
:10528000DDF8FDF71DFE4FF0FF33AB62EB62FEF77A
:1052900013FAFEF775F940F20113ADF82C3008ABA4
:1052A000B360CDE92144249403F074FB2046174DEC
:1052B000FFF74AFF0120FFF747FF00F06FFCF561A1
:1052C000134B144E0593012313490094CDE9034376
:1052D0004FF400523346CDE90144284600F06EF801
:1052E0006A7B079022F0040228466A7303F00CFCE4
:1052F0002046FFF771FF079932462846FDF75EFF0B
:10530000803F002000ED00E0880E0020F006002025
:1053100056A90000895100000015002070B50E4B01
:105320000E4CA34201D3002070BDD3E9040141EA31
:10533000000212F003020BD1DD689A61AA4201D18A
:105340002033EEE79E690E60013299610144F5E772
:105350006FF01500E8E700BF800500208005002001
:1053600037B50C464FF02005EFF3118185F3128815
:10537000BFF36F8F85695DB125602B688361C36959
:105380000133C361002081F31188BFF36F8F11E0F7
:1053900052EA030C03D125606FF00B00F3E7CDE96F
:1053A00000230246083000F04FFB18B9024B9B68FF
:1053B0005B69236003B030BD880E00202DE9FF41FA
:1053C0000E9E06730F46073200F1580522F00702C1
:1053D00004262037C0E91655C0E919720025467326
:1053E00002F120080D9E0C9A8560C0E9065586736F
:1053F000C573C56602920B9A019288440A9A00927C
:1054000042460446FDF754FE044B65659B6803B1B4
:105410001B6F2367404604B0BDE8F081880E002072
:105420002DE9F043294C2A4D87B02646AE4204F1BF
:1054300030040FD300F0C6F9244CDFF898904FF4F5
:10544000004640F2E737AC4220D307B0BDE8F04356
:1054500000F088BB54F8043C059354F8103C0493C6
:1054600054F8143C039354F8183C029354F81C3C31
:10547000019354F8203C009354E90C0154E90A23A9
:10548000FFF79CFF54F8303C5E65CEE7636A5A1C18
:105490000DD023EAE37300213846C3FB060151EA2D
:1054A000C333D4F8008004D1404600F071FA3034A0
:1054B000C9E74FF47A720023FBF7F0FA02460B4675
:1054C00008F11800494600F0D3FCF0E78005002001
:1054D00080050020298B000008B50B4C0B4D4FF0C8
:1054E0002002EFF3118382F31288BFF36F8F03F072
:1054F00095FB2B78A06113B9FDF7E8FCEFE7FDF70A
:105500003BFB0028EBD1F7E7880E0020F9140020C0
:105510002DE9F341044617461E464FF02003EFF3F2
:10552000118883F31288BFF36F8FC368324A6BB15F
:1055300080689168884219D057EA060318D188F329
:105540001188BFF36F8F6FF00F000CE0916891F935
:105550000E1021610133E3609368A36088F3118822
:10556000BFF36F8F002002B0BDE8F0812169F0E742
:1055700091F90E1090F90E309942A8BF19466FF0BC
:105580007E029142B8BF11468B422EDD03F07FFAB6
:105590000546CDE9007619482246414600F054FA06
:1055A0000028E0D04FF02003EFF3118683F3128838
:1055B000BFF36F8F236821699C420AD04BB193F9E6
:1055C0000E309942A8BF19466FF07E039942B8BFCA
:1055D0001946A06803F05BFA00B945B107483146A7
:1055E00000F0DEF86FF00A00BDE70025D1E786F392
:1055F0001188BFF36F8FF5E7880E0020FA140020A2
:1056000038B583680446002B32D01C4A9268934216
:1056100031D1DA7B013ADA73C368012B05D9013B3A
:10562000C36000F09FFA002038BD4FF02003EFF375
:10563000118583F31288BFF36F8F0169806803F0CF
:1056400026FA204603F0BCFAA06058B190F90E206B
:1056500022610022826703F057FA0948294600F0C8
:105660009FF8DEE7E06085F31188BFF36F8FD8E71E
:105670006FF01500D8E74FF0FF30D5E7880E002017
:10568000FA14002038B504464FF02003EFF31185DB
:1056900083F31288BFF36F8F03F092FA48B10022B0
:1056A000826703F031FA29460548BDE8384000F02A
:1056B00077B8D4E902329A4218BF0133A360F2E707
:1056C000FB14002013B54FF02004EFF3118184F395
:1056D0001288BFF36F8F846844B1013C846081F30A
:1056E0001188BFF36F8F002002B010BD52EA03048F
:1056F00006D181F31188BFF36F8F6FF00F00F3E7CE
:10570000CDE900230246024800F09EF9ECE700BF15
:10571000FB14002038B5074D2C6854B1FEF73EFF4E
:10572000054B2044186100212868BDE8384003F08B
:1057300085BA38BDBC0E0020880E0020F8B504469E
:105740000D464FF02003EFF3118783F31288BFF368
:105750006F8F104E00214FF4004C40F2E730316162
:1057600000234FF47A72E4FB0C01FBF797F9002C4D
:10577000094B0ADC1860094BB0681D60FFF7CAFFCF
:1057800087F31188BFF36F8FF8BD0228B8BF0220DE
:10579000F0E700BF880E0020BC0E0020B80E0020ED
:1057A00049B9EFF3058030B9054BDA699B689A4235
:1057B00001D0FDF70BBC81F31188BFF36F8F7047E9
:1057C000880E00204FF02003EFF3118183F312883D
:1057D000BFF36F8F044B9A68D37B013BD37381F384
:1057E0001188BFF36F8F7047880E002038B50246CE
:1057F0000C480D4D03F082F9044600B9EC68AB6823
:105800004AB95A7BD20606D1A26922B9DA897F2A1F
:1058100001D9EB6138BD9C4202D02046FFF77AFFE8
:10582000EC61F7E7A80E0020880E002070B590F913
:105830000D20437B002A014604DA03F07F03437303
:1058400003F034F94B7B154A63F07F034B73D2E9C5
:10585000083402F12005AB421BD0D3B191F90E60A0
:1058600093F90E0086420FD0801B00280CDD58688B
:10587000C1E90030016059609068431A5842BDE8A0
:1058800070405841FFF7B2BFA34202D01B68002B03
:10589000E6D1C1E9005421605162EDE7880E002095
:1058A00038B54FF02003EFF3118583F31288BFF36F
:1058B0006F8F174B174A9C6811688C4207D120469E
:1058C000FFF728FF85F31188BFF36F8F38BD0021E4
:1058D0001160114A1268C2B1E2897F2A15D8627B31
:1058E000D20612D10D4A94F90E10126891420CDBC7
:1058F0000B4A944209D01A69824203DC2046FFF722
:1059000095FFDCE7121A1A61DCE70022FBE700BF13
:10591000880E0020B40E0020BC0E0020B80E00201F
:105920003006002070B490F90D20437B002A2ADB5A
:10593000DA0628D1826932BB144A63F07F034373CD
:10594000D2E9083402F12005AB4217D0B3B190F987
:105950000E6093F90E108E420BD0891B002908DDD2
:105960005A68C0E900321060586070BC0020FFF730
:105970003DBFA34202D01B68002BEAD1C0E900540E
:1059800020605062F1E770BC704700BF880E0020B5
:1059900010B54FF02002EFF3118482F31288BFF3A9
:1059A0006F8F427B510704D484F31188BFF36F8F4C
:1059B00010BD22F004024273FFF7B4FF21460248F3
:1059C000BDE81040FFF7ECBEFC14002008B590F9CC
:1059D0000D20437B002A014604DA03F07F03437362
:1059E00003F064F8044B9868431A58425841BDE8E4
:1059F0000840FFF7FBBE00BF880E00202DE9F041F4
:105A0000064615461C464FF02003EFF3118783F33B
:105A10001288BFF36F8F03F0A9F887F31188BFF3E3
:105A20006F8FB4F1FF3F08BFB5F1FF3F08D02A46A2
:105A3000234606F118000349BDE8F04100F018BA0A
:105A4000BDE8F081298B000010B5074B9868074B23
:105A50000C4618601146DDE90223FFF7CFFF204610
:105A6000BDE81040FDF7B2BA880E0020B40E002049
:105A7000F8B504464FF02003EFF3118683F3128844
:105A8000BFF36F8F437BDA0649B233D182698ABB99
:105A900003F07F03437303F009F8437B174A8173D4
:105AA00063F07F034373104650F8203F83421BD0BE
:105AB000D3B1576A93F90E50A94210D06D1A002D38
:105AC0000DDD5A68C4E9003214605C600120FFF704
:105AD0008DFE012086F31188BFF36F8FF8BDBB42A6
