:100000000043002081C900003354010055C900009D
:1000100055C9000055C9000055C900000000000086
:1000200000000000000000000000000091C500007A
:1000300055C900000000000001C5000055C90000BE
:1000400009C7000009C7000009C7000009C7000070
:1000500009C7000009C7000009C7000009C7000060
:1000600009C7000009C7000009C7000009C7000050
:1000700009C7000009C7000009C7000009C7000040
:1000800009C7000009C7000009C7000009C7000030
:1000900009C7000009C7000009C7000009C7000020
:1000A00009C7000009C7000009C7000009C7000010
:1000B00009C7000009C7000009C7000009C7000000
:1000C00009C7000009C7000009C7000009C70000F0
:1000D00009C7000009C7000009C7000009C70000E0
:1000E00009C7000009C7000009C7000009C70000D0
:1000F00009C7000009C7000009C7000009C70000C0
:1001000001F0FF01102A2BDB10F0070F08D010F8C8
:10011000013B013A8B422DD010F0070F42B3F6D1CC
:10012000F0B441EA012141EA014122F007047FF0E5
:1001300000070023F0E80256083C85EA010586EA3C
:10014000010685FA47F5A3FA87F586FA47F6A5FA78
:1001500087F68EB9EED1F0BC01F0FF0102F0070284
:1001600032B110F8013B013A83EA010313B1F8D12F
:100170000020704701387047002D06BF3546033810
:10018000073815F0010F07D1013015F4807F02BF49
:10019000013015F4C03F0130F0BC0138704700BF9A
:1001A00081F0004102E000BF83F0004330B54FEA28
:1001B00041044FEA430594EA050F08BF90EA020F95
:1001C0001FBF54EA000C55EA020C7FEA645C7FEA28
:1001D000655C00F0E2804FEA5454D4EB5555B8BF4B
:1001E0006D420CDD2C4480EA020281EA030382EABC
:1001F000000083EA010180EA020281EA0303362D4E
:1002000088BF30BD11F0004F4FEA01314FF4801C20
:100210004CEA113102D0404261EB410113F0004F32
:100220004FEA03334CEA133302D0524263EB4303E9
:1002300094EA050F00F0A780A4F10104D5F1200E87
:100240000DDB02FA0EFC22FA05F2801841F10001E2
:1002500003FA0EF2801843FA05F359410EE0A5F1B6
:1002600020050EF1200E012A03FA0EFC28BF4CF0E7
:10027000020C43FA05F3C01851EBE37101F000459D
:1002800007D54FF0000EDCF1000C7EEB00006EEBAA
:100290000101B1F5801F1BD3B1F5001F0CD3490834
:1002A0005FEA30004FEA3C0C04F101044FEA44528B
:1002B00012F5800F80F09A80BCF1004F08BF5FEA12
:1002C000500C50F1000041EB045141EA050130BDF2
:1002D0005FEA4C0C404141EB0101013C28BFB1F504
:1002E000801FE9D291F0000F04BF01460020B1FA4F
:1002F00081F308BF2033A3F10B03B3F120020CDA22
:100300000C3208DD02F1140CC2F10C0201FA0CF0FF
:1003100021FA02F10CE002F11402D8BFC2F1200C64
:1003200001FA02F120FA0CFCDCBF41EA0C0190401A
:10033000E41AA2BF01EB0451294330BD6FEA040463
:100340001F3C1CDA0C340EDC04F11404C4F120024E
:1003500020FA04F001FA02F340EA030021FA04F360
:1003600045EA030130BDC4F10C04C4F1200220FAB7
:1003700002F001FA04F340EA0300294630BD21FAF5
:1003800004F0294630BD94F0000F83F4801306BFBB
:1003900081F480110134013D4EE77FEA645C18BFAF
:1003A0007FEA655C29D094EA050F08BF90EA020F46
:1003B00005D054EA000C04BF1946104630BD91EA3E
:1003C000030F1EBF0021002030BD5FEA545C05D141
:1003D0004000494128BF41F0004130BD14F5800480
:1003E0003CBF01F5801130BD01F0004545F0FE41F4
:1003F00041F470014FF0000030BD7FEA645C1ABF29
:10040000194610467FEA655C1CBF0B46024650EA5F
:10041000013406BF52EA033591EA030F41F400218B
:1004200030BD00BF90F0000F04BF0021704730B511
:100430004FF4806404F132044FF000054FF00001E6
:1004400050E700BF90F0000F04BF0021704730B5A7
:100450004FF4806404F1320410F0004548BF40427C
:100460004FF000013EE700BF42004FEAE2014FEAD1
:1004700031014FEA02701FBF12F07F4393F07F4FAC
:1004800081F06051704732F07F4208BF704793F0AF
:100490007F4F04BF41F40021704730B54FF46074C2
:1004A00001F0004521F000411CE700BF50EA0102C5
:1004B00008BF704730B54FF000050AE050EA01026E
:1004C00008BF704730B511F0004502D5404261EBDE
:1004D00041014FF4806404F132045FEA915C3FF41F
:1004E000D8AE4FF003025FEADC0C18BF03325FEABC
:1004F000DC0C18BF033202EBDC02C2F1200300FA6D
:1005000003FC20FA02F001FA03FE40EA0E0021FA91
:1005100002F11444BDE600BF70B54FF0FF0C4CF47F
:10052000E06C1CEA11541DBF1CEA135594EA0C0F31
:1005300095EA0C0F00F0DEF82C4481EA030621EA6C
:100540004C5123EA4C5350EA013518BF52EA0335A7
:1005500041F4801143F4801338D0A0FB02CE4FF059
:100560000005E1FB02E506F00042E0FB03E54FF089
:100570000006E1FB03569CF0000F18BF4EF0010E81
:10058000A4F1FF04B6F5007F64F5407404D25FEA7D
:100590004E0E6D4146EB060642EAC62141EA555130
:1005A0004FEAC52040EA5E504FEACE2EB4F1FD0C72
:1005B00088BFBCF5E06F1ED8BEF1004F08BF5FEAF0
:1005C000500E50F1000041EB045170BD06F00046A2
:1005D00046EA010140EA020081EA0301B4EB5C044F
:1005E000C2BFD4EB0C0541EA045170BD41F4801147
:1005F0004FF0000E013C00F3AB8014F1360FDEBF6C
:10060000002001F0004170BDC4F10004203C35DA47
:100610000C341BDC04F11404C4F1200500FA05F3CA
:1006200020FA04F001FA05F240EA020001F000426B
:1006300021F0004110EBD37021FA04F642EB0601E1
:100640005EEA430E08BF20EAD37070BDC4F10C040B
:10065000C4F1200500FA04F320FA05F001FA04F2CF
:1006600040EA020001F0004110EBD37041F10001BB
:100670005EEA430E08BF20EAD37070BDC4F12005C6
:1006800000FA05F24EEA020E20FA04F301FA05F22E
:1006900043EA020321FA04F001F0004121FA04F2D6
:1006A00020EA020000EBD3705EEA430E08BF20EAA6
:1006B000D37070BD94F0000F0FD101F000464000E0
:1006C00041EB010111F4801F08BF013CF7D041EA62
:1006D000060195F0000F18BF704703F00046520066
:1006E00043EB030313F4801F08BF013DF7D043EA37
:1006F0000603704794EA0C0F0CEA135518BF95EAED
:100700000C0F0CD050EA410618BF52EA4306D1D173
:1007100081EA030101F000414FF0000070BD50EA92
:10072000410606BF1046194652EA430619D094EA1C
:100730000C0F02D150EA013613D195EA0C0F05D106
:1007400052EA03361CBF104619460AD181EA03015A
:1007500001F0004141F0FE4141F470014FF0000012
:1007600070BD41F0FE4141F4780170BD70B54FF0AD
:10077000FF0C4CF4E06C1CEA11541DBF1CEA13552D
:1007800094EA0C0F95EA0C0F00F0A7F8A4EB05040F
:1007900081EA030E52EA03354FEA013100F0888006
:1007A0004FEA03334FF0805545EA131343EA1263CF
:1007B0004FEA022245EA111545EA10654FEA002684
:1007C0000EF000419D4208BF964244F1FD0404F53D
:1007D000407402D25B084FEA3202B61A65EB030599
:1007E0005B084FEA32024FF480104FF4002CB6EB56
:1007F000020E75EB030E22BFB61A754640EA0C00D6
:100800005B084FEA3202B6EB020E75EB030E22BF15
:10081000B61A754640EA5C005B084FEA3202B6EB56
:10082000020E75EB030E22BFB61A754640EA9C0015
:100830005B084FEA3202B6EB020E75EB030E22BFE5
:10084000B61A754640EADC0055EA060E18D04FEAA3
:10085000051545EA16754FEA06164FEAC30343EA43
:1008600052734FEAC2025FEA1C1CC0D111F4801F10
:100870000BD141EA00014FF000004FF0004CB6E709
:1008800011F4801F04BF01430020B4F1FD0C88BFA8
:10089000BCF5E06F3FF6AFAEB5EB030C04BFB6EBB3
:1008A000020C5FEA500C50F1000041EB045170BDA6
:1008B0000EF0004E4EEA113114EB5C04C2BFD4EBD3
:1008C0000C0541EA045170BD41F480114FF0000E57
:1008D000013C90E645EA060E8DE60CEA135594EAD3
:1008E0000C0F08BF95EA0C0F3FF43BAF94EA0C0FD6
:1008F0000AD150EA01347FF434AF95EA0C0F7FF44B
:1009000025AF104619462CE795EA0C0F06D152EA9E
:1009100003353FF4FDAE1046194622E750EA410682
:1009200018BF52EA43067FF4C5AE50EA41047FF493
:100930000DAF52EA43057FF4EBAE12E74FF0FF3CF8
:1009400006E000BF4FF0010C02E000BF4FF0010CC9
:100950004DF804CD4FEA410C7FEA6C5C4FEA430C42
:1009600018BF7FEA6C5C1BD001B050EA410C0CBF91
:1009700052EA430C91EA030F02BF90EA020F0020F3
:10098000704710F1000F91EA030F58BF994208BF5A
:1009900090422CBFD8176FEAE37040F00100704717
:1009A0004FEA410C7FEA6C5C02D150EA013C07D16E
:1009B0004FEA430C7FEA6C5CD6D152EA033CD3D0B9
:1009C0005DF8040B704700BF8446104662468C46B3
:1009D0001946634600E000BF01B5FFF7B7FF0028E6
:1009E00048BF10F1000F01BD4DF808EDFFF7F4FF0F
:1009F0000CBF012000205DF808FB00BF4DF808ED9A
:100A0000FFF7EAFF34BF012000205DF808FB00BFBC
:100A10004DF808EDFFF7E0FF94BF012000205DF8DE
:100A200008FB00BF4DF808EDFFF7CEFF94BF012093
:100A300000205DF808FB00BF4DF808EDFFF7C4FF8C
:100A400034BF012000205DF808FB00BF4FEA4102DF
:100A500012F5001215D211D56FF47873B3EB625210
:100A600012D94FEAC12343F0004343EA505311F037
:100A7000004F23FA02F018BF404270474FF00000C9
:100A8000704750EA013005D111F0004008BF6FF007
:100A9000004070474FF00000704700BF4FEA41022E
:100AA000B2F1E04324BFB3F5001CDCF1FE5C0DD9CC
:100AB00001F0004C4FEAC0024CEA5070B2F1004F16
:100AC00040EB830008BF20F00100704711F0804F19
:100AD00021D113F13872BCBF01F00040704741F4DE
:100AE00080114FEA5252C2F11802C2F1200C10FAE2
:100AF0000CF320FA02F018BF40F001004FEAC123C6
:100B00004FEAD32303FA0CFC40EA0C0023FA02F369
:100B10004FEA4303CCE77FEA625307D150EA01333F
:100B20001EBF4FF0FE4040F44000704701F000400F
:100B300040F0FE4040F40000704700BF7BB972B93E
:100B40000029BEBF00204FF0004106E008BF00288A
:100B50001CBF6FF000414FF0FF3000F0EFB9ADF176
:100B6000080C6DE904CE002909DB002B1ADB00F02C
:100B700083F8DDF804E0DDE9022304B07047404269
:100B800061EB4101002B1BDB00F076F8DDF804E09F
:100B9000DDE9022304B0404261EB4101524263EBC4
:100BA00043037047524263EB430300F065F8DDF8FE
:100BB00004E0DDE9022304B0404261EB41017047EB
:100BC000524263EB430300F057F8DDF804E0DDE93F
:100BD000022304B0524263EB4303704753B94AB94E
:100BE000002908BF00281CBF4FF0FF314FF0FF3035
:100BF00000F0A4B9ADF1080C6DE904CE00F03CF8AA
:100C0000DDF804E0DDE9022304B0704738B50022C6
:100C1000002304460D46FFF7F1FE28B92046294679
:100C2000BDE8384000F00AB8204605F1004100F068
:100C300005F8404261EB410138BD00BFD0B50C4B17
:100C4000002206460F46FFF767FC00F079F90446DC
:100C5000FFF7E8FB074B0022FFF75EFC02460B465E
:100C600030463946FFF7A0FA00F06AF92146D0BDB8
:100C70000000F03D0000F0412DE9F047089D0446DA
:100C80008C46002B40F083808A42174647D9B2FA3F
:100C900082F242B1C2F1200024FA00F09140974064
:100CA00040EA010C94404FEA1748230CBCFBF8F6CD
:100CB0001FFA87FE08FB16C143EA014306FB0EF14B
:100CC000994209D9FB1806F1FF3080F01981994249
:100CD00040F21681023E3B445B1AA4B2B3FBF8F02B
:100CE00008FB103344EA034400FB0EFEA64509D975
:100CF0003C1900F1FF3380F00581A64540F20281E6
:100D000002383C4440EA0640A4EB0E0400261DB124
:100D1000D4400023C5E900433146BDE8F08702B95D
:100D2000FFDEB2FA82F2002A50D1CB1B4FEA174EF7
:100D30001FFA87F80126B3FBFEFC210C0EFB1C33C7
:100D400041EA034108FB0CF38B4207D979180CF1F7
:100D5000FF3002D28B4200F2E9808446C91AA3B266
:100D6000B1FBFEF00EFB101143EA014408FB00F852
:100D7000A04507D93C1900F1FF3302D2A04500F28B
:100D8000D9801846A4EB080440EA0C40BFE78B4228
:100D900009D9002D00F0B1800026C5E900013046D8
:100DA0003146BDE8F087B3FA83F6002E4AD18B4274
:100DB00002D3824200F2B880841A61EB0301012061
:100DC0008C46002DA8D0C5E9004CA5E7C2F1200350
:100DD00020FA03F6974001FA02F04FEA174ED94085
:100DE0003043030CB1FBFEF61FFA87F80EFB161119
:100DF00043EA014306FB08F1994204FA02F409D9D7
:100E0000FB1806F1FF3C80F08D80994240F28A8009
:100E1000023E3B445B1A81B2B3FBFEF00EFB103383
:100E200041EA034100FB08F38B4207D9791800F12E
:100E3000FF3C73D28B4271D902383944CB1A40EA55
:100E4000064678E7C6F1200C03FA06F422FA0CF302
:100E50001C4320FA0CF701FA06F34FEA144E21FA6C
:100E60000CF11F433B0CB1FBFEF91FFA84F80EFB9B
:100E7000191143EA014109FB08FA8A4502FA06F210
:100E800000FA06F308D9611809F1FF3048D28A4503
:100E900046D9A9F102092144A1EB0A01BFB2B1FB75
:100EA000FEF00EFB101147EA014700FB08F8B845B9
:100EB00007D9E71900F1FF312ED2B8452CD90238F5
:100EC000274440EA0940A7EB0807A0FB02894F45E9
:100ED000C64649461AD317D05DB1B3EB0E0267EB95
:100EE000010707FA0CFCF2404CEA0202F740C5E9A0
:100EF000002700263146BDE8F0872E4628460BE73E
:100F00000646E9E61846FDE64345E5D2B8EB020E93
:100F100069EB04010138DFE70846D2E760468DE758
:100F20008146B9E7664675E730464AE7ACF1020C00
:100F3000394413E702383C4424E700BF704700BF40
:100F40004A0011D212F5001211D20DD56FF4787348
:100F5000B3EB62520ED44FEAC12343F0004343EA9D
:100F6000505323FA02F070474FF00000704750EAE8
:100F7000013002D14FF0FF3070474FF00000704752
:100F80004FEA410C7FEA6C5C02D150EA013C0AD185
:100F90004FEA430C7FEA6C5C02D152EA033C02D177
:100FA0004FF0000070474FF00100704710F8012B20
:100FB00011F8013B012A28BF9A42F7D0D01A704796
:100FC000034613F8012B002AFBD1181A0138704789
:100FD0002DE9F84F00F121072DED028BDDF830B03F
:100FE00004460E461546FF00002B3DD1384610F052
:100FF0000DFE0546D0B3C5E9004605F5847A002EFE
:1010000044D056464FF0000A2046FFF71BFAA2458F
:101010008046894606F1080667DA5046FFF712FA5D
:101020004BA3D3E90023FFF777FA42464B46FFF77D
:101030009DFB41EC100B41EC180B01F0E9F851EC71
:10104000100BFFF72BFDB0EE480AF0EE680A46F8E9
:10105000080C01F0B5F951EC100BFFF71FFD0AF178
:10106000010A46F8040CCFE752B91F60BBF1000F2C
:1010700001D0CBF80070BDEC028B2846BDE8F88F9C
:101080001A681F60BA42B6D20025EFE72046FFF784
:10109000D9F9A642804689460AF1080A25DA30467F
:1010A000FFF7D0F92CA3D3E90023FFF735FA424626
:1010B0004B46FFF75BFB41EC100B41EC180B01F0CA
:1010C000A7F851EC100BFFF7E9FCB0EE480AF0EE80
:1010D000680A4AF8080C01F073F951EC100BFFF79D
:1010E000DDFC01364AF8040CD0E72046FFF7AAF9E8
:1010F00041EC100B0EF0DEFC01F0DEF859EC108B29
:1011000005F1080A042694FBF6F306FB1342AAB184
:10111000022E0FD0042E0FD002363046FFF792F980
:1011200002460B4640464946FFF768FC002818BFB8
:101130002646E8E70326F0E70226EEE7012BCAE998
:1011400000631C4692DD0AF1080ADCE7AFF3008079
:10115000182D4454FB211940182D4454FB2119C06B
:101160002DE9F04F2DED028B85B0002510F0010A1E
:101170008B4614461F46039509D0634804F072FB62
:101180002C46204605B0BDEC028BBDE8F08F451023
:1011900003ABCDF800A052462846FFF719FF05EB38
:1011A0004506039B06EBD67676100C3303EBC6069A
:1011B000002F58D1304610F029FD0446002CE0D015
:1011C000039B04F10C021344636003EBC503A360AB
:1011D0000023226059460093284603AB05EBD577E0
:1011E000FFF7F6FE7F10BBF1000F42D057457DDDC3
:1011F0000AF1010A5046FFF725F98046284689463C
:10120000FFF720F902460B4640464946FFF7AEFA83
:101210003E4B0022FEF7CAFF37A3D3E90023FFF7B6
:101220007BF941EC100B41EC180B00F0F1FF4FEA99
:10123000CA08A36851EC100BA8F1080803EB0809D1
:10124000FFF72CFCB0EE480AF0EE680AC9F800007F
:1012500001F0B6F8A36851EC100B9844FFF71EFCA0
:10126000C8F80400C2E73B683E60B342A6D25446C9
:1012700087E75F453ADD0BF1010B5846FFF7E2F8CF
:10128000804628468946FFF7DDF802460B46404671
:101290004946FFF76BFA1D4B0022FEF787FF18A3A4
:1012A000D3E90023FFF738F941EC100B41EC180BA0
:1012B00000F0AEFF4FEACB08A36851EC100BA8F189
:1012C000080803EB0809FFF7E9FBB0EE480AF0EE67
:1012D000680AC9F8000001F073F8A36851EC100B1C
:1012E0009844FFF7DBFBC8F80400C2E7109B002B13
:1012F0003FF447AF1E6044E7182D4454FB210940DA
:10130000182D4454FB2109C0B45904000000E03FEB
:101310002DE9F84F4FF000432DED028B23FA00F03A
:1013200057EC106B59EC118B93468A46FFF78AF8FD
:10133000424604460D464B4630463946FFF7ECF828
:1013400002460B4620462946FFF7E6F802460B46C2
:1013500043EC182B0AA3D3E90023FFF76DFB08B178
:101360009FED078BB0EE480AF0EE680ABDEC028BE9
:1013700059465046BDE8F84F04F0E0BAAFF300809C
:101380000000C0FFFFFFDF412DE9F74F0446C868AA
:1013900015461E468A46FFF767F88046E868894684
:1013A000FFF762F802460B4640464946FFF7B4F89D
:1013B000DDE90C7B80468946D6B1F068FFF754F82A
:1013C00002460B4640464946FEF7EEFE8046F86868
:1013D00021F00049FFF748F802460B4640464946CF
:1013E000FFF7C4F911A3D3E90023FFF711FB50B1B4
:1013F0003B462A4651462046CDF830B003B0BDE802
:10140000F04F04F0B7BA064B009320466569054AD1
:1014100005494FF4A273A847012003B0BDE8F08F3F
:10142000985A0400F9590400685A04007B14AE4726
:10143000E17A943F000000002DE9F0430B682DEDA8
:10144000028B1E68012E89B00446894611D0012501
:101450009C4B0193CDE902659B4B009344699B4AE9
:101460009B495D23A047284609B0BDEC028BBDE82F
:10147000F0834B681D68012D0CD0924B0193CDE990
:101480000256944B00934469904A91495E23A047C9
:101490000125E8E7002210F031FC804640B98E4B70
:1014A000009366696023894A8C492046B047DAE791
:1014B00083681B68002B04DC894B009366696123F9
:1014C000F1E700224946204610F029FC064620B9E3
:1014D000844B009366696323E5E7D9F8107027B958
:1014E000814B009366696523DDE798F80030072B90
:1014F00017D1A36B40F202412046984720B97B4B9D
:10150000009366696B23CEE7B862A36B40F2024199
:101510002046984720B9764B009366696F23C2E74F
:10152000F862327898F80030072A0CD1092B3DD0A8
:10153000072B17D06F4B009365697523634A674982
:101540002046A847A4E79A4230D0CDE902326A4B40
:1015500001936A4B0093656978235C4A5C49204695
:10156000A84795E733694BB10022CDE90232644BBD
:101570000193644B009365697D23EEE7B96ADFED63
:10158000620A624840F20122BAEE040A06F000FE46
:10159000F96A9FED5D0A5E4840F20122F7EE000A0B
:1015A00006F0F6FD3369FB61F3683B6298F8005082
:1015B000D9F81490092D39D0072D40F029813369CD
:1015C0004BB10022CDE902324D4B01934D4B0093BC
:1015D00065692523C1E7DFED4F7A96ED037ADFEDEC
:1015E0004E6AB4EEE77AF1EE10FACCBF77EE677A86
:1015F00077EEC77AF4EEE67AF1EE10FA40F3C180A6
:101600004FF07C53002217EE100ACDE90423FEF7B9
:101610002BFF424B0193CDE90201414B00936569D9
:1016200026232A4A3F492046A84731E73078072831
:1016300033D1336913F5004F09D03B4ACDE902326B
:101640003A4B01932F4B009365692B2385E7DFED20
:10165000387A96ED037ADFED376AB4EEE77AF1EE89
:1016600010FACCBF77EE677A77EEC77AF4EEE67AB7
:10167000F1EE10FA40F3A6802F4B002217EE100A6D
:10168000CDE90423FEF7F0FE2C4B0193CDE90201D6
:10169000234B009365692C23C3E7092854D067695D
:1016A00007F0E8FE0646284607F0E4FE244B0193C7
:1016B000114B0093CDE90260044A22492F232046B2
:1016C000B847E5E6CB630400A3630400306304007D
:1016D000C05A0400F8620400515D0400685A040016
:1016E000B3630400745D0400CD630400E863040088
:1016F000FF630400565B0400865D0400935D0400F4
:10170000AF660400226404000000000013290100F9
:1017100005290100000000386F1203335C640400E7
:10172000686404003C6404000080FFFF7D640400E2
:10173000000080376F1283320000F03E84640400A2
:10174000905B0400B4600400336913F1800F0AD089
:101750006FF07F02CDE90232494B0193494B009370
:1017600065693023F9E696ED037ADFED477AB4EE4A
:10177000677AF1EE10FA25D0444B00936569312366
:10178000DCE6D8F80C00FEF76FFE0446D9F800003E
:101790000D46FEF769FE02460B4620462946FEF737
:1017A000BBFE35A3D3E90023FEF7E0FF07F10806EF
:1017B00041EC100B07A9304604F07CF8079BFB6056
:1017C000002550E6D8F80C00FEF74EFE41EC180B51
:1017D000D9F80000FEF748FEB0EE481AF0EE681A9D
:1017E00007F1080441EC100B07AA21460520FFF77A
:1017F0008FFD0799F9601F22052010F00DFAFEF702
:1018000021FE01F100431946FFF720F9B861D7E73F
:10181000012D13D02846666907F02CFE05460120ED
:1018200007F028FE1A4B01931A4B0093CDE90250A2
:10183000194A1A494E232046B04729E63078012834
:1018400012D0676907F016FE0646284607F012FE1A
:101850000F4B0193124B0093CDE902600E4A0F49E2
:101860004F232046B847FEE5D9F80000FEF7FCFDFF
:10187000C7E90001A4E700BF140014001400243FCE
:1018800090640400226404000000803B956404001E
:10189000B7640400935D040030630400B460040086
:1018A000865D0400000000002DE9F043494207EE88
:1018B000901A2DED068BB8EEE78AB2EE087A38EE74
:1018C000077AF7EE007AC7EE879A3AA7D7E900675A
:1018D00083B0044600259FED309A9FED30AAF0EECC
:1018E000678AD4E901235343AB424FD9236803EB02
:1018F00085034FEA8508D3F800904846FEF7B4FD0B
:1019000032463B46FFF77AF800EE109A002818BFDF
:10191000B0EE490A0EF00CF801A80EF07BF8DFEDEE
:10192000207A9FED207AE0EE0A7AF0EE486AA0EE87
:10193000277ADFED1D7AE0EE077AB0EE677ADDED0B
:10194000017AF8EEE77A77EE877A9FED187A67EEFC
:10195000877AB2EE047AE7EE876A69EEA67AF5EE48
:10196000C07AF1EE10FA0ED4F4EE687AF1EE10FAC5
:10197000B7EE007AC8BFF0EE477A23684344C3ED60
:10198000007A0135ADE7DFED0A7AF6E7002003B013
:10199000BDEC068BBDE8F0836042A20DA8A19D3F7F
:1019A000F5CA83C0FBB3C040E09248C09B209A3E7A
:1019B00000000000A0C2EBFE4B48B439000000005C
:1019C00030B52DED048BD0E901218FB003684A4377
:1019D00002A8012113F094FA01220023114606A85F
:1019E00013F08EFA069B002B7DD0039A079B9A4238
:1019F0007BD1089B012B78D10024039BA34210D9F3
:101A00000499029801FB04F50AAB01AA00EB8500DA
:101A100011F0A0FC069B019A03EB840301341A60C9
:101A2000EBE70122002311460AA813F069FA0A9B8A
:101A3000002B54D0039A0B9B9A4252D10C9B012B42
:101A40004FD10024039BA34210D90499029801FBB3
:101A500004F501AB6A4600EB850011F028FC0A9BF7
:101A6000009A03EB840301341A60EBE7069BD3ED85
:101A7000009A0A9B93ED008A38EE698AB7EE009AC5
:101A800018EE100AFEF7F0FC1BA3D3E90023FEF7C3
:101A9000B5FF08BBC9EE088A02A8B0EE690A13F0C8
:101AA00044FA044650B9F4EE498AF1EE10FA05D032
:101AB000B0EE680A02A808F007F904460AA810F078
:101AC00058F806A810F055F802A810F052F8204671
:101AD0000FB0BDEC048B30BDF0EE498ADCE7044C5E
:101AE000ECE7044CEAE7024CEBE7024CE9E700BF05
:101AF00016FCFFFF14FCFFFFFCA9F1D24D62503F22
:101B00002DE9F04D2DED028B804684B0D8000C46B7
:101B100017461E4610F07AF8054660B103AB0093F5
:101B2000002338461A461946FFF71AFB074620B924
:101B3000284610F06FF826483EE041462A4603F05A
:101B400021FE9FED218BA84604EB8606B44208F1E6
:101B500008082AD058F8080CFEF786FCB0EE481AA0
:101B6000F0EE681A41EC100B00F082FC58F8040CFF
:101B70005BEC10ABFEF778FCB0EE481AF0EE681A9A
:101B800041EC100B00F074FC52465B4651EC100B1C
:101B9000FEF70CFB41EC100B0DF08CFF51EC100B21
:101BA000FEF77CFF44F8040BD0E7384610F032F81B
:101BB000284610F02FF8002004B0BDEC028BBDE8E1
:101BC000F08D00BFAFF30080000000000000004077
:101BD00016FCFFFF000000002DE9F04790B08046A2
:101BE000189C670807F1010999450D4616467ED1F4
:101BF00000232246012102A813F082F9029800284E
:101C000073D0A54228BF25464FEA850A5246414671
:101C100014F021FA0298621B92000021504414F043
:101C200042FA202C20D0402C1ED0802C1CD0B4F5A1
:101C3000807F19D0B4F5007F16D0B4F5806F13D033
:101C4000B4F5006F10D0B4F5805F0DD002984B460C
:101C500022463146FFF754FF054602A80FF089FFE0
:101C6000284610B0BDE8F087A1B20AA806F096FE9B
:101C700005460028F1D103462246012106A813F0AB
:101C80003FF9069A2AB906A80FF073FFA5F2EA35C4
:101C9000E3E72B4602990AA811F062FA069B1A683C
:101CA00032605A680FF25809D9E9008906EB8703B8
:101CB00001241A600436A74213D9069801AA00EB42
:101CC000C400022106F0A4FE0198FEF7CDFB4246B7
:101CD0004B46FEF721FCFEF7E1FE013446F8040B0B
:101CE000E9E706A80FF045FFB7E7034DB5E7034D59
:101CF000B6E700BFAFF3008016FCFFFF11FCFFFF4B
:101D0000CD3B7F669EA0F63F2DE9F04F2DED028B77
:101D1000054688464068013993B04E1021F0010114
:101D2000CDE9002301440023AA6802A813F0E8F8D3
:101D3000029B002B00F0E380B6B23346324602A984
:101D4000284608F00FF80446002870D1034604998D
:101D5000012206A813F0D4F8069B002B00F0CD80DA
:101D60002346049901220AA813F0CAF80A9B002B03
:101D700000F0C1806B68A34264D9049A029B02FB05
:101D800004F103EB81030EA8414613F0B9F8DDF826
:101D900038E0BEF1000F40D01099079B99424FD117
:101DA000089B012B4CD1069BDDF83CA04FEA810932
:101DB0009C46002291420DD0DFED557A0EEB820059
:101DC0000027BA451AD090ED007A013777EE877A6E
:101DD0004844F6E7A8688200624303EB8000D21A09
:101DE000984215D029689F183944B3EC017AD1ED97
:101DF000007A77EEC77AC1ED007AF1E707EE10AA14
:101E0000F8EE476A013287EEA67AACEC017AD1E7A8
:101E10000EA80FF0AEFE0134ACE73E4C0EA80FF05A
:101E2000A8FE0AA80FF0A5FE06A80FF0A2FE02A8C1
:101E30000FF09FFE204613B0BDEC028BBDE8F08F83
:101E4000354CEBE73346324602A9284607F08AFFB5
:101E500004460028E5D107466B68BB4243D9049A83
:101E6000029B02FB07F103EB81030EA8414613F02E
:101E700047F80E9B8BB3009B53B30AA90EA808F03A
:101E8000BFF8064650BB049E2B68DDF828A0B600BC
:101E900007FB06395644B2451AD0D9F800005AF863
:101EA00004BBFEF7E1FA41EC180B5846FEF7DCFAEA
:101EB00015A3D3E90023FEF779F902460B4651EC4E
:101EC000180BFEF753FCFEF7E9FD49F8040BE2E7B7
:101ED0000EA80FF04EFE0137BEE70E4E0EA80FF013
:101EE00048FE34469DE7019B002B9AD02846FFF719
:101EF00067FD044695E7074C93E7064C94E7054CCD
:101F000095E700BFAFF30080BBBDD7D9DF7CDB3DD9
:101F10000000000016FCFFFF14FCFFFF00000000A3
:101F20002DE9F04F2DED068B8E1C8BB04FEA860904
:101F300008EE903A04469DF87030029148461546E6
:101F400004930FF063FE074678B36368029A9342E6
:101F500040F04C81A268AA4240F048815A430021D7
:101F6000206814F0A0F8DDED1A7AB8EE678AB0EEBA
:101F7000480A08F099F8DDED1B7AB8EE679AF0EEA2
:101F8000409AB0EE490A08F08FF83946F0EE400A60
:101F90003046B0EE690A07F069FF48460FF036FE9A
:101FA000064620B938460FF035FE934819E1DFEDBB
:101FB000939A9FED93AA4FF0000A029B03F1010848
:101FC0001FFA8AF3984534DB07EB830292ED000A8F
:101FD000039380EE290A06EB830B0DF0C9FD039BEA
:101FE000F7EE007A30EE670A20EE0A0AB4EE408A75
:101FF000F1EE10FAC8BFB0EE480AB4EE409AF1EE26
:1020000010FA48BFB0EE490A984504D08BED000A9B
:102010000AF1010AD1E710EE100AFEF725FA74A3BF
:10202000D3E90023FEF7C0F8FEF738FDCBF8000037
:10203000EEE738460FF0EEFD48460FF0E7FD0746A5
:1020400008B93046AFE7013507EE905AF8EE688AD6
:10205000B8EEE78A4FF0000906EB890393ED000A1A
:1020600028EE000A80EE280A0DF06AFCBDEEC00AD8
:1020700010EE103A47F8293009F101091FFA89F9E1
:10208000C845E9DA30460FF0C5FDDFF878A13E46D5
:102090000025029BAB4240F299806B1CD6F8008071
:1020A000059356F8043F08EE103A73680393A3EBC8
:1020B000080B0BF10109012100234A4606A812F082
:1020C0001FFF069919B906A80FF053FD6DE7DDED66
:1020D000037AF8EEE70A07EE908A4846B8EEE70A78
:1020E00007F0C4FE039B0093424618EE103A069890
:1020F000494608F049F80022F7EE006A934560DB94
:102100000499A36808EB020099B905FB0300069B3C
:102110003C4903EB8203D3ED007A23681844002383
:10212000B1EC017AF4EE477AF1EE10FA05D1DBB2A8
:1021300040E0636803FB0050E9E70133EF2BEFD188
:10214000F5EEC07AF1EE10FA37D4F4EEE67AF1EE5D
:1021500010FA34DCEE23002101EB030C4FEA6C0C87
:102160000AEB8C0E9EED007AF4EEC77AF1EE10FACF
:1021700016D50CF1FF338B42EEDA0AEB810C9CEDA5
:10218000007A0AEB830C9CED006A37EE677A77EEF3
:10219000C67AB4EEE77AF1EE10FAC8D5CBB209E010
:1021A00002DD0CF10101E6E7FCEEC77ACDED037A22
:1021B0009DF80C3003700132A0E70023FAE70123F9
:1021C000F8E706A80FF0D5FC059D62E7049B23B154
:1021D000D4E901329BB26260A36038460FF01AFD69
:1021E00000200BB0BDEC068BBDE8F08F0648F8E789
:1021F000FCA9F1D24D62503F16FCFFFF00E08C4479
:1022000000002F44C8FC030014FCFFFF0000000086
:1022100000B551EC100B264A21F00043934285B0E3
:102220001EDD244A934209DD10EE102A0B46FDF70D
:10223000BBFF41EC100B05B05DF804FB684601F0F4
:10224000ABF800F00300012811D0022825D0E8B136
:102250009DED021B9DED000B012002F03DF8EAE729
:102260009FED111B01F0D0FA05B05DF804FB9DED68
:10227000021B9DED000B02F02FF853EC102B03F125
:10228000004300EE903A05B05DF804FB9DED021BA3
:102290009DED000B01F0B8FACDE79DED021B9DED21
:1022A000000B01F0B1FAE8E70000000000000000B8
:1022B000FB21E93FFFFFEF7F51EC100BF8B5C1F3B5
:1022C0000A53A3F2FF35132D10EE106A0C4620DCE2
:1022D000002D3DDB384F2F4101EA070303431DD09A
:1022E00033A3D3E90023FDF761FF00220023FEF7AB
:1022F000A3FB48B1002C04DA4FF4801343FA05F530
:102300002C4424EA070400262346324643EC102BD3
:10231000F8BD332D05DDB5F5806F29D041EC100BEC
:10232000F8BDA3F213434FF0FF37DF400742F5D06B
:102330001FA3D3E90023FDF739FF00220023FEF796
:102340007BFB0028E0D0002C23DB26EA0706DBE736
:1023500017A3D3E90023FDF729FF00220023FEF78E
:102360006BFB0028D0D0002C0ADB00263446CBE7DC
:1023700010EE102A0B46FDF719FF41EC100BF8BDCB
:1023800024F000430D4A1E43002E18BF14460026B9
:10239000BAE7142D08D00123C5F1340503FA05F579
:1023A000AE1928BFE418D0E70134CEE7AFF30080C0
:1023B0009C7500883CE4377EFFFF0F000000F0BFF3
:1023C00000B551EC100B284A21F00043934285B030
:1023D00025DD264A934209DD10EE102A0B46FDF753
:1023E000E3FE41EC100B05B05DF804FB684600F01D
:1023F000D3FF00F00300012819D0022826D0E8B14D
:102400009DED021B9DED000B01F0FEF953EC102B2E
:1024100003F1004300EE903A05B05DF804FB9FED38
:10242000101B002001F058FF05B05DF804FB9DED86
:10243000021B9DED000B01F0E7F9D4E79DED021BB7
:102440009DED000B012001F047FFCCE79DED021B45
:102450009DED000B012001F03FFFD7E7AFF30080B7
:102460000000000000000000FB21E93FFFFFEF7FBC
:102470002DE9F04F2DED028B8DB057EC106B55EC24
:10248000114B00F0ADF9AE4BB0EE408AF0EE608A31
:1024900093F90090B9F1FF3F37D022462B462046F2
:1024A0002946FEF76DFD834678BB32463B463046F3
:1024B0003946FEF765FD8046002840F093804FF0D6
:1024C000000A4FF0000B3046394652465B46FEF795
:1024D0008BFA18B352465B4620462946FEF784FA2B
:1024E0000090002857D0974BCDF828800122CDE9E5
:1024F0000467CDE90645CDE908AB02920393B9F133
:10250000000F00F089809FED8A8BB0EE480AF0EE54
:10251000680A0DB0BDEC028BBDE8F08FB0EE480A42
:10252000F0EE680A0DF0C2FD8046002800F08280BF
:102530004FF000084FF0000951EC180B42464B4693
:10254000FEF752FA0028E0D047EC106B0DF0AEFD1C
:102550000028DAD045EC104B0DF0A8FD0028D4D0AF
:10256000774B784A93F90030039204210022022B22
:10257000CDE90467CDE90645CDE9088902910A92C3
:1025800004D002A80DF09EFD00284AD112F091FF60
:102590002223036045E045EC104B0DF087FD002839
:1025A000B3D052465B4620462946FEF727FA00285C
:1025B000ABD0634B0099634A93F900300A91012133
:1025C000CDE90467CDE90645CDE90212002B6FD1B4
:1025D000CDE908AB02A80DF075FD00286ED00A9B6E
:1025E0002BB320E00022002320462946FEF7FCF909
:1025F00000288AD09FED4E8B524BCDF828B0012297
:10260000B9F1020FCDE90467CDE906458DED088BE0
:10261000029203933FF479AF02A80DF053FD002816
:1026200051D00A9B1BB112F044FF0A9B03609DED41
:10263000088B6AE747EC106B0DF038FD00283FF47B
:1026400077AF45EC104B0DF031FD00283FF470AF33
:1026500053EC182B18EE100A1946FEF791FC384B74
:10266000002840F0968093F900800A90032302939B
:10267000344B0393CDE90467CDE90645B8F1000F6B
:1026800026D1DFF8D0904FF0604852465B46304686
:102690003946CDE90889FEF7B1F948BB02A80DF02B
:1026A00011FD00289BD112F004FF2223036096E75E
:1026B00025490020022BCDE908018BD112F0F9FE4B
:1026C000212303608BE712F0F4FE21230360A8E7C7
:1026D0009FED197B52465B46304639468DED087BAF
:1026E000FEF78CF9002837D1B8F1020FDBD0D5E71F
:1026F000164B002220462946FDF70EFF02460B46E8
:1027000043EC102BCDE900230DF0DEFCDDE90023C6
:1027100051EC100BFEF768F9002836D10C4B084934
:102720004FF06042CDE9082391F90080DCE700BF5B
:10273000000000000000F03F000000000000F07FFB
:10274000B5050020180204000000F0FF0000E03F83
:10275000FFFFEFC7FFFFEF471C4B00222046294633
:10276000FDF7DAFE02460B4643EC102BCDE90023C1
:102770000DF0AAFCDDE9002351EC100BFEF734F953
:1027800018B9134B0022CDE90823124B93F90080AE
:10279000AAE793F90090104BCDF828800122CDE9EB
:1027A0000467CDE90645CDE90223B9F1000F3FF4F6
:1027B0000FAF52465B4650465946FDF7D7FFB9F179
:1027C000020FCDE908013FF479AF03E70000E03FD5
:1027D0000000F0FFB5050020180204000000000012
:1027E0002DE9F04F57EC116B2DED0A8B27F0004AC5
:1027F0005AEA060289B03DD055EC104B764925F0D7
:102800000048884510EE102AA9462CDC11EE103A3B
:10281000BB463AD08A4526DC6F498A4521D0B9F1BA
:10282000000F3DDB00210391002B55D16A4B9A45E7
:1028300000F0A880694B9A4500F0B680BBF1804F4C
:1028400000F00185664B9B4546D1B9F1000F43DB93
:1028500045EC104B09B0BDEC0A8BBDE8F04F0DF014
:1028600065BA002BDBD008F1404808F5801858EA1B
:1028700002030DD19FED547B8DED007B9DED000B90
:1028800009B0BDEC0A8BBDE8F08F0CB9C245C3DDC1
:10289000544809B0BDEC0A8BBDE8F04F01F0DCBD37
:1028A00051498A4500F38780A1F154718A450FDDB3
:1028B0004FEA2A51A1F2FF31142940F3CE84C1F12D
:1028C000340123FA01F000FA01F1994200F0208569
:1028D00000210391002BADD045EC104B06920CF07B
:1028E00053FF069A8DED000B5ABBB8F1000F04D0D0
:1028F0003A4B29F040429A4223D1BBF1000F07DA4C
:10290000DDE9002335490020FDF730FFCDE9000166
:10291000B9F1000FB2DA039B08F1404808F58018BE
:1029200058EA030340F0BE84DDE90023104619464F
:10293000FDF73AFC02460B46FDF718FFCDE9000112
:102940009CE7039A4FEAD973013B0693134335D0B2
:10295000264B9A454EDD03F104739A45244B40F310
:10296000ED83984540F36B83BBF1000F40F36B831D
:1029700017A3D3E9002310461946FDF7CDFDCDE995
:1029800000017BE708F1404303F5801313433FF454
:1029900071AF174B984540F38883BBF1000FC0F22D
:1029A0005283CDE9006769E7BBF1000FC0F24184B3
:1029B000CDE9004562E70221039135E722462B4627
:1029C000B4E700BFAFF30080000000000000F03F5C
:1029D0009C7500883CE4377E0000F07F0000F03FEB
:1029E0000000E03F28020400FFFF3F430000E041F9
:1029F000FFFFEF3FE44B09EA0303002B40F016848E
:102A0000DDE90001E14B0022FDF786FDCDE9000183
:102A1000DDF804806FF034004FEA2853DC49C8F336
:102A20001302A3F2FF3342F07F5818188A4207902E
:102A300048F4401840F3E983D64B9A4240F33E8471
:102A40009FEDBB7BB0EE47BAF0EE67BAB0EE47CA77
:102A5000F0EE67CA9FEDB87B013054EC173B07904E
:102A6000A8F580184FF00009DDE900AB44EC183BF5
:102A70001A46504623464146FDF796FB53EC182B69
:102A800004460D4650464146FDF790FB02460B4674
:102A90000020C149FDF76AFE45EC1A4B41EC190BC9
:102AA00051EC1A0B53EC192BFDF736FDC3464FEAD8
:102AB000680848F0005808F5002303EB09050A46AA
:102AC00000230146CDE900120093DDE900890024CE
:102AD000CDE904122B46224640464946FDF71CFD2F
:102AE00002460B4651EC1A0BFDF75EFB41EC170B4F
:102AF00053EC182B2046294655EC174BFDF754FB99
:102B000002460B4650465946FDF74EFB42464B46A1
:102B1000FDF702FD02460B4620462946FDF744FB21
:102B200053EC192BFDF7F8FCDDE904AB04460D4628
:102B300052465B4650465946FDF7EEFC80A3D3E96A
:102B4000002345EC1A4B04460D46FDF7E5FC7EA339
:102B5000D3E90023FDF72AFB22462B46FDF7DCFCD8
:102B60007BA3D3E90023FDF721FB22462B46FDF78B
:102B7000D3FC79A3D3E90023FDF718FB22462B46AB
:102B8000FDF7CAFC76A3D3E90023FDF70FFB22462D
:102B90002B46FDF7C1FC74A3D3E90023FDF706FB28
:102BA00022462B4604460D4610461946FDF7B4FC56
:102BB00002460B4620462946FDF7AEFC4246044637
:102BC0000D464B4650465946CDE904ABFDF7EEFAAB
:102BD00053EC1A2BFDF7A0FC22462B46FDF7E6FA34
:102BE000424604460D464B4640464946FDF794FC96
:102BF00045EC194B694B002282468B46FDF7D6FA0D
:102C000053EC192BFDF7D2FA009C0D4622462B46B9
:102C100040464946FDF780FC604B804689460022CD
:102C200020462946FDF7C0FA52465B46FDF7BCFA3E
:102C300002460B4651EC190BFDF7B6FADDE9042309
:102C4000FDF76AFC49EC188B2246804689462B46E4
:102C500051EC1A0BFDF760FC02460B464046494614
:102C6000FDF7A4FA82468B4652465B4651EC180BA0
:102C7000FDF79CFA009C3EA3D3E9002320460D46B5
:102C8000FDF74AFC53EC182B80468946204629461E
:102C9000FDF78AFA02460B4650465946FDF784FA7C
:102CA00035A3D3E90023FDF737FC49EC198B34A396
:102CB000D3E900238046894620462946FDF72CFCAF
:102CC00002460B4640464946FDF770FA53EC1C2B72
:102CD000FDF76CFA824607988B46FDF7B3FB524628
:102CE000804689465B4651EC190BFDF75FFA53ECC1
:102CF0001B2BFDF75BFA42464B46FDF757FA009C4B
:102D000042464B4620460D46FDF74EFA53EC1B2B30
:102D1000FDF74AFA53EC192BFDF746FA02460B462B
:102D200050465946FDF740FA82468B4638E000BFD0
:102D30000000000000000000000000000000F03F64
:102D4000EF4E454A287ECA3F65DBC9934A86CD3F90
:102D500001411DA96074D13F4D268F515555D53F76
:102D6000FFAB6FDBB66DDB3F033333333333E33F0E
:102D7000000000E009C7EE3FFD033ADC09C7EE3F63
:102D8000F5015B14E02F3EBE0000F07F00004043E1
:102D90008E98030079B60B000000F03F0000084059
:102DA000039B069A013B134340F078819FEDC47B5F
:102DB000B0EE479AF0EE679A0023CDE900670093E2
:102DC000DDE900893046424639464B46FDF7ECF9CD
:102DD00022462B46FDF7A0FB32463B4606460F46F1
:102DE00050465946FDF798FB02460B463046394699
:102DF000FDF7DCF9424682468B464B462046294683
:102E0000FDF78AFB06460F463B465046594632467A
:102E1000FDF7CCF9C44B994204460D46884640F371
:102E2000178101F13F4303F5E003034340F02A8299
:102E3000A5A3D3E9002350465946FDF7B7F932461A
:102E400041EC180B3B4620462946FDF7ADF90246FA
:102E50000B4651EC180BFDF7EFFD002840F01282F5
:102E6000C8F30A534FF48012A3F2FE3342FA03F37D
:102E70004344AE49C3F30A52A2F2FF3241FA02FCC4
:102E8000C3F3130523EA0C01C2F1140445F48015C1
:102E9000B8F1000F0B4645FA04F103914FF0000022
:102EA000B8BF49420246B8BF039130463946FDF7E4
:102EB0007BF906460F463B46504659463246FDF7DB
:102EC00075F9039B1B0500930D46002480A3D3E9ED
:102ED000002320462946FDF71FFB324680468946DF
:102EE0003B4620462946FDF75FF902460B46504611
:102EF0005946FDF759F978A3D3E90023FDF70CFBF8
:102F000077A3D3E9002306460F4620462946FDF75E
:102F100003FB02460B4630463946FDF747F90646A5
:102F20000F4632463B4640464946FDF73FF942468A
:102F30004B4604460D46FDF737F902460B46304630
:102F40003946FDF731F9224682468B462B4620460C
:102F50002946FDF7E1FA64A3D3E9002306460F46AC
:102F6000FDF7DAFA62A3D3E90023FDF71DF9324633
:102F70003B46FDF7D1FA60A3D3E90023FDF716F92C
:102F800032463B46FDF7C8FA5DA3D3E90023FDF7BF
:102F90000BF932463B46FDF7BFFA5BA3D3E90023AA
:102FA000FDF704F932463B46FDF7B6FA02460B46FA
:102FB00020462946FDF7F8F806460F4632463B46BE
:102FC00020462946FDF7A8FA0022804689464FF0A0
:102FD000804330463946FDF7E7F802460B46404647
:102FE0004946FDF7C3FB524606460F465B46204660
:102FF0002946FDF791FA52465B46FDF7D7F802469F
:103000000B4630463946FDF7CFF822462B46FDF7F2
:10301000CBF802460B4600204549FDF7C5F80B46A4
:1030200000991944B1F5801F0246C0F2698110462B
:1030300053EC192BFDF770FACDE900011EE4BBF14A
:10304000000FFFF695AC9FED327B8DED007B15E414
:10305000DFF8E4C021F00043634540F30B81354BBA
:103060000B4403430AD132463B46FDF79DF85246D6
:103070005B46FDF7D7FC00283FF4F2AE26A3D3E968
:10308000002351EC190BFDF747FA23A3D3E90023E2
:10309000FDF742FACDE90001FFF7F0BB9FED207B81
:1030A000B0EE479AF0EE679A86E6BBF1000FCADAF7
:1030B00007F1004300960193FFF7E0BBAFF30080F8
:1030C000000000000000F0BFFE822B654715973C12
:1030D00000000000432EE63FEF39FAFE422EE63FA5
:1030E000396CA80C615C20BED0A4BE726937663E04
:1030F000F16BD2C541BDBB3E2CDE25AF6A56113FF8
:1031000093BDBE166CC1663F3E5555555555C53FDE
:10311000000000000000000059F3F8C21F6EA50176
:10312000000000000000F03FFFFF8F40FFFF0F0096
:103130000000F03F00346F3FFFCB90409845FFF612
:103140007EAF914B98453FF70FAC8F4B0022DDE9E6
:103150000001FDF729F878A3D3E9002304460D46C2
:10316000FDF7DAF976A3D3E9002382468B462046A1
:103170002946FDF7D1F9854B804689460022204635
:103180002946FDF7C9F902460B466FA1D1E90001B6
:10319000FDF70AF822462B46FDF7BEF902460B461C
:1031A00000207B49FDF700F822462B4604460D46D9
:1031B00010461946FDF7B0F902460B46204629464F
:1031C000FDF7AAF962A3D3E90023FDF7A5F90246AA
:1031D0000B4640464946FCF7E7FF80468946504685
:1031E000594642464B46FCF7E1FF002452465B46F7
:1031F00020460D46FCF7D8FF02460B46404649469E
:10320000FCF7D2FF82468B46CAE59FED537BB0EEBA
:1032100047BAF0EE67BAB0EE47CAF0EE67CA9FED64
:10322000507B4FF0000954EC173B1DE40020FFF7E2
:10323000F3BB554922462B460020FDF797FACDE90E
:103240000001FFF71BBB22462B4620462946FDF70F
:1032500063F9CDE90001FFF711BB002B42D1C1F1A9
:1032600014014AFA01F000FA01F151455AD00393D2
:10327000FFF7E0BA464A93425BDCDDE900120091B9
:10328000039122E638A3D3E9002351EC190BFDF793
:1032900043F935A3D3E90023FDF73EF9CDE9000159
:1032A000FFF7ECBA039B012B7FF4E8AADDE90021CC
:1032B00001F10043CDE90023FFF7E0BA9FED2C7B3D
:1032C000B0EE47BAF0EE67BA9FED2B7BB0EE47CA7F
:1032D000F0EE67CA9FED2A7B4FF4802954EC173B30
:1032E000FFF7C2BB45EC104B03920CF04DFA039A6A
:1032F0008DED000B002A7FF461AB0392FFF7F5BA66
:10330000039843EC102B01F0AFF851EC100B8FE653
:1033100000F00100C0F102010391002B3FF48AAAE2
:10332000FFF7DABA00F00100C0F102030393FFF7E0
:1033300081BA1B1596E500BF000000604715F73FF6
:1033400044DF5DF80BAE543E555555555555D53FA8
:10335000FE822B654715F73F0000000000000000CB
:10336000000000000000F03F9C7500883CE4377EC0
:103370000000004003B8E23F06D0CF43EBFD4C3ED7
:10338000000000000000F83F0000F03F0000D03FC8
:103390000000E03F000000002DE9F04F53EC102B3F
:1033A0002DED048B924923F000458D4289B00446EF
:1033B00040F38F808F498D429B462DDCBBF1000F7F
:1033C000194610EE100A80A3D3E9002340F3C78109
:1033D000FCF7EAFE884B9D4206460F4600F09180BE
:1033E0007BA3D3E90023FCF7DFFE02460B46C4E9CA
:1033F000002330463946FCF7D7FE75A3D3E90023F6
:10340000FCF7D2FEC4E902014FF0010A504609B0B0
:10341000BDEC048BBDE8F08F78498D4240F3948079
:1034200077498D4210EE100A61DC4FEA255AAAF264
:10343000164AA5EB0A5116460F46FDF707FBFDF7A6
:1034400001F8804689463046394642464B46CDE92A
:103450000289FCF7A9FE6B4B0022FDF75DF80F46D1
:103460000646FDF7F3FA0546FCF7ECFF02460B466D
:1034700030463946CDE90423FCF796FE614B002225
:10348000FDF74AF802460B46CDE906230022002349
:10349000FDF7AAFA002800F06081002D0CBF01237F
:1034A0000223594A019202215246009102A8214664
:1034B00000F0EAFABBF1000F8246A7DA6268E3681F
:1034C00002F1004203F10043C0F1000A6260E360D0
:1034D0009CE7002000214FF0000AC4E90201504699
:1034E00084ED000B09B0BDEC048BBDE8F08F1946EC
:1034F000FCF75AFE4FF0000AC4E90201C4E90001DA
:1035000084E735A3D3E90023FCF74EFE34A3D3E9C7
:10351000002306460F46FCF747FE02460B46C4E969
:10352000002330463946FCF73FFE2DA3D3E90023A4
:10353000FCF73AFE4FF0010AC4E90201504609B017
:10354000BDEC048BBDE8F08F0CF01EF957EC106B4E
:1035500010EE100A24A3D3E900233946FCF7DCFF60
:103560002A4B0022FCF722FEFDF770FA8246FCF798
:1035700069FF15A3D3E9002380468946FCF7CCFFF9
:1035800002460B4630463946FCF70EFE10A3D3E93F
:10359000002306460F4640464946FCF7BDFFBAF1F8
:1035A0001F0F49EC198B47EC186B8046894631DCBC
:1035B000174B0AF1FF3253F82230AB422AD00246B1
:1035C0000B4630463946A4E000004054FB21F93F49
:1035D0003163621A61B4D03D0000601A61B4D03D1D
:1035E0007370032E8A19A33B83C8C96D305FE43F13
:1035F000FB21E93F7BD90240FB21F93FFB21394107
:10360000FFFFEF7F00007041B40204000000E03FC4
:103610003402040042464B4651EC180BFCF7C4FD43
:103620000A46C2F30A53C3EB1553102B0146064654
:1036300017464FEA255573DD69A3D3E9002351EC02
:10364000190BFCF769FF59EC188B06460F463246FA
:103650003B4618EE100A4946FCF7A6FD41EC180B54
:10366000404653EC182B4946FCF79EFD32463B463C
:10367000FCF79AFD5CA3D3E9002306460F4651EC04
:10368000190BFCF749FF32463B46FCF78DFD80469F
:10369000894642464B4651EC180BFCF785FD0A461D
:1036A000C2F30A53ED1A312D01460646174637DD9F
:1036B00050A3D3E9002351EC190BFCF72DFF56EC76
:1036C000185B8046894642464B4618EE100A314642
:1036D000FCF76AFD41EC180B314653EC182B2846D9
:1036E000FCF762FD42464B46FCF75EFD43A3D3E97F
:1036F000002306460F4651EC190BFCF70DFF32462E
:103700003B46FCF751FD8046894651EC180B42467A
:103710004B46FCF749FDC4E9000106460F4601E0AF
:10372000C4E9001232463B4651EC180BFCF73CFD55
:1037300042464B46FCF738FDBBF1000FC4E90201DD
:10374000BFF664AE07F1004501F10043C4E900652E
:10375000C4E90203CAF1000A58E60323A1E6FCF714
:1037600025FD234B9D4206460F4616D01AA3D3E9EA
:103770000023FCF71BFD02460B46C4E9002330463C
:103780003946FCF711FD14A3D3E90023FCF70EFD25
:103790004FF0FF3AC4E9020138E611A3D3E9002350
:1037A000FCF704FD10A3D3E9002306460F46FCF7FF
:1037B000FDFC02460B46C4E9002330463946FCF7BF
:1037C000F3FC09A3D3E90023FCF7F0FC4FF0FF3A28
:1037D000C4E902011AE600BF3163621A61B4D03D48
:1037E0000000601A61B4D03D7370032E8A19A33BA8
:1037F000FB21F93F0000002E8A19A33BC149202577
:103800009A837B39000000002DE9F84F57EC106BCC
:1038100027F00049B9F1795F2DED048B5BEC11AB1A
:1038200071DA10EE100A3946FDF710F9002800F0A1
:10383000F68032463B4630463946FCF76DFE7CA3A7
:10384000D3E9002304460D46FCF766FE7AA3D3E9CC
:103850000023FCF7ABFC22462B46FCF75DFE78A369
:10386000D3E90023FCF7A0FC22462B46FCF754FECC
:1038700075A3D3E90023FCF799FC22462B46FCF7FD
:103880004BFE73A3D3E90023FCF78EFC22462B46A4
:10389000FCF742FE70A3D3E90023FCF787FC224625
:1038A0002B46FCF739FE41EC180B714B00222046E9
:1038B0002946FCF731FE53EC182B804689462046FA
:1038C0002946FCF729FE52465B4604460D46304623
:1038D0003946FCF721FE02460B4620462946FCF7F6
:1038E00063FC02460B4640464946FCF75DFC024637
:1038F0000B4600205F49FCF757FCBDEC048B41EC04
:10390000100BBDE8F88F10EE102A10EE100A3B469F
:103910003946FCF701FE46A3D3E9002304460D46D1
:10392000FCF7FAFD44A3D3E90023FCF73FFC224651
:103930002B46FCF7F1FD42A3D3E90023FCF734FC4E
:1039400022462B46FCF7E8FD3FA3D3E90023FCF712
:103950002DFC22462B46FCF7DFFD3DA3D3E90023D7
:10396000FCF722FC22462B46FCF7D6FD3AA3D3E90E
:103970000023FCF71BFC2B462246FCF7CDFD3E4BFB
:10398000994541EC180B90DD3C4B99453CDC0022FD
:10399000A9F500133749002090469946FCF704FC2E
:1039A00041EC190B324B002220462946FCF7B4FDAE
:1039B00042464B46FCF7F8FB53EC182B80468946F1
:1039C00020462946FCF7A8FD52465B4604460D46B4
:1039D00030463946FCF7A0FD02460B4620462946F4
:1039E000FCF7E2FB02460B4640464946FCF7DCFB8F
:1039F00002460B4651EC190BFCF7D6FBBDEC048BD1
:103A000041EC100BBDE8F88F9FED157BDFF870904F
:103A1000B0EE479AF0EE679A4FF00008C2E7BDECAF
:103A2000048B9FED110BBDE8F88F00BFAFF3008052
:103A3000D43888BEE9FAA8BDC4B1B4BD9EEE213E1B
:103A4000AD529C804F7E923E9015CB19A001FA3E5C
:103A50007751C1166CC1563F4C5555555555A53F2C
:103A6000000000000000E73F000000000000F03F01
:103A70000000E03F0000F03F3233D33F0000E93F59
:103A80000000D23F000000002DE9F04FADF5197D98
:103A9000BB4CA29D089354F825400594013B12F1BC
:103AA000140F04900B910393C0F22683B549D31EE3
:103AB00081FB0301DB17C3EBA10307930133A3EBE6
:103AC0008303DB00D3180693079A039BD41A059A45
:103AD000D6181AD40136A39F4FF000084FF0000902
:103AE000264420AD08E057F82400FCF7ABFC013475
:103AF000B442E5E8020108D0002CF4DA0134404673
:103B00004946B442E5E80201F6D1059B002BC0F21C
:103B1000C883089BDDF80C90DA000292059A1A44DB
:103B20000192049A20A901EBC30A0DF5E07B02EB98
:103B3000C308039B002B4FF000044FF0000511DB7E
:103B4000049E574677E90223F6E80201FCF7E4FCFD
:103B500002460B4620462946FCF728FB464504460C
:103B60000D46EFD1019B09F101099945EBE80245AA
:103B70000AF1080ADDD1059A04980CA901EB820329
:103B800002990144083B8B460BA90993134601EBAC
:103B900082020A920193019A98A901EBC203002ABA
:103BA00053E928452ADD0DF5E07909EBC2080DF14E
:103BB000300A754B002220462946FCF7ADFCFCF785
:103BC00045FFFCF73FFC714B002206460F46FCF711
:103BD000A3FC02460B4620462946FCF7E5FAFCF713
:103BE00035FF044678E902234AF8044B304639464B
:103BF000FCF7DCFAC84504460D46DAD1DDF818902A
:103C000045EC104B484600F02FFC55EC104B0022C1
:103C10004FF07F5310EE100A2946FCF77DFC41EC73
:103C2000100BFEF749FB5A4B51EC100B0022FCF72E
:103C300073FC02460B4620462946FCF7B5FA0D46B2
:103C40000446FCF703FF8046FCF7FCFB0B460246EC
:103C500029462046FCF7A8FA4B46002B06460F469D
:103C600040F39880019A0CA9013AC9F1180351F860
:103C7000225045FA03F101FA03F3EB1AC9F11705D3
:103C80000CA843FA05F5002D40F82230884400F3D3
:103C90008B800022002330463946FCF7A5FE002821
:103CA00000F05682019B059A03F1FF3A524510DC61
:103CB00003F180430CAA013B0A9802EB8303002224
:103CC00053F80419834242EA0102F9D1002A40F074
:103CD000DC80059B0CAA013B52F82330002B40F0FE
:103CE000CF80099A012352F8041901330029FAD030
:103CF00001994A1CCB1802939146079B089902EB45
:103D0000030A019B0B44984620AB0AF1804A03EB5F
:103D1000C808A39B0AF1FF3A03EB8A0A70AB03EBD6
:103D2000C20301935AF8040FFCF78CFB0B4603996E
:103D300002460029C8E9002347464FF0000408F175
:103D400008084FF0000511DB049E01E077E902232B
:103D5000F6E80201FCF7E0FB02460B462046294646
:103D6000FCF724FA5E4504460D46EFD1019BE3E8DB
:103D700002450193029B09F101099945D2DD09E74A
:103D8000D4030400ABAAAA2A0000703E00007041D0
:103D9000000020406BD1019B0CAA013B52F823503C
:103DA000ED15002D7FF775AF019B002B08F1010881
:103DB00040F3CC810C9C002C51D1019B012B20D0D5
:103DC0000CAB012253F8044F002C4BD0531C0CA910
:103DD000C4F1807441F822400199994210DD0CAA87
:103DE0000CA852F8232000EB830300EB81006FF056
:103DF0007F4100E01A688A1A43F8042B8342F9D104
:103E00000124069B002B0EDD012B00F06A81022BA2
:103E100009D1019B5A1E0CAB0CA953F82230C3F3F5
:103E2000150341F82230022D7FF433AF32463B4672
:103E3000B9490020FCF7B8F906460F46002C3FF4BC
:103E400028AF06989FEDB00B00F00EFB30463946C8
:103E500053EC102BFCF7A8F906460F4619E701238F
:103E60000022B4E7019901328A42ABD1C9E7AB4BDA
:103E70000022FCF7D7FD002840F05681054608E7F0
:103E8000019B5A1C9146029237E70CAB069A53F8F5
:103E90002A30CDF81C80183A0395069273B9019B1D
:103EA00003F18043023B0CA901EB830353F804198F
:103EB0000AF1FF3A183A0029F8D006929FED920BCA
:103EC000069800F0D1FABAF1000F55EC104BC0F291
:103ED000DE8170AB03EBCA0B0CAA0AF10103069357
:103EE00002EB83084FEACA030BF10809049358F860
:103EF000040DFCF7A7FA22462B46FCF70DFB0646FD
:103F00000F46874B2046294669E902670022FCF7E5
:103F100003FB0CAB984504460D46E8D148ABCDE910
:103F2000013ADDF814A0BAF1000F4FF000092CDBC4
:103F300077A3D3E90023DFF8EC815F460024002556
:103F4000002603E0B14510DBF8E80223F7E80201A0
:103F5000FCF7E2FA02460B4620462946FCF726F912
:103F60000136B24504460D46ECDA019B029A03EB9A
:103F7000C9034A45C3E90045ABF1080B09F1010348
:103F800006D0BAF1000F9946D2DA00240025ECE7FA
:103F9000A29BDDF808A0022B1EDC002B00F30F8192
:103FA00013D1049C019D0834002000212C4474E9A5
:103FB0000223FCF7FBF8A542F9D1039B13B101F1F1
:103FC000004319460B9BC3E90001079B03F0070060
:103FD0000DF5197DBDE8F08FA29B032BF5D1BAF149
:103FE000000F00F07081019A049BD318D3E90045BB
:103FF00002EBCA0B7BE902672046294632463B4664
:10400000FCF7D4F8A046A94604460D4622462B46A6
:1040100030463946FCF7C8F84B464246FCF7C6F82E
:10402000019B5B45CBE90045CBE90201E2D1BAF146
:10403000010F40F34881019A049B0AF1005A0AF1EA
:10404000FF3A13444FEACA01D3E9004501F1080AD7
:10405000029192440DF5947B7AE902672046294645
:1040600032463B46FCF7A2F8A046A94604460D4658
:1040700022462B4630463946FCF796F842464B46D8
:10408000FCF794F8D345CAE90045CAE90201E3D137
:10409000029C019B0026002710341C4403F11005EC
:1040A0003046394674E90223FCF780F8A542F9D17D
:1040B00006460F46039B002B40F0BF80019A0B99E8
:1040C000D2E90045D2E90223C1E90223079B03F0AC
:1040D0000700C1E90467C1E900450DF5197DBDE898
:1040E000F08F019B5A1E0CAB0CA953F82230C3F37E
:1040F000160341F8223096E600216FF0170307916E
:10410000E0E400BFAFF30080000000000000F03FDB
:1041100000000040FB21F93F0000F03F0000E03FBD
:104120000000703E787A0100019B002B08F1010825
:10413000C8BF02253FF73EAE32463B4663490020EA
:10414000FCF732F8022506460F46A2E5002458E6A1
:10415000069B0395584247EC106BCDF81C8000F08D
:1041600083F955EC104B5A4B10EE100A00222946E9
:10417000FCF758FC002856D0564B00222046294612
:10418000FCF7CAF9FCF762FC0646FCF75BF9504BFA
:104190000022FCF7C1F90B46024629462046FCF7EF
:1041A00003F8FCF753FC069B019C183304F1010A49
:1041B00006930CAB43F8240043F82A607EE6019D89
:1041C000069A002005EBC204002174E90223FBF7E4
:1041D000EDFFA542F9D1039B002B48D10B9BC3E90E
:1041E00000010B4601990246D1E90001FBF7DCFF13
:1041F000BAF1000F0DDD4AAD0124F5E802230134C8
:10420000FBF7D4FFA245F8DA039B13B101F1004399
:1042100019460B9BC3E90201079B03F007000DF54C
:10422000197DBDE8F08F20462946FCF70FFC019B65
:104230000CAA9A4642F8230040E6019B19465A68A8
:10424000DB680D688C680B9903F10043CB60079B1A
:104250000D6002F100424A6003F0070007F10042DE
:104260008C600E614A610DF5197DBDE8F08F0B9CE5
:1042700001F10043C4E900030B4601990246D1E96C
:104280000001FBF791FFBAF1000FB4DCBEE7A29B7F
:10429000022B0ADC002B11DC7FF497AE00200021FA
:1042A0008BE6089BDB00029365E4A29B032B7FF463
:1042B0008CAE48AB002600270193FBE648AB0020FC
:1042C0000021019387E700260027F3E60000F03F76
:1042D000000070410000703E2DE9F04F55EC104B8E
:1042E00085B025F00043B3F1795F8DED001B03909D
:1042F00007DA10EE100A2946FCF7A8FB002800F0A8
:10430000898022462B4620462946FCF705F90646B9
:104310000F4632463B4620462946FCF7FDF843A3AC
:10432000D3E9002382468B4630463946FCF7F4F841
:1043300040A3D3E90023FBF737FF32463B46FCF7A7
:10434000EBF83EA3D3E90023FBF730FF32463B46B0
:10435000FCF7E2F83BA3D3E90023FBF725FF324645
:104360003B46FCF7D9F839A3D3E90023FBF71EFF3E
:10437000039B80468946ABB3DDE900012A4B00224E
:10438000FCF7CAF842464B46804689465046594695
:10439000FCF7C2F802460B4640464946FBF704FFCD
:1043A00032463B46FCF7B8F8DDE90023FBF7FCFE9C
:1043B0001BA3D3E9002306460F4650465946FCF797
:1043C000ABF802460B4630463946FBF7EFFE024695
:1043D0000B4620462946FBF7E7FE41EC100B05B0E3
:1043E000BDE8F08F02460B4630463946FCF794F89C
:1043F0000BA3D3E90023FBF7D7FE52465B46FCF73D
:104400008BF822462B46FBF7D1FE41EC100B05B092
:10441000BDE8F08F45EC104B05B0BDE8F08F00BF54
:10442000495555555555C53F0000E03F7CD5CF5AFD
:104430003AD9E53DEB9C2B8AE6E55A3E7DFEB15725
:10444000E31DC73ED561C119A0012A3FA6F810118E
:104450001111813F000000009FED010B704700BF6C
:10446000000000000000F87F38B553EC102BC3F3B8
:104470000A511C46054681BB10EE101A23F0004479
:10448000214329D0194600223D4B3E4C10EE100A24
:10449000FCF742F8A54202460B4616DB0C46C1F378
:1044A0000A513639294440F2FE70814221DC00294C
:1044B00047DC11F1350F34DA4CF250318D4218DC03
:1044C000002B27A1D1E9000144DB25A3D3E9002378
:1044D000FCF722F841EC100B38BD40F2FF7081422E
:1044E000E0D110EE100A1946FBF760FE41EC100B0C
:1044F00038BD002B1CA1D1E9000107DB1AA3D3E9C9
:104500000023FCF709F841EC100B38BD18A1D1E9E4
:10451000000115A3D3E90023FBF7FEFF41EC100BCC
:10452000F3E724F0FF4424F4E004363144EA015375
:10453000104619460022144BFBF7EEFF41EC100B1E
:1045400038BD24F0FF4424F4E00444EA015343EC72
:10455000102B38BD08A1D1E90001B6E7AFF3008008
:1045600059F3F8C21F6EA5019C7500883CE4377EA4
:104570009C7500883CE437FE59F3F8C21F6EA58194
:1045800000005043B03CFFFF0000903C00000000E2
:104590002DE9F04F2DED028B57EC106B95B0456A6D
:1045A000DDF880800591CDE90267044609920F93FA
:1045B0003DB910200BF060FEC0E901556062056056
:1045C000C560636A196851B15A684A600123934013
:1045D0008B60204612F037F8636A00221A603B1E97
:1045E000B9BF23F0004303930023C8F80030DDF87F
:1045F0000C90B74BBCBF0122C8F8002033EA090376
:104600001BD10F9A42F20F731360C9F313033343A4
:1046100000F07585219B63B9AE4B25E0AE4B00934E
:104620000833219A1360009815B0BDEC028BBDE8E9
:10463000F08FA84B00930333F3E79DED027B00223C
:1046400051EC170B00238DED0A7BFCF7CDF980466A
:1046500060B10F9A01231360219B002B00F04C8561
:104660009E4B219A1360013B0093DCE79DED0A0B02
:1046700012AA13A9204612F021FAC9F30A5582465C
:10468000002D7ED00B9BCDF84080C3F31303DDE9F2
:104690000A6743F07F5747F44017A5F2FF35904B68
:1046A000002230463946FBF77FFD83A3D3E9002380
:1046B000FBF732FF82A3D3E90023FBF777FD064621
:1046C00028460F46FBF7BEFE7FA3D3E90023FBF786
:1046D00023FF02460B4630463946FBF767FD064688
:1046E0000F46FCF7B3F900228146002330463946D5
:1046F000FCF784F948B14846FBF7A4FE32463B4636
:10470000FCF772F908B909F1FF39B9F1160F56D85B
:10471000744B03EBC903D3E90023DDE90A01FCF77D
:104720006DF900284DD009F1FF3900230E93129B3B
:104730005D1B6B1E049343BF0023C5F10108049366
:104740004FF00008B9F1000F3DDB049BCDF8349029
:104750004B44049300230693059B092B00F29A8097
:10476000052BC4BF043B0593059BA3F10203CCBFFB
:1047700000250125032B00F29980DFE803F02C7D52
:104780007B89DDE912531D4405F23243202BC1BF62
:10479000C3F1400305F2124009FA03F326FA00F0D0
:1047A000DABFC3F1200306FA03F01843FBF73AFE21
:1047B00001230646A1F1F877013D10936FE701232D
:1047C000B4E70E90B3E7C9F1000306930023A8EB0A
:1047D00009080D93C0E700230893099B002B00F301
:1047E00085804FF0010BCDF804B05B46CDF824B0C6
:1047F000666A00227260042202F114009842716815
:104800007AD9204611F0EBFE636A30601B68009392
:10481000019B0E2B00F2F580002D00F0F280B9F123
:10482000000F7DDD2F4A09F00F0302EBC30393ED68
:10483000007B19F4807F4FEA2917B0EE478AF0EE2B
:10484000678A5DD0284BDDE90A01D3E90823FBF72D
:104850008DFFCDE9020107F00F070325224E002F3F
:1048600050D1DDE9020153EC182BFBF77FFFCDE9B6
:1048700002016FE00123AFE700230893099B09EBD6
:10488000030B0BF10103012B0193B8BF0123AFE729
:104890000123F2E701250023059308954FF0FF3B24
:1048A0000022CDF804B012230992A1E70123089356
:1048B000F4E700BFAFF3008061436F63A787D23F87
:1048C000B3C8608B288AC63FFB799F501344D33FFF
:1048D0000000F07F176F04000E6F0400B066040044
:1048E0000000F83FE87A0100C07A0100DDF824B04A
:1048F000CDF804B05B467BE70131716052007BE785
:104900000225ABE7F90708D551EC180BD6E90023CF
:10491000FBF702FE41EC180B01357F1008369EE7CD
:1049200000F0AB80C9F10006AA4BAB4F06F00F02B6
:1049300003EBC203D3E90023DDE90A01FBF7ECFD39
:10494000CDE90201361100230225002E40F08A80B5
:10495000002B8CD10E9B002B00F09180DDE90267CB
:104960009E4B002230463946FCF748F8002800F0FC
:104970008680019B002B00F08280BBF1000F3CDDA4
:1049800009F1FF3307930022954B30463946FBF778
:10499000C3FDCDE902010135CDF830B0DDE9026794
:1049A0002846FBF74FFD32463B46FBF7B5FD8D4BE6
:1049B0000022FBF7FBFBA1F15073CDE90201039349
:1049C0000C9B002B60D1884B002230463946FBF708
:1049D000EBFBDDE9022306460F46FCF72DF8002825
:1049E00040F09982DDE90221304601F10043394669
:1049F000FCF704F8002840F08B82DDE90A23CDE9BA
:104A00000223139B002BC0F25B81B9F10E0F00F360
:104A10005781704B03EBC90393ED007B099BB0EE0C
:104A2000478AF0EE678A002B80F2E280019B002B20
:104A300000F3DE8040F06C826B4B51EC170B0022D0
:104A4000FBF76AFDDDE90223FBF7ECFF019E374629
:104A5000002840F04282009D312305F8013B09F116
:104A600001093EE2F20705D5D7E90023FBF754FD23
:104A7000013501237610083767E702256AE7019BB5
:104A8000CDF81C900C9389E700990C980C9A514B27
:104A90009DED027B014402910899B0EE478AF0EE49
:104AA000678A03EBC20353E90223002945D04F492B
:104AB0000020FBF75BFE53EC182BFBF775FB009D0A
:104AC00041EC180B39463046FBF7C0FF0C90FBF762
:104AD000B9FC02460B4630463946FBF765FB0C9B9A
:104AE000303305F8013B53EC182B06460F46FBF715
:104AF00085FF002865D132463B4638490020FBF748
:104B000053FB53EC182BFBF779FF002840F0B880DB
:104B1000029B9D423FF471AF314B51EC180B0022C8
:104B2000FBF7FAFC2E4B41EC180B002230463946BD
:104B3000FBF7F2FC06460F46C4E751EC170BFBF7F8
:104B4000EBFC029B009D0C9341EC180B3946304660
:104B5000FBF77CFF1190FBF775FC02460B463046D5
:104B60003946FBF721FB119B303305F8013B029BD3
:104B70009D4206460F464FF0000225D11B4B51ECDB
:104B8000180BFBF713FB02460B4630463946FBF782
:104B900053FF002874D153EC182B14490020FBF765
:104BA00003FB02460B4630463946FBF727FF002839
:104BB0003FF423AF0C9D6B1E0C9315F8013C302B7A
:104BC000F8D0DDF81C9049E0054BFBF7A5FC064644
:104BD0000F46BBE7E87A0100C07A01000000F03F11
:104BE0000000244000001C40000014400000E03F92
:104BF000DDE90267009D53EC182B30463946FBF780
:104C0000B5FDFBF723FF8046FBF71CFC53EC182B8C
:104C1000FBF782FC02460B463046394608F1300667
:104C2000FBF7C2FA05F8016B009E019FAE1BB7426D
:104C300002460B4637D1FBF7B9FA53EC182B064660
:104C40000F46FBF7F9FEC8B953EC182B304639462E
:104C5000FBF7CAFE10B118F0010F0FD120465146E4
:104C600011F0F1FC00232B700F9B09F1010018607B
:104C7000219B002B3FF4D7AC1D60D4E4CDF81C90F1
:104C80002B461D4613F8012D392A08D1009A9A4265
:104C9000F7D1079A00990132079230220A701A78E8
:104CA00001321A708DE79E4B0022FBF735FC002283
:104CB000002306460F46FBF797FE00289BD0CDE762
:104CC000089A002A00F0C680059A012A00F3AA80FB
:104CD000109A002A00F0A28003F23343069E454654
:104CE000049A01211A4420469844049211F050FD80
:104CF0000746002D0BDD049B002B08DDAB42049A18
:104D0000A8BF2B46A8EB0308ED1AD31A0493069B01
:104D1000FBB1089B002B00F0A180002E11DD39466D
:104D2000324620460CF096FB524601460746204686
:104D300011F037FD51460790204611F084FC079B87
:104D40009A46069B9A1B04D0514620460CF082FBE3
:104D500082460121204611F01BFD0D9B002B0646CB
:104D60007EDD1A46014620460CF074FB059B012BA4
:104D7000064678DD00230693336906EB8303186942
:104D800011F0B6FCC0F12000049B184410F01F0085
:104D900000F08880C0F12003042B40F38180C0F133
:104DA0001C00049B0344804405440493B8F1000FA5
:104DB00005DD51464246204611F08FFD8246049B98
:104DC000002B05DD31461A46204611F086FD0646C9
:104DD0000E9B002B68D03146504611F0DDFD0028B7
:104DE00062DA002351460A22204611F043FC089B58
:104DF00009F1FF398246002B00F0888139460023F3
:104E00000A22204611F036FCBBF1000F074600F3E2
:104E10008F80059B022B40F38B804DE0129BC3F1EA
:104E200036035BE7019B5E1E069BB342BFBF069B3A
:104E30000696F21A0D9BB6BF9B189E1B0D93019B05
:104E4000B8BF0026002BB5BFA8EB0305019B0023CC
:104E5000454645E7069E089F45464AE7069A73E79A
:104E6000059B012B18DC029BB3B9039BC3F313030F
:104E7000A3B9039B23F000431B0D1B052BB1049B1F
:104E80000133049308F10108012306930D9B002BC5
:104E90007FF472AF012077E70023F6E7029BF4E787
:104EA00084D018461C307CE7019B002B3ADC059B24
:104EB000022B37DDDDF804B0BBF1000F0DD1314618
:104EC0005B460522204611F0D5FB014606465046BA
:104ED00011F062FD00283FF7BEAD099B009D6FEA0F
:104EE00003094FF000083146204611F0ACFB002FBB
:104EF0003FF4B4AEB8F1000F05D0B84503D0414639
:104F0000204611F0A0FB3946204611F09CFBA5E697
:104F100000263746E1E70C9EDDF81C9037469AE5FF
:104F200000002440089BDDF804B0002B00F0F58061
:104F3000002D05DD39462A46204611F0CEFC0746F5
:104F4000069B002B55D07968204611F048FB3A6942
:104F500002320546920007F10C010C3011F07BF88B
:104F600001222946204611F0B8FC009B0133019331
:104F7000009B5B440793029B03F00103B846069332
:104F80000746019B3146504603F1FF3B11F043FABF
:104F900003463033029041465046089311F0FCFC22
:104FA0003A4604903146204611F012FDC268089B33
:104FB000054602BB0146504611F0EEFC089B024636
:104FC00029462046CDE9083211F03DFB059B099AA0
:104FD000019D43EA0201069B0B43089B0DD1392B2F
:104FE00027D0049A002A01DD029B31338BF8003070
:104FF00079E73846B9E70122E2E70499002904DBA2
:10500000059801430698014320D1002AEEDD514660
:1050100001222046019311F060FC3146824611F0D6
:10502000BBFC0028019B02DCE0D1DA07DED5392B7E
:10503000DAD139238BF800302B461D46013B15F899
:10504000012C392A50D001321A704CE7002A03DDB6
:10505000392BEED00133C9E7019A079902F8013CD8
:105060008A422AD0514600230A22204611F002FB30
:10507000B84582464FF000034FF00A0241462046F1
:1050800007D111F0F7FA80460746019B01330193DF
:1050900077E711F0EFFA3946804600230A222046CE
:1050A00011F0E8FA0746F0E7BBF1000F009ACCBF19
:1050B0005D46012515444FF0000851460122204667
:1050C000019311F00AFC3146824611F065FC00287C
:1050D000B2DC02D1019BDB07AED42B461D4613F890
:1050E000012D302AFAD0FEE6009A9A42A5D131234A
:1050F00009F101091370F6E6124BFFF7B5BA219BCF
:10510000002B7FF48BAA104BFFF7AEBABBF1000F58
:1051100003DC059B022B3FF7CFAE009D3146504686
:1051200011F079F900F1300305F8013B009AAA1A51
:105130009345B9DD514600230A22204611F09AFA20
:105140008246EBE7AF6604000E6F04002DE9F04FD6
:105150002DED088B89B01646DDE91A250F46D2F8E9
:1051600004A0116803910AFB01F9BAF1010F06FBD3
:1051700003F1044600EBC9094FEAC10816D1034602
:1051800097E8030083E80300083399454744F7D1C3
:1051900005F584730593039B023B032B00F2828287
:1051A000DFE813F01B005600F90096010832049264
:1051B000039A4FEACA0B724304990091019539464C
:1051C000CDE906230590FFF7C1FF059858448145B6
:1051D000DDE906234744EFD1DAE70AF1010304EBE6
:1051E000C303F6000834D5ED436A53ED015AD5EDFB
:1051F000427A13ED026A26EEE57ABAF1010AA6EECA
:10520000277A03F1080304F1080467EEA57A354410
:10521000E6EE267A54ED046A76EEC76A43ED046A38
:1052200054ED036A76EEE76A43ED036A54ED046ACF
:1052300036EE877A04ED047A14ED037A77EE277A56
:1052400044ED037ACFD109B0BDEC088BBDE8F08FF7
:1052500006FB0AF305EBC30393ED439A04EBCA087C
:10526000330104EB0A194FEAC60B04F10806444661
:10527000574603930434AA46F1EE499AD8ED017AD1
:10528000D5ED436A14ED016A95ED428AD9ED015AD4
:1052900056F8080C66EEE78A0836B0EE687AA6EE95
:1052A000087A08F108085D4428EE278A09F1080900
:1052B000F0EE487AE6EE267A0834DAED436A19ED24
:1052C000026A9AED428A66EEE58AE6EE088A28EEE0
:1052D000258A77EE28AAA6EE268A77EE688A37EE28
:1052E00088AA37EEC88AFBF7BFF841EC1B0B1AEE11
:1052F000900AFBF7B9F8EA4B0022FBF70DF90246DA
:105300000B4651EC1B0BFAF74FFFFBF7C7FB44F8BA
:105310000C0C56F80C0CFBF7A7F841EC1B0B1AEE23
:10532000100AFBF7A1F8DE4B0022FBF7F5F80B465D
:10533000024651EC1B0BFAF737FFFBF7AFFB48F8BF
:10534000040C56ED047A77EEAA7A013F46ED047A12
:1053500056ED037A77EE8A7A46ED037A54ED037AB6
:10536000E9EE087A49ED027A58ED017AE9EEA87A79
:1053700049ED017A54ED037AE9EE887A44ED037A37
:1053800058ED017AE9EE287A48ED017A039B9A44B8
:105390007FF474AF57E7574618224FEAC60A4FEA20
:1053A000061904EB071056436A6804EBC70100EBCB
:1053B000C70304F1040CAE46A846D1ED016AD5ED51
:1053C000437A91ED006A95ED427AD0ED014AD3ED32
:1053D000013A93ED004A1CED013A67EEE65AE6EE1B
:1053E000075A27EE267AB0EE655AA6EE277AD0ED58
:1053F000005AD8ED427AF0EE476A98ED437A27EEEC
:10540000646AA5EEA76A67EEA47ADEED434AE5EE8C
:10541000877A9EED427A64EEE35AE4EE075A27EE6D
:10542000237AD4ED013AA4EE247A33EE464A73EEA1
:10543000E74A36EE036A77EEA37A35EE253A76EE42
:10544000873A0CED016AC4ED017A36EE436A77EED5
:10545000E37A80ED006AC0ED017A36EEC77A5CED42
:10546000016A76EE836A75EE655A4CED016AD4EDF9
:10547000017A77EEA37A74EE076AC4ED017A34EE0E
:10548000477A74EEE57A74EEA55AC2B181ED007ADE
:10549000C1ED015AC3ED006AC3ED017A013F04F189
:1054A000080401F10801554400F10800C84403F163
:1054B0000803B6440CF1080C7FF47FAFC3E6C1EDDE
:1054C000006AC1ED017A83ED007AC3ED015AE5E788
:1054D000059A0AFB06F302EBC307F200D7ED012A97
:1054E00003921822724397ED002A049207EBC30738
:1054F00004EB0A13D7ED001A97ED013A4FEA061BA9
:1055000004EBCA0703EBCA0103EB0A107601AC46B1
:10551000AE46A8464FF00009B1EE621ACA4504F142
:10552000080407F1080703F1080301F1080100F17D
:1055300008007FF788AED5ED436A57ED013AD5ED07
:10554000425A17ED026AD8ED424A13ED025A50ED65
:10555000028A14ED027A54ED017A039A26EEE34AA8
:105560001544A6EE254A049A65EEA35AB0EE448A85
:10557000E6EE265A09F1010953ED016A11ED024ADE
:10558000F0EE653AD8ED435A25EEE66A64EEA66A77
:10559000A5EE246AD844E5EE256ADEED435A9EED79
:1055A000425AF0EE664A51ED016AB0EE460A25EE27
:1055B000E66A9644A4EE056A25EE265ADCED436AB7
:1055C000A4EE255A50ED015A9CED424A66EEE50ADA
:1055D00064EE255AE8EE840AB44470EE069A38EE7A
:1055E000209AE8EEA65A38EE604A74EEC56A34EEA8
:1055F000858A39EE295A73EEA58A35EE075AF0EE00
:10560000474A04ED025A38EE885AE2EE094A35EE6E
:10561000275A30EE466A04ED015AB0EE675A73EE2F
:10562000E55A63EE260AA2EE285AA1EE897AE2EE46
:10563000A50AE1EEA94A66EE433AE1EEA87A65EEE4
:10564000C35AA1EE885AE2EEA65AE1EE043AA2EE5F
:10565000297A66EE626A34EEE00AE2EE087AE3EE58
:10566000046A07ED020A37EE256A35EE630A74EE26
:10567000A04A35EE235A07ED010A37EE657A40ED70
:10568000024A00ED015A03ED026A37EEA66A77EE90
:10569000E67A03ED016A01ED027A41ED017A3DE718
:1056A0000000E03F2B680493039B4FEAC30B58466E
:1056B0000CF0ACFA4FEACA0207924FF0000C0AFB5A
:1056C00006F20346069283446546AA4551DDAE467E
:1056D00000220399914238DC04EBC502E6464FF004
:1056E00000080399414541DD93E8030082E8030087
:1056F00003F108000021584531D0049F90ED015A74
:10570000D0ED005A71448F42D8BFC91B059F07EBEB
:10571000C10999ED016AD9ED007A26EE457A083083
:10572000A5EEA77A67EE857AF0EE476A92ED007AE9
:10573000E5EE867A37EE267A82ED007A92ED017AEE
:1057400077EE277AC2ED017AD5E704EBCE0103C9E3
:1057500003EBC20888E80300D6440132B9E7079991
:105760000A44069908F101088E44BAE70135B444A9
:10577000ABE7184609B0BDEC088BBDE8F04F0CF064
:1057800049BA00BF03685B68F7B50646144623B103
:105790003348019100F066F8019930687268056835
:1057A0000CF01CFA7368D3ED007A93ED017A04EBE8
:1057B000C50277EE876A77EEC77A002105EBD57CC4
:1057C000C4ED006A4FEA6C0CC2ED007A03EBC5052C
:1057D0006160B6EE006A516001218C453EDBC80075
:1057E000A0F10807B068D3ED035A55ED024AD3ED96
:1057F000026A55ED017A384434EEA67A35EEE75A5E
:1058000076EEE46A77EEA57AD0ED014A90ED004A93
:1058100064EEE75A67EE847AE6EE845A0131083383
:10582000E6EEA47A083D083477EE256A37EE657A0D
:1058300066EE866A27EE067AC4ED006A77EE856A20
:1058400077EEC57A66EE866A67EE867AC4ED016AFF
:10585000083A82ED007AC2ED017ABEE703B0F0BDEE
:10586000CD5904000FB407B504AB094853F8042B15
:1058700001934FF480610BF04DFB002803DD0449D8
:1058800004480BF03FFA03B05DF804EB04B0704736
:10589000741A0020F359040010B510EE100AFAF73C
:1058A000E3FDBDE8104002460B4601480BF02ABA62
:1058B000F659040037B5002305460C46002251EC8A
:1058C000100B8DED000BFBF78FF89DED000B20B159
:1058D00000232B60236003B030BD204609F05EFF3B
:1058E000154B002251EC100BFAF716FE41EC100B91
:1058F00009F08AFF51EC100BFBF788F902464FF0D4
:1059000000400B4690424FF0000171EB030C01DAAE
:1059100010F09AFB8B4201BF82422368013323605F
:10592000216808BF4FF080421F31BEBF0023002214
:1059300023602A60CFE700BF0000E04137B50C4B81
:1059400005460C46002251EC100B8DED000BFBF7C9
:1059500073F89DED000B08B910F076FB2146284640
:10596000FFF7A8FF2368002BF6DB03B030BD00BFB4
:105970000000F03FD1ED037A92ED037A67EE877A6B
:1059800073B5F5EEC07AF1EE10FA1E460ADA0F4B47
:10599000009344690E4A0F4940F25113A047012079
:1059A00002B070BD17EE900AFAF75EFD0446F0688B
:1059B0000D46FAF759FD0B46024629462046FAF7EE
:1059C000D5FE069BC3E900010020E9E77F5A0400E9
:1059D000F9590400685A0400F0B51D46137885B0E3
:1059E000032B0A9F0ED0092B1FD0072B21D0264B4B
:1059F00000934469254A26494FF4C273A047012009
:105A000005B0F0BDFF2400261369D2680292012977
:105A1000039312D19FED1F0A02A80CF03EF98642B3
:105A2000ACBF2E6028603C601BE07F246FF07F06D7
:105A3000EAE7194E47F6FF74E6E7032913D19FED15
:105A4000150A02A80CF029F9B1EE080A8642ACBF8B
:105A50002E60286002A80CF020F98442D4BF3C607C
:105A600038600020CCE702290BD1BFEE000A02A863
:105A70000CF013F9B7EE000A8642ACBF2E60286026
:105A8000E8E72E60CFE700BFBA5A0400F9590400D6
:105A9000685A0400000000000080FFFF2DE9F04F6D
:105AA00091F830702DED048B012F09EE103A8BB078
:105AB00004468A46154611D00126754B0193CDE95F
:105AC0000276744B00934469734A7449E023A047FB
:105AD00030460BB0BDEC048BBDE8F08F92F830601F
