:10000000C01300208116000065480000551600004E
:10001000551600005516000055160000000000009F
:100020000000000000000000000000006913000054
:1000300055160000000000001513000055160000C2
:1000400019140000191400001914000019140000FC
:1000500019140000191400001914000019140000EC
:1000600019140000191400001914000019140000DC
:1000700019140000191400001914000019140000CC
:1000800019140000191400001914000019140000BC
:1000900019140000191400001914000019140000AC
:1000A000191400001914000019140000191400009C
:1000B000191400001914000019140000191400008C
:1000C000191400001914000019140000191400007C
:1000D000191400001914000019140000191400006C
:1000E000191400001914000019140000191400005C
:1000F000191400001914000019140000191400004C
:1001000053B94AB9002908BF00281CBF4FF0FF317E
:100110004FF0FF3000F074B9ADF1080C6DE904CE7A
:1001200000F006F8DDF804E0DDE9022304B07047D2
:100130002DE9F047089E0D4604468846002B4DD118
:100140008A42944668D9B2FA82F252B101FA02F3B5
:10015000C2F1200120FA01F10CFA02FC41EA030885
:1001600094404FEA1C45210CB8FBF5FE1FFA8CF7B2
:1001700005FB1E8341EA03430EFB07F199420BD9AD
:100180001CEB03030EF1FF3080F01E81994240F218
:100190001B81AEF1020E63445B1AA4B2B3FBF5F00F
:1001A00005FB103344EA034400FB07F7A7420AD9D2
:1001B0001CEB040400F1FF3380F00881A74240F2F9
:1001C000058164440238E41B40EA0E4000211EB160
:1001D000D4400023C6E90043BDE8F0878B4208D92C
:1001E000002E00F0EE800021C6E900050846BDE8BB
:1001F000F087B3FA83F100294AD1AB4202D382429D
:1002000000F2F980841A65EB030301209846002E62
:10021000E2D0C6E90048DFE702B9FFDEB2FA82F2B7
:10022000002A40F09180A1EB0C054FEA1C471FFA11
:100230008CFE0121B5FBF7F307FB1350250C45EAB3
:1002400000450EFB03F0A84208D91CEB050503F19D
:10025000FF3802D2A84200F2CB8043462D1AA4B246
:10026000B5FBF7F007FB105544EA05440EFB00FE12
:10027000A64508D91CEB040400F1FF3502D2A645BF
:1002800000F2BB802846A4EB0E0440EA03409EE740
:10029000C1F120078B4022FA07FC4CEA030C20FA3C
:1002A00007F405FA01F31C43FD404FEA1C4900FA2C
:1002B00001F3B5FBF9F8200C1FFA8CFE09FB185569
:1002C00040EA054508FB0EF0A84202FA01F20BD9FC
:1002D0001CEB050508F1FF3A80F08880A84240F247
:1002E0008580A8F1020865442D1AA4B2B5FBF9F087
:1002F00009FB105544EA054500FB0EFEAE4508D942
:100300001CEB050500F1FF346CD2AE456AD902380A
:10031000654440EA0840A0FB0294A5EB0E05A54207
:10032000C846A64656D353D05EB1B3EB080265EB80
:100330000E0505FA07F722FA01F3CD401F43C6E97F
:1003400000750021BDE8F087C2F1200320FA03F117
:100350000CFA02FC25FA03F395400D434FEA1C47C3
:100360001FFA8CFEB3FBF7F107FB11302B0C43EAAD
:10037000004301FB0EF0984204FA02F408D91CEB8A
:10038000030301F1FF382FD298422DD9023963447B
:100390001B1AADB2B3FBF7F007FB103345EA034578
:1003A00000FB0EF3AB4208D91CEB050500F1FF384A
:1003B00016D2AB4214D902386544ED1A40EA014125
:1003C00038E73146304607E78646E5E61846FAE65E
:1003D0004B45A9D2B9EB020864EB0C0E0138A3E738
:1003E0004046EAE7204694E74146D1E7D0467BE71E
:1003F000023B654432E7084609E76444023842E7B5
:10040000704700BF0149024804F0FFB89C54000047
:10041000B05400000B6801330B60014B1B68184798
:1004200000000020014B1860704700BF0000002052
:1004300007B50B46002102460191034801A900F0CF
:10044000E5F803B05DF804FB150400002DE9F84F52
:10045000B0F8189019F00808044693460DD0012909
:100460000CBF49F0100949F02009A0F818908BF34F
:100470001188BFF36F8FBDE8F88F09F007090229D3
:1004800007D1204604F0CEF80028F0D00128238BB5
:100490004ED16769218B002F15DA256821F00701FD
:1004A000C4E9008841F0010121830026218B01F07D
:1004B000070ACA4502D0A368002B5AD10DB9002EF5
:1004C00071D0002356E001F007035A1F012A1ED8FD
:1004D00021F00701062B256889B2C4E900880AD1FA
:1004E0003DB1638B2A46126801339BB2002AFAD1D0
:1004F000638341F002012183204604F093F806460D
:100500000028D3D0238B43F020032383CDE7042B93
:100510000CD121F0070189B22183204604F082F832
:1005200005460028C1D041F0200121830025BCE709
:10053000032809D1226923F00703166843F0060354
:10054000238300252F46B1E7042806D1226923F032
:100550000703566843F00403F2E7052806D1226931
:1005600023F00703966843F00503E9E700252E46CC
:10057000E8E7012341F0080121838BF31188BFF3E1
:100580006F8FFBB985BB16B11F492046B0474FF0AE
:100590002003EFF3118B83F31288BFF36F8F238B4C
:1005A00023F008032383238BDA0625D523F01003D9
:1005B00023830121B4F8189009F0070900297FF47A
:1005C0005EAF54E7A1680029DCD0D1F80090D1F8E3
:1005D00004B03B4652462046D847B9F1000FD1D06F
:1005E0004946D9F80090F2E729463B465246204654
:1005F0002D6804F033F8C5E713F020011EBF23F087
:10060000200323830221D5E7894600002DE9F04F1E
:1006100091B08B46029092461C4600259AF8000045
:1006200008B928465FE325280AF1010707D0029B95
:10063000594698470028C0F25683013512E2182225
:1006400000210AA804F03AF99AF80130252B78D055
:1006500000221046964694461646394617F8013B46
:100660002B2B00F09D8000F29480202B00F09B80CB
:10067000232B00F09B802EB19DF8306046F00406DD
:100680008DF83060BCF1000F05D09DF8306046F069
:1006900008068DF83060BEF1000F05D09DF830607F
:1006A00046F010068DF8306028B19DF8300040F01B
:1006B00020008DF830002AB19DF8302042F0400231
:1006C0008DF830209DF8302002F04400442803D1FA
:1006D0006FF386128DF830209DF830202A2B42F0DF
:1006E00080028DF830207BD19DF8312042F001024C
:1006F0004B1C8DF831201A782E2A9DF831200CBF22
:100700000121002161F341028DF8312074D15A7822
:100710002A2A6AD0013300210A26184610F8012B34
:10072000A2F13007092F40F28E809DF830200E9103
:10073000C2F3400040EAD17161F341028DF83020EC
:100740005AE00AF102078DF833309DF83130D907AD
:1007500040F1498154F8049BB9F1000F07DA9DF884
:10076000302042F004028DF83020C9F100095A0708
:1007700040F1428154F8048BB8F1000F80F24181BE
:100780009DF831306FF341038DF831304FF0FF3871
:1007900037E12D2B0CD0302B7FF46DAF01225CE7BD
:1007A0004FF0010C59E74FF0010E56E7012054E7D6
:1007B000012652E70CFB0202303A33461E4616F879
:1007C000010BA0F13007092FF4D9994293D09DF87D
:1007D00030100D92D20F62F341018DF830108AE78C
:1007E0000B4600224FF00A0CE8E79DF8312042F05A
:1007F00004028DF8312002331F4617F8012B6C2AB2
:1008000041D025D8682A2BD06A2A46D04C2A4CD011
:100810001F4617F8012B9DF831308DF83320782AC8
:1008200000F2D980572A4DD8412A03D0453A022AEE
:1008300000F2D1809DF83230042262F302038DF879
:10084000323001239EE006FB01213039034664E784
:10085000742A26D07A2ADBD19DF8313006220DE0A9
:100860005A78682A9DF8312006D1012161F3C60229
:100870008DF831209F1CCCE71346022262F3C60399
:100880008DF83130C5E75A786C2A9DF8312001D1B6
:100890000421EBE713460322F0E79DF831300522EF
:1008A000ECE79DF831300722E8E7BDF8303023F45B
:1008B000F04323F0020343F4804343F00203ADF816
:1008C0003030A6E7A2F15801202900F2848001A06F
:1008D00050F821F099090000D7090000D70900005D
:1008E000D7090000D7090000D7090000D709000088
:1008F000D7090000D709000035080000D70900001B
:100900009909000059090000350800003508000069
:1009100035080000D709000059090000D709000078
:10092000D7090000D7090000D7090000A10900007D
:1009300099090000BD090000D7090000D70900008F
:10094000BD090000D709000099090000D70900007F
:10095000D7090000990900009DF83210012003F02A
:10096000780360F30201402B8DF8321002BF9DF82E
:10097000301041F001018DF83010632A31D1003B75
:1009800018BF01239DF83020C2F340010B4363F3ED
:1009900041028DF83020D8E69DF832100220DEE7C3
:1009A0009DF8322003F07803A3F14000032161F3A6
:1009B000020243428DF832204341E3E79DF83220A2
:1009C000032113F0780F61F302028DF8322014BF77
:1009D00001230023D6E79DF8303043F001038DF862
:1009E00030300023CEE79DF93020002AB4BFDDF877
:1009F00034904FF0FF39BAE69B077FF5C7AEDDF8BC
:100A000038809DF831100023CDE90D339DF8323048
:100A100003F00703012BC1F3C30138D1CB1E042B14
:100A200022D8DFE803F003090921210054F8043B30
:100A3000DA17CDE90A3206E0073424F00704F4E8B7
:100A40000223CDE90A239DF8303013F0030656D077
:100A500002983B465246594603F0DFFE0028C0F29A
:100A600042810544BA46D9E554F8043B01294FEACE
:100A7000E372CDE90A3205D19DF828300A930023AC
:100A80000B93E0E70229DED1BDF92830D0E7022B35
:100A900023D1CB1E042B13D8DFE803F0030A0A127C
:100AA000120022680A920023201D0B930446CAE715
:100AB000E01D20F00700F0E80223CDE90A23F5E766
:100AC00054F8043B0A9301294FF000030B93D3D051
:100AD0000229B8D1BDF82830D0E7042B09D1E31D95
:100AE00023F0070303F10804D3E90023CDE90A2327
:100AF000A9E7032B04BF54F8043B0A93A3E79DF82E
:100B000033007828AED8622822D825283FF48FAD4C
:100B10005828A7D10DF126030093DDE90A0104ABA3
:100B20000CAA03F034FE8246B8F1000F0DF1260046
:100B30000CDB9DF83020A0EB0A036FF3861298457A
:100B40008DF8302002D9A8EB03030D9380463DE0D9
:100B50006338152886D801A252F820F0DD0B00007A
:100B6000410C0000650A0000650A0000650A0000EB
:100B7000650A0000410C0000650A0000650A0000DB
:100B8000650A0000650A00009B0C0000690C00006B
:100B90006D0C0000650A0000650A0000B50B00003E
:100BA000650A0000690C0000650A0000650A000083
:100BB000690C0000B8F1000FDDF828A00ADB4146FF
:100BC000504603F067FE0AEB00080026BAF1000F5A
:100BD0000CD147E7504603F056FEF4E70A9B8DF828
:100BE000103000260DF1100A0DF11108A8EB0A03D0
:100BF00006B101339DF83220D00668D50233520683
:100C00000D9948BF0E9A0B4448BF9B18B9F1000FCD
:100C100076DD9DF83020A9EB0309C2F3800303932E
:100C200053076DD4500661D546B1029B59463046F4
:100C30009847002857DB039B01351E46302356E0BA
:100C40001E070FD413F0100618BF2026DDE90A2373
:100C5000002BBFF65FAF524263EB4303CDE90A239B
:100C60002D2657E72B26F1E7002653E70A9840B3D5
:100C70000DF1260300930CAA04AB002103F087FDBD
:100C8000BDF8323003F0EF0343F4F04343F01003B8
:100C90008246ADF83230002646E70A9B07293FF628
:100CA000E1AEDFE801F00C04060C08080C0C1D7026
:100CB000D8E61D80D6E6EA17C3E90052D2E61D60E9
:100CC000D0E6DFF8C8A006460AF105088EE711074E
:100CD00048BF013393E7184603935946029B984750
:100CE0000028039B04DA11B0BDE8F08F20234D44A7
:100CF0004A46002AA5EB090109F1FF39EBDC0D4654
:100D000036B1029B5946304698470028EBDB013547
:100D10009DF83230D90601D41A0706D5029B5946F0
:100D2000302098470028DEDB01359DF83230DB06A5
:100D300007D59DF83300029B594698470028D2DB1F
:100D400001350D9E2E44731B002B16DC0298434682
:100D50005246594603F061FD0028C4DB0544A9440E
:100D6000A9EB0503002B7FF77DAE029B594620209F
:100D700098470028B7DB0135F2E7029B594630203F
:100D800098470028AFDB0135DDE700BFC154000004
:100D900008B54FF02002EFF3118382F31288BFF3FE
:100DA0006F8F00F0E9FD034803F02FFC00F02AFAF2
:100DB000FCE700BFC75400002DE9F84305464FF09B
:100DC0002003EFF3118683F31288BFF36F8F0E4B6E
:100DD0001C689CB10D4FDFF838804FF00C09D4E946
:100DE0000132002D08BF13462BB198F8142009FBDF
:100DF00002F2B85C98472468002CF0D186F3118881
:100E0000BFF36F8FBDE8F883F802002000030020D5
:100E10009C0900204209012300F01F0003FA00F0A2
:100E2000074BBFF35B8FC04303EB820353E8002FF4
:100E3000024043E800210029F8D1BFF35B8F7047DF
:100E40000C03002038B51A4B1C7DBFF35B8F04F0F8
:100E50001F0301229A40174B6109D04303EB810322
:100E600053E8001F01EA000543E8005CBCF1000FF5
:100E7000F6D1BFF35B8F114213D00F4B0F4D8BB1E7
:100E80000C236343EA18E85C517803F02FFD00203F
:100E9000FFF792FF0C235C432A1900232B51C2E970
:100EA000013338BD83F31188BFF36F8FEFE700BFC5
:100EB0009C09002010030020ED48000000030020E2
:100EC0002DE9F843324B334A1C7DBFF35B8F630936
:100ED0004FEA830952F823302F4EBFF35B8F04F0A3
:100EE0001F0843FA08F313F0010F07460AD1014621
:100EF000204600F071F828B107C80C2303FB0463F7
:100F000083E807000C236343F218F55C2DB92046F3
:100F1000FFF780FF2846BDE8F8837B1C0FD0D2F88E
:100F200008C01E481E4A4FF4004500210023ECFB78
:100F30000501FFF7E5F80121381A04F064F802F022
:100F400015FD0120FFF738FFBFF35B8F012303FA84
:100F500008F8144B994459E8003F43EA080349E86C
:100F60000032002AF7D1BFF35B8F0F4B33B10C2354
:100F70006343F218F05C517803F0ACFCFFF762FFBA
:100F80002046FFF747FF02F0BFFE0120C3E700BF86
:100F90009C0900200C030020000300203F420F00AA
:100FA00040420F0010030020D5480000054BBFF35E
:100FB0005B8F53F82000BFF35B8FB0FA80F04009DD
:100FC000704700BF1403002008B9024B0B600020DB
:100FD000704700BFD85200002DE9F04F85B00E4693
:100FE00003A9FFF7F1FFDFF874A0DFF87480441E57
:100FF00024B24FF400474FF00009631C04D10025D0
:10100000284605B0BDE8F08F039A04EB440302EBD9
:10101000830512F82300FFF7C9FFE0B168684FF0BD
:10102000000BD4465946E0FB07C142464B4660469A
:10103000FFF766F80190A868D4465946E0FB07C15F
:1010400042464B466046FFF75BF8721CD8D0019BC6
:101050001844B042D4D9013C24B2CEE73F420F003D
:1010600040420F00014803F01DB900BFD8520000F4
:1010700010B5044618B90D4B0D485B689847616878
:1010800008290DD031F004030AD011F0020108D074
:101090000848214603F0AAFE002323600023636072
:1010A00010BD2068142203F009FCF7E7DC000020E3
:1010B000F05400003003002008B508B34368042B47
:1010C00010D101220368BFF35B8F53E8001F002992
:1010D00003D143E800200028F7D1BFF35B8F0BD189
:1010E000002008BD53B100684FF0FF324FF0FF33CE
:1010F00002F0E2FA0028F3D00348F2E70348F0E7F1
:101100006FF4E040EDE700BFE98FFFFFEA8FFFFFDC
:1011100008B5D0B14368042B11D100220368BFF396
:101120005B8F53E8001F012903D143E8002000280A
:10113000F7D1BFF35B8F074808BF104608BD3BB12E
:10114000006802F031FB0020F8E76FF4E040F5E7BB
:101150000148F3E7E98FFFFFEA8FFFFF10B5044670
:1011600018B9164B16485B6898476368042B23D060
:10117000082B21D0CBB92368BBB912484FF0FF32FE
:101180004FF0FF33214602F0BFF908B923681BB9BD
:101190000A4B0D485B68984720681422002103F031
:1011A0008DFB636843F002036360206803F05CFE1C
:1011B000636843F00103636010BD00BFDC000020E2
:1011C000F0540000300300201655000008B5064911
:1011D00006484023142203F0EEFDBDE80840044910
:1011E000044803F0C1B800BF4C03002030030020C6
:1011F000F0520000E0520000014910220A607047DE
:1012000010ED00E072B6404080F31188BFF36F8F9D
:10121000BFF34F8F30BF62B6BFF36F8F704700BF11
:1012200072B6494081F3118820BF80F3118862B6FD
:10123000704700BF43B2002B08DB012200F01F0003
:1012400002FA00F05B09024A42F82300704700BF2F
:1012500000E100E0054B420900F01F0053F8222096
:10126000012303FA00F01040704700BF00E100E0E6
:1012700043B2002BA8BF03F1604301F10101B8BFE5
:10128000064B4FEA4111ACBF03F5614300F00F007C
:10129000C9B2B4BF195483F80013704714ED00E0CD
:1012A00030BFFFF7FDBF00BF0B4A08B50B4B22F064
:1012B0007F029A60BFF34F8FBFF36F8FD3F8882000
:1012C00022F47002C3F8882002F04EF802F03EFECD
:1012D00000F0CAF902F08CF80000000000ED00E018
:1012E000094A0A49936809689967094958674B6828
:1012F00043F080534B60002383F31188BFF36F8F5B
:101300009368986F704700BF9C090020105400003C
:1013100000ED00E012498A684FF030001044EFF30E
:10132000098C80E8F01F202080F31288BFF36F8FB4
:101330000C4F4FF00066CA698A603E60506F002310
:10134000536780F3118804B5104600F025FABDE814
:10135000044002F1300090E8F01F8CF309887047D8
:101360009C09002004ED00E01EF0040F0CBFEFF319
:101370000880EFF30980816911F8021C0229FFD06F
:1013800001B503F067FA01BD42F8203C009B42F82A
:101390001C3C0A49019B42F8183C029B42F8143C51
:1013A00021F001014FF0807342F8043C42F8081C20
:1013B0000023203A02654367704700BF7B47000067
:1013C000094A0346906870B113F1160F406E05D0BC
:1013D000A0F120029A4205D8834203D2814228BF5D
:1013E00000207047002070479C09002008B5094B79
:1013F00098600D46144600F0CFF9204685F3098821
:10140000002163B681F31188BFF36F8F00220023A0
:1014100003F0B3F99C09002001B572B60B4A90693C
:1014200000281EBF0021916103F00FFD62B6EFF3AB
:101430000580A0F110004FEAC0000549014409C928
:101440009847BDE801400349084700009C09002077
:101450003051000059140000044B9968D869884243
:1014600003D003494FF080520A6070479C09002066
:1014700004ED00E038B5194B14469A6A9A6A9A6AE4
:101480000546900719D5586B9A6A120615D519B1F9
:101490009A6A22F080029A629A6A9A6A9A6AD106D5
:1014A0000ED49B6A9A070BD400200C4A936A43F02F
:1014B000FF0393620023237038BD6FF01500EBE744
:1014C000064B5B681B05EFD52946FFF779FF00281F
:1014D000EAD080F309880220E7E700BF00ED00E0D2
:1014E0000D4B9A6A9A6A9A6A920508D59A6B9A6A1B
:1014F000120404D518B19A6A22F400429A62064B8B
:101500009A6A9A6AD20558BF9A6A9A6A002042F487
:101510007F429A620870704700ED00E070B5484B5A
:101520005B688AB00D46C3F30803002686F3118872
:10153000BFF36F8F02F07F41B1F17F4F11D102F005
:101540000C0108290DD0110701D4054601260022FF
:10155000033B8DF80720032B6BD8DFE803F004551D
:10156000595D3546F3E7364BDC6A14F0020460D16E
:10157000DA6A002A15DBDA6A520012D5AA6932F853
:10158000021C4DF6027291420AD093F828200AB349
:101590000DF1070201212846FFF76CFF044600E029
:1015A0002C689DF807309BB92022294602A803F039
:1015B0007AF9099B002E3ED0C3F3080222B96FEAE4
:1015C00053236FEA4323099302A9204603F040F90D
:1015D0000AB070BD93F829202AB10DF1070101204E
:1015E000FFF77EFFDAE75A8D92B2002AD9D09A6AC5
:1015F0009A6A9A6A9A6A9A6A9A6A9A6A6FEA024236
:101600006FEA12429A62CCE70DF107020021C2E7AD
:101610000DF107010020E3E7094B9A6A9A6A9A6A7A
:101620009A6A9A6A9A6A9A6A6FEA02426FEA124260
:101630009A620024B5E723F4FF7323F00103C2E7A5
:1016400000ED00E0024A536943F010035361704714
:1016500000ED00E0EFF30880EFF3098101B5724679
:10166000FFF75CFF01BD00BF044800232021C21822
:101670000133302B82F80013F9D1704700E100E00C
:10168000002080F31488BFF36F8F03F0DFFC00208D
:101690000D490860BFF34F8F0C4880F3088800F0B5
:1016A0002BF8202080F3118809484FF4026140187C
:1016B00080F30988EFF314800221084380F3148833
:1016C000BFF36F8FFFF7F0FD94ED00E0C013002033
:1016D000401500200749D1F890200023C2F30722CB
:1016E0001846934200D17047C1F89830C1F8A00065
:1016F0000133F6E700ED00E008B572B6002383F38E
:101700001388FFF7E7FF144B4FF0FF32C3F8802038
:10171000C3F88420C3F88820C3F88C20C3F8902035
:10172000C3F89420C3F89820C3F89C20C3F8802104
:10173000C3F88421C3F88821C3F88C21C3F8902111
:10174000C3F89421C3F89821C3F89C2162B6BFF373
:101750004F8FBFF36F8F08BD00E100E0064B9B6821
:10176000834207D1EFF3058323B1044A536843F062
:101770008053536002F098BB9C09002000ED00E00C
:10178000024B034A0348012100F06EB80000042018
:101790000000002004530000426E054B203A1A60FE
:1017A000044A2021C3E901121846012100F066B85D
:1017B0004C08002000000B15F0B51F4F00268E428C
:1017C00001DB1046F0BD44689CB353B104F1FF3C0B
:1017D00014EA0C0F18D11F2C16D905681CEA050F46
:1017E00012D1202C0568D0F808C0D2B20FD9B4F1BC
:1017F000004F0ED8013CB4FA84F4C4F11F04640015
:10180000072A4CEA040406D96FF01502D9E7082428
:10181000F6E73E24F4E725F01F05154345F01005D3
:1018200044F00104C7F89820C7F89C500132C7F86B
:10183000A04001360C30C2E700ED00E0044B052269
:10184000C3F89420BFF34F8FBFF36F8F704700BF73
:1018500000ED00E0BFF35F8F024B0022C3F894203D
:10186000704700BF00ED00E010B5034C0123227863
:10187000FFF7A2FF207010BDEC09002008B5094A4F
:1018800000231278FFF798FF10F1160F02D0064AD6
:10189000072800DD08BDC2F89800C2F8A03001306A
:1018A000F6E700BFEC09002000ED00E014490868ED
:1018B000082810B521D8FFF7CDFF124C4968002247
:1018C000904201F10C0105D10F4B1870FFF7B6FFE4
:1018D000002010BDC4F8982051F80C3C23F01F03E1
:1018E000134343F01003C4F89C3051F8043C43F018
:1018F0000103C4F8A0300132E2E74FF0FF30E8E71F
:101900001053000000ED00E0EC090020014B1860CE
:10191000704700BF2400002010B54FF02003EFF304
:10192000118083F31288BFF36F8F114A0123C2F82D
:1019300040354FF080424FF08051C2F87835D1F8F1
:101940003041082C08D1D1F83411052904D8094CAC
:10195000615C09B1C2F838364FF080430122C3F808
:10196000802580F31188BFF36F8F002010BD00BF6A
:1019700000E00140525500004FF08043C0B2C3F870
:101980001C05BFF34F8F0549054BCA6802F4E0629E
:101990001343CB60BFF34F8F00BFFDE700ED00E0C6
:1019A0000400FA0520B1034B800143F001031847FE
:1019B000704700BFD0520000084B70B5C31A0D46E7
:1019C00007499B10044659430648402202F0B0FFE5
:1019D0002B4601462046BDE87040184768080020A5
:1019E000B76DDBB6B850000073B50C4C0C4A402301
:1019F000041B00930D460B460A49A410614306469A
:101A0000094802F0C1FF011E05DA30462B4602B03C
:101A1000BDE87040184702B070BD00BF68080020E4
:101A2000F9490000B76DDBB6B8500000002270B570
:101A3000012104461046FFF71BFC0020FFF7FAFBCC
:101A40000F4801F03BF80F4B984215D103F0F6F820
:101A500026690D49304602F034FE00280BDB24696C
:101A600009490125356404F11C0002F02AFE002812
:101A700001DBE564002070BD6FF00400FBE700BFF0
:101A8000C11A00000000AD0B5853000001460C23A2
:101A900009484B4370B5C418D4E90E5600224033B0
:101AA000A263184402F031FF2DB132462B460348A1
:101AB000BDE87040184770BD68080020B8500000AD
:101AC00010B1012804D07047034B1B6C5B0701D198
:101AD000FFF7DCBF704700BF6808002008B54FF073
:101AE0002003EFF3118183F31288BFF36F8F124A43
:101AF000136843F0020013F0010310600CD04FF0A4
:101B00008042D2F80C34D2F80C2413F0010303D035
:101B10000A4802F0FAFE012381F31188BFF36F8FA8
:101B200023B1BDE808400020FFF7B0BFBDE8084082
:101B3000012003F08DB800BFB8080020A8080020DD
:101B40001FB500220123CDE90223094ACDF800D0B8
:101B50006B46CDF804D002F048FF002805DB4FF4B7
:101B600080420023684601F081FE05B05DF804FB69
:101B7000174A0000094BBFF35B8F53E8002F22F098
:101B8000020143E800100028F7D1BFF35B8FD307B1
:101B900002D4012000F0A2BF704700BFB8080020A7
:101BA0002DE9F0413949BFF35B8F0746012251E827
:101BB000003F41E800200028F9D1BFF35B8F33B923
:101BC000334934484B60CB608A6002F08DFD7B1E48
:101BD000012B2FD8012F07D14FF08043D3F81C34AD
:101BE00003F00303012B25D003F029F9044618B9AB
:101BF000294B1B78002B41D14FF02003EFF31186C6
:101C000083F31288BFF36F8F0124DFF890804FF0C9
:101C10008045D5F81834D5F81824D2030CD503F034
:101C20000303012B01D0012F06D10CB386F31188D9
:101C3000BFF36F8FBDE8F081ACB13046FFF7F0FA2B
:101C4000D5F81835002BE4D1D5F80421002AE0D0CE
:101C5000C5F80431D5F804310123C5F81835C8F8A2
:101C60008031AB60D5E70021212002F0FDF8E7E7E5
:101C70004FF080430222C3F80423DBE74FF0804398
:101C80000222C3F808230646BFE700BFBC080020B5
:101C90005808002084080020FD0D002000E100E02D
:101CA00008B5084B0848186003F05CF838B10748DD
:101CB000FFF72CFE0548FEF7B5FB002008BD6FF0CE
:101CC0001200FBE7C008002018510000D11C0000E2
:101CD0000A2838B5074D044604D1286883680D21C9
:101CE0005B68984728688368E1B25B68984720463C
:101CF00038BD00BFC008002030B54068047B01F04B
:101D00001F05B2F5005F45EA441585B04FF00004A9
:101D100004D1284601F090F9002032E0B2F5804F5E
:101D2000CDE902442FD1B3F5003F0CBF04230523B6
:101D30008DF80830836823FA01F1C9072FD4B2F572
:101D4000A03F2CD16A09012A05F01F031C4A03F5A4
:101D5000E07318BF4FF0A04252F82330DB071ED4C7
:101D60000DF107042146284601F0CAF8154B9842A8
:101D700014D1204601F012F9134B98420ED06FF0A7
:101D80000B0005B030BDB3F5C02F05D0B3F5003F53
:101D90000CBF02230123CBE70323C9E703940023ED
:101DA000194602AA284600F085FF074B984204D145
:101DB0000121284601F0F8F8AEE76FF00400E0E7F3
:101DC000000300500400AD0B0000AD0B10B501F096
:101DD000D5F8044668B901F0A9F8084B98420AD131
:101DE0000748214601F086F8224605210620FFF724
:101DF0003FFA002010BD6FF00400FBE70000AD0BC0
:101E0000051E0000420970B5034602D0012A15D014
:101E100070BD0B4E326951680029F9D003F01F03E1
:101E200001250C689D408A682A4002D04B683046E4
:101E30009847002CECD021462468F4E7014EE9E7EE
:101E4000D0500000E85000002DE9F04347683B7B8C
:101E500001F01F0585B00E4645EA43151446CAB980
:101E600002A9284601F04CF80446284601F00CF976
:101E7000484B984204D06FF0040005B0BDE8F083F1
:101E8000844205D19DF8080001F082F8A042F2D109
:101E90000020F2E74FF000090DF103013046CDE9D3
:101EA000029901F02DF84B46804602AA4946284681
:101EB00000F000FF374B984202D06FF01500DCE7CE
:101EC000804503D19DF8030001F062F8A3054ED5CB
:101ED000314B324A234093423AD00CD8062B14D0CF
:101EE00004D893B1022BE8D104230EE0B3F5801F90
:101EF000E3D1012309E02A4A93422BD0B3F5A00F86
:101F00002AD0B3F5800FD8D102238DF8043084F4A1
:101F10008073C3F30023E0068DF8053054BFC4F38B
:101F20004013032321058DF8063017D57B68012166
:101F300001FA06F6C3F80865002201A9284600F058
:101F400067FF144B984214BF6FF01500002094E710
:101F50000723DAE70523D8E70323D6E7620541BF65
:101F60007B68012101FA06F6C3F80C65E4E7E30695
:101F70004FF0000354BFC4F3401403241A4601A9D0
:101F800028468DF8044000F095FE024B98423FF43D
:101F90007FAF92E70000AD0B0600F00006001000D6
:101FA00002004000036803F01F025B09012B02607E
:101FB000024818BF4FF0A040704700BF0003005018
:101FC000F0B54B79012B26D0032B21D110268B792C
:101FD000032B1DD1CC790CB1012C19D10A7912B186
:101FE000022A15D10E220B684568B3F5164F2D68ED
:101FF00065D02DD8B3F5165F64D016D8B3F5966FBB
:1020000062D00AD8B3F5967F61D0B3F5167F61D060
:102010006FF0850052E00026D9E7B3F5166F5CD06B
:10202000B3F5965FF4D1374B3CE0B3F5E14F57D0B1
:1020300007D8B3F5615F55D0B3F5964FE8D1324B71
:1020400030E047F61227BB42E2D14FF4000329E00B
:10205000B3F5613F48D013D8B3F5963F47D009D8C0
:102060004DF6C027BB4244D0B3F5614FD0D14FF4F9
:102070006B0317E0B3F5E13FCAD14FF0EB7311E00A
:10208000B3F5612F38D008D8204FBB4237D0B3F515
:10209000E12FBDD14FF0E86304E01D4FBB42B7D143
:1020A0004FF080530069C5F82435031D03C934433C
:1020B0002243C5F86C2583E803000020F0BD4FF4EF
:1020C0001D03EFE7134BEDE74FF49E23EAE74FF4D0
:1020D000A033E7E74FF41C33E4E74FF41D23E1E7B7
:1020E0000D4BDFE70D4BDDE74FF06C73DAE70C4B80
:1020F000D8E74FF46503D5E74FF07063D2E74FF0B0
:102100008063CFE700B0130000A04E0090D0030022
:1021100040420F000050270000C0750000F03A0058
:1021200000903A01F8B5066905460F4602F087FEB1
:1021300010B92C4B1B7883B94FF02003EFF31184B7
:1021400083F31288BFF36F8F686802F0E8FC28BB46
:1021500084F31188BFF36F8FEEE76424686802F0A0
:10216000DEFC70B9012002F067FD013CF6D10021D0
:10217000212001F079FEF0E784F31188BFF36F8F1F
:10218000F5E74FF02003EFF3118483F31288BFF3D8
:102190006F8F686802F0C3FC0028EDD006F8107F4E
:1021A00069680B680122C3F84465C3F8482500221A
:1021B000C3F82021D3F82001C3F85821D3F85821BF
:1021C0004A68D20641BF0822C3F800254FF48002B6
:1021D000C3F8042301229A6084F31188BFF36F8F40
:1021E000F8BD00BFFD0D00202DE9F341D0F80480BB
:1021F0000669D8F800400023C4F80035306045680F
:10220000EB685A1C074613D001A80193FFF7CAFEDA
:10221000019A01239340C0F80835EB68019301A8A7
:10222000FFF7C0FE019B03F5E073032240F8232073
:102230002869431C06D02B7F002B14BF03210021EB
:1022400002F05FFC6B695A1C13D001A80193FFF7E1
:10225000A9FE019A01239340C0F808356B690193E8
:1022600001A8FFF79FFE019B03F5E073032240F8EE
:102270002320A869431C06D06B7F002B14BF0321C9
:10228000002102F03EFCD5E903122B68C3F80C15BF
:10229000C3F81425D5E905123846C3F80815C3F864
:1022A0001025311DFFF78CFE0546002846D1D8F8D1
:1022B0000430990719D506F1120000F0DFFF234B17
:1022C00098423FD1B07CC30003F1804303F5F8335B
:1022D00004F10C0204F59071C3F81015C3F814252D
:1022E0001B4A01238340C2F804350823C4F8003593
:1022F00098F808305BB9C4F81031D4F8103106F101
:102300001103C4F834350123C4F838352360D8F8F4
:1023100004309A075CBF4FF48072C4F80423DB06D4
:1023200044BF4FF48003C4F8043310360023C4F8CC
:102330004465C4F848350123A360E360284602B031
:10234000BDE8F0816FF00405F8E700BF0000AD0BB9
:1023500000F0014010B501238340114ABFF35B8FA9
:10236000DC4352E8001F01EA040C42E800CEBEF153
:10237000000FF6D1BFF35B8F4FF4803202FA00F00A
:1023800002F1804202F58052C2F80803BFF35F8F6A
:10239000BFF36F8F0B4214BF0120002010BD00BFA0
:1023A000E40800201949F8B5044622F07F45086882
:1023B000C1E90023A5F50013101AB3F5400F22D28E
:1023C000134B1B681A0A1B065E19124B42F10007D9
:1023D000C3E90067012601F097FEA30003F18043E3
:1023E00003F58833D3F84025AA420BD11EB94FF428
:1023F0000002C3F84025084B4FF4803000FA04F483
:10240000C3F84443F8BD0026E5E700BFE80100201B
:10241000E8080020A00100200010014019B3BFF31C
:102420005B8F0123104A834052E8001F194342E8A2
:10243000001CBCF1000FF7D1BFF35B8F0B4A4FF4C8
:1024400080338340C2F80433094BBFF35B8F1B68B2
:10245000BFF35B8F23FA00F0C30742BF054B4FF475
:102460000032C3F800217047E4080020001001404A
:10247000E008002000E100E00D4B1868010A0006AA
:10248000BFF35F8F0B4BD3F80435181841F10001EF
:10249000B3F5801F0AD2084BD3E90023904271EBB9
:1024A000030303D210F1807041F10001704700BFB7
:1024B000E808002000100140A00100202DE9F04FA5
:1024C00085B016461F460546FFF744FF0090FFF70C
:1024D000D3FFB04271EB070371D2434B301A67EB65
:1024E0000101984271F100037AD2404B03EB0513CE
:1024F000D3E902894F4508BF46454BD026F07F43BC
:102500000193AB0003F1804A0AF5883A4FF4803218
:1025100002FA05F3DAF84005DFF8D4B0029326F0AA
:102520007F44DBF80425801A20F07F4022F07F43AF
:102530000128CAF8403504D10392132002F081FD2E
:10254000039A039202F1020CA4EB0C0020F07F40EE
:10255000B0F5000F88BF6446284602F048FB24F01F
:102560007F40029BCBF84433CAF84005DBF80405F2
:10257000039A824206D0201A023820F07F40B0F53C
:10258000000F1AD8019BE41A24F07F4414EB0608CC
:1025900047F1000915490E982B0101EB0512C2E91C
:1025A0000289C8500F9B5360002428460099FFF70A
:1025B00035FF204605B0BDE8F08F2046B1E7012386
:1025C0000C4ABFF35B8FAB4052E8001F194342E84F
:1025D00000100028F8D1BFF35B8FB046B946D9E7A9
:1025E0006FF01504E1E700BF01000001A801002021
:1025F00000100140E008002073B5234B234C002558
:102600004FF0FF304FF0FF314FF48032C4F80855DF
:102610004FF48026C3E90201C4F804234FF40032CA
:10262000C3E90601C4F80423C3E90A01C4F804633A
:10263000C3E90E014FF40023C4F80433144B0226FF
:102640000121C4F804631120C3F880212A46FEF753
:102650000FFE1120FEF7EEFD0123A36023600D4B5A
:102660000F221A600C4B0E221A600C4B0C4A00937E
:10267000019500232846FFF721FF3046FFF790FA27
:10268000284602B070BD00BFA80100200010014024
:1026900000E100E0E4080020DC080020A5230000A1
:1026A000FFFF7F002DE9F74F3B4ED6F804339B0721
:1026B0000BD5D6F8043143B1384A0023C6F80431AB
:1026C000D6F80431136801331360354DDFF8D48038
:1026D00000244FF02003EFF3118183F31288BFF33E
:1026E0006F8F4FF48037D6F80433A7401F4235D19F
:1026F000002381F31188BFF36F8F3BB3FFF7BCFE5C
:102700004FF02003EFF3118E83F31288BFF36F8F26
:10271000234B03EB041CDCE90223904299414FF068
:10272000000036D34FF0FF3A4FF0FF3BD5E90019D8
:102730002860CCE902ABC6F848738EF31188BFF36A
:102740006F8F19B1CDF80090204688470134042CD2
:1027500005F11005BDD103B0BDE8F08F0123A34002
:10276000DB43BFF35B8F58E8002F02EA030048E821
:10277000000CBCF1000FF6D1BFF35B8F22B90A4BFE
:1027800053F82430002BB3D0204602F030FA012356
:10279000AFE70146D1E700BF00100140E808002084
:1027A000A8010020E008002040110140431C13B59F
:1027B00021D0012821DDB0F5000F20DA441EFFF7FB
:1027C0005BFE104BD3E90013401AB0F5000F28BF91
:1027D0000024013002190C48824228BF02465218D8
:1027E0004FF0000009490190009143F10003FFF709
:1027F00065FE02B010BD0448E0E70024DFE7024CAC
:10280000DDE700BFE8010020FFFF7F00A5230000F7
:1028100008B5FFF731FE024B1B68C01A08BD00BFA8
:10282000E80100204FF08053D3F83021082A06D168
:10283000D3F83431052B02D8024AD05C704700200F
:10284000704700BF80550000024AD2F80034002BC8
:10285000FBD0704700E0014010B502F0E3F940B151
:102860004FF080430022C3F80C21C3F81021C3F8B5
:10287000382502F0D7F9002846D04FF08052604B3F
:10288000D2F80414C3F82015D2F80814C3F824159C
:10289000D2F80C14C3F82815D2F81014C3F82C156C
:1028A000D2F81414C3F83015D2F81814C3F834153C
:1028B000D2F81C14C3F84015D2F82014C3F84415FC
:1028C000D2F82414C3F84815D2F82814C3F84C15CC
:1028D000D2F82C14C3F85015D2F83014C3F854159C
:1028E000D2F83414C3F86015D2F83814C3F864155C
:1028F000D2F83C14C3F86815D2F84014C3F86C152C
:10290000D2F84424C3F87025FFF78CFF18B13D4B73
:102910003D4AC3F88C26FFF785FF18B13B4BFB22DD
:10292000C3F81825FFF77EFF70B14FF080414FF0DC
:102930008053D1F8E42ED3F8583222F00F0203F07E
:102940000F031343C1F8E43EFFF76CFF20B1304B97
:102950004FF40072C3F8402602F064F948B14FF01A
:102960008043D3F80024D20744BF6FF00102C3F8BC
:1029700000244FF08053D3F83021082A0ED1D3F829
:102980003431052B02D8234AD35C3BB14FF01023DE
:10299000D3F808224FF08043C3F858254FF0102396
:1029A000D3F80022002A03DBD3F80432002B22DA0A
:1029B000194901234FF01020C1F804351224FFF704
:1029C00043FFC0F80042FFF73FFFC0F80442FFF7A3
:1029D0003BFF0023C1F80435FFF736FFBFF34F8FED
:1029E0000E490F4BCA6802F4E0621343CB60BFF399
:1029F0004F8F00BFFDE70B4B0B4A1A6010BD00BFA5
:102A000000C00040005000404881030000F000403A
:102A1000009002407A55000000E0014000ED00E027
:102A20000400FA05500000200090D00370B5012585
:102A30000268B2FA82F3C3F11F035E1CDCB214D049
:102A4000BFF35B8F05FA03F322EA030350E8006F3C
:102A5000964204D140E8003CBCF1000FF6D1BFF330
:102A60005B8FE5D102480C7070BD0248FCE700BFE7
:102A70000000AD0B0200AD0B0368CB40DB0710B5C7
:102A800015D4012303FA01F10368BFF35B8F41EA18
:102A9000030250E8004F9C4204D140E8002CBCF1F6
:102AA000000FF6D1BFF35B8FEED1024810BD024894
:102AB000FCE700BF0000AD0B0400AD0B044B1A791E
:102AC00022B9012218609A80024870470248704774
:102AD000EC0800200000AD0B0C00AD0B38B510B1B8
:102AE000012817D038BD4FF080440223C4F80833C2
:102AF000C4F80401D4F804310123E36042F21075F4
:102B0000D4F81834DB03EDD5012002F095F8013D2F
:102B1000F6D1E7E74FF080440023C4F80803C4F877
:102B20000031D4F80031606042F21075D4F80C34F2
:102B3000D4F80C24D20303F0010305D523B10120FE
:102B400002F07AF8013DF1D1014B00225A71C9E738
:102B5000EC0800204FF0804310B5D3F800216AB193
:102B60000022C3F80021D3F800210122C3F8082372
:102B7000114B587910B95A711B6898474FF0804330
:102B8000D3F8042172B10022C3F80421D3F8042140
:102B9000D3F81824D3F81814920704D10122C3F8EB
:102BA00018259A6010BD0222C3F80823024BBDE825
:102BB00010401B6801201847EC080020036803F050
:102BC0001F025B09012B0260024818BF4FF0A040B2
:102BD000704700BF00030050034B083033F810006B
:102BE000C0F34010704700BF5400002070B500F1E2
:102BF00008030C4C34F81330DA0505460E4607D5A9
:102C0000C3F3432304EBC30254F8333052689847AC
:102C1000A3682BB1E26831462846BDE870401847EA
:102C200070BD00BF54000020124A083010B432F8C2
:102C30001030D9051BD5C3F3432123F4F85322F8F0
:102C4000103002F11004002034F8023B13F4807FAE
:102C500003D0C3F34323994209D001303028F3D184
:102C6000002342F83130044810BCFFF705BF10BC08
:102C7000704700BF54000020C800002038B502464D
:102C8000FFF7AAFF094C02F1080540B134F81530EE
:102C900007495B0B03F5A273002041F8230010469F
:102CA000FFF7C2FF002324F8153038BD5400002080
:102CB000006000402DE9FF41044617461D4621B340
:102CC0004E4E00F1080836F818309B0706D5FFF77E
:102CD00083FF18B14A4804B0BDE8F0810023CDE974
:102CE00000338DF80E308DF80F300DF10F020B46CA
:102CF00020460DF10E0101F0D7FF36F8183023F011
:102D0000020343F0010326F8183097B13B4B3E789D
:102D10007A6804F1080033F810108F070CD5002AE8
:102D2000D8D133F8102022F01C0242EA860223F8A0
:102D30001020CDBB3348CEE721F02001C904C90CD7
:102D400023F81010002AECD0032EC3D817782EB920
:102D50002D4A07F5A27142F82160E2E7BA0002F1BC
:102D6000804202F5C04241EA4731D2F810C52CF04A
:102D7000030CC2F810C5D2F810C52CF44F3C2CF44B
:102D8000407CC2F810C5D2F810E54FEA042C0CF4D0
:102D90007C5C4EEA064E4CEA0E0C41F0200123F812
:102DA0001010C2F810C5BCE7D5E900672046FFF750
:102DB0003BFF002EBED0114D2B689E4204D16B68A4
:102DC0009F4201D100220AE010480DF10F01FFF7E8
:102DD0002DFE0C4B98427FF47EAF9DF80F2045F8F6
:102DE000326005EBC20308345F6035F8143043EA03
:102DF000422343F4807325F814309BE754000020ED
:102E00000400AD0B0000AD0B00600040C8000020C6
:102E1000F0B5044685B0154619B3334E00F10807E6
:102E200036F81720930703D4FFF7D6FE002858D1B1
:102E300012F01C0F02D04B78012B52D001238DF8D9
:102E40000F300023CDE900134A1C8B1C20460DF1E6
:102E50000F0101F029FF36F8173043F0030326F87D
:102E6000173015B9214805B0F0BD1F4E04F1080711
:102E700036F81700830734D595F800C061468900FD
:102E800020F0200001F18041C00401F5C041C00CD8
:102E900026F817000023C1F810356A78002AE1D01F
:102EA000D1F81035AD7823F4991323F4F853C1F811
:102EB0001035D1F810E5230203F47C53120402F418
:102EC000403243EA0E0313432A0502F4801240EA1B
:102ED0004C30134340F0200026F81700C1F810359D
:102EE000C0E70348BFE700BF540000200000AD0B5F
:102EF0000400AD0B014BC3E90201704754000020F0
:102F000008B50246FFF768FE38B1054B05480832A0
:102F100033F812305B0B0B7008BD0348FCE700BFB1
:102F2000540000200000AD0B0400AD0B38B50F4C71
:102F300094F87850BDB96022294604F1100001F0E0
:102F4000BDFC0620FEF776F9094B0A48C3F87C5110
:102F5000D3F87C214FF00042C3F80423012384F806
:102F60007830636738BD0448FCE700BF5400002098
:102F7000006000400000AD0B0500AD0B034B93F863
:102F80007800003818BF0120704700BF54000020AF
:102F900001460148FFF770BDC4000020014601480A
:102FA000FFF744BDC400002037B50446FFF714FE08
:102FB00004F108021E4B33F81230E8B113F0020599
:102FC0001AD15B0B9A0002F1804000F5C24002F179
:102FD000804202F5C04205600068D2F8100540F05A
:102FE0000100C2F8100529B1012202FA03F3114AC7
:102FF000C2F8043303B030BDC3F38203042B12D0F4
:10300000052B12D001A80194FFF7D8FD019BD0F841
:103010001015D94001F001010231204603B0BDE88E
:10302000304001F088BE0321F7E70221F5E700BF39
:10303000540000200060004008B50246FFF7CCFDB8
:10304000C0B102F108010E4B33F81130990711D4C9
:103050005B0B01229A409B000A4903F1804303F570
:10306000C043C1F80823D3F8102522F00302C3F8A7
:10307000102508BDBDE808400021104601F05BBEE8
:1030800054000020006000400E4B00F1080213B510
:1030900033F81230DB07044611D5FFF7CDFF204689
:1030A000FFF7ECFD01A80194FFF788FD019B03F5F4
:1030B000E073022240F82320034802B010BD034809
:1030C000FBE700BF540000200000AD0B0400AD0B77
:1030D0002DE9F04F644B65486549002687B0012211
:1030E00034461D6835B1D0F8045315421EBF1C602C
:1030F0001D68164304338B424FEA4202F1D1DFF8D8
:103100006C81D8F87C31002B00F091804FF0A04307
:10311000D3F820250492C3F82025D3F8202805925F
:10312000C3F8202800270DF110097B0100934FF010
:10313000010A49E0009B4F4A94FAA4F4B4FA84F4DB
:103140001C4404F10803E00832F81330039404F03F
:1031500007020AFA02FC19F8002022EA0C0209F818
:10316000002003A8C3F382059908FFF727FD039AFF
:1031700002F5E0724B0750F82220AB46C2F3014241
:1031800029D520465946D5B2FFF730FD03A8039450
:10319000FFF714FD039B03F5E07350F82330C3F3EE
:1031A00001439D4207D10021204601F0C4FD29467C
:1031B000204601F0C0FD03A80394FFF7FFFC039B2A
:1031C0000AFA03F3C0F8203559F82740002CB1D192
:1031D000CFB90127A9E7022A0CBF0321022120460B
:1031E000019201F0A8FD032D04D0019A022A06D114
:1031F000012DE0D159462046FFF7F8FCDBE7032A12
:10320000D9D1022DF5E7C8F87C41D8F87C311A49AC
:103210004FF0A043D3F820250492C3F82025D1F81D
:1032200020350593C1F8203513437FF47BAF01248B
:1032300016B907B0BDE8F08F96FAA6F3B3FA83F398
:1032400004FA03F29B0003F1804303F5C04326EA2E
:103250000206D3F81005D3F81015C0F30520C1F30A
:103260000141FFF7C3FCE3E700610040006000405C
:103270002061004054000020000300500146014836
:10328000FFF7D4BBD000002010B5144C144A1549E8
:10329000032323616361144BA261E3614FF48063F4
:1032A00023620023A3626362E36222660F4A6266BE
:1032B000E01D1022A2662367E366636701F0D9FA76
:1032C000BFF35F8F0A49204601F0D3FABFF35F8F47
:1032D0002023A371BFF35F8F10BD00BFF40800204F
:1032E000865500008F550000FD090020ED090020E3
:1032F000935500000E4B70B553F82040013053F841
:103300002060A64200D870BDD4E900352846984711
:1033100065B1EB6830B10028B8BF4042FF28A8BFB4
:10332000FF2018705A7842F001025A700834E8E71A
:10333000FC53000008B50A4B012202201A70FFF767
:10334000D9FF00F055FF0320FFF7D4FF00F03CF950
:10335000FDF758F8034A137B23F00103137308BDEC
:10336000FD0D00207002002008B50348034A00212B
:10337000121A01F01CFD08BDA0010020BC0F0020A6
:1033800070B5002386B00122CDE90423134E144DFD
:1033900001930F22CDE902321249182303FB005595
:1033A00006EBC01604464FF4B07000FB04110E4B40
:1033B00000954FF4A072304600F0D4F8737B0B48B0
:1033C0002C7523F0040373734FF4026303FB0404AE
:1033D0001C44EE606C6006B070BD00BFF0010020C0
:1033E0009C090020E01300208136000040150020D9
:1033F00080B52D4BA6B083F308882C4D2C4E6B69FD
:103400002C4F43F4007300246B61E02385F82230D5
:10341000EC772C766C76AC7685F820406B6A43F4BA
:10342000E0236B6285F82340FEF70CF9FDF7E4FE1C
:103430004FF0FF33AB62EB62FEF738FAFEF7A0F90C
:1034400040F20113ADF8243006ABB360CDE91F4460
:10345000229401F086FC2046FFF74CFF0120164D18
:10346000FFF748FF00F06CFC144BF5610593012356
:1034700013490094CDE903434FF480623B46CDE904
:103480000144284600F06EF86A7B064622F00402EA
:1034900028466A7301F01DFD2046FFF771FF3A468A
:1034A00031462846FDF7A2FF601D002000ED00E038
:1034B0009C09002035330000700200209A5500005E
:1034C000C00F002070B50E4B0E4CA34201D300205C
:1034D00070BDD3E9030141EA000212F003020BD1EF
:1034E0009D685A61AA4201D11C33EEE75E690E6005
:1034F000013259610144F5E76FF01500E8E700BFBC
:10350000500100205001002037B50C464FF0200537
:10351000EFF3118185F31288BFF36F8F45695DB1B9
:1035200025602B684361836901338361002081F347
:103530001188BFF36F8F11E052EA030C03D12560AD
:103540006FF00B00F3E7CDE900230246083000F0EE
:103550004DFB18B9024B9B685B69236003B030BD1B
:103560009C0900202DE9FF410E9E06730426467338
:103570000D9E867300F158050F46D61DC0E91655FD
:103580000C9A002526F007062037C0E90655C0E949
:1035900019768560C573C56606F1200802920B9AFC
:1035A000019288440A9A009242460446FDF7ECFED6
:1035B000044B65659B6803B11B6F2367404604B0ED
:1035C000BDE8F0819C0900202DE9F043294C2A4DEB
:1035D00087B02646AE4204F130040FD300F0C6F99E
:1035E000244CDFF898904FF4004640F2E737AC42A5
:1035F00020D307B0BDE8F04300F086BB54F8043C8C
:10360000059354F8103C049354F8143C039354F875
:10361000183C029354F81C3C019354F8203C00934E
:1036200054E90C0154E90A23FFF79CFF54F8303C9D
:103630005E65CEE7636A5A1C0DD023EAE37300216E
:103640003846C3FB060151EAC333D4F8008004D1E5
:10365000404600F06FFA3034C9E74FF47A72002325
:10366000FCF74EFD02460B4608F11800494600F0F3
:10367000D1FCF0E75001002050010020F34E000083
:1036800008B50B4C0B4D4FF02002EFF3118382F382
:103690001288BFF36F8F01F0A6FC2B78A06113B9DD
:1036A000FDF7B0FDEFE7FDF70BFC0028EBD1F7E7E6
:1036B0009C090020FD0D00202DE9F341044617462A
:1036C0001E464FF02003EFF3118883F31288BFF3F7
:1036D0006F8FC368324A6BB180689168884219D095
:1036E00057EA060318D188F31188BFF36F8F6FF084
:1036F0000F000CE0916891F90E1021610133E36035
:103700009368A36088F31188BFF36F8F002002B025
:10371000BDE8F0812169F0E791F90E1090F90E30C3
:103720009942A8BF19466FF07E029142B8BF114678
:103730008B422EDD01F090FB0546CDE9007619485D
:103740002246414600F052FA0028E0D04FF0200314
:10375000EFF3118683F31288BFF36F8F236821691B
:103760009C420AD04BB193F90E309942A8BF19463A
:103770006FF07E039942B8BF1946A06801F06CFB58
:1037800000B945B10748314600F0DEF86FF00A0095
:10379000BDE70025D1E786F31188BFF36F8FF5E70A
:1037A0009C090020FE0D002038B583680446002BDC
:1037B00032D01C4A9268934231D1DA7B013ADA73F3
:1037C000C368012B05D9013BC36000F09DFA0020BE
:1037D00038BD4FF02003EFF3118583F31288BFF358
:1037E0006F8F0169806801F037FB204601F0CDFB47
:1037F000A06058B190F90E2022610022826701F08A
:1038000068FB0948294600F09FF8DEE7E06085F391
:103810001188BFF36F8FD8E76FF01500D8E74FF02E
:10382000FF30D5E79C090020FE0D002038B5044686
:103830004FF02003EFF3118583F31288BFF36F8FEE
:1038400001F0A3FB48B10022826701F042FB294648
:103850000548BDE8384000F077B8D4E902329A4212
:1038600018BF0133A360F2E7FE0D002013B54FF03F
:103870002004EFF3118184F31288BFF36F8F846803
:1038800044B1013C846081F31188BFF36F8F002045
:1038900002B010BD52EA030406D181F31188BFF3D0
:1038A0006F8F6FF00F00F3E7CDE900230246024867
:1038B00000F09CF9ECE700BFFE0D002010B5084CAD
:1038C00023685BB1FEF7A4FF03462068054A034462
:1038D000BDE810401361002101F095BB10BD00BF91
:1038E000CC0900209C090020F8B504460D464FF095
:1038F0002003EFF3118683F31288BFF36F8F0F4B12
:1039000000214FF4004740F2E73019614FF47A721A
:103910000023E4FB0701FCF7F3FB002C084B09DC58
:103920001860084B1D60FFF7C9FF86F31188BFF3CD
:103930006F8FF8BD0228B8BF0220F1E79C09002074
:10394000CC090020C809002049B9EFF3058030B93F
:10395000054BDA699B689A4201D0FDF7C1BC81F33F
:103960001188BFF36F8F70479C0900204FF0200330
:10397000EFF3118183F31288BFF36F8F044B9A68C2
:10398000D37B013BD37381F31188BFF36F8F7047F3
:103990009C09002038B502460C480D4D01F093FA01
:1039A000044600B9EC68AB684AB95A7BD20606D126
:1039B000A26922B9DA897F2A01D9EB6138BD9C421C
:1039C00001D0FFF77BFFEC61F8E700BFBC090020E6
:1039D0009C09002070B590F90D20437B002A014618
:1039E00004DA03F07F03437301F045FA4B7B154A79
:1039F00063F07F034B73D2E9083402F12005AB4238
:103A00001BD0D3B191F90E6093F90E0086420FD00E
:103A1000801B00280CDD5868C1E900300160596046
:103A20009068431A5842BDE870405841FFF7B2BF52
:103A3000A34202D01B68002BE6D1C1E900542160EB
:103A40005162EDE79C09002038B501464FF0200394
:103A5000EFF3118483F31288BFF36F8F154B164A6F
:103A600098681568A84206D1FFF728FF84F31188EB
:103A7000BFF36F8F38BD00251560104A1268BAB1C8
:103A8000C2897F2A14D8427BD20611D10C4A90F900
:103A90000E50126895420BDB0A4A904208D01A6910
:103AA0008A4202DCFFF796FFDEE7521A1A61DDE771
:103AB0000022FBE79C090020C4090020CC0900205B
:103AC000C8090020F001002070B490F90D20437B5C
:103AD000002A2ADBDA0628D1826932BB144A63F055
:103AE0007F034373D2E9083402F12005AB4217D0BB
:103AF000B3B190F90E6093F90E108E420BD0891B72
:103B0000002908DD5A68C0E900321060586070BCB6
:103B10000020FFF73FBFA34202D01B68002BEAD171
:103B2000C0E9005420605062F1E770BC704700BFEC
:103B30009C09002010B54FF02002EFF3118482F3AE
:103B40001288BFF36F8F427B510704D484F311882E
:103B5000BFF36F8F10BD22F004024273FFF7B4FF72
:103B600021460248BDE81040FFF7EEBEFE0D0020E2
:103B700008B590F90D20437B002A014604DA03F0D2
:103B80007F03437301F077F9044B9868431A584256
:103B90005841BDE80840FFF7FDBE00BF9C0900206A
:103BA0002DE9F041064615461C464FF02003EFF381
:103BB000118783F31288BFF36F8F01F0BCF987F38D
:103BC0001188BFF36F8FB4F1FF3F08BFB5F1FF3F1E
:103BD00008D02A46234606F118000349BDE8F04103
:103BE00000F018BABDE8F081F34E000010B5074BA5
:103BF0009868074B0C4618601146DDE90223FFF771
:103C0000CFFF2046BDE81040FDF76ABB9C090020AD
:103C1000C4090020F8B504464FF02003EFF31186E5
:103C200083F31288BFF36F8F437BDA0649B233D137
:103C300082698ABB03F07F03437301F01CF9437B65
:103C4000174A817363F07F034373104650F8203F97
:103C500083421BD0D3B1576A93F90E50A94210D0BA
:103C60006D1A002D0DDD5A68C4E9003214605C60E5
:103C70000120FFF78FFE012086F31188BFF36F8FBD
:103C8000F8BDBB4202D01B68002BE5D1536AC4E9E2
:103C900000031C605462EBE7A1730020ECE700BF57
:103CA0009C09002070B50446183001F086F94FF0E9
:103CB0002003EFF3118683F31288BFF36F8F94F91B
:103CC0000D20637B002A05DA03F07F03637320462F
:103CD00001F0D1F80B4D637BA86843F010036373C8
:103CE000031B58425841FFF755FE86F31188BFF376
:103CF0006F8FAB68A34203D1BDE8704001F0D9B823
:103D000070BD00BF9C09002010B54FF02003EFF3F9
:103D1000118483F31288BFF36F8F084B9A68D37BAB
:103D20000133D3730020FFF735FE84F31188BFF30E
:103D30006F8FBDE8104001F0BCB800BF9C090020A7
:103D4000044B002103F12002C3E908220846FFF7D3
:103D5000CBBD00BF9C090020F8B54FF02003EFF366
:103D6000118583F31288BFF36F8F1A498868437BEC
:103D700003F07F03437301F07EF88B685A7B08469B
:103D800062F07F025A7350F8202F82421CD0DAB1C1
:103D90004F6A93F90E6092F90E40A6420FD0A41B11
:103DA000002C0CDD5168C3E900210B605360012039
:103DB000FFF7F0FD2846BDE8F840FDF791BABA429A
:103DC00002D01268002AE6D14A6AC3E900021360F1
:103DD0004B62ECE79C09002050EA01032DE9F04119
:103DE00005460E4603D1FFF7B7FF002033E06FF022
:103DF0000104241A4FF0FF3363EB0103012C73F12C
:103E0000000302DA01F019F944194FF02003EFF32F
:103E1000118883F31288BFF36F8F104F104BB8686F
:103E20001860FFF7A5FEB8680E492A4633461830D9
:103E300000F0F0F8BA68537B43F010035373404628
:103E4000FDF74EFA01F0F9F8201A63EB030301289D
:103E500073F10003C9DBBDE8F08100BF9C090020BD
:103E6000C4090020F34E0000B1F1FF3F08BFB0F1DC
:103E7000FF3F08B506D1084B9868FFF713FF4FF0D6
:103E8000FF3008BDFFF7A8FF4FF47A7380FB0303F0
:103E9000C00B40EA4340F4E79C090020014B9868BE
:103EA000704700BF9C0900202DE9F04104464FF007
:103EB0002003EFF3118683F31288BFF36F8F437BE8
:103EC0001A0705D586F31188BFF36F8FBDE8F0811F
:103ED00023F0200242F00801D20920D14173A368E7
:103EE00013B1204600F0CFFF04F1180001F065F88F
:103EF00004F158074FF00008A56DBD4200D0B5B9D8
:103F00000120FFF747FD104B9B68A342DAD1EFF386
:103F10000583002BD6D13046FDF7E2F9D2E703F056
:103F20005F0343F00803437300F0A5FFD7E728467B
:103F300000F0A9FF05F1180001F03FF8C5F87880FE
:103F40002846FFF7C1FDD7E79C09002008B50648C1
:103F5000064A0749121A00F02CFFBDE80840054A3E
:103F60000549064800F025BF00000020A001002000
:103F7000E855000000000000E855000000000020A7
:103F8000034B1B680BB9FEF743BC0020704700BF12
:103F9000D0090020104B10B51C689C4208BF0024BB
:103FA000FFF7EEFFA4B1D4E904321B1A62EBE07014
:103FB000B3F1004F70F100020ADA0028ACBF1846D6
:103FC0000020064B1B6913B19842A8BF184610BDCC
:103FD0006FF00040F5E700BFD40000209C090020EE
:103FE00030B5036868B10A4A5268904209D043B1BB
:103FF000D3E90421D0E90445121941EB0501C3E9D5
:104000000421426813605A600023C0E9003330BDC8
:10401000D4000020B3F1FF3F08BFB2F1FF3FF8B575
:1040200004461F46154667D081604FF02003EFF32A
:10403000118683F31288BFF36F8F6FF00102531B59
:104040004FF0FF3C6CEB0703002B1BDB2B4BD3E942
:104050000013521A6CEB0303551B63EB0703012D8E
:1040600073F10002BCBF01250023C0E904532448BA
:10407000D0E9003C834218D1C4E9000CCCF80040E0
:10408000446026E0FFF77CFF013547F100072D185B
:1040900047EBE077C4E90457E9E7521A65EB0705F7
:1040A0009C45C4E90425E7D01B68002BE4D0D3E984
:1040B0000417D4E904258A4275EB070EEDDA8A1A53
:1040C00067EB0505C3E904255A68C4E900321460AA
:1040D0005C60036883420BD09C4209D1FFF75AFF12
:1040E00018B1084B1B69834202D00021FEF75EFB2A
:1040F00086F31188BFF36F8FF8BD00BFF002002078
:10410000D40000209C0900202DE9F8430546FFF764
:104110009BFC4FF02003EFF3118483F31288BFF36D
:104120006F8F244EDFF890803560244DD8F8000062
:1041300032684045D5E9001E4FEAE2770BD050B116
:10414000D0E9043C9A4277EB0C0916DA9B1A6CEB27
:10415000070CC0E9043C52184EEB0707C5E90027DD
:1041600000253560FFF716FF2946FEF71FFB84F395
:104170001188BFF36F8FBDE8F88359184EEBE377D2
:10418000D31A336000220023C0E90423C5E90017D5
:10419000FFF726FF84F31188BFF36F8F836898477A
:1041A0004FF02003EFF3118483F31288BFF36F8F76
:1041B000BCE700BFD0090020D4000020F00200209E
:1041C00010B54FF02003EFF3118483F31288BFF38F
:1041D0006F8FFEF71DFB054AD2E90031C01841F18F
:1041E000000184F31188BFF36F8F10BDF00200202F
:1041F000024A0349034800F008BA00BFE555000031
:104200009F550000BF55000010B50A4C23681BB134
:1042100001232360002010BD00F0D6F80028F7D05D
:104220000138062803D8044B53F8200010BD03487A
:1042300010BD00BFD409002014540000FE8FFFFF02
:10424000BFF34F8F0549064BCA6802F4E06213437F
:10425000CB60BFF34F8F00BFFDE700BF00ED00E074
:104260000400FA05F0B4094F094E0A4C0A4A0B4DF6
:104270000B494FF0FE333B605268336023600024EB
:104280002B60C1F80045F0BC104700BF00B40250DD
:1042900004B4025008B40250DC0000200CB40250F8
:1042A00000A00250D0E90012014BC3E90012704790
:1042B000DC00002010B5044630B16368DB0602D58F
:1042C00000232360636010BD024B03485B6898477E
:1042D000F3E700BFDC0000203054000068B1436801
:1042E0003BB1DB0607D5BFF35F8F002303601846A1
:1042F000704703487047034870476FF4E0407047C9
:10430000EA8FFFFFE98FFFFF10B5044620B10022BE
:1043100011232260636010BD0148FFF7A3FFF6E799
:1043200058540000C0B14368A3B1DB0610D5012288
:10433000BFF35B8F50E8003F40E800210029F9D12E
:10434000BFF35B8F012BF3D0BFF35F8F002070476B
:1043500003487047034870476FF4E040704700BF60
:10436000E98FFFFFEA8FFFFF70B5D0E90023134C00
:10437000134DC4E90023D0E90263C4E90263114B81
:10438000086818604868586088689860D1E90360D8
:10439000D5F81411DE601861CB060DD50023C5E9F0
:1043A0004433C5E96D3305F588709047236805F5FA
:1043B000DA70BDE87040184770BD00BFEC00002007
:1043C000000E0020FC00002010B500F033F820B1F2
:1043D000032400F067F8204610BD00F035F890B9CE
:1043E00000F0B0F890B90F4B1B681B0EF02B08D1F2
:1043F0000D4A0E4B12689A420AD0072400F01CF8AE
:10440000E7E70624FAE70424204610BD0024F5E778
:10441000012000F097F804460028F7D1044B1860FB
:10442000D9E700BF28B9025024BA02500000E020AA
:104430000CBA02500020704700207047014B1860F2
:10444000704700BF04BA025010B5114800F048F898
:1044500000B110BD0F4800F043F80028F9D10E4C10
:10446000204600F03DF80028F3D10C4B0C481C60AE
:1044700000F036F801460028EBD100F02DF8044694
:1044800008B1204610BD00F03FF82046FAE700BF13
:1044900034010020280100203001002038010020D4
:1044A0002C01002008B5084800F024F8074800F067
:1044B00021F8074800F01EF8064800F01BF8BDE898
:1044C000084000F00BB800BF340100202801002094
:1044D000300100202C01002000207047704700BFF1
:1044E00008B5034B02681B6810689847002008BD98
:1044F000EC00002008B5034B02685B681068984721
:10450000002008BDEC00002070B5094C094D206961
:10451000AB68984718B1084B08485B689847084A49
:10452000EB68206900211160BDE87040184700BFAA
:10453000FC000020EC000020DC0000207C54000087
:10454000E809002070B51A4D1A4E0446B268286971
:104550009047F0B95CB1184C2368ABB1012B1AD06D
:10456000013B23602869F3689847002070BD124C16
:10457000216839B9114B124A0120C3F800051368AC
:10458000002BFCD101312160F36828699847002095
:1045900070BD0C4870BD0A4A1368002BFCD1074A55
:1045A0006FF07E40C2F80035FFF748FF2368D7E779
:1045B000FC000020EC000020E809002000A00250D0
:1045C00010B90250E98FFFFF7047034658B14268A7
:1045D00002F00302012A03D0032A04D1026812B1B7
:1045E0000020986070476FF0150070474268816046
:1045F00002F00302032A4FF0000203460CBF0068DA
:1046000010465A607047002070470FB407B504A9E0
:1046100051F8040B0191FBF70BFF03B05DF804EBBD
:1046200004B07047038B13F0070305D10368002B18
:104630000CBF002003207047022B05D1438B002BB9
:1046400014BF002004207047012B05D10368002B04
:104650000CBF002005207047002070472DE9F04175
:104660000D4607461946281D90461E46FFF7BEFF19
:10467000044638B13346424629463846A446BDE88A
:10468000F0416047BDE8F08110B44FF02004EFF333
:10469000118284F31288BFF36F8F416110BC012136
:1046A000FBF7D4BE10B50C4640B139B1081DFFF779
:1046B0008CFF28B9A36833F0030301D06FF0150015
:1046C00010BD38B50C46054658B151B10B6843B121
:1046D0004B6833B11C22002100F0F0F82C6100205F
:1046E00038BD6FF01500FBE770B504460E46FFF7C6
:1046F000D9FF051E31DB4FF02003EFF3118183F367
:104700001288BFF36F8F638B208B4FF6FF75AB4220
:1047100000F007022ED0022A0ED101336383154622
:10472000012381F31188BFF36F8FB3B100233146AA
:104730002046FFF793FF10E0830701D0062A0ED131
:1047400000233360636893B9C4E90066154662B913
:104750000A4620460221FBF779FE284670BD052A4D
:104760000CBF6FF085056FF004050023D9E71E60CC
:104770006660EBE76FF00A05F7E7044608B5084600
:1047800011461A46A047FFF789FBFCF7E7FF2DE922
:10479000F84F9A46D3786F2B80460F461546A3F103
:1047A000410B29D024D8582B14BF0A261026DDF837
:1047B00028903246002340463946FBF7A1FC092ADF
:1047C000D4B21ED83034B045E4B277F1000309F812
:1047D000014D01D3D14511D82B789B0605D5082E64
:1047E00015D1AB7843F00803AB704846BDE8F88FAD
:1047F00003F0F703702BD7E70826D8E780460F466B
:10480000D7E7BBF1190F94BF37345734DBE7102ECD
:10481000EBD1AB7843F01003E6E72DE9F041074612
:10482000884615461E461446B442A4EB050002D342
:104830003EB923782BB114F8010B4146B847002844
:10484000F2DABDE8F081704708B50020FCF7A0FA65
:1048500000F092BA0146006800F08EBA00210120F3
:10486000FFF7F6BF08B5FCF71BFDBDE80840FCF7F5
:10487000F3BD0139034611F8012F0AB91A707047C8
:1048800003F8012BF7E7034600201A5C02B97047D2
:104890000130FAE7034600201A5C0AB1884200D1D1
:1048A00070470130F8E710B5431E0A44914200D129
:1048B00010BD11F8014B03F8014FF7E7C9B20244EC
:1048C0000346934200D1704703F8011BF9E74FF00C
:1048D000FF307047062808D14FF080430122C3F80B
:1048E0000025BFF34F8F20BFFDE77047002383F300
:1048F0001188BFF36F8F70470369C9B20C2201FBA7
:104900000233186C00F0070070474FF02003EFF3FC
:10491000118283F31288BFF36F8F036803F0C00323
:1049200043F00203036082F31188BFF36F8F704777
:10493000034670B50069C9B24FF02004EFF3118649
:1049400084F31288BFF36F8F0C2505FB0104246CE0
:1049500014F0C00401D0A24210D105FB01000122D5
:104960000264002086F31188BFF36F8F28B95B685B
:1049700003EBC1014B689847002070BD4FF0FF303A
:10498000F0E78022FFF7D4BFF8B5069F046905461B
:10499000C9B24FF02000EFF3118C80F31288BFF3FF
:1049A0006F8F0C2606FB0146306C00F0070EBEF13F
:1049B000010F11D1376400268CF31188BFF36F8F7C
:1049C00046B90C2000FB0144C4E90E236B6853F880
:1049D000313098473046F8BD00F0C000874214BF20
:1049E0004FF0FF366FF07706E6E713B580240094AA
:1049F000FFF7CAFF02B010BD006910B4CBB21C248F
:104A000003FB0400002110BC1047002000F020B977
:104A10000020FEF763B81046FEF708BF43685B68E6
:104A2000D3F810350B600020704743685B68D3F8FB
:104A3000040542400A404240C3F804250020704764
:104A400043685B680020C3F80815704743685B68DB
:104A50000020C3F80C15704743685A68D2F8043533
:104A60004B40C2F80435002070470369586830B5E0
:104A700058B10024814212D108689D6854B98D4212
:104A8000586000D19860002008606AB9002030BDED
:104A90002846EFE78D42206008BF9C60F3E7056879
:104AA0000446002DF4D13AB198685A680A605960FA
:104AB0000028EBD19960EAE76FF01500E7E702699B
:104AC0000B46D2E9010183E80300002070474368E8
:104AD0001B68D3F88004C3F88004704743680269F8
:104AE0001B68D3F8100148B1527C0A700020C3F84B
:104AF0001001D3F8102101221A6070474FF0FF30E7
:104B0000704707B5019001A8FDF74CFA019B03F52A
:104B1000E073890040F8231003B05DF804FB0268DD
:104B20000346D2F8580140B95B689B0706D4D2F817
:104B30002001003818BF01207047012070474268EB
:104B40001368D3F80413C90518D5D3F82011A9B1F7
:104B50004FF02000EFF3118180F31288BFF36F8FC5
:104B6000D3F8200130B10020C3F82001D3F8200190
:104B70000120D86081F31188BFF36F8F5268D2068D
:104B800015D54FF02001EFF3118281F31288BFF3A6
:104B90006F8FD3F8581111B10021C3F800154FF4ED
:104BA0008001C3F8081382F31188BFF36F8F704739
:104BB00010B50022044601212820FCF759FB2820CB
:104BC000FCF738FB2046BDE81040FDF70DBB10B5E3
:104BD0000022044601210220FCF74AFB0220FCF7D8
:104BE00029FB2046BDE81040FDF7FEBA704700F1F2
:104BF00050039B009BB203F1804303F588330022EE
:104C00001A601B68704708B50020FCF7B5FEFFF777
:104C1000FBBA08B5FCF726FAFCF7D8FABDE808405D
:104C2000FFF7F2BA4FF08053D3F83001A0F1080338
:104C3000584258417047004700F003BA08B50020B9
:104C4000FCF708FB18B9BDE80840FCF7F3BA08BD4B
:104C500010B101281DD070474FF08043D3F81824BD
:104C6000D3F81814C90312D502F00302012A0ED199
:104C7000C3F818254FF080430022C3F80421D3F86D
:104C800004210222C3F8042301229A607047002203
:104C9000EEE74FF080430022C3F80021D3F8002153
:104CA000C3F8040318607047F7B5019001A8DDE967
:104CB000084617461D46FDF781FF019B002F00EBBC
:104CC000830014BF02230023002918BF43F001030F
:104CD000002D14BF4FF00C0C4FF0000C002C43EAD9
:104CE0000C0314BF4FF4E06C4FF0000C002E43EAAD
:104CF0000C03D0F8002714BF4FF4403C4FF0000CD9
:104D000043EA0C0322EA030301B109780FB13F78AB
:104D10007F0019430DB12D78AD0039430CB12278D5
:104D200014020D430EB1367836042C433443C0F8D8
:104D3000004703B0F0BD1FB50DF10F030193002331
:104D40008DF80F1000931A461946FFF7ADFF05B016
:104D50005DF804FBFEF798BA08B5FFF7FBFF0020EB
:104D600008BD704738B1C3681888C0F30800A0F5C3
:104D70008073584258417047F8B505460E464FF0CB
:104D80002003EFF3118783F31288BFF36F8FFFF7D0
:104D900085F8314604462846FFF735FF87F311882A
:104DA000BFF36F8F2046BDE8F840FCF7D7BCFFF794
:104DB00085BDFFF778BD30B50024846141EA020467
:104DC00014F00304C0E9023201610CD14461A34232
:104DD00003D1C0E90000002030BD45690D600134F9
:104DE00041611144F3E76FF01500F5E7F8B50446AB
:104DF0000D464FF02003EFF3118683F31288BFF3C3
:104E00006F8F476977B900F0C0F858B12A684261DE
:104E1000876700F05EF8314604F10800BDE8F8400D
:104E2000FEF792BD2B6862691A602B686361A36903
:104E3000013BA36186F31188BFF36F8FF8BDEFF3D9
:104E40000580003818BF0120704708B5FBF7FAFF4E
:104E5000BDE80840FFF7CABE90F90E308B4201D082
:104E6000FEF7D8BE0020704703460020C3E90200C9
:104E7000C3E900337047D0E9003213605A60002361
:104E8000C0E90033704708B5FFF7F5FF437B23F017
:104E9000020343730023836008BD034620B9EFF388
:104EA00005820AB9FCF71CBA83F31188BFF36F8F30
:104EB00070474FF02003EFF3118083F31288BFF3A4
:104EC0006F8FFFF7EABF03460068834208BF0020E8
:104ED000704710B54FF02003EFF3118483F312886D
:104EE000BFF36F8FFEF7F0FD84F31188BFF36F8F70
:104EF00010BD10B501464FF02003EFF3118483F38A
:104F00001288BFF36F8F10F80B3C13F0280F0DD1F0
:104F100051F8103C18380BB1FFF7B5FF11F80B3CF6
:104F200023F0140301F80B3CFEF7CEFD84F3118847
:104F3000BFF36F8F10BD38B504460D46FEF718FE5F
:104F4000637B43F00203637395B12B68A5609D42B8
:104F500015D0A3B194F90E1093F90E20914208D008
:104F6000521A002A05DD5A68C4E9003214605C60F8
:104F700038BD6A68934202D01B68002BECD16B6885
:104F8000C4E900531C606C60F2E738B54FF02003B1
:104F9000EFF3118583F31288BFF36F8FFFF793FF51
:104FA000044620B1FFF76FFF183000F006F885F3D4
:104FB0001188BFF36F8F204638BD10B54FF0200227
:104FC000EFF3118482F31288BFF36F8F03683BB154
:104FD000FFF706F8002084F31188BFF36F8F10BD30
:104FE0006FF01500F7E710B54FF02003EFF31184D1
:104FF00083F31288BFF36F8FFEF7CCFF84F3118821
:10500000BFF36F8F10BD70B504460D464FF02003FF
:10501000EFF3118683F31288BFF36F8FFEF7BAFFA9
:10502000012805DDA04203DB29462046FDF7BEFB33
:1050300086F31188BFF36F8F70BD08B5FFF7C0F816
:1050400008BD08B1FCF7AEBC70470000FDF704BC1A
:08505000E0B0FF7F0100000049
:1050580019190000000000002D1A0000B8500000C7
:10506800594D000000000000C53400000000000099
:10507800CD1D0000E8500000CD1D0000D0500000FC
:105088000F4C000000000000B14B00000051000070
:10509800CF4B000018510000A11C000000000000C8
:1050A800F925000000000000134C0000000000007B
:1050B8005855000048530000305300003C010020C0
:1050C80068080020C8520000655500008853000099
:1050D8006453000044010020C4080020C2520000AC
:1050E8005E55000098530000645300004001002002
:1050F800D0080020BC5200006C550000DC530000B2
:10510800A8530000480100203C000020B6520000CF
:1051180073550000BC530000A85300004C01002048
:0851280028000020B052000035
:10513000552B0000374C0000000000005D480000C7
:10514000185100003F4B0000000000005D480000C7
:10515000000000005D480000000000005D48000005
:10516000D1300000374C0000000000005D48000016
:10517000000000005D480000000000005D480000E5
:10518000000000005D480000000000005D480000D5
:10519000000000005D480000000000005D480000C5
:1051A000000000005D480000000000005D480000B5
:1051B000000000005D48000000000000A52600007F
:1051C000000000005D480000000000005D48000095
:1051D000000000005D480000000000005D48000085
:1051E000000000005D480000000000005D48000075
:1051F000000000005D480000000000005D48000065
:10520000000000005D480000000000005D48000054
:10521000000000005D480000000000005D48000044
:10522000000000005D480000000000005D48000034
:10523000000000005D480000000000005D48000024
:10524000000000005D480000000000005D48000014
:10525000000000005D480000000000005D48000004
:10526000000000005D480000000000005D480000F4
:10527000005100003F4B0000000000005D480000AE
:10528000000000005D480000000000005D480000D4
:10529000000000005D480000000000005D480000C4
:1052A000000000005D480000000000005D480000B4
:1052B00000800080FF7F00800080FF7F00800080F2
:0E52C000FF7F00800080FF7F00800080FF7F66
:0252CE00FFFFE0
:1052D0000338FDD870470000000000004948000076
:1052E0005D11000071100000B910000011110000E4
:1052F0001C0000200400002014000020000000001A
:105300000C000020000000200000000000000B0640
:105310000200000018530000000000004355000088
:1053200026000207000000204B55000022000B1150
:10533000411B000083490000EB4900000000000011
:10534000F948000000000000DD1A0000751B000095
:105350000B4A0000114A0000E9190000B9190000C9
:1053600000000000491E00001D4A00002B4A0000FA
:10537000414A00004D4A0000594A0000F91C000053
:105380006B4A000000000000FFFFFFFF000000501C
:105390000000000000000000FFFF000000030050BC
:1053A0000000000001000000DD4A0000252100008F
:1053B000CF4A0000C11F0000BF4A0000002000408B
:1053C00002000000000000000600000008000000CD
:1053D00005000000070000000101000000800240FD
:1053E0000200000000000000220000002100000078
:1053F000FFFFFFFFFFFFFFFF01000000585000000C
:10540000A8500000B0500000B8500000B850000094
:10541000F5FFFFFFFF8FFFFFFF8FFFFFFE8FFFFFF7
:10542000FE8FFFFFFD8FFFFFFC8FFFFFFC8FFFFF55
:105430006D757465785F667265652063616C6C6517
:10544000642077697468204E554C4C2070617261FD
:105450006D6574657200000043616E277420696E8B
:10546000697469616C697A65206D757465782C2042
:10547000776173204E554C4C0D0A0000436F756CDC
:1054800064206E6F74206C6F636B20706F77657231
:105490002073617665206D75746578006E7266356F
:1054A00032383430646B5F6E7266353238343000B7
:1054B00048656C6C6F20576F726C64212025730AED
:1054C00000286E696C29004661696C656420746F00
:1054D000207265626F6F743A207370696E6E696EC8
:1054E0006720656E646C6573736C792E2E2E0A00CE
:1054F0006D757465785F696E69742063616C6C6545
:10550000642077697468204E554C4C20706172613C
:105510006D6574657200436F756C64206E6F7420E6
:10552000616C6C6F63617465206D75746578206261
:1055300065666F726520696E697469616C697A6904
:105540006E6700464C4153485F30005352414D5FF7
:105550003000000001000000434C4F434B00475017
:10556000494F5F31004750494F5F30005541525419
:105570005F3100554152545F3000000000000001CF
:105580000100000000005465726D696E616C00528C
:10559000545400534547474552006D61696E00768B
:1055A000322E372E39392D6E6373312D3231383228
:1055B0002D67626233396466653331323161002AA6
:1055C0002A2A20426F6F74696E67205A6570687965
:1055D00072204F53206275696C64202573202573F7
:0855E000202A2A2A0A0000001B
:1055E800074600005001002001000000640100206F
:1055F8000100000078010020010000008C0100205B
:1056080001000000CF4800000000000000C20100B7
:10561800000103000000000000000000000000007E
:1056280000C20100000103000000000000000000AB
:105638000090D003000000000000000000000000FF
:105648000000000000000000000000000000000052
:105658000000000000000000000000000000000042
:105668000000000000000000000000000000000032
:105678000000000000000000000000000000000022
:105688000000000000000000000000000000000012
:105698000000000000000000000000000000000002
:1056A80000000000FF0000000000000000000000F3
:1056B800FFFF0F00D4000020D400002000000000ED
:1056C80041420000D80900201100000009430000F1
:1056D800B542000025430000DD4200002001002003
:1056E800E400002018010020000000001001002044
:1056F800DC09002011000000E00900201100000072
:10570800E409002011000000000100200C01002025
:0C57180004010020FC00002030010020F3
:105724000000000000000000000000000000000075
:045734000000000071
:10573800500100205001002000000000000000007F
:105748000E00000064010020640100200000000039
:10575800000000000E000000780100207801002001
:1057680000000000000000000E0000008C01002076
:105778008C01002000000000000000000E00000066
:040000030000168162
:00000001FF
